{"abi":[{"type":"constructor","inputs":[{"name":"name","type":"string","internalType":"string"},{"name":"symbol","type":"string","internalType":"string"}],"stateMutability":"nonpayable"},{"type":"function","name":"allowance","inputs":[{"name":"owner","type":"address","internalType":"address"},{"name":"spender","type":"address","internalType":"address"}],"outputs":[{"name":"","type":"uint256","internalType":"uint256"}],"stateMutability":"view"},{"type":"function","name":"approve","inputs":[{"name":"spender","type":"address","internalType":"address"},{"name":"amount","type":"uint256","internalType":"uint256"}],"outputs":[{"name":"","type":"bool","internalType":"bool"}],"stateMutability":"nonpayable"},{"type":"function","name":"balanceOf","inputs":[{"name":"account","type":"address","internalType":"address"}],"outputs":[{"name":"","type":"uint256","internalType":"uint256"}],"stateMutability":"view"},{"type":"function","name":"decimals","inputs":[],"outputs":[{"name":"","type":"uint8","internalType":"uint8"}],"stateMutability":"view"},{"type":"function","name":"decreaseAllowance","inputs":[{"name":"spender","type":"address","internalType":"address"},{"name":"subtractedValue","type":"uint256","internalType":"uint256"}],"outputs":[{"name":"","type":"bool","internalType":"bool"}],"stateMutability":"nonpayable"},{"type":"function","name":"increaseAllowance","inputs":[{"name":"spender","type":"address","internalType":"address"},{"name":"addedValue","type":"uint256","internalType":"uint256"}],"outputs":[{"name":"","type":"bool","internalType":"bool"}],"stateMutability":"nonpayable"},{"type":"function","name":"mint","inputs":[{"name":"to","type":"address","internalType":"address"},{"name":"amount","type":"uint256","internalType":"uint256"}],"outputs":[],"stateMutability":"nonpayable"},{"type":"function","name":"minter","inputs":[],"outputs":[{"name":"","type":"address","internalType":"address"}],"stateMutability":"view"},{"type":"function","name":"name","inputs":[],"outputs":[{"name":"","type":"string","internalType":"string"}],"stateMutability":"view"},{"type":"function","name":"symbol","inputs":[],"outputs":[{"name":"","type":"string","internalType":"string"}],"stateMutability":"view"},{"type":"function","name":"totalSupply","inputs":[],"outputs":[{"name":"","type":"uint256","internalType":"uint256"}],"stateMutability":"view"},{"type":"function","name":"transfer","inputs":[{"name":"to","type":"address","internalType":"address"},{"name":"amount","type":"uint256","internalType":"uint256"}],"outputs":[{"name":"","type":"bool","internalType":"bool"}],"stateMutability":"nonpayable"},{"type":"function","name":"transferFrom","inputs":[{"name":"from","type":"address","internalType":"address"},{"name":"to","type":"address","internalType":"address"},{"name":"amount","type":"uint256","internalType":"uint256"}],"outputs":[{"name":"","type":"bool","internalType":"bool"}],"stateMutability":"nonpayable"},{"type":"event","name":"Approval","inputs":[{"name":"owner","type":"address","indexed":true,"internalType":"address"},{"name":"spender","type":"address","indexed":true,"internalType":"address"},{"name":"value","type":"uint256","indexed":false,"internalType":"uint256"}],"anonymous":false},{"type":"event","name":"Transfer","inputs":[{"name":"from","type":"address","indexed":true,"internalType":"address"},{"name":"to","type":"address","indexed":true,"internalType":"address"},{"name":"value","type":"uint256","indexed":false,"internalType":"uint256"}],"anonymous":false}],"bytecode":{"object":"0x60806040523480156200001157600080fd5b5060405162000dfb38038062000dfb83398101604081905262000034916200020c565b8181600362000044838262000304565b50600462000053828262000304565b50505062000074336b204fce5e3e250261100000006200007c60201b60201c565b5050620003f8565b6001600160a01b038216620000d75760405162461bcd60e51b815260206004820152601f60248201527f45524332303a206d696e7420746f20746865207a65726f206164647265737300604482015260640160405180910390fd5b8060026000828254620000eb9190620003d0565b90915550506001600160a01b038216600081815260208181526040808320805486019055518481527fddf252ad1be2c89b69c2b068fc378daa952ba7f163c4a11628f55a4df523b3ef910160405180910390a35050565b505050565b634e487b7160e01b600052604160045260246000fd5b600082601f8301126200016f57600080fd5b81516001600160401b03808211156200018c576200018c62000147565b604051601f8301601f19908116603f01168101908282118183101715620001b757620001b762000147565b81604052838152602092508683858801011115620001d457600080fd5b600091505b83821015620001f85785820183015181830184015290820190620001d9565b600093810190920192909252949350505050565b600080604083850312156200022057600080fd5b82516001600160401b03808211156200023857600080fd5b62000246868387016200015d565b935060208501519150808211156200025d57600080fd5b506200026c858286016200015d565b9150509250929050565b600181811c908216806200028b57607f821691505b602082108103620002ac57634e487b7160e01b600052602260045260246000fd5b50919050565b601f8211156200014257600081815260208120601f850160051c81016020861015620002db5750805b601f850160051c820191505b81811015620002fc57828155600101620002e7565b505050505050565b81516001600160401b0381111562000320576200032062000147565b620003388162000331845462000276565b84620002b2565b602080601f831160018114620003705760008415620003575750858301515b600019600386901b1c1916600185901b178555620002fc565b600085815260208120601f198616915b82811015620003a15788860151825594840194600190910190840162000380565b5085821015620003c05787850151600019600388901b60f8161c191681555b5050505050600190811b01905550565b80820180821115620003f257634e487b7160e01b600052601160045260246000fd5b92915050565b6109f380620004086000396000f3fe608060405234801561001057600080fd5b50600436106100cf5760003560e01c8063395093511161008c57806395d89b411161006657806395d89b41146101c5578063a457c2d7146101cd578063a9059cbb146101e0578063dd62ed3e146101f357600080fd5b8063395093511461017457806340c10f191461018757806370a082311461019c57600080fd5b806306fdde03146100d457806307546172146100f2578063095ea7b31461011d57806318160ddd1461014057806323b872dd14610152578063313ce56714610165575b600080fd5b6100dc610206565b6040516100e9919061083d565b60405180910390f35b600554610105906001600160a01b031681565b6040516001600160a01b0390911681526020016100e9565b61013061012b3660046108a7565b610298565b60405190151581526020016100e9565b6002545b6040519081526020016100e9565b6101306101603660046108d1565b6102b2565b604051601281526020016100e9565b6101306101823660046108a7565b6102d6565b61019a6101953660046108a7565b6102f8565b005b6101446101aa36600461090d565b6001600160a01b031660009081526020819052604090205490565b6100dc610379565b6101306101db3660046108a7565b610388565b6101306101ee3660046108a7565b610403565b61014461020136600461092f565b610411565b60606003805461021590610962565b80601f016020809104026020016040519081016040528092919081815260200182805461024190610962565b801561028e5780601f106102635761010080835404028352916020019161028e565b820191906000526020600020905b81548152906001019060200180831161027157829003601f168201915b5050505050905090565b6000336102a681858561043c565b60019150505b92915050565b6000336102c0858285610560565b6102cb8585856105da565b506001949350505050565b6000336102a68185856102e98383610411565b6102f3919061099c565b61043c565b6005546001600160a01b0316158061031a57506005546001600160a01b031633145b61036b5760405162461bcd60e51b815260206004820152601e60248201527f6f6e6c79206d696e7461626c6520616464726573732063616e206d696e74000060448201526064015b60405180910390fd5b610375828261077e565b5050565b60606004805461021590610962565b600033816103968286610411565b9050838110156103f65760405162461bcd60e51b815260206004820152602560248201527f45524332303a2064656372656173656420616c6c6f77616e63652062656c6f77604482015264207a65726f60d81b6064820152608401610362565b6102cb828686840361043c565b6000336102a68185856105da565b6001600160a01b03918216600090815260016020908152604080832093909416825291909152205490565b6001600160a01b03831661049e5760405162461bcd60e51b8152602060048201526024808201527f45524332303a20617070726f76652066726f6d20746865207a65726f206164646044820152637265737360e01b6064820152608401610362565b6001600160a01b0382166104ff5760405162461bcd60e51b815260206004820152602260248201527f45524332303a20617070726f766520746f20746865207a65726f206164647265604482015261737360f01b6064820152608401610362565b6001600160a01b0383811660008181526001602090815260408083209487168084529482529182902085905590518481527f8c5be1e5ebec7d5bd14f71427d1e84f3dd0314c0f7b2291e5b200ac8c7c3b925910160405180910390a3505050565b600061056c8484610411565b905060001981146105d457818110156105c75760405162461bcd60e51b815260206004820152601d60248201527f45524332303a20696e73756666696369656e7420616c6c6f77616e63650000006044820152606401610362565b6105d4848484840361043c565b50505050565b6001600160a01b03831661063e5760405162461bcd60e51b815260206004820152602560248201527f45524332303a207472616e736665722066726f6d20746865207a65726f206164604482015264647265737360d81b6064820152608401610362565b6001600160a01b0382166106a05760405162461bcd60e51b815260206004820152602360248201527f45524332303a207472616e7366657220746f20746865207a65726f206164647260448201526265737360e81b6064820152608401610362565b6001600160a01b038316600090815260208190526040902054818110156107185760405162461bcd60e51b815260206004820152602660248201527f45524332303a207472616e7366657220616d6f756e7420657863656564732062604482015265616c616e636560d01b6064820152608401610362565b6001600160a01b03848116600081815260208181526040808320878703905593871680835291849020805487019055925185815290927fddf252ad1be2c89b69c2b068fc378daa952ba7f163c4a11628f55a4df523b3ef910160405180910390a36105d4565b6001600160a01b0382166107d45760405162461bcd60e51b815260206004820152601f60248201527f45524332303a206d696e7420746f20746865207a65726f2061646472657373006044820152606401610362565b80600260008282546107e6919061099c565b90915550506001600160a01b038216600081815260208181526040808320805486019055518481527fddf252ad1be2c89b69c2b068fc378daa952ba7f163c4a11628f55a4df523b3ef910160405180910390a35050565b600060208083528351808285015260005b8181101561086a5785810183015185820160400152820161084e565b506000604082860101526040601f19601f8301168501019250505092915050565b80356001600160a01b03811681146108a257600080fd5b919050565b600080604083850312156108ba57600080fd5b6108c38361088b565b946020939093013593505050565b6000806000606084860312156108e657600080fd5b6108ef8461088b565b92506108fd6020850161088b565b9150604084013590509250925092565b60006020828403121561091f57600080fd5b6109288261088b565b9392505050565b6000806040838503121561094257600080fd5b61094b8361088b565b91506109596020840161088b565b90509250929050565b600181811c9082168061097657607f821691505b60208210810361099657634e487b7160e01b600052602260045260246000fd5b50919050565b808201808211156102ac57634e487b7160e01b600052601160045260246000fdfea2646970667358221220c22bc75b1e7e61523e547b0961c82fd1bd74fbe2d568faf630d68af77f16589d64736f6c63430008110033","linkReferences":{}},"methodIdentifiers":{"allowance(address,address)":"dd62ed3e","approve(address,uint256)":"095ea7b3","balanceOf(address)":"70a08231","decimals()":"313ce567","decreaseAllowance(address,uint256)":"a457c2d7","increaseAllowance(address,uint256)":"39509351","mint(address,uint256)":"40c10f19","minter()":"07546172","name()":"06fdde03","symbol()":"95d89b41","totalSupply()":"18160ddd","transfer(address,uint256)":"a9059cbb","transferFrom(address,address,uint256)":"23b872dd"},"id":78}