{"abi":[{"type":"function","name":"ACTION_REWARD_MIN_VOTE_PER_THOUSAND","inputs":[],"outputs":[{"name":"","type":"uint256","internalType":"uint256"}],"stateMutability":"view"},{"type":"function","name":"MAX_GOV_BOOST_REWARD_MULTIPLIER","inputs":[],"outputs":[{"name":"","type":"uint256","internalType":"uint256"}],"stateMutability":"view"},{"type":"function","name":"ROUND_REWARD_ACTION_PER_THOUSAND","inputs":[],"outputs":[{"name":"","type":"uint256","internalType":"uint256"}],"stateMutability":"view"},{"type":"function","name":"ROUND_REWARD_GOV_PER_THOUSAND","inputs":[],"outputs":[{"name":"","type":"uint256","internalType":"uint256"}],"stateMutability":"view"},{"type":"function","name":"actionReward","inputs":[{"name":"","type":"address","internalType":"address"},{"name":"","type":"uint256","internalType":"uint256"}],"outputs":[{"name":"","type":"uint256","internalType":"uint256"}],"stateMutability":"view"},{"type":"function","name":"actionRewardBurnChecked","inputs":[{"name":"","type":"address","internalType":"address"},{"name":"","type":"uint256","internalType":"uint256"}],"outputs":[{"name":"","type":"bool","internalType":"bool"}],"stateMutability":"view"},{"type":"function","name":"actionRewardByActionIdByAccount","inputs":[{"name":"tokenAddress","type":"address","internalType":"address"},{"name":"round","type":"uint256","internalType":"uint256"},{"name":"actionId","type":"uint256","internalType":"uint256"},{"name":"account","type":"address","internalType":"address"}],"outputs":[{"name":"reward","type":"uint256","internalType":"uint256"},{"name":"isMinted","type":"bool","internalType":"bool"}],"stateMutability":"view"},{"type":"function","name":"actionRewardMintedByAccount","inputs":[{"name":"","type":"address","internalType":"address"},{"name":"","type":"uint256","internalType":"uint256"},{"name":"","type":"uint256","internalType":"uint256"},{"name":"","type":"address","internalType":"address"}],"outputs":[{"name":"","type":"uint256","internalType":"uint256"}],"stateMutability":"view"},{"type":"function","name":"boostRewardBurnCheckeded","inputs":[{"name":"","type":"address","internalType":"address"},{"name":"","type":"uint256","internalType":"uint256"}],"outputs":[{"name":"","type":"bool","internalType":"bool"}],"stateMutability":"view"},{"type":"function","name":"calculateRoundActionReward","inputs":[{"name":"tokenAddress","type":"address","internalType":"address"}],"outputs":[{"name":"","type":"uint256","internalType":"uint256"}],"stateMutability":"view"},{"type":"function","name":"calculateRoundGovReward","inputs":[{"name":"tokenAddress","type":"address","internalType":"address"}],"outputs":[{"name":"","type":"uint256","internalType":"uint256"}],"stateMutability":"view"},{"type":"function","name":"govBoostReward","inputs":[{"name":"tokenAddress","type":"address","internalType":"address"},{"name":"round","type":"uint256","internalType":"uint256"}],"outputs":[{"name":"","type":"uint256","internalType":"uint256"}],"stateMutability":"view"},{"type":"function","name":"govReward","inputs":[{"name":"","type":"address","internalType":"address"},{"name":"","type":"uint256","internalType":"uint256"}],"outputs":[{"name":"","type":"uint256","internalType":"uint256"}],"stateMutability":"view"},{"type":"function","name":"govRewardByAccount","inputs":[{"name":"tokenAddress","type":"address","internalType":"address"},{"name":"round","type":"uint256","internalType":"uint256"},{"name":"account","type":"address","internalType":"address"}],"outputs":[{"name":"verifyReward","type":"uint256","internalType":"uint256"},{"name":"boostReward","type":"uint256","internalType":"uint256"},{"name":"burnReward","type":"uint256","internalType":"uint256"},{"name":"isMinted","type":"bool","internalType":"bool"}],"stateMutability":"view"},{"type":"function","name":"govRewardMintedByAccount","inputs":[{"name":"","type":"address","internalType":"address"},{"name":"","type":"uint256","internalType":"uint256"},{"name":"","type":"address","internalType":"address"}],"outputs":[{"name":"","type":"uint256","internalType":"uint256"}],"stateMutability":"view"},{"type":"function","name":"govVerifyReward","inputs":[{"name":"tokenAddress","type":"address","internalType":"address"},{"name":"round","type":"uint256","internalType":"uint256"}],"outputs":[{"name":"","type":"uint256","internalType":"uint256"}],"stateMutability":"view"},{"type":"function","name":"initialize","inputs":[{"name":"voteAddress_","type":"address","internalType":"address"},{"name":"verifyAddress_","type":"address","internalType":"address"},{"name":"stakeAddress_","type":"address","internalType":"address"},{"name":"actionRewardMinVotePerThousand","type":"uint256","internalType":"uint256"},{"name":"roundRewardGovPerThousand","type":"uint256","internalType":"uint256"},{"name":"roundRewardActionPerThousand","type":"uint256","internalType":"uint256"},{"name":"maxGovBoostRewardMultiplier","type":"uint256","internalType":"uint256"}],"outputs":[],"stateMutability":"nonpayable"},{"type":"function","name":"initialized","inputs":[],"outputs":[{"name":"","type":"bool","internalType":"bool"}],"stateMutability":"view"},{"type":"function","name":"isActionIdWithReward","inputs":[{"name":"tokenAddress","type":"address","internalType":"address"},{"name":"round","type":"uint256","internalType":"uint256"},{"name":"actionId","type":"uint256","internalType":"uint256"}],"outputs":[{"name":"","type":"bool","internalType":"bool"}],"stateMutability":"view"},{"type":"function","name":"isRewardPrepared","inputs":[{"name":"tokenAddress","type":"address","internalType":"address"},{"name":"round","type":"uint256","internalType":"uint256"}],"outputs":[{"name":"","type":"bool","internalType":"bool"}],"stateMutability":"view"},{"type":"function","name":"mintActionReward","inputs":[{"name":"tokenAddress","type":"address","internalType":"address"},{"name":"round","type":"uint256","internalType":"uint256"},{"name":"actionId","type":"uint256","internalType":"uint256"}],"outputs":[{"name":"","type":"uint256","internalType":"uint256"}],"stateMutability":"nonpayable"},{"type":"function","name":"mintGovReward","inputs":[{"name":"tokenAddress","type":"address","internalType":"address"},{"name":"round","type":"uint256","internalType":"uint256"}],"outputs":[{"name":"verifyReward","type":"uint256","internalType":"uint256"},{"name":"boostReward","type":"uint256","internalType":"uint256"},{"name":"burnReward","type":"uint256","internalType":"uint256"}],"stateMutability":"nonpayable"},{"type":"function","name":"numOfMintGovRewardByAccount","inputs":[{"name":"","type":"address","internalType":"address"},{"name":"","type":"address","internalType":"address"}],"outputs":[{"name":"","type":"uint256","internalType":"uint256"}],"stateMutability":"view"},{"type":"function","name":"prepareRewardIfNeeded","inputs":[{"name":"tokenAddress","type":"address","internalType":"address"}],"outputs":[],"stateMutability":"nonpayable"},{"type":"function","name":"reservedAvailable","inputs":[{"name":"tokenAddress","type":"address","internalType":"address"}],"outputs":[{"name":"","type":"uint256","internalType":"uint256"}],"stateMutability":"view"},{"type":"function","name":"rewardAvailable","inputs":[{"name":"tokenAddress","type":"address","internalType":"address"}],"outputs":[{"name":"","type":"uint256","internalType":"uint256"}],"stateMutability":"view"},{"type":"function","name":"rewardBurned","inputs":[{"name":"","type":"address","internalType":"address"}],"outputs":[{"name":"","type":"uint256","internalType":"uint256"}],"stateMutability":"view"},{"type":"function","name":"rewardMinted","inputs":[{"name":"","type":"address","internalType":"address"}],"outputs":[{"name":"","type":"uint256","internalType":"uint256"}],"stateMutability":"view"},{"type":"function","name":"rewardReserved","inputs":[{"name":"","type":"address","internalType":"address"}],"outputs":[{"name":"","type":"uint256","internalType":"uint256"}],"stateMutability":"view"},{"type":"function","name":"stakeAddress","inputs":[],"outputs":[{"name":"","type":"address","internalType":"address"}],"stateMutability":"view"},{"type":"function","name":"verifyAddress","inputs":[],"outputs":[{"name":"","type":"address","internalType":"address"}],"stateMutability":"view"},{"type":"function","name":"voteAddress","inputs":[],"outputs":[{"name":"","type":"address","internalType":"address"}],"stateMutability":"view"},{"type":"event","name":"BurnActionReward","inputs":[{"name":"tokenAddress","type":"address","indexed":true,"internalType":"address"},{"name":"round","type":"uint256","indexed":true,"internalType":"uint256"},{"name":"burnReward","type":"uint256","indexed":false,"internalType":"uint256"}],"anonymous":false},{"type":"event","name":"BurnBoostReward","inputs":[{"name":"tokenAddress","type":"address","indexed":true,"internalType":"address"},{"name":"round","type":"uint256","indexed":true,"internalType":"uint256"},{"name":"burnReward","type":"uint256","indexed":false,"internalType":"uint256"}],"anonymous":false},{"type":"event","name":"MintActionReward","inputs":[{"name":"tokenAddress","type":"address","indexed":true,"internalType":"address"},{"name":"round","type":"uint256","indexed":false,"internalType":"uint256"},{"name":"actionId","type":"uint256","indexed":true,"internalType":"uint256"},{"name":"account","type":"address","indexed":true,"internalType":"address"},{"name":"reward","type":"uint256","indexed":false,"internalType":"uint256"}],"anonymous":false},{"type":"event","name":"MintGovReward","inputs":[{"name":"tokenAddress","type":"address","indexed":true,"internalType":"address"},{"name":"round","type":"uint256","indexed":true,"internalType":"uint256"},{"name":"account","type":"address","indexed":true,"internalType":"address"},{"name":"verifyReward","type":"uint256","indexed":false,"internalType":"uint256"},{"name":"boostReward","type":"uint256","indexed":false,"internalType":"uint256"},{"name":"burnReward","type":"uint256","indexed":false,"internalType":"uint256"}],"anonymous":false},{"type":"event","name":"PrepareReward","inputs":[{"name":"tokenAddress","type":"address","indexed":true,"internalType":"address"},{"name":"round","type":"uint256","indexed":true,"internalType":"uint256"},{"name":"govRewardAmount","type":"uint256","indexed":false,"internalType":"uint256"},{"name":"actionRewardAmount","type":"uint256","indexed":false,"internalType":"uint256"}],"anonymous":false},{"type":"error","name":"AlreadyInitialized","inputs":[]},{"type":"error","name":"AlreadyMinted","inputs":[]},{"type":"error","name":"NoRewardAvailable","inputs":[]},{"type":"error","name":"NotEnoughReward","inputs":[]},{"type":"error","name":"NotEnoughRewardToBurn","inputs":[]},{"type":"error","name":"RoundNotReadyToMint","inputs":[]}],"bytecode":{"object":"0x608060405234801561001057600080fd5b506119db806100206000396000f3fe608060405234801561001057600080fd5b50600436106101f05760003560e01c806374474ebe1161010f578063aaea8533116100a2578063b717e04011610071578063b717e040146104fb578063c7ef656014610530578063ce5a66bb14610558578063e26f8c171461058657600080fd5b8063aaea8533146104a8578063ac796f2f146104bb578063af8e6cbb146104e9578063b2398720146104f257600080fd5b806385107367116100de57806385107367146104415780638ad778af146104545780638ce4c7921461047f578063a3eb87e81461048857600080fd5b806374474ebe146103da57806381a2596f146103e3578063823ed39d1461041b57806384e2f0681461042e57600080fd5b80634779b1351161018757806365925b901161015657806365925b901461036957806369808e1b1461037c5780636d597ba31461038f57806373c3041c146103af57600080fd5b80634779b135146103305780634c51ea59146103435780635943f2ca146103565780635ae37b8e1461034357600080fd5b80632efa0375116101c35780632efa0375146102a25780633b2b378d146102b55780633d6dc928146102d557806341cb94ca1461030557600080fd5b80630beaac04146101f5578063158ef93e14610242578063283c897e1461025f5780632b4656c81461028d575b600080fd5b61022f610203366004611792565b600960209081526000948552604080862082529385528385208152918452828420909152825290205481565b6040519081526020015b60405180910390f35b600a5461024f9060ff1681565b6040519015158152602001610239565b61024f61026d3660046117d8565b600860209081526000928352604080842090915290825290205460ff1681565b6102a061029b366004611802565b6105b7565b005b61022f6102b036600461186a565b61063b565b61022f6102c336600461186a565b60026020526000908152604090205481565b600a546102ed9061010090046001600160a01b031681565b6040516001600160a01b039091168152602001610239565b61022f610313366004611885565b600360209081526000928352604080842090915290825290205481565b61022f61033e36600461186a565b610666565b61022f6103513660046117d8565b610677565b61022f61036436600461186a565b6106ae565b600b546102ed906001600160a01b031681565b6102a061038a36600461186a565b6106ef565b61022f61039d36600461186a565b60016020526000908152604090205481565b61022f6103bd3660046117d8565b600760209081526000928352604080842090915290825290205481565b61022f600d5481565b61024f6103f13660046117d8565b6001600160a01b039190911660009081526004602090815260408083209383529290522054151590565b61022f6104293660046118b8565b610875565b61024f61043c3660046118b8565b6109f1565b600c546102ed906001600160a01b031681565b61022f6104623660046117d8565b600460209081526000928352604080842090915290825290205481565b61022f600f5481565b61022f61049636600461186a565b60006020819052908152604090205481565b61022f6104b636600461186a565b610b12565b61024f6104c93660046117d8565b600560209081526000928352604080842090915290825290205460ff1681565b61022f600e5481565b61022f60105481565b61050e6105093660046118eb565b610bf6565b6040805194855260208501939093529183015215156060820152608001610239565b61054361053e366004611792565b610c4a565b60408051928352901515602083015201610239565b61056b6105663660046117d8565b610c9f565b60408051938452602084019290925290820152606001610239565b61022f6105943660046118eb565b600660209081526000938452604080852082529284528284209052825290205481565b600a5460ff16156105da5760405162dc149f60e41b815260040160405180910390fd5b600a805460016001600160a81b03199091166101006001600160a01b039a8b160217179055600b80546001600160a01b0319908116978916979097179055600c80549096169490961693909317909355600d55600e91909155600f55601055565b60006103e8600f5461064c84610b12565b610656919061193d565b6106609190611954565b92915050565b60006103e8600e5461064c84610b12565b6001600160a01b03821660009081526004602090815260408083208484529091528120546106a790600290611954565b9392505050565b6001600160a01b0381166000908152600260209081526040808320546001835281842054928490529083205490916106e591611976565b6106609190611976565b600b5460408051632286722f60e21b815290516000926001600160a01b031691638a19c8bc9160048083019260209291908290030181865afa158015610739573d6000803e3d6000fd5b505050506040513d601f19601f8201168201806040525081019061075d9190611989565b6001600160a01b03831660009081526004602090815260408083208484529091529020549091501561078d575050565b600061079883610666565b6001600160a01b038416600090815260046020908152604080832086845290915281208290559091506107ca8461063b565b6001600160a01b0385166000908152600760209081526040808320878452909152902081905590506107fc81836119a2565b6001600160a01b038516600090815260208190526040812080549091906108249084906119a2565b9091555050604080518381526020810183905284916001600160a01b038716917f927c129ccca74ea3ce1fe2e23c516905cefd743b3720a39cece9b85d7af2c792910160405180910390a350505050565b600082600b60009054906101000a90046001600160a01b03166001600160a01b0316638a19c8bc6040518163ffffffff1660e01b8152600401602060405180830381865afa1580156108cb573d6000803e3d6000fd5b505050506040513d601f19601f820116820180604052508101906108ef9190611989565b1161090d5760405163694832c960e01b815260040160405180910390fd5b60008061091c86868633610c4a565b915091508160000361094157604051636d363c4560e01b815260040160405180910390fd5b801561096057604051631bbdf5c560e31b815260040160405180910390fd5b6001600160a01b03861660009081526009602090815260408083208884528252808320878452825280832033845290915290208290556109a08683610e89565b6040805186815260208101849052339186916001600160a01b038a16917f120fa5956f98e84e02afa17d313655f548292531d6bb26b5efcd9ca5997003bf910160405180910390a450949350505050565b600a546040516257edd760e11b81526001600160a01b038581166004830152602482018590526000926101009004169082906103e890839062afdbae90604401602060405180830381865afa158015610a4e573d6000803e3d6000fd5b505050506040513d601f19601f82011682018060405250810190610a729190611989565b600d54610a7f919061193d565b610a899190611954565b6040516362dd912960e01b81526001600160a01b038881166004830152602482018890526044820187905291925082918416906362dd912990606401602060405180830381865afa158015610ae2573d6000803e3d6000fd5b505050506040513d601f19601f82011682018060405250810190610b069190611989565b10159695505050505050565b600081610b1e816106ae565b816001600160a01b03166318160ddd6040518163ffffffff1660e01b8152600401602060405180830381865afa158015610b5c573d6000803e3d6000fd5b505050506040513d601f19601f82011682018060405250810190610b809190611989565b826001600160a01b031663d5abeb016040518163ffffffff1660e01b8152600401602060405180830381865afa158015610bbe573d6000803e3d6000fd5b505050506040513d601f19601f82011682018060405250810190610be29190611989565b610bec9190611976565b6106a79190611976565b600080600080610c07878787610f46565b6001600160a01b03808b1660009081526006602090815260408083208d84528252808320938c168352929052205492965090945092501515905093509350935093565b600080610c5986868686611209565b6001600160a01b0380881660009081526009602090815260408083208a845282528083208984528252808320938816835292905220549092501515905094509492505050565b600080600083600b60009054906101000a90046001600160a01b03166001600160a01b0316638a19c8bc6040518163ffffffff1660e01b8152600401602060405180830381865afa158015610cf8573d6000803e3d6000fd5b505050506040513d601f19601f82011682018060405250810190610d1c9190611989565b11610d3a5760405163694832c960e01b815260040160405180910390fd5b610d448585611411565b610d4e8585611548565b6000610d5b868633610bf6565b929650909450925090508015610d8457604051631bbdf5c560e31b815260040160405180910390fd5b81610d8f84866119a2565b610d9991906119a2565b600003610db957604051636d363c4560e01b815260040160405180910390fd5b6000610dc584866119a2565b6001600160a01b03881660008181526006602090815260408083208b845282528083203380855290835281842086905593835260038252808320938352929052908120805492935090610e17836119b5565b9190505550610e268782610e89565b610e30878461171c565b6040805186815260208101869052908101849052339087906001600160a01b038a16907fe1f6d49001858e00e07a7b319093ad95741f7db8b714ffdc8be5ceed8d02d07e9060600160405180910390a450509250925092565b80610e93836106ae565b1015610eb25760405163193a582f60e31b815260040160405180910390fd5b6001600160a01b03821660009081526001602052604081208054839290610eda9084906119a2565b90915550506040516340c10f1960e01b81523360048201526024810182905282906001600160a01b038216906340c10f1990604401600060405180830381600087803b158015610f2957600080fd5b505af1158015610f3d573d6000803e3d6000fd5b50505050505050565b600080600080610f568787610677565b905080600003610f7157600080600093509350935050611200565b600b54604051630965aa9d60e41b81526001600160a01b038981166004830152602482018990528781166044830152600092169063965aa9d090606401602060405180830381865afa158015610fcb573d6000803e3d6000fd5b505050506040513d601f19601f82011682018060405250810190610fef9190611989565b90508060000361100b5760008060009450945094505050611200565b600b54604051633a00f6dd60e11b81526001600160a01b038a81166004830152602482018a90526000921690637401edba90604401602060405180830381865afa15801561105d573d6000803e3d6000fd5b505050506040513d601f19601f820116820180604052508101906110819190611989565b90508061108e838561193d565b6110989190611954565b955060006110a68a8a610677565b600b5460405163099195db60e11b81526001600160a01b038d81166004830152602482018d9052929350600092909116906313232bb690604401602060405180830381865afa1580156110fd573d6000803e3d6000fd5b505050506040513d601f19601f820116820180604052508101906111219190611989565b905080156111fa57600c546040516322fc7fb360e21b81526001600160a01b038d81166004830152602482018d90528b811660448301526000921690638bf1fecc90606401602060405180830381865afa158015611183573d6000803e3d6000fd5b505050506040513d601f19601f820116820180604052508101906111a79190611989565b90506000826111b6838661193d565b6111c09190611954565b90506010548a6111d0919061193d565b81116111dc57806111e9565b6010546111e9908b61193d565b98506111f58982611976565b975050505b50505050505b93509350939050565b6001600160a01b038416600090815260076020908152604080832086845290915281205480820361123e576000915050611409565b6112498686866109f1565b611257576000915050611409565b600b5460405163c0df7d5960e01b81526001600160a01b03888116600483015260248201889052604482018790528581166064830152600092169063c0df7d5990608401602060405180830381865afa1580156112b8573d6000803e3d6000fd5b505050506040513d601f19601f820116820180604052508101906112dc9190611989565b9050806000036112f157600092505050611409565b600b546040516364a8557360e01b81526001600160a01b0389811660048301526024820189905260009216906364a8557390604401602060405180830381865afa158015611343573d6000803e3d6000fd5b505050506040513d601f19601f820116820180604052508101906113679190611989565b600b5460405163c8829af960e01b81526001600160a01b038b81166004830152602482018b90529293506000929091169063c8829af990604401602060405180830381865afa1580156113be573d6000803e3d6000fd5b505050506040513d601f19601f820116820180604052508101906113e29190611989565b90506113ee8183611976565b6113f8848661193d565b6114029190611954565b9450505050505b949350505050565b6001600160a01b038216600090815260056020908152604080832084845290915290205460ff1615611441575050565b6001600160a01b038281166000818152600560209081526040808320868452909152808220805460ff19166001179055600b54905163099195db60e11b8152600481019390935260248301859052909216906313232bb690604401602060405180830381865afa1580156114b9573d6000803e3d6000fd5b505050506040513d601f19601f820116820180604052508101906114dd9190611989565b11156114e7575050565b60006114f38383610677565b90506114ff838261171c565b81836001600160a01b03167fa515936692cbf03079e834f2d21c7f754d9fb58493fd39721bcdcb945851b5f78360405161153b91815260200190565b60405180910390a3505050565b6001600160a01b038216600090815260086020908152604080832084845290915290205460ff1615611578575050565b6001600160a01b03821660008181526008602090815260408083208584528252808320805460ff1916600117905592825260078152828220848352905290812054908190036115c657505050565b600b5460405163c8829af960e01b81526001600160a01b03858116600483015260248201859052600092169063c8829af990604401602060405180830381865afa158015611618573d6000803e3d6000fd5b505050506040513d601f19601f8201168201806040525081019061163c9190611989565b600b546040516364a8557360e01b81526001600160a01b03878116600483015260248201879052929350600092909116906364a8557390604401602060405180830381865afa158015611693573d6000803e3d6000fd5b505050506040513d601f19601f820116820180604052508101906116b79190611989565b90508181146116c7575050505050565b6116d1858461171c565b83856001600160a01b03167f84876f59d125f6bc865d23eb05d04b0bcdd836786c8bf902a715875845e6fa638560405161170d91815260200190565b60405180910390a35050505050565b80611726836106ae565b10156117455760405163ce0a57ff60e01b815260040160405180910390fd5b6001600160a01b0382166000908152600260205260408120805483929061176d9084906119a2565b90915550505050565b80356001600160a01b038116811461178d57600080fd5b919050565b600080600080608085870312156117a857600080fd5b6117b185611776565b935060208501359250604085013591506117cd60608601611776565b905092959194509250565b600080604083850312156117eb57600080fd5b6117f483611776565b946020939093013593505050565b600080600080600080600060e0888a03121561181d57600080fd5b61182688611776565b965061183460208901611776565b955061184260408901611776565b969995985095966060810135965060808101359560a0820135955060c0909101359350915050565b60006020828403121561187c57600080fd5b6106a782611776565b6000806040838503121561189857600080fd5b6118a183611776565b91506118af60208401611776565b90509250929050565b6000806000606084860312156118cd57600080fd5b6118d684611776565b95602085013595506040909401359392505050565b60008060006060848603121561190057600080fd5b61190984611776565b92506020840135915061191e60408501611776565b90509250925092565b634e487b7160e01b600052601160045260246000fd5b808202811582820484141761066057610660611927565b60008261197157634e487b7160e01b600052601260045260246000fd5b500490565b8181038181111561066057610660611927565b60006020828403121561199b57600080fd5b5051919050565b8082018082111561066057610660611927565b6000600182016119c7576119c7611927565b506001019056fea164736f6c6343000811000a","linkReferences":{}},"methodIdentifiers":{"ACTION_REWARD_MIN_VOTE_PER_THOUSAND()":"74474ebe","MAX_GOV_BOOST_REWARD_MULTIPLIER()":"b2398720","ROUND_REWARD_ACTION_PER_THOUSAND()":"8ce4c792","ROUND_REWARD_GOV_PER_THOUSAND()":"af8e6cbb","actionReward(address,uint256)":"73c3041c","actionRewardBurnChecked(address,uint256)":"283c897e","actionRewardByActionIdByAccount(address,uint256,uint256,address)":"c7ef6560","actionRewardMintedByAccount(address,uint256,uint256,address)":"0beaac04","boostRewardBurnCheckeded(address,uint256)":"ac796f2f","calculateRoundActionReward(address)":"2efa0375","calculateRoundGovReward(address)":"4779b135","govBoostReward(address,uint256)":"5ae37b8e","govReward(address,uint256)":"8ad778af","govRewardByAccount(address,uint256,address)":"b717e040","govRewardMintedByAccount(address,uint256,address)":"e26f8c17","govVerifyReward(address,uint256)":"4c51ea59","initialize(address,address,address,uint256,uint256,uint256,uint256)":"2b4656c8","initialized()":"158ef93e","isActionIdWithReward(address,uint256,uint256)":"84e2f068","isRewardPrepared(address,uint256)":"81a2596f","mintActionReward(address,uint256,uint256)":"823ed39d","mintGovReward(address,uint256)":"ce5a66bb","numOfMintGovRewardByAccount(address,address)":"41cb94ca","prepareRewardIfNeeded(address)":"69808e1b","reservedAvailable(address)":"5943f2ca","rewardAvailable(address)":"aaea8533","rewardBurned(address)":"3b2b378d","rewardMinted(address)":"6d597ba3","rewardReserved(address)":"a3eb87e8","stakeAddress()":"85107367","verifyAddress()":"65925b90","voteAddress()":"3d6dc928"},"id":72}