{"abi":[{"type":"constructor","inputs":[{"name":"minter_","type":"address","internalType":"address"},{"name":"tokenAddress_","type":"address","internalType":"address"}],"stateMutability":"nonpayable"},{"type":"function","name":"allowance","inputs":[{"name":"owner","type":"address","internalType":"address"},{"name":"spender","type":"address","internalType":"address"}],"outputs":[{"name":"","type":"uint256","internalType":"uint256"}],"stateMutability":"view"},{"type":"function","name":"approve","inputs":[{"name":"spender","type":"address","internalType":"address"},{"name":"amount","type":"uint256","internalType":"uint256"}],"outputs":[{"name":"","type":"bool","internalType":"bool"}],"stateMutability":"nonpayable"},{"type":"function","name":"balanceOf","inputs":[{"name":"account","type":"address","internalType":"address"}],"outputs":[{"name":"","type":"uint256","internalType":"uint256"}],"stateMutability":"view"},{"type":"function","name":"burn","inputs":[{"name":"to","type":"address","internalType":"address"}],"outputs":[],"stateMutability":"nonpayable"},{"type":"function","name":"decimals","inputs":[],"outputs":[{"name":"","type":"uint8","internalType":"uint8"}],"stateMutability":"view"},{"type":"function","name":"decreaseAllowance","inputs":[{"name":"spender","type":"address","internalType":"address"},{"name":"subtractedValue","type":"uint256","internalType":"uint256"}],"outputs":[{"name":"","type":"bool","internalType":"bool"}],"stateMutability":"nonpayable"},{"type":"function","name":"increaseAllowance","inputs":[{"name":"spender","type":"address","internalType":"address"},{"name":"addedValue","type":"uint256","internalType":"uint256"}],"outputs":[{"name":"","type":"bool","internalType":"bool"}],"stateMutability":"nonpayable"},{"type":"function","name":"mint","inputs":[{"name":"to","type":"address","internalType":"address"}],"outputs":[],"stateMutability":"nonpayable"},{"type":"function","name":"minter","inputs":[],"outputs":[{"name":"","type":"address","internalType":"address"}],"stateMutability":"view"},{"type":"function","name":"name","inputs":[],"outputs":[{"name":"","type":"string","internalType":"string"}],"stateMutability":"view"},{"type":"function","name":"reserve","inputs":[],"outputs":[{"name":"","type":"uint256","internalType":"uint256"}],"stateMutability":"view"},{"type":"function","name":"symbol","inputs":[],"outputs":[{"name":"","type":"string","internalType":"string"}],"stateMutability":"view"},{"type":"function","name":"tokenAddress","inputs":[],"outputs":[{"name":"","type":"address","internalType":"address"}],"stateMutability":"view"},{"type":"function","name":"totalSupply","inputs":[],"outputs":[{"name":"","type":"uint256","internalType":"uint256"}],"stateMutability":"view"},{"type":"function","name":"transfer","inputs":[{"name":"to","type":"address","internalType":"address"},{"name":"amount","type":"uint256","internalType":"uint256"}],"outputs":[{"name":"","type":"bool","internalType":"bool"}],"stateMutability":"nonpayable"},{"type":"function","name":"transferFrom","inputs":[{"name":"from","type":"address","internalType":"address"},{"name":"to","type":"address","internalType":"address"},{"name":"amount","type":"uint256","internalType":"uint256"}],"outputs":[{"name":"","type":"bool","internalType":"bool"}],"stateMutability":"nonpayable"},{"type":"event","name":"Approval","inputs":[{"name":"owner","type":"address","indexed":true,"internalType":"address"},{"name":"spender","type":"address","indexed":true,"internalType":"address"},{"name":"value","type":"uint256","indexed":false,"internalType":"uint256"}],"anonymous":false},{"type":"event","name":"TokenBurn","inputs":[{"name":"to","type":"address","indexed":true,"internalType":"address"},{"name":"amount","type":"uint256","indexed":false,"internalType":"uint256"}],"anonymous":false},{"type":"event","name":"TokenMint","inputs":[{"name":"to","type":"address","indexed":true,"internalType":"address"},{"name":"amount","type":"uint256","indexed":false,"internalType":"uint256"}],"anonymous":false},{"type":"event","name":"Transfer","inputs":[{"name":"from","type":"address","indexed":true,"internalType":"address"},{"name":"to","type":"address","indexed":true,"internalType":"address"},{"name":"value","type":"uint256","indexed":false,"internalType":"uint256"}],"anonymous":false},{"type":"error","name":"AmountIsGreaterThanReserve","inputs":[]},{"type":"error","name":"InvalidAddress","inputs":[]},{"type":"error","name":"NotMinter","inputs":[]}],"bytecode":{"object":"0x60c06040523480156200001157600080fd5b5060405162001372380380620013728339810160408190526200003491620001ee565b806001600160a01b03166306fdde036040518163ffffffff1660e01b8152600401600060405180830381865afa15801562000073573d6000803e3d6000fd5b505050506040513d6000823e601f3d908101601f191682016040526200009d919081019062000262565b604051602001620000af91906200031a565b604051602081830303815290604052816001600160a01b03166395d89b416040518163ffffffff1660e01b8152600401600060405180830381865afa158015620000fd573d6000803e3d6000fd5b505050506040513d6000823e601f3d908101601f1916820160405262000127919081019062000262565b6040516020016200013991906200034b565b60408051601f19818403018152919052600362000157838262000406565b50600462000166828262000406565b5050506001600160a01b038216620001915760405163e6c4247b60e01b815260040160405180910390fd5b6001600160a01b038116620001b95760405163e6c4247b60e01b815260040160405180910390fd5b6001600160a01b039182166080521660a052620004d2565b80516001600160a01b0381168114620001e957600080fd5b919050565b600080604083850312156200020257600080fd5b6200020d83620001d1565b91506200021d60208401620001d1565b90509250929050565b634e487b7160e01b600052604160045260246000fd5b60005b83811015620002595781810151838201526020016200023f565b50506000910152565b6000602082840312156200027557600080fd5b81516001600160401b03808211156200028d57600080fd5b818401915084601f830112620002a257600080fd5b815181811115620002b757620002b762000226565b604051601f8201601f19908116603f01168101908382118183101715620002e257620002e262000226565b81604052828152876020848701011115620002fc57600080fd5b6200030f8360208301602088016200023c565b979650505050505050565b66029ba30b5b2b2160cd1b8152600082516200033e8160078501602087016200023c565b9190910160070192915050565b611cdd60f21b8152600082516200036a8160028501602087016200023c565b9190910160020192915050565b600181811c908216806200038c57607f821691505b602082108103620003ad57634e487b7160e01b600052602260045260246000fd5b50919050565b601f8211156200040157600081815260208120601f850160051c81016020861015620003dc5750805b601f850160051c820191505b81811015620003fd57828155600101620003e8565b5050505b505050565b81516001600160401b0381111562000422576200042262000226565b6200043a8162000433845462000377565b84620003b3565b602080601f831160018114620004725760008415620004595750858301515b600019600386901b1c1916600185901b178555620003fd565b600085815260208120601f198616915b82811015620004a35788860151825594840194600190910190840162000482565b5085821015620004c25787850151600019600388901b60f8161c191681555b5050505050600190811b01905550565b60805160a051610e5e620005146000396000818161022a0152818161040801526105de0152600081816101280152818161038b01526104fe0152610e5e6000f3fe608060405234801561001057600080fd5b50600436106101005760003560e01c806370a0823111610097578063a457c2d711610066578063a457c2d71461024c578063a9059cbb1461025f578063cd3293de14610272578063dd62ed3e1461027b57600080fd5b806370a08231146101e157806389afcb441461020a57806395d89b411461021d5780639d76ea581461022557600080fd5b806323b872dd116100d357806323b872dd14610197578063313ce567146101aa57806339509351146101b95780636a627842146101cc57600080fd5b806306fdde03146101055780630754617214610123578063095ea7b31461016257806318160ddd14610185575b600080fd5b61010d61028e565b60405161011a9190610c7b565b60405180910390f35b61014a7f000000000000000000000000000000000000000000000000000000000000000081565b6040516001600160a01b03909116815260200161011a565b610175610170366004610ce5565b610320565b604051901515815260200161011a565b6002545b60405190815260200161011a565b6101756101a5366004610d0f565b61033a565b6040516012815260200161011a565b6101756101c7366004610ce5565b61035e565b6101df6101da366004610d4b565b610380565b005b6101896101ef366004610d4b565b6001600160a01b031660009081526020819052604090205490565b6101df610218366004610d4b565b6104f3565b61010d610687565b61014a7f000000000000000000000000000000000000000000000000000000000000000081565b61017561025a366004610ce5565b610696565b61017561026d366004610ce5565b610716565b61018960055481565b610189610289366004610d6d565b610724565b60606003805461029d90610da0565b80601f01602080910402602001604051908101604052809291908181526020018280546102c990610da0565b80156103165780601f106102eb57610100808354040283529160200191610316565b820191906000526020600020905b8154815290600101906020018083116102f957829003601f168201915b5050505050905090565b60003361032e81858561074f565b60019150505b92915050565b600033610348858285610874565b6103538585856108ee565b506001949350505050565b60003361032e8185856103718383610724565b61037b9190610df0565b61074f565b336001600160a01b037f000000000000000000000000000000000000000000000000000000000000000016146103c957604051633e34a41b60e21b815260040160405180910390fd5b6001600160a01b0381166103f05760405163e6c4247b60e01b815260040160405180910390fd5b6040516370a0823160e01b81523060048201526000907f00000000000000000000000000000000000000000000000000000000000000006001600160a01b0316906370a0823190602401602060405180830381865afa158015610457573d6000803e3d6000fd5b505050506040513d601f19601f8201168201806040525081019061047b9190610e03565b9050600554811161048a575050565b60006005548261049a9190610e1c565b600583905590506104ab8382610a92565b826001600160a01b03167f36bf5aa3964be01dbd95a0154a8930793fe68353bdc580871ffb2c911366bbc7826040516104e691815260200190565b60405180910390a2505050565b336001600160a01b037f0000000000000000000000000000000000000000000000000000000000000000161461053c57604051633e34a41b60e21b815260040160405180910390fd5b6001600160a01b0381166105635760405163e6c4247b60e01b815260040160405180910390fd5b3060008181526020819052604090205460055481111561059657604051638fe0a65f60e01b815260040160405180910390fd5b80600560008282546105a89190610e1c565b909155506105b890508282610b51565b60405163a9059cbb60e01b81526001600160a01b038481166004830152602482018390527f0000000000000000000000000000000000000000000000000000000000000000169063a9059cbb906044016020604051808303816000875af1158015610627573d6000803e3d6000fd5b505050506040513d601f19601f8201168201806040525081019061064b9190610e2f565b50826001600160a01b03167fab85194d35c4ea153d0b51f3a304d1d22cb8023e499a6503fb6c28c5864ae90e826040516104e691815260200190565b60606004805461029d90610da0565b600033816106a48286610724565b9050838110156107095760405162461bcd60e51b815260206004820152602560248201527f45524332303a2064656372656173656420616c6c6f77616e63652062656c6f77604482015264207a65726f60d81b60648201526084015b60405180910390fd5b610353828686840361074f565b60003361032e8185856108ee565b6001600160a01b03918216600090815260016020908152604080832093909416825291909152205490565b6001600160a01b0383166107b15760405162461bcd60e51b8152602060048201526024808201527f45524332303a20617070726f76652066726f6d20746865207a65726f206164646044820152637265737360e01b6064820152608401610700565b6001600160a01b0382166108125760405162461bcd60e51b815260206004820152602260248201527f45524332303a20617070726f766520746f20746865207a65726f206164647265604482015261737360f01b6064820152608401610700565b6001600160a01b0383811660008181526001602090815260408083209487168084529482529182902085905590518481527f8c5be1e5ebec7d5bd14f71427d1e84f3dd0314c0f7b2291e5b200ac8c7c3b92591015b60405180910390a3505050565b60006108808484610724565b905060001981146108e857818110156108db5760405162461bcd60e51b815260206004820152601d60248201527f45524332303a20696e73756666696369656e7420616c6c6f77616e63650000006044820152606401610700565b6108e8848484840361074f565b50505050565b6001600160a01b0383166109525760405162461bcd60e51b815260206004820152602560248201527f45524332303a207472616e736665722066726f6d20746865207a65726f206164604482015264647265737360d81b6064820152608401610700565b6001600160a01b0382166109b45760405162461bcd60e51b815260206004820152602360248201527f45524332303a207472616e7366657220746f20746865207a65726f206164647260448201526265737360e81b6064820152608401610700565b6001600160a01b03831660009081526020819052604090205481811015610a2c5760405162461bcd60e51b815260206004820152602660248201527f45524332303a207472616e7366657220616d6f756e7420657863656564732062604482015265616c616e636560d01b6064820152608401610700565b6001600160a01b03848116600081815260208181526040808320878703905593871680835291849020805487019055925185815290927fddf252ad1be2c89b69c2b068fc378daa952ba7f163c4a11628f55a4df523b3ef910160405180910390a36108e8565b6001600160a01b038216610ae85760405162461bcd60e51b815260206004820152601f60248201527f45524332303a206d696e7420746f20746865207a65726f2061646472657373006044820152606401610700565b8060026000828254610afa9190610df0565b90915550506001600160a01b038216600081815260208181526040808320805486019055518481527fddf252ad1be2c89b69c2b068fc378daa952ba7f163c4a11628f55a4df523b3ef910160405180910390a35050565b6001600160a01b038216610bb15760405162461bcd60e51b815260206004820152602160248201527f45524332303a206275726e2066726f6d20746865207a65726f206164647265736044820152607360f81b6064820152608401610700565b6001600160a01b03821660009081526020819052604090205481811015610c255760405162461bcd60e51b815260206004820152602260248201527f45524332303a206275726e20616d6f756e7420657863656564732062616c616e604482015261636560f01b6064820152608401610700565b6001600160a01b0383166000818152602081815260408083208686039055600280548790039055518581529192917fddf252ad1be2c89b69c2b068fc378daa952ba7f163c4a11628f55a4df523b3ef9101610867565b600060208083528351808285015260005b81811015610ca857858101830151858201604001528201610c8c565b506000604082860101526040601f19601f8301168501019250505092915050565b80356001600160a01b0381168114610ce057600080fd5b919050565b60008060408385031215610cf857600080fd5b610d0183610cc9565b946020939093013593505050565b600080600060608486031215610d2457600080fd5b610d2d84610cc9565b9250610d3b60208501610cc9565b9150604084013590509250925092565b600060208284031215610d5d57600080fd5b610d6682610cc9565b9392505050565b60008060408385031215610d8057600080fd5b610d8983610cc9565b9150610d9760208401610cc9565b90509250929050565b600181811c90821680610db457607f821691505b602082108103610dd457634e487b7160e01b600052602260045260246000fd5b50919050565b634e487b7160e01b600052601160045260246000fd5b8082018082111561033457610334610dda565b600060208284031215610e1557600080fd5b5051919050565b8181038181111561033457610334610dda565b600060208284031215610e4157600080fd5b81518015158114610d6657600080fdfea164736f6c6343000811000a","linkReferences":{}},"methodIdentifiers":{"allowance(address,address)":"dd62ed3e","approve(address,uint256)":"095ea7b3","balanceOf(address)":"70a08231","burn(address)":"89afcb44","decimals()":"313ce567","decreaseAllowance(address,uint256)":"a457c2d7","increaseAllowance(address,uint256)":"39509351","mint(address)":"6a627842","minter()":"07546172","name()":"06fdde03","reserve()":"cd3293de","symbol()":"95d89b41","tokenAddress()":"9d76ea58","totalSupply()":"18160ddd","transfer(address,uint256)":"a9059cbb","transferFrom(address,address,uint256)":"23b872dd"},"id":75}