{"abi":[{"type":"constructor","inputs":[{"name":"groupMember_","type":"address","internalType":"address"}],"stateMutability":"nonpayable"},{"type":"function","name":"GROUP_MEMBER_ADDRESS","inputs":[],"outputs":[{"name":"","type":"address","internalType":"address"}],"stateMutability":"view"},{"type":"function","name":"canPost","inputs":[{"name":"groupId","type":"uint256","internalType":"uint256"},{"name":"senderId","type":"uint256","internalType":"uint256"},{"name":"","type":"address","internalType":"address"}],"outputs":[{"name":"","type":"bool","internalType":"bool"}],"stateMutability":"view"},{"type":"error","name":"GroupMemberScopeAddressHasNoCode","inputs":[]}],"bytecode":{"object":"0x60a060405234801561001057600080fd5b5060405161029c38038061029c83398101604081905261002f9161006b565b806001600160a01b03163b60000361005a57604051630e661ce960e41b815260040160405180910390fd5b6001600160a01b031660805261009b565b60006020828403121561007d57600080fd5b81516001600160a01b038116811461009457600080fd5b9392505050565b6080516101e16100bb600039600081816068015260c201526101e16000f3fe608060405234801561001057600080fd5b50600436106100365760003560e01c8063e20f18b31461003b578063ef7635dd14610063575b600080fd5b61004e61004936600461013d565b6100a2565b60405190151581526020015b60405180910390f35b61008a7f000000000000000000000000000000000000000000000000000000000000000081565b6040516001600160a01b03909116815260200161005a565b604051636644a3c360e11b815260048101849052602481018390526000907f00000000000000000000000000000000000000000000000000000000000000006001600160a01b03169063cc89478690604401602060405180830381865afa158015610111573d6000803e3d6000fd5b505050506040513d601f19601f820116820180604052508101906101359190610182565b949350505050565b60008060006060848603121561015257600080fd5b833592506020840135915060408401356001600160a01b038116811461017757600080fd5b809150509250925092565b60006020828403121561019457600080fd5b815180151581146101a457600080fd5b939250505056fea2646970667358221220cbdfb57aa48ae5d2447977d9ff719ee1a9fa44cd4cc8a62922b4aa0712efcd8a64736f6c63430008110033","linkReferences":{}},"methodIdentifiers":{"GROUP_MEMBER_ADDRESS()":"ef7635dd","canPost(uint256,uint256,address)":"e20f18b3"},"id":48}