{"abi":[{"type":"constructor","inputs":[{"name":"groupAdmin_","type":"address","internalType":"address"}],"stateMutability":"nonpayable"},{"type":"function","name":"GROUP_ADDRESS","inputs":[],"outputs":[{"name":"","type":"address","internalType":"address"}],"stateMutability":"view"},{"type":"function","name":"GROUP_ADMIN_ADDRESS","inputs":[],"outputs":[{"name":"","type":"address","internalType":"address"}],"stateMutability":"view"},{"type":"function","name":"addMemberIds","inputs":[{"name":"groupId","type":"uint256","internalType":"uint256"},{"name":"memberIdList","type":"uint256[]","internalType":"uint256[]"}],"outputs":[],"stateMutability":"nonpayable"},{"type":"function","name":"isMemberId","inputs":[{"name":"groupId","type":"uint256","internalType":"uint256"},{"name":"memberId","type":"uint256","internalType":"uint256"}],"outputs":[{"name":"","type":"bool","internalType":"bool"}],"stateMutability":"view"},{"type":"function","name":"isMemberIdBatch","inputs":[{"name":"groupId","type":"uint256","internalType":"uint256"},{"name":"memberIdList","type":"uint256[]","internalType":"uint256[]"}],"outputs":[{"name":"listed","type":"bool[]","internalType":"bool[]"}],"stateMutability":"view"},{"type":"function","name":"memberIds","inputs":[{"name":"groupId","type":"uint256","internalType":"uint256"},{"name":"offset","type":"uint256","internalType":"uint256"},{"name":"limit","type":"uint256","internalType":"uint256"}],"outputs":[{"name":"","type":"uint256[]","internalType":"uint256[]"}],"stateMutability":"view"},{"type":"function","name":"memberIdsCount","inputs":[{"name":"groupId","type":"uint256","internalType":"uint256"}],"outputs":[{"name":"","type":"uint256","internalType":"uint256"}],"stateMutability":"view"},{"type":"function","name":"removeMemberIds","inputs":[{"name":"groupId","type":"uint256","internalType":"uint256"},{"name":"memberIdList","type":"uint256[]","internalType":"uint256[]"}],"outputs":[],"stateMutability":"nonpayable"},{"type":"event","name":"SetMemberId","inputs":[{"name":"groupId","type":"uint256","indexed":true,"internalType":"uint256"},{"name":"operator","type":"address","indexed":true,"internalType":"address"},{"name":"memberId","type":"uint256","indexed":true,"internalType":"uint256"},{"name":"operatorId","type":"uint256","indexed":false,"internalType":"uint256"},{"name":"listed","type":"bool","indexed":false,"internalType":"bool"}],"anonymous":false},{"type":"error","name":"GroupMemberAddressHasNoCode","inputs":[]},{"type":"error","name":"GroupNotExist","inputs":[]},{"type":"error","name":"TargetMemberIdZero","inputs":[]},{"type":"error","name":"UnauthorizedGroupMemberManager","inputs":[]}],"bytecode":{"object":"0x60c060405234801561001057600080fd5b50604051610bf7380380610bf783398101604081905261002f916100da565b806001600160a01b03163b60000361005a5760405163182896cd60e11b815260040160405180910390fd5b6001600160a01b0381166080819052604080516357ac9a3160e11b8152905163af593462916004808201926020929091908290030181865afa1580156100a4573d6000803e3d6000fd5b505050506040513d601f19601f820116820180604052508101906100c891906100da565b6001600160a01b031660a0525061010a565b6000602082840312156100ec57600080fd5b81516001600160a01b038116811461010357600080fd5b9392505050565b60805160a051610ab46101436000396000818161012c015261067801526000818160da0152818161032901526103c20152610ab46000f3fe608060405234801561001057600080fd5b50600436106100885760003560e01c8063af5934621161005b578063af59346214610127578063b88822131461014e578063cc8947861461016e578063fae26b891461019157600080fd5b80630460c1441461008d57806344e6b7db146100a257806374a278c8146100d5578063a848064414610114575b600080fd5b6100a061009b366004610841565b6101b1565b005b6100c26100b03660046108c0565b60009081526020819052604090205490565b6040519081526020015b60405180910390f35b6100fc7f000000000000000000000000000000000000000000000000000000000000000081565b6040516001600160a01b0390911681526020016100cc565b6100a0610122366004610841565b6101d2565b6100fc7f000000000000000000000000000000000000000000000000000000000000000081565b61016161015c366004610841565b6101ed565b6040516100cc91906108d9565b61018161017c36600461091f565b6102c0565b60405190151581526020016100cc565b6101a461019f366004610941565b6102e4565b6040516100cc919061096d565b60006101bc8461030a565b90506101cc84828585600061045e565b50505050565b60006101dd8461030a565b90506101cc84828585600161045e565b60008381526020819052604090206060908267ffffffffffffffff811115610217576102176109a5565b604051908082528060200260200182016040528015610240578160200160208202803683370190505b50915060005b838110156102b757610283858583818110610263576102636109bb565b602090810290920135600090815260018601909252506040902054151590565b838281518110610295576102956109bb565b91151560209283029190910190910152806102af816109e7565b915050610246565b50509392505050565b60008281526020818152604080832084845260010190915290205415155b92915050565b6000838152602081905260409020606090610300908484610509565b90505b9392505050565b60405163188af60360e01b8152600481018290523360248201526000907f00000000000000000000000000000000000000000000000000000000000000006001600160a01b03169063188af60390604401602060405180830381865afa158015610378573d6000803e3d6000fd5b505050506040513d601f19601f8201168201806040525081019061039c9190610a00565b90508060000361043857604051631f21aa3b60e11b8152600481018390523360248201527f00000000000000000000000000000000000000000000000000000000000000006001600160a01b031690633e43547690604401602060405180830381865afa158015610411573d6000803e3d6000fd5b505050506040513d601f19601f820116820180604052508101906104359190610a00565b90505b80600003610459576040516318ae8ef360e31b815260040160405180910390fd5b919050565b6000858152602081905260408120905b8381101561050057600085858381811061048a5761048a6109bb565b90506020020135905061049c816105cf565b6104a78382866105fd565b156104ed57604080518881528515156020820152829133918b917f304125628a2a16ae32fba14533704582faa9340fd5a8c662f4ff454362a1c1c1910160405180910390a45b50806104f8816109e7565b91505061046e565b50505050505050565b825460609060009061051c90858561061d565b905060008167ffffffffffffffff811115610539576105396109a5565b604051908082528060200260200182016040528015610562578160200160208202803683370190505b50905060005b828110156105c5578661057b8288610a19565b8154811061058b5761058b6109bb565b90600052602060002001548282815181106105a8576105a86109bb565b6020908102919091010152806105bd816109e7565b915050610568565b5095945050505050565b806000036105f05760405163236722af60e11b815260040160405180910390fd5b6105f98161065f565b5050565b6000816106135761060e8484610700565b610300565b61030084846107f5565b600081158061062c5750838310155b1561063957506000610303565b60006106458486610a2c565b90508281106106545782610656565b805b95945050505050565b6040516331a9108f60e11b8152600481018290526000907f00000000000000000000000000000000000000000000000000000000000000006001600160a01b031690636352211e90602401602060405180830381865afa9250505080156106e3575060408051601f3d908101601f191682019092526106e091810190610a3f565b60015b6102de57604051636a003ec360e01b815260040160405180910390fd5b60008181526001830160205260408120548082036107225760009150506102de565b600061072f600183610a2c565b855490915060009061074390600190610a2c565b90508082146107a8576000866000018281548110610763576107636109bb565b9060005260206000200154905080876000018481548110610786576107866109bb565b6000918252602080832090910192909255918252600188019052604090208390555b85548690806107b9576107b9610a68565b60019003818190600052602060002001600090559055856001016000868152602001908152602001600020600090556001935050505092915050565b600081815260018301602052604081205415610813575060006102de565b5081546001808201845560008481526020808220909301849055845493815293810190915260409092205590565b60008060006040848603121561085657600080fd5b83359250602084013567ffffffffffffffff8082111561087557600080fd5b818601915086601f83011261088957600080fd5b81358181111561089857600080fd5b8760208260051b85010111156108ad57600080fd5b6020830194508093505050509250925092565b6000602082840312156108d257600080fd5b5035919050565b6020808252825182820181905260009190848201906040850190845b818110156109135783511515835292840192918401916001016108f5565b50909695505050505050565b6000806040838503121561093257600080fd5b50508035926020909101359150565b60008060006060848603121561095657600080fd5b505081359360208301359350604090920135919050565b6020808252825182820181905260009190848201906040850190845b8181101561091357835183529284019291840191600101610989565b634e487b7160e01b600052604160045260246000fd5b634e487b7160e01b600052603260045260246000fd5b634e487b7160e01b600052601160045260246000fd5b6000600182016109f9576109f96109d1565b5060010190565b600060208284031215610a1257600080fd5b5051919050565b808201808211156102de576102de6109d1565b818103818111156102de576102de6109d1565b600060208284031215610a5157600080fd5b81516001600160a01b038116811461030357600080fd5b634e487b7160e01b600052603160045260246000fdfea2646970667358221220cb14b0da9ee5eccf02ae2709724ddc6115d46c64ad6e8e13b83810d206eccb4b64736f6c63430008110033","linkReferences":{}},"methodIdentifiers":{"GROUP_ADDRESS()":"af593462","GROUP_ADMIN_ADDRESS()":"74a278c8","addMemberIds(uint256,uint256[])":"a8480644","isMemberId(uint256,uint256)":"cc894786","isMemberIdBatch(uint256,uint256[])":"b8882213","memberIds(uint256,uint256,uint256)":"fae26b89","memberIdsCount(uint256)":"44e6b7db","removeMemberIds(uint256,uint256[])":"0460c144"},"id":5}