{"abi":[{"type":"constructor","inputs":[{"name":"originBlocks","type":"uint256","internalType":"uint256"},{"name":"phaseBlocks","type":"uint256","internalType":"uint256"}],"stateMutability":"nonpayable"},{"type":"function","name":"canBeVoted","inputs":[{"name":"tokenAddress","type":"address","internalType":"address"},{"name":"round","type":"uint256","internalType":"uint256"},{"name":"actionIds","type":"uint256[]","internalType":"uint256[]"}],"outputs":[{"name":"","type":"bool","internalType":"bool"}],"stateMutability":"view"},{"type":"function","name":"canVote","inputs":[{"name":"tokenAddress","type":"address","internalType":"address"},{"name":"accountAddress","type":"address","internalType":"address"}],"outputs":[{"name":"","type":"bool","internalType":"bool"}],"stateMutability":"view"},{"type":"function","name":"currentRound","inputs":[],"outputs":[{"name":"","type":"uint256","internalType":"uint256"}],"stateMutability":"view"},{"type":"function","name":"initialize","inputs":[{"name":"stakeAddress_","type":"address","internalType":"address"},{"name":"submitAddress_","type":"address","internalType":"address"}],"outputs":[],"stateMutability":"nonpayable"},{"type":"function","name":"initialized","inputs":[],"outputs":[{"name":"","type":"bool","internalType":"bool"}],"stateMutability":"view"},{"type":"function","name":"isActionIdVoted","inputs":[{"name":"tokenAddress","type":"address","internalType":"address"},{"name":"round","type":"uint256","internalType":"uint256"},{"name":"actionId","type":"uint256","internalType":"uint256"}],"outputs":[{"name":"","type":"bool","internalType":"bool"}],"stateMutability":"view"},{"type":"function","name":"maxVotesNum","inputs":[{"name":"tokenAddress","type":"address","internalType":"address"},{"name":"accountAddress","type":"address","internalType":"address"}],"outputs":[{"name":"","type":"uint256","internalType":"uint256"}],"stateMutability":"view"},{"type":"function","name":"originBlocks","inputs":[],"outputs":[{"name":"","type":"uint256","internalType":"uint256"}],"stateMutability":"view"},{"type":"function","name":"phaseBlocks","inputs":[],"outputs":[{"name":"","type":"uint256","internalType":"uint256"}],"stateMutability":"view"},{"type":"function","name":"roundByBlockNumber","inputs":[{"name":"blockNumber","type":"uint256","internalType":"uint256"}],"outputs":[{"name":"","type":"uint256","internalType":"uint256"}],"stateMutability":"view"},{"type":"function","name":"stakeAddress","inputs":[],"outputs":[{"name":"","type":"address","internalType":"address"}],"stateMutability":"view"},{"type":"function","name":"submitAddress","inputs":[],"outputs":[{"name":"","type":"address","internalType":"address"}],"stateMutability":"view"},{"type":"function","name":"vote","inputs":[{"name":"tokenAddress","type":"address","internalType":"address"},{"name":"actionIds","type":"uint256[]","internalType":"uint256[]"},{"name":"votes","type":"uint256[]","internalType":"uint256[]"}],"outputs":[],"stateMutability":"nonpayable"},{"type":"function","name":"votesNum","inputs":[{"name":"","type":"address","internalType":"address"},{"name":"","type":"uint256","internalType":"uint256"}],"outputs":[{"name":"","type":"uint256","internalType":"uint256"}],"stateMutability":"view"},{"type":"function","name":"votesNumByAccount","inputs":[{"name":"","type":"address","internalType":"address"},{"name":"","type":"uint256","internalType":"uint256"},{"name":"","type":"address","internalType":"address"}],"outputs":[{"name":"","type":"uint256","internalType":"uint256"}],"stateMutability":"view"},{"type":"function","name":"votesNumByAccountByActionId","inputs":[{"name":"","type":"address","internalType":"address"},{"name":"","type":"uint256","internalType":"uint256"},{"name":"","type":"address","internalType":"address"},{"name":"","type":"uint256","internalType":"uint256"}],"outputs":[{"name":"","type":"uint256","internalType":"uint256"}],"stateMutability":"view"},{"type":"function","name":"votesNumByActionId","inputs":[{"name":"","type":"address","internalType":"address"},{"name":"","type":"uint256","internalType":"uint256"},{"name":"","type":"uint256","internalType":"uint256"}],"outputs":[{"name":"","type":"uint256","internalType":"uint256"}],"stateMutability":"view"},{"type":"function","name":"votesNums","inputs":[{"name":"tokenAddress","type":"address","internalType":"address"},{"name":"round","type":"uint256","internalType":"uint256"}],"outputs":[{"name":"actionIds","type":"uint256[]","internalType":"uint256[]"},{"name":"votes","type":"uint256[]","internalType":"uint256[]"}],"stateMutability":"view"},{"type":"function","name":"votesNumsByAccount","inputs":[{"name":"tokenAddress","type":"address","internalType":"address"},{"name":"round","type":"uint256","internalType":"uint256"},{"name":"accountAddress","type":"address","internalType":"address"}],"outputs":[{"name":"actionIds","type":"uint256[]","internalType":"uint256[]"},{"name":"votes","type":"uint256[]","internalType":"uint256[]"}],"stateMutability":"view"},{"type":"function","name":"votesNumsByAccountByActionIds","inputs":[{"name":"tokenAddress","type":"address","internalType":"address"},{"name":"round","type":"uint256","internalType":"uint256"},{"name":"accountAddress","type":"address","internalType":"address"},{"name":"actionIds","type":"uint256[]","internalType":"uint256[]"}],"outputs":[{"name":"votes","type":"uint256[]","internalType":"uint256[]"}],"stateMutability":"view"},{"type":"function","name":"votesNumsByActionIds","inputs":[{"name":"tokenAddress","type":"address","internalType":"address"},{"name":"round","type":"uint256","internalType":"uint256"},{"name":"actionIds","type":"uint256[]","internalType":"uint256[]"}],"outputs":[{"name":"votes","type":"uint256[]","internalType":"uint256[]"}],"stateMutability":"view"},{"type":"event","name":"Vote","inputs":[{"name":"tokenAddress","type":"address","indexed":true,"internalType":"address"},{"name":"round","type":"uint256","indexed":true,"internalType":"uint256"},{"name":"voter","type":"address","indexed":true,"internalType":"address"},{"name":"actionIds","type":"uint256[]","indexed":false,"internalType":"uint256[]"},{"name":"votes","type":"uint256[]","indexed":false,"internalType":"uint256[]"}],"anonymous":false},{"type":"error","name":"AlreadyInitialized","inputs":[]},{"type":"error","name":"CannotVote","inputs":[]},{"type":"error","name":"InvalidActionIds","inputs":[]},{"type":"error","name":"NotEnoughVotesLeft","inputs":[]},{"type":"error","name":"RoundNotStarted","inputs":[]},{"type":"error","name":"VotesMustBeGreaterThanZero","inputs":[]}],"bytecode":{"object":"0x60c060405234801561001057600080fd5b5060405161145138038061145183398101604081905261002f9161003d565b60809190915260a052610061565b6000806040838503121561005057600080fd5b505080516020909101519092909150565b60805160a0516113b661009b6000396000818161026a01526107bc01526000818161033d0152818161074a015261079001526113b66000f3fe608060405234801561001057600080fd5b50600436106101365760003560e01c806360a918b7116100b8578063b2ad37301161007c578063b2ad373014610338578063ced44ca91461035f578063e388878f1461037f578063e522926714610392578063f46d6fa8146103a5578063fcc998a7146103d657600080fd5b806360a918b71461026557806362dd91291461028c57806385107367146102bd5780638a19c8bc146102ed5780639e857852146102f557600080fd5b806331445e87116100ff57806331445e87146101df57806338d76f4c146101f25780633bdf9f131461022c578063485cc9551461023f5780634873d68d1461025257600080fd5b8062afdbae1461013b578063032c889b146101795780630d21b3ac1461019a578063158ef93e146101bd57806322ad487f146101ca575b600080fd5b610166610149366004610d21565b600260209081526000928352604080842090915290825290205481565b6040519081526020015b60405180910390f35b61018c610187366004610d4d565b6103e9565b604051610170929190610dca565b6101ad6101a8366004610e3d565b61047f565b6040519015158152602001610170565b6000546101ad9060ff1681565b6101dd6101d8366004610e99565b6105a6565b005b61018c6101ed366004610d21565b6106bd565b610166610200366004610f1c565b600560209081526000948552604080862082529385528385208152918452828420909152825290205481565b61016661023a366004610f64565b610746565b6101dd61024d366004610f7d565b6107e8565b6101ad610260366004610f7d565b610847565b6101667f000000000000000000000000000000000000000000000000000000000000000081565b61016661029a366004610fb6565b600360209081526000938452604080852082529284528284209052825290205481565b6000546102d59061010090046001600160a01b031681565b6040516001600160a01b039091168152602001610170565b61016661085e565b6101ad610303366004610fb6565b6001600160a01b0383166000908152600360209081526040808320858452825280832084845290915290205415159392505050565b6101667f000000000000000000000000000000000000000000000000000000000000000081565b61037261036d3660046110ea565b61086e565b6040516101709190611143565b6001546102d5906001600160a01b031681565b6101666103a0366004610f7d565b61094a565b6101666103b3366004610d4d565b600460209081526000938452604080852082529284528284209052825290205481565b6103726103e4366004611156565b6109c7565b6001600160a01b0380841660009081526007602090815260408083208684528252808320938516835292815290829020805483518184028101840190945280845260609384939092919083018282801561046257602002820191906000526020600020905b81548152602001906001019080831161044e575b50505050509150610475858585856109c7565b9050935093915050565b60015460405163879e49c960e01b81526001600160a01b03868116600483015260248201869052600092839291169063879e49c990604401600060405180830381865afa1580156104d4573d6000803e3d6000fd5b505050506040513d6000823e601f3d908101601f191682016040526104fc91908101906111c2565b905060005b83811015610597576000805b835181101561056d5783818151811061052857610528611281565b60200260200101516020015187878581811061054657610546611281565b905060200201350361055b576001915061056d565b80610565816112ad565b91505061050d565b50801515600003610584576000935050505061059e565b508061058f816112ad565b915050610501565b5060019150505b949350505050565b6105b9856105b261085e565b868661047f565b6105d657604051630e8ab23f60e21b815260040160405180910390fd5b6105e08533610847565b6105fd5760405163c527094f60e01b815260040160405180910390fd5b600061060761085e565b905060005b8481101561066257610650878388888581811061062b5761062b611281565b9050602002013587878681811061064457610644611281565b90506020020135610ab0565b8061065a816112ad565b91505061060c565b50336001600160a01b031681876001600160a01b03167ffb2d7017334b3f99ca881503d5a5f8e73007169359486b58a93c11a5db533bfc888888886040516106ad94939291906112f8565b60405180910390a4505050505050565b6001600160a01b0382166000908152600660209081526040808320848452825291829020805483518184028101840190945280845260609384939092919083018282801561072a57602002820191906000526020600020905b815481526020019060010190808311610716575b5050505050915061073c84848461086e565b90505b9250929050565b60007f0000000000000000000000000000000000000000000000000000000000000000821015610789576040516323a71b8760e21b815260040160405180910390fd5b60006107b57f00000000000000000000000000000000000000000000000000000000000000008461131f565b90506107e17f000000000000000000000000000000000000000000000000000000000000000082611332565b9392505050565b60005460ff161561080b5760405162dc149f60e41b815260040160405180910390fd5b6000805460016001600160a81b03199091166101006001600160a01b039586160217811790915580546001600160a01b03191691909216179055565b600080610854848461094a565b1190505b92915050565b600061086943610746565b905090565b6060815167ffffffffffffffff81111561088a5761088a610feb565b6040519080825280602002602001820160405280156108b3578160200160208202803683370190505b50905060005b8251811015610942576001600160a01b0385166000908152600360209081526040808320878452909152812084519091908590849081106108fc576108fc611281565b602002602001015181526020019081526020016000205482828151811061092557610925611281565b60209081029190910101528061093a816112ad565b9150506108b9565b509392505050565b60008054604051632872798160e21b81526001600160a01b03858116600483015284811660248301526101009092049091169063a1c9e60490604401602060405180830381865afa1580156109a3573d6000803e3d6000fd5b505050506040513d601f19601f820116820180604052508101906107e19190611354565b6060815167ffffffffffffffff8111156109e3576109e3610feb565b604051908082528060200260200182016040528015610a0c578160200160208202803683370190505b50905060005b8251811015610aa7576001600160a01b038087166000908152600560209081526040808320898452825280832093881683529290529081208451909190859084908110610a6157610a61611281565b6020026020010151815260200190815260200160002054828281518110610a8a57610a8a611281565b602090810291909101015280610a9f816112ad565b915050610a12565b50949350505050565b80600003610ad1576040516364a7c12360e11b815260040160405180910390fd5b6001600160a01b038416600090815260036020908152604080832086845282528083208584529091528120549003610b37576001600160a01b03841660009081526006602090815260408083208684528252822080546001810182559083529120018290555b6001600160a01b038416600090815260026020908152604080832086845290915281208054839290610b6a90849061136d565b90915550506001600160a01b0384166000908152600360209081526040808320868452825280832085845290915281208054839290610baa90849061136d565b90915550506001600160a01b0384166000908152600560209081526040808320868452825280832033845282528083208584529091528120549003610c25576001600160a01b038416600090815260076020908152604080832086845282528083203384528252822080546001810182559083529120018290555b6001600160a01b0384166000908152600460209081526040808320868452825280832033845290915281208054839290610c6090849061136d565b90915550506001600160a01b03841660009081526005602090815260408083208684528252808320338452825280832085845290915281208054839290610ca890849061136d565b90915550610cb89050843361094a565b6001600160a01b038516600090815260046020908152604080832087845282528083203384529091529020541115610d035760405163660fa07360e11b815260040160405180910390fd5b50505050565b6001600160a01b0381168114610d1e57600080fd5b50565b60008060408385031215610d3457600080fd5b8235610d3f81610d09565b946020939093013593505050565b600080600060608486031215610d6257600080fd5b8335610d6d81610d09565b9250602084013591506040840135610d8481610d09565b809150509250925092565b600081518084526020808501945080840160005b83811015610dbf57815187529582019590820190600101610da3565b509495945050505050565b604081526000610ddd6040830185610d8f565b8281036020840152610def8185610d8f565b95945050505050565b60008083601f840112610e0a57600080fd5b50813567ffffffffffffffff811115610e2257600080fd5b6020830191508360208260051b850101111561073f57600080fd5b60008060008060608587031215610e5357600080fd5b8435610e5e81610d09565b935060208501359250604085013567ffffffffffffffff811115610e8157600080fd5b610e8d87828801610df8565b95989497509550505050565b600080600080600060608688031215610eb157600080fd5b8535610ebc81610d09565b9450602086013567ffffffffffffffff80821115610ed957600080fd5b610ee589838a01610df8565b90965094506040880135915080821115610efe57600080fd5b50610f0b88828901610df8565b969995985093965092949392505050565b60008060008060808587031215610f3257600080fd5b8435610f3d81610d09565b9350602085013592506040850135610f5481610d09565b9396929550929360600135925050565b600060208284031215610f7657600080fd5b5035919050565b60008060408385031215610f9057600080fd5b8235610f9b81610d09565b91506020830135610fab81610d09565b809150509250929050565b600080600060608486031215610fcb57600080fd5b8335610fd681610d09565b95602085013595506040909401359392505050565b634e487b7160e01b600052604160045260246000fd5b6040805190810167ffffffffffffffff8111828210171561102457611024610feb565b60405290565b604051601f8201601f1916810167ffffffffffffffff8111828210171561105357611053610feb565b604052919050565b600067ffffffffffffffff82111561107557611075610feb565b5060051b60200190565b600082601f83011261109057600080fd5b813560206110a56110a08361105b565b61102a565b82815260059290921b840181019181810190868411156110c457600080fd5b8286015b848110156110df57803583529183019183016110c8565b509695505050505050565b6000806000606084860312156110ff57600080fd5b833561110a81610d09565b925060208401359150604084013567ffffffffffffffff81111561112d57600080fd5b6111398682870161107f565b9150509250925092565b6020815260006107e16020830184610d8f565b6000806000806080858703121561116c57600080fd5b843561117781610d09565b935060208501359250604085013561118e81610d09565b9150606085013567ffffffffffffffff8111156111aa57600080fd5b6111b68782880161107f565b91505092959194509250565b600060208083850312156111d557600080fd5b825167ffffffffffffffff8111156111ec57600080fd5b8301601f810185136111fd57600080fd5b805161120b6110a08261105b565b81815260069190911b8201830190838101908783111561122a57600080fd5b928401925b8284101561127657604084890312156112485760008081fd5b611250611001565b845161125b81610d09565b8152848601518682015282526040909301929084019061122f565b979650505050505050565b634e487b7160e01b600052603260045260246000fd5b634e487b7160e01b600052601160045260246000fd5b6000600182016112bf576112bf611297565b5060010190565b81835260006001600160fb1b038311156112df57600080fd5b8260051b80836020870137939093016020019392505050565b60408152600061130c6040830186886112c6565b82810360208401526112768185876112c6565b8181038181111561085857610858611297565b60008261134f57634e487b7160e01b600052601260045260246000fd5b500490565b60006020828403121561136657600080fd5b5051919050565b808201808211156108585761085861129756fea2646970667358221220ea03109a7bdc16cac7640c0e63b96d55d33d79acb38287f985e2f3279e24e73764736f6c63430008130033","linkReferences":{}},"methodIdentifiers":{"canBeVoted(address,uint256,uint256[])":"0d21b3ac","canVote(address,address)":"4873d68d","currentRound()":"8a19c8bc","initialize(address,address)":"485cc955","initialized()":"158ef93e","isActionIdVoted(address,uint256,uint256)":"9e857852","maxVotesNum(address,address)":"e5229267","originBlocks()":"b2ad3730","phaseBlocks()":"60a918b7","roundByBlockNumber(uint256)":"3bdf9f13","stakeAddress()":"85107367","submitAddress()":"e388878f","vote(address,uint256[],uint256[])":"22ad487f","votesNum(address,uint256)":"00afdbae","votesNumByAccount(address,uint256,address)":"f46d6fa8","votesNumByAccountByActionId(address,uint256,address,uint256)":"38d76f4c","votesNumByActionId(address,uint256,uint256)":"62dd9129","votesNums(address,uint256)":"31445e87","votesNumsByAccount(address,uint256,address)":"032c889b","votesNumsByAccountByActionIds(address,uint256,address,uint256[])":"fcc998a7","votesNumsByActionIds(address,uint256,uint256[])":"ced44ca9"},"id":48}