{"abi":[{"type":"constructor","inputs":[{"name":"originBlocks","type":"uint256","internalType":"uint256"},{"name":"phaseBlocks","type":"uint256","internalType":"uint256"}],"stateMutability":"nonpayable"},{"type":"function","name":"accountVotedActionIdsAtIndex","inputs":[{"name":"tokenAddress","type":"address","internalType":"address"},{"name":"round","type":"uint256","internalType":"uint256"},{"name":"account","type":"address","internalType":"address"},{"name":"index","type":"uint256","internalType":"uint256"}],"outputs":[{"name":"","type":"uint256","internalType":"uint256"}],"stateMutability":"view"},{"type":"function","name":"accountVotedActionIdsCount","inputs":[{"name":"tokenAddress","type":"address","internalType":"address"},{"name":"round","type":"uint256","internalType":"uint256"},{"name":"account","type":"address","internalType":"address"}],"outputs":[{"name":"","type":"uint256","internalType":"uint256"}],"stateMutability":"view"},{"type":"function","name":"canVote","inputs":[{"name":"tokenAddress","type":"address","internalType":"address"},{"name":"account","type":"address","internalType":"address"}],"outputs":[{"name":"","type":"bool","internalType":"bool"}],"stateMutability":"view"},{"type":"function","name":"currentRound","inputs":[],"outputs":[{"name":"","type":"uint256","internalType":"uint256"}],"stateMutability":"view"},{"type":"function","name":"initialize","inputs":[{"name":"stakeAddress_","type":"address","internalType":"address"},{"name":"submitAddress_","type":"address","internalType":"address"}],"outputs":[],"stateMutability":"nonpayable"},{"type":"function","name":"initialized","inputs":[],"outputs":[{"name":"","type":"bool","internalType":"bool"}],"stateMutability":"view"},{"type":"function","name":"isActionIdVoted","inputs":[{"name":"tokenAddress","type":"address","internalType":"address"},{"name":"round","type":"uint256","internalType":"uint256"},{"name":"actionId","type":"uint256","internalType":"uint256"}],"outputs":[{"name":"","type":"bool","internalType":"bool"}],"stateMutability":"view"},{"type":"function","name":"maxVotesNum","inputs":[{"name":"tokenAddress","type":"address","internalType":"address"},{"name":"account","type":"address","internalType":"address"}],"outputs":[{"name":"","type":"uint256","internalType":"uint256"}],"stateMutability":"view"},{"type":"function","name":"originBlocks","inputs":[],"outputs":[{"name":"","type":"uint256","internalType":"uint256"}],"stateMutability":"view"},{"type":"function","name":"phaseBlocks","inputs":[],"outputs":[{"name":"","type":"uint256","internalType":"uint256"}],"stateMutability":"view"},{"type":"function","name":"roundByBlockNumber","inputs":[{"name":"blockNumber","type":"uint256","internalType":"uint256"}],"outputs":[{"name":"","type":"uint256","internalType":"uint256"}],"stateMutability":"view"},{"type":"function","name":"stakeAddress","inputs":[],"outputs":[{"name":"","type":"address","internalType":"address"}],"stateMutability":"view"},{"type":"function","name":"submitAddress","inputs":[],"outputs":[{"name":"","type":"address","internalType":"address"}],"stateMutability":"view"},{"type":"function","name":"vote","inputs":[{"name":"tokenAddress","type":"address","internalType":"address"},{"name":"actionIds","type":"uint256[]","internalType":"uint256[]"},{"name":"votes","type":"uint256[]","internalType":"uint256[]"}],"outputs":[],"stateMutability":"nonpayable"},{"type":"function","name":"votedActionIdsAtIndex","inputs":[{"name":"tokenAddress","type":"address","internalType":"address"},{"name":"round","type":"uint256","internalType":"uint256"},{"name":"index","type":"uint256","internalType":"uint256"}],"outputs":[{"name":"","type":"uint256","internalType":"uint256"}],"stateMutability":"view"},{"type":"function","name":"votedActionIdsCount","inputs":[{"name":"tokenAddress","type":"address","internalType":"address"},{"name":"round","type":"uint256","internalType":"uint256"}],"outputs":[{"name":"","type":"uint256","internalType":"uint256"}],"stateMutability":"view"},{"type":"function","name":"votesNum","inputs":[{"name":"","type":"address","internalType":"address"},{"name":"","type":"uint256","internalType":"uint256"}],"outputs":[{"name":"","type":"uint256","internalType":"uint256"}],"stateMutability":"view"},{"type":"function","name":"votesNumByAccount","inputs":[{"name":"","type":"address","internalType":"address"},{"name":"","type":"uint256","internalType":"uint256"},{"name":"","type":"address","internalType":"address"}],"outputs":[{"name":"","type":"uint256","internalType":"uint256"}],"stateMutability":"view"},{"type":"function","name":"votesNumByAccountByActionId","inputs":[{"name":"","type":"address","internalType":"address"},{"name":"","type":"uint256","internalType":"uint256"},{"name":"","type":"address","internalType":"address"},{"name":"","type":"uint256","internalType":"uint256"}],"outputs":[{"name":"","type":"uint256","internalType":"uint256"}],"stateMutability":"view"},{"type":"function","name":"votesNumByActionId","inputs":[{"name":"","type":"address","internalType":"address"},{"name":"","type":"uint256","internalType":"uint256"},{"name":"","type":"uint256","internalType":"uint256"}],"outputs":[{"name":"","type":"uint256","internalType":"uint256"}],"stateMutability":"view"},{"type":"function","name":"votesNumsByAccount","inputs":[{"name":"tokenAddress","type":"address","internalType":"address"},{"name":"round","type":"uint256","internalType":"uint256"},{"name":"account","type":"address","internalType":"address"}],"outputs":[{"name":"actionIds","type":"uint256[]","internalType":"uint256[]"},{"name":"votes","type":"uint256[]","internalType":"uint256[]"}],"stateMutability":"view"},{"type":"function","name":"votesNumsByAccountByActionIds","inputs":[{"name":"tokenAddress","type":"address","internalType":"address"},{"name":"round","type":"uint256","internalType":"uint256"},{"name":"account","type":"address","internalType":"address"},{"name":"actionIds","type":"uint256[]","internalType":"uint256[]"}],"outputs":[{"name":"votes","type":"uint256[]","internalType":"uint256[]"}],"stateMutability":"view"},{"type":"event","name":"Vote","inputs":[{"name":"tokenAddress","type":"address","indexed":true,"internalType":"address"},{"name":"round","type":"uint256","indexed":false,"internalType":"uint256"},{"name":"voter","type":"address","indexed":true,"internalType":"address"},{"name":"actionId","type":"uint256","indexed":true,"internalType":"uint256"},{"name":"votes","type":"uint256","indexed":false,"internalType":"uint256"}],"anonymous":false},{"type":"error","name":"AlreadyInitialized","inputs":[]},{"type":"error","name":"CannotVote","inputs":[]},{"type":"error","name":"InvalidActionIds","inputs":[]},{"type":"error","name":"NotEnoughVotesLeft","inputs":[]},{"type":"error","name":"RoundNotStarted","inputs":[]},{"type":"error","name":"VotesMustBeGreaterThanZero","inputs":[]}],"bytecode":{"object":"0x60c060405234801561001057600080fd5b5060405161111038038061111083398101604081905261002f9161003d565b60809190915260a052610061565b6000806040838503121561005057600080fd5b505080516020909101519092909150565b60805160a05161107561009b6000396000818161024f01526105f90152600081816103220152818161058701526105cd01526110756000f3fe608060405234801561001057600080fd5b50600436106101415760003560e01c80638a19c8bc116100b8578063de6a34081161007c578063de6a340814610398578063e388878f146103ab578063e5229267146103be578063e89a7c51146103d1578063f46d6fa814610407578063fcc998a71461043857600080fd5b80638a19c8bc146102d25780639e857852146102da578063b2ad37301461031d578063be1e34c514610344578063cac59c381461035757600080fd5b80633bdf9f131161010a5780633bdf9f1314610211578063485cc955146102245780634873d68d1461023757806360a918b71461024a57806362dd91291461027157806385107367146102a257600080fd5b8062afdbae14610146578063032c889b14610184578063158ef93e146101a557806322ad487f146101c257806338d76f4c146101d7575b600080fd5b610171610154366004610c06565b600260209081526000928352604080842090915290825290205481565b6040519081526020015b60405180910390f35b610197610192366004610c30565b610458565b60405161017b929190610ca7565b6000546101b29060ff1681565b604051901515815260200161017b565b6101d56101d0366004610d21565b6104ee565b005b6101716101e5366004610da2565b600560209081526000948552604080862082529385528385208152918452828420909152825290205481565b61017161021f366004610de6565b610583565b6101d5610232366004610dff565b610625565b6101b2610245366004610dff565b610684565b6101717f000000000000000000000000000000000000000000000000000000000000000081565b61017161027f366004610e32565b600360209081526000938452604080852082529284528284209052825290205481565b6000546102ba9061010090046001600160a01b031681565b6040516001600160a01b03909116815260200161017b565b61017161069b565b6101b26102e8366004610e32565b6001600160a01b0383166000908152600360209081526040808320858452825280832084845290915290205415159392505050565b6101717f000000000000000000000000000000000000000000000000000000000000000081565b610171610352366004610e32565b6106ab565b610171610365366004610c30565b6001600160a01b039283166000908152600760209081526040808320948352938152838220929094168152925290205490565b6101716103a6366004610da2565b6106f4565b6001546102ba906001600160a01b031681565b6101716103cc366004610dff565b61074a565b6101716103df366004610c06565b6001600160a01b03919091166000908152600660209081526040808320938352929052205490565b610171610415366004610c30565b600460209081526000938452604080852082529284528284209052825290205481565b61044b610446366004610e7b565b6107c7565b60405161017b9190610f64565b6001600160a01b038084166000908152600760209081526040808320868452825280832093851683529281529082902080548351818402810184019094528084526060938493909291908301828280156104d157602002820191906000526020600020905b8154815260200190600101908083116104bd575b505050505091506104e4858585856107c7565b9050935093915050565b6104f88533610684565b6105155760405163c527094f60e01b815260040160405180910390fd5b600061051f61069b565b905060005b8481101561057a57610568878388888581811061054357610543610f77565b9050602002013587878681811061055c5761055c610f77565b905060200201356108b0565b8061057281610fa3565b915050610524565b50505050505050565b60007f00000000000000000000000000000000000000000000000000000000000000008210156105c6576040516323a71b8760e21b815260040160405180910390fd5b60006105f27f000000000000000000000000000000000000000000000000000000000000000084610fbc565b905061061e7f000000000000000000000000000000000000000000000000000000000000000082610fcf565b9392505050565b60005460ff16156106485760405162dc149f60e41b815260040160405180910390fd5b6000805460016001600160a81b03199091166101006001600160a01b039586160217811790915580546001600160a01b03191691909216179055565b600080610691848461074a565b1190505b92915050565b60006106a643610583565b905090565b6001600160a01b038316600090815260066020908152604080832085845290915281208054839081106106e0576106e0610f77565b906000526020600020015490509392505050565b6001600160a01b0380851660009081526007602090815260408083208784528252808320938616835292905290812080548390811061073557610735610f77565b90600052602060002001549050949350505050565b60008054604051632872798160e21b81526001600160a01b03858116600483015284811660248301526101009092049091169063a1c9e60490604401602060405180830381865afa1580156107a3573d6000803e3d6000fd5b505050506040513d601f19601f8201168201806040525081019061061e9190610ff1565b6060815167ffffffffffffffff8111156107e3576107e3610e65565b60405190808252806020026020018201604052801561080c578160200160208202803683370190505b50905060005b82518110156108a7576001600160a01b03808716600090815260056020908152604080832089845282528083209388168352929052908120845190919085908490811061086157610861610f77565b602002602001015181526020019081526020016000205482828151811061088a5761088a610f77565b60209081029190910101528061089f81610fa3565b915050610812565b50949350505050565b600154604051632bed3c2960e01b81526001600160a01b038681166004830152602482018690526044820185905290911690632bed3c2990606401602060405180830381865afa158015610908573d6000803e3d6000fd5b505050506040513d601f19601f8201168201806040525081019061092c919061100a565b61094957604051630e8ab23f60e21b815260040160405180910390fd5b8060000361096a576040516364a7c12360e11b815260040160405180910390fd5b6001600160a01b0384166000908152600360209081526040808320868452825280832085845290915281205490036109d0576001600160a01b03841660009081526006602090815260408083208684528252822080546001810182559083529120018290555b6001600160a01b038416600090815260026020908152604080832086845290915281208054839290610a0390849061102c565b90915550506001600160a01b0384166000908152600360209081526040808320868452825280832085845290915281208054839290610a4390849061102c565b90915550506001600160a01b0384166000908152600560209081526040808320868452825280832033845282528083208584529091528120549003610abe576001600160a01b038416600090815260076020908152604080832086845282528083203384528252822080546001810182559083529120018290555b6001600160a01b0384166000908152600460209081526040808320868452825280832033845290915281208054839290610af990849061102c565b90915550506001600160a01b03841660009081526005602090815260408083208684528252808320338452825280832085845290915281208054839290610b4190849061102c565b90915550610b519050843361074a565b6001600160a01b038516600090815260046020908152604080832087845282528083203384529091529020541115610b9c5760405163660fa07360e11b815260040160405180910390fd5b6040805184815260208101839052839133916001600160a01b038816917f6c17a8756560e46a88d1a56b2b590b6bfda147e871aef072d48b98b15fed0190910160405180910390a450505050565b80356001600160a01b0381168114610c0157600080fd5b919050565b60008060408385031215610c1957600080fd5b610c2283610bea565b946020939093013593505050565b600080600060608486031215610c4557600080fd5b610c4e84610bea565b925060208401359150610c6360408501610bea565b90509250925092565b600081518084526020808501945080840160005b83811015610c9c57815187529582019590820190600101610c80565b509495945050505050565b604081526000610cba6040830185610c6c565b8281036020840152610ccc8185610c6c565b95945050505050565b60008083601f840112610ce757600080fd5b50813567ffffffffffffffff811115610cff57600080fd5b6020830191508360208260051b8501011115610d1a57600080fd5b9250929050565b600080600080600060608688031215610d3957600080fd5b610d4286610bea565b9450602086013567ffffffffffffffff80821115610d5f57600080fd5b610d6b89838a01610cd5565b90965094506040880135915080821115610d8457600080fd5b50610d9188828901610cd5565b969995985093965092949392505050565b60008060008060808587031215610db857600080fd5b610dc185610bea565b935060208501359250610dd660408601610bea565b9396929550929360600135925050565b600060208284031215610df857600080fd5b5035919050565b60008060408385031215610e1257600080fd5b610e1b83610bea565b9150610e2960208401610bea565b90509250929050565b600080600060608486031215610e4757600080fd5b610e5084610bea565b95602085013595506040909401359392505050565b634e487b7160e01b600052604160045260246000fd5b60008060008060808587031215610e9157600080fd5b610e9a85610bea565b93506020808601359350610eb060408701610bea565b9250606086013567ffffffffffffffff80821115610ecd57600080fd5b818801915088601f830112610ee157600080fd5b813581811115610ef357610ef3610e65565b8060051b604051601f19603f83011681018181108582111715610f1857610f18610e65565b60405291825284820192508381018501918b831115610f3657600080fd5b938501935b82851015610f5457843584529385019392850192610f3b565b989b979a50959850505050505050565b60208152600061061e6020830184610c6c565b634e487b7160e01b600052603260045260246000fd5b634e487b7160e01b600052601160045260246000fd5b600060018201610fb557610fb5610f8d565b5060010190565b8181038181111561069557610695610f8d565b600082610fec57634e487b7160e01b600052601260045260246000fd5b500490565b60006020828403121561100357600080fd5b5051919050565b60006020828403121561101c57600080fd5b8151801515811461061e57600080fd5b8082018082111561069557610695610f8d56fea264697066735822122069a7cd154f84f7cf49fb5f9b4e14ff25ee974074e1e2049ac1b4ecb5d6d5a76864736f6c63430008110033","linkReferences":{}},"methodIdentifiers":{"accountVotedActionIdsAtIndex(address,uint256,address,uint256)":"de6a3408","accountVotedActionIdsCount(address,uint256,address)":"cac59c38","canVote(address,address)":"4873d68d","currentRound()":"8a19c8bc","initialize(address,address)":"485cc955","initialized()":"158ef93e","isActionIdVoted(address,uint256,uint256)":"9e857852","maxVotesNum(address,address)":"e5229267","originBlocks()":"b2ad3730","phaseBlocks()":"60a918b7","roundByBlockNumber(uint256)":"3bdf9f13","stakeAddress()":"85107367","submitAddress()":"e388878f","vote(address,uint256[],uint256[])":"22ad487f","votedActionIdsAtIndex(address,uint256,uint256)":"be1e34c5","votedActionIdsCount(address,uint256)":"e89a7c51","votesNum(address,uint256)":"00afdbae","votesNumByAccount(address,uint256,address)":"f46d6fa8","votesNumByAccountByActionId(address,uint256,address,uint256)":"38d76f4c","votesNumByActionId(address,uint256,uint256)":"62dd9129","votesNumsByAccount(address,uint256,address)":"032c889b","votesNumsByAccountByActionIds(address,uint256,address,uint256[])":"fcc998a7"},"id":52}