{"abi":[{"type":"constructor","inputs":[{"name":"originBlocks","type":"uint256","internalType":"uint256"},{"name":"phaseBlocks","type":"uint256","internalType":"uint256"}],"stateMutability":"nonpayable"},{"type":"function","name":"canBeVoted","inputs":[{"name":"tokenAddress","type":"address","internalType":"address"},{"name":"round","type":"uint256","internalType":"uint256"},{"name":"actionIds","type":"uint256[]","internalType":"uint256[]"}],"outputs":[{"name":"","type":"bool","internalType":"bool"}],"stateMutability":"view"},{"type":"function","name":"canVote","inputs":[{"name":"tokenAddress","type":"address","internalType":"address"},{"name":"accountAddress","type":"address","internalType":"address"}],"outputs":[{"name":"","type":"bool","internalType":"bool"}],"stateMutability":"view"},{"type":"function","name":"currentRound","inputs":[],"outputs":[{"name":"","type":"uint256","internalType":"uint256"}],"stateMutability":"view"},{"type":"function","name":"initialize","inputs":[{"name":"stakeAddress_","type":"address","internalType":"address"},{"name":"submitAddress_","type":"address","internalType":"address"}],"outputs":[],"stateMutability":"nonpayable"},{"type":"function","name":"initialized","inputs":[],"outputs":[{"name":"","type":"bool","internalType":"bool"}],"stateMutability":"view"},{"type":"function","name":"isActionIdVoted","inputs":[{"name":"tokenAddress","type":"address","internalType":"address"},{"name":"round","type":"uint256","internalType":"uint256"},{"name":"actionId","type":"uint256","internalType":"uint256"}],"outputs":[{"name":"","type":"bool","internalType":"bool"}],"stateMutability":"view"},{"type":"function","name":"maxVotesNum","inputs":[{"name":"tokenAddress","type":"address","internalType":"address"},{"name":"accountAddress","type":"address","internalType":"address"}],"outputs":[{"name":"","type":"uint256","internalType":"uint256"}],"stateMutability":"view"},{"type":"function","name":"originBlocks","inputs":[],"outputs":[{"name":"","type":"uint256","internalType":"uint256"}],"stateMutability":"view"},{"type":"function","name":"phaseBlocks","inputs":[],"outputs":[{"name":"","type":"uint256","internalType":"uint256"}],"stateMutability":"view"},{"type":"function","name":"roundByBlockNumber","inputs":[{"name":"blockNumber","type":"uint256","internalType":"uint256"}],"outputs":[{"name":"","type":"uint256","internalType":"uint256"}],"stateMutability":"view"},{"type":"function","name":"stakeAddress","inputs":[],"outputs":[{"name":"","type":"address","internalType":"address"}],"stateMutability":"view"},{"type":"function","name":"submitAddress","inputs":[],"outputs":[{"name":"","type":"address","internalType":"address"}],"stateMutability":"view"},{"type":"function","name":"vote","inputs":[{"name":"tokenAddress","type":"address","internalType":"address"},{"name":"actionIds","type":"uint256[]","internalType":"uint256[]"},{"name":"votes","type":"uint256[]","internalType":"uint256[]"}],"outputs":[],"stateMutability":"nonpayable"},{"type":"function","name":"votesNum","inputs":[{"name":"","type":"address","internalType":"address"},{"name":"","type":"uint256","internalType":"uint256"}],"outputs":[{"name":"","type":"uint256","internalType":"uint256"}],"stateMutability":"view"},{"type":"function","name":"votesNumByAccount","inputs":[{"name":"","type":"address","internalType":"address"},{"name":"","type":"uint256","internalType":"uint256"},{"name":"","type":"address","internalType":"address"}],"outputs":[{"name":"","type":"uint256","internalType":"uint256"}],"stateMutability":"view"},{"type":"function","name":"votesNumByAccountByActionId","inputs":[{"name":"","type":"address","internalType":"address"},{"name":"","type":"uint256","internalType":"uint256"},{"name":"","type":"address","internalType":"address"},{"name":"","type":"uint256","internalType":"uint256"}],"outputs":[{"name":"","type":"uint256","internalType":"uint256"}],"stateMutability":"view"},{"type":"function","name":"votesNumByActionId","inputs":[{"name":"","type":"address","internalType":"address"},{"name":"","type":"uint256","internalType":"uint256"},{"name":"","type":"uint256","internalType":"uint256"}],"outputs":[{"name":"","type":"uint256","internalType":"uint256"}],"stateMutability":"view"},{"type":"function","name":"votesNums","inputs":[{"name":"tokenAddress","type":"address","internalType":"address"},{"name":"round","type":"uint256","internalType":"uint256"}],"outputs":[{"name":"actionIds","type":"uint256[]","internalType":"uint256[]"},{"name":"votes","type":"uint256[]","internalType":"uint256[]"}],"stateMutability":"view"},{"type":"function","name":"votesNumsByAccount","inputs":[{"name":"tokenAddress","type":"address","internalType":"address"},{"name":"round","type":"uint256","internalType":"uint256"},{"name":"accountAddress","type":"address","internalType":"address"}],"outputs":[{"name":"actionIds","type":"uint256[]","internalType":"uint256[]"},{"name":"votes","type":"uint256[]","internalType":"uint256[]"}],"stateMutability":"view"},{"type":"function","name":"votesNumsByAccountByActionIds","inputs":[{"name":"tokenAddress","type":"address","internalType":"address"},{"name":"round","type":"uint256","internalType":"uint256"},{"name":"accountAddress","type":"address","internalType":"address"},{"name":"actionIds","type":"uint256[]","internalType":"uint256[]"}],"outputs":[{"name":"votes","type":"uint256[]","internalType":"uint256[]"}],"stateMutability":"view"},{"type":"function","name":"votesNumsByActionIds","inputs":[{"name":"tokenAddress","type":"address","internalType":"address"},{"name":"round","type":"uint256","internalType":"uint256"},{"name":"actionIds","type":"uint256[]","internalType":"uint256[]"}],"outputs":[{"name":"votes","type":"uint256[]","internalType":"uint256[]"}],"stateMutability":"view"},{"type":"event","name":"Vote","inputs":[{"name":"tokenAddress","type":"address","indexed":true,"internalType":"address"},{"name":"round","type":"uint256","indexed":true,"internalType":"uint256"},{"name":"voter","type":"address","indexed":true,"internalType":"address"},{"name":"actionIds","type":"uint256[]","indexed":false,"internalType":"uint256[]"},{"name":"votes","type":"uint256[]","indexed":false,"internalType":"uint256[]"}],"anonymous":false},{"type":"error","name":"AlreadyInitialized","inputs":[]},{"type":"error","name":"CannotVote","inputs":[]},{"type":"error","name":"InvalidActionIds","inputs":[]},{"type":"error","name":"NotEnoughVotesLeft","inputs":[]},{"type":"error","name":"RoundNotStarted","inputs":[]},{"type":"error","name":"VotesMustBeGreaterThanZero","inputs":[]}],"bytecode":{"object":"0x60c060405234801561001057600080fd5b5060405161130538038061130583398101604081905261002f9161003d565b60809190915260a052610061565b6000806040838503121561005057600080fd5b505080516020909101519092909150565b60805160a05161126a61009b6000396000818161026a015261077e01526000818161033d0152818161070c0152610752015261126a6000f3fe608060405234801561001057600080fd5b50600436106101365760003560e01c806360a918b7116100b8578063b2ad37301161007c578063b2ad373014610338578063ced44ca91461035f578063e388878f1461037f578063e522926714610392578063f46d6fa8146103a5578063fcc998a7146103d657600080fd5b806360a918b71461026557806362dd91291461028c57806385107367146102bd5780638a19c8bc146102ed5780639e857852146102f557600080fd5b806331445e87116100ff57806331445e87146101df57806338d76f4c146101f25780633bdf9f131461022c578063485cc9551461023f5780634873d68d1461025257600080fd5b8062afdbae1461013b578063032c889b146101795780630d21b3ac1461019a578063158ef93e146101bd57806322ad487f146101ca575b600080fd5b610166610149366004610ce7565b600260209081526000928352604080842090915290825290205481565b6040519081526020015b60405180910390f35b61018c610187366004610d11565b6103e9565b604051610170929190610d88565b6101ad6101a8366004610dfb565b61047f565b6040519015158152602001610170565b6000546101ad9060ff1681565b6101dd6101d8366004610e55565b610568565b005b61018c6101ed366004610ce7565b61067f565b610166610200366004610ed6565b600560209081526000948552604080862082529385528385208152918452828420909152825290205481565b61016661023a366004610f1a565b610708565b6101dd61024d366004610f33565b6107aa565b6101ad610260366004610f33565b610809565b6101667f000000000000000000000000000000000000000000000000000000000000000081565b61016661029a366004610f5d565b600360209081526000938452604080852082529284528284209052825290205481565b6000546102d59061010090046001600160a01b031681565b6040516001600160a01b039091168152602001610170565b610166610820565b6101ad610303366004610f5d565b6001600160a01b0383166000908152600360209081526040808320858452825280832084845290915290205415159392505050565b6101667f000000000000000000000000000000000000000000000000000000000000000081565b61037261036d366004611041565b610830565b6040516101709190611098565b6001546102d5906001600160a01b031681565b6101666103a0366004610f33565b61090c565b6101666103b3366004610d11565b600460209081526000938452604080852082529284528284209052825290205481565b6103726103e43660046110ab565b610989565b6001600160a01b0380841660009081526007602090815260408083208684528252808320938516835292815290829020805483518184028101840190945280845260609384939092919083018282801561046257602002820191906000526020600020905b81548152602001906001019080831161044e575b5050505050915061047585858585610989565b9050935093915050565b6001546000906001600160a01b0316815b8381101561055957816001600160a01b0316632bed3c2988888888868181106104bb576104bb611113565b6040516001600160e01b031960e088901b1681526001600160a01b039095166004860152602485019390935250602090910201356044820152606401602060405180830381865afa158015610514573d6000803e3d6000fd5b505050506040513d601f19601f820116820180604052508101906105389190611129565b61054757600092505050610560565b8061055181611161565b915050610490565b5060019150505b949350505050565b61057b85610574610820565b868661047f565b61059857604051630e8ab23f60e21b815260040160405180910390fd5b6105a28533610809565b6105bf5760405163c527094f60e01b815260040160405180910390fd5b60006105c9610820565b905060005b848110156106245761061287838888858181106105ed576105ed611113565b9050602002013587878681811061060657610606611113565b90506020020135610a72565b8061061c81611161565b9150506105ce565b50336001600160a01b031681876001600160a01b03167ffb2d7017334b3f99ca881503d5a5f8e73007169359486b58a93c11a5db533bfc8888888860405161066f94939291906111ac565b60405180910390a4505050505050565b6001600160a01b038216600090815260066020908152604080832084845282529182902080548351818402810184019094528084526060938493909291908301828280156106ec57602002820191906000526020600020905b8154815260200190600101908083116106d8575b505050505091506106fe848484610830565b90505b9250929050565b60007f000000000000000000000000000000000000000000000000000000000000000082101561074b576040516323a71b8760e21b815260040160405180910390fd5b60006107777f0000000000000000000000000000000000000000000000000000000000000000846111d3565b90506107a37f0000000000000000000000000000000000000000000000000000000000000000826111e6565b9392505050565b60005460ff16156107cd5760405162dc149f60e41b815260040160405180910390fd5b6000805460016001600160a81b03199091166101006001600160a01b039586160217811790915580546001600160a01b03191691909216179055565b600080610816848461090c565b1190505b92915050565b600061082b43610708565b905090565b6060815167ffffffffffffffff81111561084c5761084c610f90565b604051908082528060200260200182016040528015610875578160200160208202803683370190505b50905060005b8251811015610904576001600160a01b0385166000908152600360209081526040808320878452909152812084519091908590849081106108be576108be611113565b60200260200101518152602001908152602001600020548282815181106108e7576108e7611113565b6020908102919091010152806108fc81611161565b91505061087b565b509392505050565b60008054604051632872798160e21b81526001600160a01b03858116600483015284811660248301526101009092049091169063a1c9e60490604401602060405180830381865afa158015610965573d6000803e3d6000fd5b505050506040513d601f19601f820116820180604052508101906107a39190611208565b6060815167ffffffffffffffff8111156109a5576109a5610f90565b6040519080825280602002602001820160405280156109ce578160200160208202803683370190505b50905060005b8251811015610a69576001600160a01b038087166000908152600560209081526040808320898452825280832093881683529290529081208451909190859084908110610a2357610a23611113565b6020026020010151815260200190815260200160002054828281518110610a4c57610a4c611113565b602090810291909101015280610a6181611161565b9150506109d4565b50949350505050565b80600003610a93576040516364a7c12360e11b815260040160405180910390fd5b6001600160a01b038416600090815260036020908152604080832086845282528083208584529091528120549003610af9576001600160a01b03841660009081526006602090815260408083208684528252822080546001810182559083529120018290555b6001600160a01b038416600090815260026020908152604080832086845290915281208054839290610b2c908490611221565b90915550506001600160a01b0384166000908152600360209081526040808320868452825280832085845290915281208054839290610b6c908490611221565b90915550506001600160a01b0384166000908152600560209081526040808320868452825280832033845282528083208584529091528120549003610be7576001600160a01b038416600090815260076020908152604080832086845282528083203384528252822080546001810182559083529120018290555b6001600160a01b0384166000908152600460209081526040808320868452825280832033845290915281208054839290610c22908490611221565b90915550506001600160a01b03841660009081526005602090815260408083208684528252808320338452825280832085845290915281208054839290610c6a908490611221565b90915550610c7a9050843361090c565b6001600160a01b038516600090815260046020908152604080832087845282528083203384529091529020541115610cc55760405163660fa07360e11b815260040160405180910390fd5b50505050565b80356001600160a01b0381168114610ce257600080fd5b919050565b60008060408385031215610cfa57600080fd5b610d0383610ccb565b946020939093013593505050565b600080600060608486031215610d2657600080fd5b610d2f84610ccb565b925060208401359150610d4460408501610ccb565b90509250925092565b600081518084526020808501945080840160005b83811015610d7d57815187529582019590820190600101610d61565b509495945050505050565b604081526000610d9b6040830185610d4d565b8281036020840152610dad8185610d4d565b95945050505050565b60008083601f840112610dc857600080fd5b50813567ffffffffffffffff811115610de057600080fd5b6020830191508360208260051b850101111561070157600080fd5b60008060008060608587031215610e1157600080fd5b610e1a85610ccb565b935060208501359250604085013567ffffffffffffffff811115610e3d57600080fd5b610e4987828801610db6565b95989497509550505050565b600080600080600060608688031215610e6d57600080fd5b610e7686610ccb565b9450602086013567ffffffffffffffff80821115610e9357600080fd5b610e9f89838a01610db6565b90965094506040880135915080821115610eb857600080fd5b50610ec588828901610db6565b969995985093965092949392505050565b60008060008060808587031215610eec57600080fd5b610ef585610ccb565b935060208501359250610f0a60408601610ccb565b9396929550929360600135925050565b600060208284031215610f2c57600080fd5b5035919050565b60008060408385031215610f4657600080fd5b610f4f83610ccb565b91506106fe60208401610ccb565b600080600060608486031215610f7257600080fd5b610f7b84610ccb565b95602085013595506040909401359392505050565b634e487b7160e01b600052604160045260246000fd5b600082601f830112610fb757600080fd5b8135602067ffffffffffffffff80831115610fd457610fd4610f90565b8260051b604051601f19603f83011681018181108482111715610ff957610ff9610f90565b60405293845285810183019383810192508785111561101757600080fd5b83870191505b848210156110365781358352918301919083019061101d565b979650505050505050565b60008060006060848603121561105657600080fd5b61105f84610ccb565b925060208401359150604084013567ffffffffffffffff81111561108257600080fd5b61108e86828701610fa6565b9150509250925092565b6020815260006107a36020830184610d4d565b600080600080608085870312156110c157600080fd5b6110ca85610ccb565b9350602085013592506110df60408601610ccb565b9150606085013567ffffffffffffffff8111156110fb57600080fd5b61110787828801610fa6565b91505092959194509250565b634e487b7160e01b600052603260045260246000fd5b60006020828403121561113b57600080fd5b815180151581146107a357600080fd5b634e487b7160e01b600052601160045260246000fd5b6000600182016111735761117361114b565b5060010190565b81835260006001600160fb1b0383111561119357600080fd5b8260051b80836020870137939093016020019392505050565b6040815260006111c060408301868861117a565b828103602084015261103681858761117a565b8181038181111561081a5761081a61114b565b60008261120357634e487b7160e01b600052601260045260246000fd5b500490565b60006020828403121561121a57600080fd5b5051919050565b8082018082111561081a5761081a61114b56fea2646970667358221220efe5d5bbccf01fd2ddb9ce5e8dd737daeb3fba9af71be03e31128f05efcd2ed064736f6c63430008130033","linkReferences":{}},"methodIdentifiers":{"canBeVoted(address,uint256,uint256[])":"0d21b3ac","canVote(address,address)":"4873d68d","currentRound()":"8a19c8bc","initialize(address,address)":"485cc955","initialized()":"158ef93e","isActionIdVoted(address,uint256,uint256)":"9e857852","maxVotesNum(address,address)":"e5229267","originBlocks()":"b2ad3730","phaseBlocks()":"60a918b7","roundByBlockNumber(uint256)":"3bdf9f13","stakeAddress()":"85107367","submitAddress()":"e388878f","vote(address,uint256[],uint256[])":"22ad487f","votesNum(address,uint256)":"00afdbae","votesNumByAccount(address,uint256,address)":"f46d6fa8","votesNumByAccountByActionId(address,uint256,address,uint256)":"38d76f4c","votesNumByActionId(address,uint256,uint256)":"62dd9129","votesNums(address,uint256)":"31445e87","votesNumsByAccount(address,uint256,address)":"032c889b","votesNumsByAccountByActionIds(address,uint256,address,uint256[])":"fcc998a7","votesNumsByActionIds(address,uint256,uint256[])":"ced44ca9"},"id":48}