{"abi":[{"type":"constructor","inputs":[{"name":"groupBanList_","type":"address","internalType":"address"}],"stateMutability":"nonpayable"},{"type":"function","name":"GROUP_BAN_LIST_ADDRESS","inputs":[],"outputs":[{"name":"","type":"address","internalType":"address"}],"stateMutability":"view"},{"type":"function","name":"isBanned","inputs":[{"name":"groupId","type":"uint256","internalType":"uint256"},{"name":"senderId","type":"uint256","internalType":"uint256"},{"name":"senderAddress","type":"address","internalType":"address"}],"outputs":[{"name":"","type":"bool","internalType":"bool"}],"stateMutability":"view"},{"type":"error","name":"AdminBanSourceAddressHasNoCode","inputs":[]}],"bytecode":{"object":"0x60a060405234801561001057600080fd5b506040516102a63803806102a683398101604081905261002f9161006b565b806001600160a01b03163b60000361005a576040516307cdcd5360e41b815260040160405180910390fd5b6001600160a01b031660805261009b565b60006020828403121561007d57600080fd5b81516001600160a01b038116811461009457600080fd5b9392505050565b6080516101eb6100bb600039600081816068015260d201526101eb6000f3fe608060405234801561001057600080fd5b50600436106100365760003560e01c80633470fcc91461003b5780633f0439d514610063575b600080fd5b61004e610049366004610147565b6100a2565b60405190151581526020015b60405180910390f35b61008a7f000000000000000000000000000000000000000000000000000000000000000081565b6040516001600160a01b03909116815260200161005a565b604051633470fcc960e01b815260048101849052602481018390526001600160a01b0382811660448301526000917f000000000000000000000000000000000000000000000000000000000000000090911690633470fcc990606401602060405180830381865afa15801561011b573d6000803e3d6000fd5b505050506040513d601f19601f8201168201806040525081019061013f919061018c565b949350505050565b60008060006060848603121561015c57600080fd5b833592506020840135915060408401356001600160a01b038116811461018157600080fd5b809150509250925092565b60006020828403121561019e57600080fd5b815180151581146101ae57600080fd5b939250505056fea2646970667358221220a0f0e101e28199cc88e5371f056b7e8f9c32388c6c7e64be696a41a3dc09e1fb64736f6c63430008110033","linkReferences":{}},"methodIdentifiers":{"GROUP_BAN_LIST_ADDRESS()":"3f0439d5","isBanned(uint256,uint256,address)":"3470fcc9"},"id":45}