{"abi":[{"type":"constructor","inputs":[{"name":"minter_","type":"address","internalType":"address"},{"name":"tokenAddress_","type":"address","internalType":"address"},{"name":"parentTokenAddress_","type":"address","internalType":"address"},{"name":"uniswapV2Pair_","type":"address","internalType":"address"},{"name":"maxWithdrawableToFeeRatio_","type":"uint256","internalType":"uint256"}],"stateMutability":"nonpayable"},{"type":"function","name":"MAX_WITHDRAWABLE_TO_FEE_RATIO","inputs":[],"outputs":[{"name":"","type":"uint256","internalType":"uint256"}],"stateMutability":"view"},{"type":"function","name":"allowance","inputs":[{"name":"owner","type":"address","internalType":"address"},{"name":"spender","type":"address","internalType":"address"}],"outputs":[{"name":"","type":"uint256","internalType":"uint256"}],"stateMutability":"view"},{"type":"function","name":"approve","inputs":[{"name":"spender","type":"address","internalType":"address"},{"name":"amount","type":"uint256","internalType":"uint256"}],"outputs":[{"name":"","type":"bool","internalType":"bool"}],"stateMutability":"nonpayable"},{"type":"function","name":"balanceOf","inputs":[{"name":"account","type":"address","internalType":"address"}],"outputs":[{"name":"","type":"uint256","internalType":"uint256"}],"stateMutability":"view"},{"type":"function","name":"burn","inputs":[{"name":"to","type":"address","internalType":"address"}],"outputs":[],"stateMutability":"nonpayable"},{"type":"function","name":"decimals","inputs":[],"outputs":[{"name":"","type":"uint8","internalType":"uint8"}],"stateMutability":"view"},{"type":"function","name":"decreaseAllowance","inputs":[{"name":"spender","type":"address","internalType":"address"},{"name":"subtractedValue","type":"uint256","internalType":"uint256"}],"outputs":[{"name":"","type":"bool","internalType":"bool"}],"stateMutability":"nonpayable"},{"type":"function","name":"increaseAllowance","inputs":[{"name":"spender","type":"address","internalType":"address"},{"name":"addedValue","type":"uint256","internalType":"uint256"}],"outputs":[{"name":"","type":"bool","internalType":"bool"}],"stateMutability":"nonpayable"},{"type":"function","name":"mint","inputs":[{"name":"to","type":"address","internalType":"address"}],"outputs":[{"name":"slAmount","type":"uint256","internalType":"uint256"}],"stateMutability":"nonpayable"},{"type":"function","name":"minter","inputs":[],"outputs":[{"name":"","type":"address","internalType":"address"}],"stateMutability":"view"},{"type":"function","name":"name","inputs":[],"outputs":[{"name":"","type":"string","internalType":"string"}],"stateMutability":"view"},{"type":"function","name":"parentTokenAddress","inputs":[],"outputs":[{"name":"","type":"address","internalType":"address"}],"stateMutability":"view"},{"type":"function","name":"symbol","inputs":[],"outputs":[{"name":"","type":"string","internalType":"string"}],"stateMutability":"view"},{"type":"function","name":"tokenAddress","inputs":[],"outputs":[{"name":"","type":"address","internalType":"address"}],"stateMutability":"view"},{"type":"function","name":"tokenAmounts","inputs":[],"outputs":[{"name":"tokenAmount","type":"uint256","internalType":"uint256"},{"name":"parentTokenAmount","type":"uint256","internalType":"uint256"},{"name":"feeTokenAmount","type":"uint256","internalType":"uint256"},{"name":"feeParentTokenAmount","type":"uint256","internalType":"uint256"}],"stateMutability":"view"},{"type":"function","name":"tokenAmountsBySlAmount","inputs":[{"name":"slAmount","type":"uint256","internalType":"uint256"}],"outputs":[{"name":"tokenAmount","type":"uint256","internalType":"uint256"},{"name":"parentTokenAmount","type":"uint256","internalType":"uint256"}],"stateMutability":"view"},{"type":"function","name":"totalSupply","inputs":[],"outputs":[{"name":"","type":"uint256","internalType":"uint256"}],"stateMutability":"view"},{"type":"function","name":"transfer","inputs":[{"name":"to","type":"address","internalType":"address"},{"name":"amount","type":"uint256","internalType":"uint256"}],"outputs":[{"name":"","type":"bool","internalType":"bool"}],"stateMutability":"nonpayable"},{"type":"function","name":"transferFrom","inputs":[{"name":"from","type":"address","internalType":"address"},{"name":"to","type":"address","internalType":"address"},{"name":"amount","type":"uint256","internalType":"uint256"}],"outputs":[{"name":"","type":"bool","internalType":"bool"}],"stateMutability":"nonpayable"},{"type":"function","name":"uniswapV2Pair","inputs":[],"outputs":[{"name":"","type":"address","internalType":"address"}],"stateMutability":"view"},{"type":"function","name":"withdrawFee","inputs":[{"name":"to","type":"address","internalType":"address"}],"outputs":[],"stateMutability":"nonpayable"},{"type":"event","name":"Approval","inputs":[{"name":"owner","type":"address","indexed":true,"internalType":"address"},{"name":"spender","type":"address","indexed":true,"internalType":"address"},{"name":"value","type":"uint256","indexed":false,"internalType":"uint256"}],"anonymous":false},{"type":"event","name":"FeeWithdraw","inputs":[{"name":"to","type":"address","indexed":true,"internalType":"address"},{"name":"lpAmount","type":"uint256","indexed":false,"internalType":"uint256"}],"anonymous":false},{"type":"event","name":"TokenBurn","inputs":[{"name":"to","type":"address","indexed":true,"internalType":"address"},{"name":"slAmount","type":"uint256","indexed":false,"internalType":"uint256"},{"name":"lpAmount","type":"uint256","indexed":false,"internalType":"uint256"}],"anonymous":false},{"type":"event","name":"TokenMint","inputs":[{"name":"to","type":"address","indexed":true,"internalType":"address"},{"name":"slAmount","type":"uint256","indexed":false,"internalType":"uint256"},{"name":"lpAmount","type":"uint256","indexed":false,"internalType":"uint256"}],"anonymous":false},{"type":"event","name":"Transfer","inputs":[{"name":"from","type":"address","indexed":true,"internalType":"address"},{"name":"to","type":"address","indexed":true,"internalType":"address"},{"name":"value","type":"uint256","indexed":false,"internalType":"uint256"}],"anonymous":false},{"type":"error","name":"InsufficientLiquidity","inputs":[]},{"type":"error","name":"InvalidAddress","inputs":[]},{"type":"error","name":"InvalidRatio","inputs":[]},{"type":"error","name":"NoTokensToBurn","inputs":[]},{"type":"error","name":"NotEligibleToMint","inputs":[]},{"type":"error","name":"TotalLpExceedsBalance","inputs":[]}],"bytecode":{"object":"0x6101206040523480156200001257600080fd5b506040516200227d3803806200227d833981016040819052620000359162000214565b836001600160a01b03166306fdde036040518163ffffffff1660e01b8152600401600060405180830381865afa15801562000074573d6000803e3d6000fd5b505050506040513d6000823e601f3d908101601f191682016040526200009e9190810190620002b7565b604051602001620000b091906200036f565b604051602081830303815290604052846001600160a01b03166395d89b416040518163ffffffff1660e01b8152600401600060405180830381865afa158015620000fe573d6000803e3d6000fd5b505050506040513d6000823e601f3d908101601f19168201604052620001289190810190620002b7565b6040516020016200013a9190620003b6565b60408051601f19818403018152919052600362000158838262000471565b50600462000167828262000471565b5050506001600160a01b03851615806200018857506001600160a01b038416155b806200019b57506001600160a01b038316155b80620001ae57506001600160a01b038216155b15620001cd5760405163e6c4247b60e01b815260040160405180910390fd5b6001600160a01b0394851660805292841660a05290831660c05290911660e052610100526200053d565b80516001600160a01b03811681146200020f57600080fd5b919050565b600080600080600060a086880312156200022d57600080fd5b6200023886620001f7565b94506200024860208701620001f7565b93506200025860408701620001f7565b92506200026860608701620001f7565b9150608086015190509295509295909350565b634e487b7160e01b600052604160045260246000fd5b60005b83811015620002ae57818101518382015260200162000294565b50506000910152565b600060208284031215620002ca57600080fd5b81516001600160401b0380821115620002e257600080fd5b818401915084601f830112620002f757600080fd5b8151818111156200030c576200030c6200027b565b604051601f8201601f19908116603f011681019083821181831017156200033757620003376200027b565b816040528281528760208487010111156200035157600080fd5b6200036483602083016020880162000291565b979650505050505050565b7f5374616b6564204c697175696469747920546f6b656e206f6620000000000000815260008251620003a981601a85016020870162000291565b91909101601a0192915050565b611cdb60f21b815260008251620003d581600285016020870162000291565b9190910160020192915050565b600181811c90821680620003f757607f821691505b6020821081036200041857634e487b7160e01b600052602260045260246000fd5b50919050565b601f8211156200046c57600081815260208120601f850160051c81016020861015620004475750805b601f850160051c820191505b81811015620004685782815560010162000453565b5050505b505050565b81516001600160401b038111156200048d576200048d6200027b565b620004a5816200049e8454620003e2565b846200041e565b602080601f831160018114620004dd5760008415620004c45750858301515b600019600386901b1c1916600185901b17855562000468565b600085815260208120601f198616915b828110156200050e57888601518255948401946001909101908401620004ed565b50858210156200052d5787850151600019600388901b60f8161c191681555b5050505050600190811b01905550565b60805160a05160c05160e05161010051611c8b620005f2600039600081816101e801526104a001526000818161026b015281816104df0152818161084f01528181610903015281816109b501528181610c5101528181610e64015261162d015260008181610244015281816107a201526109320152600081816102e9015281816107140152818161087e01526116cc01526000818161015f0152818161044b0152818161067e0152610b9f0152611c8b6000f3fe608060405234801561001057600080fd5b50600436106101375760003560e01c806349bd5a5e116100b85780639d76ea581161007c5780639d76ea58146102e4578063a457c2d71461030b578063a9059cbb1461031e578063ba9ea66b14610331578063dd62ed3e14610359578063e1a9e3311461036c57600080fd5b806349bd5a5e146102665780636a6278421461028d57806370a08231146102a057806389afcb44146102c957806395d89b41146102dc57600080fd5b80631fb91389116100ff5780631fb91389146101e357806323b872dd1461020a578063313ce5671461021d578063395093511461022c57806347502b531461023f57600080fd5b806306fdde031461013c578063075461721461015a578063095ea7b31461019957806318160ddd146101bc5780631ac3ddeb146101ce575b600080fd5b610144610394565b604051610151919061196e565b60405180910390f35b6101817f000000000000000000000000000000000000000000000000000000000000000081565b6040516001600160a01b039091168152602001610151565b6101ac6101a73660046119d1565b610426565b6040519015158152602001610151565b6002545b604051908152602001610151565b6101e16101dc3660046119fd565b610440565b005b6101c07f000000000000000000000000000000000000000000000000000000000000000081565b6101ac610218366004611a1a565b61062b565b60405160128152602001610151565b6101ac61023a3660046119d1565b61064f565b6101817f000000000000000000000000000000000000000000000000000000000000000081565b6101817f000000000000000000000000000000000000000000000000000000000000000081565b6101c061029b3660046119fd565b610671565b6101c06102ae3660046119fd565b6001600160a01b031660009081526020819052604090205490565b6101e16102d73660046119fd565b610b94565b610144610daf565b6101817f000000000000000000000000000000000000000000000000000000000000000081565b6101ac6103193660046119d1565b610dbe565b6101ac61032c3660046119d1565b610e3e565b61034461033f366004611a5b565b610e4c565b60408051928352602083019190915201610151565b6101c0610367366004611a74565b610f18565b610374610f43565b604080519485526020850193909352918301526060820152608001610151565b6060600380546103a390611aad565b80601f01602080910402602001604051908101604052809291908181526020018280546103cf90611aad565b801561041c5780601f106103f15761010080835404028352916020019161041c565b820191906000526020600020905b8154815290600101906020018083116103ff57829003601f168201915b5050505050905090565b600033610434818585610fd4565b60019150505b92915050565b336001600160a01b037f00000000000000000000000000000000000000000000000000000000000000001614610489576040516302a198b360e51b815260040160405180910390fd5b6000806104946110f9565b509092509050806104c57f000000000000000000000000000000000000000000000000000000000000000084611afd565b10156104d057505050565b60405163a9059cbb60e01b81527f00000000000000000000000000000000000000000000000000000000000000006001600160a01b0381166004830181905260248301859052909182919063a9059cbb906044016020604051808303816000875af1158015610543573d6000803e3d6000fd5b505050506040513d601f19601f820116820180604052508101906105679190611b14565b5060405163226bf2d160e21b81526001600160a01b0386811660048301528216906389afcb449060240160408051808303816000875af11580156105af573d6000803e3d6000fd5b505050506040513d601f19601f820116820180604052508101906105d39190611b36565b50506105e06000846111c1565b846001600160a01b03167fb28509e7b62b3347888ca8147b67de29ff057a5a187185b272fb9a4ccb0f7fa18560405161061b91815260200190565b60405180910390a2505050505b50565b60003361063985828561121e565b610644858585611298565b506001949350505050565b6000336104348185856106628383610f18565b61066c9190611b5a565b610fd4565b6000336001600160a01b037f000000000000000000000000000000000000000000000000000000000000000016146106bc576040516302a198b360e51b815260040160405180910390fd5b6001600160a01b0382166106e35760405163e6c4247b60e01b815260040160405180910390fd5b6000806106ee6110f9565b506040516370a0823160e01b815230600482015291935091506000906001600160a01b037f000000000000000000000000000000000000000000000000000000000000000016906370a0823190602401602060405180830381865afa15801561075b573d6000803e3d6000fd5b505050506040513d601f19601f8201168201806040525081019061077f9190611b6d565b6040516370a0823160e01b81523060048201529091506000906001600160a01b037f000000000000000000000000000000000000000000000000000000000000000016906370a0823190602401602060405180830381865afa1580156107e9573d6000803e3d6000fd5b505050506040513d601f19601f8201168201806040525081019061080d9190611b6d565b905081158061081a575080155b156108385760405163bb55fd2760e01b815260040160405180910390fd5b60405163a9059cbb60e01b81526001600160a01b037f000000000000000000000000000000000000000000000000000000000000000081166004830152602482018490527f0000000000000000000000000000000000000000000000000000000000000000169063a9059cbb906044016020604051808303816000875af11580156108c7573d6000803e3d6000fd5b505050506040513d601f19601f820116820180604052508101906108eb9190611b14565b5060405163a9059cbb60e01b81526001600160a01b037f000000000000000000000000000000000000000000000000000000000000000081166004830152602482018390527f0000000000000000000000000000000000000000000000000000000000000000169063a9059cbb906044016020604051808303816000875af115801561097b573d6000803e3d6000fd5b505050506040513d601f19601f8201168201806040525081019061099f9190611b14565b506040516335313c2160e11b81523060048201527f0000000000000000000000000000000000000000000000000000000000000000906000906001600160a01b03831690636a627842906024016020604051808303816000875af1158015610a0b573d6000803e3d6000fd5b505050506040513d601f19601f82011682018060405250810190610a2f9190611b6d565b905080600003610a525760405163bb55fd2760e01b815260040160405180910390fd5b84600003610a6257809650610a84565b8481610a6d60025490565b610a779190611afd565b610a819190611b9c565b96505b610a9786610a928388611b5a565b6111c1565b610aa1888861143c565b600081610aae8789611b5a565b610ab89190611b5a565b6040516370a0823160e01b81523060048201529091506001600160a01b038416906370a0823190602401602060405180830381865afa158015610aff573d6000803e3d6000fd5b505050506040513d601f19601f82011682018060405250810190610b239190611b6d565b811115610b43576040516374c1025960e11b815260040160405180910390fd5b60408051898152602081018490526001600160a01b038b16917f2cb7ded13a095089a18b8ad95c663730c3ff5339d3aa328fe7913d97ba3014ef910160405180910390a2505050505050505b919050565b336001600160a01b037f00000000000000000000000000000000000000000000000000000000000000001614610bdd576040516302a198b360e51b815260040160405180910390fd5b3060009081526020819052604081205490819003610c0e57604051635ca8eceb60e11b815260040160405180910390fd5b600080610c196110f9565b50915091506000610c2960025490565b9050600081610c388487611afd565b610c429190611b9c565b60405163a9059cbb60e01b81527f00000000000000000000000000000000000000000000000000000000000000006001600160a01b038116600483018190526024830184905292935091829163a9059cbb906044016020604051808303816000875af1158015610cb6573d6000803e3d6000fd5b505050506040513d601f19601f82011682018060405250810190610cda9190611b14565b5060405163226bf2d160e21b81526001600160a01b0389811660048301528216906389afcb449060240160408051808303816000875af1158015610d22573d6000803e3d6000fd5b505050506040513d601f19601f82011682018060405250810190610d469190611b36565b50610d57905086610a928588611bbe565b610d6130886114fb565b60408051888152602081018590526001600160a01b038a16917ffe9e0b0c1e3e9216717d5f66d10bc310b12c366417e150b4b1af9fb9620bca91910160405180910390a25050505050505050565b6060600480546103a390611aad565b60003381610dcc8286610f18565b905083811015610e315760405162461bcd60e51b815260206004820152602560248201527f45524332303a2064656372656173656420616c6c6f77616e63652062656c6f77604482015264207a65726f60d81b60648201526084015b60405180910390fd5b6106448286868403610fd4565b600033610434818585611298565b60008082600003610e6257506000928392509050565b7f00000000000000000000000000000000000000000000000000000000000000006001600160a01b038116610e9d5750600093849350915050565b6000806000610eaa611625565b9250925092506000610eba6110f9565b509150506000610ec960025490565b610ed3838b611afd565b610edd9190611b9c565b905082610eea8683611afd565b610ef49190611b9c565b975082610f018583611afd565b610f0b9190611b9c565b9650505050505050915091565b6001600160a01b03918216600090815260016020908152604080832093909416825291909152205490565b600080600080600080610f546110f9565b50915091506000806000610f66611625565b9194509250905080610f788486611afd565b610f829190611b9c565b985080610f8f8386611afd565b610f999190611b9c565b975080610fa68487611afd565b610fb09190611b9c565b965080610fbd8387611afd565b610fc79190611b9c565b9550505050505090919293565b6001600160a01b0383166110365760405162461bcd60e51b8152602060048201526024808201527f45524332303a20617070726f76652066726f6d20746865207a65726f206164646044820152637265737360e01b6064820152608401610e28565b6001600160a01b0382166110975760405162461bcd60e51b815260206004820152602260248201527f45524332303a20617070726f766520746f20746865207a65726f206164647265604482015261737360f01b6064820152608401610e28565b6001600160a01b0383811660008181526001602090815260408083209487168084529482529182902085905590518481527f8c5be1e5ebec7d5bd14f71427d1e84f3dd0314c0f7b2291e5b200ac8c7c3b92591015b60405180910390a3505050565b6007546006546000918291829190826111128284611b5a565b90506000806000611121611625565b9250925092508360001480611134575080155b1561114c575060009889985088975095505050505050565b808461116061115b8587611afd565b6117d5565b61116a9190611afd565b6111749190611b9c565b60055490975080881161119257959994985094965092945050505050565b8761119d8288611afd565b6111a79190611b9c565b98506111b38986611bbe565b995050505050505050909192565b60006111cd8284611b5a565b905060008060006111dc611625565b91945092509050600081856111f461115b8688611afd565b6111fe9190611afd565b6112089190611b9c565b6007979097555050506006929092555050600555565b600061122a8484610f18565b9050600019811461129257818110156112855760405162461bcd60e51b815260206004820152601d60248201527f45524332303a20696e73756666696369656e7420616c6c6f77616e63650000006044820152606401610e28565b6112928484848403610fd4565b50505050565b6001600160a01b0383166112fc5760405162461bcd60e51b815260206004820152602560248201527f45524332303a207472616e736665722066726f6d20746865207a65726f206164604482015264647265737360d81b6064820152608401610e28565b6001600160a01b03821661135e5760405162461bcd60e51b815260206004820152602360248201527f45524332303a207472616e7366657220746f20746865207a65726f206164647260448201526265737360e81b6064820152608401610e28565b6001600160a01b038316600090815260208190526040902054818110156113d65760405162461bcd60e51b815260206004820152602660248201527f45524332303a207472616e7366657220616d6f756e7420657863656564732062604482015265616c616e636560d01b6064820152608401610e28565b6001600160a01b03848116600081815260208181526040808320878703905593871680835291849020805487019055925185815290927fddf252ad1be2c89b69c2b068fc378daa952ba7f163c4a11628f55a4df523b3ef910160405180910390a3611292565b6001600160a01b0382166114925760405162461bcd60e51b815260206004820152601f60248201527f45524332303a206d696e7420746f20746865207a65726f2061646472657373006044820152606401610e28565b80600260008282546114a49190611b5a565b90915550506001600160a01b038216600081815260208181526040808320805486019055518481527fddf252ad1be2c89b69c2b068fc378daa952ba7f163c4a11628f55a4df523b3ef910160405180910390a35050565b6001600160a01b03821661155b5760405162461bcd60e51b815260206004820152602160248201527f45524332303a206275726e2066726f6d20746865207a65726f206164647265736044820152607360f81b6064820152608401610e28565b6001600160a01b038216600090815260208190526040902054818110156115cf5760405162461bcd60e51b815260206004820152602260248201527f45524332303a206275726e20616d6f756e7420657863656564732062616c616e604482015261636560f01b6064820152608401610e28565b6001600160a01b0383166000818152602081815260408083208686039055600280548790039055518581529192917fddf252ad1be2c89b69c2b068fc378daa952ba7f163c4a11628f55a4df523b3ef91016110ec565b6000806000807f00000000000000000000000000000000000000000000000000000000000000009050600080826001600160a01b0316630902f1ac6040518163ffffffff1660e01b8152600401606060405180830381865afa15801561168f573d6000803e3d6000fd5b505050506040513d601f19601f820116820180604052508101906116b39190611be8565b506001600160701b031691506001600160701b031691507f00000000000000000000000000000000000000000000000000000000000000006001600160a01b0316836001600160a01b031663d21220a76040518163ffffffff1660e01b8152600401602060405180830381865afa158015611732573d6000803e3d6000fd5b505050506040513d601f19601f820116820180604052508101906117569190611c38565b6001600160a01b03160361176657905b826001600160a01b03166318160ddd6040518163ffffffff1660e01b8152600401602060405180830381865afa1580156117a4573d6000803e3d6000fd5b505050506040513d601f19601f820116820180604052508101906117c89190611b6d565b9196909550909350915050565b6000816000036117e757506000919050565b600060016117f4846118c4565b901c6001901b9050600181848161180d5761180d611b86565b048201901c9050600181848161182557611825611b86565b048201901c9050600181848161183d5761183d611b86565b048201901c9050600181848161185557611855611b86565b048201901c9050600181848161186d5761186d611b86565b048201901c9050600181848161188557611885611b86565b048201901c9050600181848161189d5761189d611b86565b048201901c90506118bd818285816118b7576118b7611b86565b04611958565b9392505050565b600080608083901c156118d957608092831c92015b604083901c156118eb57604092831c92015b602083901c156118fd57602092831c92015b601083901c1561190f57601092831c92015b600883901c1561192157600892831c92015b600483901c1561193357600492831c92015b600283901c1561194557600292831c92015b600183901c1561043a5760010192915050565b600081831061196757816118bd565b5090919050565b600060208083528351808285015260005b8181101561199b5785810183015185820160400152820161197f565b506000604082860101526040601f19601f8301168501019250505092915050565b6001600160a01b038116811461062857600080fd5b600080604083850312156119e457600080fd5b82356119ef816119bc565b946020939093013593505050565b600060208284031215611a0f57600080fd5b81356118bd816119bc565b600080600060608486031215611a2f57600080fd5b8335611a3a816119bc565b92506020840135611a4a816119bc565b929592945050506040919091013590565b600060208284031215611a6d57600080fd5b5035919050565b60008060408385031215611a8757600080fd5b8235611a92816119bc565b91506020830135611aa2816119bc565b809150509250929050565b600181811c90821680611ac157607f821691505b602082108103611ae157634e487b7160e01b600052602260045260246000fd5b50919050565b634e487b7160e01b600052601160045260246000fd5b808202811582820484141761043a5761043a611ae7565b600060208284031215611b2657600080fd5b815180151581146118bd57600080fd5b60008060408385031215611b4957600080fd5b505080516020909101519092909150565b8082018082111561043a5761043a611ae7565b600060208284031215611b7f57600080fd5b5051919050565b634e487b7160e01b600052601260045260246000fd5b600082611bb957634e487b7160e01b600052601260045260246000fd5b500490565b8181038181111561043a5761043a611ae7565b80516001600160701b0381168114610b8f57600080fd5b600080600060608486031215611bfd57600080fd5b611c0684611bd1565b9250611c1460208501611bd1565b9150604084015163ffffffff81168114611c2d57600080fd5b809150509250925092565b600060208284031215611c4a57600080fd5b81516118bd816119bc56fea264697066735822122008b3c6d1a9cddf2b00844eeaa2ca9446b8c32c56b26c07c2aa590f978ea87e5164736f6c63430008130033","linkReferences":{}},"methodIdentifiers":{"MAX_WITHDRAWABLE_TO_FEE_RATIO()":"1fb91389","allowance(address,address)":"dd62ed3e","approve(address,uint256)":"095ea7b3","balanceOf(address)":"70a08231","burn(address)":"89afcb44","decimals()":"313ce567","decreaseAllowance(address,uint256)":"a457c2d7","increaseAllowance(address,uint256)":"39509351","mint(address)":"6a627842","minter()":"07546172","name()":"06fdde03","parentTokenAddress()":"47502b53","symbol()":"95d89b41","tokenAddress()":"9d76ea58","tokenAmounts()":"e1a9e331","tokenAmountsBySlAmount(uint256)":"ba9ea66b","totalSupply()":"18160ddd","transfer(address,uint256)":"a9059cbb","transferFrom(address,address,uint256)":"23b872dd","uniswapV2Pair()":"49bd5a5e","withdrawFee(address)":"1ac3ddeb"},"id":41}