{"abi":[{"type":"constructor","inputs":[{"name":"groupChat_","type":"address","internalType":"address"},{"name":"banSource_","type":"address","internalType":"address"},{"name":"beforePostPlugin_","type":"address","internalType":"address"},{"name":"afterPostPlugin_","type":"address","internalType":"address"},{"name":"extensionCenter_","type":"address","internalType":"address"},{"name":"recentRounds_","type":"uint256","internalType":"uint256"}],"stateMutability":"nonpayable"},{"type":"function","name":"AFTER_POST_PLUGIN_ADDRESS","inputs":[],"outputs":[{"name":"","type":"address","internalType":"address"}],"stateMutability":"view"},{"type":"function","name":"BAN_SOURCE_ADDRESS","inputs":[],"outputs":[{"name":"","type":"address","internalType":"address"}],"stateMutability":"view"},{"type":"function","name":"BEFORE_POST_PLUGIN_ADDRESS","inputs":[],"outputs":[{"name":"","type":"address","internalType":"address"}],"stateMutability":"view"},{"type":"function","name":"EXTENSION_CENTER_ADDRESS","inputs":[],"outputs":[{"name":"","type":"address","internalType":"address"}],"stateMutability":"view"},{"type":"function","name":"GROUP_ADDRESS","inputs":[],"outputs":[{"name":"","type":"address","internalType":"address"}],"stateMutability":"view"},{"type":"function","name":"GROUP_CHAT_ADDRESS","inputs":[],"outputs":[{"name":"","type":"address","internalType":"address"}],"stateMutability":"view"},{"type":"function","name":"RECENT_ROUNDS","inputs":[],"outputs":[{"name":"","type":"uint256","internalType":"uint256"}],"stateMutability":"view"},{"type":"function","name":"actionOfGroup","inputs":[{"name":"","type":"uint256","internalType":"uint256"}],"outputs":[{"name":"token","type":"address","internalType":"address"},{"name":"actionId","type":"uint256","internalType":"uint256"}],"stateMutability":"view"},{"type":"function","name":"actionsByToken","inputs":[{"name":"token","type":"address","internalType":"address"},{"name":"offset","type":"uint256","internalType":"uint256"},{"name":"limit","type":"uint256","internalType":"uint256"},{"name":"reverse","type":"bool","internalType":"bool"}],"outputs":[{"name":"actionIds","type":"uint256[]","internalType":"uint256[]"},{"name":"groupIds","type":"uint256[]","internalType":"uint256[]"}],"stateMutability":"view"},{"type":"function","name":"actionsByTokenCount","inputs":[{"name":"token","type":"address","internalType":"address"}],"outputs":[{"name":"","type":"uint256","internalType":"uint256"}],"stateMutability":"view"},{"type":"function","name":"actionsOfGroups","inputs":[{"name":"groupIds","type":"uint256[]","internalType":"uint256[]"}],"outputs":[{"name":"tokens","type":"address[]","internalType":"address[]"},{"name":"actionIds","type":"uint256[]","internalType":"uint256[]"}],"stateMutability":"view"},{"type":"function","name":"activate","inputs":[{"name":"token","type":"address","internalType":"address"},{"name":"actionId","type":"uint256","internalType":"uint256"}],"outputs":[{"name":"groupId","type":"uint256","internalType":"uint256"}],"stateMutability":"nonpayable"},{"type":"function","name":"canPost","inputs":[{"name":"groupId","type":"uint256","internalType":"uint256"},{"name":"","type":"uint256","internalType":"uint256"},{"name":"senderAddress","type":"address","internalType":"address"}],"outputs":[{"name":"","type":"bool","internalType":"bool"}],"stateMutability":"view"},{"type":"function","name":"groupIdOfAction","inputs":[{"name":"","type":"address","internalType":"address"},{"name":"","type":"uint256","internalType":"uint256"}],"outputs":[{"name":"","type":"uint256","internalType":"uint256"}],"stateMutability":"view"},{"type":"function","name":"groupIdsOfActions","inputs":[{"name":"token","type":"address","internalType":"address"},{"name":"actionIds","type":"uint256[]","internalType":"uint256[]"}],"outputs":[{"name":"groupIds","type":"uint256[]","internalType":"uint256[]"}],"stateMutability":"view"},{"type":"function","name":"onERC721Received","inputs":[{"name":"","type":"address","internalType":"address"},{"name":"from","type":"address","internalType":"address"},{"name":"","type":"uint256","internalType":"uint256"},{"name":"","type":"bytes","internalType":"bytes"}],"outputs":[{"name":"","type":"bytes4","internalType":"bytes4"}],"stateMutability":"view"},{"type":"function","name":"totalVoteWeight","inputs":[{"name":"groupId","type":"uint256","internalType":"uint256"}],"outputs":[{"name":"","type":"uint256","internalType":"uint256"}],"stateMutability":"view"},{"type":"function","name":"voteWeightOf","inputs":[{"name":"groupId","type":"uint256","internalType":"uint256"},{"name":"voter","type":"address","internalType":"address"}],"outputs":[{"name":"","type":"uint256","internalType":"uint256"}],"stateMutability":"view"},{"type":"event","name":"Activate","inputs":[{"name":"token","type":"address","indexed":true,"internalType":"address"},{"name":"actionId","type":"uint256","indexed":true,"internalType":"uint256"},{"name":"groupId","type":"uint256","indexed":true,"internalType":"uint256"},{"name":"operator","type":"address","indexed":false,"internalType":"address"}],"anonymous":false},{"type":"error","name":"ActionIdNotExist","inputs":[]},{"type":"error","name":"AlreadyManaged","inputs":[]},{"type":"error","name":"ManagerAddressHasNoCode","inputs":[]},{"type":"error","name":"ManagerApprovalFailed","inputs":[]},{"type":"error","name":"ManagerGroupNameUnavailable","inputs":[]},{"type":"error","name":"ManagerMintCostChanged","inputs":[]},{"type":"error","name":"ManagerPaymentFailed","inputs":[]},{"type":"error","name":"RecentRoundsZero","inputs":[]},{"type":"error","name":"TokenNotLOVE20","inputs":[]},{"type":"error","name":"UnexpectedManagerERC721Received","inputs":[]}],"bytecode":{"object":"0x6102206040523480156200001257600080fd5b5060405162002ce938038062002ce98339810160408190526200003591620004be565b85858585858585858585858484848484620000508562000436565b6200005b8462000464565b620000668362000464565b620000718262000464565b6200007c8162000436565b6000856001600160a01b031663af5934626040518163ffffffff1660e01b8152600401602060405180830381865afa158015620000bd573d6000803e3d6000fd5b505050506040513d601f19601f82011682018060405250810190620000e3919062000536565b9050620000f08162000436565b6001600160a01b03808716608052811660a081905260408051632f26324560e11b81529051635e4c648a916004808201926020929091908290030181865afa15801562000141573d6000803e3d6000fd5b505050506040513d601f19601f820116820180604052508101906200016791906200055b565b60c052506001600160a01b0390811660e05292831661010052908216610120528116610140526040805163622b918560e11b81529051600093509184169163c457230a916004808201926020929091908290030181865afa158015620001d1573d6000803e3d6000fd5b505050506040513d601f19601f82011682018060405250810190620001f7919062000536565b90506000826001600160a01b031663851073676040518163ffffffff1660e01b8152600401602060405180830381865afa1580156200023a573d6000803e3d6000fd5b505050506040513d601f19601f8201168201806040525081019062000260919062000536565b90506200026d8262000436565b620002788162000436565b6001600160a01b03918216610160521661018052506200029f9350849250506200047f9050565b6000826001600160a01b0316633d6dc9286040518163ffffffff1660e01b8152600401602060405180830381865afa158015620002e0573d6000803e3d6000fd5b505050506040513d601f19601f8201168201806040525081019062000306919062000536565b90506000836001600160a01b031663e388878f6040518163ffffffff1660e01b8152600401602060405180830381865afa15801562000349573d6000803e3d6000fd5b505050506040513d601f19601f820116820180604052508101906200036f919062000536565b90506200037c8262000436565b620003878162000436565b6001600160a01b039182166101a05281166101c0526101e09190915260408051630963347960e21b8152905160009750918916955063258cd1e494506004808201945060209350908290030181865afa158015620003e9573d6000803e3d6000fd5b505050506040513d601f19601f820116820180604052508101906200040f919062000536565b90506200041c8162000436565b6001600160a01b0316610200525062000575945050505050565b806001600160a01b03163b600003620004615760405162bff35360e41b815260040160405180910390fd5b50565b6001600160a01b038116156200046157620004618162000436565b8060000362000461576040516365cf4c2160e11b815260040160405180910390fd5b80516001600160a01b0381168114620004b957600080fd5b919050565b60008060008060008060c08789031215620004d857600080fd5b620004e387620004a1565b9550620004f360208801620004a1565b94506200050360408801620004a1565b93506200051360608801620004a1565b92506200052360808801620004a1565b915060a087015190509295509295509295565b6000602082840312156200054957600080fd5b6200055482620004a1565b9392505050565b6000602082840312156200056e57600080fd5b5051919050565b60805160a05160c05160e05161010051610120516101405161016051610180516101a0516101c0516101e0516102005161266e6200067b6000396000610dcb0152600081816102190152610c9901526000610fab0152600081816109dd01528181610a0d01528181610c120152610cf40152600061071c01526000610f010152600081816101d10152611440015260008181610356015261141801526000818161032f01526113f00152600081816101200152610e6e015260008181611ceb0152611d1c015260008181610290015281816103f4015281816110f501528181611292015281816117830152611a460152600081816102400152611468015261266e6000f3fe608060405234801561001057600080fd5b50600436106101165760003560e01c8063af593462116100a2578063dc47813d11610071578063dc47813d1461032a578063dcb2ff7e14610351578063e20f18b314610378578063f6618a6d1461039b578063fca88b8a146103c657600080fd5b8063af5934621461028b578063c9b84e89146102b2578063ca11be69146102c5578063d69efa9f146102d857600080fd5b80631dbc3e66116100e95780631dbc3e66146101cc57806321ba52fd146101f35780634209c760146102145780634266d7401461023b578063587d017a1461026257600080fd5b8063046ffe1c1461011b578063150b7a021461015f57806315bb10741461018b5780631ce301e2146101ac575b600080fd5b6101427f000000000000000000000000000000000000000000000000000000000000000081565b6040516001600160a01b0390911681526020015b60405180910390f35b61017261016d366004611f49565b6103e7565b6040516001600160e01b03199091168152602001610156565b61019e610199366004611ff5565b610459565b60405161015692919061207a565b6101bf6101ba3660046120ea565b6105c9565b604051610156919061213e565b6101427f000000000000000000000000000000000000000000000000000000000000000081565b610206610201366004612151565b610692565b604051908152602001610156565b6102067f000000000000000000000000000000000000000000000000000000000000000081565b6101427f000000000000000000000000000000000000000000000000000000000000000081565b610206610270366004612181565b6001600160a01b031660009081526003602052604090205490565b6101427f000000000000000000000000000000000000000000000000000000000000000081565b6102066102c036600461219e565b6106d5565b6102066102d33660046121b7565b61078f565b61030b6102e636600461219e565b600160208190526000918252604090912080549101546001600160a01b039091169082565b604080516001600160a01b039093168352602083019190915201610156565b6101427f000000000000000000000000000000000000000000000000000000000000000081565b6101427f000000000000000000000000000000000000000000000000000000000000000081565b61038b6103863660046121e3565b6107cb565b6040519015158152602001610156565b6102066103a93660046121b7565b600260209081526000928352604080842090915290825290205481565b6103d96103d436600461221c565b61081c565b60405161015692919061225d565b6000336001600160a01b037f00000000000000000000000000000000000000000000000000000000000000001614158061042957506001600160a01b03851615155b1561044757604051639b1ace7d60e01b815260040160405180910390fd5b50630a85bd0160e11b95945050505050565b6001600160a01b03841660009081526003602052604081208054606092839291610484908888610968565b9050806001600160401b0381111561049e5761049e6122b3565b6040519080825280602002602001820160405280156104c7578160200160208202803683370190505b509350806001600160401b038111156104e2576104e26122b3565b60405190808252806020026020018201604052801561050b578160200160208202803683370190505b50925060005b818110156105bd5760008361052c85805490508b858b61099f565b8154811061053c5761053c6122c9565b906000526020600020015490508086838151811061055c5761055c6122c9565b6020908102919091018101919091526001600160a01b038b1660009081526002825260408082208483529092522054855186908490811061059f5761059f6122c9565b602090810291909101015250806105b5816122f5565b915050610511565b50505094509492505050565b6060816001600160401b038111156105e3576105e36122b3565b60405190808252806020026020018201604052801561060c578160200160208202803683370190505b50905060005b8281101561068a576001600160a01b038516600090815260026020526040812090858584818110610645576106456122c9565b9050602002013581526020019081526020016000205482828151811061066d5761066d6122c9565b602090810291909101015280610682816122f5565b915050610612565b509392505050565b600082815260016020526040812080546001600160a01b0316806106bb576000925050506106cf565b6106ca818360010154866109d9565b925050505b92915050565b600081815260016020526040812080546001600160a01b0316806106fd575060009392505050565b6040516315664f8d60e01b81526001600160a01b0382811660048301527f000000000000000000000000000000000000000000000000000000000000000016906315664f8d90602401602060405180830381865afa158015610763573d6000803e3d6000fd5b505050506040513d601f19601f82011682018060405250810190610787919061230e565b949350505050565b60006107c483836040518060400160405280601081526020016f6d67725f616374696f6e5f6d61696e5f60801b815250610ae8565b9392505050565b600083815260016020526040812080546001600160a01b0316801580159061081257506107fd81836001015486610c0d565b80610812575061081281836001015486610d9a565b9695505050505050565b606080826001600160401b03811115610837576108376122b3565b604051908082528060200260200182016040528015610860578160200160208202803683370190505b509150826001600160401b0381111561087b5761087b6122b3565b6040519080825280602002602001820160405280156108a4578160200160208202803683370190505b50905060005b83811015610960576000600160008787858181106108ca576108ca6122c9565b90506020020135815260200190815260200160002090508060000160009054906101000a90046001600160a01b031684838151811061090b5761090b6122c9565b60200260200101906001600160a01b031690816001600160a01b0316815250508060010154838381518110610942576109426122c9565b60209081029190910101525080610958816122f5565b9150506108aa565b509250929050565b6000838310610979575060006107c4565b60006109858486612327565b90508281106109945782610996565b805b95945050505050565b600081156109cf5782846109b4600188612327565b6109be9190612327565b6109c89190612327565b9050610787565b610996838561233a565b60007f00000000000000000000000000000000000000000000000000000000000000006001600160a01b03166338d76f4c857f00000000000000000000000000000000000000000000000000000000000000006001600160a01b0316638a19c8bc6040518163ffffffff1660e01b8152600401602060405180830381865afa158015610a69573d6000803e3d6000fd5b505050506040513d601f19601f82011682018060405250810190610a8d919061230e565b6040516001600160e01b031960e085901b1681526001600160a01b0392831660048201526024810191909152908516604482015260648101869052608401602060405180830381865afa158015610763573d6000803e3d6000fd5b6000610af384610ed9565b610afd8484610f8c565b6001600160a01b0384166000908152600260209081526040808320868452909152902054610b2c901515611039565b610b3f610b3a838686611058565b6110d7565b6040805180820182526001600160a01b03878116808352602080840189815260008781526001808452878220965187546001600160a01b031916961695909517865590519484019490945581845260028152848420898552815284842086905590835260038152928220805491820181558252919020018490559050610bc4816113cc565b604051338152819084906001600160a01b038716907f1dc3d141355016be44454ad4e1fe27739a48e30dd0812fe533ff73b38979cb159060200160405180910390a49392505050565b6000807f00000000000000000000000000000000000000000000000000000000000000006001600160a01b0316638a19c8bc6040518163ffffffff1660e01b8152600401602060405180830381865afa158015610c6e573d6000803e3d6000fd5b505050506040513d601f19601f82011682018060405250810190610c92919061230e565b905060005b7f0000000000000000000000000000000000000000000000000000000000000000811015610d8e57604051630e35dbd360e21b81526001600160a01b038781166004830152602482018490528581166044830152606482018790527f000000000000000000000000000000000000000000000000000000000000000016906338d76f4c90608401602060405180830381865afa158015610d3b573d6000803e3d6000fd5b505050506040513d601f19601f82011682018060405250810190610d5f919061230e565b15610d6f576001925050506107c4565b8115610d8e576000199091019080610d86816122f5565b915050610c97565b50600095945050505050565b60405163a3782c2360e01b81526001600160a01b0384811660048301526024820184905282811660448301526000917f00000000000000000000000000000000000000000000000000000000000000009091169063a3782c2390606401602060405180830381865afa158015610e14573d6000803e3d6000fd5b505050506040513d601f19601f82011682018060405250810190610e38919061230e565b15158061078757506040516328a8aa7f60e21b81526001600160a01b0385811660048301526024820185905283811660448301527f0000000000000000000000000000000000000000000000000000000000000000169063a2a2a9fc90606401602060405180830381865afa158015610eb5573d6000803e3d6000fd5b505050506040513d601f19601f82011682018060405250810190610787919061234d565b610ee2816114c7565b604051631701f11560e11b81526001600160a01b0382811660048301527f00000000000000000000000000000000000000000000000000000000000000001690632e03e22a90602401602060405180830381865afa158015610f48573d6000803e3d6000fd5b505050506040513d601f19601f82011682018060405250810190610f6c919061234d565b610f8957604051630160b73360e51b815260040160405180910390fd5b50565b604051632796f4a960e11b81526001600160a01b0383811660048301527f00000000000000000000000000000000000000000000000000000000000000001690634f2de95290602401602060405180830381865afa158015610ff2573d6000803e3d6000fd5b505050506040513d601f19601f82011682018060405250810190611016919061230e565b8110611035576040516305e175b560e11b815260040160405180910390fd5b5050565b8015610f895760405163c9c7750560e01b815260040160405180910390fd5b60606000611065836114f1565b90506000611072856115f2565b905080516000036110a857858260405160200161109092919061238e565b604051602081830303815290604052925050506107c4565b8581836040516020016110bd939291906123bd565b604051602081830303815290604052925050509392505050565b6000806110e3836116a7565b6040516308d4d20360e11b81529091507f0000000000000000000000000000000000000000000000000000000000000000906000906001600160a01b038316906311a9a4069061113790869060040161240d565b602060405180830381865afa158015611154573d6000803e3d6000fd5b505050506040513d601f19601f82011682018060405250810190611178919061230e565b9050801561132d576000826001600160a01b03166380b232c06040518163ffffffff1660e01b8152600401602060405180830381865afa1580156111c0573d6000803e3d6000fd5b505050506040513d601f19601f820116820180604052508101906111e49190612440565b6040516323b872dd60e01b8152336004820152306024820152604481018490529091506001600160a01b038216906323b872dd906064016020604051808303816000875af115801561123a573d6000803e3d6000fd5b505050506040513d601f19601f8201168201806040525081019061125e919061234d565b61127b576040516301d56ccf60e61b815260040160405180910390fd5b60405163095ea7b360e01b81526001600160a01b037f0000000000000000000000000000000000000000000000000000000000000000811660048301526024820184905282169063095ea7b3906044016020604051808303816000875af11580156112ea573d6000803e3d6000fd5b505050506040513d601f19601f8201168201806040525081019061130e919061234d565b61132b5760405163af2411a360e01b815260040160405180910390fd5b505b60405163d85d3d2760e01b81526000906001600160a01b0384169063d85d3d279061135c90879060040161240d565b60408051808303816000875af115801561137a573d6000803e3d6000fd5b505050506040513d601f19601f8201168201806040525081019061139e919061245d565b90955090508181146113c35760405163ed24d0e760e01b815260040160405180910390fd5b50505050919050565b60405163ce572a1d60e01b8152600481018290523060248201526001600160a01b037f0000000000000000000000000000000000000000000000000000000000000000811660448301527f0000000000000000000000000000000000000000000000000000000000000000811660648301527f0000000000000000000000000000000000000000000000000000000000000000811660848301527f0000000000000000000000000000000000000000000000000000000000000000169063ce572a1d9060a401600060405180830381600087803b1580156114ac57600080fd5b505af11580156114c0573d6000803e3d6000fd5b5050505050565b806001600160a01b03163b600003610f895760405162bff35360e41b815260040160405180910390fd5b6060816000036115185750506040805180820190915260018152600360fc1b602082015290565b8160005b8115611542578061152c816122f5565b915061153b9050600a83612497565b915061151c565b6000816001600160401b0381111561155c5761155c6122b3565b6040519080825280601f01601f191660200182016040528015611586576020820181803683370190505b5090505b8415610787578161159a816124ab565b92506115a99050600a866124c2565b6115b490603061233a565b60f81b8183815181106115c9576115c96122c9565b60200101906001600160f81b031916908160001a9053506115eb600a86612497565b945061158a565b6040805180820190915260058152642a27a5a2a760d91b60208201526060906001600160a01b0383163b156106cf57826001600160a01b03166395d89b416040518163ffffffff1660e01b8152600401600060405180830381865afa92505050801561168057506040513d6000823e601f3d908101601f1916820160405261167d91908101906124d6565b60015b156106cf57600061169082611835565b9050805160001461169f578092505b505092915050565b606060006116b3611a41565b905060005b600881101561181b5760008054604080514660208201526bffffffffffffffffffffffff1930606090811b8216938301939093523390921b909116605482015243606882015260888101919091526117289060a80160405160208183030381529060405280519060200120611b74565b905060006117606117398786611cae565b8360405160200161174b929190612582565b60405160208183030381529060405285611d4c565b600080546001019055604051633c5c3cd560e11b81529091506001600160a01b037f000000000000000000000000000000000000000000000000000000000000000016906378b879aa906117b890849060040161240d565b602060405180830381865afa1580156117d5573d6000803e3d6000fd5b505050506040513d601f19601f820116820180604052508101906117f9919061234d565b6118065795945050505050565b50508080611813906122f5565b9150506116b8565b50604051634a6464df60e01b815260040160405180910390fd5b60606000829050600081516001600160401b03811115611857576118576122b3565b6040519080825280601f01601f191660200182016040528015611881576020820181803683370190505b5090506000805b835181101561198c5760008482815181106118a5576118a56122c9565b01602001516001600160f81b0319169050600360fc1b81108015906118d85750603960f81b6001600160f81b0319821611155b8061190a5750604160f81b6001600160f81b031982161080159061190a5750602d60f91b6001600160f81b0319821611155b8061193c5750606160f81b6001600160f81b031982161080159061193c5750603d60f91b6001600160f81b0319821611155b156119795780848481518110611954576119546122c9565b60200101906001600160f81b031916908160001a90535082611975816122f5565b9350505b5080611984816122f5565b915050611888565b506000816001600160401b038111156119a7576119a76122b3565b6040519080825280601f01601f1916602001820160405280156119d1576020820181803683370190505b50905060005b82811015611a37578381815181106119f1576119f16122c9565b602001015160f81c60f81b828281518110611a0e57611a0e6122c9565b60200101906001600160f81b031916908160001a90535080611a2f816122f5565b9150506119d7565b5095945050505050565b6000807f00000000000000000000000000000000000000000000000000000000000000006001600160a01b03166380b232c06040518163ffffffff1660e01b8152600401602060405180830381865afa158015611aa2573d6000803e3d6000fd5b505050506040513d601f19601f82011682018060405250810190611ac69190612440565b9050806001600160a01b03163b600003611ae257600091505090565b6315195cdd60e21b6001600160e01b031916816001600160a01b03166395d89b416040518163ffffffff1660e01b8152600401600060405180830381865afa158015611b32573d6000803e3d6000fd5b505050506040513d6000823e601f3d908101601f19168201604052611b5a91908101906124d6565b611b63906125be565b6001600160e01b0319161492915050565b60408051600c8082528183019092526060916000919060208201818036833701905050905060005b611ba86002600c612497565b811015611ca7576000848260208110611bc357611bc36122c9565b1a90506f181899199a1a9b1b9c1cb0b131b232b360811b600482901c60ff1660108110611bf257611bf26122c9565b1a60f81b83611c028460026125f5565b81518110611c1257611c126122c9565b60200101906001600160f81b031916908160001a9053506f181899199a1a9b1b9c1cb0b131b232b360811b600f821660108110611c5157611c516122c9565b1a60f81b83611c618460026125f5565b611c6c90600161233a565b81518110611c7c57611c7c6122c9565b60200101906001600160f81b031916908160001a905350508080611c9f906122f5565b915050611b9c565b5092915050565b60606000611cbe600c600161233a565b9050828015611cd35750611cd184611d93565b155b15611ce657611ce360048261233a565b90505b6000817f000000000000000000000000000000000000000000000000000000000000000011611d16576000611d40565b611d40827f0000000000000000000000000000000000000000000000000000000000000000612327565b90506106ca8582611e69565b6060811580611d5f5750611d5f83611d93565b15611d6b5750816106cf565b82604051602001611d7c919061260c565b604051602081830303815290604052905092915050565b6000808290506004815110158015611dd0575080600081518110611db957611db96122c9565b6020910101516001600160f81b031916601560fa1b145b8015611e01575080600181518110611dea57611dea6122c9565b6020910101516001600160f81b031916606560f81b145b8015611e32575080600281518110611e1b57611e1b6122c9565b6020910101516001600160f81b031916607360f81b145b80156107c4575080600381518110611e4c57611e4c6122c9565b6020910101516001600160f81b031916601d60fa1b149392505050565b6060600083905082815111611e8157839150506106cf565b6000836001600160401b03811115611e9b57611e9b6122b3565b6040519080825280601f01601f191660200182016040528015611ec5576020820181803683370190505b50905060005b84811015611f2b57828181518110611ee557611ee56122c9565b602001015160f81c60f81b828281518110611f0257611f026122c9565b60200101906001600160f81b031916908160001a90535080611f23816122f5565b915050611ecb565b50949350505050565b6001600160a01b0381168114610f8957600080fd5b600080600080600060808688031215611f6157600080fd5b8535611f6c81611f34565b94506020860135611f7c81611f34565b93506040860135925060608601356001600160401b0380821115611f9f57600080fd5b818801915088601f830112611fb357600080fd5b813581811115611fc257600080fd5b896020828501011115611fd457600080fd5b9699959850939650602001949392505050565b8015158114610f8957600080fd5b6000806000806080858703121561200b57600080fd5b843561201681611f34565b93506020850135925060408501359150606085013561203481611fe7565b939692955090935050565b600081518084526020808501945080840160005b8381101561206f57815187529582019590820190600101612053565b509495945050505050565b60408152600061208d604083018561203f565b8281036020840152610996818561203f565b60008083601f8401126120b157600080fd5b5081356001600160401b038111156120c857600080fd5b6020830191508360208260051b85010111156120e357600080fd5b9250929050565b6000806000604084860312156120ff57600080fd5b833561210a81611f34565b925060208401356001600160401b0381111561212557600080fd5b6121318682870161209f565b9497909650939450505050565b6020815260006107c4602083018461203f565b6000806040838503121561216457600080fd5b82359150602083013561217681611f34565b809150509250929050565b60006020828403121561219357600080fd5b81356107c481611f34565b6000602082840312156121b057600080fd5b5035919050565b600080604083850312156121ca57600080fd5b82356121d581611f34565b946020939093013593505050565b6000806000606084860312156121f857600080fd5b8335925060208401359150604084013561221181611f34565b809150509250925092565b6000806020838503121561222f57600080fd5b82356001600160401b0381111561224557600080fd5b6122518582860161209f565b90969095509350505050565b604080825283519082018190526000906020906060840190828701845b8281101561229f5781516001600160a01b03168452928401929084019060010161227a565b50505083810382850152610812818661203f565b634e487b7160e01b600052604160045260246000fd5b634e487b7160e01b600052603260045260246000fd5b634e487b7160e01b600052601160045260246000fd5b600060018201612307576123076122df565b5060010190565b60006020828403121561232057600080fd5b5051919050565b818103818111156106cf576106cf6122df565b808201808211156106cf576106cf6122df565b60006020828403121561235f57600080fd5b81516107c481611fe7565b60005b8381101561238557818101518382015260200161236d565b50506000910152565b600083516123a081846020880161236a565b8351908301906123b481836020880161236a565b01949350505050565b600084516123cf81846020890161236a565b8451908301906123e381836020890161236a565b605f60f81b9101908152835161240081600184016020880161236a565b0160010195945050505050565b602081526000825180602084015261242c81604085016020870161236a565b601f01601f19169190910160400192915050565b60006020828403121561245257600080fd5b81516107c481611f34565b6000806040838503121561247057600080fd5b505080516020909101519092909150565b634e487b7160e01b600052601260045260246000fd5b6000826124a6576124a6612481565b500490565b6000816124ba576124ba6122df565b506000190190565b6000826124d1576124d1612481565b500690565b6000602082840312156124e857600080fd5b81516001600160401b03808211156124ff57600080fd5b818401915084601f83011261251357600080fd5b815181811115612525576125256122b3565b604051601f8201601f19908116603f0116810190838211818310171561254d5761254d6122b3565b8160405282815287602084870101111561256657600080fd5b61257783602083016020880161236a565b979650505050505050565b6000835161259481846020880161236a565b605f60f81b90830190815283516125b281600184016020880161236a565b01600101949350505050565b805160208201516001600160e01b031980821692919060048310156125ed5780818460040360031b1b83161693505b505050919050565b80820281158282048414176106cf576106cf6122df565b6315195cdd60e21b81526000825161262b81600485016020870161236a565b919091016004019291505056fea26469706673582212206c327a6854f66aca55116b1678fdac5ef8336975ead2f9f83f5a7ae2264ae4c664736f6c63430008110033","linkReferences":{}},"methodIdentifiers":{"AFTER_POST_PLUGIN_ADDRESS()":"1dbc3e66","BAN_SOURCE_ADDRESS()":"dc47813d","BEFORE_POST_PLUGIN_ADDRESS()":"dcb2ff7e","EXTENSION_CENTER_ADDRESS()":"046ffe1c","GROUP_ADDRESS()":"af593462","GROUP_CHAT_ADDRESS()":"4266d740","RECENT_ROUNDS()":"4209c760","actionOfGroup(uint256)":"d69efa9f","actionsByToken(address,uint256,uint256,bool)":"15bb1074","actionsByTokenCount(address)":"587d017a","actionsOfGroups(uint256[])":"fca88b8a","activate(address,uint256)":"ca11be69","canPost(uint256,uint256,address)":"e20f18b3","groupIdOfAction(address,uint256)":"f6618a6d","groupIdsOfActions(address,uint256[])":"1ce301e2","onERC721Received(address,address,uint256,bytes)":"150b7a02","totalVoteWeight(uint256)":"c9b84e89","voteWeightOf(uint256,address)":"21ba52fd"},"id":42}