{"abi":[{"type":"constructor","inputs":[{"name":"originBlocks","type":"uint256","internalType":"uint256"},{"name":"phaseBlocks","type":"uint256","internalType":"uint256"}],"stateMutability":"nonpayable"},{"type":"function","name":"currentRound","inputs":[],"outputs":[{"name":"","type":"uint256","internalType":"uint256"}],"stateMutability":"view"},{"type":"function","name":"initialize","inputs":[{"name":"modifierAddress_","type":"address","internalType":"address"}],"outputs":[],"stateMutability":"nonpayable"},{"type":"function","name":"modifierAddress","inputs":[],"outputs":[{"name":"","type":"address","internalType":"address"}],"stateMutability":"view"},{"type":"function","name":"originBlocks","inputs":[],"outputs":[{"name":"","type":"uint256","internalType":"uint256"}],"stateMutability":"view"},{"type":"function","name":"phaseBlocks","inputs":[],"outputs":[{"name":"","type":"uint256","internalType":"uint256"}],"stateMutability":"view"},{"type":"function","name":"prevRandomSeed","inputs":[],"outputs":[{"name":"","type":"uint256","internalType":"uint256"}],"stateMutability":"view"},{"type":"function","name":"randomSeed","inputs":[{"name":"round","type":"uint256","internalType":"uint256"}],"outputs":[{"name":"","type":"uint256","internalType":"uint256"}],"stateMutability":"view"},{"type":"function","name":"roundByBlockNumber","inputs":[{"name":"blockNumber","type":"uint256","internalType":"uint256"}],"outputs":[{"name":"","type":"uint256","internalType":"uint256"}],"stateMutability":"view"},{"type":"function","name":"updateRandomSeed","inputs":[{"name":"verifierAddress","type":"address","internalType":"address"}],"outputs":[],"stateMutability":"nonpayable"},{"type":"event","name":"UpdateRandomSeed","inputs":[{"name":"round","type":"uint256","indexed":true,"internalType":"uint256"},{"name":"newRandomSeed","type":"uint256","indexed":false,"internalType":"uint256"},{"name":"prevRandomSeed","type":"uint256","indexed":false,"internalType":"uint256"},{"name":"verifierAddress","type":"address","indexed":true,"internalType":"address"},{"name":"blockNumber","type":"uint256","indexed":false,"internalType":"uint256"}],"anonymous":false},{"type":"error","name":"AlreadyInitialized","inputs":[]},{"type":"error","name":"ModifierAddressCannotBeZero","inputs":[]},{"type":"error","name":"NotEligible2UpdateRandomSeed","inputs":[]},{"type":"error","name":"RoundNotStarted","inputs":[]}],"bytecode":{"object":"0x60c060405234801561001057600080fd5b5060405161056a38038061056a83398101604081905261002f91610097565b60809190915260a05260408051306020808301919091524382840152825180830384018152606090920190925280519082012060018190556000805260029091527fac33ff75c19e70fe83507db0d683fd3465c996598dc972688b7ace676c89077b556100bb565b600080604083850312156100aa57600080fd5b505080516020909101519092909150565b60805160a0516104766100f46000396000818160d801526101f90152600081816101230152818161018701526101cd01526104766000f3fe608060405234801561001057600080fd5b50600436106100935760003560e01c80637f1c4794116100665780637f1c47941461010d5780638a19c8bc14610116578063b2ad37301461011e578063c4d66de814610145578063f03423351461015857600080fd5b80633bdf9f13146100985780635939ccd7146100be57806360a918b7146100d35780636fc5a2d6146100fa575b600080fd5b6100ab6100a63660046103e4565b610183565b6040519081526020015b60405180910390f35b6100d16100cc3660046103fd565b610225565b005b6100ab7f000000000000000000000000000000000000000000000000000000000000000081565b6100ab6101083660046103e4565b610308565b6100ab60015481565b6100ab610362565b6100ab7f000000000000000000000000000000000000000000000000000000000000000081565b6100d16101533660046103fd565b610372565b60005461016b906001600160a01b031681565b6040516001600160a01b0390911681526020016100b5565b60007f00000000000000000000000000000000000000000000000000000000000000008210156101c6576040516323a71b8760e21b815260040160405180910390fd5b60006101f27f000000000000000000000000000000000000000000000000000000000000000084610426565b905061021e7f000000000000000000000000000000000000000000000000000000000000000082610447565b9392505050565b6000546001600160a01b03163314610250576040516320068f5960e01b815260040160405180910390fd5b6001546040805160208101929092526001600160a01b038316908201524360608201526000906080016040516020818303038152906040528051906020012060001c9050600061029e610362565b600081815260026020908152604091829020859055600154825186815291820152438183015290519192506001600160a01b0385169183917fea1b99131ca79df127faa5c4d9a55dd791329864188b9d825029de6153ec2328919081900360600190a35060015550565b6000818152600260205260408120548015801561032b5750610328610362565b83105b1561035c57506040805130602080830191909152818301859052825180830384018152606090920190925280519101205b92915050565b600061036d43610183565b905090565b6000546001600160a01b03161561039b5760405162dc149f60e41b815260040160405180910390fd5b6001600160a01b0381166103c25760405163f790fcc760e01b815260040160405180910390fd5b600080546001600160a01b0319166001600160a01b0392909216919091179055565b6000602082840312156103f657600080fd5b5035919050565b60006020828403121561040f57600080fd5b81356001600160a01b038116811461021e57600080fd5b8181038181111561035c57634e487b7160e01b600052601160045260246000fd5b60008261046457634e487b7160e01b600052601260045260246000fd5b50049056fea164736f6c6343000811000a","linkReferences":{}},"methodIdentifiers":{"currentRound()":"8a19c8bc","initialize(address)":"c4d66de8","modifierAddress()":"f0342335","originBlocks()":"b2ad3730","phaseBlocks()":"60a918b7","prevRandomSeed()":"7f1c4794","randomSeed(uint256)":"6fc5a2d6","roundByBlockNumber(uint256)":"3bdf9f13","updateRandomSeed(address)":"5939ccd7"},"id":73}