{"abi":[{"type":"function","name":"CHILD_TOKEN_WAITING_BLOCKS","inputs":[],"outputs":[{"name":"","type":"uint256","internalType":"uint256"}],"stateMutability":"view"},{"type":"function","name":"CLAIM_DELAY_BLOCKS","inputs":[],"outputs":[{"name":"","type":"uint256","internalType":"uint256"}],"stateMutability":"view"},{"type":"function","name":"FIRST_PARENT_TOKEN_FUNDRAISING_GOAL","inputs":[],"outputs":[{"name":"","type":"uint256","internalType":"uint256"}],"stateMutability":"view"},{"type":"function","name":"PARENT_TOKEN_FUNDRAISING_GOAL","inputs":[],"outputs":[{"name":"","type":"uint256","internalType":"uint256"}],"stateMutability":"view"},{"type":"function","name":"SECOND_HALF_MIN_BLOCKS","inputs":[],"outputs":[{"name":"","type":"uint256","internalType":"uint256"}],"stateMutability":"view"},{"type":"function","name":"TOKEN_SYMBOL_LENGTH","inputs":[],"outputs":[{"name":"","type":"uint256","internalType":"uint256"}],"stateMutability":"view"},{"type":"function","name":"WITHDRAW_WAITING_BLOCKS","inputs":[],"outputs":[{"name":"","type":"uint256","internalType":"uint256"}],"stateMutability":"view"},{"type":"function","name":"canLaunchToken","inputs":[{"name":"accountAddress","type":"address","internalType":"address"},{"name":"parentTokenAddress","type":"address","internalType":"address"}],"outputs":[{"name":"isEligible","type":"bool","internalType":"bool"}],"stateMutability":"view"},{"type":"function","name":"childTokenNum","inputs":[{"name":"parentTokenAddress","type":"address","internalType":"address"}],"outputs":[{"name":"","type":"uint256","internalType":"uint256"}],"stateMutability":"view"},{"type":"function","name":"childTokensByPage","inputs":[{"name":"parentTokenAddress","type":"address","internalType":"address"},{"name":"start","type":"uint256","internalType":"uint256"},{"name":"end","type":"uint256","internalType":"uint256"},{"name":"reverse","type":"bool","internalType":"bool"}],"outputs":[{"name":"","type":"address[]","internalType":"address[]"}],"stateMutability":"view"},{"type":"function","name":"childTokensByParent","inputs":[{"name":"","type":"address","internalType":"address"},{"name":"","type":"uint256","internalType":"uint256"}],"outputs":[{"name":"","type":"address","internalType":"address"}],"stateMutability":"view"},{"type":"function","name":"claim","inputs":[{"name":"tokenAddress","type":"address","internalType":"address"}],"outputs":[{"name":"receivedTokenAmount","type":"uint256","internalType":"uint256"},{"name":"extraRefund","type":"uint256","internalType":"uint256"}],"stateMutability":"nonpayable"},{"type":"function","name":"claimed","inputs":[{"name":"","type":"address","internalType":"address"},{"name":"","type":"address","internalType":"address"}],"outputs":[{"name":"","type":"bool","internalType":"bool"}],"stateMutability":"view"},{"type":"function","name":"contribute","inputs":[{"name":"tokenAddress","type":"address","internalType":"address"},{"name":"parentTokenAmount","type":"uint256","internalType":"uint256"},{"name":"to","type":"address","internalType":"address"}],"outputs":[],"stateMutability":"nonpayable"},{"type":"function","name":"contributed","inputs":[{"name":"","type":"address","internalType":"address"},{"name":"","type":"address","internalType":"address"}],"outputs":[{"name":"","type":"uint256","internalType":"uint256"}],"stateMutability":"view"},{"type":"function","name":"extraRefunded","inputs":[{"name":"","type":"address","internalType":"address"},{"name":"","type":"address","internalType":"address"}],"outputs":[{"name":"","type":"uint256","internalType":"uint256"}],"stateMutability":"view"},{"type":"function","name":"initialize","inputs":[{"name":"tokenFactoryAddress_","type":"address","internalType":"address"},{"name":"submitAddress_","type":"address","internalType":"address"},{"name":"mintAddress_","type":"address","internalType":"address"},{"name":"stakeAddress_","type":"address","internalType":"address"},{"name":"tokenSymbolLength","type":"uint256","internalType":"uint256"},{"name":"firstParentTokenFundraisingGoal","type":"uint256","internalType":"uint256"},{"name":"parentTokenFundraisingGoal","type":"uint256","internalType":"uint256"},{"name":"secondHalfMinBlocks","type":"uint256","internalType":"uint256"},{"name":"withdrawWaitingBlocks","type":"uint256","internalType":"uint256"},{"name":"childTokenWaitingBlocks","type":"uint256","internalType":"uint256"}],"outputs":[],"stateMutability":"nonpayable"},{"type":"function","name":"initialized","inputs":[],"outputs":[{"name":"","type":"bool","internalType":"bool"}],"stateMutability":"view"},{"type":"function","name":"lastContributedBlock","inputs":[{"name":"","type":"address","internalType":"address"},{"name":"","type":"address","internalType":"address"}],"outputs":[{"name":"","type":"uint256","internalType":"uint256"}],"stateMutability":"view"},{"type":"function","name":"launchInfo","inputs":[{"name":"tokenAddress","type":"address","internalType":"address"}],"outputs":[{"name":"info","type":"tuple","internalType":"struct ILOVE20Launch.LaunchInfo","components":[{"name":"parentTokenAddress","type":"address","internalType":"address"},{"name":"parentTokenFundraisingGoal","type":"uint256","internalType":"uint256"},{"name":"secondHalfMinBlocks","type":"uint256","internalType":"uint256"},{"name":"launchAmount","type":"uint256","internalType":"uint256"},{"name":"startBlock","type":"uint256","internalType":"uint256"},{"name":"secondHalfStartBlock","type":"uint256","internalType":"uint256"},{"name":"endBlock","type":"uint256","internalType":"uint256"},{"name":"hasEnded","type":"bool","internalType":"bool"},{"name":"participantCount","type":"uint256","internalType":"uint256"},{"name":"totalContributed","type":"uint256","internalType":"uint256"},{"name":"totalExtraRefunded","type":"uint256","internalType":"uint256"}]}],"stateMutability":"view"},{"type":"function","name":"launchInfos","inputs":[{"name":"addresses","type":"address[]","internalType":"address[]"}],"outputs":[{"name":"launchInfos_","type":"tuple[]","internalType":"struct ILOVE20Launch.LaunchInfo[]","components":[{"name":"parentTokenAddress","type":"address","internalType":"address"},{"name":"parentTokenFundraisingGoal","type":"uint256","internalType":"uint256"},{"name":"secondHalfMinBlocks","type":"uint256","internalType":"uint256"},{"name":"launchAmount","type":"uint256","internalType":"uint256"},{"name":"startBlock","type":"uint256","internalType":"uint256"},{"name":"secondHalfStartBlock","type":"uint256","internalType":"uint256"},{"name":"endBlock","type":"uint256","internalType":"uint256"},{"name":"hasEnded","type":"bool","internalType":"bool"},{"name":"participantCount","type":"uint256","internalType":"uint256"},{"name":"totalContributed","type":"uint256","internalType":"uint256"},{"name":"totalExtraRefunded","type":"uint256","internalType":"uint256"}]}],"stateMutability":"view"},{"type":"function","name":"launchToken","inputs":[{"name":"tokenSymbol","type":"string","internalType":"string"},{"name":"parentTokenAddress","type":"address","internalType":"address"}],"outputs":[{"name":"","type":"address","internalType":"address"}],"stateMutability":"nonpayable"},{"type":"function","name":"launchedChildTokenNum","inputs":[{"name":"parentTokenAddress","type":"address","internalType":"address"}],"outputs":[{"name":"","type":"uint256","internalType":"uint256"}],"stateMutability":"view"},{"type":"function","name":"launchedChildTokensByPage","inputs":[{"name":"parentTokenAddress","type":"address","internalType":"address"},{"name":"start","type":"uint256","internalType":"uint256"},{"name":"end","type":"uint256","internalType":"uint256"},{"name":"reverse","type":"bool","internalType":"bool"}],"outputs":[{"name":"","type":"address[]","internalType":"address[]"}],"stateMutability":"view"},{"type":"function","name":"launchedTokenNum","inputs":[],"outputs":[{"name":"","type":"uint256","internalType":"uint256"}],"stateMutability":"view"},{"type":"function","name":"launchedTokensByPage","inputs":[{"name":"start","type":"uint256","internalType":"uint256"},{"name":"end","type":"uint256","internalType":"uint256"},{"name":"reverse","type":"bool","internalType":"bool"}],"outputs":[{"name":"","type":"address[]","internalType":"address[]"}],"stateMutability":"view"},{"type":"function","name":"launchingChildTokenNum","inputs":[{"name":"parentTokenAddress","type":"address","internalType":"address"}],"outputs":[{"name":"","type":"uint256","internalType":"uint256"}],"stateMutability":"view"},{"type":"function","name":"launchingChildTokensByPage","inputs":[{"name":"parentTokenAddress","type":"address","internalType":"address"},{"name":"start","type":"uint256","internalType":"uint256"},{"name":"end","type":"uint256","internalType":"uint256"},{"name":"reverse","type":"bool","internalType":"bool"}],"outputs":[{"name":"","type":"address[]","internalType":"address[]"}],"stateMutability":"view"},{"type":"function","name":"launchingTokenNum","inputs":[],"outputs":[{"name":"","type":"uint256","internalType":"uint256"}],"stateMutability":"view"},{"type":"function","name":"launchingTokens","inputs":[{"name":"index","type":"uint256","internalType":"uint256"}],"outputs":[{"name":"","type":"address","internalType":"address"}],"stateMutability":"view"},{"type":"function","name":"launchingTokensByPage","inputs":[{"name":"start","type":"uint256","internalType":"uint256"},{"name":"end","type":"uint256","internalType":"uint256"},{"name":"reverse","type":"bool","internalType":"bool"}],"outputs":[{"name":"","type":"address[]","internalType":"address[]"}],"stateMutability":"view"},{"type":"function","name":"mintAddress","inputs":[],"outputs":[{"name":"","type":"address","internalType":"address"}],"stateMutability":"view"},{"type":"function","name":"participatedTokenNum","inputs":[{"name":"account","type":"address","internalType":"address"}],"outputs":[{"name":"","type":"uint256","internalType":"uint256"}],"stateMutability":"view"},{"type":"function","name":"participatedTokensByPage","inputs":[{"name":"account","type":"address","internalType":"address"},{"name":"start","type":"uint256","internalType":"uint256"},{"name":"end","type":"uint256","internalType":"uint256"},{"name":"reverse","type":"bool","internalType":"bool"}],"outputs":[{"name":"","type":"address[]","internalType":"address[]"}],"stateMutability":"view"},{"type":"function","name":"stakeAddress","inputs":[],"outputs":[{"name":"","type":"address","internalType":"address"}],"stateMutability":"view"},{"type":"function","name":"submitAddress","inputs":[],"outputs":[{"name":"","type":"address","internalType":"address"}],"stateMutability":"view"},{"type":"function","name":"tokenAddressBySymbol","inputs":[{"name":"","type":"string","internalType":"string"}],"outputs":[{"name":"","type":"address","internalType":"address"}],"stateMutability":"view"},{"type":"function","name":"tokenAddresses","inputs":[{"name":"","type":"uint256","internalType":"uint256"}],"outputs":[{"name":"","type":"address","internalType":"address"}],"stateMutability":"view"},{"type":"function","name":"tokenFactoryAddress","inputs":[],"outputs":[{"name":"","type":"address","internalType":"address"}],"stateMutability":"view"},{"type":"function","name":"tokenNum","inputs":[],"outputs":[{"name":"","type":"uint256","internalType":"uint256"}],"stateMutability":"view"},{"type":"function","name":"tokensByPage","inputs":[{"name":"start","type":"uint256","internalType":"uint256"},{"name":"end","type":"uint256","internalType":"uint256"},{"name":"reverse","type":"bool","internalType":"bool"}],"outputs":[{"name":"","type":"address[]","internalType":"address[]"}],"stateMutability":"view"},{"type":"function","name":"withdraw","inputs":[{"name":"tokenAddress","type":"address","internalType":"address"}],"outputs":[],"stateMutability":"nonpayable"},{"type":"event","name":"Claim","inputs":[{"name":"tokenAddress","type":"address","indexed":true,"internalType":"address"},{"name":"claimer","type":"address","indexed":true,"internalType":"address"},{"name":"receivedTokenAmount","type":"uint256","indexed":false,"internalType":"uint256"},{"name":"extraRefund","type":"uint256","indexed":false,"internalType":"uint256"}],"anonymous":false},{"type":"event","name":"Contribute","inputs":[{"name":"tokenAddress","type":"address","indexed":true,"internalType":"address"},{"name":"contributor","type":"address","indexed":true,"internalType":"address"},{"name":"amount","type":"uint256","indexed":false,"internalType":"uint256"},{"name":"totalContributed","type":"uint256","indexed":false,"internalType":"uint256"},{"name":"participantCount","type":"uint256","indexed":false,"internalType":"uint256"}],"anonymous":false},{"type":"event","name":"LaunchEnd","inputs":[{"name":"tokenAddress","type":"address","indexed":true,"internalType":"address"},{"name":"totalContributed","type":"uint256","indexed":false,"internalType":"uint256"},{"name":"participantCount","type":"uint256","indexed":false,"internalType":"uint256"},{"name":"endBlock","type":"uint256","indexed":false,"internalType":"uint256"}],"anonymous":false},{"type":"event","name":"LaunchToken","inputs":[{"name":"tokenAddress","type":"address","indexed":true,"internalType":"address"},{"name":"tokenSymbol","type":"string","indexed":false,"internalType":"string"},{"name":"parentTokenAddress","type":"address","indexed":true,"internalType":"address"},{"name":"deployer","type":"address","indexed":true,"internalType":"address"}],"anonymous":false},{"type":"event","name":"SecondHalfStart","inputs":[{"name":"tokenAddress","type":"address","indexed":true,"internalType":"address"},{"name":"secondHalfStartBlock","type":"uint256","indexed":false,"internalType":"uint256"},{"name":"totalContributed","type":"uint256","indexed":false,"internalType":"uint256"}],"anonymous":false},{"type":"event","name":"Withdraw","inputs":[{"name":"tokenAddress","type":"address","indexed":true,"internalType":"address"},{"name":"contributor","type":"address","indexed":true,"internalType":"address"},{"name":"amount","type":"uint256","indexed":false,"internalType":"uint256"}],"anonymous":false},{"type":"error","name":"AlreadyInitialized","inputs":[]},{"type":"error","name":"ClaimDelayNotPassed","inputs":[]},{"type":"error","name":"InvalidParentToken","inputs":[]},{"type":"error","name":"InvalidTokenSymbol","inputs":[]},{"type":"error","name":"LaunchAlreadyEnded","inputs":[]},{"type":"error","name":"LaunchAlreadyExists","inputs":[]},{"type":"error","name":"LaunchNotEnded","inputs":[]},{"type":"error","name":"NoContribution","inputs":[]},{"type":"error","name":"NotEligibleToLaunchToken","inputs":[]},{"type":"error","name":"NotEnoughChildTokenWaitingBlocks","inputs":[]},{"type":"error","name":"NotEnoughWaitingBlocks","inputs":[]},{"type":"error","name":"ParentTokenNotSet","inputs":[]},{"type":"error","name":"TokenSymbolExists","inputs":[]},{"type":"error","name":"TokensAlreadyClaimed","inputs":[]},{"type":"error","name":"ZeroContribution","inputs":[]}],"bytecode":{"object":"0x608060405234801561001057600080fd5b506129e4806100206000396000f3fe608060405234801561001057600080fd5b506004361061025e5760003560e01c806375e7da2911610146578063bfa87e46116100c3578063e5df8b8411610087578063e5df8b84146105ce578063e91f0ed6146105e1578063edc8c1d0146105f4578063f51837fa146105fc578063f6890eb91461060f578063ffd53ab61461062257600080fd5b8063bfa87e4614610563578063c4b8eaf61461056b578063d80989ed1461057e578063dd38ea93146105b2578063e388878f146105bb57600080fd5b8063a2ce2de71161010a578063a2ce2de714610509578063a5e5c6bc14610512578063a686b29c14610525578063ac5cb6b614610538578063be19f0a71461054b57600080fd5b806375e7da29146104a75780638025bf9a146104ba57806385107367146104da57806391c394b9146104ed5780639fa9fc4f146104f657600080fd5b80633f6343b5116101df5780634a9923ac116101a35780634a9923ac146104305780634cbc155314610438578063508d8b1c1461044d57806351cff8d9146104605780635337eaab146104735780636d56623b1461047c57600080fd5b80633f6343b5146103ae5780633f6b48b7146103b657806341550845146103c9578063424218bc146103f2578063425d49801461041d57600080fd5b806320fe512e1161022657806320fe512e1461033457806323dcdc3e1461035f5780632e58c3001461037257806330364e01146103925780633e88dbe51461039b57600080fd5b80630c9cbf0e146102635780630d3d7308146102a6578063108ec44e146102c6578063158ef93e146102ff5780631e83409a1461030c575b600080fd5b6102916102713660046121b1565b601160209081526000928352604080842090915290825290205460ff1681565b60405190151581526020015b60405180910390f35b6102b96102b43660046121f8565b61062b565b60405161029d9190612231565b6102f16102d43660046121b1565b600e60209081526000928352604080842090915290825290205481565b60405190815260200161029d565b6000546102919060ff1681565b61031f61031a36600461227e565b610642565b6040805192835260208301919091520161029d565b6103476103423660046122a2565b610929565b6040516001600160a01b03909116815260200161029d565b6102b961036d36600461231a565b610a62565b6103856103803660046123ab565b610a92565b60405161029d91906124d0565b6102f160055481565b6102916103a93660046121b1565b610bf4565b6102f1610c74565b6102f16103c436600461227e565b610c85565b6102f16103d736600461227e565b6001600160a01b03166000908152600c602052604090205490565b6102f16104003660046121b1565b600f60209081526000928352604080842090915290825290205481565b600354610347906001600160a01b031681565b6102f1600181565b61044b610446366004612513565b610ca6565b005b6102f161045b36600461227e565b610f86565b61044b61046e36600461227e565b610fa7565b6102f160045481565b6102f161048a3660046121b1565b601060209081526000928352604080842090915290825290205481565b6102b96104b536600461231a565b6111ba565b6104cd6104c836600461227e565b6111e1565b60405161029d919061254a565b600154610347906001600160a01b031681565b6102f160085481565b6102b961050436600461231a565b611289565b6102f160095481565b6102b96105203660046121f8565b6112b0565b610347610533366004612559565b6112bf565b610347610546366004612572565b6112cc565b6000546103479061010090046001600160a01b031681565b600a546102f1565b6102b961057936600461231a565b611304565b61034761058c3660046125c6565b8051602081830181018051600b825292820191909301209152546001600160a01b031681565b6102f160075481565b600254610347906001600160a01b031681565b6103476105dc366004612559565b61132b565b61044b6105ef366004612646565b611355565b6102f16113f2565b6102f161060a36600461227e565b6113fe565b6102b961061d3660046121f8565b61141f565b6102f160065481565b606061063a601685858561142a565b949350505050565b6001600160a01b0381166000908152600d60205260408120600781015482919060ff1661068257604051630d2b497360e21b815260040160405180910390fd5b6001816006015461069391906126ef565b4310156106b3576040516358ae518b60e11b815260040160405180910390fd5b6001600160a01b0384166000908152600e60209081526040808320338452909152812054908190036106f857604051631971fbf360e21b815260040160405180910390fd5b6001600160a01b038516600090815260116020908152604080832033845290915290205460ff161561073d5760405163a4f8192960e01b815260040160405180910390fd5b6009820154600183015482906107539083612702565b61075d9190612715565b610767919061272c565b9250816009015481836003015461077e9190612715565b610788919061272c565b6001600160a01b03861660009081526011602090815260408083203384529091528120805460ff19166001179055600a8401805492965085929091906107cf9084906126ef565b90915550506001600160a01b038581166000908152601060209081526040808320338085529252918290208690558454915163a9059cbb60e01b815260048101919091526024810186905291169063a9059cbb906044016020604051808303816000875af1158015610845573d6000803e3d6000fd5b505050506040513d601f19601f82011682018060405250810190610869919061274e565b5060405163a9059cbb60e01b8152336004820152602481018590526001600160a01b0386169063a9059cbb906044016020604051808303816000875af11580156108b7573d6000803e3d6000fd5b505050506040513d601f19601f820116820180604052508101906108db919061274e565b50604080518581526020810185905233916001600160a01b038816917f865ca08d59f5cb456e85cd2f7ef63664ea4f73327414e9d8152c4158b0e94645910160405180910390a35050915091565b600080610935600a5490565b1115610a21576001600160a01b038281166000908152600d602052604090205416610973576040516319c3fe5160e21b815260040160405180910390fd5b6009546001600160a01b0383166000908152600d602052604090206004015461099c9043612702565b10156109bb5760405163f1266c5960e01b815260040160405180910390fd5b6109c53383610bf4565b6109e257604051630e169fb760e41b815260040160405180910390fd5b610a2184848080601f01602080910402602001604051908101604052809392919081815260200183838082843760009201919091525061160692505050565b61063a84848080601f0160208091040260200160405190810160405280939291908181526020018383808284376000920191909152508692506117da915050565b6001600160a01b0384166000908152601560205260409020606090610a899085858561142a565b95945050505050565b80516060908067ffffffffffffffff811115610ab057610ab0612364565b604051908082528060200260200182016040528015610ae957816020015b610ad6612134565b815260200190600190039081610ace5790505b50915060005b81811015610bed576000600d6000868481518110610b0f57610b0f61276b565b6020908102919091018101516001600160a01b039081168352828201939093526040918201600020825161016081018452815490941684526001810154918401919091526002810154918301919091526003810154606083015260048101546080830152600581015460a0830152600681015460c0830152600781015460ff16151560e083015260088101546101008301526009810154610120830152600a8101546101408301528551909250859084908110610bce57610bce61276b565b6020026020010181905250508080610be590612781565b915050610aef565b5050919050565b600254604051630273479760e41b81526001600160a01b03838116600483015284811660248301526000921690632734797090604401602060405180830381865afa158015610c47573d6000803e3d6000fd5b505050506040513d601f19601f82011682018060405250810190610c6b919061274e565b90505b92915050565b6000610c806016611a3c565b905090565b6001600160a01b0381166000908152601860205260408120610c6e90611a3c565b81600003610cc757604051631570544960e31b815260040160405180910390fd5b6001600160a01b0383166000908152600d60205260409020600781015460ff1615610d0557604051636a25ec6f60e01b815260040160405180910390fd5b80546040516323b872dd60e01b8152336004820152306024820152604481018590526001600160a01b03909116906323b872dd906064016020604051808303816000875af1158015610d5b573d6000803e3d6000fd5b505050506040513d601f19601f82011682018060405250810190610d7f919061274e565b506001600160a01b038085166000908152600e602090815260408083209386168352929052908120549003610dec576001816008016000828254610dc391906126ef565b90915550506001600160a01b0382166000908152601260205260409020610dea9085611a46565b505b82816009016000828254610e0091906126ef565b90915550506001600160a01b038085166000908152600e6020908152604080832093861683529290529081208054859290610e3c9084906126ef565b90915550506001600160a01b038481166000818152600f6020908152604080832094871680845294825291829020439055600985015460088601548351898152928301919091528183015290517e3a002894ca2620295e71671a091bbc1a3c6a3c14c80812024a552f26aca8099181900360600190a36005810154158015610ed8575060028160010154610ed0919061272c565b816009015410155b15610f3957436005820181905560098201546040516001600160a01b038716927f87c631bf98ca55bf60b33a8463f37bd1b9039f3ccbdf980910057eac2ff07fb992610f2c92918252602082015260400190565b60405180910390a2610f80565b600581015415801590610f5e575060028101546005820154610f5b9043612702565b10155b8015610f7257508060010154816009015410155b15610f8057610f8084611a5b565b50505050565b6001600160a01b0381166000908152601560205260408120610c6e90611a3c565b6001600160a01b0381166000908152600d60205260409020600781015460ff1615610fe557604051636a25ec6f60e01b815260040160405180910390fd5b6001600160a01b0382166000908152600e602090815260408083203384529091528120549081900361102a57604051631971fbf360e21b815260040160405180910390fd5b6008546001600160a01b0384166000908152600f6020908152604080832033845290915290205461105b9043612702565b101561107a57604051637aad2fc160e11b815260040160405180910390fd5b600182600801600082825461108f9190612702565b90915550503360009081526012602052604090206110ad9084611bbe565b50808260090160008282546110c29190612702565b90915550506001600160a01b038381166000818152600e6020908152604080832033808552908352818420849055938352600f8252808320848452909152808220919091558454905163a9059cbb60e01b81526004810192909252602482018490529091169063a9059cbb906044016020604051808303816000875af1158015611150573d6000803e3d6000fd5b505050506040513d601f19601f82011682018060405250810190611174919061274e565b5060405181815233906001600160a01b038516907f9b1bfa7fa9ee420a16e124f794c35ac9f90472acc99140eb2f6447c714cad8eb9060200160405180910390a3505050565b6001600160a01b0384166000908152601860205260409020606090610a899085858561142a565b6111e9612134565b506001600160a01b039081166000908152600d6020908152604091829020825161016081018452815490941684526001810154918401919091526002810154918301919091526003810154606083015260048101546080830152600581015460a0830152600681015460c0830152600781015460ff16151560e083015260088101546101008301526009810154610120830152600a015461014082015290565b6001600160a01b0384166000908152601260205260409020606090610a899085858561142a565b606061063a600a858585611bd3565b6000610c6e601383611db9565b600c60205281600052604060002081815481106112e857600080fd5b6000918252602090912001546001600160a01b03169150829050565b6001600160a01b0384166000908152600c60205260409020606090610a8990858585611bd3565b600a818154811061133b57600080fd5b6000918252602090912001546001600160a01b0316905081565b60005460ff16156113785760405162dc149f60e41b815260040160405180910390fd5b600080546001600160a01b039b8c16610100026001600160a81b0319909116176001908117909155600280549a8c166001600160a01b03199b8c1617905560038054998c16998b16999099179098558754969099169590971694909417909455600491909155600555600691909155600755600855600955565b6000610c806013611a3c565b6001600160a01b0381166000908152601260205260408120610c6e90611a3c565b606061063a60138585855b6060600061143786611a3c565b90508015806114465750808510155b156114805760005b604051908082528060200260200182016040528015611477578160200160208202803683370190505b5091505061063a565b848410156114a95760405162461bcd60e51b81526004016114a09061279a565b60405180910390fd5b60008185106114c2576114bd600183612702565b6114c4565b845b905060006114d28783612702565b6114dd9060016126ef565b905060008167ffffffffffffffff8111156114fa576114fa612364565b604051908082528060200260200182016040528015611523578160200160208202803683370190505b50905085156115a45760005b8281101561159e57611562818a611547600189612702565b6115519190612702565b61155b9190612702565b8b90611db9565b8282815181106115745761157461276b565b6001600160a01b03909216602092830291909101909101528061159681612781565b91505061152f565b506115fa565b60005b828110156115f8576115bc61155b828b6126ef565b8282815181106115ce576115ce61276b565b6001600160a01b0390921660209283029190910190910152806115f081612781565b9150506115a7565b505b98975050505050505050565b6004548151604160f81b91602d60f91b91600360fc1b91603960f81b91146116415760405163220839c960e01b815260040160405180910390fd5b836001600160f81b0319168560008151811061165f5761165f61276b565b01602001516001600160f81b031916108015906116a75750826001600160f81b031916856000815181106116955761169561276b565b01602001516001600160f81b03191611155b6116c45760405163220839c960e01b815260040160405180910390fd5b60015b85518110156117d257846001600160f81b0319168682815181106116ed576116ed61276b565b01602001516001600160f81b031916108015906117345750836001600160f81b0319168682815181106117225761172261276b565b01602001516001600160f81b03191611155b1580156117a25750826001600160f81b0319168682815181106117595761175961276b565b01602001516001600160f81b031916108015906117a05750816001600160f81b03191686828151811061178e5761178e61276b565b01602001516001600160f81b03191611155b155b156117c05760405163220839c960e01b815260040160405180910390fd5b806117ca81612781565b9150506116c7565b505050505050565b6000806001600160a01b0316600b846040516117f69190612814565b908152604051908190036020019020546001600160a01b03161461182d5760405163d567cb6d60e01b815260040160405180910390fd5b6000826001600160a01b03166395d89b416040518163ffffffff1660e01b8152600401600060405180830381865afa15801561186d573d6000803e3d6000fd5b505050506040513d6000823e601f3d908101601f191682016040526118959190810190612830565b9050600084826040516020016118ac92919061289e565b60408051808303601f19018152908290526000805463c757dd1f60e01b8452919350916101009091046001600160a01b03169063c757dd1f906118f990889086908b903090600401612906565b6020604051808303816000875af1158015611918573d6000803e3d6000fd5b505050506040513d601f19601f8201168201806040525081019061193c919061294f565b600a80546001810182556000919091527fc65a7bb8d6351c1cf70c95a316cc6a92839c986682d98bc35f958f4883f9d2a80180546001600160a01b0319166001600160a01b0383161790556040519091508190600b9061199d908990612814565b90815260408051918290036020908101832080546001600160a01b039586166001600160a01b0319918216179091558985166000818152600c845293842080546001810182559085529290932090910180549486169490911684179055339290917f4923528950c404c138bdd8625228bbd379f3963a9a6f54f41fea23680470b6b890611a2b908b9061296c565b60405180910390a4610a8981611dc5565b6000610c6e825490565b6000610c6b836001600160a01b038416611fc8565b6001600160a01b0381166000908152600d6020526040902060078101805460ff19166001179055436006820155611a93601383611bbe565b5080546001600160a01b03166000908152601560205260409020611ab79083611bbe565b50611ac3601683611a46565b5080546001600160a01b03166000908152601860205260409020611ae79083611a46565b508054600182015460405163a9059cbb60e01b81526001600160a01b038581166004830152602482019290925291169063a9059cbb906044016020604051808303816000875af1158015611b3f573d6000803e3d6000fd5b505050506040513d601f19601f82011682018060405250810190611b63919061274e565b506009810154600882015460408051928352602083019190915243908201526001600160a01b038316907f7d51a6b28c644edd635f534b373ac3e437432b8fb158e0581ef829b9d164eb4e9060600160405180910390a25050565b6000610c6b836001600160a01b038416612017565b8354606090801580611be55750808510155b15611bf157600061144e565b84841015611c115760405162461bcd60e51b81526004016114a09061279a565b6000818510611c2a57611c25600183612702565b611c2c565b845b90506000611c3a8783612702565b611c459060016126ef565b905060008167ffffffffffffffff811115611c6257611c62612364565b604051908082528060200260200182016040528015611c8b578160200160208202803683370190505b5090508515611d39578854600090611ca590600190612702565b905060005b83811015611d32578a81611cbe8c85612702565b611cc89190612702565b81548110611cd857611cd861276b565b9060005260206000200160009054906101000a90046001600160a01b0316838281518110611d0857611d0861276b565b6001600160a01b039092166020928302919091019091015280611d2a81612781565b915050611caa565b50506115fa565b60005b828110156115f85789611d4f828b6126ef565b81548110611d5f57611d5f61276b565b9060005260206000200160009054906101000a90046001600160a01b0316828281518110611d8f57611d8f61276b565b6001600160a01b039092166020928302919091019091015280611db181612781565b915050611d3c565b6000610c6b838361210a565b6001600160a01b038181166000908152600d60205260409020541615611dfe5760405163784bb15b60e11b815260040160405180910390fd5b6000816001600160a01b03166347502b536040518163ffffffff1660e01b8152600401602060405180830381865afa158015611e3e573d6000803e3d6000fd5b505050506040513d601f19601f82011682018060405250810190611e62919061294f565b90506001600160a01b038116611e8b57604051632fba9b5b60e21b815260040160405180910390fd5b6001600160a01b038281166000908152600d6020526040812080546001600160a01b031916928416929092178255600a8054909190611ecc57611ecc61276b565b6000918252602090912001546001600160a01b0390811690841603611ef8576005546001820155611f01565b60065460018201555b6007548160020181905550600060019054906101000a90046001600160a01b03166001600160a01b031663e29d26fb6040518163ffffffff1660e01b8152600401602060405180830381865afa158015611f5f573d6000803e3d6000fd5b505050506040513d601f19601f82011682018060405250810190611f83919061297f565b600382015543600482015560078101805460ff19169055611fa5601384611a46565b506001600160a01b0382166000908152601560205260409020610f809084611a46565b600081815260018301602052604081205461200f57508154600181810184556000848152602080822090930184905584548482528286019093526040902091909155610c6e565b506000610c6e565b6000818152600183016020526040812054801561210057600061203b600183612702565b855490915060009061204f90600190612702565b90508181146120b457600086600001828154811061206f5761206f61276b565b90600052602060002001549050808760000184815481106120925761209261276b565b6000918252602080832090910192909255918252600188019052604090208390555b85548690806120c5576120c5612998565b600190038181906000526020600020016000905590558560010160008681526020019081526020016000206000905560019350505050610c6e565b6000915050610c6e565b60008260000182815481106121215761212161276b565b9060005260206000200154905092915050565b60405180610160016040528060006001600160a01b031681526020016000815260200160008152602001600081526020016000815260200160008152602001600081526020016000151581526020016000815260200160008152602001600081525090565b6001600160a01b03811681146121ae57600080fd5b50565b600080604083850312156121c457600080fd5b82356121cf81612199565b915060208301356121df81612199565b809150509250929050565b80151581146121ae57600080fd5b60008060006060848603121561220d57600080fd5b83359250602084013591506040840135612226816121ea565b809150509250925092565b6020808252825182820181905260009190848201906040850190845b818110156122725783516001600160a01b03168352928401929184019160010161224d565b50909695505050505050565b60006020828403121561229057600080fd5b813561229b81612199565b9392505050565b6000806000604084860312156122b757600080fd5b833567ffffffffffffffff808211156122cf57600080fd5b818601915086601f8301126122e357600080fd5b8135818111156122f257600080fd5b87602082850101111561230457600080fd5b6020928301955093505084013561222681612199565b6000806000806080858703121561233057600080fd5b843561233b81612199565b935060208501359250604085013591506060850135612359816121ea565b939692955090935050565b634e487b7160e01b600052604160045260246000fd5b604051601f8201601f1916810167ffffffffffffffff811182821017156123a3576123a3612364565b604052919050565b600060208083850312156123be57600080fd5b823567ffffffffffffffff808211156123d657600080fd5b818501915085601f8301126123ea57600080fd5b8135818111156123fc576123fc612364565b8060051b915061240d84830161237a565b818152918301840191848101908884111561242757600080fd5b938501935b838510156115fa578435925061244183612199565b828252938501939085019061242c565b80516001600160a01b031682526020810151602083015260408101516040830152606081015160608301526080810151608083015260a081015160a083015260c081015160c083015260e08101516124ad60e084018215159052565b506101008181015190830152610120808201519083015261014090810151910152565b6020808252825182820181905260009190848201906040850190845b81811015612272576124ff838551612451565b9284019261016092909201916001016124ec565b60008060006060848603121561252857600080fd5b833561253381612199565b925060208401359150604084013561222681612199565b6101608101610c6e8284612451565b60006020828403121561256b57600080fd5b5035919050565b6000806040838503121561258557600080fd5b823561259081612199565b946020939093013593505050565b600067ffffffffffffffff8211156125b8576125b8612364565b50601f01601f191660200190565b6000602082840312156125d857600080fd5b813567ffffffffffffffff8111156125ef57600080fd5b8201601f8101841361260057600080fd5b803561261361260e8261259e565b61237a565b81815285602083850101111561262857600080fd5b81602084016020830137600091810160200191909152949350505050565b6000806000806000806000806000806101408b8d03121561266657600080fd5b8a3561267181612199565b995060208b013561268181612199565b985060408b013561269181612199565b975060608b01356126a181612199565b999c989b50969960808101359860a0820135985060c0820135975060e082013596506101008201359550610120909101359350915050565b634e487b7160e01b600052601160045260246000fd5b80820180821115610c6e57610c6e6126d9565b81810381811115610c6e57610c6e6126d9565b8082028115828204841417610c6e57610c6e6126d9565b60008261274957634e487b7160e01b600052601260045260246000fd5b500490565b60006020828403121561276057600080fd5b815161229b816121ea565b634e487b7160e01b600052603260045260246000fd5b600060018201612793576127936126d9565b5060010190565b60208082526036908201527f456e6420696e646578206d7573742062652067726561746572207468616e206f6040820152750e440cae2eac2d840e8de40e6e8c2e4e840d2dcc8caf60531b606082015260800190565b60005b8381101561280b5781810151838201526020016127f3565b50506000910152565b600082516128268184602087016127f0565b9190910192915050565b60006020828403121561284257600080fd5b815167ffffffffffffffff81111561285957600080fd5b8201601f8101841361286a57600080fd5b805161287861260e8261259e565b81815285602083850101111561288d57600080fd5b610a898260208301602086016127f0565b600083516128b08184602088016127f0565b600160fe1b90830190815283516128ce8160018401602088016127f0565b01600101949350505050565b600081518084526128f28160208601602086016127f0565b601f01601f19169290920160200192915050565b600060018060a01b0380871683526080602084015261292860808401876128da565b838103604085015261293a81876128da565b92505080841660608401525095945050505050565b60006020828403121561296157600080fd5b815161229b81612199565b602081526000610c6b60208301846128da565b60006020828403121561299157600080fd5b5051919050565b634e487b7160e01b600052603160045260246000fdfea26469706673582212205185b2cf6ed7c007357974fc608d856f212c0a9d747da53fea7846c25898127e64736f6c63430008130033","linkReferences":{}},"methodIdentifiers":{"CHILD_TOKEN_WAITING_BLOCKS()":"a2ce2de7","CLAIM_DELAY_BLOCKS()":"4a9923ac","FIRST_PARENT_TOKEN_FUNDRAISING_GOAL()":"30364e01","PARENT_TOKEN_FUNDRAISING_GOAL()":"ffd53ab6","SECOND_HALF_MIN_BLOCKS()":"dd38ea93","TOKEN_SYMBOL_LENGTH()":"5337eaab","WITHDRAW_WAITING_BLOCKS()":"91c394b9","canLaunchToken(address,address)":"3e88dbe5","childTokenNum(address)":"41550845","childTokensByPage(address,uint256,uint256,bool)":"c4b8eaf6","childTokensByParent(address,uint256)":"ac5cb6b6","claim(address)":"1e83409a","claimed(address,address)":"0c9cbf0e","contribute(address,uint256,address)":"4cbc1553","contributed(address,address)":"108ec44e","extraRefunded(address,address)":"6d56623b","initialize(address,address,address,address,uint256,uint256,uint256,uint256,uint256,uint256)":"e91f0ed6","initialized()":"158ef93e","lastContributedBlock(address,address)":"424218bc","launchInfo(address)":"8025bf9a","launchInfos(address[])":"2e58c300","launchToken(string,address)":"20fe512e","launchedChildTokenNum(address)":"3f6b48b7","launchedChildTokensByPage(address,uint256,uint256,bool)":"75e7da29","launchedTokenNum()":"3f6343b5","launchedTokensByPage(uint256,uint256,bool)":"0d3d7308","launchingChildTokenNum(address)":"508d8b1c","launchingChildTokensByPage(address,uint256,uint256,bool)":"23dcdc3e","launchingTokenNum()":"edc8c1d0","launchingTokens(uint256)":"a686b29c","launchingTokensByPage(uint256,uint256,bool)":"f6890eb9","mintAddress()":"425d4980","participatedTokenNum(address)":"f51837fa","participatedTokensByPage(address,uint256,uint256,bool)":"9fa9fc4f","stakeAddress()":"85107367","submitAddress()":"e388878f","tokenAddressBySymbol(string)":"d80989ed","tokenAddresses(uint256)":"e5df8b84","tokenFactoryAddress()":"be19f0a7","tokenNum()":"bfa87e46","tokensByPage(uint256,uint256,bool)":"a5e5c6bc","withdraw(address)":"51cff8d9"},"id":38}