{"abi":[{"type":"function","name":"CHILD_TOKEN_WAITING_BLOCKS","inputs":[],"outputs":[{"name":"","type":"uint256","internalType":"uint256"}],"stateMutability":"view"},{"type":"function","name":"FIRST_PARENT_TOKEN_FUNDRAISING_GOAL","inputs":[],"outputs":[{"name":"","type":"uint256","internalType":"uint256"}],"stateMutability":"view"},{"type":"function","name":"PARENT_TOKEN_FUNDRAISING_GOAL","inputs":[],"outputs":[{"name":"","type":"uint256","internalType":"uint256"}],"stateMutability":"view"},{"type":"function","name":"SECOND_HALF_MIN_BLOCKS","inputs":[],"outputs":[{"name":"","type":"uint256","internalType":"uint256"}],"stateMutability":"view"},{"type":"function","name":"TOKEN_SYMBOL_LENGTH","inputs":[],"outputs":[{"name":"","type":"uint256","internalType":"uint256"}],"stateMutability":"view"},{"type":"function","name":"WITHDRAW_WAITING_BLOCKS","inputs":[],"outputs":[{"name":"","type":"uint256","internalType":"uint256"}],"stateMutability":"view"},{"type":"function","name":"canDeployToken","inputs":[{"name":"accountAddress","type":"address","internalType":"address"},{"name":"parentTokenAddress","type":"address","internalType":"address"}],"outputs":[{"name":"isEligible","type":"bool","internalType":"bool"}],"stateMutability":"view"},{"type":"function","name":"childTokenNum","inputs":[{"name":"parentTokenAddress","type":"address","internalType":"address"}],"outputs":[{"name":"","type":"uint256","internalType":"uint256"}],"stateMutability":"view"},{"type":"function","name":"childTokensByPage","inputs":[{"name":"parentTokenAddress","type":"address","internalType":"address"},{"name":"start","type":"uint256","internalType":"uint256"},{"name":"end","type":"uint256","internalType":"uint256"},{"name":"reverse","type":"bool","internalType":"bool"}],"outputs":[{"name":"","type":"address[]","internalType":"address[]"}],"stateMutability":"view"},{"type":"function","name":"childTokensByParent","inputs":[{"name":"","type":"address","internalType":"address"},{"name":"","type":"uint256","internalType":"uint256"}],"outputs":[{"name":"","type":"address","internalType":"address"}],"stateMutability":"view"},{"type":"function","name":"claim","inputs":[{"name":"tokenAddress","type":"address","internalType":"address"}],"outputs":[{"name":"receivedTokenAmount","type":"uint256","internalType":"uint256"},{"name":"extraRefund","type":"uint256","internalType":"uint256"}],"stateMutability":"nonpayable"},{"type":"function","name":"claimed","inputs":[{"name":"","type":"address","internalType":"address"},{"name":"","type":"address","internalType":"address"}],"outputs":[{"name":"","type":"bool","internalType":"bool"}],"stateMutability":"view"},{"type":"function","name":"contribute","inputs":[{"name":"tokenAddress","type":"address","internalType":"address"},{"name":"parentTokenAmount","type":"uint256","internalType":"uint256"},{"name":"to","type":"address","internalType":"address"}],"outputs":[],"stateMutability":"nonpayable"},{"type":"function","name":"contributed","inputs":[{"name":"","type":"address","internalType":"address"},{"name":"","type":"address","internalType":"address"}],"outputs":[{"name":"","type":"uint256","internalType":"uint256"}],"stateMutability":"view"},{"type":"function","name":"deployToken","inputs":[{"name":"tokenSymbol","type":"string","internalType":"string"},{"name":"parentTokenAddress","type":"address","internalType":"address"}],"outputs":[{"name":"","type":"address","internalType":"address"}],"stateMutability":"nonpayable"},{"type":"function","name":"extraRefunded","inputs":[{"name":"","type":"address","internalType":"address"},{"name":"","type":"address","internalType":"address"}],"outputs":[{"name":"","type":"uint256","internalType":"uint256"}],"stateMutability":"view"},{"type":"function","name":"initialize","inputs":[{"name":"tokenFactoryAddress_","type":"address","internalType":"address"},{"name":"submitAddress_","type":"address","internalType":"address"},{"name":"mintAddress_","type":"address","internalType":"address"},{"name":"stakeAddress_","type":"address","internalType":"address"},{"name":"tokenSymbolLength","type":"uint256","internalType":"uint256"},{"name":"firstParentTokenFundraisingGoal","type":"uint256","internalType":"uint256"},{"name":"parentTokenFundraisingGoal","type":"uint256","internalType":"uint256"},{"name":"secondHalfMinBlocks","type":"uint256","internalType":"uint256"},{"name":"withdrawWaitingBlocks","type":"uint256","internalType":"uint256"},{"name":"childTokenWaitingBlocks","type":"uint256","internalType":"uint256"}],"outputs":[],"stateMutability":"nonpayable"},{"type":"function","name":"initialized","inputs":[],"outputs":[{"name":"","type":"bool","internalType":"bool"}],"stateMutability":"view"},{"type":"function","name":"lastContributedBlock","inputs":[{"name":"","type":"address","internalType":"address"},{"name":"","type":"address","internalType":"address"}],"outputs":[{"name":"","type":"uint256","internalType":"uint256"}],"stateMutability":"view"},{"type":"function","name":"launchInfo","inputs":[{"name":"tokenAddress","type":"address","internalType":"address"}],"outputs":[{"name":"info","type":"tuple","internalType":"struct ILOVE20Launch.LaunchInfo","components":[{"name":"parentTokenAddress","type":"address","internalType":"address"},{"name":"parentTokenFundraisingGoal","type":"uint256","internalType":"uint256"},{"name":"secondHalfMinBlocks","type":"uint256","internalType":"uint256"},{"name":"launchAmount","type":"uint256","internalType":"uint256"},{"name":"startBlock","type":"uint256","internalType":"uint256"},{"name":"secondHalfStartBlock","type":"uint256","internalType":"uint256"},{"name":"hasEnded","type":"bool","internalType":"bool"},{"name":"participantCount","type":"uint256","internalType":"uint256"},{"name":"totalContributed","type":"uint256","internalType":"uint256"},{"name":"totalExtraRefunded","type":"uint256","internalType":"uint256"}]}],"stateMutability":"view"},{"type":"function","name":"launchInfos","inputs":[{"name":"addresses","type":"address[]","internalType":"address[]"}],"outputs":[{"name":"launchInfos_","type":"tuple[]","internalType":"struct ILOVE20Launch.LaunchInfo[]","components":[{"name":"parentTokenAddress","type":"address","internalType":"address"},{"name":"parentTokenFundraisingGoal","type":"uint256","internalType":"uint256"},{"name":"secondHalfMinBlocks","type":"uint256","internalType":"uint256"},{"name":"launchAmount","type":"uint256","internalType":"uint256"},{"name":"startBlock","type":"uint256","internalType":"uint256"},{"name":"secondHalfStartBlock","type":"uint256","internalType":"uint256"},{"name":"hasEnded","type":"bool","internalType":"bool"},{"name":"participantCount","type":"uint256","internalType":"uint256"},{"name":"totalContributed","type":"uint256","internalType":"uint256"},{"name":"totalExtraRefunded","type":"uint256","internalType":"uint256"}]}],"stateMutability":"view"},{"type":"function","name":"launchedChildTokenNum","inputs":[{"name":"parentTokenAddress","type":"address","internalType":"address"}],"outputs":[{"name":"","type":"uint256","internalType":"uint256"}],"stateMutability":"view"},{"type":"function","name":"launchedChildTokensByPage","inputs":[{"name":"parentTokenAddress","type":"address","internalType":"address"},{"name":"start","type":"uint256","internalType":"uint256"},{"name":"end","type":"uint256","internalType":"uint256"},{"name":"reverse","type":"bool","internalType":"bool"}],"outputs":[{"name":"","type":"address[]","internalType":"address[]"}],"stateMutability":"view"},{"type":"function","name":"launchedTokenNum","inputs":[],"outputs":[{"name":"","type":"uint256","internalType":"uint256"}],"stateMutability":"view"},{"type":"function","name":"launchedTokensByPage","inputs":[{"name":"start","type":"uint256","internalType":"uint256"},{"name":"end","type":"uint256","internalType":"uint256"},{"name":"reverse","type":"bool","internalType":"bool"}],"outputs":[{"name":"","type":"address[]","internalType":"address[]"}],"stateMutability":"view"},{"type":"function","name":"launchingChildTokenNum","inputs":[{"name":"parentTokenAddress","type":"address","internalType":"address"}],"outputs":[{"name":"","type":"uint256","internalType":"uint256"}],"stateMutability":"view"},{"type":"function","name":"launchingChildTokensByPage","inputs":[{"name":"parentTokenAddress","type":"address","internalType":"address"},{"name":"start","type":"uint256","internalType":"uint256"},{"name":"end","type":"uint256","internalType":"uint256"},{"name":"reverse","type":"bool","internalType":"bool"}],"outputs":[{"name":"","type":"address[]","internalType":"address[]"}],"stateMutability":"view"},{"type":"function","name":"launchingTokenNum","inputs":[],"outputs":[{"name":"","type":"uint256","internalType":"uint256"}],"stateMutability":"view"},{"type":"function","name":"launchingTokens","inputs":[{"name":"index","type":"uint256","internalType":"uint256"}],"outputs":[{"name":"","type":"address","internalType":"address"}],"stateMutability":"view"},{"type":"function","name":"launchingTokensByPage","inputs":[{"name":"start","type":"uint256","internalType":"uint256"},{"name":"end","type":"uint256","internalType":"uint256"},{"name":"reverse","type":"bool","internalType":"bool"}],"outputs":[{"name":"","type":"address[]","internalType":"address[]"}],"stateMutability":"view"},{"type":"function","name":"mintAddress","inputs":[],"outputs":[{"name":"","type":"address","internalType":"address"}],"stateMutability":"view"},{"type":"function","name":"participatedTokenNum","inputs":[{"name":"account","type":"address","internalType":"address"}],"outputs":[{"name":"","type":"uint256","internalType":"uint256"}],"stateMutability":"view"},{"type":"function","name":"participatedTokensByPage","inputs":[{"name":"account","type":"address","internalType":"address"},{"name":"start","type":"uint256","internalType":"uint256"},{"name":"end","type":"uint256","internalType":"uint256"},{"name":"reverse","type":"bool","internalType":"bool"}],"outputs":[{"name":"","type":"address[]","internalType":"address[]"}],"stateMutability":"view"},{"type":"function","name":"stakeAddress","inputs":[],"outputs":[{"name":"","type":"address","internalType":"address"}],"stateMutability":"view"},{"type":"function","name":"submitAddress","inputs":[],"outputs":[{"name":"","type":"address","internalType":"address"}],"stateMutability":"view"},{"type":"function","name":"tokenAddressBySymbol","inputs":[{"name":"","type":"string","internalType":"string"}],"outputs":[{"name":"","type":"address","internalType":"address"}],"stateMutability":"view"},{"type":"function","name":"tokenAddresses","inputs":[{"name":"","type":"uint256","internalType":"uint256"}],"outputs":[{"name":"","type":"address","internalType":"address"}],"stateMutability":"view"},{"type":"function","name":"tokenFactoryAddress","inputs":[],"outputs":[{"name":"","type":"address","internalType":"address"}],"stateMutability":"view"},{"type":"function","name":"tokenNum","inputs":[],"outputs":[{"name":"","type":"uint256","internalType":"uint256"}],"stateMutability":"view"},{"type":"function","name":"tokensByPage","inputs":[{"name":"start","type":"uint256","internalType":"uint256"},{"name":"end","type":"uint256","internalType":"uint256"},{"name":"reverse","type":"bool","internalType":"bool"}],"outputs":[{"name":"","type":"address[]","internalType":"address[]"}],"stateMutability":"view"},{"type":"function","name":"withdraw","inputs":[{"name":"tokenAddress","type":"address","internalType":"address"}],"outputs":[],"stateMutability":"nonpayable"},{"type":"event","name":"Claim","inputs":[{"name":"tokenAddress","type":"address","indexed":true,"internalType":"address"},{"name":"claimer","type":"address","indexed":true,"internalType":"address"},{"name":"receivedTokenAmount","type":"uint256","indexed":false,"internalType":"uint256"},{"name":"extraRefund","type":"uint256","indexed":false,"internalType":"uint256"}],"anonymous":false},{"type":"event","name":"Contribute","inputs":[{"name":"tokenAddress","type":"address","indexed":true,"internalType":"address"},{"name":"contributor","type":"address","indexed":true,"internalType":"address"},{"name":"amount","type":"uint256","indexed":false,"internalType":"uint256"},{"name":"totalContributed","type":"uint256","indexed":false,"internalType":"uint256"},{"name":"participantCount","type":"uint256","indexed":false,"internalType":"uint256"}],"anonymous":false},{"type":"event","name":"DeployToken","inputs":[{"name":"tokenAddress","type":"address","indexed":true,"internalType":"address"},{"name":"tokenSymbol","type":"string","indexed":false,"internalType":"string"},{"name":"parentTokenAddress","type":"address","indexed":true,"internalType":"address"},{"name":"deployer","type":"address","indexed":true,"internalType":"address"}],"anonymous":false},{"type":"event","name":"LaunchEnd","inputs":[{"name":"tokenAddress","type":"address","indexed":true,"internalType":"address"},{"name":"totalContributed","type":"uint256","indexed":false,"internalType":"uint256"},{"name":"participantCount","type":"uint256","indexed":false,"internalType":"uint256"},{"name":"endBlock","type":"uint256","indexed":false,"internalType":"uint256"}],"anonymous":false},{"type":"event","name":"SecondHalfStart","inputs":[{"name":"tokenAddress","type":"address","indexed":true,"internalType":"address"},{"name":"secondHalfStartBlock","type":"uint256","indexed":false,"internalType":"uint256"},{"name":"totalContributed","type":"uint256","indexed":false,"internalType":"uint256"}],"anonymous":false},{"type":"event","name":"Withdraw","inputs":[{"name":"tokenAddress","type":"address","indexed":true,"internalType":"address"},{"name":"contributor","type":"address","indexed":true,"internalType":"address"},{"name":"amount","type":"uint256","indexed":false,"internalType":"uint256"}],"anonymous":false},{"type":"error","name":"AlreadyInitialized","inputs":[]},{"type":"error","name":"InvalidParentToken","inputs":[]},{"type":"error","name":"InvalidTokenSymbol","inputs":[]},{"type":"error","name":"LaunchAlreadyEnded","inputs":[]},{"type":"error","name":"LaunchAlreadyExists","inputs":[]},{"type":"error","name":"LaunchNotEnded","inputs":[]},{"type":"error","name":"NoContribution","inputs":[]},{"type":"error","name":"NotEligibleToDeployToken","inputs":[]},{"type":"error","name":"NotEnoughChildTokenWaitingBlocks","inputs":[]},{"type":"error","name":"NotEnoughWaitingBlocks","inputs":[]},{"type":"error","name":"ParentTokenNotSet","inputs":[]},{"type":"error","name":"TokenSymbolExists","inputs":[]},{"type":"error","name":"TokensAlreadyClaimed","inputs":[]},{"type":"error","name":"ZeroContribution","inputs":[]}],"bytecode":{"object":"0x608060405234801561001057600080fd5b50612973806100206000396000f3fe608060405234801561001057600080fd5b50600436106102535760003560e01c806375e7da2911610146578063bfa87e46116100c3578063e5df8b8411610087578063e5df8b84146105bb578063e91f0ed6146105ce578063edc8c1d0146105e1578063f51837fa146105e9578063f6890eb9146105fc578063ffd53ab61461060f57600080fd5b8063bfa87e4614610550578063c4b8eaf614610558578063d80989ed1461056b578063dd38ea931461059f578063e388878f146105a857600080fd5b8063a2ce2de71161010a578063a2ce2de7146104f6578063a5e5c6bc146104ff578063a686b29c14610512578063ac5cb6b614610525578063be19f0a71461053857600080fd5b806375e7da29146104945780638025bf9a146104a757806385107367146104c757806391c394b9146104da5780639fa9fc4f146104e357600080fd5b80633f6b48b7116101d4578063508d8b1c11610198578063508d8b1c1461042757806351cff8d91461043a5780635337eaab1461044d5780636d56623b1461045657806372946b2a1461048157600080fd5b80633f6b48b71461039857806341550845146103ab578063424218bc146103d4578063425d4980146103ff5780634cbc15531461041257600080fd5b80631e83409a1161021b5780631e83409a1461032c57806323dcdc3e146103545780632e58c3001461036757806330364e01146103875780633f6343b51461039057600080fd5b806301f249f3146102585780630c9cbf0e146102885780630d3d7308146102c6578063108ec44e146102e6578063158ef93e1461031f575b600080fd5b61026b610266366004612152565b610618565b6040516001600160a01b0390911681526020015b60405180910390f35b6102b66102963660046121d5565b601160209081526000928352604080842090915290825290205460ff1681565b604051901515815260200161027f565b6102d96102d436600461221c565b610759565b60405161027f919061224a565b6103116102f43660046121d5565b600e60209081526000928352604080842090915290825290205481565b60405190815260200161027f565b6000546102b69060ff1681565b61033f61033a366004612297565b610768565b6040805192835260208301919091520161027f565b6102d96103623660046122b4565b610a1e565b61037a610375366004612345565b610a4e565b60405161027f919061245f565b61031160055481565b610311610ba5565b6103116103a6366004612297565b610bb6565b6103116103b9366004612297565b6001600160a01b03166000908152600c602052604090205490565b6103116103e23660046121d5565b600f60209081526000928352604080842090915290825290205481565b60035461026b906001600160a01b031681565b6104256104203660046124a2565b610bdd565b005b610311610435366004612297565b610ebd565b610425610448366004612297565b610ede565b61031160045481565b6103116104643660046121d5565b601060209081526000928352604080842090915290825290205481565b6102b661048f3660046121d5565b6110f1565b6102d96104a23660046122b4565b61116f565b6104ba6104b5366004612297565b611196565b60405161027f91906124d9565b60015461026b906001600160a01b031681565b61031160085481565b6102d96104f13660046122b4565b611233565b61031160095481565b6102d961050d36600461221c565b61125a565b61026b6105203660046124e8565b611269565b61026b610533366004612501565b611276565b60005461026b9061010090046001600160a01b031681565b600a54610311565b6102d96105663660046122b4565b6112ae565b61026b610579366004612555565b8051602081830181018051600b825292820191909301209152546001600160a01b031681565b61031160075481565b60025461026b906001600160a01b031681565b61026b6105c93660046124e8565b6112d5565b6104256105dc3660046125d5565b6112ff565b61031161139c565b6103116105f7366004612297565b6113a8565b6102d961060a36600461221c565b6113c9565b61031160065481565b600080610624600a5490565b1115610710576001600160a01b038281166000908152600d602052604090205416610662576040516319c3fe5160e21b815260040160405180910390fd5b6009546001600160a01b0383166000908152600d602052604090206004015461068b904361267e565b10156106aa5760405163f1266c5960e01b815260040160405180910390fd5b6106b433836110f1565b6106d157604051636d9d2ccd60e11b815260040160405180910390fd5b61071084848080601f0160208091040260200160405190810160405280939291908181526020018383808284376000920191909152506113d892505050565b61075184848080601f0160208091040260200160405190810160405280939291908181526020018383808284376000920191909152508692506115ac915050565b949350505050565b6060610751601685858561180e565b6001600160a01b0381166000908152600d60205260408120600681015482919060ff166107a857604051630d2b497360e21b815260040160405180910390fd5b6001600160a01b0384166000908152600e60209081526040808320338452909152812054908190036107ed57604051631971fbf360e21b815260040160405180910390fd5b6001600160a01b038516600090815260116020908152604080832033845290915290205460ff16156108325760405163a4f8192960e01b815260040160405180910390fd5b600882015460018301548290610848908361267e565b6108529190612691565b61085c91906126a8565b925081600801548183600301546108739190612691565b61087d91906126a8565b6001600160a01b03861660009081526011602090815260408083203384529091528120805460ff1916600117905560098401805492965085929091906108c49084906126ca565b90915550506001600160a01b038581166000908152601060209081526040808320338085529252918290208690558454915163a9059cbb60e01b815260048101919091526024810186905291169063a9059cbb906044016020604051808303816000875af115801561093a573d6000803e3d6000fd5b505050506040513d601f19601f8201168201806040525081019061095e91906126dd565b5060405163a9059cbb60e01b8152336004820152602481018590526001600160a01b0386169063a9059cbb906044016020604051808303816000875af11580156109ac573d6000803e3d6000fd5b505050506040513d601f19601f820116820180604052508101906109d091906126dd565b50604080518581526020810185905233916001600160a01b038816917f865ca08d59f5cb456e85cd2f7ef63664ea4f73327414e9d8152c4158b0e94645910160405180910390a35050915091565b6001600160a01b0384166000908152601560205260409020606090610a459085858561180e565b95945050505050565b80516060908067ffffffffffffffff811115610a6c57610a6c6122fe565b604051908082528060200260200182016040528015610aa557816020015b610a926120dc565b815260200190600190039081610a8a5790505b50915060005b81811015610b9e576000600d6000868481518110610acb57610acb6126fa565b6020908102919091018101516001600160a01b039081168352828201939093526040918201600020825161014081018452815490941684526001810154918401919091526002810154918301919091526003810154606083015260048101546080830152600581015460a0830152600681015460ff16151560c0830152600781015460e0830152600881015461010083015260098101546101208301528551909250859084908110610b7f57610b7f6126fa565b6020026020010181905250508080610b9690612710565b915050610aab565b5050919050565b6000610bb160166119ea565b905090565b6001600160a01b0381166000908152601860205260408120610bd7906119ea565b92915050565b81600003610bfe57604051631570544960e31b815260040160405180910390fd5b6001600160a01b0383166000908152600d60205260409020600681015460ff1615610c3c57604051636a25ec6f60e01b815260040160405180910390fd5b80546040516323b872dd60e01b8152336004820152306024820152604481018590526001600160a01b03909116906323b872dd906064016020604051808303816000875af1158015610c92573d6000803e3d6000fd5b505050506040513d601f19601f82011682018060405250810190610cb691906126dd565b506001600160a01b038085166000908152600e602090815260408083209386168352929052908120549003610d23576001816007016000828254610cfa91906126ca565b90915550506001600160a01b0382166000908152601260205260409020610d2190856119f4565b505b82816008016000828254610d3791906126ca565b90915550506001600160a01b038085166000908152600e6020908152604080832093861683529290529081208054859290610d739084906126ca565b90915550506001600160a01b038481166000818152600f6020908152604080832094871680845294825291829020439055600885015460078601548351898152928301919091528183015290517e3a002894ca2620295e71671a091bbc1a3c6a3c14c80812024a552f26aca8099181900360600190a36005810154158015610e0f575060028160010154610e0791906126a8565b816008015410155b15610e7057436005820181905560088201546040516001600160a01b038716927f87c631bf98ca55bf60b33a8463f37bd1b9039f3ccbdf980910057eac2ff07fb992610e6392918252602082015260400190565b60405180910390a2610eb7565b600581015415801590610e95575060028101546005820154610e92904361267e565b10155b8015610ea957508060010154816008015410155b15610eb757610eb784611a09565b50505050565b6001600160a01b0381166000908152601560205260408120610bd7906119ea565b6001600160a01b0381166000908152600d60205260409020600681015460ff1615610f1c57604051636a25ec6f60e01b815260040160405180910390fd5b6001600160a01b0382166000908152600e6020908152604080832033845290915281205490819003610f6157604051631971fbf360e21b815260040160405180910390fd5b6008546001600160a01b0384166000908152600f60209081526040808320338452909152902054610f92904361267e565b1015610fb157604051637aad2fc160e11b815260040160405180910390fd5b6001826007016000828254610fc6919061267e565b9091555050336000908152601260205260409020610fe49084611b66565b5080826008016000828254610ff9919061267e565b90915550506001600160a01b038381166000818152600e6020908152604080832033808552908352818420849055938352600f8252808320848452909152808220919091558454905163a9059cbb60e01b81526004810192909252602482018490529091169063a9059cbb906044016020604051808303816000875af1158015611087573d6000803e3d6000fd5b505050506040513d601f19601f820116820180604052508101906110ab91906126dd565b5060405181815233906001600160a01b038516907f9b1bfa7fa9ee420a16e124f794c35ac9f90472acc99140eb2f6447c714cad8eb9060200160405180910390a3505050565b600254604051630273479760e41b81526001600160a01b03838116600483015284811660248301526000921690632734797090604401602060405180830381865afa158015611144573d6000803e3d6000fd5b505050506040513d601f19601f8201168201806040525081019061116891906126dd565b9392505050565b6001600160a01b0384166000908152601860205260409020606090610a459085858561180e565b61119e6120dc565b506001600160a01b039081166000908152600d6020908152604091829020825161014081018452815490941684526001810154918401919091526002810154918301919091526003810154606083015260048101546080830152600581015460a0830152600681015460ff16151560c0830152600781015460e083015260088101546101008301526009015461012082015290565b6001600160a01b0384166000908152601260205260409020606090610a459085858561180e565b6060610751600a858585611b7b565b6000610bd7601383611d61565b600c602052816000526040600020818154811061129257600080fd5b6000918252602090912001546001600160a01b03169150829050565b6001600160a01b0384166000908152600c60205260409020606090610a4590858585611b7b565b600a81815481106112e557600080fd5b6000918252602090912001546001600160a01b0316905081565b60005460ff16156113225760405162dc149f60e41b815260040160405180910390fd5b600080546001600160a01b039b8c16610100026001600160a81b0319909116176001908117909155600280549a8c166001600160a01b03199b8c1617905560038054998c16998b16999099179098558754969099169590971694909417909455600491909155600555600691909155600755600855600955565b6000610bb160136119ea565b6001600160a01b0381166000908152601260205260408120610bd7906119ea565b6060610751601385858561180e565b6004548151604160f81b91602d60f91b91600360fc1b91603960f81b91146114135760405163220839c960e01b815260040160405180910390fd5b836001600160f81b03191685600081518110611431576114316126fa565b01602001516001600160f81b031916108015906114795750826001600160f81b03191685600081518110611467576114676126fa565b01602001516001600160f81b03191611155b6114965760405163220839c960e01b815260040160405180910390fd5b60015b85518110156115a457846001600160f81b0319168682815181106114bf576114bf6126fa565b01602001516001600160f81b031916108015906115065750836001600160f81b0319168682815181106114f4576114f46126fa565b01602001516001600160f81b03191611155b1580156115745750826001600160f81b03191686828151811061152b5761152b6126fa565b01602001516001600160f81b031916108015906115725750816001600160f81b031916868281518110611560576115606126fa565b01602001516001600160f81b03191611155b155b156115925760405163220839c960e01b815260040160405180910390fd5b8061159c81612710565b915050611499565b505050505050565b6000806001600160a01b0316600b846040516115c8919061274d565b908152604051908190036020019020546001600160a01b0316146115ff5760405163d567cb6d60e01b815260040160405180910390fd5b6000826001600160a01b03166395d89b416040518163ffffffff1660e01b8152600401600060405180830381865afa15801561163f573d6000803e3d6000fd5b505050506040513d6000823e601f3d908101601f191682016040526116679190810190612769565b90506000848260405160200161167e9291906127d7565b60408051808303601f19018152908290526000805463c757dd1f60e01b8452919350916101009091046001600160a01b03169063c757dd1f906116cb90889086908b90309060040161283f565b6020604051808303816000875af11580156116ea573d6000803e3d6000fd5b505050506040513d601f19601f8201168201806040525081019061170e9190612888565b600a80546001810182556000919091527fc65a7bb8d6351c1cf70c95a316cc6a92839c986682d98bc35f958f4883f9d2a80180546001600160a01b0319166001600160a01b0383161790556040519091508190600b9061176f90899061274d565b90815260408051918290036020908101832080546001600160a01b039586166001600160a01b0319918216179091558985166000818152600c845293842080546001810182559085529290932090910180549486169490911684179055339290917f390105a84ec755032b630ba98e262ecf5ff1283d6c3f414336ec3808198eb452906117fd908b906128a5565b60405180910390a4610a4581611d6d565b6060600061181b866119ea565b905080158061182a5750808510155b156118645760005b60405190808252806020026020018201604052801561185b578160200160208202803683370190505b50915050610751565b8484101561188d5760405162461bcd60e51b8152600401611884906128b8565b60405180910390fd5b60008185106118a6576118a160018361267e565b6118a8565b845b905060006118b6878361267e565b6118c19060016126ca565b905060008167ffffffffffffffff8111156118de576118de6122fe565b604051908082528060200260200182016040528015611907578160200160208202803683370190505b50905085156119885760005b8281101561198257611946818a61192b60018961267e565b611935919061267e565b61193f919061267e565b8b90611d61565b828281518110611958576119586126fa565b6001600160a01b03909216602092830291909101909101528061197a81612710565b915050611913565b506119de565b60005b828110156119dc576119a061193f828b6126ca565b8282815181106119b2576119b26126fa565b6001600160a01b0390921660209283029190910190910152806119d481612710565b91505061198b565b505b98975050505050505050565b6000610bd7825490565b6000611168836001600160a01b038416611f70565b6001600160a01b0381166000908152600d6020526040902060068101805460ff19166001179055611a3b601383611b66565b5080546001600160a01b03166000908152601560205260409020611a5f9083611b66565b50611a6b6016836119f4565b5080546001600160a01b03166000908152601860205260409020611a8f90836119f4565b508054600182015460405163a9059cbb60e01b81526001600160a01b038581166004830152602482019290925291169063a9059cbb906044016020604051808303816000875af1158015611ae7573d6000803e3d6000fd5b505050506040513d601f19601f82011682018060405250810190611b0b91906126dd565b506008810154600782015460408051928352602083019190915243908201526001600160a01b038316907f7d51a6b28c644edd635f534b373ac3e437432b8fb158e0581ef829b9d164eb4e9060600160405180910390a25050565b6000611168836001600160a01b038416611fbf565b8354606090801580611b8d5750808510155b15611b99576000611832565b84841015611bb95760405162461bcd60e51b8152600401611884906128b8565b6000818510611bd257611bcd60018361267e565b611bd4565b845b90506000611be2878361267e565b611bed9060016126ca565b905060008167ffffffffffffffff811115611c0a57611c0a6122fe565b604051908082528060200260200182016040528015611c33578160200160208202803683370190505b5090508515611ce1578854600090611c4d9060019061267e565b905060005b83811015611cda578a81611c668c8561267e565b611c70919061267e565b81548110611c8057611c806126fa565b9060005260206000200160009054906101000a90046001600160a01b0316838281518110611cb057611cb06126fa565b6001600160a01b039092166020928302919091019091015280611cd281612710565b915050611c52565b50506119de565b60005b828110156119dc5789611cf7828b6126ca565b81548110611d0757611d076126fa565b9060005260206000200160009054906101000a90046001600160a01b0316828281518110611d3757611d376126fa565b6001600160a01b039092166020928302919091019091015280611d5981612710565b915050611ce4565b600061116883836120b2565b6001600160a01b038181166000908152600d60205260409020541615611da65760405163784bb15b60e11b815260040160405180910390fd5b6000816001600160a01b03166347502b536040518163ffffffff1660e01b8152600401602060405180830381865afa158015611de6573d6000803e3d6000fd5b505050506040513d601f19601f82011682018060405250810190611e0a9190612888565b90506001600160a01b038116611e3357604051632fba9b5b60e21b815260040160405180910390fd5b6001600160a01b038281166000908152600d6020526040812080546001600160a01b031916928416929092178255600a8054909190611e7457611e746126fa565b6000918252602090912001546001600160a01b0390811690841603611ea0576005546001820155611ea9565b60065460018201555b6007548160020181905550600060019054906101000a90046001600160a01b03166001600160a01b031663e29d26fb6040518163ffffffff1660e01b8152600401602060405180830381865afa158015611f07573d6000803e3d6000fd5b505050506040513d601f19601f82011682018060405250810190611f2b919061290e565b600382015543600482015560068101805460ff19169055611f4d6013846119f4565b506001600160a01b0382166000908152601560205260409020610eb790846119f4565b6000818152600183016020526040812054611fb757508154600181810184556000848152602080822090930184905584548482528286019093526040902091909155610bd7565b506000610bd7565b600081815260018301602052604081205480156120a8576000611fe360018361267e565b8554909150600090611ff79060019061267e565b905081811461205c576000866000018281548110612017576120176126fa565b906000526020600020015490508087600001848154811061203a5761203a6126fa565b6000918252602080832090910192909255918252600188019052604090208390555b855486908061206d5761206d612927565b600190038181906000526020600020016000905590558560010160008681526020019081526020016000206000905560019350505050610bd7565b6000915050610bd7565b60008260000182815481106120c9576120c96126fa565b9060005260206000200154905092915050565b60405180610140016040528060006001600160a01b0316815260200160008152602001600081526020016000815260200160008152602001600081526020016000151581526020016000815260200160008152602001600081525090565b6001600160a01b038116811461214f57600080fd5b50565b60008060006040848603121561216757600080fd5b833567ffffffffffffffff8082111561217f57600080fd5b818601915086601f83011261219357600080fd5b8135818111156121a257600080fd5b8760208285010111156121b457600080fd5b602092830195509350508401356121ca8161213a565b809150509250925092565b600080604083850312156121e857600080fd5b82356121f38161213a565b915060208301356122038161213a565b809150509250929050565b801515811461214f57600080fd5b60008060006060848603121561223157600080fd5b833592506020840135915060408401356121ca8161220e565b6020808252825182820181905260009190848201906040850190845b8181101561228b5783516001600160a01b031683529284019291840191600101612266565b50909695505050505050565b6000602082840312156122a957600080fd5b81356111688161213a565b600080600080608085870312156122ca57600080fd5b84356122d58161213a565b9350602085013592506040850135915060608501356122f38161220e565b939692955090935050565b634e487b7160e01b600052604160045260246000fd5b604051601f8201601f1916810167ffffffffffffffff8111828210171561233d5761233d6122fe565b604052919050565b6000602080838503121561235857600080fd5b823567ffffffffffffffff8082111561237057600080fd5b818501915085601f83011261238457600080fd5b813581811115612396576123966122fe565b8060051b91506123a7848301612314565b81815291830184019184810190888411156123c157600080fd5b938501935b838510156119de57843592506123db8361213a565b82825293850193908501906123c6565b80516001600160a01b031682526020810151602083015260408101516040830152606081015160608301526080810151608083015260a081015160a083015260c081015161243d60c084018215159052565b5060e08181015190830152610100808201519083015261012090810151910152565b6020808252825182820181905260009190848201906040850190845b8181101561228b5761248e8385516123eb565b92840192610140929092019160010161247b565b6000806000606084860312156124b757600080fd5b83356124c28161213a565b92506020840135915060408401356121ca8161213a565b6101408101610bd782846123eb565b6000602082840312156124fa57600080fd5b5035919050565b6000806040838503121561251457600080fd5b823561251f8161213a565b946020939093013593505050565b600067ffffffffffffffff821115612547576125476122fe565b50601f01601f191660200190565b60006020828403121561256757600080fd5b813567ffffffffffffffff81111561257e57600080fd5b8201601f8101841361258f57600080fd5b80356125a261259d8261252d565b612314565b8181528560208385010111156125b757600080fd5b81602084016020830137600091810160200191909152949350505050565b6000806000806000806000806000806101408b8d0312156125f557600080fd5b8a356126008161213a565b995060208b01356126108161213a565b985060408b01356126208161213a565b975060608b01356126308161213a565b999c989b50969960808101359860a0820135985060c0820135975060e082013596506101008201359550610120909101359350915050565b634e487b7160e01b600052601160045260246000fd5b81810381811115610bd757610bd7612668565b8082028115828204841417610bd757610bd7612668565b6000826126c557634e487b7160e01b600052601260045260246000fd5b500490565b80820180821115610bd757610bd7612668565b6000602082840312156126ef57600080fd5b81516111688161220e565b634e487b7160e01b600052603260045260246000fd5b60006001820161272257612722612668565b5060010190565b60005b8381101561274457818101518382015260200161272c565b50506000910152565b6000825161275f818460208701612729565b9190910192915050565b60006020828403121561277b57600080fd5b815167ffffffffffffffff81111561279257600080fd5b8201601f810184136127a357600080fd5b80516127b161259d8261252d565b8181528560208385010111156127c657600080fd5b610a45826020830160208601612729565b600083516127e9818460208801612729565b600160fe1b9083019081528351612807816001840160208801612729565b01600101949350505050565b6000815180845261282b816020860160208601612729565b601f01601f19169290920160200192915050565b600060018060a01b038087168352608060208401526128616080840187612813565b83810360408501526128738187612813565b92505080841660608401525095945050505050565b60006020828403121561289a57600080fd5b81516111688161213a565b6020815260006111686020830184612813565b60208082526036908201527f456e6420696e646578206d7573742062652067726561746572207468616e206f6040820152750e440cae2eac2d840e8de40e6e8c2e4e840d2dcc8caf60531b606082015260800190565b60006020828403121561292057600080fd5b5051919050565b634e487b7160e01b600052603160045260246000fdfea2646970667358221220428b4e384a62a51f08ecdf02be020d61a9631e2e8aa2509f97f6a15c11af5d9b64736f6c63430008130033","linkReferences":{}},"methodIdentifiers":{"CHILD_TOKEN_WAITING_BLOCKS()":"a2ce2de7","FIRST_PARENT_TOKEN_FUNDRAISING_GOAL()":"30364e01","PARENT_TOKEN_FUNDRAISING_GOAL()":"ffd53ab6","SECOND_HALF_MIN_BLOCKS()":"dd38ea93","TOKEN_SYMBOL_LENGTH()":"5337eaab","WITHDRAW_WAITING_BLOCKS()":"91c394b9","canDeployToken(address,address)":"72946b2a","childTokenNum(address)":"41550845","childTokensByPage(address,uint256,uint256,bool)":"c4b8eaf6","childTokensByParent(address,uint256)":"ac5cb6b6","claim(address)":"1e83409a","claimed(address,address)":"0c9cbf0e","contribute(address,uint256,address)":"4cbc1553","contributed(address,address)":"108ec44e","deployToken(string,address)":"01f249f3","extraRefunded(address,address)":"6d56623b","initialize(address,address,address,address,uint256,uint256,uint256,uint256,uint256,uint256)":"e91f0ed6","initialized()":"158ef93e","lastContributedBlock(address,address)":"424218bc","launchInfo(address)":"8025bf9a","launchInfos(address[])":"2e58c300","launchedChildTokenNum(address)":"3f6b48b7","launchedChildTokensByPage(address,uint256,uint256,bool)":"75e7da29","launchedTokenNum()":"3f6343b5","launchedTokensByPage(uint256,uint256,bool)":"0d3d7308","launchingChildTokenNum(address)":"508d8b1c","launchingChildTokensByPage(address,uint256,uint256,bool)":"23dcdc3e","launchingTokenNum()":"edc8c1d0","launchingTokens(uint256)":"a686b29c","launchingTokensByPage(uint256,uint256,bool)":"f6890eb9","mintAddress()":"425d4980","participatedTokenNum(address)":"f51837fa","participatedTokensByPage(address,uint256,uint256,bool)":"9fa9fc4f","stakeAddress()":"85107367","submitAddress()":"e388878f","tokenAddressBySymbol(string)":"d80989ed","tokenAddresses(uint256)":"e5df8b84","tokenFactoryAddress()":"be19f0a7","tokenNum()":"bfa87e46","tokensByPage(uint256,uint256,bool)":"a5e5c6bc","withdraw(address)":"51cff8d9"},"id":38}