{"abi":[{"type":"constructor","inputs":[{"name":"originBlocks","type":"uint256","internalType":"uint256"},{"name":"phaseBlocks","type":"uint256","internalType":"uint256"}],"stateMutability":"nonpayable"},{"type":"function","name":"RANDOM_SEED_UPDATE_MIN_PER_TEN_THOUSAND","inputs":[],"outputs":[{"name":"","type":"uint256","internalType":"uint256"}],"stateMutability":"view"},{"type":"function","name":"abstentionScoreWithReward","inputs":[{"name":"","type":"address","internalType":"address"},{"name":"","type":"uint256","internalType":"uint256"}],"outputs":[{"name":"","type":"uint256","internalType":"uint256"}],"stateMutability":"view"},{"type":"function","name":"currentRound","inputs":[],"outputs":[{"name":"","type":"uint256","internalType":"uint256"}],"stateMutability":"view"},{"type":"function","name":"firstTokenAddress","inputs":[],"outputs":[{"name":"","type":"address","internalType":"address"}],"stateMutability":"view"},{"type":"function","name":"hasTriggeredRandomUpdate","inputs":[{"name":"","type":"address","internalType":"address"},{"name":"","type":"uint256","internalType":"uint256"},{"name":"","type":"address","internalType":"address"}],"outputs":[{"name":"","type":"bool","internalType":"bool"}],"stateMutability":"view"},{"type":"function","name":"initialize","inputs":[{"name":"randomAddress_","type":"address","internalType":"address"},{"name":"firstTokenAddress_","type":"address","internalType":"address"},{"name":"stakeAddress_","type":"address","internalType":"address"},{"name":"voteAddress_","type":"address","internalType":"address"},{"name":"joinAddress_","type":"address","internalType":"address"},{"name":"mintAddress_","type":"address","internalType":"address"},{"name":"randomSeedUpdateMinPerTenThousand","type":"uint256","internalType":"uint256"}],"outputs":[],"stateMutability":"nonpayable"},{"type":"function","name":"initialized","inputs":[],"outputs":[{"name":"","type":"bool","internalType":"bool"}],"stateMutability":"view"},{"type":"function","name":"joinAddress","inputs":[],"outputs":[{"name":"","type":"address","internalType":"address"}],"stateMutability":"view"},{"type":"function","name":"mintAddress","inputs":[],"outputs":[{"name":"","type":"address","internalType":"address"}],"stateMutability":"view"},{"type":"function","name":"originBlocks","inputs":[],"outputs":[{"name":"","type":"uint256","internalType":"uint256"}],"stateMutability":"view"},{"type":"function","name":"phaseBlocks","inputs":[],"outputs":[{"name":"","type":"uint256","internalType":"uint256"}],"stateMutability":"view"},{"type":"function","name":"randomAddress","inputs":[],"outputs":[{"name":"","type":"address","internalType":"address"}],"stateMutability":"view"},{"type":"function","name":"roundByBlockNumber","inputs":[{"name":"blockNumber","type":"uint256","internalType":"uint256"}],"outputs":[{"name":"","type":"uint256","internalType":"uint256"}],"stateMutability":"view"},{"type":"function","name":"score","inputs":[{"name":"","type":"address","internalType":"address"},{"name":"","type":"uint256","internalType":"uint256"}],"outputs":[{"name":"","type":"uint256","internalType":"uint256"}],"stateMutability":"view"},{"type":"function","name":"scoreByActionId","inputs":[{"name":"","type":"address","internalType":"address"},{"name":"","type":"uint256","internalType":"uint256"},{"name":"","type":"uint256","internalType":"uint256"}],"outputs":[{"name":"","type":"uint256","internalType":"uint256"}],"stateMutability":"view"},{"type":"function","name":"scoreByActionIdByAccount","inputs":[{"name":"","type":"address","internalType":"address"},{"name":"","type":"uint256","internalType":"uint256"},{"name":"","type":"uint256","internalType":"uint256"},{"name":"","type":"address","internalType":"address"}],"outputs":[{"name":"","type":"uint256","internalType":"uint256"}],"stateMutability":"view"},{"type":"function","name":"scoreByVerifier","inputs":[{"name":"","type":"address","internalType":"address"},{"name":"","type":"uint256","internalType":"uint256"},{"name":"","type":"address","internalType":"address"}],"outputs":[{"name":"","type":"uint256","internalType":"uint256"}],"stateMutability":"view"},{"type":"function","name":"scoreByVerifierByActionId","inputs":[{"name":"","type":"address","internalType":"address"},{"name":"","type":"uint256","internalType":"uint256"},{"name":"","type":"address","internalType":"address"},{"name":"","type":"uint256","internalType":"uint256"}],"outputs":[{"name":"","type":"uint256","internalType":"uint256"}],"stateMutability":"view"},{"type":"function","name":"scoreWithReward","inputs":[{"name":"","type":"address","internalType":"address"},{"name":"","type":"uint256","internalType":"uint256"}],"outputs":[{"name":"","type":"uint256","internalType":"uint256"}],"stateMutability":"view"},{"type":"function","name":"stakeAddress","inputs":[],"outputs":[{"name":"","type":"address","internalType":"address"}],"stateMutability":"view"},{"type":"function","name":"stakedAmountOfVerifiers","inputs":[{"name":"","type":"address","internalType":"address"},{"name":"","type":"uint256","internalType":"uint256"}],"outputs":[{"name":"","type":"uint256","internalType":"uint256"}],"stateMutability":"view"},{"type":"function","name":"verify","inputs":[{"name":"tokenAddress","type":"address","internalType":"address"},{"name":"actionId","type":"uint256","internalType":"uint256"},{"name":"abstentionScore","type":"uint256","internalType":"uint256"},{"name":"scores","type":"uint256[]","internalType":"uint256[]"}],"outputs":[],"stateMutability":"nonpayable"},{"type":"function","name":"voteAddress","inputs":[],"outputs":[{"name":"","type":"address","internalType":"address"}],"stateMutability":"view"},{"type":"event","name":"Verify","inputs":[{"name":"tokenAddress","type":"address","indexed":true,"internalType":"address"},{"name":"round","type":"uint256","indexed":false,"internalType":"uint256"},{"name":"verifier","type":"address","indexed":true,"internalType":"address"},{"name":"actionId","type":"uint256","indexed":true,"internalType":"uint256"},{"name":"abstentionScore","type":"uint256","indexed":false,"internalType":"uint256"},{"name":"scores","type":"uint256[]","indexed":false,"internalType":"uint256[]"}],"anonymous":false},{"type":"error","name":"AlreadyInitialized","inputs":[]},{"type":"error","name":"RoundNotStarted","inputs":[]},{"type":"error","name":"ScoresAndAccountsLengthMismatch","inputs":[]},{"type":"error","name":"ScoresExceedVotesNum","inputs":[]},{"type":"error","name":"ScoresMustIncrease","inputs":[]}],"bytecode":{"object":"0x60c060405234801561001057600080fd5b5060405161133338038061133383398101604081905261002f9161003d565b60809190915260a052610061565b6000806040838503121561005057600080fd5b505080516020909101519092909150565b60805160a05161129861009b60003960008181610234015261057e0152600081816103b40152818161050c015261055201526112986000f3fe608060405234801561001057600080fd5b506004361061014d5760003560e01c8063742583c8116100c3578063986fd1d81161007c578063986fd1d81461037e578063b2ad3730146103af578063c0df7d59146103d6578063c8829af914610410578063d5bee9f51461043b578063fe43a47e1461044e57600080fd5b8063742583c8146102ac5780638388a65a146102c457806385107367146102fe5780638a19c8bc146103115780638c6b5d8214610319578063965aa9d01461034d57600080fd5b80633bdf9f13116101155780633bdf9f13146101f65780633d6dc92814610209578063425d49801461021c57806360a918b71461022f57806364a85573146102565780637401edba1461028157600080fd5b806313232bb6146101525780631460e39014610190578063158ef93e146101a5578063258cd1e4146101c257806327e92918146101ed575b600080fd5b61017d610160366004610dfe565b600760209081526000928352604080842090915290825290205481565b6040519081526020015b60405180910390f35b6101a361019e366004610e2a565b610461565b005b6000546101b29060ff1681565b6040519015158152602001610187565b6004546101d5906001600160a01b031681565b6040516001600160a01b039091168152602001610187565b61017d60065481565b61017d610204366004610eb7565b610508565b6003546101d5906001600160a01b031681565b6005546101d5906001600160a01b031681565b61017d7f000000000000000000000000000000000000000000000000000000000000000081565b61017d610264366004610dfe565b600960209081526000928352604080842090915290825290205481565b61017d61028f366004610dfe565b600860209081526000928352604080842090915290825290205481565b6000546101d59061010090046001600160a01b031681565b61017d6102d2366004610ed0565b600e60209081526000948552604080862082529385528385208152918452828420909152825290205481565b6002546101d5906001600160a01b031681565b61017d6105aa565b6101b2610327366004610f18565b600f60209081526000938452604080852082529284528284209052825290205460ff1681565b61017d61035b366004610f18565b600d60209081526000938452604080852082529284528284209052825290205481565b61017d61038c366004610f5a565b600b60209081526000938452604080852082529284528284209052825290205481565b61017d7f000000000000000000000000000000000000000000000000000000000000000081565b61017d6103e4366004610f8f565b600c60209081526000948552604080862082529385528385208152918452828420909152825290205481565b61017d61041e366004610dfe565b600a60209081526000928352604080842090915290825290205481565b6001546101d5906001600160a01b031681565b6101a361045c366004610fd9565b6105ba565b60005460ff16156104845760405162dc149f60e41b815260040160405180910390fd5b60008054600180546001600160a01b039a8b166001600160a01b0319918216178255988a16610100026001600160a81b03199092169190911717905560028054958816958716959095179094556003805493871693861693909317909255600480549186169185169190911790556005805491909416921691909117909155600655565b60007f000000000000000000000000000000000000000000000000000000000000000082101561054b576040516323a71b8760e21b815260040160405180910390fd5b60006105777f000000000000000000000000000000000000000000000000000000000000000084611088565b90506105a37f0000000000000000000000000000000000000000000000000000000000000000826110a1565b9392505050565b60006105b543610508565b905090565b60006105c46105aa565b6005546040516369808e1b60e01b81526001600160a01b0389811660048301529293509116906369808e1b90602401600060405180830381600087803b15801561060d57600080fd5b505af1158015610621573d6000803e3d6000fd5b505060048054604051639ae295bd60e01b81526001600160a01b038b811693820193909352602481018a905291169250600091508290639ae295bd906044016000604051808303816000875af115801561067f573d6000803e3d6000fd5b505050506040513d6000823e601f3d908101601f191682016040526106a791908101906110e9565b805190915084146106cb57604051636b30b00160e11b815260040160405180910390fd5b6001600160a01b0388166000908152600d60209081526040808320868452825280832033845290915281205490036107b1576002546040516322fc7fb360e21b81526001600160a01b038a811660048301526024820186905233604483015290911690638bf1fecc90606401602060405180830381865afa158015610754573d6000803e3d6000fd5b505050506040513d601f19601f8201168201806040525081019061077891906111ae565b6001600160a01b0389166000908152600760209081526040808320878452909152812080549091906107ab9084906111c7565b90915550505b6000805b858110156108265760008787838181106107d1576107d16111da565b90506020020135905060008483815181106107ee576107ee6111da565b602002602001015190506108058c888d8486610a96565b61080f82856111c7565b93505050808061081e906111f0565b9150506107b5565b5086156108485761083b89858a60008b610a96565b61084587826111c7565b90505b8060000361086957604051630c9b369b60e31b815260040160405180910390fd5b600354604051630e35dbd360e21b81526001600160a01b038b8116600483015260248201879052336044830152606482018b9052909116906338d76f4c90608401602060405180830381865afa1580156108c7573d6000803e3d6000fd5b505050506040513d601f19601f820116820180604052508101906108eb91906111ae565b6001600160a01b038a166000908152600e60209081526040808320888452825280832033845282528083208c8452909152902054111561093e57604051634cdca98560e11b815260040160405180910390fd5b60055460405163109c5e0d60e31b81526001600160a01b038b8116600483015260248201879052604482018b9052909116906384e2f06890606401602060405180830381865afa158015610996573d6000803e3d6000fd5b505050506040513d601f19601f820116820180604052508101906109ba9190611209565b15610a30576001600160a01b0389166000908152600960209081526040808320878452909152812080548392906109f29084906111c7565b90915550506001600160a01b0389166000908152600a6020908152604080832087845290915281208054899290610a2a9084906111c7565b90915550505b610a3989610be9565b87336001600160a01b03168a6001600160a01b03167fd7dc37ae32c2d2ca3224a6e9e869016b03c8bd5641b74c29d39536e4769af955878b8b8b604051610a83949392919061122b565b60405180910390a4505050505050505050565b6001600160a01b038516600090815260086020908152604080832087845290915281208054839290610ac99084906111c7565b90915550506001600160a01b0385166000908152600b60209081526040808320878452825280832086845290915281208054839290610b099084906111c7565b90915550506001600160a01b038086166000908152600c602090815260408083208884528252808320878452825280832093861683529290529081208054839290610b559084906111c7565b90915550506001600160a01b0385166000908152600d60209081526040808320878452825280832033845290915281208054839290610b959084906111c7565b90915550506001600160a01b0385166000908152600e602090815260408083208784528252808320338452825280832086845290915281208054839290610bdd9084906111c7565b90915550505050505050565b6000546001600160a01b038281166101009092041614610c065750565b6002546006546040516315664f8d60e01b81526001600160a01b03848116600483015290921691612710919083906315664f8d90602401602060405180830381865afa158015610c5a573d6000803e3d6000fd5b505050506040513d601f19601f82011682018060405250810190610c7e91906111ae565b610c889190611274565b610c9291906110a1565b604051632872798160e21b81526001600160a01b03848116600483015233602483015283169063a1c9e60490604401602060405180830381865afa158015610cde573d6000803e3d6000fd5b505050506040513d601f19601f82011682018060405250810190610d0291906111ae565b1015610d0c575050565b6000610d166105aa565b6001600160a01b0384166000908152600f60209081526040808320848452825280832033845290915290205490915060ff1615610d5257505050565b6001600160a01b038381166000908152600f60209081526040808320858452825280832033808552925291829020805460ff19166001908117909155549151635939ccd760e01b81526004810191909152911690635939ccd790602401600060405180830381600087803b158015610dc957600080fd5b505af1158015610ddd573d6000803e3d6000fd5b50505050505050565b6001600160a01b0381168114610dfb57600080fd5b50565b60008060408385031215610e1157600080fd5b8235610e1c81610de6565b946020939093013593505050565b600080600080600080600060e0888a031215610e4557600080fd5b8735610e5081610de6565b96506020880135610e6081610de6565b95506040880135610e7081610de6565b94506060880135610e8081610de6565b93506080880135610e9081610de6565b925060a0880135610ea081610de6565b8092505060c0880135905092959891949750929550565b600060208284031215610ec957600080fd5b5035919050565b60008060008060808587031215610ee657600080fd5b8435610ef181610de6565b9350602085013592506040850135610f0881610de6565b9396929550929360600135925050565b600080600060608486031215610f2d57600080fd5b8335610f3881610de6565b9250602084013591506040840135610f4f81610de6565b809150509250925092565b600080600060608486031215610f6f57600080fd5b8335610f7a81610de6565b95602085013595506040909401359392505050565b60008060008060808587031215610fa557600080fd5b8435610fb081610de6565b935060208501359250604085013591506060850135610fce81610de6565b939692955090935050565b600080600080600060808688031215610ff157600080fd5b8535610ffc81610de6565b94506020860135935060408601359250606086013567ffffffffffffffff8082111561102757600080fd5b818801915088601f83011261103b57600080fd5b81358181111561104a57600080fd5b8960208260051b850101111561105f57600080fd5b9699959850939650602001949392505050565b634e487b7160e01b600052601160045260246000fd5b8181038181111561109b5761109b611072565b92915050565b6000826110be57634e487b7160e01b600052601260045260246000fd5b500490565b634e487b7160e01b600052604160045260246000fd5b80516110e481610de6565b919050565b600060208083850312156110fc57600080fd5b825167ffffffffffffffff8082111561111457600080fd5b818501915085601f83011261112857600080fd5b81518181111561113a5761113a6110c3565b8060051b604051601f19603f8301168101818110858211171561115f5761115f6110c3565b60405291825284820192508381018501918883111561117d57600080fd5b938501935b828510156111a257611193856110d9565b84529385019392850192611182565b98975050505050505050565b6000602082840312156111c057600080fd5b5051919050565b8082018082111561109b5761109b611072565b634e487b7160e01b600052603260045260246000fd5b60006001820161120257611202611072565b5060010190565b60006020828403121561121b57600080fd5b815180151581146105a357600080fd5b84815260208101849052606060408201819052810182905260006001600160fb1b0383111561125957600080fd5b8260051b808560808501379190910160800195945050505050565b808202811582820484141761109b5761109b61107256fea164736f6c6343000811000a","linkReferences":{}},"methodIdentifiers":{"RANDOM_SEED_UPDATE_MIN_PER_TEN_THOUSAND()":"27e92918","abstentionScoreWithReward(address,uint256)":"c8829af9","currentRound()":"8a19c8bc","firstTokenAddress()":"742583c8","hasTriggeredRandomUpdate(address,uint256,address)":"8c6b5d82","initialize(address,address,address,address,address,address,uint256)":"1460e390","initialized()":"158ef93e","joinAddress()":"258cd1e4","mintAddress()":"425d4980","originBlocks()":"b2ad3730","phaseBlocks()":"60a918b7","randomAddress()":"d5bee9f5","roundByBlockNumber(uint256)":"3bdf9f13","score(address,uint256)":"7401edba","scoreByActionId(address,uint256,uint256)":"986fd1d8","scoreByActionIdByAccount(address,uint256,uint256,address)":"c0df7d59","scoreByVerifier(address,uint256,address)":"965aa9d0","scoreByVerifierByActionId(address,uint256,address,uint256)":"8388a65a","scoreWithReward(address,uint256)":"64a85573","stakeAddress()":"85107367","stakedAmountOfVerifiers(address,uint256)":"13232bb6","verify(address,uint256,uint256,uint256[])":"fe43a47e","voteAddress()":"3d6dc928"},"id":80}