{"abi":[{"type":"function","name":"batchTransfer","inputs":[{"name":"token","type":"address","internalType":"contract IERC20"},{"name":"recipients","type":"address[]","internalType":"address[]"},{"name":"amounts","type":"uint256[]","internalType":"uint256[]"}],"outputs":[],"stateMutability":"nonpayable"},{"type":"function","name":"batchTransferETH","inputs":[{"name":"recipients","type":"address[]","internalType":"address payable[]"},{"name":"amounts","type":"uint256[]","internalType":"uint256[]"}],"outputs":[],"stateMutability":"payable"},{"type":"function","name":"batchTransferETHSameAmount","inputs":[{"name":"recipients","type":"address[]","internalType":"address payable[]"},{"name":"ethAmount","type":"uint256","internalType":"uint256"}],"outputs":[],"stateMutability":"payable"},{"type":"function","name":"batchTransferSameAmount","inputs":[{"name":"token","type":"address","internalType":"contract IERC20"},{"name":"recipients","type":"address[]","internalType":"address[]"},{"name":"amount","type":"uint256","internalType":"uint256"}],"outputs":[],"stateMutability":"nonpayable"},{"type":"function","name":"batchTransferTokenAndETH","inputs":[{"name":"token","type":"address","internalType":"contract IERC20"},{"name":"recipients","type":"address[]","internalType":"address payable[]"},{"name":"tokenAmount","type":"uint256","internalType":"uint256"},{"name":"ethAmount","type":"uint256","internalType":"uint256"}],"outputs":[],"stateMutability":"payable"},{"type":"function","name":"owner","inputs":[],"outputs":[{"name":"","type":"address","internalType":"address"}],"stateMutability":"view"},{"type":"function","name":"renounceOwnership","inputs":[],"outputs":[],"stateMutability":"nonpayable"},{"type":"function","name":"transferOwnership","inputs":[{"name":"newOwner","type":"address","internalType":"address"}],"outputs":[],"stateMutability":"nonpayable"},{"type":"event","name":"BatchTransferCompleted","inputs":[{"name":"token","type":"address","indexed":true,"internalType":"address"},{"name":"from","type":"address","indexed":true,"internalType":"address"},{"name":"recipientCount","type":"uint256","indexed":false,"internalType":"uint256"},{"name":"totalAmount","type":"uint256","indexed":false,"internalType":"uint256"}],"anonymous":false},{"type":"event","name":"OwnershipTransferred","inputs":[{"name":"previousOwner","type":"address","indexed":true,"internalType":"address"},{"name":"newOwner","type":"address","indexed":true,"internalType":"address"}],"anonymous":false},{"type":"event","name":"SingleTransfer","inputs":[{"name":"token","type":"address","indexed":true,"internalType":"address"},{"name":"from","type":"address","indexed":true,"internalType":"address"},{"name":"to","type":"address","indexed":true,"internalType":"address"},{"name":"amount","type":"uint256","indexed":false,"internalType":"uint256"}],"anonymous":false},{"type":"error","name":"ArrayLengthMismatch","inputs":[]},{"type":"error","name":"EmptyArrays","inputs":[]},{"type":"error","name":"InsufficientAllowance","inputs":[]},{"type":"error","name":"InsufficientBalance","inputs":[]},{"type":"error","name":"TransferFailed","inputs":[]},{"type":"error","name":"ZeroAddress","inputs":[]}],"bytecode":{"object":"0x608060405234801561001057600080fd5b5061001a33610023565b60018055610073565b600080546001600160a01b038381166001600160a01b0319831681178455604051919092169283917f8be0079c531659141344cd1fd0a4f28419497f9722a3daafe3b4186f6b6457e09190a35050565b61172f806100826000396000f3fe60806040526004361061007b5760003560e01c80638da5cb5b1161004e5780638da5cb5b146100dd578063a0ce91d814610109578063e0862eee1461011c578063f2fde38b1461013c57600080fd5b80631239ec8c14610080578063229fe6b8146100a2578063715018a6146100b557806381d4cf9a146100ca575b600080fd5b34801561008c57600080fd5b506100a061009b3660046113e3565b61015c565b005b6100a06100b0366004611466565b610555565b3480156100c157600080fd5b506100a0610a38565b6100a06100d83660046114cd565b610a4c565b3480156100e957600080fd5b50600054604080516001600160a01b039092168252519081900360200190f35b6100a0610117366004611519565b610c3c565b34801561012857600080fd5b506100a0610137366004611585565b610e95565b34801561014857600080fd5b506100a06101573660046115e1565b611206565b61016461127f565b8281146101845760405163512509d360e11b815260040160405180910390fd5b60008390036101a65760405163a600c81d60e01b815260040160405180910390fd5b6000805b8281101561023a5760008686838181106101c6576101c6611605565b90506020020160208101906101db91906115e1565b6001600160a01b0316036102025760405163d92e233d60e01b815260040160405180910390fd5b83838281811061021457610214611605565b90506020020135826102269190611631565b9150806102328161164a565b9150506101aa565b50604051636eb1769f60e11b81523360048201523060248201526000906001600160a01b0388169063dd62ed3e90604401602060405180830381865afa158015610288573d6000803e3d6000fd5b505050506040513d601f19601f820116820180604052508101906102ac9190611663565b9050818110156102cf576040516313be252b60e01b815260040160405180910390fd5b6040516370a0823160e01b81523360048201526000906001600160a01b038916906370a0823190602401602060405180830381865afa158015610316573d6000803e3d6000fd5b505050506040513d601f19601f8201168201806040525081019061033a9190611663565b90508281101561035d57604051631e9acf1760e31b815260040160405180910390fd5b60005b868110156104fb576000896001600160a01b03166323b872dd338b8b8681811061038c5761038c611605565b90506020020160208101906103a191906115e1565b8a8a878181106103b3576103b3611605565b6040516001600160e01b031960e088901b1681526001600160a01b039586166004820152949093166024850152506020909102013560448201526064016020604051808303816000875af115801561040f573d6000803e3d6000fd5b505050506040513d601f19601f82011682018060405250810190610433919061167c565b905080610453576040516312171d8360e31b815260040160405180910390fd5b88888381811061046557610465611605565b905060200201602081019061047a91906115e1565b6001600160a01b0316336001600160a01b03168b6001600160a01b03167fb202ca168e0eae31d838f4cceffcd4c7708494cd75954be4767c8070f3c26fc48a8a878181106104ca576104ca611605565b905060200201356040516104e091815260200190565b60405180910390a450806104f38161164a565b915050610360565b50604080518781526020810185905233916001600160a01b038b16917f8f8db353fa9f01376ff94a59ae3c8cb3dce6ef2b673d91eb0849a03e15e7f45f910160405180910390a350505061054e60018055565b5050505050565b61055d61127f565b600083900361057f5760405163a600c81d60e01b815260040160405180910390fd5b600061058b848461169e565b90506000610599858461169e565b905082156105ca57803410156105ca5760405162461bcd60e51b81526004016105c1906116b5565b60405180910390fd5b83156106f557604051636eb1769f60e11b81523360048201523060248201526000906001600160a01b0389169063dd62ed3e90604401602060405180830381865afa15801561061d573d6000803e3d6000fd5b505050506040513d601f19601f820116820180604052508101906106419190611663565b905082811015610664576040516313be252b60e01b815260040160405180910390fd5b6040516370a0823160e01b81523360048201526000906001600160a01b038a16906370a0823190602401602060405180830381865afa1580156106ab573d6000803e3d6000fd5b505050506040513d601f19601f820116820180604052508101906106cf9190611663565b9050838110156106f257604051631e9acf1760e31b815260040160405180910390fd5b50505b60005b8581101561095a57600087878381811061071457610714611605565b905060200201602081019061072991906115e1565b6001600160a01b0316036107505760405163d92e233d60e01b815260040160405180910390fd5b84156108a6576000886001600160a01b03166323b872dd338a8a8681811061077a5761077a611605565b905060200201602081019061078f91906115e1565b6040516001600160e01b031960e085901b1681526001600160a01b03928316600482015291166024820152604481018990526064016020604051808303816000875af11580156107e3573d6000803e3d6000fd5b505050506040513d601f19601f82011682018060405250810190610807919061167c565b905080610827576040516312171d8360e31b815260040160405180910390fd5b87878381811061083957610839611605565b905060200201602081019061084e91906115e1565b6001600160a01b0316336001600160a01b03168a6001600160a01b03167fb202ca168e0eae31d838f4cceffcd4c7708494cd75954be4767c8070f3c26fc48960405161089c91815260200190565b60405180910390a4505b83156109485760008787838181106108c0576108c0611605565b90506020020160208101906108d591906115e1565b6001600160a01b03168560405160006040518083038185875af1925050503d806000811461091f576040519150601f19603f3d011682016040523d82523d6000602084013e610924565b606091505b5050905080610946576040516312171d8360e31b815260040160405180910390fd5b505b806109528161164a565b9150506106f8565b5083156109a857604080518681526020810184905233916001600160a01b038a16917f8f8db353fa9f01376ff94a59ae3c8cb3dce6ef2b673d91eb0849a03e15e7f45f910160405180910390a35b6000831180156109b757508034115b15610a2d576000336109c983346116e4565b604051600081818185875af1925050503d8060008114610a05576040519150601f19603f3d011682016040523d82523d6000602084013e610a0a565b606091505b5050905080610a2b5760405162461bcd60e51b81526004016105c1906116f7565b505b505061054e60018055565b610a406112d8565b610a4a6000611332565b565b610a5461127f565b6000829003610a765760405163a600c81d60e01b815260040160405180910390fd5b8015610c2e576000610a88838361169e565b905080341015610aaa5760405162461bcd60e51b81526004016105c1906116b5565b60005b83811015610bb2576000858583818110610ac957610ac9611605565b9050602002016020810190610ade91906115e1565b6001600160a01b031603610b055760405163d92e233d60e01b815260040160405180910390fd5b6000858583818110610b1957610b19611605565b9050602002016020810190610b2e91906115e1565b6001600160a01b03168460405160006040518083038185875af1925050503d8060008114610b78576040519150601f19603f3d011682016040523d82523d6000602084013e610b7d565b606091505b5050905080610b9f576040516312171d8360e31b815260040160405180910390fd5b5080610baa8161164a565b915050610aad565b5080341115610c2c57600033610bc883346116e4565b604051600081818185875af1925050503d8060008114610c04576040519150601f19603f3d011682016040523d82523d6000602084013e610c09565b606091505b5050905080610c2a5760405162461bcd60e51b81526004016105c1906116f7565b505b505b610c3760018055565b505050565b610c4461127f565b828114610c645760405163512509d360e11b815260040160405180910390fd5b6000839003610c865760405163a600c81d60e01b815260040160405180910390fd5b6000805b82811015610cca57838382818110610ca457610ca4611605565b9050602002013582610cb69190611631565b915080610cc28161164a565b915050610c8a565b5080341015610ceb5760405162461bcd60e51b81526004016105c1906116b5565b60005b84811015610e0b576000868683818110610d0a57610d0a611605565b9050602002016020810190610d1f91906115e1565b6001600160a01b031603610d465760405163d92e233d60e01b815260040160405180910390fd5b6000868683818110610d5a57610d5a611605565b9050602002016020810190610d6f91906115e1565b6001600160a01b0316858584818110610d8a57610d8a611605565b9050602002013560405160006040518083038185875af1925050503d8060008114610dd1576040519150601f19603f3d011682016040523d82523d6000602084013e610dd6565b606091505b5050905080610df8576040516312171d8360e31b815260040160405180910390fd5b5080610e038161164a565b915050610cee565b5080341115610e8557600033610e2183346116e4565b604051600081818185875af1925050503d8060008114610e5d576040519150601f19603f3d011682016040523d82523d6000602084013e610e62565b606091505b5050905080610e835760405162461bcd60e51b81526004016105c1906116f7565b505b50610e8f60018055565b50505050565b610e9d61127f565b6000829003610ebf5760405163a600c81d60e01b815260040160405180910390fd5b80156111fd576000610ed1838361169e565b604051636eb1769f60e11b81523360048201523060248201529091506000906001600160a01b0387169063dd62ed3e90604401602060405180830381865afa158015610f21573d6000803e3d6000fd5b505050506040513d601f19601f82011682018060405250810190610f459190611663565b905081811015610f68576040516313be252b60e01b815260040160405180910390fd5b6040516370a0823160e01b81523360048201526000906001600160a01b038816906370a0823190602401602060405180830381865afa158015610faf573d6000803e3d6000fd5b505050506040513d601f19601f82011682018060405250810190610fd39190611663565b905082811015610ff657604051631e9acf1760e31b815260040160405180910390fd5b60005b858110156111b257600087878381811061101557611015611605565b905060200201602081019061102a91906115e1565b6001600160a01b0316036110515760405163d92e233d60e01b815260040160405180910390fd5b6000886001600160a01b03166323b872dd338a8a8681811061107557611075611605565b905060200201602081019061108a91906115e1565b6040516001600160e01b031960e085901b1681526001600160a01b03928316600482015291166024820152604481018990526064016020604051808303816000875af11580156110de573d6000803e3d6000fd5b505050506040513d601f19601f82011682018060405250810190611102919061167c565b905080611122576040516312171d8360e31b815260040160405180910390fd5b87878381811061113457611134611605565b905060200201602081019061114991906115e1565b6001600160a01b0316336001600160a01b03168a6001600160a01b03167fb202ca168e0eae31d838f4cceffcd4c7708494cd75954be4767c8070f3c26fc48960405161119791815260200190565b60405180910390a450806111aa8161164a565b915050610ff9565b50604080518681526020810185905233916001600160a01b038a16917f8f8db353fa9f01376ff94a59ae3c8cb3dce6ef2b673d91eb0849a03e15e7f45f910160405180910390a35050505b610e8f60018055565b61120e6112d8565b6001600160a01b0381166112735760405162461bcd60e51b815260206004820152602660248201527f4f776e61626c653a206e6577206f776e657220697320746865207a65726f206160448201526564647265737360d01b60648201526084016105c1565b61127c81611332565b50565b6002600154036112d15760405162461bcd60e51b815260206004820152601f60248201527f5265656e7472616e637947756172643a207265656e7472616e742063616c6c0060448201526064016105c1565b6002600155565b6000546001600160a01b03163314610a4a5760405162461bcd60e51b815260206004820181905260248201527f4f776e61626c653a2063616c6c6572206973206e6f7420746865206f776e657260448201526064016105c1565b600080546001600160a01b038381166001600160a01b0319831681178455604051919092169283917f8be0079c531659141344cd1fd0a4f28419497f9722a3daafe3b4186f6b6457e09190a35050565b6001600160a01b038116811461127c57600080fd5b60008083601f8401126113a957600080fd5b50813567ffffffffffffffff8111156113c157600080fd5b6020830191508360208260051b85010111156113dc57600080fd5b9250929050565b6000806000806000606086880312156113fb57600080fd5b853561140681611382565b9450602086013567ffffffffffffffff8082111561142357600080fd5b61142f89838a01611397565b9096509450604088013591508082111561144857600080fd5b5061145588828901611397565b969995985093965092949392505050565b60008060008060006080868803121561147e57600080fd5b853561148981611382565b9450602086013567ffffffffffffffff8111156114a557600080fd5b6114b188828901611397565b9699909850959660408101359660609091013595509350505050565b6000806000604084860312156114e257600080fd5b833567ffffffffffffffff8111156114f957600080fd5b61150586828701611397565b909790965060209590950135949350505050565b6000806000806040858703121561152f57600080fd5b843567ffffffffffffffff8082111561154757600080fd5b61155388838901611397565b9096509450602087013591508082111561156c57600080fd5b5061157987828801611397565b95989497509550505050565b6000806000806060858703121561159b57600080fd5b84356115a681611382565b9350602085013567ffffffffffffffff8111156115c257600080fd5b6115ce87828801611397565b9598909750949560400135949350505050565b6000602082840312156115f357600080fd5b81356115fe81611382565b9392505050565b634e487b7160e01b600052603260045260246000fd5b634e487b7160e01b600052601160045260246000fd5b808201808211156116445761164461161b565b92915050565b60006001820161165c5761165c61161b565b5060010190565b60006020828403121561167557600080fd5b5051919050565b60006020828403121561168e57600080fd5b815180151581146115fe57600080fd5b80820281158282048414176116445761164461161b565b602080825260159082015274125b9cdd59999a58da595b9d08115512081cd95b9d605a1b604082015260600190565b818103818111156116445761164461161b565b602080825260119082015270115512081c99599d5b990819985a5b1959607a1b60408201526060019056fea164736f6c6343000811000a","linkReferences":{}},"methodIdentifiers":{"batchTransfer(address,address[],uint256[])":"1239ec8c","batchTransferETH(address[],uint256[])":"a0ce91d8","batchTransferETHSameAmount(address[],uint256)":"81d4cf9a","batchTransferSameAmount(address,address[],uint256)":"e0862eee","batchTransferTokenAndETH(address,address[],uint256,uint256)":"229fe6b8","owner()":"8da5cb5b","renounceOwnership()":"715018a6","transferOwnership(address)":"f2fde38b"},"id":125}