{"abi":[{"type":"function","name":"NATIVE_TRANSFER_GAS_LIMIT","inputs":[],"outputs":[{"name":"","type":"uint256","internalType":"uint256"}],"stateMutability":"view"},{"type":"function","name":"batchTransferERC20","inputs":[{"name":"token","type":"address","internalType":"address"},{"name":"recipients","type":"address[]","internalType":"address[]"},{"name":"amounts","type":"uint256[]","internalType":"uint256[]"}],"outputs":[{"name":"totalAmount","type":"uint256","internalType":"uint256"}],"stateMutability":"nonpayable"},{"type":"function","name":"batchTransferNative","inputs":[{"name":"recipients","type":"address[]","internalType":"address[]"},{"name":"amounts","type":"uint256[]","internalType":"uint256[]"}],"outputs":[{"name":"totalAmount","type":"uint256","internalType":"uint256"}],"stateMutability":"payable"},{"type":"function","name":"erc20Balances","inputs":[{"name":"token","type":"address","internalType":"address"},{"name":"accounts","type":"address[]","internalType":"address[]"}],"outputs":[{"name":"balances","type":"uint256[]","internalType":"uint256[]"}],"stateMutability":"view"},{"type":"function","name":"nativeBalances","inputs":[{"name":"accounts","type":"address[]","internalType":"address[]"}],"outputs":[{"name":"balances","type":"uint256[]","internalType":"uint256[]"}],"stateMutability":"view"},{"type":"event","name":"ERC20BatchTransfer","inputs":[{"name":"token","type":"address","indexed":true,"internalType":"address"},{"name":"sender","type":"address","indexed":true,"internalType":"address"},{"name":"totalAmount","type":"uint256","indexed":false,"internalType":"uint256"},{"name":"recipientCount","type":"uint256","indexed":false,"internalType":"uint256"}],"anonymous":false},{"type":"event","name":"NativeBatchTransfer","inputs":[{"name":"sender","type":"address","indexed":true,"internalType":"address"},{"name":"totalAmount","type":"uint256","indexed":false,"internalType":"uint256"},{"name":"recipientCount","type":"uint256","indexed":false,"internalType":"uint256"}],"anonymous":false},{"type":"error","name":"ArrayLengthMismatch","inputs":[{"name":"recipientsLength","type":"uint256","internalType":"uint256"},{"name":"amountsLength","type":"uint256","internalType":"uint256"}]},{"type":"error","name":"ERC20AllowanceQueryFailed","inputs":[{"name":"token","type":"address","internalType":"address"},{"name":"owner","type":"address","internalType":"address"},{"name":"spender","type":"address","internalType":"address"},{"name":"data","type":"bytes","internalType":"bytes"}]},{"type":"error","name":"ERC20BalanceQueryFailed","inputs":[{"name":"token","type":"address","internalType":"address"},{"name":"account","type":"address","internalType":"address"},{"name":"data","type":"bytes","internalType":"bytes"}]},{"type":"error","name":"ERC20InsufficientAllowance","inputs":[{"name":"token","type":"address","internalType":"address"},{"name":"owner","type":"address","internalType":"address"},{"name":"spender","type":"address","internalType":"address"},{"name":"allowanceAmount","type":"uint256","internalType":"uint256"},{"name":"required","type":"uint256","internalType":"uint256"}]},{"type":"error","name":"ERC20InsufficientBalance","inputs":[{"name":"token","type":"address","internalType":"address"},{"name":"owner","type":"address","internalType":"address"},{"name":"balance","type":"uint256","internalType":"uint256"},{"name":"required","type":"uint256","internalType":"uint256"}]},{"type":"error","name":"ERC20InvalidReturn","inputs":[{"name":"token","type":"address","internalType":"address"},{"name":"index","type":"uint256","internalType":"uint256"},{"name":"recipient","type":"address","internalType":"address"},{"name":"amount","type":"uint256","internalType":"uint256"},{"name":"returnData","type":"bytes","internalType":"bytes"}]},{"type":"error","name":"ERC20TransferFailed","inputs":[{"name":"token","type":"address","internalType":"address"},{"name":"index","type":"uint256","internalType":"uint256"},{"name":"recipient","type":"address","internalType":"address"},{"name":"amount","type":"uint256","internalType":"uint256"},{"name":"reason","type":"bytes","internalType":"bytes"}]},{"type":"error","name":"EmptyBatch","inputs":[]},{"type":"error","name":"InvalidToken","inputs":[{"name":"token","type":"address","internalType":"address"}]},{"type":"error","name":"NativeTransferFailed","inputs":[{"name":"index","type":"uint256","internalType":"uint256"},{"name":"recipient","type":"address","internalType":"address"},{"name":"amount","type":"uint256","internalType":"uint256"},{"name":"reason","type":"bytes","internalType":"bytes"}]},{"type":"error","name":"NativeValueMismatch","inputs":[{"name":"expected","type":"uint256","internalType":"uint256"},{"name":"actual","type":"uint256","internalType":"uint256"}]},{"type":"error","name":"ZeroAmount","inputs":[{"name":"index","type":"uint256","internalType":"uint256"}]},{"type":"error","name":"ZeroRecipient","inputs":[{"name":"index","type":"uint256","internalType":"uint256"}]}],"bytecode":{"object":"0x608060405234801561001057600080fd5b50610e5e806100206000396000f3fe60806040526004361061004a5760003560e01c8063593618c31461004f57806366f658e91461007857806379f2447e1461008b5780638afd0b75146100ab57806393bdc1ab146100d8575b600080fd5b34801561005b57600080fd5b5061006561c35081565b6040519081526020015b60405180910390f35b610065610086366004610a82565b6100f8565b34801561009757600080fd5b506100656100a6366004610b0a565b61029b565b3480156100b757600080fd5b506100cb6100c6366004610b8b565b610413565b60405161006f9190610bde565b3480156100e457600080fd5b506100cb6100f3366004610c22565b6104d5565b60006101068585858561058e565b905080341461013657604051635e3b067f60e11b8152600481018290523460248201526044015b60405180910390fd5b8360005b818110156102565760008088888481811061015757610157610c64565b905060200201602081019061016c9190610c7a565b6001600160a01b031687878581811061018757610187610c64565b9050602002013561c35090604051600060405180830381858888f193505050503d80600081146101d3576040519150601f19603f3d011682016040523d82523d6000602084013e6101d8565b606091505b50915091508161024157828989858181106101f5576101f5610c64565b905060200201602081019061020a9190610c7a565b88888681811061021c5761021c610c64565b90506020020135836040516390f98e6960e01b815260040161012d9493929190610cec565b5050808061024e90610d2f565b91505061013a565b50604080518381526020810183905233917f0f2f63731ddda97826ea96b3e76f68f48e70bce356086e61c4ab7e200d1c8cc0910160405180910390a250949350505050565b60006102a6866106b7565b6102b28585858561058e565b905060006102c08733610701565b90508181101561030257604051630ac083e360e41b81526001600160a01b0388166004820152336024820152604481018290526064810183905260840161012d565b600061030f8833306107ef565b90508281101561035757604051634e5a1a0760e11b81526001600160a01b0389166004820152336024820152306044820152606481018290526084810184905260a40161012d565b8560005b818110156103c0576103ae8a338b8b8581811061037a5761037a610c64565b905060200201602081019061038f9190610c7a565b8a8a868181106103a1576103a1610c64565b90506020020135856108e8565b806103b881610d2f565b91505061035b565b50604080518581526020810183905233916001600160a01b038c16917f66177c930e83751b20d2d0579c76a8f7380c417772bdc0d2c23aacb9f771b920910160405180910390a350505095945050505050565b606061041e846106b7565b8167ffffffffffffffff81111561043757610437610d48565b604051908082528060200260200182016040528015610460578160200160208202803683370190505b50905060005b828110156104cd5761049e8585858481811061048457610484610c64565b90506020020160208101906104999190610c7a565b610701565b8282815181106104b0576104b0610c64565b6020908102919091010152806104c581610d2f565b915050610466565b509392505050565b60608167ffffffffffffffff8111156104f0576104f0610d48565b604051908082528060200260200182016040528015610519578160200160208202803683370190505b50905060005b828110156105875783838281811061053957610539610c64565b905060200201602081019061054e9190610c7a565b6001600160a01b03163182828151811061056a5761056a610c64565b60209081029190910101528061057f81610d2f565b91505061051f565b5092915050565b6000838082036105b15760405163c2e5347d60e01b815260040160405180910390fd5b8083146105db57604051631f4bb7c160e31b8152600481018290526024810184905260440161012d565b60005b818110156106ad5760008787838181106105fa576105fa610c64565b905060200201602081019061060f9190610c7a565b6001600160a01b03160361063957604051633bca2f5160e21b81526004810182905260240161012d565b84848281811061064b5761064b610c64565b905060200201356000036106755760405163135ee08960e31b81526004810182905260240161012d565b84848281811061068757610687610c64565b90506020020135836106999190610d5e565b9250806106a581610d2f565b9150506105de565b5050949350505050565b6001600160a01b03811615806106d557506001600160a01b0381163b155b156106fe5760405163961c9a4f60e01b81526001600160a01b038216600482015260240161012d565b50565b604080516001600160a01b0383811660248084019190915283518084039091018152604490920183526020820180516001600160e01b03166370a0823160e01b1790529151600092839283929187169161075b9190610d77565b600060405180830381855afa9150503d8060008114610796576040519150601f19603f3d011682016040523d82523d6000602084013e61079b565b606091505b50915091508115806107ae575060208151105b156107d25784848260405163c6107f8760e01b815260040161012d93929190610d93565b808060200190518101906107e69190610dbf565b95945050505050565b604080516001600160a01b03848116602483015283811660448084019190915283518084039091018152606490920183526020820180516001600160e01b0316636eb1769f60e11b179052915160009283928392918816916108519190610d77565b600060405180830381855afa9150503d806000811461088c576040519150601f19603f3d011682016040523d82523d6000602084013e610891565b606091505b50915091508115806108a4575060208151105b156108ca578585858360405163354102ad60e21b815260040161012d9493929190610dd8565b808060200190518101906108de9190610dbf565b9695505050505050565b604080516001600160a01b0386811660248301528581166044830152606480830186905283518084039091018152608490920183526020820180516001600160e01b03166323b872dd60e01b179052915160009283929089169161094c9190610d77565b6000604051808303816000865af19150503d8060008114610989576040519150601f19603f3d011682016040523d82523d6000602084013e61098e565b606091505b5091509150816109bb5786838686846040516370c0cb4f60e11b815260040161012d959493929190610e0c565b6109c4816109f4565b6109eb57868386868460405163aeab1c0b60e01b815260040161012d959493929190610e0c565b50505050505050565b60008151600003610a0757506001919050565b602082511015610a1957506000919050565b81806020019051810190610a2d9190610dbf565b60011492915050565b60008083601f840112610a4857600080fd5b50813567ffffffffffffffff811115610a6057600080fd5b6020830191508360208260051b8501011115610a7b57600080fd5b9250929050565b60008060008060408587031215610a9857600080fd5b843567ffffffffffffffff80821115610ab057600080fd5b610abc88838901610a36565b90965094506020870135915080821115610ad557600080fd5b50610ae287828801610a36565b95989497509550505050565b80356001600160a01b0381168114610b0557600080fd5b919050565b600080600080600060608688031215610b2257600080fd5b610b2b86610aee565b9450602086013567ffffffffffffffff80821115610b4857600080fd5b610b5489838a01610a36565b90965094506040880135915080821115610b6d57600080fd5b50610b7a88828901610a36565b969995985093965092949392505050565b600080600060408486031215610ba057600080fd5b610ba984610aee565b9250602084013567ffffffffffffffff811115610bc557600080fd5b610bd186828701610a36565b9497909650939450505050565b6020808252825182820181905260009190848201906040850190845b81811015610c1657835183529284019291840191600101610bfa565b50909695505050505050565b60008060208385031215610c3557600080fd5b823567ffffffffffffffff811115610c4c57600080fd5b610c5885828601610a36565b90969095509350505050565b634e487b7160e01b600052603260045260246000fd5b600060208284031215610c8c57600080fd5b610c9582610aee565b9392505050565b60005b83811015610cb7578181015183820152602001610c9f565b50506000910152565b60008151808452610cd8816020860160208601610c9c565b601f01601f19169290920160200192915050565b84815260018060a01b03841660208201528260408201526080606082015260006108de6080830184610cc0565b634e487b7160e01b600052601160045260246000fd5b600060018201610d4157610d41610d19565b5060010190565b634e487b7160e01b600052604160045260246000fd5b80820180821115610d7157610d71610d19565b92915050565b60008251610d89818460208701610c9c565b9190910192915050565b6001600160a01b038481168252831660208201526060604082018190526000906107e690830184610cc0565b600060208284031215610dd157600080fd5b5051919050565b6001600160a01b0385811682528481166020830152831660408201526080606082018190526000906108de90830184610cc0565b6001600160a01b03868116825260208201869052841660408201526060810183905260a060808201819052600090610e4690830184610cc0565b97965050505050505056fea164736f6c6343000811000a","linkReferences":{}},"methodIdentifiers":{"NATIVE_TRANSFER_GAS_LIMIT()":"593618c3","batchTransferERC20(address,address[],uint256[])":"79f2447e","batchTransferNative(address[],uint256[])":"66f658e9","erc20Balances(address,address[])":"8afd0b75","nativeBalances(address[])":"93bdc1ab"},"id":21}