{"abi":[{"type":"constructor","inputs":[{"name":"originBlocks","type":"uint256","internalType":"uint256"},{"name":"phaseBlocks","type":"uint256","internalType":"uint256"}],"stateMutability":"nonpayable"},{"type":"function","name":"JOIN_END_PHASE_BLOCKS","inputs":[],"outputs":[{"name":"","type":"uint256","internalType":"uint256"}],"stateMutability":"view"},{"type":"function","name":"accountToIndex","inputs":[{"name":"tokenAddress","type":"address","internalType":"address"},{"name":"actionId","type":"uint256","internalType":"uint256"},{"name":"account","type":"address","internalType":"address"}],"outputs":[{"name":"","type":"uint256","internalType":"uint256"}],"stateMutability":"view"},{"type":"function","name":"actionIdsByAccount","inputs":[{"name":"tokenAddress","type":"address","internalType":"address"},{"name":"account","type":"address","internalType":"address"}],"outputs":[{"name":"","type":"uint256[]","internalType":"uint256[]"}],"stateMutability":"view"},{"type":"function","name":"actionIdsByAccountAtIndex","inputs":[{"name":"tokenAddress","type":"address","internalType":"address"},{"name":"account","type":"address","internalType":"address"},{"name":"index","type":"uint256","internalType":"uint256"}],"outputs":[{"name":"","type":"uint256","internalType":"uint256"}],"stateMutability":"view"},{"type":"function","name":"actionIdsByAccountCount","inputs":[{"name":"tokenAddress","type":"address","internalType":"address"},{"name":"account","type":"address","internalType":"address"}],"outputs":[{"name":"","type":"uint256","internalType":"uint256"}],"stateMutability":"view"},{"type":"function","name":"amountByAccount","inputs":[{"name":"tokenAddress","type":"address","internalType":"address"},{"name":"account","type":"address","internalType":"address"}],"outputs":[{"name":"","type":"uint256","internalType":"uint256"}],"stateMutability":"view"},{"type":"function","name":"amountByActionId","inputs":[{"name":"tokenAddress","type":"address","internalType":"address"},{"name":"actionId","type":"uint256","internalType":"uint256"}],"outputs":[{"name":"","type":"uint256","internalType":"uint256"}],"stateMutability":"view"},{"type":"function","name":"amountByActionIdByAccount","inputs":[{"name":"tokenAddress","type":"address","internalType":"address"},{"name":"actionId","type":"uint256","internalType":"uint256"},{"name":"account","type":"address","internalType":"address"}],"outputs":[{"name":"","type":"uint256","internalType":"uint256"}],"stateMutability":"view"},{"type":"function","name":"currentRound","inputs":[],"outputs":[{"name":"","type":"uint256","internalType":"uint256"}],"stateMutability":"view"},{"type":"function","name":"indexToAccount","inputs":[{"name":"tokenAddress","type":"address","internalType":"address"},{"name":"actionId","type":"uint256","internalType":"uint256"},{"name":"index","type":"uint256","internalType":"uint256"}],"outputs":[{"name":"","type":"address","internalType":"address"}],"stateMutability":"view"},{"type":"function","name":"initialize","inputs":[{"name":"submitAddress_","type":"address","internalType":"address"},{"name":"voteAddress_","type":"address","internalType":"address"},{"name":"randomAddress_","type":"address","internalType":"address"},{"name":"joinEndPhaseBlocks","type":"uint256","internalType":"uint256"}],"outputs":[],"stateMutability":"nonpayable"},{"type":"function","name":"initialized","inputs":[],"outputs":[{"name":"","type":"bool","internalType":"bool"}],"stateMutability":"view"},{"type":"function","name":"join","inputs":[{"name":"tokenAddress","type":"address","internalType":"address"},{"name":"actionId","type":"uint256","internalType":"uint256"},{"name":"additionalAmount","type":"uint256","internalType":"uint256"},{"name":"verificationInfos_","type":"string[]","internalType":"string[]"}],"outputs":[],"stateMutability":"nonpayable"},{"type":"function","name":"numOfAccounts","inputs":[{"name":"tokenAddress","type":"address","internalType":"address"},{"name":"actionId","type":"uint256","internalType":"uint256"}],"outputs":[{"name":"","type":"uint256","internalType":"uint256"}],"stateMutability":"view"},{"type":"function","name":"originBlocks","inputs":[],"outputs":[{"name":"","type":"uint256","internalType":"uint256"}],"stateMutability":"view"},{"type":"function","name":"phaseBlocks","inputs":[],"outputs":[{"name":"","type":"uint256","internalType":"uint256"}],"stateMutability":"view"},{"type":"function","name":"prefixSum","inputs":[{"name":"tokenAddress","type":"address","internalType":"address"},{"name":"actionId","type":"uint256","internalType":"uint256"},{"name":"index","type":"uint256","internalType":"uint256"}],"outputs":[{"name":"","type":"uint256","internalType":"uint256"}],"stateMutability":"view"},{"type":"function","name":"prepareRandomAccountsIfNeeded","inputs":[{"name":"tokenAddress","type":"address","internalType":"address"},{"name":"actionId","type":"uint256","internalType":"uint256"}],"outputs":[{"name":"","type":"address[]","internalType":"address[]"}],"stateMutability":"nonpayable"},{"type":"function","name":"randomAccounts","inputs":[{"name":"tokenAddress","type":"address","internalType":"address"},{"name":"round","type":"uint256","internalType":"uint256"},{"name":"actionId","type":"uint256","internalType":"uint256"}],"outputs":[{"name":"","type":"address[]","internalType":"address[]"}],"stateMutability":"view"},{"type":"function","name":"randomAccountsByActionIdAtIndex","inputs":[{"name":"tokenAddress","type":"address","internalType":"address"},{"name":"round","type":"uint256","internalType":"uint256"},{"name":"actionId","type":"uint256","internalType":"uint256"},{"name":"index","type":"uint256","internalType":"uint256"}],"outputs":[{"name":"","type":"address","internalType":"address"}],"stateMutability":"view"},{"type":"function","name":"randomAccountsByActionIdCount","inputs":[{"name":"tokenAddress","type":"address","internalType":"address"},{"name":"round","type":"uint256","internalType":"uint256"},{"name":"actionId","type":"uint256","internalType":"uint256"}],"outputs":[{"name":"","type":"uint256","internalType":"uint256"}],"stateMutability":"view"},{"type":"function","name":"randomAccountsByRandomSeed","inputs":[{"name":"tokenAddress","type":"address","internalType":"address"},{"name":"actionId","type":"uint256","internalType":"uint256"},{"name":"randomSeed","type":"uint256","internalType":"uint256"},{"name":"num","type":"uint256","internalType":"uint256"}],"outputs":[{"name":"","type":"address[]","internalType":"address[]"}],"stateMutability":"view"},{"type":"function","name":"randomAddress","inputs":[],"outputs":[{"name":"","type":"address","internalType":"address"}],"stateMutability":"view"},{"type":"function","name":"roundByBlockNumber","inputs":[{"name":"blockNumber","type":"uint256","internalType":"uint256"}],"outputs":[{"name":"","type":"uint256","internalType":"uint256"}],"stateMutability":"view"},{"type":"function","name":"submitAddress","inputs":[],"outputs":[{"name":"","type":"address","internalType":"address"}],"stateMutability":"view"},{"type":"function","name":"updateVerificationInfo","inputs":[{"name":"tokenAddress","type":"address","internalType":"address"},{"name":"actionId","type":"uint256","internalType":"uint256"},{"name":"verificationKeys_","type":"string[]","internalType":"string[]"},{"name":"verificationInfos_","type":"string[]","internalType":"string[]"}],"outputs":[],"stateMutability":"nonpayable"},{"type":"function","name":"verificationInfo","inputs":[{"name":"tokenAddress","type":"address","internalType":"address"},{"name":"account","type":"address","internalType":"address"},{"name":"actionId","type":"uint256","internalType":"uint256"},{"name":"verificationKey","type":"string","internalType":"string"}],"outputs":[{"name":"","type":"string","internalType":"string"}],"stateMutability":"view"},{"type":"function","name":"verificationInfoByRound","inputs":[{"name":"tokenAddress","type":"address","internalType":"address"},{"name":"account","type":"address","internalType":"address"},{"name":"actionId","type":"uint256","internalType":"uint256"},{"name":"verificationKey","type":"string","internalType":"string"},{"name":"round","type":"uint256","internalType":"uint256"}],"outputs":[{"name":"","type":"string","internalType":"string"}],"stateMutability":"view"},{"type":"function","name":"verificationInfoUpdateRoundsAtIndex","inputs":[{"name":"tokenAddress","type":"address","internalType":"address"},{"name":"account","type":"address","internalType":"address"},{"name":"actionId","type":"uint256","internalType":"uint256"},{"name":"verificationKey","type":"string","internalType":"string"},{"name":"index","type":"uint256","internalType":"uint256"}],"outputs":[{"name":"","type":"uint256","internalType":"uint256"}],"stateMutability":"view"},{"type":"function","name":"verificationInfoUpdateRoundsCount","inputs":[{"name":"tokenAddress","type":"address","internalType":"address"},{"name":"account","type":"address","internalType":"address"},{"name":"actionId","type":"uint256","internalType":"uint256"},{"name":"verificationKey","type":"string","internalType":"string"}],"outputs":[{"name":"","type":"uint256","internalType":"uint256"}],"stateMutability":"view"},{"type":"function","name":"voteAddress","inputs":[],"outputs":[{"name":"","type":"address","internalType":"address"}],"stateMutability":"view"},{"type":"function","name":"withdraw","inputs":[{"name":"tokenAddress","type":"address","internalType":"address"},{"name":"actionId","type":"uint256","internalType":"uint256"}],"outputs":[{"name":"","type":"uint256","internalType":"uint256"}],"stateMutability":"nonpayable"},{"type":"event","name":"Join","inputs":[{"name":"tokenAddress","type":"address","indexed":true,"internalType":"address"},{"name":"currentRound","type":"uint256","indexed":false,"internalType":"uint256"},{"name":"actionId","type":"uint256","indexed":true,"internalType":"uint256"},{"name":"account","type":"address","indexed":true,"internalType":"address"},{"name":"additionalStakeAmount","type":"uint256","indexed":false,"internalType":"uint256"}],"anonymous":false},{"type":"event","name":"PrepareRandomAccounts","inputs":[{"name":"tokenAddress","type":"address","indexed":true,"internalType":"address"},{"name":"round","type":"uint256","indexed":false,"internalType":"uint256"},{"name":"actionId","type":"uint256","indexed":true,"internalType":"uint256"},{"name":"accounts","type":"address[]","indexed":false,"internalType":"address[]"}],"anonymous":false},{"type":"event","name":"UpdateVerificationInfo","inputs":[{"name":"tokenAddress","type":"address","indexed":true,"internalType":"address"},{"name":"account","type":"address","indexed":true,"internalType":"address"},{"name":"actionId","type":"uint256","indexed":false,"internalType":"uint256"},{"name":"verificationKey","type":"string","indexed":true,"internalType":"string"},{"name":"round","type":"uint256","indexed":false,"internalType":"uint256"},{"name":"verificationInfo","type":"string","indexed":false,"internalType":"string"}],"anonymous":false},{"type":"event","name":"Withdraw","inputs":[{"name":"tokenAddress","type":"address","indexed":true,"internalType":"address"},{"name":"currentRound","type":"uint256","indexed":false,"internalType":"uint256"},{"name":"actionId","type":"uint256","indexed":true,"internalType":"uint256"},{"name":"account","type":"address","indexed":true,"internalType":"address"},{"name":"amount","type":"uint256","indexed":false,"internalType":"uint256"}],"anonymous":false},{"type":"error","name":"ActionNotVoted","inputs":[]},{"type":"error","name":"AlreadyInitialized","inputs":[]},{"type":"error","name":"AmountIsZero","inputs":[]},{"type":"error","name":"JoinAmountLessThanMinStake","inputs":[]},{"type":"error","name":"JoinedAmountIsZero","inputs":[]},{"type":"error","name":"LastBlocksOfPhaseCannotJoin","inputs":[]},{"type":"error","name":"NotWhiteListAddress","inputs":[]},{"type":"error","name":"RoundNotStarted","inputs":[]}],"bytecode":{"object":"0x60c06040523480156200001157600080fd5b50604051620031e5380380620031e5833981016040819052620000349162000043565b60809190915260a05262000068565b600080604083850312156200005757600080fd5b505080516020909101519092909150565b60805160a051613142620000a3600039600081816102dc0152610655015260008181610416015281816105e3015261062901526131426000f3fe608060405234801561001057600080fd5b50600436106101f05760003560e01c8063aba73f931161010f578063d34567be116100a2578063e04bb12811610071578063e04bb12814610533578063e388878f14610546578063e5add0311461055e578063f3fef3a31461059757600080fd5b8063d34567be146104b3578063d5bee9f5146104fa578063d7a973ca1461050d578063d8a232621461052057600080fd5b8063b94d9128116100de578063b94d912814610441578063ba51c7a614610454578063c6140a1c1461048d578063cf756fdf146104a057600080fd5b8063aba73f93146103eb578063b0c21cdc146103fe578063b2ad373014610411578063b6f3ed6b1461043857600080fd5b8063695796d311610187578063804fe20a11610156578063804fe20a146103795780638a19c8bc146103bd5780639ae295bd146103c5578063a3782c23146103d857600080fd5b8063695796d3146103115780636a8989c6146103245780636c6ef62c146103445780637fc343621461036457600080fd5b8063409d2dc1116101c3578063409d2dc11461027657806345be6ae91461029657806360a918b7146102d7578063680a8c9a146102fe57600080fd5b8063158ef93e146101f55780631dc10886146102175780633bdf9f13146102385780633d6dc9281461024b575b600080fd5b6000546102029060ff1681565b60405190151581526020015b60405180910390f35b61022a61022536600461250b565b6105aa565b60405190815260200161020e565b61022a610246366004612537565b6105df565b60015461025e906001600160a01b031681565b6040516001600160a01b03909116815260200161020e565b610289610284366004612550565b610681565b60405161020e91906125c9565b61022a6102a4366004612550565b6001600160a01b038316600090815260066020908152604080832085845282528083208484529091529020549392505050565b61022a7f000000000000000000000000000000000000000000000000000000000000000081565b61022a61030c36600461261d565b61078b565b61022a61031f366004612697565b610803565b61033761033236600461261d565b610850565b60405161020e9190612728565b61035761035236600461273b565b6109c8565b60405161020e9190612774565b6103776103723660046127b8565b610a41565b005b61025e610387366004612550565b6001600160a01b039283166000908152600460209081526040808320948352938152838220928252600190920190915220541690565b61022a610def565b6102896103d336600461250b565b610dff565b61022a6103e6366004612850565b610e0b565b61022a6103f936600461273b565b610e40565b61022a61040c366004612892565b610f0c565b61022a7f000000000000000000000000000000000000000000000000000000000000000081565b61022a60035481565b61028961044f366004612904565b610f69565b61022a61046236600461250b565b6001600160a01b03919091166000908152600460209081526040808320938352929052206003015490565b61025e61049b366004612904565b610f9a565b6103776104ae36600461293f565b610ff5565b61022a6104c1366004612850565b6001600160a01b038084166000908152600460209081526040808320868452825280832093851683526002909301905220549392505050565b60025461025e906001600160a01b031681565b61022a61051b366004612550565b611075565b61033761052e366004612892565b6110a2565b610377610541366004612b60565b61127e565b60005461025e9061010090046001600160a01b031681565b61022a61056c36600461273b565b6001600160a01b03918216600090815260056020908152604080832093909416825291909152205490565b61022a6105a536600461250b565b6112e1565b6001600160a01b038216600090815260046020908152604080832084845290915281206105d690611430565b90505b92915050565b60007f0000000000000000000000000000000000000000000000000000000000000000821015610622576040516323a71b8760e21b815260040160405180910390fd5b600061064e7f000000000000000000000000000000000000000000000000000000000000000084612bf5565b905061067a7f000000000000000000000000000000000000000000000000000000000000000082612c1e565b9392505050565b6060826000036106bf5760005b6040519080825280602002602001820160405280156106b7578160200160208202803683370190505b50905061067a565b6001600160a01b0384166000908152600660209081526040808320868452825280832085845282528083208054825181850281018501909352808352919290919083018282801561073957602002820191906000526020600020905b81546001600160a01b0316815260019091019060200180831161071b575b5050505050905060008151111561075157905061067a565b61075c85858561145f565b156107735761076b8584611508565b91505061067a565b50506040805160008152602081019091529392505050565b6001600160a01b0380871660009081526008602090815260408083209389168352928152828220878352905281812091519091906107cc9086908690612c32565b908152602001604051809103902082815481106107eb576107eb612c42565b906000526020600020015490505b9695505050505050565b6001600160a01b038084166000908152600560209081526040808320938616835292905290812080548390811061083c5761083c612c42565b906000526020600020015490509392505050565b6001600160a01b038087166000908152600860209081526040808320938916835292815282822087835290528181209151606092906108929087908790612c32565b90815260405190819003602001902090506000806108b0838661164c565b91509150816108d3576040518060200160405280600081525093505050506107f9565b6001600160a01b03808b166000908152600760209081526040808320938d1683529281528282208b8352905281902090516109119089908990612c32565b90815260200160405180910390206000828152602001908152602001600020805461093b90612c58565b80601f016020809104026020016040519081016040528092919081815260200182805461096790612c58565b80156109b45780601f10610989576101008083540402835291602001916109b4565b820191906000526020600020905b81548152906001019060200180831161099757829003601f168201915b505050505093505050509695505050505050565b6001600160a01b038083166000908152600560209081526040808320938516835292815290829020805483518184028101840190945280845260609392830182828015610a3457602002820191906000526020600020905b815481526020019060010190808311610a20575b5050505050905092915050565b6000610a4b610def565b905080610a5f600354436102469190612c92565b14610a7d5760405163074d7a6b60e01b815260040160405180910390fd5b600154604051634f42bc2960e11b81526001600160a01b038881166004830152602482018490526044820188905290911690639e85785290606401602060405180830381865afa158015610ad5573d6000803e3d6000fd5b505050506040513d601f19601f82011682018060405250810190610af99190612ca5565b610b16576040516317793beb60e01b815260040160405180910390fd5b83600003610b37576040516310eb483f60e21b815260040160405180910390fd5b610b4186866117d9565b506000610b4f878733610e0b565b6000805460405163a3770fcb60e01b81526001600160a01b038b81166004830152602482018b90529394509192610100909104169063a3770fcb90604401600060405180830381865afa158015610baa573d6000803e3d6000fd5b505050506040513d6000823e601f3d908101601f19168201604052610bd29190810190612da6565b905081600003610cd457602081015151861015610c025760405163f33b201160e01b815260040160405180910390fd5b600054604051634b030f0b60e11b81526001600160a01b038a81166004830152602482018a9052336044830152610100909204909116906396061e1690606401602060405180830381865afa158015610c5f573d6000803e3d6000fd5b505050506040513d601f19601f82011682018060405250810190610c839190612ca5565b610ca057604051633e8fb1b360e11b815260040160405180910390fd5b6001600160a01b03881660009081526005602090815260408083203384528252822080546001810182559083529120018790555b6001600160a01b03881660009081526004602090815260408083208a84529091529020610d02818833611968565b506040516323b872dd60e01b8152336004820152306024820152604481018890526001600160a01b038a16906323b872dd906064016020604051808303816000875af1158015610d56573d6000803e3d6000fd5b505050506040513d601f19601f82011682018060405250810190610d7a9190612ca5565b508415610d9c57610d9c8989846020015160a001518989906105419190612f13565b604080518581526020810189905233918a916001600160a01b038d16917fe37fea01e65dea7d589abafc4bd0d5282a09ddce3e9ea971ed3399d776a1a296910160405180910390a4505050505050505050565b6000610dfa436105df565b905090565b60606105d683836117d9565b6001600160a01b03831660009081526004602090815260408083208584529091528120610e389083611a57565b949350505050565b6001600160a01b03808316600090815260056020908152604080832093851683529281528282208054845181840281018401909552808552929384939092830182828015610ead57602002820191906000526020600020905b815481526020019060010190808311610e99575b505050505090506000805b8251811015610f0357610ee586848381518110610ed757610ed7612c42565b602002602001015187610e0b565b610eef9083612c92565b915080610efb81612f20565b915050610eb8565b50949350505050565b6001600160a01b038086166000908152600860209081526040808320938816835292815282822086835290528181209151909190610f4d9085908590612c32565b9081526040519081900360200190205490505b95945050505050565b6001600160a01b03841660009081526004602090815260408083208684529091529020606090610f60908484611a8d565b6001600160a01b038416600090815260066020908152604080832086845282528083208584529091528120805483908110610fd757610fd7612c42565b6000918252602090912001546001600160a01b031695945050505050565b60005460ff16156110185760405162dc149f60e41b815260040160405180910390fd5b60008054600180546001600160a01b03199081166001600160a01b0397881617825560028054909116958716959095179094556003929092556001600160a81b0319909116610100949093169390930260ff191691909117179055565b6001600160a01b03831660009081526004602090815260408083208584529091528120610e389083611ad4565b6001600160a01b038086166000908152600860209081526040808320938816835292815282822086835290528181209151606092906110e49086908690612c32565b908152604080519182900360209081018320805480830285018301909352828452919083018282801561113657602002820191906000526020600020905b815481526020019060010190808311611122575b50505050509050805160000361115c575050604080516020810190915260008152610f60565b6000816001835161116d9190612bf5565b8151811061117d5761117d612c42565b6020908102919091018101516001600160a01b03808b166000908152600784526040808220928c1682529184528181208a82529093529182902091519092506111c99087908790612c32565b9081526020016040518091039020600082815260200190815260200160002080546111f390612c58565b80601f016020809104026020016040519081016040528092919081815260200182805461121f90612c58565b801561126c5780601f106112415761010080835404028352916020019161126c565b820191906000526020600020905b81548152906001019060200180831161124f57829003601f168201915b50505050509250505095945050505050565b60005b82518110156112da576112c885858584815181106112a1576112a1612c42565b60200260200101518585815181106112bb576112bb612c42565b6020026020010151611b43565b806112d281612f20565b915050611281565b5050505050565b60006112ed83836117d9565b506001600160a01b0383166000908152600460209081526040808320858452909152812061131b9033611cc1565b90508060000361133e576040516301ba688760e41b815260040160405180910390fd5b6001600160a01b0384166000908152600560209081526040808320338452909152902061136b9084611e1b565b60405163a9059cbb60e01b8152336004820152602481018290526001600160a01b0385169063a9059cbb906044016020604051808303816000875af11580156113b8573d6000803e3d6000fd5b505050506040513d601f19601f820116820180604052508101906113dc9190612ca5565b5033836001600160a01b0386167f67c680c232fa9400adef6a1ad234c1d6d15a44170b85fddb60ceed23e31c3220611412610def565b60408051918252602082018790520160405180910390a49392505050565b6000816003015460000361144657506000919050565b5060048101546000908152602091909152604090205490565b6000826000036114715750600061067a565b61147c836001612c92565b611484610def565b148015610e385750600154604051634f42bc2960e11b81526001600160a01b038681166004830152602482018690526044820185905290911690639e85785290606401602060405180830381865afa1580156114e4573d6000803e3d6000fd5b505050506040513d601f19601f82011682018060405250810190610e389190612ca5565b6000805460405163a3770fcb60e01b81526001600160a01b03858116600483015260248201859052606093926101009004169063a3770fcb90604401600060405180830381865afa158015611561573d6000803e3d6000fd5b505050506040513d6000823e601f3d908101601f191682016040526115899190810190612da6565b60209081015101516002549091506000906001600160a01b0316636fc5a2d660016115b2610def565b6115bc9190612bf5565b6040518263ffffffff1660e01b81526004016115da91815260200190565b602060405180830381865afa1580156115f7573d6000803e3d6000fd5b505050506040513d601f19601f8201168201806040525081019061161b9190612f39565b6001600160a01b03861660009081526004602090815260408083208884529091529020909150610f60908284611a8d565b815460009081908103611664575060009050806117d2565b828460008154811061167857611678612c42565b90600052602060002001541115611694575060009050806117d2565b8354839085906116a690600190612bf5565b815481106116b6576116b6612c42565b9060005260206000200154116116fc57835460019085906116d8908390612bf5565b815481106116e8576116e8612c42565b9060005260206000200154915091506117d2565b8354600090819061170f90600190612bf5565b905060008660008154811061172657611726612c42565b906000526020600020015490505b8183116117c957600060026117498585612bf5565b6117539190612c1e565b61175d9085612c92565b90508688828154811061177257611772612c42565b9060005260206000200154116117b55787818154811061179457611794612c42565b906000526020600020015491508060016117ae9190612c92565b93506117c3565b6117c0600182612bf5565b92505b50611734565b60019450925050505b9250929050565b606060006117e5610def565b9050600181116118055750506040805160008152602081019091526105d9565b6000611812600183612bf5565b6001600160a01b03861660009081526006602090815260408083208484528252808320888452825291829020805483518184028101840190945280845293945091929083018282801561188e57602002820191906000526020600020905b81546001600160a01b03168152600190910190602001808311611870575b505050505092506000835111156118a65750506105d9565b6118b185828661145f565b6118cd57505060408051600081526020810190915290506105d9565b6118d78585611508565b8051909350156119605783856001600160a01b03167f4c3fd86a7f7f6af84d13a177aa8885d020b91a4bdc96c663661dba824d7bda5b838660405161191d929190612f52565b60405180910390a36001600160a01b038516600090815260066020908152604080832084845282528083208784528252909120845161195e92860190612479565b505b505092915050565b6001600160a01b0381166000908152600284016020526040812054808203611a4c57600585015460ff166119af5760016004860181905560058601805460ff191690911790555b6003850180549060006119c183612f20565b9091555050506003840180546000818152600187016020908152604080832080546001600160a01b0319166001600160a01b03891690811790915583526002890190915290208190556004860154915490919003611a4c576003850154611a29906002612f6b565b600486018190556003860154600090815260208790526040808220549282529020555b610e38858286611ed6565b6001600160a01b0381166000908152600283016020526040812054808203611a835760009150506105d9565b610e388482611f1e565b6060811580611a9e57506003840154155b15611aaa57600061068e565b6000611abf8484611aba88611430565b611f65565b905060006107f9868360008960030154612068565b6000811580611ae557506003830154155b15611af2575060006105d9565b60038301548290811115611b07575060038301545b6000815b8015610f0357600081815260208790526040902054611b2a9083612c92565b9150611b3c6001821901821682612bf5565b9050611b0b565b6000611b4d610def565b6001600160a01b0386166000908152600860209081526040808320338452825280832088845290915280822090519293509091611b8b908690612f82565b90815260405190819003602001902080549091501580611bd65750805482908290611bb890600190612bf5565b81548110611bc857611bc8612c42565b906000526020600020015414155b15611bf1578054600181018255600082815260209020018290555b6001600160a01b03861660009081526007602090815260408083203384528252808320888452909152908190209051849190611c2e908790612f82565b908152604080516020928190038301902060008681529252902090611c539082612fed565b5083604051611c629190612f82565b6040518091039020336001600160a01b0316876001600160a01b03167fff176c339295def81410968806a88c81984ef8dfe1672fe908b3d6f236c615fb888688604051611cb1939291906130ac565b60405180910390a4505050505050565b6001600160a01b0381166000908152600283016020526040812054808203611ced5760009150506105d9565b6000611cf98583611f1e565b6003860154909150828103611d5257611d13868484612283565b6001600160a01b0385166000908152600287016020908152604080832083905585835260018901909152902080546001600160a01b0319169055611dfa565b6000611d5e8783611f1e565b905082811115611d8157611d7c8785611d778685612bf5565b611ed6565b611d95565b611d958785611d908487612bf5565b612283565b611da0878383612283565b5060008181526001870160209081526040808320805487855282852080546001600160a01b039283166001600160a01b0319918216811790925590865260028c019094528285208890558154909316905590871682528120555b600386018054906000611e0c836130cb565b90915550919695505050505050565b815460005b81811015611ed05782848281548110611e3b57611e3b612c42565b906000526020600020015403611ebe5783611e57600184612bf5565b81548110611e6757611e67612c42565b9060005260206000200154848281548110611e8457611e84612c42565b906000526020600020018190555083805480611ea257611ea26130e2565b6001900381819060005260206000200160009055905550505050565b80611ec881612f20565b915050611e20565b50505050565b815b83600401548111611ed05760008181526020859052604081208054849290611f01908490612c92565b909155505080196001018116611f179082612c92565b9050611ed8565b6000811580611f305750826003015482115b15611f3d575060006105d9565b611f5183611f4c600185612bf5565b611ad4565b611f5b8484611ad4565b6105d69190612bf5565b6060811580611f72575082155b15611f7e57600061068e565b6000836001600160401b03811115611f9857611f98612990565b604051908082528060200260200182016040528015611fc1578160200160208202803683370190505b5090506000611fd08585612c1e565b905060008187604051602001611fe891815260200190565b6040516020818303038152906040528051906020012060001c61200b91906130f8565b905060005b8681101561205c57816120238483612f6b565b61202d9190612c92565b84828151811061203f5761203f612c42565b60209081029190910101528061205481612f20565b915050612010565b50919695505050505050565b606083516000036120885750604080516000815260208101909152610e38565b600084516001600160401b038111156120a3576120a3612990565b6040519080825280602002602001820160405280156120cc578160200160208202803683370190505b509050826120db856001612c92565b0361214b576040805160018082528183019092529060208083019080368337505050600084815260018801602052604081205482519293506001600160a01b03169183919061212c5761212c612c42565b6001600160a01b03909216602092830291909101909101529050610e38565b600061215785856122cb565b905060008061216f8861216a8b86611ad4565b612308565b9150915060006121818a848a87612068565b905060006121918b84878b612068565b90506000805b8351811015612202578381815181106121b2576121b2612c42565b60200260200101518883806121c690612f20565b9450815181106121d8576121d8612c42565b6001600160a01b0390921660209283029190910190910152806121fa81612f20565b915050612197565b5060005b82518110156122715782818151811061222157612221612c42565b602002602001015188838061223590612f20565b94508151811061224757612247612c42565b6001600160a01b03909216602092830291909101909101528061226981612f20565b915050612206565b50865250939998505050505050505050565b815b83600401548111611ed057600081815260208590526040812080548492906122ae908490612bf5565b9091555050801960010181166122c49082612c92565b9050612285565b600060015b6122da8484612bf5565b8110156122f3576122ec600282612f6b565b90506122d0565b6122fe600282612c1e565b610e389085612c92565b606080600084516001600160401b0381111561232657612326612990565b60405190808252806020026020018201604052801561234f578160200160208202803683370190505b509050600085516001600160401b0381111561236d5761236d612990565b604051908082528060200260200182016040528015612396578160200160208202803683370190505b50905060008060005b885181101561246857878982815181106123bb576123bb612c42565b602002602001015111612411578881815181106123da576123da612c42565b60200260200101518584806123ee90612f20565b95508151811061240057612400612c42565b602002602001018181525050612456565b88818151811061242357612423612c42565b602002602001015184838061243790612f20565b94508151811061244957612449612c42565b6020026020010181815250505b8061246081612f20565b91505061239f565b509083528152909590945092505050565b8280548282559060005260206000209081019282156124ce579160200282015b828111156124ce57825182546001600160a01b0319166001600160a01b03909116178255602090920191600190910190612499565b506124da9291506124de565b5090565b5b808211156124da57600081556001016124df565b6001600160a01b038116811461250857600080fd5b50565b6000806040838503121561251e57600080fd5b8235612529816124f3565b946020939093013593505050565b60006020828403121561254957600080fd5b5035919050565b60008060006060848603121561256557600080fd5b8335612570816124f3565b95602085013595506040909401359392505050565b600081518084526020808501945080840160005b838110156125be5781516001600160a01b031687529582019590820190600101612599565b509495945050505050565b6020815260006105d66020830184612585565b60008083601f8401126125ee57600080fd5b5081356001600160401b0381111561260557600080fd5b6020830191508360208285010111156117d257600080fd5b60008060008060008060a0878903121561263657600080fd5b8635612641816124f3565b95506020870135612651816124f3565b94506040870135935060608701356001600160401b0381111561267357600080fd5b61267f89828a016125dc565b979a9699509497949695608090950135949350505050565b6000806000606084860312156126ac57600080fd5b83356126b7816124f3565b925060208401356126c7816124f3565b929592945050506040919091013590565b60005b838110156126f35781810151838201526020016126db565b50506000910152565b600081518084526127148160208601602086016126d8565b601f01601f19169290920160200192915050565b6020815260006105d660208301846126fc565b6000806040838503121561274e57600080fd5b8235612759816124f3565b91506020830135612769816124f3565b809150509250929050565b6020808252825182820181905260009190848201906040850190845b818110156127ac57835183529284019291840191600101612790565b50909695505050505050565b6000806000806000608086880312156127d057600080fd5b85356127db816124f3565b9450602086013593506040860135925060608601356001600160401b038082111561280557600080fd5b818801915088601f83011261281957600080fd5b81358181111561282857600080fd5b8960208260051b850101111561283d57600080fd5b9699959850939650602001949392505050565b60008060006060848603121561286557600080fd5b8335612870816124f3565b9250602084013591506040840135612887816124f3565b809150509250925092565b6000806000806000608086880312156128aa57600080fd5b85356128b5816124f3565b945060208601356128c5816124f3565b93506040860135925060608601356001600160401b038111156128e757600080fd5b6128f3888289016125dc565b969995985093965092949392505050565b6000806000806080858703121561291a57600080fd5b8435612925816124f3565b966020860135965060408601359560600135945092505050565b6000806000806080858703121561295557600080fd5b8435612960816124f3565b93506020850135612970816124f3565b92506040850135612980816124f3565b9396929550929360600135925050565b634e487b7160e01b600052604160045260246000fd5b604080519081016001600160401b03811182821017156129c8576129c8612990565b60405290565b604051606081016001600160401b03811182821017156129c8576129c8612990565b60405160e081016001600160401b03811182821017156129c8576129c8612990565b604051601f8201601f191681016001600160401b0381118282101715612a3a57612a3a612990565b604052919050565b60006001600160401b03821115612a5b57612a5b612990565b5060051b60200190565b60006001600160401b03821115612a7e57612a7e612990565b50601f01601f191660200190565b6000612a9f612a9a84612a42565b612a12565b8381529050602080820190600585901b840186811115612abe57600080fd5b845b81811015612b355780356001600160401b03811115612adf5760008081fd5b8601601f81018913612af15760008081fd5b8035612aff612a9a82612a65565b8181528a86838501011115612b145760008081fd5b81868401878301376000918101860191909152855250928201928201612ac0565b505050509392505050565b600082601f830112612b5157600080fd5b6105d683833560208501612a8c565b60008060008060808587031215612b7657600080fd5b8435612b81816124f3565b93506020850135925060408501356001600160401b0380821115612ba457600080fd5b612bb088838901612b40565b93506060870135915080821115612bc657600080fd5b50612bd387828801612b40565b91505092959194509250565b634e487b7160e01b600052601160045260246000fd5b818103818111156105d9576105d9612bdf565b634e487b7160e01b600052601260045260246000fd5b600082612c2d57612c2d612c08565b500490565b8183823760009101908152919050565b634e487b7160e01b600052603260045260246000fd5b600181811c90821680612c6c57607f821691505b602082108103612c8c57634e487b7160e01b600052602260045260246000fd5b50919050565b808201808211156105d9576105d9612bdf565b600060208284031215612cb757600080fd5b8151801515811461067a57600080fd5b8051612cd2816124f3565b919050565b600082601f830112612ce857600080fd5b8151612cf6612a9a82612a65565b818152846020838601011115612d0b57600080fd5b610e388260208301602087016126d8565b600082601f830112612d2d57600080fd5b81516020612d3d612a9a83612a42565b82815260059290921b84018101918181019086841115612d5c57600080fd5b8286015b84811015612d9b5780516001600160401b03811115612d7f5760008081fd5b612d8d8986838b0101612cd7565b845250918301918301612d60565b509695505050505050565b60006020808385031215612db957600080fd5b82516001600160401b0380821115612dd057600080fd5b908401908186036080811215612de557600080fd5b612ded6129a6565b6060821215612dfb57600080fd5b612e036129ce565b91508351825284840151612e16816124f3565b828601526040848101519083015290815260608301519082821115612e3a57600080fd5b9281019260e08489031215612e4e57600080fd5b612e566129f0565b9150835182528484015185830152612e7060408501612cc7565b6040830152606084015183811115612e8757600080fd5b612e9389828701612cd7565b606084015250608084015183811115612eab57600080fd5b612eb789828701612cd7565b60808401525060a084015183811115612ecf57600080fd5b612edb89828701612d1c565b60a08401525060c084015183811115612ef357600080fd5b612eff89828701612d1c565b60c084015250938401525090949350505050565b60006105d6368484612a8c565b600060018201612f3257612f32612bdf565b5060010190565b600060208284031215612f4b57600080fd5b5051919050565b828152604060208201526000610e386040830184612585565b80820281158282048414176105d9576105d9612bdf565b60008251612f948184602087016126d8565b9190910192915050565b601f821115612fe857600081815260208120601f850160051c81016020861015612fc55750805b601f850160051c820191505b81811015612fe457828155600101612fd1565b5050505b505050565b81516001600160401b0381111561300657613006612990565b61301a816130148454612c58565b84612f9e565b602080601f83116001811461304f57600084156130375750858301515b600019600386901b1c1916600185901b178555612fe4565b600085815260208120601f198616915b8281101561307e5788860151825594840194600190910190840161305f565b508582101561309c5787850151600019600388901b60f8161c191681555b5050505050600190811b01905550565b838152826020820152606060408201526000610f6060608301846126fc565b6000816130da576130da612bdf565b506000190190565b634e487b7160e01b600052603160045260246000fd5b60008261310757613107612c08565b50069056fea2646970667358221220487ec22718593cca6906a6be7a52ba90d2541324fb5061a46d994aa81b0480fe64736f6c63430008110033","linkReferences":{}},"methodIdentifiers":{"JOIN_END_PHASE_BLOCKS()":"b6f3ed6b","accountToIndex(address,uint256,address)":"d34567be","actionIdsByAccount(address,address)":"6c6ef62c","actionIdsByAccountAtIndex(address,address,uint256)":"695796d3","actionIdsByAccountCount(address,address)":"e5add031","amountByAccount(address,address)":"aba73f93","amountByActionId(address,uint256)":"1dc10886","amountByActionIdByAccount(address,uint256,address)":"a3782c23","currentRound()":"8a19c8bc","indexToAccount(address,uint256,uint256)":"804fe20a","initialize(address,address,address,uint256)":"cf756fdf","initialized()":"158ef93e","join(address,uint256,uint256,string[])":"7fc34362","numOfAccounts(address,uint256)":"ba51c7a6","originBlocks()":"b2ad3730","phaseBlocks()":"60a918b7","prefixSum(address,uint256,uint256)":"d7a973ca","prepareRandomAccountsIfNeeded(address,uint256)":"9ae295bd","randomAccounts(address,uint256,uint256)":"409d2dc1","randomAccountsByActionIdAtIndex(address,uint256,uint256,uint256)":"c6140a1c","randomAccountsByActionIdCount(address,uint256,uint256)":"45be6ae9","randomAccountsByRandomSeed(address,uint256,uint256,uint256)":"b94d9128","randomAddress()":"d5bee9f5","roundByBlockNumber(uint256)":"3bdf9f13","submitAddress()":"e388878f","updateVerificationInfo(address,uint256,string[],string[])":"e04bb128","verificationInfo(address,address,uint256,string)":"d8a23262","verificationInfoByRound(address,address,uint256,string,uint256)":"6a8989c6","verificationInfoUpdateRoundsAtIndex(address,address,uint256,string,uint256)":"680a8c9a","verificationInfoUpdateRoundsCount(address,address,uint256,string)":"b0c21cdc","voteAddress()":"3d6dc928","withdraw(address,uint256)":"f3fef3a3"},"id":41}