{"abi":[{"type":"constructor","inputs":[{"name":"originBlocks","type":"uint256","internalType":"uint256"},{"name":"phaseBlocks","type":"uint256","internalType":"uint256"}],"stateMutability":"nonpayable"},{"type":"function","name":"JOIN_END_PHASE_BLOCKS","inputs":[],"outputs":[{"name":"","type":"uint256","internalType":"uint256"}],"stateMutability":"view"},{"type":"function","name":"accountToIndex","inputs":[{"name":"tokenAddress","type":"address","internalType":"address"},{"name":"actionId","type":"uint256","internalType":"uint256"},{"name":"account","type":"address","internalType":"address"}],"outputs":[{"name":"","type":"uint256","internalType":"uint256"}],"stateMutability":"view"},{"type":"function","name":"actionIdsByAccount","inputs":[{"name":"tokenAddress","type":"address","internalType":"address"},{"name":"account","type":"address","internalType":"address"}],"outputs":[{"name":"","type":"uint256[]","internalType":"uint256[]"}],"stateMutability":"view"},{"type":"function","name":"amountByAccount","inputs":[{"name":"tokenAddress","type":"address","internalType":"address"},{"name":"account","type":"address","internalType":"address"}],"outputs":[{"name":"","type":"uint256","internalType":"uint256"}],"stateMutability":"view"},{"type":"function","name":"amountByActionId","inputs":[{"name":"tokenAddress","type":"address","internalType":"address"},{"name":"actionId","type":"uint256","internalType":"uint256"}],"outputs":[{"name":"","type":"uint256","internalType":"uint256"}],"stateMutability":"view"},{"type":"function","name":"amountByActionIdByAccount","inputs":[{"name":"tokenAddress","type":"address","internalType":"address"},{"name":"actionId","type":"uint256","internalType":"uint256"},{"name":"account","type":"address","internalType":"address"}],"outputs":[{"name":"","type":"uint256","internalType":"uint256"}],"stateMutability":"view"},{"type":"function","name":"currentRound","inputs":[],"outputs":[{"name":"","type":"uint256","internalType":"uint256"}],"stateMutability":"view"},{"type":"function","name":"indexToAccount","inputs":[{"name":"tokenAddress","type":"address","internalType":"address"},{"name":"actionId","type":"uint256","internalType":"uint256"},{"name":"index","type":"uint256","internalType":"uint256"}],"outputs":[{"name":"","type":"address","internalType":"address"}],"stateMutability":"view"},{"type":"function","name":"initialize","inputs":[{"name":"submitAddress_","type":"address","internalType":"address"},{"name":"voteAddress_","type":"address","internalType":"address"},{"name":"randomAddress_","type":"address","internalType":"address"},{"name":"joinEndPhaseBlocks","type":"uint256","internalType":"uint256"}],"outputs":[],"stateMutability":"nonpayable"},{"type":"function","name":"initialized","inputs":[],"outputs":[{"name":"","type":"bool","internalType":"bool"}],"stateMutability":"view"},{"type":"function","name":"join","inputs":[{"name":"tokenAddress","type":"address","internalType":"address"},{"name":"actionId","type":"uint256","internalType":"uint256"},{"name":"additionalAmount","type":"uint256","internalType":"uint256"},{"name":"verificationInfos_","type":"string[]","internalType":"string[]"},{"name":"to","type":"address","internalType":"address"}],"outputs":[],"stateMutability":"nonpayable"},{"type":"function","name":"numOfAccounts","inputs":[{"name":"tokenAddress","type":"address","internalType":"address"},{"name":"actionId","type":"uint256","internalType":"uint256"}],"outputs":[{"name":"","type":"uint256","internalType":"uint256"}],"stateMutability":"view"},{"type":"function","name":"originBlocks","inputs":[],"outputs":[{"name":"","type":"uint256","internalType":"uint256"}],"stateMutability":"view"},{"type":"function","name":"phaseBlocks","inputs":[],"outputs":[{"name":"","type":"uint256","internalType":"uint256"}],"stateMutability":"view"},{"type":"function","name":"prefixSum","inputs":[{"name":"tokenAddress","type":"address","internalType":"address"},{"name":"actionId","type":"uint256","internalType":"uint256"},{"name":"index","type":"uint256","internalType":"uint256"}],"outputs":[{"name":"","type":"uint256","internalType":"uint256"}],"stateMutability":"view"},{"type":"function","name":"prepareRandomAccountsIfNeeded","inputs":[{"name":"tokenAddress","type":"address","internalType":"address"},{"name":"actionId","type":"uint256","internalType":"uint256"}],"outputs":[],"stateMutability":"nonpayable"},{"type":"function","name":"randomAccounts","inputs":[{"name":"tokenAddress","type":"address","internalType":"address"},{"name":"round","type":"uint256","internalType":"uint256"},{"name":"actionId","type":"uint256","internalType":"uint256"}],"outputs":[{"name":"","type":"address[]","internalType":"address[]"}],"stateMutability":"view"},{"type":"function","name":"randomAccountsByRandomSeed","inputs":[{"name":"tokenAddress","type":"address","internalType":"address"},{"name":"actionId","type":"uint256","internalType":"uint256"},{"name":"randomSeed","type":"uint256","internalType":"uint256"},{"name":"num","type":"uint256","internalType":"uint256"}],"outputs":[{"name":"","type":"address[]","internalType":"address[]"}],"stateMutability":"view"},{"type":"function","name":"randomAddress","inputs":[],"outputs":[{"name":"","type":"address","internalType":"address"}],"stateMutability":"view"},{"type":"function","name":"roundByBlockNumber","inputs":[{"name":"blockNumber","type":"uint256","internalType":"uint256"}],"outputs":[{"name":"","type":"uint256","internalType":"uint256"}],"stateMutability":"view"},{"type":"function","name":"submitAddress","inputs":[],"outputs":[{"name":"","type":"address","internalType":"address"}],"stateMutability":"view"},{"type":"function","name":"updateVerificationInfo","inputs":[{"name":"tokenAddress","type":"address","internalType":"address"},{"name":"verificationKeys_","type":"string[]","internalType":"string[]"},{"name":"verificationInfos_","type":"string[]","internalType":"string[]"}],"outputs":[],"stateMutability":"nonpayable"},{"type":"function","name":"verificationInfo","inputs":[{"name":"tokenAddress","type":"address","internalType":"address"},{"name":"accountAddress","type":"address","internalType":"address"},{"name":"verificationKey","type":"string","internalType":"string"}],"outputs":[{"name":"","type":"string","internalType":"string"}],"stateMutability":"view"},{"type":"function","name":"verificationInfoByRound","inputs":[{"name":"tokenAddress","type":"address","internalType":"address"},{"name":"accountAddress","type":"address","internalType":"address"},{"name":"verificationKey","type":"string","internalType":"string"},{"name":"round","type":"uint256","internalType":"uint256"}],"outputs":[{"name":"","type":"string","internalType":"string"}],"stateMutability":"view"},{"type":"function","name":"voteAddress","inputs":[],"outputs":[{"name":"","type":"address","internalType":"address"}],"stateMutability":"view"},{"type":"function","name":"withdraw","inputs":[{"name":"tokenAddress","type":"address","internalType":"address"},{"name":"actionId","type":"uint256","internalType":"uint256"}],"outputs":[{"name":"","type":"uint256","internalType":"uint256"}],"stateMutability":"nonpayable"},{"type":"event","name":"Join","inputs":[{"name":"tokenAddress","type":"address","indexed":true,"internalType":"address"},{"name":"currentRound","type":"uint256","indexed":true,"internalType":"uint256"},{"name":"actionId","type":"uint256","indexed":true,"internalType":"uint256"},{"name":"account","type":"address","indexed":false,"internalType":"address"},{"name":"additionalStakeAmount","type":"uint256","indexed":false,"internalType":"uint256"}],"anonymous":false},{"type":"event","name":"PrepareRandomAccounts","inputs":[{"name":"tokenAddress","type":"address","indexed":true,"internalType":"address"},{"name":"round","type":"uint256","indexed":true,"internalType":"uint256"},{"name":"actionId","type":"uint256","indexed":true,"internalType":"uint256"},{"name":"accounts","type":"address[]","indexed":false,"internalType":"address[]"}],"anonymous":false},{"type":"event","name":"UpdateVerificationInfo","inputs":[{"name":"tokenAddress","type":"address","indexed":true,"internalType":"address"},{"name":"account","type":"address","indexed":true,"internalType":"address"},{"name":"verificationKey","type":"string","indexed":true,"internalType":"string"},{"name":"round","type":"uint256","indexed":false,"internalType":"uint256"},{"name":"verificationInfo","type":"string","indexed":false,"internalType":"string"}],"anonymous":false},{"type":"event","name":"Withdraw","inputs":[{"name":"tokenAddress","type":"address","indexed":true,"internalType":"address"},{"name":"currentRound","type":"uint256","indexed":true,"internalType":"uint256"},{"name":"actionId","type":"uint256","indexed":true,"internalType":"uint256"},{"name":"account","type":"address","indexed":false,"internalType":"address"},{"name":"withdrawnAmount","type":"uint256","indexed":false,"internalType":"uint256"}],"anonymous":false},{"type":"error","name":"ActionNotVoted","inputs":[]},{"type":"error","name":"AddressCannotBeZero","inputs":[]},{"type":"error","name":"AlreadyInitialized","inputs":[]},{"type":"error","name":"AmountIsZero","inputs":[]},{"type":"error","name":"CannotGenerateAtCurrentRound","inputs":[]},{"type":"error","name":"InvalidToAddress","inputs":[]},{"type":"error","name":"JoinAmountLessThanMinStake","inputs":[]},{"type":"error","name":"JoinedAmountIsZero","inputs":[]},{"type":"error","name":"LastBlocksOfPhaseCannotJoin","inputs":[]},{"type":"error","name":"NotInWhiteList","inputs":[]},{"type":"error","name":"RoundNotStarted","inputs":[]}],"bytecode":{"object":"0x60c06040523480156200001157600080fd5b506040516200316238038062003162833981016040819052620000349162000043565b60809190915260a05262000068565b600080604083850312156200005757600080fd5b505080516020909101519092909150565b60805160a0516130bf620000a360003960008181610239015261052d01526000818161034d015281816104bb015261050101526130bf6000f3fe608060405234801561001057600080fd5b506004361061018e5760003560e01c8063a710461e116100de578063cf756fdf11610097578063d7a973ca11610071578063d7a973ca14610431578063d8b2389f14610444578063e388878f14610457578063f3fef3a31461046f57600080fd5b8063cf756fdf146103c4578063d34567be146103d7578063d5bee9f51461041e57600080fd5b8063a710461e14610322578063aba73f9314610335578063b2ad373014610348578063b6f3ed6b1461036f578063b94d912814610378578063ba51c7a61461038b57600080fd5b806362b5ef891161014b5780638a19c8bc116101255780638a19c8bc146102d45780639ae295bd146102dc5780639bc51d1d146102ef578063a3782c231461030f57600080fd5b806362b5ef891461025b5780636c6ef62c14610270578063804fe20a1461029057600080fd5b8063158ef93e146101935780631dc10886146101b55780633bdf9f13146101d65780633d6dc928146101e9578063409d2dc11461021457806360a918b714610234575b600080fd5b6000546101a09060ff1681565b60405190151581526020015b60405180910390f35b6101c86101c3366004612489565b610482565b6040519081526020016101ac565b6101c86101e43660046124b5565b6104b7565b6001546101fc906001600160a01b031681565b6040516001600160a01b0390911681526020016101ac565b6102276102223660046124ce565b610559565b6040516101ac9190612503565b6101c87f000000000000000000000000000000000000000000000000000000000000000081565b61026e610269366004612721565b610663565b005b61028361027e366004612796565b6106c4565b6040516101ac91906127cf565b6101fc61029e3660046124ce565b6001600160a01b039283166000908152600460209081526040808320948352938152838220928252600190920190915220541690565b6101c861073d565b61026e6102ea366004612489565b61074d565b6103026102fd366004612848565b61075b565b6040516101ac9190612904565b6101c861031d366004612917565b610a40565b610302610330366004612959565b610a75565b6101c8610343366004612796565b610c40565b6101c87f000000000000000000000000000000000000000000000000000000000000000081565b6101c860035481565b6102276103863660046129bd565b610d0c565b6101c8610399366004612489565b6001600160a01b03919091166000908152600460209081526040808320938352929052206003015490565b61026e6103d23660046129f8565b610d3d565b6101c86103e5366004612917565b6001600160a01b038084166000908152600460209081526040808320868452825280832093851683526002909301905220549392505050565b6002546101fc906001600160a01b031681565b6101c861043f3660046124ce565b610e0a565b61026e610452366004612a49565b610e37565b6000546101fc9061010090046001600160a01b031681565b6101c861047d366004612489565b6112b3565b6001600160a01b038216600090815260046020908152604080832084845290915281206104ae90611402565b90505b92915050565b60007f00000000000000000000000000000000000000000000000000000000000000008210156104fa576040516323a71b8760e21b815260040160405180910390fd5b60006105267f000000000000000000000000000000000000000000000000000000000000000084612b09565b90506105527f000000000000000000000000000000000000000000000000000000000000000082612b32565b9392505050565b6060826000036105975760005b60405190808252806020026020018201604052801561058f578160200160208202803683370190505b509050610552565b6001600160a01b0384166000908152600660209081526040808320868452825280832085845282528083208054825181850281018501909352808352919290919083018282801561061157602002820191906000526020600020905b81546001600160a01b031681526001909101906020018083116105f3575b50505050509050600081511115610629579050610552565b610634858585611426565b1561064b5761064385846114cf565b915050610552565b50506040805160008152602081019091529392505050565b60005b82518110156106be576106ac8484838151811061068557610685612b46565b602002602001015184848151811061069f5761069f612b46565b6020026020010151611613565b806106b681612b5c565b915050610666565b50505050565b6001600160a01b03808316600090815260056020908152604080832093851683529281529082902080548351818402810184019094528084526060939283018282801561073057602002820191906000526020600020905b81548152602001906001019080831161071c575b5050505050905092915050565b6000610748436104b7565b905090565b610757828261177e565b5050565b6001600160a01b03808616600090815260086020908152604080832093881683529290528181209151606092906107959087908790612b75565b90815260405190819003602001902080549091506000036107c6575050604080516020810190915260008152610a37565b806000815481106107d9576107d9612b46565b9060005260206000200154831015610801575050604080516020810190915260008152610a37565b8054819061081190600190612b09565b8154811061082157610821612b46565b90600052602060002001548310610944576001600160a01b038088166000908152600760209081526040808320938a16835292905281902090516108689087908790612b75565b90815260200160405180910390206000826001848054905061088a9190612b09565b8154811061089a5761089a612b46565b9060005260206000200154815260200190815260200160002080546108be90612b85565b80601f01602080910402602001604051908101604052809291908181526020018280546108ea90612b85565b80156109375780601f1061090c57610100808354040283529160200191610937565b820191906000526020600020905b81548152906001019060200180831161091a57829003601f168201915b5050505050915050610a37565b6000610950828561188d565b6001600160a01b03808a166000908152600760209081526040808320938c16835292905281902090519192509061098a9088908890612b75565b9081526020016040518091039020600082815260200190815260200160002080546109b490612b85565b80601f01602080910402602001604051908101604052809291908181526020018280546109e090612b85565b8015610a2d5780601f10610a0257610100808354040283529160200191610a2d565b820191906000526020600020905b815481529060010190602001808311610a1057829003601f168201915b5050505050925050505b95945050505050565b6001600160a01b03831660009081526004602090815260408083208584529091528120610a6d9083611976565b949350505050565b6001600160a01b0380851660009081526008602090815260408083209387168352929052818120915160609290610aaf9086908690612b75565b9081526040805191829003602090810183208054808302850183019093528284529190830182828015610b0157602002820191906000526020600020905b815481526020019060010190808311610aed575b505050505090508051600003610b27575050604080516020810190915260008152610a6d565b60008160018351610b389190612b09565b81518110610b4857610b48612b46565b6020908102919091018101516001600160a01b03808a166000908152600784526040808220928b16825291909352918290209151909250610b8c9087908790612b75565b908152602001604051809103902060008281526020019081526020016000208054610bb690612b85565b80601f0160208091040260200160405190810160405280929190818152602001828054610be290612b85565b8015610c2f5780601f10610c0457610100808354040283529160200191610c2f565b820191906000526020600020905b815481529060010190602001808311610c1257829003601f168201915b505050505092505050949350505050565b6001600160a01b03808316600090815260056020908152604080832093851683529281528282208054845181840281018401909552808552929384939092830182828015610cad57602002820191906000526020600020905b815481526020019060010190808311610c99575b505050505090506000805b8251811015610d0357610ce586848381518110610cd757610cd7612b46565b602002602001015187610a40565b610cef9083612bbf565b915080610cfb81612b5c565b915050610cb8565b50949350505050565b6001600160a01b03841660009081526004602090815260408083208684529091529020606090610a379084846119ac565b60005460ff1615610d605760405162dc149f60e41b815260040160405180910390fd5b6001600160a01b0384161580610d7d57506001600160a01b038316155b80610d8f57506001600160a01b038216155b15610dad576040516303988b8160e61b815260040160405180910390fd5b60008054600180546001600160a01b03199081166001600160a01b0397881617825560039490945560028054909416948616949094179092556001600160a81b0319909116610100949093169390930260ff191691909117179055565b6001600160a01b03831660009081526004602090815260408083208584529091528120610a6d90836119fd565b436000610e4261073d565b905080610e56600354846101e49190612bbf565b14610e745760405163074d7a6b60e01b815260040160405180910390fd5b600154604051634f42bc2960e11b81526001600160a01b038a8116600483015260248201849052604482018a905290911690639e85785290606401602060405180830381865afa158015610ecc573d6000803e3d6000fd5b505050506040513d601f19601f82011682018060405250810190610ef09190612bd2565b610f0d576040516317793beb60e01b815260040160405180910390fd5b6001600160a01b038316610f3457604051638aa3a72f60e01b815260040160405180910390fd5b85600003610f55576040516310eb483f60e21b815260040160405180910390fd5b610f5f888861177e565b6000610f6c898986610a40565b6000805460405163a3770fcb60e01b81526001600160a01b038d81166004830152602482018d90529394509192610100909104169063a3770fcb90604401600060405180830381865afa158015610fc7573d6000803e3d6000fd5b505050506040513d6000823e601f3d908101601f19168201604052610fef9190810190612d27565b6020810151519091506110028984612bbf565b10156110215760405163f33b201160e01b815260040160405180910390fd5b81600003611102576000546040516277e2d360e71b81526001600160a01b038c81166004830152602482018c9052878116604483015261010090920490911690633bf1698090606401602060405180830381865afa158015611087573d6000803e3d6000fd5b505050506040513d601f19601f820116820180604052508101906110ab9190612bd2565b6110c857604051639ad59b9760e01b815260040160405180910390fd5b6001600160a01b03808b16600090815260056020908152604080832093891683529281529181208054600181018255908252919020018990555b6001600160a01b038a1660009081526004602090815260408083208c84529091529020600581015460ff1661113a5761113a81611a6c565b611145818a88611ae0565b506040516323b872dd60e01b8152336004820152306024820152604481018a90526001600160a01b038c16906323b872dd906064016020604051808303816000875af1158015611199573d6000803e3d6000fd5b505050506040513d601f19601f820116820180604052508101906111bd9190612bd2565b50861561125b5760005460405163a3770fcb60e01b81526001600160a01b038d81166004830152602482018d905261125b928e926101009091049091169063a3770fcb90604401600060405180830381865afa158015611221573d6000803e3d6000fd5b505050506040513d6000823e601f3d908101601f191682016040526112499190810190612d27565b6020015160c001516102698a8c612ecc565b604080516001600160a01b038881168252602082018c90528c928792918f16917fe37fea01e65dea7d589abafc4bd0d5282a09ddce3e9ea971ed3399d776a1a296910160405180910390a45050505050505050505050565b60006112bf838361177e565b6001600160a01b038316600090815260046020908152604080832085845290915281206112ec9033611b68565b90508060000361130f576040516301ba688760e41b815260040160405180910390fd5b6001600160a01b0384166000908152600560209081526040808320338452909152902061133c9084611cc2565b60405163a9059cbb60e01b8152336004820152602481018290526001600160a01b0385169063a9059cbb906044016020604051808303816000875af1158015611389573d6000803e3d6000fd5b505050506040513d601f19601f820116820180604052508101906113ad9190612bd2565b50826113b761073d565b60408051338152602081018590526001600160a01b038816917f67c680c232fa9400adef6a1ad234c1d6d15a44170b85fddb60ceed23e31c3220910160405180910390a49392505050565b6000816003015460000361141857506000919050565b6104b18283600301546119fd565b60008260000361143857506000610552565b611443836001612bbf565b61144b61073d565b148015610a6d5750600154604051634f42bc2960e11b81526001600160a01b038681166004830152602482018690526044820185905290911690639e85785290606401602060405180830381865afa1580156114ab573d6000803e3d6000fd5b505050506040513d601f19601f82011682018060405250810190610a6d9190612bd2565b6000805460405163a3770fcb60e01b81526001600160a01b03858116600483015260248201859052606093926101009004169063a3770fcb90604401600060405180830381865afa158015611528573d6000803e3d6000fd5b505050506040513d6000823e601f3d908101601f191682016040526115509190810190612d27565b60209081015101516002549091506000906001600160a01b0316636fc5a2d6600161157961073d565b6115839190612b09565b6040518263ffffffff1660e01b81526004016115a191815260200190565b602060405180830381865afa1580156115be573d6000803e3d6000fd5b505050506040513d601f19601f820116820180604052508101906115e29190612ed9565b6001600160a01b03861660009081526004602090815260408083208884529091529020909150610a379082846119ac565b600061161d61073d565b6001600160a01b038516600090815260086020908152604080832033845290915280822090519293509091611653908690612ef2565b9081526040519081900360200190208054909150158061169e575080548290829061168090600190612b09565b8154811061169057611690612b46565b906000526020600020015414155b156116b9578054600181018255600082815260209020018290555b6001600160a01b03851660009081526007602090815260408083203384529091529081902090518491906116ee908790612ef2565b9081526040805160209281900383019020600086815292529020906117139082612f59565b50836040516117229190612ef2565b6040518091039020336001600160a01b0316866001600160a01b03167f51592b79d4424aa6d35dbfdc2bbd38d8ea35f9197e44784c92cd86f0f58f23e0858760405161176f929190613018565b60405180910390a45050505050565b600061178861073d565b90506001811161179757505050565b60006117a4600183612b09565b90506117b1848285611426565b6117bb5750505050565b6001600160a01b03841660009081526006602090815260408083208484528252808320868452909152902054156117f25750505050565b60006117fe85856114cf565b805190915015611886578382866001600160a01b03167f4c3fd86a7f7f6af84d13a177aa8885d020b91a4bdc96c663661dba824d7bda5b846040516118439190612503565b60405180910390a46001600160a01b0385166000908152600660209081526040808320858452825280832087845282529091208251611884928401906123e7565b505b5050505050565b815460009081036118a0575060006104b1565b8254829084906118b290600190612b09565b815481106118c2576118c2612b46565b90600052602060002001541161190457825483906118e290600190612b09565b815481106118f2576118f2612b46565b906000526020600020015490506104b1565b60006119108484611d77565b90508284828154811061192557611925612b46565b906000526020600020015411801561193d5750600081115b15611950578061194c81613031565b9150505b83818154811061196257611962612b46565b906000526020600020015491505092915050565b6001600160a01b03811660009081526002830160205260408120548082036119a25760009150506104b1565b610a6d8482611df3565b60608115806119bd57506003840154155b156119c9576000610566565b60006119de84846119d988611402565b611e3a565b905060006119f3868360008960030154611f3d565b9695505050505050565b6000811580611a0e57506003830154155b15611a1b575060006104b1565b60038301548290811115611a30575060038301545b6000815b8015610d0357600081815260208790526040902054611a539083612bbf565b9150611a656001821901821682612b09565b9050611a34565b600581015460ff1615611ac55760405162461bcd60e51b815260206004820152601860248201527f5472656520616c726561647920696e697469616c697a65640000000000000000604482015260640160405180910390fd5b6001600482018190556005909101805460ff19169091179055565b6001600160a01b0381166000908152600284016020526040812054808203611b5d57600385018054906000611b1483612b5c565b90915550505060038401546000818152600186016020908152604080832080546001600160a01b0319166001600160a01b03881690811790915583526002880190915290208190555b610a6d858286612158565b6001600160a01b0381166000908152600283016020526040812054808203611b945760009150506104b1565b6000611ba08583611df3565b6003860154909150828103611bf957611bba8684846121ef565b6001600160a01b0385166000908152600287016020908152604080832083905585835260018901909152902080546001600160a01b0319169055611ca1565b6000611c058783611df3565b905082811115611c2857611c238785611c1e8685612b09565b612158565b611c3c565b611c3c8785611c378487612b09565b6121ef565b611c478783836121ef565b5060008181526001870160209081526040808320805487855282852080546001600160a01b039283166001600160a01b0319918216811790925590865260028c019094528285208890558154909316905590871682528120555b600386018054906000611cb383613031565b90915550919695505050505050565b815460005b818110156106be5782848281548110611ce257611ce2612b46565b906000526020600020015403611d655783611cfe600184612b09565b81548110611d0e57611d0e612b46565b9060005260206000200154848281548110611d2b57611d2b612b46565b906000526020600020018190555083805480611d4957611d49613048565b6001900381819060005260206000200160009055905550505050565b80611d6f81612b5c565b915050611cc7565b815460009081905b80821015611deb5760006002611d958484612b09565b611d9f9190612b32565b611da99084612bbf565b905084868281548110611dbe57611dbe612b46565b90600052602060002001541015611de157611dda816001612bbf565b9250611de5565b8091505b50611d7f565b509392505050565b6000811580611e055750826003015482115b15611e12575060006104b1565b611e2683611e21600185612b09565b6119fd565b611e3084846119fd565b6104ae9190612b09565b6060811580611e47575082155b15611e53576000610566565b6000836001600160401b03811115611e6d57611e6d612550565b604051908082528060200260200182016040528015611e96578160200160208202803683370190505b5090506000611ea58585612b32565b905060008187604051602001611ebd91815260200190565b6040516020818303038152906040528051906020012060001c611ee0919061305e565b905060005b86811015611f315781611ef88483613072565b611f029190612bbf565b848281518110611f1457611f14612b46565b602090810291909101015280611f2981612b5c565b915050611ee5565b50919695505050505050565b60608351600003611f5d5750604080516000815260208101909152610a6d565b600084516001600160401b03811115611f7857611f78612550565b604051908082528060200260200182016040528015611fa1578160200160208202803683370190505b50905082611fb0856001612bbf565b03612020576040805160018082528183019092529060208083019080368337505050600084815260018801602052604081205482519293506001600160a01b03169183919061200157612001612b46565b6001600160a01b03909216602092830291909101909101529050610a6d565b600061202c8585612237565b90506000806120448861203f8b866119fd565b612274565b9150915060006120568a848a87611f3d565b905060006120668b84878b611f3d565b90506000805b83518110156120d75783818151811061208757612087612b46565b602002602001015188838061209b90612b5c565b9450815181106120ad576120ad612b46565b6001600160a01b0390921660209283029190910190910152806120cf81612b5c565b91505061206c565b5060005b8251811015612146578281815181106120f6576120f6612b46565b602002602001015188838061210a90612b5c565b94508151811061211c5761211c612b46565b6001600160a01b03909216602092830291909101909101528061213e81612b5c565b9150506120db565b50865250939998505050505050505050565b815b836004015481116121a05760008181526020859052604081208054849290612183908490612bbf565b9091555050801960010181166121999082612bbf565b905061215a565b8360030154831480156121b857508219600101831683145b156106be5760038401546121cd906002613072565b6004850181905560009384526020949094525050604080822054928252902055565b815b836004015481116106be576000818152602085905260408120805484929061221a908490612b09565b9091555050801960010181166122309082612bbf565b90506121f1565b600060015b6122468484612b09565b81101561225f57612258600282613072565b905061223c565b61226a600282612b32565b610a6d9085612bbf565b606080600084516001600160401b0381111561229257612292612550565b6040519080825280602002602001820160405280156122bb578160200160208202803683370190505b509050600085516001600160401b038111156122d9576122d9612550565b604051908082528060200260200182016040528015612302578160200160208202803683370190505b50905060008060005b88518110156123d4578789828151811061232757612327612b46565b60200260200101511161237d5788818151811061234657612346612b46565b602002602001015185848061235a90612b5c565b95508151811061236c5761236c612b46565b6020026020010181815250506123c2565b88818151811061238f5761238f612b46565b60200260200101518483806123a390612b5c565b9450815181106123b5576123b5612b46565b6020026020010181815250505b806123cc81612b5c565b91505061230b565b50908352815290925090505b9250929050565b82805482825590600052602060002090810192821561243c579160200282015b8281111561243c57825182546001600160a01b0319166001600160a01b03909116178255602090920191600190910190612407565b5061244892915061244c565b5090565b5b80821115612448576000815560010161244d565b6001600160a01b038116811461247657600080fd5b50565b803561248481612461565b919050565b6000806040838503121561249c57600080fd5b82356124a781612461565b946020939093013593505050565b6000602082840312156124c757600080fd5b5035919050565b6000806000606084860312156124e357600080fd5b83356124ee81612461565b95602085013595506040909401359392505050565b6020808252825182820181905260009190848201906040850190845b818110156125445783516001600160a01b03168352928401929184019160010161251f565b50909695505050505050565b634e487b7160e01b600052604160045260246000fd5b604080519081016001600160401b038111828210171561258857612588612550565b60405290565b604051606081016001600160401b038111828210171561258857612588612550565b60405161010081016001600160401b038111828210171561258857612588612550565b604051601f8201601f191681016001600160401b03811182821017156125fb576125fb612550565b604052919050565b60006001600160401b0382111561261c5761261c612550565b5060051b60200190565b60006001600160401b0382111561263f5761263f612550565b50601f01601f191660200190565b600061266061265b84612603565b6125d3565b8381529050602080820190600585901b84018681111561267f57600080fd5b845b818110156126f65780356001600160401b038111156126a05760008081fd5b8601601f810189136126b25760008081fd5b80356126c061265b82612626565b8181528a868385010111156126d55760008081fd5b81868401878301376000918101860191909152855250928201928201612681565b505050509392505050565b600082601f83011261271257600080fd5b6104ae8383356020850161264d565b60008060006060848603121561273657600080fd5b833561274181612461565b925060208401356001600160401b038082111561275d57600080fd5b61276987838801612701565b9350604086013591508082111561277f57600080fd5b5061278c86828701612701565b9150509250925092565b600080604083850312156127a957600080fd5b82356127b481612461565b915060208301356127c481612461565b809150509250929050565b6020808252825182820181905260009190848201906040850190845b81811015612544578351835292840192918401916001016127eb565b60008083601f84011261281957600080fd5b5081356001600160401b0381111561283057600080fd5b6020830191508360208285010111156123e057600080fd5b60008060008060006080868803121561286057600080fd5b853561286b81612461565b9450602086013561287b81612461565b935060408601356001600160401b0381111561289657600080fd5b6128a288828901612807565b96999598509660600135949350505050565b60005b838110156128cf5781810151838201526020016128b7565b50506000910152565b600081518084526128f08160208601602086016128b4565b601f01601f19169290920160200192915050565b6020815260006104ae60208301846128d8565b60008060006060848603121561292c57600080fd5b833561293781612461565b925060208401359150604084013561294e81612461565b809150509250925092565b6000806000806060858703121561296f57600080fd5b843561297a81612461565b9350602085013561298a81612461565b925060408501356001600160401b038111156129a557600080fd5b6129b187828801612807565b95989497509550505050565b600080600080608085870312156129d357600080fd5b84356129de81612461565b966020860135965060408601359560600135945092505050565b60008060008060808587031215612a0e57600080fd5b8435612a1981612461565b93506020850135612a2981612461565b92506040850135612a3981612461565b9396929550929360600135925050565b60008060008060008060a08789031215612a6257600080fd5b8635612a6d81612461565b9550602087013594506040870135935060608701356001600160401b0380821115612a9757600080fd5b818901915089601f830112612aab57600080fd5b813581811115612aba57600080fd5b8a60208260051b8501011115612acf57600080fd5b602083019550809450505050612ae760808801612479565b90509295509295509295565b634e487b7160e01b600052601160045260246000fd5b818103818111156104b1576104b1612af3565b634e487b7160e01b600052601260045260246000fd5b600082612b4157612b41612b1c565b500490565b634e487b7160e01b600052603260045260246000fd5b600060018201612b6e57612b6e612af3565b5060010190565b8183823760009101908152919050565b600181811c90821680612b9957607f821691505b602082108103612bb957634e487b7160e01b600052602260045260246000fd5b50919050565b808201808211156104b1576104b1612af3565b600060208284031215612be457600080fd5b8151801515811461055257600080fd5b600082601f830112612c0557600080fd5b81516020612c1561265b83612603565b82815260059290921b84018101918181019086841115612c3457600080fd5b8286015b84811015612c58578051612c4b81612461565b8352918301918301612c38565b509695505050505050565b600082601f830112612c7457600080fd5b8151612c8261265b82612626565b818152846020838601011115612c9757600080fd5b610a6d8260208301602087016128b4565b600082601f830112612cb957600080fd5b81516020612cc961265b83612603565b82815260059290921b84018101918181019086841115612ce857600080fd5b8286015b84811015612c585780516001600160401b03811115612d0b5760008081fd5b612d198986838b0101612c63565b845250918301918301612cec565b60006020808385031215612d3a57600080fd5b82516001600160401b0380821115612d5157600080fd5b908401908186036080811215612d6657600080fd5b612d6e612566565b6060821215612d7c57600080fd5b612d8461258e565b91508351825284840151612d9781612461565b828601526040848101519083015290815260608301519082821115612dbb57600080fd5b928101926101008489031215612dd057600080fd5b612dd86125b0565b9150835182528484015185830152604084015183811115612df857600080fd5b612e0489828701612bf4565b604084015250606084015183811115612e1c57600080fd5b612e2889828701612c63565b606084015250608084015183811115612e4057600080fd5b612e4c89828701612c63565b60808401525060a084015183811115612e6457600080fd5b612e7089828701612c63565b60a08401525060c084015183811115612e8857600080fd5b612e9489828701612ca8565b60c08401525060e084015183811115612eac57600080fd5b612eb889828701612ca8565b60e084015250938401525090949350505050565b60006104ae36848461264d565b600060208284031215612eeb57600080fd5b5051919050565b60008251612f048184602087016128b4565b9190910192915050565b601f821115612f5457600081815260208120601f850160051c81016020861015612f355750805b601f850160051c820191505b8181101561188457828155600101612f41565b505050565b81516001600160401b03811115612f7257612f72612550565b612f8681612f808454612b85565b84612f0e565b602080601f831160018114612fbb5760008415612fa35750858301515b600019600386901b1c1916600185901b178555611884565b600085815260208120601f198616915b82811015612fea57888601518255948401946001909101908401612fcb565b50858210156130085787850151600019600388901b60f8161c191681555b5050505050600190811b01905550565b828152604060208201526000610a6d60408301846128d8565b60008161304057613040612af3565b506000190190565b634e487b7160e01b600052603160045260246000fd5b60008261306d5761306d612b1c565b500690565b80820281158282048414176104b1576104b1612af356fea26469706673582212202f5b18c58ae9d96cf30d1150b1c088e5581383fa1e49017931048f3cd9f4ab9f64736f6c63430008130033","linkReferences":{}},"methodIdentifiers":{"JOIN_END_PHASE_BLOCKS()":"b6f3ed6b","accountToIndex(address,uint256,address)":"d34567be","actionIdsByAccount(address,address)":"6c6ef62c","amountByAccount(address,address)":"aba73f93","amountByActionId(address,uint256)":"1dc10886","amountByActionIdByAccount(address,uint256,address)":"a3782c23","currentRound()":"8a19c8bc","indexToAccount(address,uint256,uint256)":"804fe20a","initialize(address,address,address,uint256)":"cf756fdf","initialized()":"158ef93e","join(address,uint256,uint256,string[],address)":"d8b2389f","numOfAccounts(address,uint256)":"ba51c7a6","originBlocks()":"b2ad3730","phaseBlocks()":"60a918b7","prefixSum(address,uint256,uint256)":"d7a973ca","prepareRandomAccountsIfNeeded(address,uint256)":"9ae295bd","randomAccounts(address,uint256,uint256)":"409d2dc1","randomAccountsByRandomSeed(address,uint256,uint256,uint256)":"b94d9128","randomAddress()":"d5bee9f5","roundByBlockNumber(uint256)":"3bdf9f13","submitAddress()":"e388878f","updateVerificationInfo(address,string[],string[])":"62b5ef89","verificationInfo(address,address,string)":"a710461e","verificationInfoByRound(address,address,string,uint256)":"9bc51d1d","voteAddress()":"3d6dc928","withdraw(address,uint256)":"f3fef3a3"},"id":37}