{"abi":[{"type":"constructor","inputs":[{"name":"originBlocks","type":"uint256","internalType":"uint256"},{"name":"phaseBlocks","type":"uint256","internalType":"uint256"}],"stateMutability":"nonpayable"},{"type":"function","name":"JOIN_END_PHASE_BLOCKS","inputs":[],"outputs":[{"name":"","type":"uint256","internalType":"uint256"}],"stateMutability":"view"},{"type":"function","name":"accountToIndex","inputs":[{"name":"tokenAddress","type":"address","internalType":"address"},{"name":"actionId","type":"uint256","internalType":"uint256"},{"name":"account","type":"address","internalType":"address"}],"outputs":[{"name":"","type":"uint256","internalType":"uint256"}],"stateMutability":"view"},{"type":"function","name":"actionIdsByAccount","inputs":[{"name":"tokenAddress","type":"address","internalType":"address"},{"name":"account","type":"address","internalType":"address"}],"outputs":[{"name":"","type":"uint256[]","internalType":"uint256[]"}],"stateMutability":"view"},{"type":"function","name":"amountByAccount","inputs":[{"name":"tokenAddress","type":"address","internalType":"address"},{"name":"account","type":"address","internalType":"address"}],"outputs":[{"name":"","type":"uint256","internalType":"uint256"}],"stateMutability":"view"},{"type":"function","name":"amountByActionId","inputs":[{"name":"tokenAddress","type":"address","internalType":"address"},{"name":"actionId","type":"uint256","internalType":"uint256"}],"outputs":[{"name":"","type":"uint256","internalType":"uint256"}],"stateMutability":"view"},{"type":"function","name":"amountByActionIdByAccount","inputs":[{"name":"tokenAddress","type":"address","internalType":"address"},{"name":"actionId","type":"uint256","internalType":"uint256"},{"name":"account","type":"address","internalType":"address"}],"outputs":[{"name":"","type":"uint256","internalType":"uint256"}],"stateMutability":"view"},{"type":"function","name":"currentRound","inputs":[],"outputs":[{"name":"","type":"uint256","internalType":"uint256"}],"stateMutability":"view"},{"type":"function","name":"indexToAccount","inputs":[{"name":"tokenAddress","type":"address","internalType":"address"},{"name":"actionId","type":"uint256","internalType":"uint256"},{"name":"index","type":"uint256","internalType":"uint256"}],"outputs":[{"name":"","type":"address","internalType":"address"}],"stateMutability":"view"},{"type":"function","name":"initialize","inputs":[{"name":"submitAddress_","type":"address","internalType":"address"},{"name":"voteAddress_","type":"address","internalType":"address"},{"name":"randomAddress_","type":"address","internalType":"address"},{"name":"joinEndPhaseBlocks","type":"uint256","internalType":"uint256"}],"outputs":[],"stateMutability":"nonpayable"},{"type":"function","name":"initialized","inputs":[],"outputs":[{"name":"","type":"bool","internalType":"bool"}],"stateMutability":"view"},{"type":"function","name":"join","inputs":[{"name":"tokenAddress","type":"address","internalType":"address"},{"name":"actionId","type":"uint256","internalType":"uint256"},{"name":"additionalAmount","type":"uint256","internalType":"uint256"},{"name":"verificationInfos_","type":"string[]","internalType":"string[]"},{"name":"to","type":"address","internalType":"address"}],"outputs":[],"stateMutability":"nonpayable"},{"type":"function","name":"numOfAccounts","inputs":[{"name":"tokenAddress","type":"address","internalType":"address"},{"name":"actionId","type":"uint256","internalType":"uint256"}],"outputs":[{"name":"","type":"uint256","internalType":"uint256"}],"stateMutability":"view"},{"type":"function","name":"originBlocks","inputs":[],"outputs":[{"name":"","type":"uint256","internalType":"uint256"}],"stateMutability":"view"},{"type":"function","name":"phaseBlocks","inputs":[],"outputs":[{"name":"","type":"uint256","internalType":"uint256"}],"stateMutability":"view"},{"type":"function","name":"prefixSum","inputs":[{"name":"tokenAddress","type":"address","internalType":"address"},{"name":"actionId","type":"uint256","internalType":"uint256"},{"name":"index","type":"uint256","internalType":"uint256"}],"outputs":[{"name":"","type":"uint256","internalType":"uint256"}],"stateMutability":"view"},{"type":"function","name":"prepareRandomAccountsIfNeeded","inputs":[{"name":"tokenAddress","type":"address","internalType":"address"},{"name":"actionId","type":"uint256","internalType":"uint256"}],"outputs":[],"stateMutability":"nonpayable"},{"type":"function","name":"randomAccounts","inputs":[{"name":"tokenAddress","type":"address","internalType":"address"},{"name":"round","type":"uint256","internalType":"uint256"},{"name":"actionId","type":"uint256","internalType":"uint256"}],"outputs":[{"name":"","type":"address[]","internalType":"address[]"}],"stateMutability":"view"},{"type":"function","name":"randomAccountsByRandomSeed","inputs":[{"name":"tokenAddress","type":"address","internalType":"address"},{"name":"actionId","type":"uint256","internalType":"uint256"},{"name":"randomSeed","type":"uint256","internalType":"uint256"},{"name":"num","type":"uint256","internalType":"uint256"}],"outputs":[{"name":"","type":"address[]","internalType":"address[]"}],"stateMutability":"view"},{"type":"function","name":"randomAddress","inputs":[],"outputs":[{"name":"","type":"address","internalType":"address"}],"stateMutability":"view"},{"type":"function","name":"roundByBlockNumber","inputs":[{"name":"blockNumber","type":"uint256","internalType":"uint256"}],"outputs":[{"name":"","type":"uint256","internalType":"uint256"}],"stateMutability":"view"},{"type":"function","name":"submitAddress","inputs":[],"outputs":[{"name":"","type":"address","internalType":"address"}],"stateMutability":"view"},{"type":"function","name":"updateVerificationInfo","inputs":[{"name":"tokenAddress","type":"address","internalType":"address"},{"name":"verificationKeys_","type":"string[]","internalType":"string[]"},{"name":"verificationInfos_","type":"string[]","internalType":"string[]"}],"outputs":[],"stateMutability":"nonpayable"},{"type":"function","name":"verificationInfo","inputs":[{"name":"tokenAddress","type":"address","internalType":"address"},{"name":"accountAddress","type":"address","internalType":"address"},{"name":"verificationKey","type":"string","internalType":"string"}],"outputs":[{"name":"","type":"string","internalType":"string"}],"stateMutability":"view"},{"type":"function","name":"verificationInfoByRound","inputs":[{"name":"tokenAddress","type":"address","internalType":"address"},{"name":"accountAddress","type":"address","internalType":"address"},{"name":"verificationKey","type":"string","internalType":"string"},{"name":"round","type":"uint256","internalType":"uint256"}],"outputs":[{"name":"","type":"string","internalType":"string"}],"stateMutability":"view"},{"type":"function","name":"voteAddress","inputs":[],"outputs":[{"name":"","type":"address","internalType":"address"}],"stateMutability":"view"},{"type":"function","name":"withdraw","inputs":[{"name":"tokenAddress","type":"address","internalType":"address"},{"name":"actionId","type":"uint256","internalType":"uint256"}],"outputs":[{"name":"","type":"uint256","internalType":"uint256"}],"stateMutability":"nonpayable"},{"type":"event","name":"Join","inputs":[{"name":"tokenAddress","type":"address","indexed":true,"internalType":"address"},{"name":"currentRound","type":"uint256","indexed":true,"internalType":"uint256"},{"name":"actionId","type":"uint256","indexed":true,"internalType":"uint256"},{"name":"account","type":"address","indexed":false,"internalType":"address"},{"name":"additionalStakeAmount","type":"uint256","indexed":false,"internalType":"uint256"}],"anonymous":false},{"type":"event","name":"PrepareRandomAccounts","inputs":[{"name":"tokenAddress","type":"address","indexed":true,"internalType":"address"},{"name":"round","type":"uint256","indexed":true,"internalType":"uint256"},{"name":"actionId","type":"uint256","indexed":true,"internalType":"uint256"},{"name":"accounts","type":"address[]","indexed":false,"internalType":"address[]"}],"anonymous":false},{"type":"event","name":"UpdateVerificationInfo","inputs":[{"name":"tokenAddress","type":"address","indexed":true,"internalType":"address"},{"name":"account","type":"address","indexed":true,"internalType":"address"},{"name":"verificationKey","type":"string","indexed":true,"internalType":"string"},{"name":"round","type":"uint256","indexed":false,"internalType":"uint256"},{"name":"verificationInfo","type":"string","indexed":false,"internalType":"string"}],"anonymous":false},{"type":"event","name":"Withdraw","inputs":[{"name":"tokenAddress","type":"address","indexed":true,"internalType":"address"},{"name":"currentRound","type":"uint256","indexed":true,"internalType":"uint256"},{"name":"actionId","type":"uint256","indexed":true,"internalType":"uint256"},{"name":"account","type":"address","indexed":false,"internalType":"address"},{"name":"withdrawnAmount","type":"uint256","indexed":false,"internalType":"uint256"}],"anonymous":false},{"type":"error","name":"ActionNotVoted","inputs":[]},{"type":"error","name":"AlreadyInitialized","inputs":[]},{"type":"error","name":"AmountIsZero","inputs":[]},{"type":"error","name":"InvalidToAddress","inputs":[]},{"type":"error","name":"JoinAmountLessThanMinStake","inputs":[]},{"type":"error","name":"JoinedAmountIsZero","inputs":[]},{"type":"error","name":"LastBlocksOfPhaseCannotJoin","inputs":[]},{"type":"error","name":"NotInWhiteList","inputs":[]},{"type":"error","name":"RoundNotStarted","inputs":[]}],"bytecode":{"object":"0x60c06040523480156200001157600080fd5b506040516200311538038062003115833981016040819052620000349162000043565b60809190915260a05262000068565b600080604083850312156200005757600080fd5b505080516020909101519092909150565b60805160a051613072620000a360003960008181610239015261052d01526000818161034d015281816104bb015261050101526130726000f3fe608060405234801561001057600080fd5b506004361061018e5760003560e01c8063a710461e116100de578063cf756fdf11610097578063d7a973ca11610071578063d7a973ca14610431578063d8b2389f14610444578063e388878f14610457578063f3fef3a31461046f57600080fd5b8063cf756fdf146103c4578063d34567be146103d7578063d5bee9f51461041e57600080fd5b8063a710461e14610322578063aba73f9314610335578063b2ad373014610348578063b6f3ed6b1461036f578063b94d912814610378578063ba51c7a61461038b57600080fd5b806362b5ef891161014b5780638a19c8bc116101255780638a19c8bc146102d45780639ae295bd146102dc5780639bc51d1d146102ef578063a3782c231461030f57600080fd5b806362b5ef891461025b5780636c6ef62c14610270578063804fe20a1461029057600080fd5b8063158ef93e146101935780631dc10886146101b55780633bdf9f13146101d65780633d6dc928146101e9578063409d2dc11461021457806360a918b714610234575b600080fd5b6000546101a09060ff1681565b60405190151581526020015b60405180910390f35b6101c86101c336600461243c565b610482565b6040519081526020016101ac565b6101c86101e4366004612468565b6104b7565b6001546101fc906001600160a01b031681565b6040516001600160a01b0390911681526020016101ac565b610227610222366004612481565b610559565b6040516101ac91906124b6565b6101c87f000000000000000000000000000000000000000000000000000000000000000081565b61026e6102693660046126d4565b610663565b005b61028361027e366004612749565b6106c4565b6040516101ac9190612782565b6101fc61029e366004612481565b6001600160a01b039283166000908152600460209081526040808320948352938152838220928252600190920190915220541690565b6101c861073d565b61026e6102ea36600461243c565b61074d565b6103026102fd3660046127fb565b61075b565b6040516101ac91906128b7565b6101c861031d3660046128ca565b610a40565b61030261033036600461290c565b610a75565b6101c8610343366004612749565b610c40565b6101c87f000000000000000000000000000000000000000000000000000000000000000081565b6101c860035481565b610227610386366004612970565b610d0c565b6101c861039936600461243c565b6001600160a01b03919091166000908152600460209081526040808320938352929052206003015490565b61026e6103d23660046129ab565b610d3d565b6101c86103e53660046128ca565b6001600160a01b038084166000908152600460209081526040808320868452825280832093851683526002909301905220549392505050565b6002546101fc906001600160a01b031681565b6101c861043f366004612481565b610dbd565b61026e6104523660046129fc565b610dea565b6000546101fc9061010090046001600160a01b031681565b6101c861047d36600461243c565b611266565b6001600160a01b038216600090815260046020908152604080832084845290915281206104ae906113b5565b90505b92915050565b60007f00000000000000000000000000000000000000000000000000000000000000008210156104fa576040516323a71b8760e21b815260040160405180910390fd5b60006105267f000000000000000000000000000000000000000000000000000000000000000084612abc565b90506105527f000000000000000000000000000000000000000000000000000000000000000082612ae5565b9392505050565b6060826000036105975760005b60405190808252806020026020018201604052801561058f578160200160208202803683370190505b509050610552565b6001600160a01b0384166000908152600660209081526040808320868452825280832085845282528083208054825181850281018501909352808352919290919083018282801561061157602002820191906000526020600020905b81546001600160a01b031681526001909101906020018083116105f3575b50505050509050600081511115610629579050610552565b6106348585856113d9565b1561064b576106438584611482565b915050610552565b50506040805160008152602081019091529392505050565b60005b82518110156106be576106ac8484838151811061068557610685612af9565b602002602001015184848151811061069f5761069f612af9565b60200260200101516115c6565b806106b681612b0f565b915050610666565b50505050565b6001600160a01b03808316600090815260056020908152604080832093851683529281529082902080548351818402810184019094528084526060939283018282801561073057602002820191906000526020600020905b81548152602001906001019080831161071c575b5050505050905092915050565b6000610748436104b7565b905090565b6107578282611731565b5050565b6001600160a01b03808616600090815260086020908152604080832093881683529290528181209151606092906107959087908790612b28565b90815260405190819003602001902080549091506000036107c6575050604080516020810190915260008152610a37565b806000815481106107d9576107d9612af9565b9060005260206000200154831015610801575050604080516020810190915260008152610a37565b8054819061081190600190612abc565b8154811061082157610821612af9565b90600052602060002001548310610944576001600160a01b038088166000908152600760209081526040808320938a16835292905281902090516108689087908790612b28565b90815260200160405180910390206000826001848054905061088a9190612abc565b8154811061089a5761089a612af9565b9060005260206000200154815260200190815260200160002080546108be90612b38565b80601f01602080910402602001604051908101604052809291908181526020018280546108ea90612b38565b80156109375780601f1061090c57610100808354040283529160200191610937565b820191906000526020600020905b81548152906001019060200180831161091a57829003601f168201915b5050505050915050610a37565b60006109508285611840565b6001600160a01b03808a166000908152600760209081526040808320938c16835292905281902090519192509061098a9088908890612b28565b9081526020016040518091039020600082815260200190815260200160002080546109b490612b38565b80601f01602080910402602001604051908101604052809291908181526020018280546109e090612b38565b8015610a2d5780601f10610a0257610100808354040283529160200191610a2d565b820191906000526020600020905b815481529060010190602001808311610a1057829003601f168201915b5050505050925050505b95945050505050565b6001600160a01b03831660009081526004602090815260408083208584529091528120610a6d9083611929565b949350505050565b6001600160a01b0380851660009081526008602090815260408083209387168352929052818120915160609290610aaf9086908690612b28565b9081526040805191829003602090810183208054808302850183019093528284529190830182828015610b0157602002820191906000526020600020905b815481526020019060010190808311610aed575b505050505090508051600003610b27575050604080516020810190915260008152610a6d565b60008160018351610b389190612abc565b81518110610b4857610b48612af9565b6020908102919091018101516001600160a01b03808a166000908152600784526040808220928b16825291909352918290209151909250610b8c9087908790612b28565b908152602001604051809103902060008281526020019081526020016000208054610bb690612b38565b80601f0160208091040260200160405190810160405280929190818152602001828054610be290612b38565b8015610c2f5780601f10610c0457610100808354040283529160200191610c2f565b820191906000526020600020905b815481529060010190602001808311610c1257829003601f168201915b505050505092505050949350505050565b6001600160a01b03808316600090815260056020908152604080832093851683529281528282208054845181840281018401909552808552929384939092830182828015610cad57602002820191906000526020600020905b815481526020019060010190808311610c99575b505050505090506000805b8251811015610d0357610ce586848381518110610cd757610cd7612af9565b602002602001015187610a40565b610cef9083612b72565b915080610cfb81612b0f565b915050610cb8565b50949350505050565b6001600160a01b03841660009081526004602090815260408083208684529091529020606090610a3790848461195f565b60005460ff1615610d605760405162dc149f60e41b815260040160405180910390fd5b60008054600180546001600160a01b03199081166001600160a01b0397881617825560039490945560028054909416948616949094179092556001600160a81b0319909116610100949093169390930260ff191691909117179055565b6001600160a01b03831660009081526004602090815260408083208584529091528120610a6d90836119b0565b436000610df561073d565b905080610e09600354846101e49190612b72565b14610e275760405163074d7a6b60e01b815260040160405180910390fd5b600154604051634f42bc2960e11b81526001600160a01b038a8116600483015260248201849052604482018a905290911690639e85785290606401602060405180830381865afa158015610e7f573d6000803e3d6000fd5b505050506040513d601f19601f82011682018060405250810190610ea39190612b85565b610ec0576040516317793beb60e01b815260040160405180910390fd5b6001600160a01b038316610ee757604051638aa3a72f60e01b815260040160405180910390fd5b85600003610f08576040516310eb483f60e21b815260040160405180910390fd5b610f128888611731565b6000610f1f898986610a40565b6000805460405163a3770fcb60e01b81526001600160a01b038d81166004830152602482018d90529394509192610100909104169063a3770fcb90604401600060405180830381865afa158015610f7a573d6000803e3d6000fd5b505050506040513d6000823e601f3d908101601f19168201604052610fa29190810190612cda565b602081015151909150610fb58984612b72565b1015610fd45760405163f33b201160e01b815260040160405180910390fd5b816000036110b5576000546040516277e2d360e71b81526001600160a01b038c81166004830152602482018c9052878116604483015261010090920490911690633bf1698090606401602060405180830381865afa15801561103a573d6000803e3d6000fd5b505050506040513d601f19601f8201168201806040525081019061105e9190612b85565b61107b57604051639ad59b9760e01b815260040160405180910390fd5b6001600160a01b03808b16600090815260056020908152604080832093891683529281529181208054600181018255908252919020018990555b6001600160a01b038a1660009081526004602090815260408083208c84529091529020600581015460ff166110ed576110ed81611a1f565b6110f8818a88611a93565b506040516323b872dd60e01b8152336004820152306024820152604481018a90526001600160a01b038c16906323b872dd906064016020604051808303816000875af115801561114c573d6000803e3d6000fd5b505050506040513d601f19601f820116820180604052508101906111709190612b85565b50861561120e5760005460405163a3770fcb60e01b81526001600160a01b038d81166004830152602482018d905261120e928e926101009091049091169063a3770fcb90604401600060405180830381865afa1580156111d4573d6000803e3d6000fd5b505050506040513d6000823e601f3d908101601f191682016040526111fc9190810190612cda565b6020015160c001516102698a8c612e7f565b604080516001600160a01b038881168252602082018c90528c928792918f16917fe37fea01e65dea7d589abafc4bd0d5282a09ddce3e9ea971ed3399d776a1a296910160405180910390a45050505050505050505050565b60006112728383611731565b6001600160a01b0383166000908152600460209081526040808320858452909152812061129f9033611b1b565b9050806000036112c2576040516301ba688760e41b815260040160405180910390fd5b6001600160a01b038416600090815260056020908152604080832033845290915290206112ef9084611c75565b60405163a9059cbb60e01b8152336004820152602481018290526001600160a01b0385169063a9059cbb906044016020604051808303816000875af115801561133c573d6000803e3d6000fd5b505050506040513d601f19601f820116820180604052508101906113609190612b85565b508261136a61073d565b60408051338152602081018590526001600160a01b038816917f67c680c232fa9400adef6a1ad234c1d6d15a44170b85fddb60ceed23e31c3220910160405180910390a49392505050565b600081600301546000036113cb57506000919050565b6104b18283600301546119b0565b6000826000036113eb57506000610552565b6113f6836001612b72565b6113fe61073d565b148015610a6d5750600154604051634f42bc2960e11b81526001600160a01b038681166004830152602482018690526044820185905290911690639e85785290606401602060405180830381865afa15801561145e573d6000803e3d6000fd5b505050506040513d601f19601f82011682018060405250810190610a6d9190612b85565b6000805460405163a3770fcb60e01b81526001600160a01b03858116600483015260248201859052606093926101009004169063a3770fcb90604401600060405180830381865afa1580156114db573d6000803e3d6000fd5b505050506040513d6000823e601f3d908101601f191682016040526115039190810190612cda565b60209081015101516002549091506000906001600160a01b0316636fc5a2d6600161152c61073d565b6115369190612abc565b6040518263ffffffff1660e01b815260040161155491815260200190565b602060405180830381865afa158015611571573d6000803e3d6000fd5b505050506040513d601f19601f820116820180604052508101906115959190612e8c565b6001600160a01b03861660009081526004602090815260408083208884529091529020909150610a3790828461195f565b60006115d061073d565b6001600160a01b038516600090815260086020908152604080832033845290915280822090519293509091611606908690612ea5565b90815260405190819003602001902080549091501580611651575080548290829061163390600190612abc565b8154811061164357611643612af9565b906000526020600020015414155b1561166c578054600181018255600082815260209020018290555b6001600160a01b03851660009081526007602090815260408083203384529091529081902090518491906116a1908790612ea5565b9081526040805160209281900383019020600086815292529020906116c69082612f0c565b50836040516116d59190612ea5565b6040518091039020336001600160a01b0316866001600160a01b03167f51592b79d4424aa6d35dbfdc2bbd38d8ea35f9197e44784c92cd86f0f58f23e08587604051611722929190612fcb565b60405180910390a45050505050565b600061173b61073d565b90506001811161174a57505050565b6000611757600183612abc565b90506117648482856113d9565b61176e5750505050565b6001600160a01b03841660009081526006602090815260408083208484528252808320868452909152902054156117a55750505050565b60006117b18585611482565b805190915015611839578382866001600160a01b03167f4c3fd86a7f7f6af84d13a177aa8885d020b91a4bdc96c663661dba824d7bda5b846040516117f691906124b6565b60405180910390a46001600160a01b03851660009081526006602090815260408083208584528252808320878452825290912082516118379284019061239a565b505b5050505050565b81546000908103611853575060006104b1565b82548290849061186590600190612abc565b8154811061187557611875612af9565b9060005260206000200154116118b7578254839061189590600190612abc565b815481106118a5576118a5612af9565b906000526020600020015490506104b1565b60006118c38484611d2a565b9050828482815481106118d8576118d8612af9565b90600052602060002001541180156118f05750600081115b1561190357806118ff81612fe4565b9150505b83818154811061191557611915612af9565b906000526020600020015491505092915050565b6001600160a01b03811660009081526002830160205260408120548082036119555760009150506104b1565b610a6d8482611da6565b606081158061197057506003840154155b1561197c576000610566565b6000611991848461198c886113b5565b611ded565b905060006119a6868360008960030154611ef0565b9695505050505050565b60008115806119c157506003830154155b156119ce575060006104b1565b600383015482908111156119e3575060038301545b6000815b8015610d0357600081815260208790526040902054611a069083612b72565b9150611a186001821901821682612abc565b90506119e7565b600581015460ff1615611a785760405162461bcd60e51b815260206004820152601860248201527f5472656520616c726561647920696e697469616c697a65640000000000000000604482015260640160405180910390fd5b6001600482018190556005909101805460ff19169091179055565b6001600160a01b0381166000908152600284016020526040812054808203611b1057600385018054906000611ac783612b0f565b90915550505060038401546000818152600186016020908152604080832080546001600160a01b0319166001600160a01b03881690811790915583526002880190915290208190555b610a6d85828661210b565b6001600160a01b0381166000908152600283016020526040812054808203611b475760009150506104b1565b6000611b538583611da6565b6003860154909150828103611bac57611b6d8684846121a2565b6001600160a01b0385166000908152600287016020908152604080832083905585835260018901909152902080546001600160a01b0319169055611c54565b6000611bb88783611da6565b905082811115611bdb57611bd68785611bd18685612abc565b61210b565b611bef565b611bef8785611bea8487612abc565b6121a2565b611bfa8783836121a2565b5060008181526001870160209081526040808320805487855282852080546001600160a01b039283166001600160a01b0319918216811790925590865260028c019094528285208890558154909316905590871682528120555b600386018054906000611c6683612fe4565b90915550919695505050505050565b815460005b818110156106be5782848281548110611c9557611c95612af9565b906000526020600020015403611d185783611cb1600184612abc565b81548110611cc157611cc1612af9565b9060005260206000200154848281548110611cde57611cde612af9565b906000526020600020018190555083805480611cfc57611cfc612ffb565b6001900381819060005260206000200160009055905550505050565b80611d2281612b0f565b915050611c7a565b815460009081905b80821015611d9e5760006002611d488484612abc565b611d529190612ae5565b611d5c9084612b72565b905084868281548110611d7157611d71612af9565b90600052602060002001541015611d9457611d8d816001612b72565b9250611d98565b8091505b50611d32565b509392505050565b6000811580611db85750826003015482115b15611dc5575060006104b1565b611dd983611dd4600185612abc565b6119b0565b611de384846119b0565b6104ae9190612abc565b6060811580611dfa575082155b15611e06576000610566565b6000836001600160401b03811115611e2057611e20612503565b604051908082528060200260200182016040528015611e49578160200160208202803683370190505b5090506000611e588585612ae5565b905060008187604051602001611e7091815260200190565b6040516020818303038152906040528051906020012060001c611e939190613011565b905060005b86811015611ee45781611eab8483613025565b611eb59190612b72565b848281518110611ec757611ec7612af9565b602090810291909101015280611edc81612b0f565b915050611e98565b50919695505050505050565b60608351600003611f105750604080516000815260208101909152610a6d565b600084516001600160401b03811115611f2b57611f2b612503565b604051908082528060200260200182016040528015611f54578160200160208202803683370190505b50905082611f63856001612b72565b03611fd3576040805160018082528183019092529060208083019080368337505050600084815260018801602052604081205482519293506001600160a01b031691839190611fb457611fb4612af9565b6001600160a01b03909216602092830291909101909101529050610a6d565b6000611fdf85856121ea565b9050600080611ff788611ff28b866119b0565b612227565b9150915060006120098a848a87611ef0565b905060006120198b84878b611ef0565b90506000805b835181101561208a5783818151811061203a5761203a612af9565b602002602001015188838061204e90612b0f565b94508151811061206057612060612af9565b6001600160a01b03909216602092830291909101909101528061208281612b0f565b91505061201f565b5060005b82518110156120f9578281815181106120a9576120a9612af9565b60200260200101518883806120bd90612b0f565b9450815181106120cf576120cf612af9565b6001600160a01b0390921660209283029190910190910152806120f181612b0f565b91505061208e565b50865250939998505050505050505050565b815b836004015481116121535760008181526020859052604081208054849290612136908490612b72565b90915550508019600101811661214c9082612b72565b905061210d565b83600301548314801561216b57508219600101831683145b156106be576003840154612180906002613025565b6004850181905560009384526020949094525050604080822054928252902055565b815b836004015481116106be57600081815260208590526040812080548492906121cd908490612abc565b9091555050801960010181166121e39082612b72565b90506121a4565b600060015b6121f98484612abc565b8110156122125761220b600282613025565b90506121ef565b61221d600282612ae5565b610a6d9085612b72565b606080600084516001600160401b0381111561224557612245612503565b60405190808252806020026020018201604052801561226e578160200160208202803683370190505b509050600085516001600160401b0381111561228c5761228c612503565b6040519080825280602002602001820160405280156122b5578160200160208202803683370190505b50905060008060005b885181101561238757878982815181106122da576122da612af9565b602002602001015111612330578881815181106122f9576122f9612af9565b602002602001015185848061230d90612b0f565b95508151811061231f5761231f612af9565b602002602001018181525050612375565b88818151811061234257612342612af9565b602002602001015184838061235690612b0f565b94508151811061236857612368612af9565b6020026020010181815250505b8061237f81612b0f565b9150506122be565b50908352815290925090505b9250929050565b8280548282559060005260206000209081019282156123ef579160200282015b828111156123ef57825182546001600160a01b0319166001600160a01b039091161782556020909201916001909101906123ba565b506123fb9291506123ff565b5090565b5b808211156123fb5760008155600101612400565b6001600160a01b038116811461242957600080fd5b50565b803561243781612414565b919050565b6000806040838503121561244f57600080fd5b823561245a81612414565b946020939093013593505050565b60006020828403121561247a57600080fd5b5035919050565b60008060006060848603121561249657600080fd5b83356124a181612414565b95602085013595506040909401359392505050565b6020808252825182820181905260009190848201906040850190845b818110156124f75783516001600160a01b0316835292840192918401916001016124d2565b50909695505050505050565b634e487b7160e01b600052604160045260246000fd5b604080519081016001600160401b038111828210171561253b5761253b612503565b60405290565b604051606081016001600160401b038111828210171561253b5761253b612503565b60405161010081016001600160401b038111828210171561253b5761253b612503565b604051601f8201601f191681016001600160401b03811182821017156125ae576125ae612503565b604052919050565b60006001600160401b038211156125cf576125cf612503565b5060051b60200190565b60006001600160401b038211156125f2576125f2612503565b50601f01601f191660200190565b600061261361260e846125b6565b612586565b8381529050602080820190600585901b84018681111561263257600080fd5b845b818110156126a95780356001600160401b038111156126535760008081fd5b8601601f810189136126655760008081fd5b803561267361260e826125d9565b8181528a868385010111156126885760008081fd5b81868401878301376000918101860191909152855250928201928201612634565b505050509392505050565b600082601f8301126126c557600080fd5b6104ae83833560208501612600565b6000806000606084860312156126e957600080fd5b83356126f481612414565b925060208401356001600160401b038082111561271057600080fd5b61271c878388016126b4565b9350604086013591508082111561273257600080fd5b5061273f868287016126b4565b9150509250925092565b6000806040838503121561275c57600080fd5b823561276781612414565b9150602083013561277781612414565b809150509250929050565b6020808252825182820181905260009190848201906040850190845b818110156124f75783518352928401929184019160010161279e565b60008083601f8401126127cc57600080fd5b5081356001600160401b038111156127e357600080fd5b60208301915083602082850101111561239357600080fd5b60008060008060006080868803121561281357600080fd5b853561281e81612414565b9450602086013561282e81612414565b935060408601356001600160401b0381111561284957600080fd5b612855888289016127ba565b96999598509660600135949350505050565b60005b8381101561288257818101518382015260200161286a565b50506000910152565b600081518084526128a3816020860160208601612867565b601f01601f19169290920160200192915050565b6020815260006104ae602083018461288b565b6000806000606084860312156128df57600080fd5b83356128ea81612414565b925060208401359150604084013561290181612414565b809150509250925092565b6000806000806060858703121561292257600080fd5b843561292d81612414565b9350602085013561293d81612414565b925060408501356001600160401b0381111561295857600080fd5b612964878288016127ba565b95989497509550505050565b6000806000806080858703121561298657600080fd5b843561299181612414565b966020860135965060408601359560600135945092505050565b600080600080608085870312156129c157600080fd5b84356129cc81612414565b935060208501356129dc81612414565b925060408501356129ec81612414565b9396929550929360600135925050565b60008060008060008060a08789031215612a1557600080fd5b8635612a2081612414565b9550602087013594506040870135935060608701356001600160401b0380821115612a4a57600080fd5b818901915089601f830112612a5e57600080fd5b813581811115612a6d57600080fd5b8a60208260051b8501011115612a8257600080fd5b602083019550809450505050612a9a6080880161242c565b90509295509295509295565b634e487b7160e01b600052601160045260246000fd5b818103818111156104b1576104b1612aa6565b634e487b7160e01b600052601260045260246000fd5b600082612af457612af4612acf565b500490565b634e487b7160e01b600052603260045260246000fd5b600060018201612b2157612b21612aa6565b5060010190565b8183823760009101908152919050565b600181811c90821680612b4c57607f821691505b602082108103612b6c57634e487b7160e01b600052602260045260246000fd5b50919050565b808201808211156104b1576104b1612aa6565b600060208284031215612b9757600080fd5b8151801515811461055257600080fd5b600082601f830112612bb857600080fd5b81516020612bc861260e836125b6565b82815260059290921b84018101918181019086841115612be757600080fd5b8286015b84811015612c0b578051612bfe81612414565b8352918301918301612beb565b509695505050505050565b600082601f830112612c2757600080fd5b8151612c3561260e826125d9565b818152846020838601011115612c4a57600080fd5b610a6d826020830160208701612867565b600082601f830112612c6c57600080fd5b81516020612c7c61260e836125b6565b82815260059290921b84018101918181019086841115612c9b57600080fd5b8286015b84811015612c0b5780516001600160401b03811115612cbe5760008081fd5b612ccc8986838b0101612c16565b845250918301918301612c9f565b60006020808385031215612ced57600080fd5b82516001600160401b0380821115612d0457600080fd5b908401908186036080811215612d1957600080fd5b612d21612519565b6060821215612d2f57600080fd5b612d37612541565b91508351825284840151612d4a81612414565b828601526040848101519083015290815260608301519082821115612d6e57600080fd5b928101926101008489031215612d8357600080fd5b612d8b612563565b9150835182528484015185830152604084015183811115612dab57600080fd5b612db789828701612ba7565b604084015250606084015183811115612dcf57600080fd5b612ddb89828701612c16565b606084015250608084015183811115612df357600080fd5b612dff89828701612c16565b60808401525060a084015183811115612e1757600080fd5b612e2389828701612c16565b60a08401525060c084015183811115612e3b57600080fd5b612e4789828701612c5b565b60c08401525060e084015183811115612e5f57600080fd5b612e6b89828701612c5b565b60e084015250938401525090949350505050565b60006104ae368484612600565b600060208284031215612e9e57600080fd5b5051919050565b60008251612eb7818460208701612867565b9190910192915050565b601f821115612f0757600081815260208120601f850160051c81016020861015612ee85750805b601f850160051c820191505b8181101561183757828155600101612ef4565b505050565b81516001600160401b03811115612f2557612f25612503565b612f3981612f338454612b38565b84612ec1565b602080601f831160018114612f6e5760008415612f565750858301515b600019600386901b1c1916600185901b178555611837565b600085815260208120601f198616915b82811015612f9d57888601518255948401946001909101908401612f7e565b5085821015612fbb5787850151600019600388901b60f8161c191681555b5050505050600190811b01905550565b828152604060208201526000610a6d604083018461288b565b600081612ff357612ff3612aa6565b506000190190565b634e487b7160e01b600052603160045260246000fd5b60008261302057613020612acf565b500690565b80820281158282048414176104b1576104b1612aa656fea2646970667358221220168762cfdbbde46caa4ba3243b369e14d09f3a1ddf603cf14220615e67d5da1664736f6c63430008130033","linkReferences":{}},"methodIdentifiers":{"JOIN_END_PHASE_BLOCKS()":"b6f3ed6b","accountToIndex(address,uint256,address)":"d34567be","actionIdsByAccount(address,address)":"6c6ef62c","amountByAccount(address,address)":"aba73f93","amountByActionId(address,uint256)":"1dc10886","amountByActionIdByAccount(address,uint256,address)":"a3782c23","currentRound()":"8a19c8bc","indexToAccount(address,uint256,uint256)":"804fe20a","initialize(address,address,address,uint256)":"cf756fdf","initialized()":"158ef93e","join(address,uint256,uint256,string[],address)":"d8b2389f","numOfAccounts(address,uint256)":"ba51c7a6","originBlocks()":"b2ad3730","phaseBlocks()":"60a918b7","prefixSum(address,uint256,uint256)":"d7a973ca","prepareRandomAccountsIfNeeded(address,uint256)":"9ae295bd","randomAccounts(address,uint256,uint256)":"409d2dc1","randomAccountsByRandomSeed(address,uint256,uint256,uint256)":"b94d9128","randomAddress()":"d5bee9f5","roundByBlockNumber(uint256)":"3bdf9f13","submitAddress()":"e388878f","updateVerificationInfo(address,string[],string[])":"62b5ef89","verificationInfo(address,address,string)":"a710461e","verificationInfoByRound(address,address,string,uint256)":"9bc51d1d","voteAddress()":"3d6dc928","withdraw(address,uint256)":"f3fef3a3"},"id":37}