{"abi":[{"type":"constructor","inputs":[{"name":"originBlocks_","type":"uint256","internalType":"uint256"},{"name":"phaseBlocks_","type":"uint256","internalType":"uint256"}],"stateMutability":"nonpayable"},{"type":"function","name":"currentRound","inputs":[],"outputs":[{"name":"","type":"uint256","internalType":"uint256"}],"stateMutability":"view"},{"type":"function","name":"originBlocks","inputs":[],"outputs":[{"name":"","type":"uint256","internalType":"uint256"}],"stateMutability":"view"},{"type":"function","name":"phaseBlocks","inputs":[],"outputs":[{"name":"","type":"uint256","internalType":"uint256"}],"stateMutability":"view"},{"type":"function","name":"roundByBlockNumber","inputs":[{"name":"blockNumber","type":"uint256","internalType":"uint256"}],"outputs":[{"name":"","type":"uint256","internalType":"uint256"}],"stateMutability":"view"},{"type":"error","name":"RoundNotStarted","inputs":[]}],"bytecode":{"object":"0x60c060405234801561001057600080fd5b5060405161028538038061028583398101604081905261002f9161003d565b60809190915260a052610061565b6000806040838503121561005057600080fd5b505080516020909101519092909150565b60805160a0516101ed61009860003960008181607b015261014201526000818160aa0152818160d0015261011601526101ed6000f3fe608060405234801561001057600080fd5b506004361061004c5760003560e01c80633bdf9f131461005157806360a918b7146100765780638a19c8bc1461009d578063b2ad3730146100a5575b600080fd5b61006461005f36600461017e565b6100cc565b60405190815260200160405180910390f35b6100647f000000000000000000000000000000000000000000000000000000000000000081565b61006461016e565b6100647f000000000000000000000000000000000000000000000000000000000000000081565b60007f000000000000000000000000000000000000000000000000000000000000000082101561010f576040516323a71b8760e21b815260040160405180910390fd5b600061013b7f000000000000000000000000000000000000000000000000000000000000000084610197565b90506101677f0000000000000000000000000000000000000000000000000000000000000000826101be565b9392505050565b6000610179436100cc565b905090565b60006020828403121561019057600080fd5b5035919050565b818103818111156101b857634e487b7160e01b600052601160045260246000fd5b92915050565b6000826101db57634e487b7160e01b600052601260045260246000fd5b50049056fea164736f6c6343000811000a","linkReferences":{}},"methodIdentifiers":{"currentRound()":"8a19c8bc","originBlocks()":"b2ad3730","phaseBlocks()":"60a918b7","roundByBlockNumber(uint256)":"3bdf9f13"},"id":70}