{"abi":[{"type":"constructor","inputs":[{"name":"groupChat_","type":"address","internalType":"address"},{"name":"banSource_","type":"address","internalType":"address"},{"name":"beforePostPlugin_","type":"address","internalType":"address"},{"name":"afterPostPlugin_","type":"address","internalType":"address"},{"name":"extensionCenter_","type":"address","internalType":"address"}],"stateMutability":"nonpayable"},{"type":"function","name":"AFTER_POST_PLUGIN_ADDRESS","inputs":[],"outputs":[{"name":"","type":"address","internalType":"address"}],"stateMutability":"view"},{"type":"function","name":"BAN_SOURCE_ADDRESS","inputs":[],"outputs":[{"name":"","type":"address","internalType":"address"}],"stateMutability":"view"},{"type":"function","name":"BEFORE_POST_PLUGIN_ADDRESS","inputs":[],"outputs":[{"name":"","type":"address","internalType":"address"}],"stateMutability":"view"},{"type":"function","name":"EXTENSION_CENTER_ADDRESS","inputs":[],"outputs":[{"name":"","type":"address","internalType":"address"}],"stateMutability":"view"},{"type":"function","name":"GROUP_ADDRESS","inputs":[],"outputs":[{"name":"","type":"address","internalType":"address"}],"stateMutability":"view"},{"type":"function","name":"GROUP_CHAT_ADDRESS","inputs":[],"outputs":[{"name":"","type":"address","internalType":"address"}],"stateMutability":"view"},{"type":"function","name":"activate","inputs":[{"name":"token","type":"address","internalType":"address"}],"outputs":[{"name":"groupId","type":"uint256","internalType":"uint256"}],"stateMutability":"nonpayable"},{"type":"function","name":"canPost","inputs":[{"name":"groupId","type":"uint256","internalType":"uint256"},{"name":"","type":"uint256","internalType":"uint256"},{"name":"senderAddress","type":"address","internalType":"address"}],"outputs":[{"name":"","type":"bool","internalType":"bool"}],"stateMutability":"view"},{"type":"function","name":"groupIdOfToken","inputs":[{"name":"","type":"address","internalType":"address"}],"outputs":[{"name":"","type":"uint256","internalType":"uint256"}],"stateMutability":"view"},{"type":"function","name":"onERC721Received","inputs":[{"name":"","type":"address","internalType":"address"},{"name":"from","type":"address","internalType":"address"},{"name":"","type":"uint256","internalType":"uint256"},{"name":"","type":"bytes","internalType":"bytes"}],"outputs":[{"name":"","type":"bytes4","internalType":"bytes4"}],"stateMutability":"view"},{"type":"function","name":"tokenOfGroup","inputs":[{"name":"","type":"uint256","internalType":"uint256"}],"outputs":[{"name":"","type":"address","internalType":"address"}],"stateMutability":"view"},{"type":"function","name":"tokens","inputs":[{"name":"offset","type":"uint256","internalType":"uint256"},{"name":"limit","type":"uint256","internalType":"uint256"},{"name":"reverse","type":"bool","internalType":"bool"}],"outputs":[{"name":"tokenList","type":"address[]","internalType":"address[]"},{"name":"groupIds","type":"uint256[]","internalType":"uint256[]"}],"stateMutability":"view"},{"type":"function","name":"tokensCount","inputs":[],"outputs":[{"name":"","type":"uint256","internalType":"uint256"}],"stateMutability":"view"},{"type":"function","name":"totalVoteWeight","inputs":[{"name":"groupId","type":"uint256","internalType":"uint256"}],"outputs":[{"name":"","type":"uint256","internalType":"uint256"}],"stateMutability":"view"},{"type":"function","name":"voteWeightOf","inputs":[{"name":"groupId","type":"uint256","internalType":"uint256"},{"name":"voter","type":"address","internalType":"address"}],"outputs":[{"name":"","type":"uint256","internalType":"uint256"}],"stateMutability":"view"},{"type":"event","name":"Activate","inputs":[{"name":"token","type":"address","indexed":true,"internalType":"address"},{"name":"groupId","type":"uint256","indexed":true,"internalType":"uint256"},{"name":"operator","type":"address","indexed":true,"internalType":"address"}],"anonymous":false},{"type":"error","name":"ActionIdNotExist","inputs":[]},{"type":"error","name":"AlreadyManaged","inputs":[]},{"type":"error","name":"ManagerAddressHasNoCode","inputs":[]},{"type":"error","name":"ManagerApprovalFailed","inputs":[]},{"type":"error","name":"ManagerGroupNameUnavailable","inputs":[]},{"type":"error","name":"ManagerMintCostChanged","inputs":[]},{"type":"error","name":"ManagerPaymentFailed","inputs":[]},{"type":"error","name":"RecentRoundsZero","inputs":[]},{"type":"error","name":"TokenNotLOVE20","inputs":[]},{"type":"error","name":"UnexpectedManagerERC721Received","inputs":[]}],"bytecode":{"object":"0x6101c06040523480156200001257600080fd5b506040516200220f3803806200220f83398101604081905262000035916200038d565b8484848484848484848484848484846200004f8562000327565b6200005a8462000355565b620000658362000355565b620000708262000355565b6200007b8162000327565b6000856001600160a01b031663af5934626040518163ffffffff1660e01b8152600401602060405180830381865afa158015620000bc573d6000803e3d6000fd5b505050506040513d601f19601f82011682018060405250810190620000e29190620003fd565b9050620000ef8162000327565b6001600160a01b03808716608052811660a081905260408051632f26324560e11b81529051635e4c648a916004808201926020929091908290030181865afa15801562000140573d6000803e3d6000fd5b505050506040513d601f19601f8201168201806040525081019062000166919062000422565b60c052506001600160a01b0390811660e05292831661010052908216610120528116610140526040805163622b918560e11b81529051600093509184169163c457230a916004808201926020929091908290030181865afa158015620001d0573d6000803e3d6000fd5b505050506040513d601f19601f82011682018060405250810190620001f69190620003fd565b90506000826001600160a01b031663851073676040518163ffffffff1660e01b8152600401602060405180830381865afa15801562000239573d6000803e3d6000fd5b505050506040513d601f19601f820116820180604052508101906200025f9190620003fd565b90506200026c8262000327565b620002778162000327565b6001600160a01b039182166101605281166101805260408051630963347960e21b8152905160009c50918d169a5063258cd1e499506004808201995060209850919650869003019350849250889150505afa158015620002db573d6000803e3d6000fd5b505050506040513d601f19601f82011682018060405250810190620003019190620003fd565b90506200030e8162000327565b6001600160a01b03166101a052506200043c9350505050565b806001600160a01b03163b600003620003525760405162bff35360e41b815260040160405180910390fd5b50565b6001600160a01b038116156200035257620003528162000327565b80516001600160a01b03811681146200038857600080fd5b919050565b600080600080600060a08688031215620003a657600080fd5b620003b18662000370565b9450620003c16020870162000370565b9350620003d16040870162000370565b9250620003e16060870162000370565b9150620003f16080870162000370565b90509295509295909350565b6000602082840312156200041057600080fd5b6200041b8262000370565b9392505050565b6000602082840312156200043557600080fd5b5051919050565b60805160a05160c05160e05161010051610120516101405161016051610180516101a051611d0b6200050460003960006108fb0152600081816105b601526107aa015260006109990152600081816101900152610de00152600081816102c40152610db801526000818161029d0152610d900152600060ff01526000818161158c01526115bd0152600081816102630152818161031601528181610a9501528181610c320152818161102201526112e70152600081816101ca0152610e080152611d0b6000f3fe608060405234801561001057600080fd5b50600436106100f55760003560e01c80637942b88d11610097578063c9b84e8911610066578063c9b84e8914610285578063dc47813d14610298578063dcb2ff7e146102bf578063e20f18b3146102e657600080fd5b80637942b88d146102155780637963661e14610235578063a64ed8ba14610256578063af5934621461025e57600080fd5b80631dbc3e66116100d35780631dbc3e661461018b57806321ba52fd146101b25780634266d740146101c5578063590f2881146101ec57600080fd5b8063046ffe1c146100fa578063150b7a021461013e5780631c5a9d9c1461016a575b600080fd5b6101217f000000000000000000000000000000000000000000000000000000000000000081565b6040516001600160a01b0390911681526020015b60405180910390f35b61015161014c3660046117d4565b610309565b6040516001600160e01b03199091168152602001610135565b61017d610178366004611873565b61037b565b604051908152602001610135565b6101217f000000000000000000000000000000000000000000000000000000000000000081565b61017d6101c0366004611890565b6103b4565b6101217f000000000000000000000000000000000000000000000000000000000000000081565b6101216101fa3660046118c0565b6001602052600090815260409020546001600160a01b031681565b61017d610223366004611873565b60026020526000908152604090205481565b6102486102433660046118e7565b6103ed565b604051610135929190611920565b60035461017d565b6101217f000000000000000000000000000000000000000000000000000000000000000081565b61017d6102933660046118c0565b610571565b6101217f000000000000000000000000000000000000000000000000000000000000000081565b6101217f000000000000000000000000000000000000000000000000000000000000000081565b6102f96102f43660046119a4565b610628565b6040519015158152602001610135565b6000336001600160a01b037f00000000000000000000000000000000000000000000000000000000000000001614158061034b57506001600160a01b03851615155b1561036957604051639b1ace7d60e01b815260040160405180910390fd5b50630a85bd0160e11b95945050505050565b60006103ae826040518060400160405280600f81526020016e6d67725f746f6b656e5f6d61696e5f60881b815250610680565b92915050565b6000828152600160205260408120546001600160a01b0316806103db5760009150506103ae565b6103e58184610780565b949350505050565b606080600061040260038054905087876107f3565b90508067ffffffffffffffff81111561041d5761041d6119d2565b604051908082528060200260200182016040528015610446578160200160208202803683370190505b5092508067ffffffffffffffff811115610462576104626119d2565b60405190808252806020026020018201604052801561048b578160200160208202803683370190505b50915060005b8181101561056757600060036104ae6003805490508a858a61081f565b815481106104be576104be6119e8565b9060005260206000200160009054906101000a90046001600160a01b03169050808583815181106104f1576104f16119e8565b60200260200101906001600160a01b031690816001600160a01b03168152505060026000826001600160a01b03166001600160a01b0316815260200190815260200160002054848381518110610549576105496119e8565b6020908102919091010152508061055f81611a14565b915050610491565b5050935093915050565b6000818152600160205260408120546001600160a01b0316806105975750600092915050565b6040516315664f8d60e01b81526001600160a01b0382811660048301527f000000000000000000000000000000000000000000000000000000000000000016906315664f8d90602401602060405180830381865afa1580156105fd573d6000803e3d6000fd5b505050506040513d601f19601f820116820180604052508101906106219190611a2d565b9392505050565b6000838152600160205260408120546001600160a01b0316801580159061067757506106548184610859565b8061066757506106648184610780565b15155b80610677575061067781846108d1565b95945050505050565b600061068b83610971565b6001600160a01b0383166000908152600260205260409020546106af901515610a24565b6106c16106bc8385610a43565b610a77565b600081815260016020818152604080842080546001600160a01b038a166001600160a01b0319918216811790925581865260029093529084208590556003805493840181559093527fc2575a0e9e593c00f959f8c92f12db2869c3395a3b0502d05e2516446f71f85b90910180549091169091179055905061074281610d6c565b604051339082906001600160a01b038616907fb76a0e2bd9177723f72fa76c4d3b018685ee928351d86d0486765aad190c82d690600090a492915050565b604051632872798160e21b81526001600160a01b03838116600483015282811660248301526000917f00000000000000000000000000000000000000000000000000000000000000009091169063a1c9e60490604401602060405180830381865afa1580156105fd573d6000803e3d6000fd5b600083831061080457506000610621565b60006108108486611a46565b90508281106103e55782610677565b6000811561084f578284610834600188611a46565b61083e9190611a46565b6108489190611a46565b90506103e5565b6106778385611a59565b6040516370a0823160e01b81526001600160a01b0382811660048301526000916001918516906370a0823190602401602060405180830381865afa1580156108a5573d6000803e3d6000fd5b505050506040513d601f19601f820116820180604052508101906108c99190611a2d565b119392505050565b60405163aba73f9360e01b81526001600160a01b03838116600483015282811660248301526000917f00000000000000000000000000000000000000000000000000000000000000009091169063aba73f9390604401602060405180830381865afa158015610944573d6000803e3d6000fd5b505050506040513d601f19601f820116820180604052508101906109689190611a2d565b15159392505050565b61097a81610e67565b604051631701f11560e11b81526001600160a01b0382811660048301527f00000000000000000000000000000000000000000000000000000000000000001690632e03e22a90602401602060405180830381865afa1580156109e0573d6000803e3d6000fd5b505050506040513d601f19601f82011682018060405250810190610a049190611a6c565b610a2157604051630160b73360e51b815260040160405180910390fd5b50565b8015610a215760405163c9c7750560e01b815260040160405180910390fd5b606082610a4f83610e91565b604051602001610a60929190611aad565b604051602081830303815290604052905092915050565b600080610a8383610f46565b6040516308d4d20360e11b81529091507f0000000000000000000000000000000000000000000000000000000000000000906000906001600160a01b038316906311a9a40690610ad7908690600401611adc565b602060405180830381865afa158015610af4573d6000803e3d6000fd5b505050506040513d601f19601f82011682018060405250810190610b189190611a2d565b90508015610ccd576000826001600160a01b03166380b232c06040518163ffffffff1660e01b8152600401602060405180830381865afa158015610b60573d6000803e3d6000fd5b505050506040513d601f19601f82011682018060405250810190610b849190611b0f565b6040516323b872dd60e01b8152336004820152306024820152604481018490529091506001600160a01b038216906323b872dd906064016020604051808303816000875af1158015610bda573d6000803e3d6000fd5b505050506040513d601f19601f82011682018060405250810190610bfe9190611a6c565b610c1b576040516301d56ccf60e61b815260040160405180910390fd5b60405163095ea7b360e01b81526001600160a01b037f0000000000000000000000000000000000000000000000000000000000000000811660048301526024820184905282169063095ea7b3906044016020604051808303816000875af1158015610c8a573d6000803e3d6000fd5b505050506040513d601f19601f82011682018060405250810190610cae9190611a6c565b610ccb5760405163af2411a360e01b815260040160405180910390fd5b505b60405163d85d3d2760e01b81526000906001600160a01b0384169063d85d3d2790610cfc908790600401611adc565b60408051808303816000875af1158015610d1a573d6000803e3d6000fd5b505050506040513d601f19601f82011682018060405250810190610d3e9190611b2c565b9095509050818114610d635760405163ed24d0e760e01b815260040160405180910390fd5b50505050919050565b60405163ce572a1d60e01b8152600481018290523060248201526001600160a01b037f0000000000000000000000000000000000000000000000000000000000000000811660448301527f0000000000000000000000000000000000000000000000000000000000000000811660648301527f0000000000000000000000000000000000000000000000000000000000000000811660848301527f0000000000000000000000000000000000000000000000000000000000000000169063ce572a1d9060a401600060405180830381600087803b158015610e4c57600080fd5b505af1158015610e60573d6000803e3d6000fd5b5050505050565b806001600160a01b03163b600003610a215760405162bff35360e41b815260040160405180910390fd5b6040805180820190915260058152642a27a5a2a760d91b60208201526060906001600160a01b0383163b156103ae57826001600160a01b03166395d89b416040518163ffffffff1660e01b8152600401600060405180830381865afa925050508015610f1f57506040513d6000823e601f3d908101601f19168201604052610f1c9190810190611b50565b60015b156103ae576000610f2f826110d4565b90508051600014610f3e578092505b505092915050565b60606000610f526112e2565b905060005b60088110156110ba5760008054604080514660208201526bffffffffffffffffffffffff1930606090811b8216938301939093523390921b90911660548201524360688201526088810191909152610fc79060a80160405160208183030381529060405280519060200120611415565b90506000610fff610fd8878661154f565b83604051602001610fea929190611bfd565b604051602081830303815290604052856115ed565b600080546001019055604051633c5c3cd560e11b81529091506001600160a01b037f000000000000000000000000000000000000000000000000000000000000000016906378b879aa90611057908490600401611adc565b602060405180830381865afa158015611074573d6000803e3d6000fd5b505050506040513d601f19601f820116820180604052508101906110989190611a6c565b6110a55795945050505050565b505080806110b290611a14565b915050610f57565b50604051634a6464df60e01b815260040160405180910390fd5b606060008290506000815167ffffffffffffffff8111156110f7576110f76119d2565b6040519080825280601f01601f191660200182016040528015611121576020820181803683370190505b5090506000805b835181101561122c576000848281518110611145576111456119e8565b01602001516001600160f81b0319169050600360fc1b81108015906111785750603960f81b6001600160f81b0319821611155b806111aa5750604160f81b6001600160f81b03198216108015906111aa5750602d60f91b6001600160f81b0319821611155b806111dc5750606160f81b6001600160f81b03198216108015906111dc5750603d60f91b6001600160f81b0319821611155b1561121957808484815181106111f4576111f46119e8565b60200101906001600160f81b031916908160001a9053508261121581611a14565b9350505b508061122481611a14565b915050611128565b5060008167ffffffffffffffff811115611248576112486119d2565b6040519080825280601f01601f191660200182016040528015611272576020820181803683370190505b50905060005b828110156112d857838181518110611292576112926119e8565b602001015160f81c60f81b8282815181106112af576112af6119e8565b60200101906001600160f81b031916908160001a905350806112d081611a14565b915050611278565b5095945050505050565b6000807f00000000000000000000000000000000000000000000000000000000000000006001600160a01b03166380b232c06040518163ffffffff1660e01b8152600401602060405180830381865afa158015611343573d6000803e3d6000fd5b505050506040513d601f19601f820116820180604052508101906113679190611b0f565b9050806001600160a01b03163b60000361138357600091505090565b6315195cdd60e21b6001600160e01b031916816001600160a01b03166395d89b416040518163ffffffff1660e01b8152600401600060405180830381865afa1580156113d3573d6000803e3d6000fd5b505050506040513d6000823e601f3d908101601f191682016040526113fb9190810190611b50565b61140490611c39565b6001600160e01b0319161492915050565b60408051600c8082528183019092526060916000919060208201818036833701905050905060005b6114496002600c611c70565b811015611548576000848260208110611464576114646119e8565b1a90506f181899199a1a9b1b9c1cb0b131b232b360811b600482901c60ff1660108110611493576114936119e8565b1a60f81b836114a3846002611c92565b815181106114b3576114b36119e8565b60200101906001600160f81b031916908160001a9053506f181899199a1a9b1b9c1cb0b131b232b360811b600f8216601081106114f2576114f26119e8565b1a60f81b83611502846002611c92565b61150d906001611a59565b8151811061151d5761151d6119e8565b60200101906001600160f81b031916908160001a90535050808061154090611a14565b91505061143d565b5092915050565b6060600061155f600c6001611a59565b905082801561157457506115728461161d565b155b1561158757611584600482611a59565b90505b6000817f0000000000000000000000000000000000000000000000000000000000000000116115b75760006115e1565b6115e1827f0000000000000000000000000000000000000000000000000000000000000000611a46565b905061067785826116f3565b606081158061160057506116008361161d565b1561160c5750816103ae565b82604051602001610a609190611ca9565b600080829050600481511015801561165a575080600081518110611643576116436119e8565b6020910101516001600160f81b031916601560fa1b145b801561168b575080600181518110611674576116746119e8565b6020910101516001600160f81b031916606560f81b145b80156116bc5750806002815181106116a5576116a56119e8565b6020910101516001600160f81b031916607360f81b145b80156106215750806003815181106116d6576116d66119e8565b6020910101516001600160f81b031916601d60fa1b149392505050565b606060008390508281511161170b57839150506103ae565b60008367ffffffffffffffff811115611726576117266119d2565b6040519080825280601f01601f191660200182016040528015611750576020820181803683370190505b50905060005b848110156117b657828181518110611770576117706119e8565b602001015160f81c60f81b82828151811061178d5761178d6119e8565b60200101906001600160f81b031916908160001a905350806117ae81611a14565b915050611756565b50949350505050565b6001600160a01b0381168114610a2157600080fd5b6000806000806000608086880312156117ec57600080fd5b85356117f7816117bf565b94506020860135611807816117bf565b935060408601359250606086013567ffffffffffffffff8082111561182b57600080fd5b818801915088601f83011261183f57600080fd5b81358181111561184e57600080fd5b89602082850101111561186057600080fd5b9699959850939650602001949392505050565b60006020828403121561188557600080fd5b8135610621816117bf565b600080604083850312156118a357600080fd5b8235915060208301356118b5816117bf565b809150509250929050565b6000602082840312156118d257600080fd5b5035919050565b8015158114610a2157600080fd5b6000806000606084860312156118fc57600080fd5b83359250602084013591506040840135611915816118d9565b809150509250925092565b604080825283519082018190526000906020906060840190828701845b828110156119625781516001600160a01b03168452928401929084019060010161193d565b5050508381038285015284518082528583019183019060005b818110156119975783518352928401929184019160010161197b565b5090979650505050505050565b6000806000606084860312156119b957600080fd5b83359250602084013591506040840135611915816117bf565b634e487b7160e01b600052604160045260246000fd5b634e487b7160e01b600052603260045260246000fd5b634e487b7160e01b600052601160045260246000fd5b600060018201611a2657611a266119fe565b5060010190565b600060208284031215611a3f57600080fd5b5051919050565b818103818111156103ae576103ae6119fe565b808201808211156103ae576103ae6119fe565b600060208284031215611a7e57600080fd5b8151610621816118d9565b60005b83811015611aa4578181015183820152602001611a8c565b50506000910152565b60008351611abf818460208801611a89565b835190830190611ad3818360208801611a89565b01949350505050565b6020815260008251806020840152611afb816040850160208701611a89565b601f01601f19169190910160400192915050565b600060208284031215611b2157600080fd5b8151610621816117bf565b60008060408385031215611b3f57600080fd5b505080516020909101519092909150565b600060208284031215611b6257600080fd5b815167ffffffffffffffff80821115611b7a57600080fd5b818401915084601f830112611b8e57600080fd5b815181811115611ba057611ba06119d2565b604051601f8201601f19908116603f01168101908382118183101715611bc857611bc86119d2565b81604052828152876020848701011115611be157600080fd5b611bf2836020830160208801611a89565b979650505050505050565b60008351611c0f818460208801611a89565b605f60f81b9083019081528351611c2d816001840160208801611a89565b01600101949350505050565b805160208201516001600160e01b03198082169291906004831015611c685780818460040360031b1b83161693505b505050919050565b600082611c8d57634e487b7160e01b600052601260045260246000fd5b500490565b80820281158282048414176103ae576103ae6119fe565b6315195cdd60e21b815260008251611cc8816004850160208701611a89565b919091016004019291505056fea2646970667358221220ef5be6e08be36dee70810026b428a1a2089bc7c7b4f08043adc4fdbc80f8155464736f6c63430008110033","linkReferences":{}},"methodIdentifiers":{"AFTER_POST_PLUGIN_ADDRESS()":"1dbc3e66","BAN_SOURCE_ADDRESS()":"dc47813d","BEFORE_POST_PLUGIN_ADDRESS()":"dcb2ff7e","EXTENSION_CENTER_ADDRESS()":"046ffe1c","GROUP_ADDRESS()":"af593462","GROUP_CHAT_ADDRESS()":"4266d740","activate(address)":"1c5a9d9c","canPost(uint256,uint256,address)":"e20f18b3","groupIdOfToken(address)":"7942b88d","onERC721Received(address,address,uint256,bytes)":"150b7a02","tokenOfGroup(uint256)":"590f2881","tokens(uint256,uint256,bool)":"7963661e","tokensCount()":"a64ed8ba","totalVoteWeight(uint256)":"c9b84e89","voteWeightOf(uint256,address)":"21ba52fd"},"id":44}