{"abi":[{"type":"constructor","inputs":[{"name":"minter_","type":"address","internalType":"address"},{"name":"tokenAddress_","type":"address","internalType":"address"},{"name":"parentTokenAddress_","type":"address","internalType":"address"},{"name":"uniswapV2Pair_","type":"address","internalType":"address"},{"name":"maxWithdrawableToFeeRatio_","type":"uint256","internalType":"uint256"}],"stateMutability":"nonpayable"},{"type":"function","name":"MAX_WITHDRAWABLE_TO_FEE_RATIO","inputs":[],"outputs":[{"name":"","type":"uint256","internalType":"uint256"}],"stateMutability":"view"},{"type":"function","name":"allowance","inputs":[{"name":"owner","type":"address","internalType":"address"},{"name":"spender","type":"address","internalType":"address"}],"outputs":[{"name":"","type":"uint256","internalType":"uint256"}],"stateMutability":"view"},{"type":"function","name":"approve","inputs":[{"name":"spender","type":"address","internalType":"address"},{"name":"amount","type":"uint256","internalType":"uint256"}],"outputs":[{"name":"","type":"bool","internalType":"bool"}],"stateMutability":"nonpayable"},{"type":"function","name":"balanceOf","inputs":[{"name":"account","type":"address","internalType":"address"}],"outputs":[{"name":"","type":"uint256","internalType":"uint256"}],"stateMutability":"view"},{"type":"function","name":"burn","inputs":[{"name":"to","type":"address","internalType":"address"}],"outputs":[{"name":"tokenAmount","type":"uint256","internalType":"uint256"},{"name":"parentTokenAmount","type":"uint256","internalType":"uint256"}],"stateMutability":"nonpayable"},{"type":"function","name":"decimals","inputs":[],"outputs":[{"name":"","type":"uint8","internalType":"uint8"}],"stateMutability":"view"},{"type":"function","name":"decreaseAllowance","inputs":[{"name":"spender","type":"address","internalType":"address"},{"name":"subtractedValue","type":"uint256","internalType":"uint256"}],"outputs":[{"name":"","type":"bool","internalType":"bool"}],"stateMutability":"nonpayable"},{"type":"function","name":"increaseAllowance","inputs":[{"name":"spender","type":"address","internalType":"address"},{"name":"addedValue","type":"uint256","internalType":"uint256"}],"outputs":[{"name":"","type":"bool","internalType":"bool"}],"stateMutability":"nonpayable"},{"type":"function","name":"mint","inputs":[{"name":"to","type":"address","internalType":"address"}],"outputs":[{"name":"slAmount","type":"uint256","internalType":"uint256"}],"stateMutability":"nonpayable"},{"type":"function","name":"minter","inputs":[],"outputs":[{"name":"","type":"address","internalType":"address"}],"stateMutability":"view"},{"type":"function","name":"name","inputs":[],"outputs":[{"name":"","type":"string","internalType":"string"}],"stateMutability":"view"},{"type":"function","name":"parentTokenAddress","inputs":[],"outputs":[{"name":"","type":"address","internalType":"address"}],"stateMutability":"view"},{"type":"function","name":"symbol","inputs":[],"outputs":[{"name":"","type":"string","internalType":"string"}],"stateMutability":"view"},{"type":"function","name":"tokenAddress","inputs":[],"outputs":[{"name":"","type":"address","internalType":"address"}],"stateMutability":"view"},{"type":"function","name":"tokenAmounts","inputs":[],"outputs":[{"name":"withdrawableTokenAmount","type":"uint256","internalType":"uint256"},{"name":"withdrawableParentTokenAmount","type":"uint256","internalType":"uint256"},{"name":"feeTokenAmount","type":"uint256","internalType":"uint256"},{"name":"feeParentTokenAmount","type":"uint256","internalType":"uint256"}],"stateMutability":"view"},{"type":"function","name":"tokenAmountsBySlAmount","inputs":[{"name":"slAmount","type":"uint256","internalType":"uint256"}],"outputs":[{"name":"tokenAmount","type":"uint256","internalType":"uint256"},{"name":"parentTokenAmount","type":"uint256","internalType":"uint256"}],"stateMutability":"view"},{"type":"function","name":"totalSupply","inputs":[],"outputs":[{"name":"","type":"uint256","internalType":"uint256"}],"stateMutability":"view"},{"type":"function","name":"transfer","inputs":[{"name":"to","type":"address","internalType":"address"},{"name":"amount","type":"uint256","internalType":"uint256"}],"outputs":[{"name":"","type":"bool","internalType":"bool"}],"stateMutability":"nonpayable"},{"type":"function","name":"transferFrom","inputs":[{"name":"from","type":"address","internalType":"address"},{"name":"to","type":"address","internalType":"address"},{"name":"amount","type":"uint256","internalType":"uint256"}],"outputs":[{"name":"","type":"bool","internalType":"bool"}],"stateMutability":"nonpayable"},{"type":"function","name":"uniswapV2Pair","inputs":[],"outputs":[{"name":"","type":"address","internalType":"address"}],"stateMutability":"view"},{"type":"function","name":"uniswapV2PairReserves","inputs":[],"outputs":[{"name":"tokenReserve","type":"uint256","internalType":"uint256"},{"name":"parentTokenReserve","type":"uint256","internalType":"uint256"},{"name":"totalLp","type":"uint256","internalType":"uint256"}],"stateMutability":"view"},{"type":"function","name":"withdrawFee","inputs":[{"name":"to","type":"address","internalType":"address"}],"outputs":[],"stateMutability":"nonpayable"},{"type":"event","name":"Approval","inputs":[{"name":"owner","type":"address","indexed":true,"internalType":"address"},{"name":"spender","type":"address","indexed":true,"internalType":"address"},{"name":"value","type":"uint256","indexed":false,"internalType":"uint256"}],"anonymous":false},{"type":"event","name":"TokenBurn","inputs":[{"name":"to","type":"address","indexed":true,"internalType":"address"},{"name":"slAmount","type":"uint256","indexed":false,"internalType":"uint256"},{"name":"lpAmount","type":"uint256","indexed":false,"internalType":"uint256"},{"name":"tokenAmount","type":"uint256","indexed":false,"internalType":"uint256"},{"name":"parentTokenAmount","type":"uint256","indexed":false,"internalType":"uint256"},{"name":"uniswapTokenReserve","type":"uint256","indexed":false,"internalType":"uint256"},{"name":"uniswapParentTokenReserve","type":"uint256","indexed":false,"internalType":"uint256"}],"anonymous":false},{"type":"event","name":"TokenMint","inputs":[{"name":"to","type":"address","indexed":true,"internalType":"address"},{"name":"slAmount","type":"uint256","indexed":false,"internalType":"uint256"},{"name":"lpAmount","type":"uint256","indexed":false,"internalType":"uint256"},{"name":"tokenAmount","type":"uint256","indexed":false,"internalType":"uint256"},{"name":"parentTokenAmount","type":"uint256","indexed":false,"internalType":"uint256"},{"name":"uniswapTokenReserve","type":"uint256","indexed":false,"internalType":"uint256"},{"name":"uniswapParentTokenReserve","type":"uint256","indexed":false,"internalType":"uint256"}],"anonymous":false},{"type":"event","name":"Transfer","inputs":[{"name":"from","type":"address","indexed":true,"internalType":"address"},{"name":"to","type":"address","indexed":true,"internalType":"address"},{"name":"value","type":"uint256","indexed":false,"internalType":"uint256"}],"anonymous":false},{"type":"event","name":"WithdrawFee","inputs":[{"name":"to","type":"address","indexed":true,"internalType":"address"},{"name":"lpAmount","type":"uint256","indexed":false,"internalType":"uint256"},{"name":"tokenAmount","type":"uint256","indexed":false,"internalType":"uint256"},{"name":"parentTokenAmount","type":"uint256","indexed":false,"internalType":"uint256"},{"name":"uniswapTokenReserve","type":"uint256","indexed":false,"internalType":"uint256"},{"name":"uniswapParentTokenReserve","type":"uint256","indexed":false,"internalType":"uint256"}],"anonymous":false},{"type":"error","name":"InsufficientLiquidity","inputs":[]},{"type":"error","name":"InvalidAddress","inputs":[]},{"type":"error","name":"NoTokensToBurn","inputs":[]},{"type":"error","name":"NotMinter","inputs":[]},{"type":"error","name":"TotalLpExceedsBalance","inputs":[]},{"type":"error","name":"UniswapLpMintedIsZero","inputs":[]}],"bytecode":{"object":"0x6101206040523480156200001257600080fd5b506040516200242d3803806200242d833981016040819052620000359162000214565b836001600160a01b03166306fdde036040518163ffffffff1660e01b8152600401600060405180830381865afa15801562000074573d6000803e3d6000fd5b505050506040513d6000823e601f3d908101601f191682016040526200009e9190810190620002b7565b604051602001620000b091906200036f565b604051602081830303815290604052846001600160a01b03166395d89b416040518163ffffffff1660e01b8152600401600060405180830381865afa158015620000fe573d6000803e3d6000fd5b505050506040513d6000823e601f3d908101601f19168201604052620001289190810190620002b7565b6040516020016200013a9190620003b6565b60408051601f19818403018152919052600362000158838262000471565b50600462000167828262000471565b5050506001600160a01b03851615806200018857506001600160a01b038416155b806200019b57506001600160a01b038316155b80620001ae57506001600160a01b038216155b15620001cd5760405163e6c4247b60e01b815260040160405180910390fd5b6001600160a01b0394851660805292841660a05290831660c05290911660e052610100526200053d565b80516001600160a01b03811681146200020f57600080fd5b919050565b600080600080600060a086880312156200022d57600080fd5b6200023886620001f7565b94506200024860208701620001f7565b93506200025860408701620001f7565b92506200026860608701620001f7565b9150608086015190509295509295909350565b634e487b7160e01b600052604160045260246000fd5b60005b83811015620002ae57818101518382015260200162000294565b50506000910152565b600060208284031215620002ca57600080fd5b81516001600160401b0380821115620002e257600080fd5b818401915084601f830112620002f757600080fd5b8151818111156200030c576200030c6200027b565b604051601f8201601f19908116603f011681019083821181831017156200033757620003376200027b565b816040528281528760208487010111156200035157600080fd5b6200036483602083016020880162000291565b979650505050505050565b7f5374616b6564204c6971756964697479206f6620000000000000000000000000815260008251620003a981601485016020870162000291565b9190910160140192915050565b611cdb60f21b815260008251620003d581600285016020870162000291565b9190910160020192915050565b600181811c90821680620003f757607f821691505b6020821081036200041857634e487b7160e01b600052602260045260246000fd5b50919050565b601f8211156200046c57600081815260208120601f850160051c81016020861015620004475750805b601f850160051c820191505b81811015620004685782815560010162000453565b5050505b505050565b81516001600160401b038111156200048d576200048d6200027b565b620004a5816200049e8454620003e2565b846200041e565b602080601f831160018114620004dd5760008415620004c45750858301515b600019600386901b1c1916600185901b17855562000468565b600085815260208120601f198616915b828110156200050e57888601518255948401946001909101908401620004ed565b50858210156200052d5787850151600019600388901b60f8161c191681555b5050505050600190811b01905550565b60805160a05160c05160e05161010051611e2d62000600600039600081816101f301526104ce0152600081816102990152818161050d0152818161077201528181610af801528181610bac01528181610c5e01528181610e8a01526114b70152600081816102720152818161067401528181610a4b01528181610bdb0152610ff401526000818161032c01528181610811015281816109bd0152610b2701526000818161016a01528181610479015281816109270152610dd80152611e2d6000f3fe608060405234801561001057600080fd5b50600436106101425760003560e01c806349bd5a5e116100b85780639d76ea581161007c5780639d76ea5814610327578063a457c2d71461034e578063a9059cbb14610361578063ba9ea66b14610374578063dd62ed3e14610387578063e1a9e3311461039a57600080fd5b806349bd5a5e146102945780636a627842146102bb57806370a08231146102ce57806389afcb44146102f757806395d89b411461031f57600080fd5b80631fb913891161010a5780631fb91389146101ee57806323b872dd14610215578063313ce5671461022857806339509351146102375780633c18f6b81461024a57806347502b531461026d57600080fd5b806306fdde03146101475780630754617214610165578063095ea7b3146101a457806318160ddd146101c75780631ac3ddeb146101d9575b600080fd5b61014f6103c2565b60405161015c9190611b39565b60405180910390f35b61018c7f000000000000000000000000000000000000000000000000000000000000000081565b6040516001600160a01b03909116815260200161015c565b6101b76101b2366004611b9c565b610454565b604051901515815260200161015c565b6002545b60405190815260200161015c565b6101ec6101e7366004611bc8565b61046e565b005b6101cb7f000000000000000000000000000000000000000000000000000000000000000081565b6101b7610223366004611be5565b610724565b6040516012815260200161015c565b6101b7610245366004611b9c565b610748565b61025261076a565b6040805193845260208401929092529082015260600161015c565b61018c7f000000000000000000000000000000000000000000000000000000000000000081565b61018c7f000000000000000000000000000000000000000000000000000000000000000081565b6101cb6102c9366004611bc8565b61091a565b6101cb6102dc366004611bc8565b6001600160a01b031660009081526020819052604090205490565b61030a610305366004611bc8565b610dca565b6040805192835260208301919091520161015c565b61014f6110bd565b61018c7f000000000000000000000000000000000000000000000000000000000000000081565b6101b761035c366004611b9c565b6110cc565b6101b761036f366004611b9c565b61114c565b61030a610382366004611c26565b61115a565b6101cb610395366004611c3f565b6111ea565b6103a2611215565b60408051948552602085019390935291830152606082015260800161015c565b6060600380546103d190611c78565b80601f01602080910402602001604051908101604052809291908181526020018280546103fd90611c78565b801561044a5780601f1061041f5761010080835404028352916020019161044a565b820191906000526020600020905b81548152906001019060200180831161042d57829003601f168201915b5050505050905090565b6000336104628185856112a6565b60019150505b92915050565b336001600160a01b037f000000000000000000000000000000000000000000000000000000000000000016146104b757604051633e34a41b60e21b815260040160405180910390fd5b6000806104c26113cb565b509092509050806104f37f000000000000000000000000000000000000000000000000000000000000000084611cc8565b10156104fe57505050565b60405163a9059cbb60e01b81527f00000000000000000000000000000000000000000000000000000000000000006001600160a01b0381166004830181905260248301859052909163a9059cbb906044016020604051808303816000875af115801561056e573d6000803e3d6000fd5b505050506040513d601f19601f820116820180604052508101906105929190611cdf565b5060405163226bf2d160e21b81526001600160a01b03858116600483015260009182918416906389afcb449060240160408051808303816000875af11580156105df573d6000803e3d6000fd5b505050506040513d601f19601f820116820180604052508101906106039190611d01565b91509150826001600160a01b0316630dfe16816040518163ffffffff1660e01b8152600401602060405180830381865afa158015610645573d6000803e3d6000fd5b505050506040513d601f19601f820116820180604052508101906106699190611d25565b6001600160a01b03167f00000000000000000000000000000000000000000000000000000000000000006001600160a01b0316036106a357905b6106ae600085611493565b6000806106b961076a565b50604080518a815260208101889052908101869052606081018390526080810182905291935091506001600160a01b038916907f66c5250772d453a9d1a98e03b718d4c68e88eb5a5cf6a5d530be91fd4e01085b9060a00160405180910390a2505050505050505b50565b600033610732858285611599565b61073d858585611613565b506001949350505050565b60003361046281858561075b83836111ea565b6107659190611d42565b6112a6565b6000806000807f00000000000000000000000000000000000000000000000000000000000000009050600080826001600160a01b0316630902f1ac6040518163ffffffff1660e01b8152600401606060405180830381865afa1580156107d4573d6000803e3d6000fd5b505050506040513d601f19601f820116820180604052508101906107f89190611d6c565b506001600160701b031691506001600160701b031691507f00000000000000000000000000000000000000000000000000000000000000006001600160a01b0316836001600160a01b031663d21220a76040518163ffffffff1660e01b8152600401602060405180830381865afa158015610877573d6000803e3d6000fd5b505050506040513d601f19601f8201168201806040525081019061089b9190611d25565b6001600160a01b0316036108ab57905b826001600160a01b03166318160ddd6040518163ffffffff1660e01b8152600401602060405180830381865afa1580156108e9573d6000803e3d6000fd5b505050506040513d601f19601f8201168201806040525081019061090d9190611dbc565b9196909550909350915050565b6000336001600160a01b037f0000000000000000000000000000000000000000000000000000000000000000161461096557604051633e34a41b60e21b815260040160405180910390fd5b6001600160a01b03821661098c5760405163e6c4247b60e01b815260040160405180910390fd5b6000806109976113cb565b506040516370a0823160e01b815230600482015291935091506000906001600160a01b037f000000000000000000000000000000000000000000000000000000000000000016906370a0823190602401602060405180830381865afa158015610a04573d6000803e3d6000fd5b505050506040513d601f19601f82011682018060405250810190610a289190611dbc565b6040516370a0823160e01b81523060048201529091506000906001600160a01b037f000000000000000000000000000000000000000000000000000000000000000016906370a0823190602401602060405180830381865afa158015610a92573d6000803e3d6000fd5b505050506040513d601f19601f82011682018060405250810190610ab69190611dbc565b9050811580610ac3575080155b15610ae15760405163bb55fd2760e01b815260040160405180910390fd5b60405163a9059cbb60e01b81526001600160a01b037f000000000000000000000000000000000000000000000000000000000000000081166004830152602482018490527f0000000000000000000000000000000000000000000000000000000000000000169063a9059cbb906044016020604051808303816000875af1158015610b70573d6000803e3d6000fd5b505050506040513d601f19601f82011682018060405250810190610b949190611cdf565b5060405163a9059cbb60e01b81526001600160a01b037f000000000000000000000000000000000000000000000000000000000000000081166004830152602482018390527f0000000000000000000000000000000000000000000000000000000000000000169063a9059cbb906044016020604051808303816000875af1158015610c24573d6000803e3d6000fd5b505050506040513d601f19601f82011682018060405250810190610c489190611cdf565b506040516335313c2160e11b81523060048201527f0000000000000000000000000000000000000000000000000000000000000000906000906001600160a01b03831690636a627842906024016020604051808303816000875af1158015610cb4573d6000803e3d6000fd5b505050506040513d601f19601f82011682018060405250810190610cd89190611dbc565b905080600003610cfb576040516326d4293760e21b815260040160405180910390fd5b84600003610d0b57809650610d2d565b8481610d1660025490565b610d209190611cc8565b610d2a9190611deb565b96505b610d4086610d3b8388611d42565b611493565b610d4a88886117b7565b600080610d5561076a565b50604080518c815260208101879052908101899052606081018890526080810183905260a0810182905291935091506001600160a01b038b16907f580e67502fa130b24d162f8b1e971a6e8ab24ca90104576f3d4482129ec3dd579060c00160405180910390a250505050505050505b919050565b600080336001600160a01b037f00000000000000000000000000000000000000000000000000000000000000001614610e1657604051633e34a41b60e21b815260040160405180910390fd5b3060009081526020819052604081205490819003610e4757604051635ca8eceb60e11b815260040160405180910390fd5b600080610e526113cb565b50915091506000610e6260025490565b9050600081610e718487611cc8565b610e7b9190611deb565b60405163a9059cbb60e01b81527f00000000000000000000000000000000000000000000000000000000000000006001600160a01b038116600483018190526024830184905292935091829163a9059cbb906044016020604051808303816000875af1158015610eef573d6000803e3d6000fd5b505050506040513d601f19601f82011682018060405250810190610f139190611cdf565b5060405163226bf2d160e21b81526001600160a01b038b811660048301528216906389afcb449060240160408051808303816000875af1158015610f5b573d6000803e3d6000fd5b505050506040513d601f19601f82011682018060405250810190610f7f9190611d01565b809950819a505050806001600160a01b0316630dfe16816040518163ffffffff1660e01b8152600401602060405180830381865afa158015610fc5573d6000803e3d6000fd5b505050506040513d601f19601f82011682018060405250810190610fe99190611d25565b6001600160a01b03167f00000000000000000000000000000000000000000000000000000000000000006001600160a01b031603611025579697965b61103386610d3b8588611e0d565b61103d3088611876565b60008061104861076a565b50604080518c8152602081018990529081018e9052606081018d90526080810183905260a0810182905291935091506001600160a01b038d16907f849f7800bd76b47438308384ea1bda955e3e34fc74a242a2de521578a7ed26cf9060c00160405180910390a2505050505050505050915091565b6060600480546103d190611c78565b600033816110da82866111ea565b90508381101561113f5760405162461bcd60e51b815260206004820152602560248201527f45524332303a2064656372656173656420616c6c6f77616e63652062656c6f77604482015264207a65726f60d81b60648201526084015b60405180910390fd5b61073d82868684036112a6565b600033610462818585611613565b6000808260000361117057506000928392509050565b600080600061117d61076a565b925092509250600061118d6113cb565b50915050600061119c60025490565b6111a6838a611cc8565b6111b09190611deb565b9050826111bd8683611cc8565b6111c79190611deb565b9650826111d48583611cc8565b6111de9190611deb565b95505050505050915091565b6001600160a01b03918216600090815260016020908152604080832093909416825291909152205490565b6000806000806000806112266113cb565b5091509150600080600061123861076a565b919450925090508061124a8486611cc8565b6112549190611deb565b9850806112618386611cc8565b61126b9190611deb565b9750806112788487611cc8565b6112829190611deb565b96508061128f8387611cc8565b6112999190611deb565b9550505050505090919293565b6001600160a01b0383166113085760405162461bcd60e51b8152602060048201526024808201527f45524332303a20617070726f76652066726f6d20746865207a65726f206164646044820152637265737360e01b6064820152608401611136565b6001600160a01b0382166113695760405162461bcd60e51b815260206004820152602260248201527f45524332303a20617070726f766520746f20746865207a65726f206164647265604482015261737360f01b6064820152608401611136565b6001600160a01b0383811660008181526001602090815260408083209487168084529482529182902085905590518481527f8c5be1e5ebec7d5bd14f71427d1e84f3dd0314c0f7b2291e5b200ac8c7c3b92591015b60405180910390a3505050565b6007546006546000918291829190826113e48284611d42565b905060008060006113f361076a565b9250925092508360001480611406575080155b1561141e575060009889985088975095505050505050565b808461143261142d8587611cc8565b6119a0565b61143c9190611cc8565b6114469190611deb565b60055490975080881161146457959994985094965092945050505050565b8761146f8288611cc8565b6114799190611deb565b98506114858986611e0d565b995050505050505050909192565b600061149f8284611d42565b6040516370a0823160e01b81523060048201529091507f00000000000000000000000000000000000000000000000000000000000000006001600160a01b0316906370a0823190602401602060405180830381865afa158015611506573d6000803e3d6000fd5b505050506040513d601f19601f8201168201806040525081019061152a9190611dbc565b81111561154a576040516374c1025960e11b815260040160405180910390fd5b600080600061155761076a565b919450925090506000818561156f61142d8688611cc8565b6115799190611cc8565b6115839190611deb565b6007979097555050506006929092555050600555565b60006115a584846111ea565b9050600019811461160d57818110156116005760405162461bcd60e51b815260206004820152601d60248201527f45524332303a20696e73756666696369656e7420616c6c6f77616e63650000006044820152606401611136565b61160d84848484036112a6565b50505050565b6001600160a01b0383166116775760405162461bcd60e51b815260206004820152602560248201527f45524332303a207472616e736665722066726f6d20746865207a65726f206164604482015264647265737360d81b6064820152608401611136565b6001600160a01b0382166116d95760405162461bcd60e51b815260206004820152602360248201527f45524332303a207472616e7366657220746f20746865207a65726f206164647260448201526265737360e81b6064820152608401611136565b6001600160a01b038316600090815260208190526040902054818110156117515760405162461bcd60e51b815260206004820152602660248201527f45524332303a207472616e7366657220616d6f756e7420657863656564732062604482015265616c616e636560d01b6064820152608401611136565b6001600160a01b03848116600081815260208181526040808320878703905593871680835291849020805487019055925185815290927fddf252ad1be2c89b69c2b068fc378daa952ba7f163c4a11628f55a4df523b3ef910160405180910390a361160d565b6001600160a01b03821661180d5760405162461bcd60e51b815260206004820152601f60248201527f45524332303a206d696e7420746f20746865207a65726f2061646472657373006044820152606401611136565b806002600082825461181f9190611d42565b90915550506001600160a01b038216600081815260208181526040808320805486019055518481527fddf252ad1be2c89b69c2b068fc378daa952ba7f163c4a11628f55a4df523b3ef910160405180910390a35050565b6001600160a01b0382166118d65760405162461bcd60e51b815260206004820152602160248201527f45524332303a206275726e2066726f6d20746865207a65726f206164647265736044820152607360f81b6064820152608401611136565b6001600160a01b0382166000908152602081905260409020548181101561194a5760405162461bcd60e51b815260206004820152602260248201527f45524332303a206275726e20616d6f756e7420657863656564732062616c616e604482015261636560f01b6064820152608401611136565b6001600160a01b0383166000818152602081815260408083208686039055600280548790039055518581529192917fddf252ad1be2c89b69c2b068fc378daa952ba7f163c4a11628f55a4df523b3ef91016113be565b6000816000036119b257506000919050565b600060016119bf84611a8f565b901c6001901b905060018184816119d8576119d8611dd5565b048201901c905060018184816119f0576119f0611dd5565b048201901c90506001818481611a0857611a08611dd5565b048201901c90506001818481611a2057611a20611dd5565b048201901c90506001818481611a3857611a38611dd5565b048201901c90506001818481611a5057611a50611dd5565b048201901c90506001818481611a6857611a68611dd5565b048201901c9050611a8881828581611a8257611a82611dd5565b04611b23565b9392505050565b600080608083901c15611aa457608092831c92015b604083901c15611ab657604092831c92015b602083901c15611ac857602092831c92015b601083901c15611ada57601092831c92015b600883901c15611aec57600892831c92015b600483901c15611afe57600492831c92015b600283901c15611b1057600292831c92015b600183901c156104685760010192915050565b6000818310611b325781611a88565b5090919050565b600060208083528351808285015260005b81811015611b6657858101830151858201604001528201611b4a565b506000604082860101526040601f19601f8301168501019250505092915050565b6001600160a01b038116811461072157600080fd5b60008060408385031215611baf57600080fd5b8235611bba81611b87565b946020939093013593505050565b600060208284031215611bda57600080fd5b8135611a8881611b87565b600080600060608486031215611bfa57600080fd5b8335611c0581611b87565b92506020840135611c1581611b87565b929592945050506040919091013590565b600060208284031215611c3857600080fd5b5035919050565b60008060408385031215611c5257600080fd5b8235611c5d81611b87565b91506020830135611c6d81611b87565b809150509250929050565b600181811c90821680611c8c57607f821691505b602082108103611cac57634e487b7160e01b600052602260045260246000fd5b50919050565b634e487b7160e01b600052601160045260246000fd5b808202811582820484141761046857610468611cb2565b600060208284031215611cf157600080fd5b81518015158114611a8857600080fd5b60008060408385031215611d1457600080fd5b505080516020909101519092909150565b600060208284031215611d3757600080fd5b8151611a8881611b87565b8082018082111561046857610468611cb2565b80516001600160701b0381168114610dc557600080fd5b600080600060608486031215611d8157600080fd5b611d8a84611d55565b9250611d9860208501611d55565b9150604084015163ffffffff81168114611db157600080fd5b809150509250925092565b600060208284031215611dce57600080fd5b5051919050565b634e487b7160e01b600052601260045260246000fd5b600082611e0857634e487b7160e01b600052601260045260246000fd5b500490565b8181038181111561046857610468611cb256fea164736f6c6343000811000a","linkReferences":{}},"methodIdentifiers":{"MAX_WITHDRAWABLE_TO_FEE_RATIO()":"1fb91389","allowance(address,address)":"dd62ed3e","approve(address,uint256)":"095ea7b3","balanceOf(address)":"70a08231","burn(address)":"89afcb44","decimals()":"313ce567","decreaseAllowance(address,uint256)":"a457c2d7","increaseAllowance(address,uint256)":"39509351","mint(address)":"6a627842","minter()":"07546172","name()":"06fdde03","parentTokenAddress()":"47502b53","symbol()":"95d89b41","tokenAddress()":"9d76ea58","tokenAmounts()":"e1a9e331","tokenAmountsBySlAmount(uint256)":"ba9ea66b","totalSupply()":"18160ddd","transfer(address,uint256)":"a9059cbb","transferFrom(address,address,uint256)":"23b872dd","uniswapV2Pair()":"49bd5a5e","uniswapV2PairReserves()":"3c18f6b8","withdrawFee(address)":"1ac3ddeb"},"id":79}