{"abi":[{"type":"function","name":"LAUNCH_AMOUNT","inputs":[],"outputs":[{"name":"","type":"uint256","internalType":"uint256"}],"stateMutability":"view"},{"type":"function","name":"MAX_SUPPLY","inputs":[],"outputs":[{"name":"","type":"uint256","internalType":"uint256"}],"stateMutability":"view"},{"type":"function","name":"MAX_WITHDRAWABLE_TO_FEE_RATIO","inputs":[],"outputs":[{"name":"","type":"uint256","internalType":"uint256"}],"stateMutability":"view"},{"type":"function","name":"createToken","inputs":[{"name":"parentTokenAddress","type":"address","internalType":"address"},{"name":"name","type":"string","internalType":"string"},{"name":"symbol","type":"string","internalType":"string"},{"name":"to","type":"address","internalType":"address"}],"outputs":[{"name":"tokenAddress","type":"address","internalType":"address"}],"stateMutability":"nonpayable"},{"type":"function","name":"initialize","inputs":[{"name":"uniswapV2Factory_","type":"address","internalType":"address"},{"name":"launchAddress_","type":"address","internalType":"address"},{"name":"stakeAddress_","type":"address","internalType":"address"},{"name":"mintAddress_","type":"address","internalType":"address"},{"name":"launchAmount_","type":"uint256","internalType":"uint256"},{"name":"maxSupply_","type":"uint256","internalType":"uint256"},{"name":"maxWithdrawableToFeeRatio_","type":"uint256","internalType":"uint256"}],"outputs":[],"stateMutability":"nonpayable"},{"type":"function","name":"initialized","inputs":[],"outputs":[{"name":"","type":"bool","internalType":"bool"}],"stateMutability":"view"},{"type":"function","name":"launchAddress","inputs":[],"outputs":[{"name":"","type":"address","internalType":"address"}],"stateMutability":"view"},{"type":"function","name":"mintAddress","inputs":[],"outputs":[{"name":"","type":"address","internalType":"address"}],"stateMutability":"view"},{"type":"function","name":"stakeAddress","inputs":[],"outputs":[{"name":"","type":"address","internalType":"address"}],"stateMutability":"view"},{"type":"function","name":"uniswapV2Factory","inputs":[],"outputs":[{"name":"","type":"address","internalType":"address"}],"stateMutability":"view"},{"type":"event","name":"TokenCreate","inputs":[{"name":"tokenAddress","type":"address","indexed":true,"internalType":"address"},{"name":"parentTokenAddress","type":"address","indexed":true,"internalType":"address"},{"name":"name","type":"string","indexed":false,"internalType":"string"},{"name":"symbol","type":"string","indexed":false,"internalType":"string"},{"name":"to","type":"address","indexed":true,"internalType":"address"}],"anonymous":false},{"type":"error","name":"AlreadyInitialized","inputs":[]},{"type":"error","name":"EmptyString","inputs":[{"name":"parameter","type":"string","internalType":"string"}]},{"type":"error","name":"InvalidAmount","inputs":[]},{"type":"error","name":"UnauthorizedCaller","inputs":[]},{"type":"error","name":"ZeroAddress","inputs":[{"name":"parameter","type":"string","internalType":"string"}]}],"bytecode":{"object":"0x608060405234801561001057600080fd5b50615493806100206000396000f3fe60806040523480156200001157600080fd5b5060043610620000ab5760003560e01c806385107367116200006e578063851073671462000137578063c457230a146200014b578063c757dd1f146200015f578063e29d26fb1462000176578063e77fc7a4146200018057600080fd5b8063158ef93e14620000b05780631fb9138914620000d357806332cb6b0c14620000ec578063425d498014620000f657806359d0f7131462000123575b600080fd5b600754620000be9060ff1681565b60405190151581526020015b60405180910390f35b620000dd60065481565b604051908152602001620000ca565b620000dd60055481565b6003546200010a906001600160a01b031681565b6040516001600160a01b039091168152602001620000ca565b6000546200010a906001600160a01b031681565b6002546200010a906001600160a01b031681565b6001546200010a906001600160a01b031681565b6200010a62000170366004620006ab565b62000199565b620000dd60045481565b62000197620001913660046200074b565b62000567565b005b6001546000906001600160a01b03163314620001c857604051635c427cd960e01b815260040160405180910390fd5b6001600160a01b0387166200021a5760405163eac0d38960e01b8152602060048201526012602482015271706172656e74546f6b656e4164647265737360701b60448201526064015b60405180910390fd5b6001600160a01b0382166200025f5760405163eac0d38960e01b81526020600482015260096024820152681c9958da5c1a595b9d60ba1b604482015260640162000211565b60008590036200029c576040516318a996bb60e21b815260040162000211906020808252600490820152636e616d6560e01b604082015260600190565b6000839003620002d9576040516318a996bb60e21b81526020600482015260066024820152651cde5b589bdb60d21b604482015260640162000211565b60008686868660045460055488604051620002f4906200061c565b620003069796959493929190620007f4565b604051809103906000f08015801562000323573d6000803e3d6000fd5b50600080546040516364e329cb60e11b81526001600160a01b0380851660048301528c811660248301529395508594509192169063c9c65396906044016020604051808303816000875af115801562000380573d6000803e3d6000fd5b505050506040513d601f19601f82011682018060405250810190620003a6919062000848565b90506000600260009054906101000a90046001600160a01b0316848b84600654604051620003d4906200062a565b6001600160a01b039586168152938516602085015291841660408401529092166060820152608081019190915260a001604051809103906000f08015801562000421573d6000803e3d6000fd5b5060025460405191925082916000916001600160a01b0316908790620004479062000638565b6001600160a01b03928316815291166020820152604001604051809103906000f0801580156200047b573d6000803e3d6000fd5b50600354604051637c643b2f60e11b81526001600160a01b0391821660048201528e821660248201528482166044820152818316606482015291925082919087169063f8c8765e90608401600060405180830381600087803b158015620004e157600080fd5b505af1158015620004f6573d6000803e3d6000fd5b50505050876001600160a01b03168d6001600160a01b0316886001600160a01b03167f18c49b6e4df78ecc1d54414865058d27df43a48f9d1c872743c28b7b9e9143178f8f8f8f6040516200054f94939291906200086f565b60405180910390a45050505050509695505050505050565b82821015620005895760405163162908e360e11b815260040160405180910390fd5b60075460ff1615620005ad5760405162dc149f60e41b815260040160405180910390fd5b6007805460ff19166001908117909155600080546001600160a01b03998a166001600160a01b0319918216179091558154978916978116979097179055600280549588169587169590951790945560038054939096169290941691909117909355600492909255600555600655565b6115a080620008a683390190565b61227d8062001e4683390190565b61139b80620040c383390190565b6001600160a01b03811681146200065c57600080fd5b50565b60008083601f8401126200067257600080fd5b50813567ffffffffffffffff8111156200068b57600080fd5b602083019150836020828501011115620006a457600080fd5b9250929050565b60008060008060008060808789031215620006c557600080fd5b8635620006d28162000646565b9550602087013567ffffffffffffffff80821115620006f057600080fd5b620006fe8a838b016200065f565b909750955060408901359150808211156200071857600080fd5b506200072789828a016200065f565b90945092505060608701356200073d8162000646565b809150509295509295509295565b600080600080600080600060e0888a0312156200076757600080fd5b8735620007748162000646565b96506020880135620007868162000646565b95506040880135620007988162000646565b94506060880135620007aa8162000646565b9699959850939660808101359560a0820135955060c0909101359350915050565b81835281816020850137506000828201602090810191909152601f909101601f19169091010190565b60a0815260006200080a60a08301898b620007cb565b82810360208401526200081f81888a620007cb565b6040840196909652505060608101929092526001600160a01b0316608090910152949350505050565b6000602082840312156200085b57600080fd5b8151620008688162000646565b9392505050565b60408152600062000885604083018688620007cb565b82810360208401526200089a818587620007cb565b97965050505050505056fe60a06040523480156200001157600080fd5b50604051620015a0380380620015a083398101604081905262000034916200024f565b848460036200004483826200037f565b5060046200005382826200037f565b5050600160055550828210156200007d576040516315ae672760e01b815260040160405180910390fd5b6001600160a01b038116620000a55760405163e6c4247b60e01b815260040160405180910390fd5b620000b18184620000bf565b506080525062000473915050565b6001600160a01b0382166200011a5760405162461bcd60e51b815260206004820152601f60248201527f45524332303a206d696e7420746f20746865207a65726f206164647265737300604482015260640160405180910390fd5b80600260008282546200012e91906200044b565b90915550506001600160a01b038216600081815260208181526040808320805486019055518481527fddf252ad1be2c89b69c2b068fc378daa952ba7f163c4a11628f55a4df523b3ef910160405180910390a35050565b505050565b634e487b7160e01b600052604160045260246000fd5b600082601f830112620001b257600080fd5b81516001600160401b0380821115620001cf57620001cf6200018a565b604051601f8301601f19908116603f01168101908282118183101715620001fa57620001fa6200018a565b816040528381526020925086838588010111156200021757600080fd5b600091505b838210156200023b57858201830151818301840152908201906200021c565b600093810190920192909252949350505050565b600080600080600060a086880312156200026857600080fd5b85516001600160401b03808211156200028057600080fd5b6200028e89838a01620001a0565b96506020880151915080821115620002a557600080fd5b50620002b488828901620001a0565b6040880151606089015160808a0151929750909550935090506001600160a01b0381168114620002e357600080fd5b809150509295509295909350565b600181811c908216806200030657607f821691505b6020821081036200032757634e487b7160e01b600052602260045260246000fd5b50919050565b601f8211156200018557600081815260208120601f850160051c81016020861015620003565750805b601f850160051c820191505b81811015620003775782815560010162000362565b505050505050565b81516001600160401b038111156200039b576200039b6200018a565b620003b381620003ac8454620002f1565b846200032d565b602080601f831160018114620003eb5760008415620003d25750858301515b600019600386901b1c1916600185901b17855562000377565b600085815260208120601f198616915b828110156200041c57888601518255948401946001909101908401620003fb565b50858210156200043b5787850151600019600388901b60f8161c191681555b5050505050600190811b01905550565b808201808211156200046d57634e487b7160e01b600052601160045260246000fd5b92915050565b60805161110a62000496600039600081816102e601526104bf015261110a6000f3fe608060405234801561001057600080fd5b50600436106101425760003560e01c806347502b53116100b8578063a9059cbb1161007c578063a9059cbb146102a8578063ad225491146102bb578063cbd4bac5146102ce578063d5abeb01146102e1578063dd62ed3e14610308578063f8c8765e1461031b57600080fd5b806347502b531461023e57806370a082311461025157806395d89b411461027a5780639d01272e14610282578063a457c2d71461029557600080fd5b806318160ddd1161010a57806318160ddd146101d957806323b872dd146101e1578063313ce567146101f4578063395093511461020357806340c10f191461021657806342966c681461022b57600080fd5b80630661a25e1461014757806306fdde03146101625780630754617214610177578063095ea7b3146101a2578063158ef93e146101c5575b600080fd5b61014f61032e565b6040519081526020015b60405180910390f35b61016a6103a0565b6040516101599190610e70565b60065461018a906001600160a01b031681565b6040516001600160a01b039091168152602001610159565b6101b56101b0366004610ed5565b610432565b6040519015158152602001610159565b6009546101b590600160a01b900460ff1681565b60025461014f565b6101b56101ef366004610eff565b61044c565b60405160128152602001610159565b6101b5610211366004610ed5565b610470565b610229610224366004610ed5565b610492565b005b610229610239366004610f3b565b610562565b60075461018a906001600160a01b031681565b61014f61025f366004610f54565b6001600160a01b031660009081526020819052604090205490565b61016a6105a4565b61014f610290366004610f3b565b6105b3565b6101b56102a3366004610ed5565b610746565b6101b56102b6366004610ed5565b6107c6565b60085461018a906001600160a01b031681565b60095461018a906001600160a01b031681565b61014f7f000000000000000000000000000000000000000000000000000000000000000081565b61014f610316366004610f76565b6107d4565b610229610329366004610fa9565b6107ff565b6007546040516370a0823160e01b81523060048201526000916001600160a01b0316906370a0823190602401602060405180830381865afa158015610377573d6000803e3d6000fd5b505050506040513d601f19601f8201168201806040525081019061039b9190610ffd565b905090565b6060600380546103af90611016565b80601f01602080910402602001604051908101604052809291908181526020018280546103db90611016565b80156104285780601f106103fd57610100808354040283529160200191610428565b820191906000526020600020905b81548152906001019060200180831161040b57829003601f168201915b5050505050905090565b6000336104408185856108eb565b60019150505b92915050565b60003361045a858285610a10565b610465858585610a8a565b506001949350505050565b60003361044081858561048383836107d4565b61048d9190611066565b6108eb565b6006546001600160a01b031633146104bd576040516302a198b360e51b815260040160405180910390fd5b7f0000000000000000000000000000000000000000000000000000000000000000816104e860025490565b6104f29190611066565b11156105115760405163c30436e960e01b815260040160405180910390fd5b61051b8282610c2e565b816001600160a01b03167f36bf5aa3964be01dbd95a0154a8930793fe68353bdc580871ffb2c911366bbc78260405161055691815260200190565b60405180910390a25050565b61056c3382610ced565b60405181815233907fab85194d35c4ea153d0b51f3a304d1d22cb8023e499a6503fb6c28c5864ae90e9060200160405180910390a250565b6060600480546103af90611016565b60006105bd610e17565b336000908152602081905260409020548211156105ed57604051631e9acf1760e31b815260040160405180910390fd5b6007546040516370a0823160e01b81523060048201526000916001600160a01b0316906370a0823190602401602060405180830381865afa158015610636573d6000803e3d6000fd5b505050506040513d601f19601f8201168201806040525081019061065a9190610ffd565b905061066560025490565b61066f8483611079565b6106799190611090565b91506106853384610ced565b60075460405163a9059cbb60e01b8152336004820152602481018490526001600160a01b039091169063a9059cbb906044016020604051808303816000875af11580156106d6573d6000803e3d6000fd5b505050506040513d601f19601f820116820180604052508101906106fa91906110b2565b50604080518481526020810184905233917f33051b7b99352b2f771717639e25e4bf8dc930b1d6f8530cdc36d0fad8a922d5910160405180910390a2506107416001600555565b919050565b6000338161075482866107d4565b9050838110156107b95760405162461bcd60e51b815260206004820152602560248201527f45524332303a2064656372656173656420616c6c6f77616e63652062656c6f77604482015264207a65726f60d81b60648201526084015b60405180910390fd5b61046582868684036108eb565b600033610440818585610a8a565b6001600160a01b03918216600090815260016020908152604080832093909416825291909152205490565b600954600160a01b900460ff16156108295760405162dc149f60e41b815260040160405180910390fd5b6001600160a01b038416158061084657506001600160a01b038316155b8061085857506001600160a01b038216155b8061086a57506001600160a01b038116155b156108885760405163e6c4247b60e01b815260040160405180910390fd5b60098054600680546001600160a01b039788166001600160a01b03199182161790915560078054968816968216969096179095556008805494871694909516939093179093559092166001600160a81b031990921691909117600160a01b179055565b6001600160a01b03831661094d5760405162461bcd60e51b8152602060048201526024808201527f45524332303a20617070726f76652066726f6d20746865207a65726f206164646044820152637265737360e01b60648201526084016107b0565b6001600160a01b0382166109ae5760405162461bcd60e51b815260206004820152602260248201527f45524332303a20617070726f766520746f20746865207a65726f206164647265604482015261737360f01b60648201526084016107b0565b6001600160a01b0383811660008181526001602090815260408083209487168084529482529182902085905590518481527f8c5be1e5ebec7d5bd14f71427d1e84f3dd0314c0f7b2291e5b200ac8c7c3b92591015b60405180910390a3505050565b6000610a1c84846107d4565b90506000198114610a845781811015610a775760405162461bcd60e51b815260206004820152601d60248201527f45524332303a20696e73756666696369656e7420616c6c6f77616e636500000060448201526064016107b0565b610a8484848484036108eb565b50505050565b6001600160a01b038316610aee5760405162461bcd60e51b815260206004820152602560248201527f45524332303a207472616e736665722066726f6d20746865207a65726f206164604482015264647265737360d81b60648201526084016107b0565b6001600160a01b038216610b505760405162461bcd60e51b815260206004820152602360248201527f45524332303a207472616e7366657220746f20746865207a65726f206164647260448201526265737360e81b60648201526084016107b0565b6001600160a01b03831660009081526020819052604090205481811015610bc85760405162461bcd60e51b815260206004820152602660248201527f45524332303a207472616e7366657220616d6f756e7420657863656564732062604482015265616c616e636560d01b60648201526084016107b0565b6001600160a01b03848116600081815260208181526040808320878703905593871680835291849020805487019055925185815290927fddf252ad1be2c89b69c2b068fc378daa952ba7f163c4a11628f55a4df523b3ef910160405180910390a3610a84565b6001600160a01b038216610c845760405162461bcd60e51b815260206004820152601f60248201527f45524332303a206d696e7420746f20746865207a65726f20616464726573730060448201526064016107b0565b8060026000828254610c969190611066565b90915550506001600160a01b038216600081815260208181526040808320805486019055518481527fddf252ad1be2c89b69c2b068fc378daa952ba7f163c4a11628f55a4df523b3ef910160405180910390a35050565b6001600160a01b038216610d4d5760405162461bcd60e51b815260206004820152602160248201527f45524332303a206275726e2066726f6d20746865207a65726f206164647265736044820152607360f81b60648201526084016107b0565b6001600160a01b03821660009081526020819052604090205481811015610dc15760405162461bcd60e51b815260206004820152602260248201527f45524332303a206275726e20616d6f756e7420657863656564732062616c616e604482015261636560f01b60648201526084016107b0565b6001600160a01b0383166000818152602081815260408083208686039055600280548790039055518581529192917fddf252ad1be2c89b69c2b068fc378daa952ba7f163c4a11628f55a4df523b3ef9101610a03565b600260055403610e695760405162461bcd60e51b815260206004820152601f60248201527f5265656e7472616e637947756172643a207265656e7472616e742063616c6c0060448201526064016107b0565b6002600555565b600060208083528351808285015260005b81811015610e9d57858101830151858201604001528201610e81565b506000604082860101526040601f19601f8301168501019250505092915050565b80356001600160a01b038116811461074157600080fd5b60008060408385031215610ee857600080fd5b610ef183610ebe565b946020939093013593505050565b600080600060608486031215610f1457600080fd5b610f1d84610ebe565b9250610f2b60208501610ebe565b9150604084013590509250925092565b600060208284031215610f4d57600080fd5b5035919050565b600060208284031215610f6657600080fd5b610f6f82610ebe565b9392505050565b60008060408385031215610f8957600080fd5b610f9283610ebe565b9150610fa060208401610ebe565b90509250929050565b60008060008060808587031215610fbf57600080fd5b610fc885610ebe565b9350610fd660208601610ebe565b9250610fe460408601610ebe565b9150610ff260608601610ebe565b905092959194509250565b60006020828403121561100f57600080fd5b5051919050565b600181811c9082168061102a57607f821691505b60208210810361104a57634e487b7160e01b600052602260045260246000fd5b50919050565b634e487b7160e01b600052601160045260246000fd5b8082018082111561044657610446611050565b808202811582820484141761044657610446611050565b6000826110ad57634e487b7160e01b600052601260045260246000fd5b500490565b6000602082840312156110c457600080fd5b81518015158114610f6f57600080fdfea26469706673582212201d33cbb26f64a48828a7affbbfa6feba654f79840f4104297b1eb21fbc08ad5a64736f6c634300081300336101206040523480156200001257600080fd5b506040516200227d3803806200227d833981016040819052620000359162000214565b836001600160a01b03166306fdde036040518163ffffffff1660e01b8152600401600060405180830381865afa15801562000074573d6000803e3d6000fd5b505050506040513d6000823e601f3d908101601f191682016040526200009e9190810190620002b7565b604051602001620000b091906200036f565b604051602081830303815290604052846001600160a01b03166395d89b416040518163ffffffff1660e01b8152600401600060405180830381865afa158015620000fe573d6000803e3d6000fd5b505050506040513d6000823e601f3d908101601f19168201604052620001289190810190620002b7565b6040516020016200013a9190620003b6565b60408051601f19818403018152919052600362000158838262000471565b50600462000167828262000471565b5050506001600160a01b03851615806200018857506001600160a01b038416155b806200019b57506001600160a01b038316155b80620001ae57506001600160a01b038216155b15620001cd5760405163e6c4247b60e01b815260040160405180910390fd5b6001600160a01b0394851660805292841660a05290831660c05290911660e052610100526200053d565b80516001600160a01b03811681146200020f57600080fd5b919050565b600080600080600060a086880312156200022d57600080fd5b6200023886620001f7565b94506200024860208701620001f7565b93506200025860408701620001f7565b92506200026860608701620001f7565b9150608086015190509295509295909350565b634e487b7160e01b600052604160045260246000fd5b60005b83811015620002ae57818101518382015260200162000294565b50506000910152565b600060208284031215620002ca57600080fd5b81516001600160401b0380821115620002e257600080fd5b818401915084601f830112620002f757600080fd5b8151818111156200030c576200030c6200027b565b604051601f8201601f19908116603f011681019083821181831017156200033757620003376200027b565b816040528281528760208487010111156200035157600080fd5b6200036483602083016020880162000291565b979650505050505050565b7f5374616b6564204c697175696469747920546f6b656e206f6620000000000000815260008251620003a981601a85016020870162000291565b91909101601a0192915050565b611cdb60f21b815260008251620003d581600285016020870162000291565b9190910160020192915050565b600181811c90821680620003f757607f821691505b6020821081036200041857634e487b7160e01b600052602260045260246000fd5b50919050565b601f8211156200046c57600081815260208120601f850160051c81016020861015620004475750805b601f850160051c820191505b81811015620004685782815560010162000453565b5050505b505050565b81516001600160401b038111156200048d576200048d6200027b565b620004a5816200049e8454620003e2565b846200041e565b602080601f831160018114620004dd5760008415620004c45750858301515b600019600386901b1c1916600185901b17855562000468565b600085815260208120601f198616915b828110156200050e57888601518255948401946001909101908401620004ed565b50858210156200052d5787850151600019600388901b60f8161c191681555b5050505050600190811b01905550565b60805160a05160c05160e05161010051611c8b620005f2600039600081816101e801526104a001526000818161026b015281816104df0152818161084f01528181610903015281816109b501528181610c5101528181610e64015261162d015260008181610244015281816107a201526109320152600081816102e9015281816107140152818161087e01526116cc01526000818161015f0152818161044b0152818161067e0152610b9f0152611c8b6000f3fe608060405234801561001057600080fd5b50600436106101375760003560e01c806349bd5a5e116100b85780639d76ea581161007c5780639d76ea58146102e4578063a457c2d71461030b578063a9059cbb1461031e578063ba9ea66b14610331578063dd62ed3e14610359578063e1a9e3311461036c57600080fd5b806349bd5a5e146102665780636a6278421461028d57806370a08231146102a057806389afcb44146102c957806395d89b41146102dc57600080fd5b80631fb91389116100ff5780631fb91389146101e357806323b872dd1461020a578063313ce5671461021d578063395093511461022c57806347502b531461023f57600080fd5b806306fdde031461013c578063075461721461015a578063095ea7b31461019957806318160ddd146101bc5780631ac3ddeb146101ce575b600080fd5b610144610394565b604051610151919061196e565b60405180910390f35b6101817f000000000000000000000000000000000000000000000000000000000000000081565b6040516001600160a01b039091168152602001610151565b6101ac6101a73660046119d1565b610426565b6040519015158152602001610151565b6002545b604051908152602001610151565b6101e16101dc3660046119fd565b610440565b005b6101c07f000000000000000000000000000000000000000000000000000000000000000081565b6101ac610218366004611a1a565b61062b565b60405160128152602001610151565b6101ac61023a3660046119d1565b61064f565b6101817f000000000000000000000000000000000000000000000000000000000000000081565b6101817f000000000000000000000000000000000000000000000000000000000000000081565b6101c061029b3660046119fd565b610671565b6101c06102ae3660046119fd565b6001600160a01b031660009081526020819052604090205490565b6101e16102d73660046119fd565b610b94565b610144610daf565b6101817f000000000000000000000000000000000000000000000000000000000000000081565b6101ac6103193660046119d1565b610dbe565b6101ac61032c3660046119d1565b610e3e565b61034461033f366004611a5b565b610e4c565b60408051928352602083019190915201610151565b6101c0610367366004611a74565b610f18565b610374610f43565b604080519485526020850193909352918301526060820152608001610151565b6060600380546103a390611aad565b80601f01602080910402602001604051908101604052809291908181526020018280546103cf90611aad565b801561041c5780601f106103f15761010080835404028352916020019161041c565b820191906000526020600020905b8154815290600101906020018083116103ff57829003601f168201915b5050505050905090565b600033610434818585610fd4565b60019150505b92915050565b336001600160a01b037f00000000000000000000000000000000000000000000000000000000000000001614610489576040516302a198b360e51b815260040160405180910390fd5b6000806104946110f9565b509092509050806104c57f000000000000000000000000000000000000000000000000000000000000000084611afd565b10156104d057505050565b60405163a9059cbb60e01b81527f00000000000000000000000000000000000000000000000000000000000000006001600160a01b0381166004830181905260248301859052909182919063a9059cbb906044016020604051808303816000875af1158015610543573d6000803e3d6000fd5b505050506040513d601f19601f820116820180604052508101906105679190611b14565b5060405163226bf2d160e21b81526001600160a01b0386811660048301528216906389afcb449060240160408051808303816000875af11580156105af573d6000803e3d6000fd5b505050506040513d601f19601f820116820180604052508101906105d39190611b36565b50506105e06000846111c1565b846001600160a01b03167fb28509e7b62b3347888ca8147b67de29ff057a5a187185b272fb9a4ccb0f7fa18560405161061b91815260200190565b60405180910390a2505050505b50565b60003361063985828561121e565b610644858585611298565b506001949350505050565b6000336104348185856106628383610f18565b61066c9190611b5a565b610fd4565b6000336001600160a01b037f000000000000000000000000000000000000000000000000000000000000000016146106bc576040516302a198b360e51b815260040160405180910390fd5b6001600160a01b0382166106e35760405163e6c4247b60e01b815260040160405180910390fd5b6000806106ee6110f9565b506040516370a0823160e01b815230600482015291935091506000906001600160a01b037f000000000000000000000000000000000000000000000000000000000000000016906370a0823190602401602060405180830381865afa15801561075b573d6000803e3d6000fd5b505050506040513d601f19601f8201168201806040525081019061077f9190611b6d565b6040516370a0823160e01b81523060048201529091506000906001600160a01b037f000000000000000000000000000000000000000000000000000000000000000016906370a0823190602401602060405180830381865afa1580156107e9573d6000803e3d6000fd5b505050506040513d601f19601f8201168201806040525081019061080d9190611b6d565b905081158061081a575080155b156108385760405163bb55fd2760e01b815260040160405180910390fd5b60405163a9059cbb60e01b81526001600160a01b037f000000000000000000000000000000000000000000000000000000000000000081166004830152602482018490527f0000000000000000000000000000000000000000000000000000000000000000169063a9059cbb906044016020604051808303816000875af11580156108c7573d6000803e3d6000fd5b505050506040513d601f19601f820116820180604052508101906108eb9190611b14565b5060405163a9059cbb60e01b81526001600160a01b037f000000000000000000000000000000000000000000000000000000000000000081166004830152602482018390527f0000000000000000000000000000000000000000000000000000000000000000169063a9059cbb906044016020604051808303816000875af115801561097b573d6000803e3d6000fd5b505050506040513d601f19601f8201168201806040525081019061099f9190611b14565b506040516335313c2160e11b81523060048201527f0000000000000000000000000000000000000000000000000000000000000000906000906001600160a01b03831690636a627842906024016020604051808303816000875af1158015610a0b573d6000803e3d6000fd5b505050506040513d601f19601f82011682018060405250810190610a2f9190611b6d565b905080600003610a525760405163bb55fd2760e01b815260040160405180910390fd5b84600003610a6257809650610a84565b8481610a6d60025490565b610a779190611afd565b610a819190611b9c565b96505b610a9786610a928388611b5a565b6111c1565b610aa1888861143c565b600081610aae8789611b5a565b610ab89190611b5a565b6040516370a0823160e01b81523060048201529091506001600160a01b038416906370a0823190602401602060405180830381865afa158015610aff573d6000803e3d6000fd5b505050506040513d601f19601f82011682018060405250810190610b239190611b6d565b811115610b43576040516374c1025960e11b815260040160405180910390fd5b60408051898152602081018490526001600160a01b038b16917f2cb7ded13a095089a18b8ad95c663730c3ff5339d3aa328fe7913d97ba3014ef910160405180910390a2505050505050505b919050565b336001600160a01b037f00000000000000000000000000000000000000000000000000000000000000001614610bdd576040516302a198b360e51b815260040160405180910390fd5b3060009081526020819052604081205490819003610c0e57604051635ca8eceb60e11b815260040160405180910390fd5b600080610c196110f9565b50915091506000610c2960025490565b9050600081610c388487611afd565b610c429190611b9c565b60405163a9059cbb60e01b81527f00000000000000000000000000000000000000000000000000000000000000006001600160a01b038116600483018190526024830184905292935091829163a9059cbb906044016020604051808303816000875af1158015610cb6573d6000803e3d6000fd5b505050506040513d601f19601f82011682018060405250810190610cda9190611b14565b5060405163226bf2d160e21b81526001600160a01b0389811660048301528216906389afcb449060240160408051808303816000875af1158015610d22573d6000803e3d6000fd5b505050506040513d601f19601f82011682018060405250810190610d469190611b36565b50610d57905086610a928588611bbe565b610d6130886114fb565b60408051888152602081018590526001600160a01b038a16917ffe9e0b0c1e3e9216717d5f66d10bc310b12c366417e150b4b1af9fb9620bca91910160405180910390a25050505050505050565b6060600480546103a390611aad565b60003381610dcc8286610f18565b905083811015610e315760405162461bcd60e51b815260206004820152602560248201527f45524332303a2064656372656173656420616c6c6f77616e63652062656c6f77604482015264207a65726f60d81b60648201526084015b60405180910390fd5b6106448286868403610fd4565b600033610434818585611298565b60008082600003610e6257506000928392509050565b7f00000000000000000000000000000000000000000000000000000000000000006001600160a01b038116610e9d5750600093849350915050565b6000806000610eaa611625565b9250925092506000610eba6110f9565b509150506000610ec960025490565b610ed3838b611afd565b610edd9190611b9c565b905082610eea8683611afd565b610ef49190611b9c565b975082610f018583611afd565b610f0b9190611b9c565b9650505050505050915091565b6001600160a01b03918216600090815260016020908152604080832093909416825291909152205490565b600080600080600080610f546110f9565b50915091506000806000610f66611625565b9194509250905080610f788486611afd565b610f829190611b9c565b985080610f8f8386611afd565b610f999190611b9c565b975080610fa68487611afd565b610fb09190611b9c565b965080610fbd8387611afd565b610fc79190611b9c565b9550505050505090919293565b6001600160a01b0383166110365760405162461bcd60e51b8152602060048201526024808201527f45524332303a20617070726f76652066726f6d20746865207a65726f206164646044820152637265737360e01b6064820152608401610e28565b6001600160a01b0382166110975760405162461bcd60e51b815260206004820152602260248201527f45524332303a20617070726f766520746f20746865207a65726f206164647265604482015261737360f01b6064820152608401610e28565b6001600160a01b0383811660008181526001602090815260408083209487168084529482529182902085905590518481527f8c5be1e5ebec7d5bd14f71427d1e84f3dd0314c0f7b2291e5b200ac8c7c3b92591015b60405180910390a3505050565b6007546006546000918291829190826111128284611b5a565b90506000806000611121611625565b9250925092508360001480611134575080155b1561114c575060009889985088975095505050505050565b808461116061115b8587611afd565b6117d5565b61116a9190611afd565b6111749190611b9c565b60055490975080881161119257959994985094965092945050505050565b8761119d8288611afd565b6111a79190611b9c565b98506111b38986611bbe565b995050505050505050909192565b60006111cd8284611b5a565b905060008060006111dc611625565b91945092509050600081856111f461115b8688611afd565b6111fe9190611afd565b6112089190611b9c565b6007979097555050506006929092555050600555565b600061122a8484610f18565b9050600019811461129257818110156112855760405162461bcd60e51b815260206004820152601d60248201527f45524332303a20696e73756666696369656e7420616c6c6f77616e63650000006044820152606401610e28565b6112928484848403610fd4565b50505050565b6001600160a01b0383166112fc5760405162461bcd60e51b815260206004820152602560248201527f45524332303a207472616e736665722066726f6d20746865207a65726f206164604482015264647265737360d81b6064820152608401610e28565b6001600160a01b03821661135e5760405162461bcd60e51b815260206004820152602360248201527f45524332303a207472616e7366657220746f20746865207a65726f206164647260448201526265737360e81b6064820152608401610e28565b6001600160a01b038316600090815260208190526040902054818110156113d65760405162461bcd60e51b815260206004820152602660248201527f45524332303a207472616e7366657220616d6f756e7420657863656564732062604482015265616c616e636560d01b6064820152608401610e28565b6001600160a01b03848116600081815260208181526040808320878703905593871680835291849020805487019055925185815290927fddf252ad1be2c89b69c2b068fc378daa952ba7f163c4a11628f55a4df523b3ef910160405180910390a3611292565b6001600160a01b0382166114925760405162461bcd60e51b815260206004820152601f60248201527f45524332303a206d696e7420746f20746865207a65726f2061646472657373006044820152606401610e28565b80600260008282546114a49190611b5a565b90915550506001600160a01b038216600081815260208181526040808320805486019055518481527fddf252ad1be2c89b69c2b068fc378daa952ba7f163c4a11628f55a4df523b3ef910160405180910390a35050565b6001600160a01b03821661155b5760405162461bcd60e51b815260206004820152602160248201527f45524332303a206275726e2066726f6d20746865207a65726f206164647265736044820152607360f81b6064820152608401610e28565b6001600160a01b038216600090815260208190526040902054818110156115cf5760405162461bcd60e51b815260206004820152602260248201527f45524332303a206275726e20616d6f756e7420657863656564732062616c616e604482015261636560f01b6064820152608401610e28565b6001600160a01b0383166000818152602081815260408083208686039055600280548790039055518581529192917fddf252ad1be2c89b69c2b068fc378daa952ba7f163c4a11628f55a4df523b3ef91016110ec565b6000806000807f00000000000000000000000000000000000000000000000000000000000000009050600080826001600160a01b0316630902f1ac6040518163ffffffff1660e01b8152600401606060405180830381865afa15801561168f573d6000803e3d6000fd5b505050506040513d601f19601f820116820180604052508101906116b39190611be8565b506001600160701b031691506001600160701b031691507f00000000000000000000000000000000000000000000000000000000000000006001600160a01b0316836001600160a01b031663d21220a76040518163ffffffff1660e01b8152600401602060405180830381865afa158015611732573d6000803e3d6000fd5b505050506040513d601f19601f820116820180604052508101906117569190611c38565b6001600160a01b03160361176657905b826001600160a01b03166318160ddd6040518163ffffffff1660e01b8152600401602060405180830381865afa1580156117a4573d6000803e3d6000fd5b505050506040513d601f19601f820116820180604052508101906117c89190611b6d565b9196909550909350915050565b6000816000036117e757506000919050565b600060016117f4846118c4565b901c6001901b9050600181848161180d5761180d611b86565b048201901c9050600181848161182557611825611b86565b048201901c9050600181848161183d5761183d611b86565b048201901c9050600181848161185557611855611b86565b048201901c9050600181848161186d5761186d611b86565b048201901c9050600181848161188557611885611b86565b048201901c9050600181848161189d5761189d611b86565b048201901c90506118bd818285816118b7576118b7611b86565b04611958565b9392505050565b600080608083901c156118d957608092831c92015b604083901c156118eb57604092831c92015b602083901c156118fd57602092831c92015b601083901c1561190f57601092831c92015b600883901c1561192157600892831c92015b600483901c1561193357600492831c92015b600283901c1561194557600292831c92015b600183901c1561043a5760010192915050565b600081831061196757816118bd565b5090919050565b600060208083528351808285015260005b8181101561199b5785810183015185820160400152820161197f565b506000604082860101526040601f19601f8301168501019250505092915050565b6001600160a01b038116811461062857600080fd5b600080604083850312156119e457600080fd5b82356119ef816119bc565b946020939093013593505050565b600060208284031215611a0f57600080fd5b81356118bd816119bc565b600080600060608486031215611a2f57600080fd5b8335611a3a816119bc565b92506020840135611a4a816119bc565b929592945050506040919091013590565b600060208284031215611a6d57600080fd5b5035919050565b60008060408385031215611a8757600080fd5b8235611a92816119bc565b91506020830135611aa2816119bc565b809150509250929050565b600181811c90821680611ac157607f821691505b602082108103611ae157634e487b7160e01b600052602260045260246000fd5b50919050565b634e487b7160e01b600052601160045260246000fd5b808202811582820484141761043a5761043a611ae7565b600060208284031215611b2657600080fd5b815180151581146118bd57600080fd5b60008060408385031215611b4957600080fd5b505080516020909101519092909150565b8082018082111561043a5761043a611ae7565b600060208284031215611b7f57600080fd5b5051919050565b634e487b7160e01b600052601260045260246000fd5b600082611bb957634e487b7160e01b600052601260045260246000fd5b500490565b8181038181111561043a5761043a611ae7565b80516001600160701b0381168114610b8f57600080fd5b600080600060608486031215611bfd57600080fd5b611c0684611bd1565b9250611c1460208501611bd1565b9150604084015163ffffffff81168114611c2d57600080fd5b809150509250925092565b600060208284031215611c4a57600080fd5b81516118bd816119bc56fea26469706673582212208f3e5ca121b30a949f04737940c2b646b19cf6105eb7a5b31aa5820ac33c0e5a64736f6c6343000813003360c06040523480156200001157600080fd5b506040516200139b3803806200139b8339810160408190526200003491620001ee565b806001600160a01b03166306fdde036040518163ffffffff1660e01b8152600401600060405180830381865afa15801562000073573d6000803e3d6000fd5b505050506040513d6000823e601f3d908101601f191682016040526200009d919081019062000262565b604051602001620000af91906200031a565b604051602081830303815290604052816001600160a01b03166395d89b416040518163ffffffff1660e01b8152600401600060405180830381865afa158015620000fd573d6000803e3d6000fd5b505050506040513d6000823e601f3d908101601f1916820160405262000127919081019062000262565b6040516020016200013991906200034b565b60408051601f19818403018152919052600362000157838262000406565b50600462000166828262000406565b5050506001600160a01b038216620001915760405163e6c4247b60e01b815260040160405180910390fd5b6001600160a01b038116620001b95760405163e6c4247b60e01b815260040160405180910390fd5b6001600160a01b039182166080521660a052620004d2565b80516001600160a01b0381168114620001e957600080fd5b919050565b600080604083850312156200020257600080fd5b6200020d83620001d1565b91506200021d60208401620001d1565b90509250929050565b634e487b7160e01b600052604160045260246000fd5b60005b83811015620002595781810151838201526020016200023f565b50506000910152565b6000602082840312156200027557600080fd5b81516001600160401b03808211156200028d57600080fd5b818401915084601f830112620002a257600080fd5b815181811115620002b757620002b762000226565b604051601f8201601f19908116603f01168101908382118183101715620002e257620002e262000226565b81604052828152876020848701011115620002fc57600080fd5b6200030f8360208301602088016200023c565b979650505050505050565b66029ba30b5b2b2160cd1b8152600082516200033e8160078501602087016200023c565b9190910160070192915050565b611cdd60f21b8152600082516200036a8160028501602087016200023c565b9190910160020192915050565b600181811c908216806200038c57607f821691505b602082108103620003ad57634e487b7160e01b600052602260045260246000fd5b50919050565b601f8211156200040157600081815260208120601f850160051c81016020861015620003dc5750805b601f850160051c820191505b81811015620003fd57828155600101620003e8565b5050505b505050565b81516001600160401b0381111562000422576200042262000226565b6200043a8162000433845462000377565b84620003b3565b602080601f831160018114620004725760008415620004595750858301515b600019600386901b1c1916600185901b178555620003fd565b600085815260208120601f198616915b82811015620004a35788860151825594840194600190910190840162000482565b5085821015620004c25787850151600019600388901b60f8161c191681555b5050505050600190811b01905550565b60805160a051610e87620005146000396000818161022a0152818161040801526105de0152600081816101280152818161038b01526104fe0152610e876000f3fe608060405234801561001057600080fd5b50600436106101005760003560e01c806370a0823111610097578063a457c2d711610066578063a457c2d71461024c578063a9059cbb1461025f578063cd3293de14610272578063dd62ed3e1461027b57600080fd5b806370a08231146101e157806389afcb441461020a57806395d89b411461021d5780639d76ea581461022557600080fd5b806323b872dd116100d357806323b872dd14610197578063313ce567146101aa57806339509351146101b95780636a627842146101cc57600080fd5b806306fdde03146101055780630754617214610123578063095ea7b31461016257806318160ddd14610185575b600080fd5b61010d61028e565b60405161011a9190610c7b565b60405180910390f35b61014a7f000000000000000000000000000000000000000000000000000000000000000081565b6040516001600160a01b03909116815260200161011a565b610175610170366004610ce5565b610320565b604051901515815260200161011a565b6002545b60405190815260200161011a565b6101756101a5366004610d0f565b61033a565b6040516012815260200161011a565b6101756101c7366004610ce5565b61035e565b6101df6101da366004610d4b565b610380565b005b6101896101ef366004610d4b565b6001600160a01b031660009081526020819052604090205490565b6101df610218366004610d4b565b6104f3565b61010d610687565b61014a7f000000000000000000000000000000000000000000000000000000000000000081565b61017561025a366004610ce5565b610696565b61017561026d366004610ce5565b610716565b61018960055481565b610189610289366004610d6d565b610724565b60606003805461029d90610da0565b80601f01602080910402602001604051908101604052809291908181526020018280546102c990610da0565b80156103165780601f106102eb57610100808354040283529160200191610316565b820191906000526020600020905b8154815290600101906020018083116102f957829003601f168201915b5050505050905090565b60003361032e81858561074f565b60019150505b92915050565b600033610348858285610874565b6103538585856108ee565b506001949350505050565b60003361032e8185856103718383610724565b61037b9190610df0565b61074f565b336001600160a01b037f000000000000000000000000000000000000000000000000000000000000000016146103c9576040516302a198b360e51b815260040160405180910390fd5b6001600160a01b0381166103f05760405163e6c4247b60e01b815260040160405180910390fd5b6040516370a0823160e01b81523060048201526000907f00000000000000000000000000000000000000000000000000000000000000006001600160a01b0316906370a0823190602401602060405180830381865afa158015610457573d6000803e3d6000fd5b505050506040513d601f19601f8201168201806040525081019061047b9190610e03565b9050600554811161048a575050565b60006005548261049a9190610e1c565b600583905590506104ab8382610a92565b826001600160a01b03167f36bf5aa3964be01dbd95a0154a8930793fe68353bdc580871ffb2c911366bbc7826040516104e691815260200190565b60405180910390a2505050565b336001600160a01b037f0000000000000000000000000000000000000000000000000000000000000000161461053c576040516302a198b360e51b815260040160405180910390fd5b6001600160a01b0381166105635760405163e6c4247b60e01b815260040160405180910390fd5b3060008181526020819052604090205460055481111561059657604051638fe0a65f60e01b815260040160405180910390fd5b80600560008282546105a89190610e1c565b909155506105b890508282610b51565b60405163a9059cbb60e01b81526001600160a01b038481166004830152602482018390527f0000000000000000000000000000000000000000000000000000000000000000169063a9059cbb906044016020604051808303816000875af1158015610627573d6000803e3d6000fd5b505050506040513d601f19601f8201168201806040525081019061064b9190610e2f565b50826001600160a01b03167fab85194d35c4ea153d0b51f3a304d1d22cb8023e499a6503fb6c28c5864ae90e826040516104e691815260200190565b60606004805461029d90610da0565b600033816106a48286610724565b9050838110156107095760405162461bcd60e51b815260206004820152602560248201527f45524332303a2064656372656173656420616c6c6f77616e63652062656c6f77604482015264207a65726f60d81b60648201526084015b60405180910390fd5b610353828686840361074f565b60003361032e8185856108ee565b6001600160a01b03918216600090815260016020908152604080832093909416825291909152205490565b6001600160a01b0383166107b15760405162461bcd60e51b8152602060048201526024808201527f45524332303a20617070726f76652066726f6d20746865207a65726f206164646044820152637265737360e01b6064820152608401610700565b6001600160a01b0382166108125760405162461bcd60e51b815260206004820152602260248201527f45524332303a20617070726f766520746f20746865207a65726f206164647265604482015261737360f01b6064820152608401610700565b6001600160a01b0383811660008181526001602090815260408083209487168084529482529182902085905590518481527f8c5be1e5ebec7d5bd14f71427d1e84f3dd0314c0f7b2291e5b200ac8c7c3b92591015b60405180910390a3505050565b60006108808484610724565b905060001981146108e857818110156108db5760405162461bcd60e51b815260206004820152601d60248201527f45524332303a20696e73756666696369656e7420616c6c6f77616e63650000006044820152606401610700565b6108e8848484840361074f565b50505050565b6001600160a01b0383166109525760405162461bcd60e51b815260206004820152602560248201527f45524332303a207472616e736665722066726f6d20746865207a65726f206164604482015264647265737360d81b6064820152608401610700565b6001600160a01b0382166109b45760405162461bcd60e51b815260206004820152602360248201527f45524332303a207472616e7366657220746f20746865207a65726f206164647260448201526265737360e81b6064820152608401610700565b6001600160a01b03831660009081526020819052604090205481811015610a2c5760405162461bcd60e51b815260206004820152602660248201527f45524332303a207472616e7366657220616d6f756e7420657863656564732062604482015265616c616e636560d01b6064820152608401610700565b6001600160a01b03848116600081815260208181526040808320878703905593871680835291849020805487019055925185815290927fddf252ad1be2c89b69c2b068fc378daa952ba7f163c4a11628f55a4df523b3ef910160405180910390a36108e8565b6001600160a01b038216610ae85760405162461bcd60e51b815260206004820152601f60248201527f45524332303a206d696e7420746f20746865207a65726f2061646472657373006044820152606401610700565b8060026000828254610afa9190610df0565b90915550506001600160a01b038216600081815260208181526040808320805486019055518481527fddf252ad1be2c89b69c2b068fc378daa952ba7f163c4a11628f55a4df523b3ef910160405180910390a35050565b6001600160a01b038216610bb15760405162461bcd60e51b815260206004820152602160248201527f45524332303a206275726e2066726f6d20746865207a65726f206164647265736044820152607360f81b6064820152608401610700565b6001600160a01b03821660009081526020819052604090205481811015610c255760405162461bcd60e51b815260206004820152602260248201527f45524332303a206275726e20616d6f756e7420657863656564732062616c616e604482015261636560f01b6064820152608401610700565b6001600160a01b0383166000818152602081815260408083208686039055600280548790039055518581529192917fddf252ad1be2c89b69c2b068fc378daa952ba7f163c4a11628f55a4df523b3ef9101610867565b600060208083528351808285015260005b81811015610ca857858101830151858201604001528201610c8c565b506000604082860101526040601f19601f8301168501019250505092915050565b80356001600160a01b0381168114610ce057600080fd5b919050565b60008060408385031215610cf857600080fd5b610d0183610cc9565b946020939093013593505050565b600080600060608486031215610d2457600080fd5b610d2d84610cc9565b9250610d3b60208501610cc9565b9150604084013590509250925092565b600060208284031215610d5d57600080fd5b610d6682610cc9565b9392505050565b60008060408385031215610d8057600080fd5b610d8983610cc9565b9150610d9760208401610cc9565b90509250929050565b600181811c90821680610db457607f821691505b602082108103610dd457634e487b7160e01b600052602260045260246000fd5b50919050565b634e487b7160e01b600052601160045260246000fd5b8082018082111561033457610334610dda565b600060208284031215610e1557600080fd5b5051919050565b8181038181111561033457610334610dda565b600060208284031215610e4157600080fd5b81518015158114610d6657600080fdfea264697066735822122088e514d8fadd6891749acc262400a1b1a26dfed6965cf3d71b69307ebba2201564736f6c63430008130033a264697066735822122022af079eb90ec417aefea587cc5bf41d71c4185901e465859e100dae8c82942264736f6c63430008130033","linkReferences":{}},"methodIdentifiers":{"LAUNCH_AMOUNT()":"e29d26fb","MAX_SUPPLY()":"32cb6b0c","MAX_WITHDRAWABLE_TO_FEE_RATIO()":"1fb91389","createToken(address,string,string,address)":"c757dd1f","initialize(address,address,address,address,uint256,uint256,uint256)":"e77fc7a4","initialized()":"158ef93e","launchAddress()":"c457230a","mintAddress()":"425d4980","stakeAddress()":"85107367","uniswapV2Factory()":"59d0f713"},"id":46}