{"abi":[{"type":"constructor","inputs":[{"name":"name","type":"string","internalType":"string"},{"name":"symbol","type":"string","internalType":"string"},{"name":"initialSupply","type":"uint256","internalType":"uint256"},{"name":"maxSupply_","type":"uint256","internalType":"uint256"},{"name":"to","type":"address","internalType":"address"}],"stateMutability":"nonpayable"},{"type":"function","name":"allowance","inputs":[{"name":"owner","type":"address","internalType":"address"},{"name":"spender","type":"address","internalType":"address"}],"outputs":[{"name":"","type":"uint256","internalType":"uint256"}],"stateMutability":"view"},{"type":"function","name":"approve","inputs":[{"name":"spender","type":"address","internalType":"address"},{"name":"amount","type":"uint256","internalType":"uint256"}],"outputs":[{"name":"","type":"bool","internalType":"bool"}],"stateMutability":"nonpayable"},{"type":"function","name":"balanceOf","inputs":[{"name":"account","type":"address","internalType":"address"}],"outputs":[{"name":"","type":"uint256","internalType":"uint256"}],"stateMutability":"view"},{"type":"function","name":"burn","inputs":[{"name":"amount","type":"uint256","internalType":"uint256"}],"outputs":[],"stateMutability":"nonpayable"},{"type":"function","name":"burnForParentToken","inputs":[{"name":"amount","type":"uint256","internalType":"uint256"}],"outputs":[{"name":"parentTokenAmount","type":"uint256","internalType":"uint256"}],"stateMutability":"nonpayable"},{"type":"function","name":"decimals","inputs":[],"outputs":[{"name":"","type":"uint8","internalType":"uint8"}],"stateMutability":"view"},{"type":"function","name":"decreaseAllowance","inputs":[{"name":"spender","type":"address","internalType":"address"},{"name":"subtractedValue","type":"uint256","internalType":"uint256"}],"outputs":[{"name":"","type":"bool","internalType":"bool"}],"stateMutability":"nonpayable"},{"type":"function","name":"increaseAllowance","inputs":[{"name":"spender","type":"address","internalType":"address"},{"name":"addedValue","type":"uint256","internalType":"uint256"}],"outputs":[{"name":"","type":"bool","internalType":"bool"}],"stateMutability":"nonpayable"},{"type":"function","name":"initialize","inputs":[{"name":"minter_","type":"address","internalType":"address"},{"name":"parentTokenAddress_","type":"address","internalType":"address"},{"name":"slAddress_","type":"address","internalType":"address"},{"name":"stAddress_","type":"address","internalType":"address"}],"outputs":[],"stateMutability":"nonpayable"},{"type":"function","name":"initialized","inputs":[],"outputs":[{"name":"","type":"bool","internalType":"bool"}],"stateMutability":"view"},{"type":"function","name":"maxSupply","inputs":[],"outputs":[{"name":"","type":"uint256","internalType":"uint256"}],"stateMutability":"view"},{"type":"function","name":"mint","inputs":[{"name":"to","type":"address","internalType":"address"},{"name":"amount","type":"uint256","internalType":"uint256"}],"outputs":[],"stateMutability":"nonpayable"},{"type":"function","name":"minter","inputs":[],"outputs":[{"name":"","type":"address","internalType":"address"}],"stateMutability":"view"},{"type":"function","name":"name","inputs":[],"outputs":[{"name":"","type":"string","internalType":"string"}],"stateMutability":"view"},{"type":"function","name":"parentPool","inputs":[],"outputs":[{"name":"","type":"uint256","internalType":"uint256"}],"stateMutability":"view"},{"type":"function","name":"parentTokenAddress","inputs":[],"outputs":[{"name":"","type":"address","internalType":"address"}],"stateMutability":"view"},{"type":"function","name":"slAddress","inputs":[],"outputs":[{"name":"","type":"address","internalType":"address"}],"stateMutability":"view"},{"type":"function","name":"stAddress","inputs":[],"outputs":[{"name":"","type":"address","internalType":"address"}],"stateMutability":"view"},{"type":"function","name":"symbol","inputs":[],"outputs":[{"name":"","type":"string","internalType":"string"}],"stateMutability":"view"},{"type":"function","name":"totalSupply","inputs":[],"outputs":[{"name":"","type":"uint256","internalType":"uint256"}],"stateMutability":"view"},{"type":"function","name":"transfer","inputs":[{"name":"to","type":"address","internalType":"address"},{"name":"amount","type":"uint256","internalType":"uint256"}],"outputs":[{"name":"","type":"bool","internalType":"bool"}],"stateMutability":"nonpayable"},{"type":"function","name":"transferFrom","inputs":[{"name":"from","type":"address","internalType":"address"},{"name":"to","type":"address","internalType":"address"},{"name":"amount","type":"uint256","internalType":"uint256"}],"outputs":[{"name":"","type":"bool","internalType":"bool"}],"stateMutability":"nonpayable"},{"type":"event","name":"Approval","inputs":[{"name":"owner","type":"address","indexed":true,"internalType":"address"},{"name":"spender","type":"address","indexed":true,"internalType":"address"},{"name":"value","type":"uint256","indexed":false,"internalType":"uint256"}],"anonymous":false},{"type":"event","name":"BurnForParentToken","inputs":[{"name":"burner","type":"address","indexed":true,"internalType":"address"},{"name":"burnAmount","type":"uint256","indexed":false,"internalType":"uint256"},{"name":"parentTokenAmount","type":"uint256","indexed":false,"internalType":"uint256"}],"anonymous":false},{"type":"event","name":"TokenBurn","inputs":[{"name":"from","type":"address","indexed":true,"internalType":"address"},{"name":"amount","type":"uint256","indexed":false,"internalType":"uint256"}],"anonymous":false},{"type":"event","name":"TokenMint","inputs":[{"name":"to","type":"address","indexed":true,"internalType":"address"},{"name":"amount","type":"uint256","indexed":false,"internalType":"uint256"}],"anonymous":false},{"type":"event","name":"Transfer","inputs":[{"name":"from","type":"address","indexed":true,"internalType":"address"},{"name":"to","type":"address","indexed":true,"internalType":"address"},{"name":"value","type":"uint256","indexed":false,"internalType":"uint256"}],"anonymous":false},{"type":"error","name":"AlreadyInitialized","inputs":[]},{"type":"error","name":"ExceedsMaxSupply","inputs":[]},{"type":"error","name":"InsufficientBalance","inputs":[]},{"type":"error","name":"InvalidAddress","inputs":[]},{"type":"error","name":"InvalidSupply","inputs":[]},{"type":"error","name":"NotMinter","inputs":[]}],"bytecode":{"object":"0x60a06040523480156200001157600080fd5b506040516200154e3803806200154e833981016040819052620000349162000293565b84846003620000448382620003c3565b506004620000538282620003c3565b5050600160055550828210156200007d576040516315ae672760e01b815260040160405180910390fd5b6001600160a01b038116620000a55760405163e6c4247b60e01b815260040160405180910390fd5b620000b1818462000103565b806001600160a01b03167f36bf5aa3964be01dbd95a0154a8930793fe68353bdc580871ffb2c911366bbc784604051620000ed91815260200190565b60405180910390a25060805250620004b7915050565b6001600160a01b0382166200015e5760405162461bcd60e51b815260206004820152601f60248201527f45524332303a206d696e7420746f20746865207a65726f206164647265737300604482015260640160405180910390fd5b80600260008282546200017291906200048f565b90915550506001600160a01b038216600081815260208181526040808320805486019055518481527fddf252ad1be2c89b69c2b068fc378daa952ba7f163c4a11628f55a4df523b3ef910160405180910390a35050565b505050565b634e487b7160e01b600052604160045260246000fd5b600082601f830112620001f657600080fd5b81516001600160401b0380821115620002135762000213620001ce565b604051601f8301601f19908116603f011681019082821181831017156200023e576200023e620001ce565b816040528381526020925086838588010111156200025b57600080fd5b600091505b838210156200027f578582018301518183018401529082019062000260565b600093810190920192909252949350505050565b600080600080600060a08688031215620002ac57600080fd5b85516001600160401b0380821115620002c457600080fd5b620002d289838a01620001e4565b96506020880151915080821115620002e957600080fd5b50620002f888828901620001e4565b6040880151606089015160808a0151929750909550935090506001600160a01b03811681146200032757600080fd5b809150509295509295909350565b600181811c908216806200034a57607f821691505b6020821081036200036b57634e487b7160e01b600052602260045260246000fd5b50919050565b601f821115620001c957600081815260208120601f850160051c810160208610156200039a5750805b601f850160051c820191505b81811015620003bb57828155600101620003a6565b505050505050565b81516001600160401b03811115620003df57620003df620001ce565b620003f781620003f0845462000335565b8462000371565b602080601f8311600181146200042f5760008415620004165750858301515b600019600386901b1c1916600185901b178555620003bb565b600085815260208120601f198616915b8281101562000460578886015182559484019460019091019084016200043f565b50858210156200047f5787850151600019600388901b60f8161c191681555b5050505050600190811b01905550565b80820180821115620004b157634e487b7160e01b600052601160045260246000fd5b92915050565b608051611074620004da600039600081816102e601526104bf01526110746000f3fe608060405234801561001057600080fd5b50600436106101425760003560e01c806347502b53116100b8578063a9059cbb1161007c578063a9059cbb146102a8578063ad225491146102bb578063cbd4bac5146102ce578063d5abeb01146102e1578063dd62ed3e14610308578063f8c8765e1461031b57600080fd5b806347502b531461023e57806370a082311461025157806395d89b411461027a5780639d01272e14610282578063a457c2d71461029557600080fd5b806318160ddd1161010a57806318160ddd146101d957806323b872dd146101e1578063313ce567146101f4578063395093511461020357806340c10f191461021657806342966c681461022b57600080fd5b80630661a25e1461014757806306fdde03146101625780630754617214610177578063095ea7b3146101a2578063158ef93e146101c5575b600080fd5b61014f61032e565b6040519081526020015b60405180910390f35b61016a6103a0565b6040516101599190610e03565b60065461018a906001600160a01b031681565b6040516001600160a01b039091168152602001610159565b6101b56101b0366004610e68565b610432565b6040519015158152602001610159565b6009546101b590600160a01b900460ff1681565b60025461014f565b6101b56101ef366004610e92565b61044c565b60405160128152602001610159565b6101b5610211366004610e68565b610470565b610229610224366004610e68565b610492565b005b610229610239366004610ece565b610562565b60075461018a906001600160a01b031681565b61014f61025f366004610ee7565b6001600160a01b031660009081526020819052604090205490565b61016a6105a4565b61014f610290366004610ece565b6105b3565b6101b56102a3366004610e68565b6106d9565b6101b56102b6366004610e68565b610759565b60085461018a906001600160a01b031681565b60095461018a906001600160a01b031681565b61014f7f000000000000000000000000000000000000000000000000000000000000000081565b61014f610316366004610f09565b610767565b610229610329366004610f3c565b610792565b6007546040516370a0823160e01b81523060048201526000916001600160a01b0316906370a0823190602401602060405180830381865afa158015610377573d6000803e3d6000fd5b505050506040513d601f19601f8201168201806040525081019061039b9190610f90565b905090565b6060600380546103af90610fa9565b80601f01602080910402602001604051908101604052809291908181526020018280546103db90610fa9565b80156104285780601f106103fd57610100808354040283529160200191610428565b820191906000526020600020905b81548152906001019060200180831161040b57829003601f168201915b5050505050905090565b60003361044081858561087e565b60019150505b92915050565b60003361045a8582856109a3565b610465858585610a1d565b506001949350505050565b6000336104408185856104838383610767565b61048d9190610ff9565b61087e565b6006546001600160a01b031633146104bd57604051633e34a41b60e21b815260040160405180910390fd5b7f0000000000000000000000000000000000000000000000000000000000000000816104e860025490565b6104f29190610ff9565b11156105115760405163c30436e960e01b815260040160405180910390fd5b61051b8282610bc1565b816001600160a01b03167f36bf5aa3964be01dbd95a0154a8930793fe68353bdc580871ffb2c911366bbc78260405161055691815260200190565b60405180910390a25050565b61056c3382610c80565b60405181815233907fab85194d35c4ea153d0b51f3a304d1d22cb8023e499a6503fb6c28c5864ae90e9060200160405180910390a250565b6060600480546103af90610fa9565b60006105bd610daa565b336000908152602081905260409020548211156105ed57604051631e9acf1760e31b815260040160405180910390fd5b600254826105f961032e565b610603919061100c565b61060d9190611023565b90506106193383610c80565b60075460405163a9059cbb60e01b8152336004820152602481018390526001600160a01b039091169063a9059cbb906044016020604051808303816000875af115801561066a573d6000803e3d6000fd5b505050506040513d601f19601f8201168201806040525081019061068e9190611045565b50604080518381526020810183905233917f33051b7b99352b2f771717639e25e4bf8dc930b1d6f8530cdc36d0fad8a922d5910160405180910390a26106d46001600555565b919050565b600033816106e78286610767565b90508381101561074c5760405162461bcd60e51b815260206004820152602560248201527f45524332303a2064656372656173656420616c6c6f77616e63652062656c6f77604482015264207a65726f60d81b60648201526084015b60405180910390fd5b610465828686840361087e565b600033610440818585610a1d565b6001600160a01b03918216600090815260016020908152604080832093909416825291909152205490565b600954600160a01b900460ff16156107bc5760405162dc149f60e41b815260040160405180910390fd5b6001600160a01b03841615806107d957506001600160a01b038316155b806107eb57506001600160a01b038216155b806107fd57506001600160a01b038116155b1561081b5760405163e6c4247b60e01b815260040160405180910390fd5b60098054600680546001600160a01b039788166001600160a01b03199182161790915560078054968816968216969096179095556008805494871694909516939093179093559092166001600160a81b031990921691909117600160a01b179055565b6001600160a01b0383166108e05760405162461bcd60e51b8152602060048201526024808201527f45524332303a20617070726f76652066726f6d20746865207a65726f206164646044820152637265737360e01b6064820152608401610743565b6001600160a01b0382166109415760405162461bcd60e51b815260206004820152602260248201527f45524332303a20617070726f766520746f20746865207a65726f206164647265604482015261737360f01b6064820152608401610743565b6001600160a01b0383811660008181526001602090815260408083209487168084529482529182902085905590518481527f8c5be1e5ebec7d5bd14f71427d1e84f3dd0314c0f7b2291e5b200ac8c7c3b92591015b60405180910390a3505050565b60006109af8484610767565b90506000198114610a175781811015610a0a5760405162461bcd60e51b815260206004820152601d60248201527f45524332303a20696e73756666696369656e7420616c6c6f77616e63650000006044820152606401610743565b610a17848484840361087e565b50505050565b6001600160a01b038316610a815760405162461bcd60e51b815260206004820152602560248201527f45524332303a207472616e736665722066726f6d20746865207a65726f206164604482015264647265737360d81b6064820152608401610743565b6001600160a01b038216610ae35760405162461bcd60e51b815260206004820152602360248201527f45524332303a207472616e7366657220746f20746865207a65726f206164647260448201526265737360e81b6064820152608401610743565b6001600160a01b03831660009081526020819052604090205481811015610b5b5760405162461bcd60e51b815260206004820152602660248201527f45524332303a207472616e7366657220616d6f756e7420657863656564732062604482015265616c616e636560d01b6064820152608401610743565b6001600160a01b03848116600081815260208181526040808320878703905593871680835291849020805487019055925185815290927fddf252ad1be2c89b69c2b068fc378daa952ba7f163c4a11628f55a4df523b3ef910160405180910390a3610a17565b6001600160a01b038216610c175760405162461bcd60e51b815260206004820152601f60248201527f45524332303a206d696e7420746f20746865207a65726f2061646472657373006044820152606401610743565b8060026000828254610c299190610ff9565b90915550506001600160a01b038216600081815260208181526040808320805486019055518481527fddf252ad1be2c89b69c2b068fc378daa952ba7f163c4a11628f55a4df523b3ef910160405180910390a35050565b6001600160a01b038216610ce05760405162461bcd60e51b815260206004820152602160248201527f45524332303a206275726e2066726f6d20746865207a65726f206164647265736044820152607360f81b6064820152608401610743565b6001600160a01b03821660009081526020819052604090205481811015610d545760405162461bcd60e51b815260206004820152602260248201527f45524332303a206275726e20616d6f756e7420657863656564732062616c616e604482015261636560f01b6064820152608401610743565b6001600160a01b0383166000818152602081815260408083208686039055600280548790039055518581529192917fddf252ad1be2c89b69c2b068fc378daa952ba7f163c4a11628f55a4df523b3ef9101610996565b600260055403610dfc5760405162461bcd60e51b815260206004820152601f60248201527f5265656e7472616e637947756172643a207265656e7472616e742063616c6c006044820152606401610743565b6002600555565b600060208083528351808285015260005b81811015610e3057858101830151858201604001528201610e14565b506000604082860101526040601f19601f8301168501019250505092915050565b80356001600160a01b03811681146106d457600080fd5b60008060408385031215610e7b57600080fd5b610e8483610e51565b946020939093013593505050565b600080600060608486031215610ea757600080fd5b610eb084610e51565b9250610ebe60208501610e51565b9150604084013590509250925092565b600060208284031215610ee057600080fd5b5035919050565b600060208284031215610ef957600080fd5b610f0282610e51565b9392505050565b60008060408385031215610f1c57600080fd5b610f2583610e51565b9150610f3360208401610e51565b90509250929050565b60008060008060808587031215610f5257600080fd5b610f5b85610e51565b9350610f6960208601610e51565b9250610f7760408601610e51565b9150610f8560608601610e51565b905092959194509250565b600060208284031215610fa257600080fd5b5051919050565b600181811c90821680610fbd57607f821691505b602082108103610fdd57634e487b7160e01b600052602260045260246000fd5b50919050565b634e487b7160e01b600052601160045260246000fd5b8082018082111561044657610446610fe3565b808202811582820484141761044657610446610fe3565b60008261104057634e487b7160e01b600052601260045260246000fd5b500490565b60006020828403121561105757600080fd5b81518015158114610f0257600080fdfea164736f6c6343000811000a","linkReferences":{}},"methodIdentifiers":{"allowance(address,address)":"dd62ed3e","approve(address,uint256)":"095ea7b3","balanceOf(address)":"70a08231","burn(uint256)":"42966c68","burnForParentToken(uint256)":"9d01272e","decimals()":"313ce567","decreaseAllowance(address,uint256)":"a457c2d7","increaseAllowance(address,uint256)":"39509351","initialize(address,address,address,address)":"f8c8765e","initialized()":"158ef93e","maxSupply()":"d5abeb01","mint(address,uint256)":"40c10f19","minter()":"07546172","name()":"06fdde03","parentPool()":"0661a25e","parentTokenAddress()":"47502b53","slAddress()":"ad225491","stAddress()":"cbd4bac5","symbol()":"95d89b41","totalSupply()":"18160ddd","transfer(address,uint256)":"a9059cbb","transferFrom(address,address,uint256)":"23b872dd"},"id":79}