{"abi":[{"type":"function","name":"LAUNCH_AMOUNT","inputs":[],"outputs":[{"name":"","type":"uint256","internalType":"uint256"}],"stateMutability":"view"},{"type":"function","name":"MAX_SUPPLY","inputs":[],"outputs":[{"name":"","type":"uint256","internalType":"uint256"}],"stateMutability":"view"},{"type":"function","name":"MAX_WITHDRAWABLE_TO_FEE_RATIO","inputs":[],"outputs":[{"name":"","type":"uint256","internalType":"uint256"}],"stateMutability":"view"},{"type":"function","name":"createToken","inputs":[{"name":"parentTokenAddress","type":"address","internalType":"address"},{"name":"name","type":"string","internalType":"string"},{"name":"symbol","type":"string","internalType":"string"}],"outputs":[{"name":"tokenAddress","type":"address","internalType":"address"}],"stateMutability":"nonpayable"},{"type":"function","name":"initialize","inputs":[{"name":"uniswapV2Factory_","type":"address","internalType":"address"},{"name":"launchAddress_","type":"address","internalType":"address"},{"name":"stakeAddress_","type":"address","internalType":"address"},{"name":"mintAddress_","type":"address","internalType":"address"},{"name":"launchAmount_","type":"uint256","internalType":"uint256"},{"name":"maxSupply_","type":"uint256","internalType":"uint256"},{"name":"maxWithdrawableToFeeRatio_","type":"uint256","internalType":"uint256"}],"outputs":[],"stateMutability":"nonpayable"},{"type":"function","name":"initialized","inputs":[],"outputs":[{"name":"","type":"bool","internalType":"bool"}],"stateMutability":"view"},{"type":"function","name":"launchAddress","inputs":[],"outputs":[{"name":"","type":"address","internalType":"address"}],"stateMutability":"view"},{"type":"function","name":"mintAddress","inputs":[],"outputs":[{"name":"","type":"address","internalType":"address"}],"stateMutability":"view"},{"type":"function","name":"stakeAddress","inputs":[],"outputs":[{"name":"","type":"address","internalType":"address"}],"stateMutability":"view"},{"type":"function","name":"uniswapV2Factory","inputs":[],"outputs":[{"name":"","type":"address","internalType":"address"}],"stateMutability":"view"},{"type":"event","name":"TokenCreate","inputs":[{"name":"tokenAddress","type":"address","indexed":true,"internalType":"address"},{"name":"parentTokenAddress","type":"address","indexed":true,"internalType":"address"},{"name":"name","type":"string","indexed":false,"internalType":"string"},{"name":"symbol","type":"string","indexed":false,"internalType":"string"}],"anonymous":false},{"type":"error","name":"AlreadyInitialized","inputs":[]},{"type":"error","name":"EmptyString","inputs":[{"name":"parameter","type":"string","internalType":"string"}]},{"type":"error","name":"InvalidAmount","inputs":[]},{"type":"error","name":"UnauthorizedCaller","inputs":[]},{"type":"error","name":"ZeroAddress","inputs":[{"name":"parameter","type":"string","internalType":"string"}]}],"bytecode":{"object":"0x608060405234801561001057600080fd5b506155df806100206000396000f3fe60806040523480156200001157600080fd5b5060043610620000ab5760003560e01c806385107367116200006e578063851073671462000137578063c457230a146200014b578063d4c6a3c1146200015f578063e29d26fb1462000176578063e77fc7a4146200018057600080fd5b8063158ef93e14620000b05780631fb9138914620000d357806332cb6b0c14620000ec578063425d498014620000f657806359d0f7131462000123575b600080fd5b600754620000be9060ff1681565b60405190151581526020015b60405180910390f35b620000dd60065481565b604051908152602001620000ca565b620000dd60055481565b6003546200010a906001600160a01b031681565b6040516001600160a01b039091168152602001620000ca565b6000546200010a906001600160a01b031681565b6002546200010a906001600160a01b031681565b6001546200010a906001600160a01b031681565b6200010a620001703660046200065b565b62000199565b620000dd60045481565b6200019762000191366004620006e7565b62000517565b005b6001546000906001600160a01b03163314620001c857604051635c427cd960e01b815260040160405180910390fd5b6001600160a01b0386166200021a5760405163eac0d38960e01b8152602060048201526012602482015271706172656e74546f6b656e4164647265737360701b60448201526064015b60405180910390fd5b600084900362000257576040516318a996bb60e21b815260040162000211906020808252600490820152636e616d6560e01b604082015260600190565b600082900362000294576040516318a996bb60e21b81526020600482015260066024820152651cde5b589bdb60d21b604482015260640162000211565b60008585858560045460055433604051620002af90620005cc565b620002c1979695949392919062000790565b604051809103906000f080158015620002de573d6000803e3d6000fd5b50600080546040516364e329cb60e11b81526001600160a01b0380851660048301528b811660248301529395508594509192169063c9c65396906044016020604051808303816000875af11580156200033b573d6000803e3d6000fd5b505050506040513d601f19601f82011682018060405250810190620003619190620007e4565b90506000600260009054906101000a90046001600160a01b0316848a846006546040516200038f90620005da565b6001600160a01b039586168152938516602085015291841660408401529092166060820152608081019190915260a001604051809103906000f080158015620003dc573d6000803e3d6000fd5b5060025460405191925082916000916001600160a01b03169087906200040290620005e8565b6001600160a01b03928316815291166020820152604001604051809103906000f08015801562000436573d6000803e3d6000fd5b50600354604051637c643b2f60e11b81526001600160a01b0391821660048201528d821660248201528482166044820152818316606482015291925082919087169063f8c8765e90608401600060405180830381600087803b1580156200049c57600080fd5b505af1158015620004b1573d6000803e3d6000fd5b505050508b6001600160a01b0316876001600160a01b03167f5d7dd57fab91e2cf4bd1d7fb901a4e4b230789b1b952b8da25418cfd50cb97b68d8d8d8d6040516200050094939291906200080b565b60405180910390a350505050505095945050505050565b82821015620005395760405163162908e360e11b815260040160405180910390fd5b60075460ff16156200055d5760405162dc149f60e41b815260040160405180910390fd5b6007805460ff19166001908117909155600080546001600160a01b03998a166001600160a01b0319918216179091558154978916978116979097179055600280549588169587169590951790945560038054939096169290941691909117909355600492909255600555600655565b611577806200084283390190565b6124568062001db983390190565b61139b806200420f83390190565b6001600160a01b03811681146200060c57600080fd5b50565b60008083601f8401126200062257600080fd5b50813567ffffffffffffffff8111156200063b57600080fd5b6020830191508360208285010111156200065457600080fd5b9250929050565b6000806000806000606086880312156200067457600080fd5b85356200068181620005f6565b9450602086013567ffffffffffffffff808211156200069f57600080fd5b620006ad89838a016200060f565b90965094506040880135915080821115620006c757600080fd5b50620006d6888289016200060f565b969995985093965092949392505050565b600080600080600080600060e0888a0312156200070357600080fd5b87356200071081620005f6565b965060208801356200072281620005f6565b955060408801356200073481620005f6565b945060608801356200074681620005f6565b9699959850939660808101359560a0820135955060c0909101359350915050565b81835281816020850137506000828201602090810191909152601f909101601f19169091010190565b60a081526000620007a660a08301898b62000767565b8281036020840152620007bb81888a62000767565b6040840196909652505060608101929092526001600160a01b0316608090910152949350505050565b600060208284031215620007f757600080fd5b81516200080481620005f6565b9392505050565b6040815260006200082160408301868862000767565b82810360208401526200083681858762000767565b97965050505050505056fe60a06040523480156200001157600080fd5b506040516200157738038062001577833981016040819052620000349162000293565b84846003620000448382620003c3565b506004620000538282620003c3565b5050600160055550828210156200007d576040516315ae672760e01b815260040160405180910390fd5b6001600160a01b038116620000a55760405163e6c4247b60e01b815260040160405180910390fd5b620000b1818462000103565b806001600160a01b03167f36bf5aa3964be01dbd95a0154a8930793fe68353bdc580871ffb2c911366bbc784604051620000ed91815260200190565b60405180910390a25060805250620004b7915050565b6001600160a01b0382166200015e5760405162461bcd60e51b815260206004820152601f60248201527f45524332303a206d696e7420746f20746865207a65726f206164647265737300604482015260640160405180910390fd5b80600260008282546200017291906200048f565b90915550506001600160a01b038216600081815260208181526040808320805486019055518481527fddf252ad1be2c89b69c2b068fc378daa952ba7f163c4a11628f55a4df523b3ef910160405180910390a35050565b505050565b634e487b7160e01b600052604160045260246000fd5b600082601f830112620001f657600080fd5b81516001600160401b0380821115620002135762000213620001ce565b604051601f8301601f19908116603f011681019082821181831017156200023e576200023e620001ce565b816040528381526020925086838588010111156200025b57600080fd5b600091505b838210156200027f578582018301518183018401529082019062000260565b600093810190920192909252949350505050565b600080600080600060a08688031215620002ac57600080fd5b85516001600160401b0380821115620002c457600080fd5b620002d289838a01620001e4565b96506020880151915080821115620002e957600080fd5b50620002f888828901620001e4565b6040880151606089015160808a0151929750909550935090506001600160a01b03811681146200032757600080fd5b809150509295509295909350565b600181811c908216806200034a57607f821691505b6020821081036200036b57634e487b7160e01b600052602260045260246000fd5b50919050565b601f821115620001c957600081815260208120601f850160051c810160208610156200039a5750805b601f850160051c820191505b81811015620003bb57828155600101620003a6565b505050505050565b81516001600160401b03811115620003df57620003df620001ce565b620003f781620003f0845462000335565b8462000371565b602080601f8311600181146200042f5760008415620004165750858301515b600019600386901b1c1916600185901b178555620003bb565b600085815260208120601f198616915b8281101562000460578886015182559484019460019091019084016200043f565b50858210156200047f5787850151600019600388901b60f8161c191681555b5050505050600190811b01905550565b80820180821115620004b157634e487b7160e01b600052601160045260246000fd5b92915050565b60805161109d620004da600039600081816102e601526104bf015261109d6000f3fe608060405234801561001057600080fd5b50600436106101425760003560e01c806347502b53116100b8578063a9059cbb1161007c578063a9059cbb146102a8578063ad225491146102bb578063cbd4bac5146102ce578063d5abeb01146102e1578063dd62ed3e14610308578063f8c8765e1461031b57600080fd5b806347502b531461023e57806370a082311461025157806395d89b411461027a5780639d01272e14610282578063a457c2d71461029557600080fd5b806318160ddd1161010a57806318160ddd146101d957806323b872dd146101e1578063313ce567146101f4578063395093511461020357806340c10f191461021657806342966c681461022b57600080fd5b80630661a25e1461014757806306fdde03146101625780630754617214610177578063095ea7b3146101a2578063158ef93e146101c5575b600080fd5b61014f61032e565b6040519081526020015b60405180910390f35b61016a6103a0565b6040516101599190610e03565b60065461018a906001600160a01b031681565b6040516001600160a01b039091168152602001610159565b6101b56101b0366004610e68565b610432565b6040519015158152602001610159565b6009546101b590600160a01b900460ff1681565b60025461014f565b6101b56101ef366004610e92565b61044c565b60405160128152602001610159565b6101b5610211366004610e68565b610470565b610229610224366004610e68565b610492565b005b610229610239366004610ece565b610562565b60075461018a906001600160a01b031681565b61014f61025f366004610ee7565b6001600160a01b031660009081526020819052604090205490565b61016a6105a4565b61014f610290366004610ece565b6105b3565b6101b56102a3366004610e68565b6106d9565b6101b56102b6366004610e68565b610759565b60085461018a906001600160a01b031681565b60095461018a906001600160a01b031681565b61014f7f000000000000000000000000000000000000000000000000000000000000000081565b61014f610316366004610f09565b610767565b610229610329366004610f3c565b610792565b6007546040516370a0823160e01b81523060048201526000916001600160a01b0316906370a0823190602401602060405180830381865afa158015610377573d6000803e3d6000fd5b505050506040513d601f19601f8201168201806040525081019061039b9190610f90565b905090565b6060600380546103af90610fa9565b80601f01602080910402602001604051908101604052809291908181526020018280546103db90610fa9565b80156104285780601f106103fd57610100808354040283529160200191610428565b820191906000526020600020905b81548152906001019060200180831161040b57829003601f168201915b5050505050905090565b60003361044081858561087e565b60019150505b92915050565b60003361045a8582856109a3565b610465858585610a1d565b506001949350505050565b6000336104408185856104838383610767565b61048d9190610ff9565b61087e565b6006546001600160a01b031633146104bd57604051633e34a41b60e21b815260040160405180910390fd5b7f0000000000000000000000000000000000000000000000000000000000000000816104e860025490565b6104f29190610ff9565b11156105115760405163c30436e960e01b815260040160405180910390fd5b61051b8282610bc1565b816001600160a01b03167f36bf5aa3964be01dbd95a0154a8930793fe68353bdc580871ffb2c911366bbc78260405161055691815260200190565b60405180910390a25050565b61056c3382610c80565b60405181815233907fab85194d35c4ea153d0b51f3a304d1d22cb8023e499a6503fb6c28c5864ae90e9060200160405180910390a250565b6060600480546103af90610fa9565b60006105bd610daa565b336000908152602081905260409020548211156105ed57604051631e9acf1760e31b815260040160405180910390fd5b600254826105f961032e565b610603919061100c565b61060d9190611023565b90506106193383610c80565b60075460405163a9059cbb60e01b8152336004820152602481018390526001600160a01b039091169063a9059cbb906044016020604051808303816000875af115801561066a573d6000803e3d6000fd5b505050506040513d601f19601f8201168201806040525081019061068e9190611045565b50604080518381526020810183905233917f33051b7b99352b2f771717639e25e4bf8dc930b1d6f8530cdc36d0fad8a922d5910160405180910390a26106d46001600555565b919050565b600033816106e78286610767565b90508381101561074c5760405162461bcd60e51b815260206004820152602560248201527f45524332303a2064656372656173656420616c6c6f77616e63652062656c6f77604482015264207a65726f60d81b60648201526084015b60405180910390fd5b610465828686840361087e565b600033610440818585610a1d565b6001600160a01b03918216600090815260016020908152604080832093909416825291909152205490565b600954600160a01b900460ff16156107bc5760405162dc149f60e41b815260040160405180910390fd5b6001600160a01b03841615806107d957506001600160a01b038316155b806107eb57506001600160a01b038216155b806107fd57506001600160a01b038116155b1561081b5760405163e6c4247b60e01b815260040160405180910390fd5b60098054600680546001600160a01b039788166001600160a01b03199182161790915560078054968816968216969096179095556008805494871694909516939093179093559092166001600160a81b031990921691909117600160a01b179055565b6001600160a01b0383166108e05760405162461bcd60e51b8152602060048201526024808201527f45524332303a20617070726f76652066726f6d20746865207a65726f206164646044820152637265737360e01b6064820152608401610743565b6001600160a01b0382166109415760405162461bcd60e51b815260206004820152602260248201527f45524332303a20617070726f766520746f20746865207a65726f206164647265604482015261737360f01b6064820152608401610743565b6001600160a01b0383811660008181526001602090815260408083209487168084529482529182902085905590518481527f8c5be1e5ebec7d5bd14f71427d1e84f3dd0314c0f7b2291e5b200ac8c7c3b92591015b60405180910390a3505050565b60006109af8484610767565b90506000198114610a175781811015610a0a5760405162461bcd60e51b815260206004820152601d60248201527f45524332303a20696e73756666696369656e7420616c6c6f77616e63650000006044820152606401610743565b610a17848484840361087e565b50505050565b6001600160a01b038316610a815760405162461bcd60e51b815260206004820152602560248201527f45524332303a207472616e736665722066726f6d20746865207a65726f206164604482015264647265737360d81b6064820152608401610743565b6001600160a01b038216610ae35760405162461bcd60e51b815260206004820152602360248201527f45524332303a207472616e7366657220746f20746865207a65726f206164647260448201526265737360e81b6064820152608401610743565b6001600160a01b03831660009081526020819052604090205481811015610b5b5760405162461bcd60e51b815260206004820152602660248201527f45524332303a207472616e7366657220616d6f756e7420657863656564732062604482015265616c616e636560d01b6064820152608401610743565b6001600160a01b03848116600081815260208181526040808320878703905593871680835291849020805487019055925185815290927fddf252ad1be2c89b69c2b068fc378daa952ba7f163c4a11628f55a4df523b3ef910160405180910390a3610a17565b6001600160a01b038216610c175760405162461bcd60e51b815260206004820152601f60248201527f45524332303a206d696e7420746f20746865207a65726f2061646472657373006044820152606401610743565b8060026000828254610c299190610ff9565b90915550506001600160a01b038216600081815260208181526040808320805486019055518481527fddf252ad1be2c89b69c2b068fc378daa952ba7f163c4a11628f55a4df523b3ef910160405180910390a35050565b6001600160a01b038216610ce05760405162461bcd60e51b815260206004820152602160248201527f45524332303a206275726e2066726f6d20746865207a65726f206164647265736044820152607360f81b6064820152608401610743565b6001600160a01b03821660009081526020819052604090205481811015610d545760405162461bcd60e51b815260206004820152602260248201527f45524332303a206275726e20616d6f756e7420657863656564732062616c616e604482015261636560f01b6064820152608401610743565b6001600160a01b0383166000818152602081815260408083208686039055600280548790039055518581529192917fddf252ad1be2c89b69c2b068fc378daa952ba7f163c4a11628f55a4df523b3ef9101610996565b600260055403610dfc5760405162461bcd60e51b815260206004820152601f60248201527f5265656e7472616e637947756172643a207265656e7472616e742063616c6c006044820152606401610743565b6002600555565b600060208083528351808285015260005b81811015610e3057858101830151858201604001528201610e14565b506000604082860101526040601f19601f8301168501019250505092915050565b80356001600160a01b03811681146106d457600080fd5b60008060408385031215610e7b57600080fd5b610e8483610e51565b946020939093013593505050565b600080600060608486031215610ea757600080fd5b610eb084610e51565b9250610ebe60208501610e51565b9150604084013590509250925092565b600060208284031215610ee057600080fd5b5035919050565b600060208284031215610ef957600080fd5b610f0282610e51565b9392505050565b60008060408385031215610f1c57600080fd5b610f2583610e51565b9150610f3360208401610e51565b90509250929050565b60008060008060808587031215610f5257600080fd5b610f5b85610e51565b9350610f6960208601610e51565b9250610f7760408601610e51565b9150610f8560608601610e51565b905092959194509250565b600060208284031215610fa257600080fd5b5051919050565b600181811c90821680610fbd57607f821691505b602082108103610fdd57634e487b7160e01b600052602260045260246000fd5b50919050565b634e487b7160e01b600052601160045260246000fd5b8082018082111561044657610446610fe3565b808202811582820484141761044657610446610fe3565b60008261104057634e487b7160e01b600052601260045260246000fd5b500490565b60006020828403121561105757600080fd5b81518015158114610f0257600080fdfea2646970667358221220dbac2735365bf88399a41d3718845fdab91a019909821b732884d8413ac90e3a64736f6c634300081100336101206040523480156200001257600080fd5b506040516200245638038062002456833981016040819052620000359162000214565b836001600160a01b03166306fdde036040518163ffffffff1660e01b8152600401600060405180830381865afa15801562000074573d6000803e3d6000fd5b505050506040513d6000823e601f3d908101601f191682016040526200009e9190810190620002b7565b604051602001620000b091906200036f565b604051602081830303815290604052846001600160a01b03166395d89b416040518163ffffffff1660e01b8152600401600060405180830381865afa158015620000fe573d6000803e3d6000fd5b505050506040513d6000823e601f3d908101601f19168201604052620001289190810190620002b7565b6040516020016200013a9190620003b6565b60408051601f19818403018152919052600362000158838262000471565b50600462000167828262000471565b5050506001600160a01b03851615806200018857506001600160a01b038416155b806200019b57506001600160a01b038316155b80620001ae57506001600160a01b038216155b15620001cd5760405163e6c4247b60e01b815260040160405180910390fd5b6001600160a01b0394851660805292841660a05290831660c05290911660e052610100526200053d565b80516001600160a01b03811681146200020f57600080fd5b919050565b600080600080600060a086880312156200022d57600080fd5b6200023886620001f7565b94506200024860208701620001f7565b93506200025860408701620001f7565b92506200026860608701620001f7565b9150608086015190509295509295909350565b634e487b7160e01b600052604160045260246000fd5b60005b83811015620002ae57818101518382015260200162000294565b50506000910152565b600060208284031215620002ca57600080fd5b81516001600160401b0380821115620002e257600080fd5b818401915084601f830112620002f757600080fd5b8151818111156200030c576200030c6200027b565b604051601f8201601f19908116603f011681019083821181831017156200033757620003376200027b565b816040528281528760208487010111156200035157600080fd5b6200036483602083016020880162000291565b979650505050505050565b7f5374616b6564204c6971756964697479206f6620000000000000000000000000815260008251620003a981601485016020870162000291565b9190910160140192915050565b611cdb60f21b815260008251620003d581600285016020870162000291565b9190910160020192915050565b600181811c90821680620003f757607f821691505b6020821081036200041857634e487b7160e01b600052602260045260246000fd5b50919050565b601f8211156200046c57600081815260208120601f850160051c81016020861015620004475750805b601f850160051c820191505b81811015620004685782815560010162000453565b5050505b505050565b81516001600160401b038111156200048d576200048d6200027b565b620004a5816200049e8454620003e2565b846200041e565b602080601f831160018114620004dd5760008415620004c45750858301515b600019600386901b1c1916600185901b17855562000468565b600085815260208120601f198616915b828110156200050e57888601518255948401946001909101908401620004ed565b50858210156200052d5787850151600019600388901b60f8161c191681555b5050505050600190811b01905550565b60805160a05160c05160e05161010051611e5662000600600039600081816101f301526104ce0152600081816102990152818161050d0152818161077201528181610af801528181610bac01528181610c5e01528181610e8a01526114b70152600081816102720152818161067401528181610a4b01528181610bdb0152610ff401526000818161032c01528181610811015281816109bd0152610b2701526000818161016a01528181610479015281816109270152610dd80152611e566000f3fe608060405234801561001057600080fd5b50600436106101425760003560e01c806349bd5a5e116100b85780639d76ea581161007c5780639d76ea5814610327578063a457c2d71461034e578063a9059cbb14610361578063ba9ea66b14610374578063dd62ed3e14610387578063e1a9e3311461039a57600080fd5b806349bd5a5e146102945780636a627842146102bb57806370a08231146102ce57806389afcb44146102f757806395d89b411461031f57600080fd5b80631fb913891161010a5780631fb91389146101ee57806323b872dd14610215578063313ce5671461022857806339509351146102375780633c18f6b81461024a57806347502b531461026d57600080fd5b806306fdde03146101475780630754617214610165578063095ea7b3146101a457806318160ddd146101c75780631ac3ddeb146101d9575b600080fd5b61014f6103c2565b60405161015c9190611b39565b60405180910390f35b61018c7f000000000000000000000000000000000000000000000000000000000000000081565b6040516001600160a01b03909116815260200161015c565b6101b76101b2366004611b9c565b610454565b604051901515815260200161015c565b6002545b60405190815260200161015c565b6101ec6101e7366004611bc8565b61046e565b005b6101cb7f000000000000000000000000000000000000000000000000000000000000000081565b6101b7610223366004611be5565b610724565b6040516012815260200161015c565b6101b7610245366004611b9c565b610748565b61025261076a565b6040805193845260208401929092529082015260600161015c565b61018c7f000000000000000000000000000000000000000000000000000000000000000081565b61018c7f000000000000000000000000000000000000000000000000000000000000000081565b6101cb6102c9366004611bc8565b61091a565b6101cb6102dc366004611bc8565b6001600160a01b031660009081526020819052604090205490565b61030a610305366004611bc8565b610dca565b6040805192835260208301919091520161015c565b61014f6110bd565b61018c7f000000000000000000000000000000000000000000000000000000000000000081565b6101b761035c366004611b9c565b6110cc565b6101b761036f366004611b9c565b61114c565b61030a610382366004611c26565b61115a565b6101cb610395366004611c3f565b6111ea565b6103a2611215565b60408051948552602085019390935291830152606082015260800161015c565b6060600380546103d190611c78565b80601f01602080910402602001604051908101604052809291908181526020018280546103fd90611c78565b801561044a5780601f1061041f5761010080835404028352916020019161044a565b820191906000526020600020905b81548152906001019060200180831161042d57829003601f168201915b5050505050905090565b6000336104628185856112a6565b60019150505b92915050565b336001600160a01b037f000000000000000000000000000000000000000000000000000000000000000016146104b757604051633e34a41b60e21b815260040160405180910390fd5b6000806104c26113cb565b509092509050806104f37f000000000000000000000000000000000000000000000000000000000000000084611cc8565b10156104fe57505050565b60405163a9059cbb60e01b81527f00000000000000000000000000000000000000000000000000000000000000006001600160a01b0381166004830181905260248301859052909163a9059cbb906044016020604051808303816000875af115801561056e573d6000803e3d6000fd5b505050506040513d601f19601f820116820180604052508101906105929190611cdf565b5060405163226bf2d160e21b81526001600160a01b03858116600483015260009182918416906389afcb449060240160408051808303816000875af11580156105df573d6000803e3d6000fd5b505050506040513d601f19601f820116820180604052508101906106039190611d01565b91509150826001600160a01b0316630dfe16816040518163ffffffff1660e01b8152600401602060405180830381865afa158015610645573d6000803e3d6000fd5b505050506040513d601f19601f820116820180604052508101906106699190611d25565b6001600160a01b03167f00000000000000000000000000000000000000000000000000000000000000006001600160a01b0316036106a357905b6106ae600085611493565b6000806106b961076a565b50604080518a815260208101889052908101869052606081018390526080810182905291935091506001600160a01b038916907f66c5250772d453a9d1a98e03b718d4c68e88eb5a5cf6a5d530be91fd4e01085b9060a00160405180910390a2505050505050505b50565b600033610732858285611599565b61073d858585611613565b506001949350505050565b60003361046281858561075b83836111ea565b6107659190611d42565b6112a6565b6000806000807f00000000000000000000000000000000000000000000000000000000000000009050600080826001600160a01b0316630902f1ac6040518163ffffffff1660e01b8152600401606060405180830381865afa1580156107d4573d6000803e3d6000fd5b505050506040513d601f19601f820116820180604052508101906107f89190611d6c565b506001600160701b031691506001600160701b031691507f00000000000000000000000000000000000000000000000000000000000000006001600160a01b0316836001600160a01b031663d21220a76040518163ffffffff1660e01b8152600401602060405180830381865afa158015610877573d6000803e3d6000fd5b505050506040513d601f19601f8201168201806040525081019061089b9190611d25565b6001600160a01b0316036108ab57905b826001600160a01b03166318160ddd6040518163ffffffff1660e01b8152600401602060405180830381865afa1580156108e9573d6000803e3d6000fd5b505050506040513d601f19601f8201168201806040525081019061090d9190611dbc565b9196909550909350915050565b6000336001600160a01b037f0000000000000000000000000000000000000000000000000000000000000000161461096557604051633e34a41b60e21b815260040160405180910390fd5b6001600160a01b03821661098c5760405163e6c4247b60e01b815260040160405180910390fd5b6000806109976113cb565b506040516370a0823160e01b815230600482015291935091506000906001600160a01b037f000000000000000000000000000000000000000000000000000000000000000016906370a0823190602401602060405180830381865afa158015610a04573d6000803e3d6000fd5b505050506040513d601f19601f82011682018060405250810190610a289190611dbc565b6040516370a0823160e01b81523060048201529091506000906001600160a01b037f000000000000000000000000000000000000000000000000000000000000000016906370a0823190602401602060405180830381865afa158015610a92573d6000803e3d6000fd5b505050506040513d601f19601f82011682018060405250810190610ab69190611dbc565b9050811580610ac3575080155b15610ae15760405163bb55fd2760e01b815260040160405180910390fd5b60405163a9059cbb60e01b81526001600160a01b037f000000000000000000000000000000000000000000000000000000000000000081166004830152602482018490527f0000000000000000000000000000000000000000000000000000000000000000169063a9059cbb906044016020604051808303816000875af1158015610b70573d6000803e3d6000fd5b505050506040513d601f19601f82011682018060405250810190610b949190611cdf565b5060405163a9059cbb60e01b81526001600160a01b037f000000000000000000000000000000000000000000000000000000000000000081166004830152602482018390527f0000000000000000000000000000000000000000000000000000000000000000169063a9059cbb906044016020604051808303816000875af1158015610c24573d6000803e3d6000fd5b505050506040513d601f19601f82011682018060405250810190610c489190611cdf565b506040516335313c2160e11b81523060048201527f0000000000000000000000000000000000000000000000000000000000000000906000906001600160a01b03831690636a627842906024016020604051808303816000875af1158015610cb4573d6000803e3d6000fd5b505050506040513d601f19601f82011682018060405250810190610cd89190611dbc565b905080600003610cfb576040516326d4293760e21b815260040160405180910390fd5b84600003610d0b57809650610d2d565b8481610d1660025490565b610d209190611cc8565b610d2a9190611deb565b96505b610d4086610d3b8388611d42565b611493565b610d4a88886117b7565b600080610d5561076a565b50604080518c815260208101879052908101899052606081018890526080810183905260a0810182905291935091506001600160a01b038b16907f580e67502fa130b24d162f8b1e971a6e8ab24ca90104576f3d4482129ec3dd579060c00160405180910390a250505050505050505b919050565b600080336001600160a01b037f00000000000000000000000000000000000000000000000000000000000000001614610e1657604051633e34a41b60e21b815260040160405180910390fd5b3060009081526020819052604081205490819003610e4757604051635ca8eceb60e11b815260040160405180910390fd5b600080610e526113cb565b50915091506000610e6260025490565b9050600081610e718487611cc8565b610e7b9190611deb565b60405163a9059cbb60e01b81527f00000000000000000000000000000000000000000000000000000000000000006001600160a01b038116600483018190526024830184905292935091829163a9059cbb906044016020604051808303816000875af1158015610eef573d6000803e3d6000fd5b505050506040513d601f19601f82011682018060405250810190610f139190611cdf565b5060405163226bf2d160e21b81526001600160a01b038b811660048301528216906389afcb449060240160408051808303816000875af1158015610f5b573d6000803e3d6000fd5b505050506040513d601f19601f82011682018060405250810190610f7f9190611d01565b809950819a505050806001600160a01b0316630dfe16816040518163ffffffff1660e01b8152600401602060405180830381865afa158015610fc5573d6000803e3d6000fd5b505050506040513d601f19601f82011682018060405250810190610fe99190611d25565b6001600160a01b03167f00000000000000000000000000000000000000000000000000000000000000006001600160a01b031603611025579697965b61103386610d3b8588611e0d565b61103d3088611876565b60008061104861076a565b50604080518c8152602081018990529081018e9052606081018d90526080810183905260a0810182905291935091506001600160a01b038d16907f849f7800bd76b47438308384ea1bda955e3e34fc74a242a2de521578a7ed26cf9060c00160405180910390a2505050505050505050915091565b6060600480546103d190611c78565b600033816110da82866111ea565b90508381101561113f5760405162461bcd60e51b815260206004820152602560248201527f45524332303a2064656372656173656420616c6c6f77616e63652062656c6f77604482015264207a65726f60d81b60648201526084015b60405180910390fd5b61073d82868684036112a6565b600033610462818585611613565b6000808260000361117057506000928392509050565b600080600061117d61076a565b925092509250600061118d6113cb565b50915050600061119c60025490565b6111a6838a611cc8565b6111b09190611deb565b9050826111bd8683611cc8565b6111c79190611deb565b9650826111d48583611cc8565b6111de9190611deb565b95505050505050915091565b6001600160a01b03918216600090815260016020908152604080832093909416825291909152205490565b6000806000806000806112266113cb565b5091509150600080600061123861076a565b919450925090508061124a8486611cc8565b6112549190611deb565b9850806112618386611cc8565b61126b9190611deb565b9750806112788487611cc8565b6112829190611deb565b96508061128f8387611cc8565b6112999190611deb565b9550505050505090919293565b6001600160a01b0383166113085760405162461bcd60e51b8152602060048201526024808201527f45524332303a20617070726f76652066726f6d20746865207a65726f206164646044820152637265737360e01b6064820152608401611136565b6001600160a01b0382166113695760405162461bcd60e51b815260206004820152602260248201527f45524332303a20617070726f766520746f20746865207a65726f206164647265604482015261737360f01b6064820152608401611136565b6001600160a01b0383811660008181526001602090815260408083209487168084529482529182902085905590518481527f8c5be1e5ebec7d5bd14f71427d1e84f3dd0314c0f7b2291e5b200ac8c7c3b92591015b60405180910390a3505050565b6007546006546000918291829190826113e48284611d42565b905060008060006113f361076a565b9250925092508360001480611406575080155b1561141e575060009889985088975095505050505050565b808461143261142d8587611cc8565b6119a0565b61143c9190611cc8565b6114469190611deb565b60055490975080881161146457959994985094965092945050505050565b8761146f8288611cc8565b6114799190611deb565b98506114858986611e0d565b995050505050505050909192565b600061149f8284611d42565b6040516370a0823160e01b81523060048201529091507f00000000000000000000000000000000000000000000000000000000000000006001600160a01b0316906370a0823190602401602060405180830381865afa158015611506573d6000803e3d6000fd5b505050506040513d601f19601f8201168201806040525081019061152a9190611dbc565b81111561154a576040516374c1025960e11b815260040160405180910390fd5b600080600061155761076a565b919450925090506000818561156f61142d8688611cc8565b6115799190611cc8565b6115839190611deb565b6007979097555050506006929092555050600555565b60006115a584846111ea565b9050600019811461160d57818110156116005760405162461bcd60e51b815260206004820152601d60248201527f45524332303a20696e73756666696369656e7420616c6c6f77616e63650000006044820152606401611136565b61160d84848484036112a6565b50505050565b6001600160a01b0383166116775760405162461bcd60e51b815260206004820152602560248201527f45524332303a207472616e736665722066726f6d20746865207a65726f206164604482015264647265737360d81b6064820152608401611136565b6001600160a01b0382166116d95760405162461bcd60e51b815260206004820152602360248201527f45524332303a207472616e7366657220746f20746865207a65726f206164647260448201526265737360e81b6064820152608401611136565b6001600160a01b038316600090815260208190526040902054818110156117515760405162461bcd60e51b815260206004820152602660248201527f45524332303a207472616e7366657220616d6f756e7420657863656564732062604482015265616c616e636560d01b6064820152608401611136565b6001600160a01b03848116600081815260208181526040808320878703905593871680835291849020805487019055925185815290927fddf252ad1be2c89b69c2b068fc378daa952ba7f163c4a11628f55a4df523b3ef910160405180910390a361160d565b6001600160a01b03821661180d5760405162461bcd60e51b815260206004820152601f60248201527f45524332303a206d696e7420746f20746865207a65726f2061646472657373006044820152606401611136565b806002600082825461181f9190611d42565b90915550506001600160a01b038216600081815260208181526040808320805486019055518481527fddf252ad1be2c89b69c2b068fc378daa952ba7f163c4a11628f55a4df523b3ef910160405180910390a35050565b6001600160a01b0382166118d65760405162461bcd60e51b815260206004820152602160248201527f45524332303a206275726e2066726f6d20746865207a65726f206164647265736044820152607360f81b6064820152608401611136565b6001600160a01b0382166000908152602081905260409020548181101561194a5760405162461bcd60e51b815260206004820152602260248201527f45524332303a206275726e20616d6f756e7420657863656564732062616c616e604482015261636560f01b6064820152608401611136565b6001600160a01b0383166000818152602081815260408083208686039055600280548790039055518581529192917fddf252ad1be2c89b69c2b068fc378daa952ba7f163c4a11628f55a4df523b3ef91016113be565b6000816000036119b257506000919050565b600060016119bf84611a8f565b901c6001901b905060018184816119d8576119d8611dd5565b048201901c905060018184816119f0576119f0611dd5565b048201901c90506001818481611a0857611a08611dd5565b048201901c90506001818481611a2057611a20611dd5565b048201901c90506001818481611a3857611a38611dd5565b048201901c90506001818481611a5057611a50611dd5565b048201901c90506001818481611a6857611a68611dd5565b048201901c9050611a8881828581611a8257611a82611dd5565b04611b23565b9392505050565b600080608083901c15611aa457608092831c92015b604083901c15611ab657604092831c92015b602083901c15611ac857602092831c92015b601083901c15611ada57601092831c92015b600883901c15611aec57600892831c92015b600483901c15611afe57600492831c92015b600283901c15611b1057600292831c92015b600183901c156104685760010192915050565b6000818310611b325781611a88565b5090919050565b600060208083528351808285015260005b81811015611b6657858101830151858201604001528201611b4a565b506000604082860101526040601f19601f8301168501019250505092915050565b6001600160a01b038116811461072157600080fd5b60008060408385031215611baf57600080fd5b8235611bba81611b87565b946020939093013593505050565b600060208284031215611bda57600080fd5b8135611a8881611b87565b600080600060608486031215611bfa57600080fd5b8335611c0581611b87565b92506020840135611c1581611b87565b929592945050506040919091013590565b600060208284031215611c3857600080fd5b5035919050565b60008060408385031215611c5257600080fd5b8235611c5d81611b87565b91506020830135611c6d81611b87565b809150509250929050565b600181811c90821680611c8c57607f821691505b602082108103611cac57634e487b7160e01b600052602260045260246000fd5b50919050565b634e487b7160e01b600052601160045260246000fd5b808202811582820484141761046857610468611cb2565b600060208284031215611cf157600080fd5b81518015158114611a8857600080fd5b60008060408385031215611d1457600080fd5b505080516020909101519092909150565b600060208284031215611d3757600080fd5b8151611a8881611b87565b8082018082111561046857610468611cb2565b80516001600160701b0381168114610dc557600080fd5b600080600060608486031215611d8157600080fd5b611d8a84611d55565b9250611d9860208501611d55565b9150604084015163ffffffff81168114611db157600080fd5b809150509250925092565b600060208284031215611dce57600080fd5b5051919050565b634e487b7160e01b600052601260045260246000fd5b600082611e0857634e487b7160e01b600052601260045260246000fd5b500490565b8181038181111561046857610468611cb256fea2646970667358221220654bebcca788c7bae315c43cd3a3ef516a793e4db33fefee0bc87663d52b733d64736f6c6343000811003360c06040523480156200001157600080fd5b506040516200139b3803806200139b8339810160408190526200003491620001ee565b806001600160a01b03166306fdde036040518163ffffffff1660e01b8152600401600060405180830381865afa15801562000073573d6000803e3d6000fd5b505050506040513d6000823e601f3d908101601f191682016040526200009d919081019062000262565b604051602001620000af91906200031a565b604051602081830303815290604052816001600160a01b03166395d89b416040518163ffffffff1660e01b8152600401600060405180830381865afa158015620000fd573d6000803e3d6000fd5b505050506040513d6000823e601f3d908101601f1916820160405262000127919081019062000262565b6040516020016200013991906200034b565b60408051601f19818403018152919052600362000157838262000406565b50600462000166828262000406565b5050506001600160a01b038216620001915760405163e6c4247b60e01b815260040160405180910390fd5b6001600160a01b038116620001b95760405163e6c4247b60e01b815260040160405180910390fd5b6001600160a01b039182166080521660a052620004d2565b80516001600160a01b0381168114620001e957600080fd5b919050565b600080604083850312156200020257600080fd5b6200020d83620001d1565b91506200021d60208401620001d1565b90509250929050565b634e487b7160e01b600052604160045260246000fd5b60005b83811015620002595781810151838201526020016200023f565b50506000910152565b6000602082840312156200027557600080fd5b81516001600160401b03808211156200028d57600080fd5b818401915084601f830112620002a257600080fd5b815181811115620002b757620002b762000226565b604051601f8201601f19908116603f01168101908382118183101715620002e257620002e262000226565b81604052828152876020848701011115620002fc57600080fd5b6200030f8360208301602088016200023c565b979650505050505050565b66029ba30b5b2b2160cd1b8152600082516200033e8160078501602087016200023c565b9190910160070192915050565b611cdd60f21b8152600082516200036a8160028501602087016200023c565b9190910160020192915050565b600181811c908216806200038c57607f821691505b602082108103620003ad57634e487b7160e01b600052602260045260246000fd5b50919050565b601f8211156200040157600081815260208120601f850160051c81016020861015620003dc5750805b601f850160051c820191505b81811015620003fd57828155600101620003e8565b5050505b505050565b81516001600160401b0381111562000422576200042262000226565b6200043a8162000433845462000377565b84620003b3565b602080601f831160018114620004725760008415620004595750858301515b600019600386901b1c1916600185901b178555620003fd565b600085815260208120601f198616915b82811015620004a35788860151825594840194600190910190840162000482565b5085821015620004c25787850151600019600388901b60f8161c191681555b5050505050600190811b01905550565b60805160a051610e87620005146000396000818161022a0152818161040801526105de0152600081816101280152818161038b01526104fe0152610e876000f3fe608060405234801561001057600080fd5b50600436106101005760003560e01c806370a0823111610097578063a457c2d711610066578063a457c2d71461024c578063a9059cbb1461025f578063cd3293de14610272578063dd62ed3e1461027b57600080fd5b806370a08231146101e157806389afcb441461020a57806395d89b411461021d5780639d76ea581461022557600080fd5b806323b872dd116100d357806323b872dd14610197578063313ce567146101aa57806339509351146101b95780636a627842146101cc57600080fd5b806306fdde03146101055780630754617214610123578063095ea7b31461016257806318160ddd14610185575b600080fd5b61010d61028e565b60405161011a9190610c7b565b60405180910390f35b61014a7f000000000000000000000000000000000000000000000000000000000000000081565b6040516001600160a01b03909116815260200161011a565b610175610170366004610ce5565b610320565b604051901515815260200161011a565b6002545b60405190815260200161011a565b6101756101a5366004610d0f565b61033a565b6040516012815260200161011a565b6101756101c7366004610ce5565b61035e565b6101df6101da366004610d4b565b610380565b005b6101896101ef366004610d4b565b6001600160a01b031660009081526020819052604090205490565b6101df610218366004610d4b565b6104f3565b61010d610687565b61014a7f000000000000000000000000000000000000000000000000000000000000000081565b61017561025a366004610ce5565b610696565b61017561026d366004610ce5565b610716565b61018960055481565b610189610289366004610d6d565b610724565b60606003805461029d90610da0565b80601f01602080910402602001604051908101604052809291908181526020018280546102c990610da0565b80156103165780601f106102eb57610100808354040283529160200191610316565b820191906000526020600020905b8154815290600101906020018083116102f957829003601f168201915b5050505050905090565b60003361032e81858561074f565b60019150505b92915050565b600033610348858285610874565b6103538585856108ee565b506001949350505050565b60003361032e8185856103718383610724565b61037b9190610df0565b61074f565b336001600160a01b037f000000000000000000000000000000000000000000000000000000000000000016146103c957604051633e34a41b60e21b815260040160405180910390fd5b6001600160a01b0381166103f05760405163e6c4247b60e01b815260040160405180910390fd5b6040516370a0823160e01b81523060048201526000907f00000000000000000000000000000000000000000000000000000000000000006001600160a01b0316906370a0823190602401602060405180830381865afa158015610457573d6000803e3d6000fd5b505050506040513d601f19601f8201168201806040525081019061047b9190610e03565b9050600554811161048a575050565b60006005548261049a9190610e1c565b600583905590506104ab8382610a92565b826001600160a01b03167f36bf5aa3964be01dbd95a0154a8930793fe68353bdc580871ffb2c911366bbc7826040516104e691815260200190565b60405180910390a2505050565b336001600160a01b037f0000000000000000000000000000000000000000000000000000000000000000161461053c57604051633e34a41b60e21b815260040160405180910390fd5b6001600160a01b0381166105635760405163e6c4247b60e01b815260040160405180910390fd5b3060008181526020819052604090205460055481111561059657604051638fe0a65f60e01b815260040160405180910390fd5b80600560008282546105a89190610e1c565b909155506105b890508282610b51565b60405163a9059cbb60e01b81526001600160a01b038481166004830152602482018390527f0000000000000000000000000000000000000000000000000000000000000000169063a9059cbb906044016020604051808303816000875af1158015610627573d6000803e3d6000fd5b505050506040513d601f19601f8201168201806040525081019061064b9190610e2f565b50826001600160a01b03167fab85194d35c4ea153d0b51f3a304d1d22cb8023e499a6503fb6c28c5864ae90e826040516104e691815260200190565b60606004805461029d90610da0565b600033816106a48286610724565b9050838110156107095760405162461bcd60e51b815260206004820152602560248201527f45524332303a2064656372656173656420616c6c6f77616e63652062656c6f77604482015264207a65726f60d81b60648201526084015b60405180910390fd5b610353828686840361074f565b60003361032e8185856108ee565b6001600160a01b03918216600090815260016020908152604080832093909416825291909152205490565b6001600160a01b0383166107b15760405162461bcd60e51b8152602060048201526024808201527f45524332303a20617070726f76652066726f6d20746865207a65726f206164646044820152637265737360e01b6064820152608401610700565b6001600160a01b0382166108125760405162461bcd60e51b815260206004820152602260248201527f45524332303a20617070726f766520746f20746865207a65726f206164647265604482015261737360f01b6064820152608401610700565b6001600160a01b0383811660008181526001602090815260408083209487168084529482529182902085905590518481527f8c5be1e5ebec7d5bd14f71427d1e84f3dd0314c0f7b2291e5b200ac8c7c3b92591015b60405180910390a3505050565b60006108808484610724565b905060001981146108e857818110156108db5760405162461bcd60e51b815260206004820152601d60248201527f45524332303a20696e73756666696369656e7420616c6c6f77616e63650000006044820152606401610700565b6108e8848484840361074f565b50505050565b6001600160a01b0383166109525760405162461bcd60e51b815260206004820152602560248201527f45524332303a207472616e736665722066726f6d20746865207a65726f206164604482015264647265737360d81b6064820152608401610700565b6001600160a01b0382166109b45760405162461bcd60e51b815260206004820152602360248201527f45524332303a207472616e7366657220746f20746865207a65726f206164647260448201526265737360e81b6064820152608401610700565b6001600160a01b03831660009081526020819052604090205481811015610a2c5760405162461bcd60e51b815260206004820152602660248201527f45524332303a207472616e7366657220616d6f756e7420657863656564732062604482015265616c616e636560d01b6064820152608401610700565b6001600160a01b03848116600081815260208181526040808320878703905593871680835291849020805487019055925185815290927fddf252ad1be2c89b69c2b068fc378daa952ba7f163c4a11628f55a4df523b3ef910160405180910390a36108e8565b6001600160a01b038216610ae85760405162461bcd60e51b815260206004820152601f60248201527f45524332303a206d696e7420746f20746865207a65726f2061646472657373006044820152606401610700565b8060026000828254610afa9190610df0565b90915550506001600160a01b038216600081815260208181526040808320805486019055518481527fddf252ad1be2c89b69c2b068fc378daa952ba7f163c4a11628f55a4df523b3ef910160405180910390a35050565b6001600160a01b038216610bb15760405162461bcd60e51b815260206004820152602160248201527f45524332303a206275726e2066726f6d20746865207a65726f206164647265736044820152607360f81b6064820152608401610700565b6001600160a01b03821660009081526020819052604090205481811015610c255760405162461bcd60e51b815260206004820152602260248201527f45524332303a206275726e20616d6f756e7420657863656564732062616c616e604482015261636560f01b6064820152608401610700565b6001600160a01b0383166000818152602081815260408083208686039055600280548790039055518581529192917fddf252ad1be2c89b69c2b068fc378daa952ba7f163c4a11628f55a4df523b3ef9101610867565b600060208083528351808285015260005b81811015610ca857858101830151858201604001528201610c8c565b506000604082860101526040601f19601f8301168501019250505092915050565b80356001600160a01b0381168114610ce057600080fd5b919050565b60008060408385031215610cf857600080fd5b610d0183610cc9565b946020939093013593505050565b600080600060608486031215610d2457600080fd5b610d2d84610cc9565b9250610d3b60208501610cc9565b9150604084013590509250925092565b600060208284031215610d5d57600080fd5b610d6682610cc9565b9392505050565b60008060408385031215610d8057600080fd5b610d8983610cc9565b9150610d9760208401610cc9565b90509250929050565b600181811c90821680610db457607f821691505b602082108103610dd457634e487b7160e01b600052602260045260246000fd5b50919050565b634e487b7160e01b600052601160045260246000fd5b8082018082111561033457610334610dda565b600060208284031215610e1557600080fd5b5051919050565b8181038181111561033457610334610dda565b600060208284031215610e4157600080fd5b81518015158114610d6657600080fdfea26469706673582212201da73c961fd6970929e74c17dfb38750aa33875d92fad2dd99d58f450ee6ef4864736f6c63430008110033a2646970667358221220d4d1651ae17bef2a59d4e0848bc68d139411a66405da6cd99238274e4aceb8f364736f6c63430008110033","linkReferences":{}},"methodIdentifiers":{"LAUNCH_AMOUNT()":"e29d26fb","MAX_SUPPLY()":"32cb6b0c","MAX_WITHDRAWABLE_TO_FEE_RATIO()":"1fb91389","createToken(address,string,string)":"d4c6a3c1","initialize(address,address,address,address,uint256,uint256,uint256)":"e77fc7a4","initialized()":"158ef93e","launchAddress()":"c457230a","mintAddress()":"425d4980","stakeAddress()":"85107367","uniswapV2Factory()":"59d0f713"},"id":50}