{"abi":[{"type":"constructor","inputs":[{"name":"groupAdmin_","type":"address","internalType":"address"}],"stateMutability":"nonpayable"},{"type":"function","name":"GROUP_ADMIN_ADDRESS","inputs":[],"outputs":[{"name":"","type":"address","internalType":"address"}],"stateMutability":"view"},{"type":"function","name":"addressBanDetails","inputs":[{"name":"groupId","type":"uint256","internalType":"uint256"},{"name":"senderAddresses","type":"address[]","internalType":"address[]"}],"outputs":[{"name":"banned","type":"bool[]","internalType":"bool[]"},{"name":"operatorAddresses","type":"address[]","internalType":"address[]"},{"name":"operatorIds","type":"uint256[]","internalType":"uint256[]"}],"stateMutability":"view"},{"type":"function","name":"addressBanList","inputs":[{"name":"groupId","type":"uint256","internalType":"uint256"},{"name":"offset","type":"uint256","internalType":"uint256"},{"name":"limit","type":"uint256","internalType":"uint256"}],"outputs":[{"name":"senderAddresses","type":"address[]","internalType":"address[]"},{"name":"operatorAddresses","type":"address[]","internalType":"address[]"},{"name":"operatorIds","type":"uint256[]","internalType":"uint256[]"}],"stateMutability":"view"},{"type":"function","name":"addressBanListCount","inputs":[{"name":"groupId","type":"uint256","internalType":"uint256"}],"outputs":[{"name":"","type":"uint256","internalType":"uint256"}],"stateMutability":"view"},{"type":"function","name":"banBySenderAddresses","inputs":[{"name":"groupId","type":"uint256","internalType":"uint256"},{"name":"senderAddresses","type":"address[]","internalType":"address[]"}],"outputs":[],"stateMutability":"nonpayable"},{"type":"function","name":"banBySenderIds","inputs":[{"name":"groupId","type":"uint256","internalType":"uint256"},{"name":"senderIds","type":"uint256[]","internalType":"uint256[]"}],"outputs":[],"stateMutability":"nonpayable"},{"type":"function","name":"banBySenders","inputs":[{"name":"groupId","type":"uint256","internalType":"uint256"},{"name":"senderIds","type":"uint256[]","internalType":"uint256[]"},{"name":"senderAddresses","type":"address[]","internalType":"address[]"}],"outputs":[],"stateMutability":"nonpayable"},{"type":"function","name":"isAddressBanned","inputs":[{"name":"groupId","type":"uint256","internalType":"uint256"},{"name":"senderAddress","type":"address","internalType":"address"}],"outputs":[{"name":"","type":"bool","internalType":"bool"}],"stateMutability":"view"},{"type":"function","name":"isBanned","inputs":[{"name":"groupId","type":"uint256","internalType":"uint256"},{"name":"senderId","type":"uint256","internalType":"uint256"},{"name":"senderAddress","type":"address","internalType":"address"}],"outputs":[{"name":"","type":"bool","internalType":"bool"}],"stateMutability":"view"},{"type":"function","name":"isSenderIdBanned","inputs":[{"name":"groupId","type":"uint256","internalType":"uint256"},{"name":"senderId","type":"uint256","internalType":"uint256"}],"outputs":[{"name":"","type":"bool","internalType":"bool"}],"stateMutability":"view"},{"type":"function","name":"senderIdBanDetails","inputs":[{"name":"groupId","type":"uint256","internalType":"uint256"},{"name":"senderIds","type":"uint256[]","internalType":"uint256[]"}],"outputs":[{"name":"banned","type":"bool[]","internalType":"bool[]"},{"name":"operatorAddresses","type":"address[]","internalType":"address[]"},{"name":"operatorIds","type":"uint256[]","internalType":"uint256[]"}],"stateMutability":"view"},{"type":"function","name":"senderIdBanList","inputs":[{"name":"groupId","type":"uint256","internalType":"uint256"},{"name":"offset","type":"uint256","internalType":"uint256"},{"name":"limit","type":"uint256","internalType":"uint256"}],"outputs":[{"name":"senderIds","type":"uint256[]","internalType":"uint256[]"},{"name":"operatorAddresses","type":"address[]","internalType":"address[]"},{"name":"operatorIds","type":"uint256[]","internalType":"uint256[]"}],"stateMutability":"view"},{"type":"function","name":"senderIdBanListCount","inputs":[{"name":"groupId","type":"uint256","internalType":"uint256"}],"outputs":[{"name":"","type":"uint256","internalType":"uint256"}],"stateMutability":"view"},{"type":"function","name":"unbanBySenderAddresses","inputs":[{"name":"groupId","type":"uint256","internalType":"uint256"},{"name":"senderAddresses","type":"address[]","internalType":"address[]"}],"outputs":[],"stateMutability":"nonpayable"},{"type":"function","name":"unbanBySenderIds","inputs":[{"name":"groupId","type":"uint256","internalType":"uint256"},{"name":"senderIds","type":"uint256[]","internalType":"uint256[]"}],"outputs":[],"stateMutability":"nonpayable"},{"type":"function","name":"unbanBySenders","inputs":[{"name":"groupId","type":"uint256","internalType":"uint256"},{"name":"senderIds","type":"uint256[]","internalType":"uint256[]"},{"name":"senderAddresses","type":"address[]","internalType":"address[]"}],"outputs":[],"stateMutability":"nonpayable"},{"type":"event","name":"SetAddressBan","inputs":[{"name":"groupId","type":"uint256","indexed":true,"internalType":"uint256"},{"name":"operatorAddress","type":"address","indexed":true,"internalType":"address"},{"name":"targetAddress","type":"address","indexed":true,"internalType":"address"},{"name":"operatorId","type":"uint256","indexed":false,"internalType":"uint256"},{"name":"listed","type":"bool","indexed":false,"internalType":"bool"}],"anonymous":false},{"type":"event","name":"SetSenderIdBan","inputs":[{"name":"groupId","type":"uint256","indexed":true,"internalType":"uint256"},{"name":"operatorAddress","type":"address","indexed":true,"internalType":"address"},{"name":"targetSenderId","type":"uint256","indexed":true,"internalType":"uint256"},{"name":"operatorId","type":"uint256","indexed":false,"internalType":"uint256"},{"name":"listed","type":"bool","indexed":false,"internalType":"bool"}],"anonymous":false},{"type":"error","name":"GroupBanListAddressHasNoCode","inputs":[]},{"type":"error","name":"SenderPairLengthMismatch","inputs":[]},{"type":"error","name":"TargetAddressZero","inputs":[]},{"type":"error","name":"TargetSenderIdZero","inputs":[]},{"type":"error","name":"UnauthorizedGroupBanListManager","inputs":[]}],"bytecode":{"object":"0x60a060405234801561001057600080fd5b50604051611aed380380611aed83398101604081905261002f9161006b565b806001600160a01b03163b60000361005a576040516361fdbbd360e01b815260040160405180910390fd5b6001600160a01b031660805261009b565b60006020828403121561007d57600080fd5b81516001600160a01b038116811461009457600080fd5b9392505050565b608051611a296100c46000396000818161020601528181610bf40152610c8d0152611a296000f3fe608060405234801561001057600080fd5b50600436106101005760003560e01c806374a278c81161009757806399e34dc11161006657806399e34dc114610288578063c7ddb6b21461029b578063ca0abf3b146102ae578063ed0127a3146102c157600080fd5b806374a278c814610201578063750607dd146102405780637dc8faef14610253578063832d45501461026657600080fd5b806319fed26c116100d357806319fed26c1461017a5780631f5f7b8f1461018d57806328d894e4146101bb5780633470fcc9146101de57600080fd5b806304c7fe6b1461010557806304eab8e91461011a5780630ab4082a1461012d5780630e3b928514610158575b600080fd5b610118610113366004611657565b6102d4565b005b610118610128366004611657565b6102f5565b61014061013b3660046116a2565b610310565b60405161014f93929190611742565b60405180910390f35b61016b610166366004611657565b610487565b60405161014f93929190611785565b61016b610188366004611657565b610672565b6101ad61019b3660046117e9565b60009081526020819052604090205490565b60405190815260200161014f565b6101ad6101c93660046117e9565b60009081526020819052604090206002015490565b6101f16101ec366004611819565b61086c565b604051901515815260200161014f565b6102287f000000000000000000000000000000000000000000000000000000000000000081565b6040516001600160a01b03909116815260200161014f565b6101f161024e36600461184e565b61088f565b610118610261366004611657565b6108b0565b6102796102743660046116a2565b6108cb565b60405161014f9392919061187a565b610118610296366004611657565b610a46565b6101f16102a936600461188d565b610a61565b6101186102bc3660046118af565b610a83565b6101186102cf3660046118af565b610b31565b60006102df84610bd5565b90506102ef848285856001610d29565b50505050565b600061030084610bd5565b90506102ef848285856000610db9565b600083815260208190526040902060609081908190610333600282018787610e35565b935083516001600160401b0381111561034e5761034e611928565b604051908082528060200260200182016040528015610377578160200160208202803683370190505b50925083516001600160401b0381111561039357610393611928565b6040519080825280602002602001820160405280156103bc578160200160208202803683370190505b50915060005b845181101561047c5760008260050160008784815181106103e5576103e561193e565b6020026020010151815260200190815260200160002090508060000160009054906101000a90046001600160a01b03168583815181106104275761042761193e565b60200260200101906001600160a01b031690816001600160a01b031681525050806001015484838151811061045e5761045e61193e565b602090810291909101015250806104748161196a565b9150506103c2565b505093509350939050565b600083815260208190526040902060609081908190846001600160401b038111156104b4576104b4611928565b6040519080825280602002602001820160405280156104dd578160200160208202803683370190505b509350846001600160401b038111156104f8576104f8611928565b604051908082528060200260200182016040528015610521578160200160208202803683370190505b509250846001600160401b0381111561053c5761053c611928565b604051908082528060200260200182016040528015610565578160200160208202803683370190505b50915060005b8581101561047c576105a18787838181106105885761058861193e565b9050602002013583600201610efa90919063ffffffff16565b8582815181106105b3576105b361193e565b91151560209283029190910190910152600060058301818989858181106105dc576105dc61193e565b90506020020135815260200190815260200160002090508060000160009054906101000a90046001600160a01b031685838151811061061d5761061d61193e565b60200260200101906001600160a01b031690816001600160a01b03168152505080600101548483815181106106545761065461193e565b6020908102919091010152508061066a8161196a565b91505061056b565b600083815260208190526040902060609081908190846001600160401b0381111561069f5761069f611928565b6040519080825280602002602001820160405280156106c8578160200160208202803683370190505b509350846001600160401b038111156106e3576106e3611928565b60405190808252806020026020018201604052801561070c578160200160208202803683370190505b509250846001600160401b0381111561072757610727611928565b604051908082528060200260200182016040528015610750578160200160208202803683370190505b50915060005b8581101561047c5761078f8787838181106107735761077361193e565b90506020020160208101906107889190611983565b8390610f12565b8582815181106107a1576107a161193e565b91151560209283029190910190910152600060048301818989858181106107ca576107ca61193e565b90506020020160208101906107df9190611983565b6001600160a01b039081168252602082019290925260400160002080548751919350909116908690849081106108175761081761193e565b60200260200101906001600160a01b031690816001600160a01b031681525050806001015484838151811061084e5761084e61193e565b602090810291909101015250806108648161196a565b915050610756565b6000838152602081905260408120610885908484610f33565b90505b9392505050565b60008281526020819052604081206108a79083610f12565b90505b92915050565b60006108bb84610bd5565b90506102ef848285856000610d29565b6000838152602081905260409020606090819081906108eb818787610f5d565b935083516001600160401b0381111561090657610906611928565b60405190808252806020026020018201604052801561092f578160200160208202803683370190505b50925083516001600160401b0381111561094b5761094b611928565b604051908082528060200260200182016040528015610974578160200160208202803683370190505b50915060005b845181101561047c57600082600401600087848151811061099d5761099d61193e565b60200260200101516001600160a01b03166001600160a01b0316815260200190815260200160002090508060000160009054906101000a90046001600160a01b03168583815181106109f1576109f161193e565b60200260200101906001600160a01b031690816001600160a01b0316815250508060010154848381518110610a2857610a2861193e565b60209081029190910101525080610a3e8161196a565b91505061097a565b6000610a5184610bd5565b90506102ef848285856001610db9565b60008281526020818152604080832084845260030190915281205415156108a7565b6000610a8e86610bd5565b9050838214610ab05760405163dd1b706560e01b815260040160405180910390fd5b6000868152602081905260408120905b85811015610b2757610b158289858a8a86818110610ae057610ae061193e565b90506020020135898987818110610af957610af961193e565b9050602002016020810190610b0e9190611983565b6001611038565b80610b1f8161196a565b915050610ac0565b5050505050505050565b6000610b3c86610bd5565b9050838214610b5e5760405163dd1b706560e01b815260040160405180910390fd5b6000868152602081905260408120905b85811015610b2757610bc38289858a8a86818110610b8e57610b8e61193e565b90506020020135898987818110610ba757610ba761193e565b9050602002016020810190610bbc9190611983565b6000611038565b80610bcd8161196a565b915050610b6e565b60405163188af60360e01b8152600481018290523360248201526000907f00000000000000000000000000000000000000000000000000000000000000006001600160a01b03169063188af60390604401602060405180830381865afa158015610c43573d6000803e3d6000fd5b505050506040513d601f19601f82011682018060405250810190610c67919061199e565b905080600003610d0357604051631f21aa3b60e11b8152600481018390523360248201527f00000000000000000000000000000000000000000000000000000000000000006001600160a01b031690633e43547690604401602060405180830381865afa158015610cdc573d6000803e3d6000fd5b505050506040513d601f19601f82011682018060405250810190610d00919061199e565b90505b80600003610d2457604051639de11e0560e01b815260040160405180910390fd5b919050565b6000858152602081905260408120905b83811015610db0576000858583818110610d5557610d5561193e565b9050602002016020810190610d6a9190611983565b9050610d75816110db565b610d80838286611105565b15610d9d57610d9183828987611125565b610d9d888883876111ae565b5080610da88161196a565b915050610d39565b50505050505050565b6000858152602081905260408120905b83811015610db0576000858583818110610de557610de561193e565b905060200201359050610df7816111fe565b610e0583600201828661121f565b15610e2257610e168382898761123a565b610e22888883876112b4565b5080610e2d8161196a565b915050610dc9565b8254606090600090610e489085856112f1565b90506000816001600160401b03811115610e6457610e64611928565b604051908082528060200260200182016040528015610e8d578160200160208202803683370190505b50905060005b82811015610ef05786610ea682886119b7565b81548110610eb657610eb661193e565b9060005260206000200154828281518110610ed357610ed361193e565b602090810291909101015280610ee88161196a565b915050610e93565b5095945050505050565b60009081526001919091016020526040902054151590565b6001600160a01b031660009081526001919091016020526040902054151590565b6000610f3f8483610f12565b80610885575060008381526003850160205260409020541515610885565b8254606090600090610f709085856112f1565b90506000816001600160401b03811115610f8c57610f8c611928565b604051908082528060200260200182016040528015610fb5578160200160208202803683370190505b50905060005b82811015610ef05786610fce82886119b7565b81548110610fde57610fde61193e565b9060005260206000200160009054906101000a90046001600160a01b031682828151811061100e5761100e61193e565b6001600160a01b0390921660209283029190910190910152806110308161196a565b915050610fbb565b6001600160a01b03821661105f57604051630f8f1db760e31b815260040160405180910390fd5b826000036110805760405163241414c160e01b815260040160405180910390fd5b61108b868383611105565b156110a85761109c86838684611125565b6110a8858584846111ae565b6110b686600201848361121f565b156110d3576110c78684868461123a565b6110d3858585846112b4565b505050505050565b6001600160a01b03811661110257604051630f8f1db760e31b815260040160405180910390fd5b50565b60008161111b576111168484611333565b610885565b610885848461146a565b801561117d5760408051808201825233815260208082018581526001600160a01b03878116600090815260048a0190935293909120915182546001600160a01b031916931692909217815590516001909101556102ef565b50506001600160a01b031660009081526004919091016020526040812080546001600160a01b031916815560010155565b6040805184815282151560208201526001600160a01b03841691339187917fc169b461c3c61733573d1987efd777026ffdf531f874ec952dc63f413411b68a91015b60405180910390a450505050565b806000036111025760405163241414c160e01b815260040160405180910390fd5b6000816112305761111684846114cb565b61088584846115c0565b801561128c576040805180820182523381526020808201858152600087815260058901909252929020905181546001600160a01b0319166001600160a01b0390911617815590516001909101556102ef565b6000838152600585016020526040812080546001600160a01b03191681556001015550505050565b6040805184815282151560208201528391339187917f7a16e09a6451bef9dd85eb711f0818a5db1e4fc394c3aead22fb9b9c383d0acf91016111f0565b60008115806113005750838310155b1561130d57506000610888565b600061131984866119ca565b9050828110611328578261132a565b805b95945050505050565b6001600160a01b038116600090815260018301602052604081205480820361135f5760009150506108aa565b600061136c6001836119ca565b8554909150600090611380906001906119ca565b905080821461140c5760008660000182815481106113a0576113a061193e565b60009182526020909120015487546001600160a01b03909116915081908890859081106113cf576113cf61193e565b600091825260208083209190910180546001600160a01b0319166001600160a01b0394851617905592909116815260018801909152604090208390555b855486908061141d5761141d6119dd565b60008281526020808220830160001990810180546001600160a01b03191690559092019092556001600160a01b038716825260018881019091526040822091909155935050505092915050565b60006114768383610f12565b15611483575060006108aa565b508154600180820184556000848152602080822090930180546001600160a01b0319166001600160a01b03959095169485179055845493815293810190915260409092205590565b60008181526001830160205260408120548082036114ed5760009150506108aa565b60006114fa6001836119ca565b855490915060009061150e906001906119ca565b905080821461157357600086600001828154811061152e5761152e61193e565b90600052602060002001549050808760000184815481106115515761155161193e565b6000918252602080832090910192909255918252600188019052604090208390555b8554869080611584576115846119dd565b60019003818190600052602060002001600090559055856001016000868152602001908152602001600020600090556001935050505092915050565b6000818152600183016020526040812054156115de575060006108aa565b5081546001808201845560008481526020808220909301849055845493815293810190915260409092205590565b60008083601f84011261161e57600080fd5b5081356001600160401b0381111561163557600080fd5b6020830191508360208260051b850101111561165057600080fd5b9250929050565b60008060006040848603121561166c57600080fd5b8335925060208401356001600160401b0381111561168957600080fd5b6116958682870161160c565b9497909650939450505050565b6000806000606084860312156116b757600080fd5b505081359360208301359350604090920135919050565b600081518084526020808501945080840160005b838110156116fe578151875295820195908201906001016116e2565b509495945050505050565b600081518084526020808501945080840160005b838110156116fe5781516001600160a01b03168752958201959082019060010161171d565b60608152600061175560608301866116ce565b82810360208401526117678186611709565b9050828103604084015261177b81856116ce565b9695505050505050565b606080825284519082018190526000906020906080840190828801845b828110156117c05781511515845292840192908401906001016117a2565b505050838103828501526117d48187611709565b915050828103604084015261177b81856116ce565b6000602082840312156117fb57600080fd5b5035919050565b80356001600160a01b0381168114610d2457600080fd5b60008060006060848603121561182e57600080fd5b833592506020840135915061184560408501611802565b90509250925092565b6000806040838503121561186157600080fd5b8235915061187160208401611802565b90509250929050565b6060815260006117556060830186611709565b600080604083850312156118a057600080fd5b50508035926020909101359150565b6000806000806000606086880312156118c757600080fd5b8535945060208601356001600160401b03808211156118e557600080fd5b6118f189838a0161160c565b9096509450604088013591508082111561190a57600080fd5b506119178882890161160c565b969995985093965092949392505050565b634e487b7160e01b600052604160045260246000fd5b634e487b7160e01b600052603260045260246000fd5b634e487b7160e01b600052601160045260246000fd5b60006001820161197c5761197c611954565b5060010190565b60006020828403121561199557600080fd5b6108a782611802565b6000602082840312156119b057600080fd5b5051919050565b808201808211156108aa576108aa611954565b818103818111156108aa576108aa611954565b634e487b7160e01b600052603160045260246000fdfea2646970667358221220bbaa3709d0145440963f4d4612ea0fc41e279ccaf6686d83e1547220803ac1ce64736f6c63430008110033","linkReferences":{}},"methodIdentifiers":{"GROUP_ADMIN_ADDRESS()":"74a278c8","addressBanDetails(uint256,address[])":"19fed26c","addressBanList(uint256,uint256,uint256)":"832d4550","addressBanListCount(uint256)":"1f5f7b8f","banBySenderAddresses(uint256,address[])":"04c7fe6b","banBySenderIds(uint256,uint256[])":"99e34dc1","banBySenders(uint256,uint256[],address[])":"ca0abf3b","isAddressBanned(uint256,address)":"750607dd","isBanned(uint256,uint256,address)":"3470fcc9","isSenderIdBanned(uint256,uint256)":"c7ddb6b2","senderIdBanDetails(uint256,uint256[])":"0e3b9285","senderIdBanList(uint256,uint256,uint256)":"0ab4082a","senderIdBanListCount(uint256)":"28d894e4","unbanBySenderAddresses(uint256,address[])":"7dc8faef","unbanBySenderIds(uint256,uint256[])":"04eab8e9","unbanBySenders(uint256,uint256[],address[])":"ed0127a3"},"id":3}