{"abi":[{"type":"constructor","inputs":[{"name":"groupAddress_","type":"address","internalType":"address"}],"stateMutability":"nonpayable"},{"type":"function","name":"GROUP_ADDRESS","inputs":[],"outputs":[{"name":"","type":"address","internalType":"address"}],"stateMutability":"view"},{"type":"function","name":"allowedDelegatorGroupIds","inputs":[{"name":"delegateId","type":"uint256","internalType":"uint256"},{"name":"offset","type":"uint256","internalType":"uint256"},{"name":"limit","type":"uint256","internalType":"uint256"}],"outputs":[{"name":"groupIds","type":"uint256[]","internalType":"uint256[]"},{"name":"total","type":"uint256","internalType":"uint256"}],"stateMutability":"view"},{"type":"function","name":"allowedDelegatorGroupIdsCount","inputs":[{"name":"delegateId","type":"uint256","internalType":"uint256"}],"outputs":[{"name":"","type":"uint256","internalType":"uint256"}],"stateMutability":"view"},{"type":"function","name":"canSetDelegateTo","inputs":[{"name":"groupId","type":"uint256","internalType":"uint256"},{"name":"delegateId","type":"uint256","internalType":"uint256"}],"outputs":[{"name":"","type":"bool","internalType":"bool"}],"stateMutability":"view"},{"type":"function","name":"clearDelegatedGroupIds","inputs":[{"name":"delegateId","type":"uint256","internalType":"uint256"},{"name":"groupIds","type":"uint256[]","internalType":"uint256[]"}],"outputs":[],"stateMutability":"nonpayable"},{"type":"function","name":"delegateIdOf","inputs":[{"name":"groupId","type":"uint256","internalType":"uint256"}],"outputs":[{"name":"","type":"uint256","internalType":"uint256"}],"stateMutability":"view"},{"type":"function","name":"delegateIdsOf","inputs":[{"name":"groupIds","type":"uint256[]","internalType":"uint256[]"}],"outputs":[{"name":"delegateIds","type":"uint256[]","internalType":"uint256[]"}],"stateMutability":"view"},{"type":"function","name":"delegatedGroupIds","inputs":[{"name":"delegateId","type":"uint256","internalType":"uint256"},{"name":"offset","type":"uint256","internalType":"uint256"},{"name":"limit","type":"uint256","internalType":"uint256"}],"outputs":[{"name":"groupIds","type":"uint256[]","internalType":"uint256[]"},{"name":"isEffective","type":"bool[]","internalType":"bool[]"},{"name":"total","type":"uint256","internalType":"uint256"}],"stateMutability":"view"},{"type":"function","name":"delegatedGroupIdsCount","inputs":[{"name":"delegateId","type":"uint256","internalType":"uint256"}],"outputs":[{"name":"","type":"uint256","internalType":"uint256"}],"stateMutability":"view"},{"type":"function","name":"isDelegatorWhitelistEnabled","inputs":[{"name":"delegateId","type":"uint256","internalType":"uint256"}],"outputs":[{"name":"","type":"bool","internalType":"bool"}],"stateMutability":"view"},{"type":"function","name":"isOwnerOrDelegate","inputs":[{"name":"groupId","type":"uint256","internalType":"uint256"},{"name":"account","type":"address","internalType":"address"}],"outputs":[{"name":"","type":"bool","internalType":"bool"}],"stateMutability":"view"},{"type":"function","name":"ownerOrDelegateIdOf","inputs":[{"name":"groupId","type":"uint256","internalType":"uint256"},{"name":"account","type":"address","internalType":"address"}],"outputs":[{"name":"","type":"uint256","internalType":"uint256"}],"stateMutability":"view"},{"type":"function","name":"setAllowedDelegatorGroupIds","inputs":[{"name":"delegateId","type":"uint256","internalType":"uint256"},{"name":"groupIds","type":"uint256[]","internalType":"uint256[]"},{"name":"allowed","type":"bool","internalType":"bool"}],"outputs":[],"stateMutability":"nonpayable"},{"type":"function","name":"setDelegateId","inputs":[{"name":"groupId","type":"uint256","internalType":"uint256"},{"name":"delegateId","type":"uint256","internalType":"uint256"}],"outputs":[],"stateMutability":"nonpayable"},{"type":"function","name":"setDelegatorWhitelistEnabled","inputs":[{"name":"delegateId","type":"uint256","internalType":"uint256"},{"name":"enabled","type":"bool","internalType":"bool"}],"outputs":[],"stateMutability":"nonpayable"},{"type":"event","name":"ClearDelegatedGroupId","inputs":[{"name":"groupId","type":"uint256","indexed":true,"internalType":"uint256"},{"name":"delegateId","type":"uint256","indexed":true,"internalType":"uint256"},{"name":"delegateOwner","type":"address","indexed":true,"internalType":"address"}],"anonymous":false},{"type":"event","name":"SetAllowedDelegatorGroupId","inputs":[{"name":"delegateId","type":"uint256","indexed":true,"internalType":"uint256"},{"name":"groupId","type":"uint256","indexed":true,"internalType":"uint256"},{"name":"delegateOwner","type":"address","indexed":true,"internalType":"address"},{"name":"allowed","type":"bool","indexed":false,"internalType":"bool"}],"anonymous":false},{"type":"event","name":"SetDelegateId","inputs":[{"name":"groupId","type":"uint256","indexed":true,"internalType":"uint256"},{"name":"owner","type":"address","indexed":true,"internalType":"address"},{"name":"delegateId","type":"uint256","indexed":true,"internalType":"uint256"},{"name":"prevDelegateId","type":"uint256","indexed":false,"internalType":"uint256"}],"anonymous":false},{"type":"event","name":"SetDelegatorWhitelistEnabled","inputs":[{"name":"delegateId","type":"uint256","indexed":true,"internalType":"uint256"},{"name":"delegateOwner","type":"address","indexed":true,"internalType":"address"},{"name":"enabled","type":"bool","indexed":false,"internalType":"bool"}],"anonymous":false},{"type":"error","name":"DelegateIdCannotBeGroupId","inputs":[]},{"type":"error","name":"DelegatorGroupIdNotAllowed","inputs":[]},{"type":"error","name":"GroupNotExist","inputs":[]},{"type":"error","name":"InvalidAddress","inputs":[]},{"type":"error","name":"SenderNotDelegateOwner","inputs":[]},{"type":"error","name":"SenderNotGroupOwner","inputs":[]}],"bytecode":{"object":"0x60a060405234801561001057600080fd5b5060405161168d38038061168d83398101604081905261002f91610067565b6001600160a01b0381166100565760405163e6c4247b60e01b815260040160405180910390fd5b6001600160a01b0316608052610097565b60006020828403121561007957600080fd5b81516001600160a01b038116811461009057600080fd5b9392505050565b6080516115cd6100c0600039600081816101fd01528181610c040152610cd001526115cd6000f3fe608060405234801561001057600080fd5b50600436106100f55760003560e01c80638df263be11610097578063c45f561811610066578063c45f56181461024a578063c969d9541461025d578063f01b13bd14610270578063f732db5b1461028357600080fd5b80638df263be146101d257806396a84b91146101e5578063af593462146101f8578063b5c937d81461023757600080fd5b8063333f10d4116100d3578063333f10d4146101675780633e435476146101895780634f2847a8146101aa57806372fda60a146101bf57600080fd5b80631ef0e4f9146100fa5780632eba7088146101245780632fa117e514610144575b600080fd5b61010d6101083660046111f1565b610296565b60405161011b929190611258565b60405180910390f35b6101376101323660046112c6565b6103a7565b60405161011b9190611308565b610157610152366004611330565b610496565b604051901515815260200161011b565b61017a6101753660046111f1565b6104ab565b60405161011b93929190611360565b61019c610197366004611330565b61063f565b60405190815260200161011b565b6101bd6101b83660046113c2565b610652565b005b6101bd6101cd3660046113f4565b610802565b61019c6101e0366004611420565b6108be565b6101bd6101f3366004611439565b6108e8565b61021f7f000000000000000000000000000000000000000000000000000000000000000081565b6040516001600160a01b03909116815260200161011b565b61019c610245366004611420565b610a16565b61019c610258366004611420565b610a34565b61015761026b366004611420565b610a52565b61015761027e3660046113c2565b610a73565b6101bd610291366004611497565b610ac9565b606060006102a385610bec565b50600084815260046020526040902080549081851015806102c2575083155b156102de5750604080516000815260208101909152915061039f565b60006102ea868461150f565b905060008186106102fb57816102fd565b855b90508067ffffffffffffffff811115610318576103186114e3565b604051908082528060200260200182016040528015610341578160200160208202803683370190505b50945060005b8181101561039a578361035a828a611522565b8154811061036a5761036a611535565b906000526020600020015486828151811061038757610387611535565b6020908102919091010152600101610347565b505050505b935093915050565b6060818067ffffffffffffffff8111156103c3576103c36114e3565b6040519080825280602002602001820160405280156103ec578160200160208202803683370190505b509150806000036103fd5750610490565b6000610407610c00565b905060005b8281101561048c57600086868381811061042857610428611535565b90506020020135905061043b8184610c89565b600081815260208190526040902080541561048257610463828261045e85610cb7565b610d5d565b86848151811061047557610475611535565b6020026020010181815250505b505060010161040c565b5050505b92915050565b60006104a28383610dd6565b15159392505050565b60608060006104b986610bec565b50600085815260016020526040902080549081861015806104d8575084155b156104fd57506040805160008082526020820190815281830190925293509150610636565b6000610509878461150f565b9050600081871061051a578161051c565b865b90508067ffffffffffffffff811115610537576105376114e3565b604051908082528060200260200182016040528015610560578160200160208202803683370190505b5095508067ffffffffffffffff81111561057c5761057c6114e3565b6040519080825280602002602001820160405280156105a5578160200160208202803683370190505b50945060005b81811015610631576000846105c0838c611522565b815481106105d0576105d0611535565b90600052602060002001549050808883815181106105f0576105f0611535565b602002602001018181525050610606818c610e63565b87838151811061061857610618611535565b91151560209283029190910190910152506001016105ab565b505050505b93509350939050565b600061064b8383610dd6565b9392505050565b600061065d83610cb7565b9050336001600160a01b038216146106875760405162d4f2bb60e61b815260040160405180910390fd5b60008381526020819052604081209083156106a257826106a5565b60005b9050600084156106bd576106b885610cb7565b6106c0565b60005b8354909150851480156106e2575060018301546001600160a01b038381169116145b80156106fd575060028301546001600160a01b038281169116145b1561070a57505050505050565b6107148686610e97565b61071e8686610ecc565b61073b5760405163577b733d60e11b815260040160405180910390fd5b6000610748878587610d5d565b8454909150801580159061075c5750868114155b1561076b5761076b8189610f16565b861580159061077a5750868114155b1561078957610789878961101e565b8685556001850180546001600160a01b038681166001600160a01b031992831617909255600287018054868416921691909117905560405183815288918816908a907fc1c0147fc9fafe9488988560f8b5c1889a2f2fd85ef439b60debf44d6b645c0c9060200160405180910390a45050505050505050565b600061080d83610cb7565b9050336001600160a01b038216146108385760405163108bd4a160e21b815260040160405180910390fd5b60008381526003602052604090205482151560ff90911615150361085b57505050565b600083815260036020908152604091829020805460ff191685151590811790915591519182526001600160a01b0383169185917f50906bdca9134efed0f89d68ce4e75ee7fd93cb5c16d2fab28e0706f1fd080d2910160405180910390a3505050565b6000806108ca83610cb7565b905061064b8360008086815260200190815260200160002083610d5d565b60006108f385610cb7565b9050336001600160a01b0382161461091e5760405163108bd4a160e21b815260040160405180910390fd5b82600081900361092f575050610a10565b6000610939610c00565b905060005b82811015610a0b57600087878381811061095a5761095a611535565b90506020020135905061096d8184610c89565b88810361098d5760405163db8777b760e01b815260040160405180910390fd5b600086156109a65761099f8a8361107e565b90506109b3565b6109b08a836110e4565b90505b8015610a0157856001600160a01b0316828b7fbd6b1d60b3d307d1577d77605f8cd9b2fe5370ebfe5093c75d0b5a4583ba04198a6040516109f8911515815260200190565b60405180910390a45b505060010161093e565b505050505b50505050565b6000610a2182610bec565b5060009081526004602052604090205490565b6000610a3f82610bec565b5060009081526001602052604090205490565b6000610a5d82610bec565b5060009081526003602052604090205460ff1690565b600080610a7e610c00565b9050610a8a8482610c89565b82600003610a9c576001915050610490565b838303610aad576000915050610490565b610ab78382610c89565b610ac18484610ecc565b949350505050565b6000610ad484610cb7565b9050336001600160a01b03821614610aff5760405163108bd4a160e21b815260040160405180910390fd5b8160005b81811015610be4576000806000878785818110610b2257610b22611535565b905060200201358152602001908152602001600020905086816000015403610bdb57600081556001810180546001600160a01b03199081169091556002820180549091169055610b8a87878785818110610b7e57610b7e611535565b90506020020135610f16565b836001600160a01b031687878785818110610ba757610ba7611535565b905060200201357f3df39ffe902c84560260650244fc065d9679ec9fdd0f1815bb077876e133cb7260405160405180910390a45b50600101610b03565b505050505050565b610bfd81610bf8610c00565b610c89565b50565b60007f00000000000000000000000000000000000000000000000000000000000000006001600160a01b03166318160ddd6040518163ffffffff1660e01b8152600401602060405180830381865afa158015610c60573d6000803e3d6000fd5b505050506040513d601f19601f82011682018060405250810190610c84919061154b565b905090565b811580610c9557508082115b15610cb357604051636a003ec360e01b815260040160405180910390fd5b5050565b6040516331a9108f60e11b8152600481018290526000907f00000000000000000000000000000000000000000000000000000000000000006001600160a01b031690636352211e90602401602060405180830381865afa925050508015610d3b575060408051601f3d908101601f19168201909252610d3891810190611564565b60015b61049057604051636a003ec360e01b815260040160405180910390fd5b919050565b60018201546000906001600160a01b03838116911614610d7f5750600061064b565b82546000819003610d9457600091505061064b565b610d9d81610cb7565b60028501546001600160a01b03908116911614610dbe57600091505061064b565b610dc88582610ecc565b610ac157600091505061064b565b600080610de284610cb7565b9050806001600160a01b0316836001600160a01b031603610e065783915050610490565b6000848152602081905260408120610e2090869084610d5d565b90508015801590610e4a5750610e3581610cb7565b6001600160a01b0316846001600160a01b0316145b15610e585791506104909050565b506000949350505050565b600080610e6f84610cb7565b905082610e8e8560008088815260200190815260200160002084610d5d565b14949350505050565b80600003610ea3575050565b818103610ec35760405163db8777b760e01b815260040160405180910390fd5b610cb381610bec565b6000811580610eea575060008281526003602052604090205460ff16155b15610ef757506001610490565b5060009081526005602090815260408083209383529290522054151590565b600082815260026020908152604080832084845290915281205490819003610f3d57505050565b600083815260016020819052604082209190610f59908461150f565b8254909150600090610f6d9060019061150f565b9050808214610fd3576000838281548110610f8a57610f8a611535565b9060005260206000200154905080848481548110610faa57610faa611535565b600091825260208083209091019290925588815260028252604080822093825292909152208490555b82805480610fe357610fe3611581565b600082815260208082208301600019908101839055909201909255968152600287526040808220968252959096525050509082209190915550565b600082815260026020908152604080832084845290915290205415611041575050565b6000828152600160208181526040808420805493840181558085528285209093018590559483529054600282528483209383529290529190912055565b6000828152600560209081526040808320848452909152812054156110a557506000610490565b50600082815260046020908152604080832080546001808201835582865284862090910186905595845254600583528184209484529390915290205590565b600082815260056020908152604080832084845290915281205480820361110f576000915050610490565b60008481526004602052604081209061112960018461150f565b825490915060009061113d9060019061150f565b90508082146111a357600083828154811061115a5761115a611535565b906000526020600020015490508084848154811061117a5761117a611535565b600091825260208083209091019290925589815260058252604080822093825292909152208490555b828054806111b3576111b3611581565b600082815260208082208301600019908101839055909201909255888252600581526040808320898452909152812055506001935050505092915050565b60008060006060848603121561120657600080fd5b505081359360208301359350604090920135919050565b600081518084526020808501945080840160005b8381101561124d57815187529582019590820190600101611231565b509495945050505050565b60408152600061126b604083018561121d565b90508260208301529392505050565b60008083601f84011261128c57600080fd5b50813567ffffffffffffffff8111156112a457600080fd5b6020830191508360208260051b85010111156112bf57600080fd5b9250929050565b600080602083850312156112d957600080fd5b823567ffffffffffffffff8111156112f057600080fd5b6112fc8582860161127a565b90969095509350505050565b60208152600061064b602083018461121d565b6001600160a01b0381168114610bfd57600080fd5b6000806040838503121561134357600080fd5b8235915060208301356113558161131b565b809150509250929050565b606081526000611373606083018661121d565b82810360208481019190915285518083528682019282019060005b818110156113ac57845115158352938301939183019160010161138e565b5050809350505050826040830152949350505050565b600080604083850312156113d557600080fd5b50508035926020909101359150565b80358015158114610d5857600080fd5b6000806040838503121561140757600080fd5b82359150611417602084016113e4565b90509250929050565b60006020828403121561143257600080fd5b5035919050565b6000806000806060858703121561144f57600080fd5b84359350602085013567ffffffffffffffff81111561146d57600080fd5b6114798782880161127a565b909450925061148c9050604086016113e4565b905092959194509250565b6000806000604084860312156114ac57600080fd5b83359250602084013567ffffffffffffffff8111156114ca57600080fd5b6114d68682870161127a565b9497909650939450505050565b634e487b7160e01b600052604160045260246000fd5b634e487b7160e01b600052601160045260246000fd5b81810381811115610490576104906114f9565b80820180821115610490576104906114f9565b634e487b7160e01b600052603260045260246000fd5b60006020828403121561155d57600080fd5b5051919050565b60006020828403121561157657600080fd5b815161064b8161131b565b634e487b7160e01b600052603160045260246000fdfea2646970667358221220633d05a6f382d77760774541e4a7788ba5ed94072968c45d6131aa5753edaf0664736f6c63430008110033","linkReferences":{}},"methodIdentifiers":{"GROUP_ADDRESS()":"af593462","allowedDelegatorGroupIds(uint256,uint256,uint256)":"1ef0e4f9","allowedDelegatorGroupIdsCount(uint256)":"b5c937d8","canSetDelegateTo(uint256,uint256)":"f01b13bd","clearDelegatedGroupIds(uint256,uint256[])":"f732db5b","delegateIdOf(uint256)":"8df263be","delegateIdsOf(uint256[])":"2eba7088","delegatedGroupIds(uint256,uint256,uint256)":"333f10d4","delegatedGroupIdsCount(uint256)":"c45f5618","isDelegatorWhitelistEnabled(uint256)":"c969d954","isOwnerOrDelegate(uint256,address)":"2fa117e5","ownerOrDelegateIdOf(uint256,address)":"3e435476","setAllowedDelegatorGroupIds(uint256,uint256[],bool)":"96a84b91","setDelegateId(uint256,uint256)":"4f2847a8","setDelegatorWhitelistEnabled(uint256,bool)":"72fda60a"},"id":20}