{"abi":[{"type":"constructor","inputs":[{"name":"groupDefaults_","type":"address","internalType":"address"},{"name":"groupDelegate_","type":"address","internalType":"address"},{"name":"maxAdminIds_","type":"uint256","internalType":"uint256"}],"stateMutability":"nonpayable"},{"type":"function","name":"GROUP_ADDRESS","inputs":[],"outputs":[{"name":"","type":"address","internalType":"address"}],"stateMutability":"view"},{"type":"function","name":"GROUP_DEFAULTS_ADDRESS","inputs":[],"outputs":[{"name":"","type":"address","internalType":"address"}],"stateMutability":"view"},{"type":"function","name":"GROUP_DELEGATE_ADDRESS","inputs":[],"outputs":[{"name":"","type":"address","internalType":"address"}],"stateMutability":"view"},{"type":"function","name":"MAX_ADMIN_IDS","inputs":[],"outputs":[{"name":"","type":"uint256","internalType":"uint256"}],"stateMutability":"view"},{"type":"function","name":"addAdmins","inputs":[{"name":"groupId","type":"uint256","internalType":"uint256"},{"name":"adminIdList","type":"uint256[]","internalType":"uint256[]"}],"outputs":[],"stateMutability":"nonpayable"},{"type":"function","name":"adminIdOf","inputs":[{"name":"groupId","type":"uint256","internalType":"uint256"},{"name":"account","type":"address","internalType":"address"}],"outputs":[{"name":"adminId","type":"uint256","internalType":"uint256"}],"stateMutability":"view"},{"type":"function","name":"adminIds","inputs":[{"name":"groupId","type":"uint256","internalType":"uint256"}],"outputs":[{"name":"ids","type":"uint256[]","internalType":"uint256[]"},{"name":"isEffective","type":"bool[]","internalType":"bool[]"}],"stateMutability":"view"},{"type":"function","name":"isAdminId","inputs":[{"name":"groupId","type":"uint256","internalType":"uint256"},{"name":"adminId","type":"uint256","internalType":"uint256"}],"outputs":[{"name":"","type":"bool","internalType":"bool"}],"stateMutability":"view"},{"type":"function","name":"ownerOrDelegateIdOf","inputs":[{"name":"groupId","type":"uint256","internalType":"uint256"},{"name":"account","type":"address","internalType":"address"}],"outputs":[{"name":"operatorId","type":"uint256","internalType":"uint256"}],"stateMutability":"view"},{"type":"function","name":"removeAdmins","inputs":[{"name":"groupId","type":"uint256","internalType":"uint256"},{"name":"adminIdList","type":"uint256[]","internalType":"uint256[]"}],"outputs":[],"stateMutability":"nonpayable"},{"type":"event","name":"SetAdmin","inputs":[{"name":"groupId","type":"uint256","indexed":true,"internalType":"uint256"},{"name":"operator","type":"address","indexed":true,"internalType":"address"},{"name":"adminId","type":"uint256","indexed":true,"internalType":"uint256"},{"name":"operatorId","type":"uint256","indexed":false,"internalType":"uint256"},{"name":"listed","type":"bool","indexed":false,"internalType":"bool"}],"anonymous":false},{"type":"event","name":"SetAdminSnapshot","inputs":[{"name":"groupId","type":"uint256","indexed":true,"internalType":"uint256"},{"name":"operator","type":"address","indexed":true,"internalType":"address"},{"name":"adminId","type":"uint256","indexed":true,"internalType":"uint256"},{"name":"operatorId","type":"uint256","indexed":false,"internalType":"uint256"},{"name":"groupOwnerSnapshot","type":"address","indexed":false,"internalType":"address"},{"name":"adminOwnerSnapshot","type":"address","indexed":false,"internalType":"address"}],"anonymous":false},{"type":"error","name":"AdminIdsLimitExceeded","inputs":[]},{"type":"error","name":"DuplicateAdminId","inputs":[]},{"type":"error","name":"GroupAdminAddressHasNoCode","inputs":[]},{"type":"error","name":"GroupDelegateGroupMismatch","inputs":[]},{"type":"error","name":"GroupNotExist","inputs":[]},{"type":"error","name":"MaxAdminIdsZero","inputs":[]},{"type":"error","name":"UnauthorizedGroupAdminManager","inputs":[]}],"bytecode":{"object":"0x6101006040523480156200001257600080fd5b50604051620011ba380380620011ba8339810160408190526200003591620001e6565b806000036200005757604051636e8bdfeb60e11b815260040160405180910390fd5b62000062836200019a565b6200006d826200019a565b6000836001600160a01b031663af5934626040518163ffffffff1660e01b8152600401602060405180830381865afa158015620000ae573d6000803e3d6000fd5b505050506040513d601f19601f82011682018060405250810190620000d4919062000227565b9050806001600160a01b0316836001600160a01b031663af5934626040518163ffffffff1660e01b8152600401602060405180830381865afa1580156200011f573d6000803e3d6000fd5b505050506040513d601f19601f8201168201806040525081019062000145919062000227565b6001600160a01b0316146200016d5760405163148f2d1b60e11b815260040160405180910390fd5b62000178816200019a565b6001600160a01b0393841660805291831660a052911660c05260e0526200024c565b806001600160a01b03163b600003620001c657604051637b635adf60e11b815260040160405180910390fd5b50565b80516001600160a01b0381168114620001e157600080fd5b919050565b600080600060608486031215620001fc57600080fd5b6200020784620001c9565b92506200021760208501620001c9565b9150604084015190509250925092565b6000602082840312156200023a57600080fd5b6200024582620001c9565b9392505050565b60805160a05160c05160e051610f12620002a86000396000818160e301526103700152600081816101b3015281816109180152610ac70152600081816101da015261059701526000818161017401526102290152610f126000f3fe608060405234801561001057600080fd5b506004361061009e5760003560e01c806355e14d221161006657806355e14d221461012b57806377e5f6551461014c578063a83163ae1461016f578063af593462146101ae578063f3dbbd56146101d557600080fd5b8063188af603146100a357806321caa4cc146100c957806326a44e06146100de5780633e43547614610105578063535ca10714610118575b600080fd5b6100b66100b1366004610ca8565b6101fc565b6040519081526020015b60405180910390f35b6100dc6100d7366004610cd8565b610327565b005b6100b67f000000000000000000000000000000000000000000000000000000000000000081565b6100b6610113366004610ca8565b61056e565b6100dc610126366004610cd8565b61060b565b61013e610139366004610d57565b61071d565b6040516100c0929190610d70565b61015f61015a366004610ded565b610831565b60405190151581526020016100c0565b6101967f000000000000000000000000000000000000000000000000000000000000000081565b6040516001600160a01b0390911681526020016100c0565b6101967f000000000000000000000000000000000000000000000000000000000000000081565b6101967f000000000000000000000000000000000000000000000000000000000000000081565b600082815260208190526040808220905163394ddd9960e21b81526001600160a01b0384811660048301527f0000000000000000000000000000000000000000000000000000000000000000169063e537766490602401602060405180830381865afa158015610270573d6000803e3d6000fd5b505050506040513d601f19601f820116820180604052508101906102949190610e0f565b91508115806102b157506000828152600182016020526040902054155b806102c457506102c2818584610869565b155b806102eb575060008281526003820160205260409020546001600160a01b03848116911614155b806103105750826001600160a01b0316610304836108ff565b6001600160a01b031614155b1561031f576000915050610321565b505b92915050565b6000610333843361056e565b9050806000036103565760405163a31bafe360e01b815260040160405180910390fd5b610360838361098f565b60008481526020819052604090207f000000000000000000000000000000000000000000000000000000000000000061039a828686610a41565b82546103a69190610e3e565b11156103c5576040516343fc17f160e11b815260040160405180910390fd5b60006103d086610aae565b905060005b848110156105655760008686838181106103f1576103f1610e51565b905060200201359050600061040582610aae565b6000838152600287016020526040812054919250906001600160a01b0386811691161461045957506000828152600286016020526040902080546001600160a01b0319166001600160a01b03861617905560015b60008381526003870160205260409020546001600160a01b038381169116146104a957506000828152600386016020526040902080546001600160a01b0319166001600160a01b03831617905560015b801561050057604080518881526001600160a01b0387811660208301528416818301529051849133918d917f2e7f15e24a945d9293805a3366759dec315b25cdc5cb8011e894b7e7e9369602919081900360600190a45b61050a8684610b4f565b1561054f576040805188815260016020820152849133918d917fe2decef34836a241459f3dc18c5d4e138f76d5d799dd6ee5ae77e9d51f9c0dc4910160405180910390a45b505050808061055d90610e67565b9150506103d5565b50505050505050565b604051631f21aa3b60e11b8152600481018390526001600160a01b0382811660248301526000917f000000000000000000000000000000000000000000000000000000000000000090911690633e43547690604401602060405180830381865afa1580156105e0573d6000803e3d6000fd5b505050506040513d601f19601f820116820180604052508101906106049190610e0f565b9392505050565b6000610617843361056e565b90508060000361063a5760405163a31bafe360e01b815260040160405180910390fd5b610644838361098f565b6000848152602081905260408120905b8381101561071557600085858381811061067057610670610e51565b6020029190910135915061068690508382610b9b565b6106905750610703565b6000818152600284016020908152604080832080546001600160a01b031990811690915560038701835281842080549091169055805187815291820192909252829133918a917fe2decef34836a241459f3dc18c5d4e138f76d5d799dd6ee5ae77e9d51f9c0dc4910160405180910390a4505b8061070d81610e67565b915050610654565b505050505050565b60008181526020818152604091829020805483518184028101840190945280845260609384939091839183018282801561077657602002820191906000526020600020905b815481526020019060010190808311610762575b50508351939650839250505067ffffffffffffffff81111561079a5761079a610e80565b6040519080825280602002602001820160405280156107c3578160200160208202803683370190505b50925060005b81811015610829576107f583878784815181106107e8576107e8610e51565b6020026020010151610869565b84828151811061080757610807610e51565b911515602092830291909101909101528061082181610e67565b9150506107c9565b505050915091565b60008281526020818152604080832084845260018101909252822054151580156108615750610861818585610869565b949350505050565b6000818152600284016020908152604080832054600387019092528220546001600160a01b03918216911681158015906108ab57506001600160a01b03811615155b80156108d05750816001600160a01b03166108c5866108ff565b6001600160a01b0316145b80156108f55750806001600160a01b03166108ea856108ff565b6001600160a01b0316145b9695505050505050565b6040516331a9108f60e11b8152600481018290526000907f00000000000000000000000000000000000000000000000000000000000000006001600160a01b031690636352211e90602401602060405180830381865afa925050508015610983575060408051601f3d908101601f1916820190925261098091810190610e96565b60015b61032157506000919050565b60005b81811015610a3c576109bb8383838181106109af576109af610e51565b90506020020135610aae565b5060005b81811015610a29578383828181106109d9576109d9610e51565b905060200201358484848181106109f2576109f2610e51565b9050602002013503610a1757604051634dd82a8160e01b815260040160405180910390fd5b80610a2181610e67565b9150506109bf565b5080610a3481610e67565b915050610992565b505050565b6000805b82811015610aa657610a82848483818110610a6257610a62610e51565b602090810290920135600090815260018901909252506040902054151590565b610a945781610a9081610e67565b9250505b80610a9e81610e67565b915050610a45565b509392505050565b6040516331a9108f60e11b8152600481018290526000907f00000000000000000000000000000000000000000000000000000000000000006001600160a01b031690636352211e90602401602060405180830381865afa925050508015610b32575060408051601f3d908101601f19168201909252610b2f91810190610e96565b60015b61032157604051636a003ec360e01b815260040160405180910390fd5b600081815260018301602052604081205415610b6d57506000610321565b5081546001808201845560008481526020808220909301849055845493815293810190915260409092205590565b6000818152600183016020526040812054808203610bbd576000915050610321565b6000610bca600183610eb3565b8554909150600090610bde90600190610eb3565b9050808214610c43576000866000018281548110610bfe57610bfe610e51565b9060005260206000200154905080876000018481548110610c2157610c21610e51565b6000918252602080832090910192909255918252600188019052604090208390555b8554869080610c5457610c54610ec6565b60019003818190600052602060002001600090559055856001016000868152602001908152602001600020600090556001935050505092915050565b6001600160a01b0381168114610ca557600080fd5b50565b60008060408385031215610cbb57600080fd5b823591506020830135610ccd81610c90565b809150509250929050565b600080600060408486031215610ced57600080fd5b83359250602084013567ffffffffffffffff80821115610d0c57600080fd5b818601915086601f830112610d2057600080fd5b813581811115610d2f57600080fd5b8760208260051b8501011115610d4457600080fd5b6020830194508093505050509250925092565b600060208284031215610d6957600080fd5b5035919050565b604080825283519082018190526000906020906060840190828701845b82811015610da957815184529284019290840190600101610d8d565b5050508381038285015284518082528583019183019060005b81811015610de0578351151583529284019291840191600101610dc2565b5090979650505050505050565b60008060408385031215610e0057600080fd5b50508035926020909101359150565b600060208284031215610e2157600080fd5b5051919050565b634e487b7160e01b600052601160045260246000fd5b8082018082111561032157610321610e28565b634e487b7160e01b600052603260045260246000fd5b600060018201610e7957610e79610e28565b5060010190565b634e487b7160e01b600052604160045260246000fd5b600060208284031215610ea857600080fd5b815161060481610c90565b8181038181111561032157610321610e28565b634e487b7160e01b600052603160045260246000fdfea264697066735822122015977316ec210451095670479275feed951cd34b12bf8841f92852d873eb92da64736f6c63430008110033","linkReferences":{}},"methodIdentifiers":{"GROUP_ADDRESS()":"af593462","GROUP_DEFAULTS_ADDRESS()":"a83163ae","GROUP_DELEGATE_ADDRESS()":"f3dbbd56","MAX_ADMIN_IDS()":"26a44e06","addAdmins(uint256,uint256[])":"21caa4cc","adminIdOf(uint256,address)":"188af603","adminIds(uint256)":"55e14d22","isAdminId(uint256,uint256)":"77e5f655","ownerOrDelegateIdOf(uint256,address)":"3e435476","removeAdmins(uint256,uint256[])":"535ca107"},"id":2}