{"abi":[{"type":"constructor","inputs":[{"name":"originBlocks","type":"uint256","internalType":"uint256"},{"name":"phaseBlocks","type":"uint256","internalType":"uint256"}],"stateMutability":"nonpayable"},{"type":"function","name":"ACTION_REWARD_MIN_VOTE_PER_THOUSAND","inputs":[],"outputs":[{"name":"","type":"uint256","internalType":"uint256"}],"stateMutability":"view"},{"type":"function","name":"RANDOM_SEED_UPDATE_MIN_PER_TEN_THOUSAND","inputs":[],"outputs":[{"name":"","type":"uint256","internalType":"uint256"}],"stateMutability":"view"},{"type":"function","name":"abstentionScoreWithReward","inputs":[{"name":"","type":"address","internalType":"address"},{"name":"","type":"uint256","internalType":"uint256"}],"outputs":[{"name":"","type":"uint256","internalType":"uint256"}],"stateMutability":"view"},{"type":"function","name":"currentRound","inputs":[],"outputs":[{"name":"","type":"uint256","internalType":"uint256"}],"stateMutability":"view"},{"type":"function","name":"firstTokenAddress","inputs":[],"outputs":[{"name":"","type":"address","internalType":"address"}],"stateMutability":"view"},{"type":"function","name":"initialize","inputs":[{"name":"randomAddress_","type":"address","internalType":"address"},{"name":"firstTokenAddress_","type":"address","internalType":"address"},{"name":"stakeAddress_","type":"address","internalType":"address"},{"name":"submitAddress_","type":"address","internalType":"address"},{"name":"voteAddress_","type":"address","internalType":"address"},{"name":"joinAddress_","type":"address","internalType":"address"},{"name":"mintAddress_","type":"address","internalType":"address"},{"name":"randomSeedUpdateMinPerTenThousand","type":"uint256","internalType":"uint256"},{"name":"actionRewardMinVotePerThousand","type":"uint256","internalType":"uint256"}],"outputs":[],"stateMutability":"nonpayable"},{"type":"function","name":"initialized","inputs":[],"outputs":[{"name":"","type":"bool","internalType":"bool"}],"stateMutability":"view"},{"type":"function","name":"isActionIdWithReward","inputs":[{"name":"tokenAddress","type":"address","internalType":"address"},{"name":"round","type":"uint256","internalType":"uint256"},{"name":"actionId","type":"uint256","internalType":"uint256"}],"outputs":[{"name":"","type":"bool","internalType":"bool"}],"stateMutability":"view"},{"type":"function","name":"joinAddress","inputs":[],"outputs":[{"name":"","type":"address","internalType":"address"}],"stateMutability":"view"},{"type":"function","name":"mintAddress","inputs":[],"outputs":[{"name":"","type":"address","internalType":"address"}],"stateMutability":"view"},{"type":"function","name":"originBlocks","inputs":[],"outputs":[{"name":"","type":"uint256","internalType":"uint256"}],"stateMutability":"view"},{"type":"function","name":"phaseBlocks","inputs":[],"outputs":[{"name":"","type":"uint256","internalType":"uint256"}],"stateMutability":"view"},{"type":"function","name":"randomAddress","inputs":[],"outputs":[{"name":"","type":"address","internalType":"address"}],"stateMutability":"view"},{"type":"function","name":"roundByBlockNumber","inputs":[{"name":"blockNumber","type":"uint256","internalType":"uint256"}],"outputs":[{"name":"","type":"uint256","internalType":"uint256"}],"stateMutability":"view"},{"type":"function","name":"score","inputs":[{"name":"","type":"address","internalType":"address"},{"name":"","type":"uint256","internalType":"uint256"}],"outputs":[{"name":"","type":"uint256","internalType":"uint256"}],"stateMutability":"view"},{"type":"function","name":"scoreByActionId","inputs":[{"name":"","type":"address","internalType":"address"},{"name":"","type":"uint256","internalType":"uint256"},{"name":"","type":"uint256","internalType":"uint256"}],"outputs":[{"name":"","type":"uint256","internalType":"uint256"}],"stateMutability":"view"},{"type":"function","name":"scoreByActionIdByAccount","inputs":[{"name":"","type":"address","internalType":"address"},{"name":"","type":"uint256","internalType":"uint256"},{"name":"","type":"uint256","internalType":"uint256"},{"name":"","type":"address","internalType":"address"}],"outputs":[{"name":"","type":"uint256","internalType":"uint256"}],"stateMutability":"view"},{"type":"function","name":"scoreByVerifier","inputs":[{"name":"","type":"address","internalType":"address"},{"name":"","type":"uint256","internalType":"uint256"},{"name":"","type":"address","internalType":"address"}],"outputs":[{"name":"","type":"uint256","internalType":"uint256"}],"stateMutability":"view"},{"type":"function","name":"scoreByVerifierByActionId","inputs":[{"name":"","type":"address","internalType":"address"},{"name":"","type":"uint256","internalType":"uint256"},{"name":"","type":"address","internalType":"address"},{"name":"","type":"uint256","internalType":"uint256"}],"outputs":[{"name":"","type":"uint256","internalType":"uint256"}],"stateMutability":"view"},{"type":"function","name":"scoreWithReward","inputs":[{"name":"","type":"address","internalType":"address"},{"name":"","type":"uint256","internalType":"uint256"}],"outputs":[{"name":"","type":"uint256","internalType":"uint256"}],"stateMutability":"view"},{"type":"function","name":"stakeAddress","inputs":[],"outputs":[{"name":"","type":"address","internalType":"address"}],"stateMutability":"view"},{"type":"function","name":"stakedAmountOfVerifiers","inputs":[{"name":"","type":"address","internalType":"address"},{"name":"","type":"uint256","internalType":"uint256"}],"outputs":[{"name":"","type":"uint256","internalType":"uint256"}],"stateMutability":"view"},{"type":"function","name":"submitAddress","inputs":[],"outputs":[{"name":"","type":"address","internalType":"address"}],"stateMutability":"view"},{"type":"function","name":"verify","inputs":[{"name":"tokenAddress","type":"address","internalType":"address"},{"name":"actionId","type":"uint256","internalType":"uint256"},{"name":"abstentionScore","type":"uint256","internalType":"uint256"},{"name":"scores","type":"uint256[]","internalType":"uint256[]"}],"outputs":[],"stateMutability":"nonpayable"},{"type":"function","name":"voteAddress","inputs":[],"outputs":[{"name":"","type":"address","internalType":"address"}],"stateMutability":"view"},{"type":"event","name":"Verify","inputs":[{"name":"tokenAddress","type":"address","indexed":true,"internalType":"address"},{"name":"round","type":"uint256","indexed":true,"internalType":"uint256"},{"name":"verifier","type":"address","indexed":true,"internalType":"address"},{"name":"actionId","type":"uint256","indexed":false,"internalType":"uint256"},{"name":"abstentionScore","type":"uint256","indexed":false,"internalType":"uint256"},{"name":"scores","type":"uint256[]","indexed":false,"internalType":"uint256[]"}],"anonymous":false},{"type":"error","name":"AddressCannotBeZero","inputs":[]},{"type":"error","name":"AlreadyInitialized","inputs":[]},{"type":"error","name":"AlreadyVerified","inputs":[]},{"type":"error","name":"RoundNotStarted","inputs":[]},{"type":"error","name":"ScoresAndAccountsLengthMismatch","inputs":[]},{"type":"error","name":"ScoresExceedVotesNum","inputs":[]},{"type":"error","name":"ScoresMustIncrease","inputs":[]}],"bytecode":{"object":"0x60c060405234801561001057600080fd5b506040516114bd3803806114bd83398101604081905261002f9161003d565b60809190915260a052610061565b6000806040838503121561005057600080fd5b505080516020909101519092909150565b60805160a05161142261009b6000396000818161024501526104f80152600081816103c20152818161048601526104cc01526114226000f3fe608060405234801561001057600080fd5b50600436106101735760003560e01c80638388a65a116100de5780639bb725be11610097578063c8829af911610071578063c8829af91461041e578063d5bee9f514610449578063e388878f1461045c578063fe43a47e1461046f57600080fd5b80639bb725be146103a8578063b2ad3730146103bd578063c0df7d59146103e457600080fd5b80638388a65a146102de57806384e2f06814610318578063851073671461032b5780638a19c8bc1461033e578063965aa9d014610346578063986fd1d81461037757600080fd5b8063425d498011610130578063425d49801461022d57806360a918b71461024057806364a85573146102675780637401edba14610292578063742583c8146102bd57806374474ebe146102d557600080fd5b806313232bb614610178578063158ef93e146101b6578063258cd1e4146101d357806327e92918146101fe5780633bdf9f13146102075780633d6dc9281461021a575b600080fd5b6101a3610186366004610f6a565b600960209081526000928352604080842090915290825290205481565b6040519081526020015b60405180910390f35b6000546101c39060ff1681565b60405190151581526020016101ad565b6005546101e6906001600160a01b031681565b6040516001600160a01b0390911681526020016101ad565b6101a360075481565b6101a3610215366004610f96565b610482565b6004546101e6906001600160a01b031681565b6006546101e6906001600160a01b031681565b6101a37f000000000000000000000000000000000000000000000000000000000000000081565b6101a3610275366004610f6a565b600b60209081526000928352604080842090915290825290205481565b6101a36102a0366004610f6a565b600a60209081526000928352604080842090915290825290205481565b6000546101e69061010090046001600160a01b031681565b6101a360085481565b6101a36102ec366004610faf565b601060209081526000948552604080862082529385528385208152918452828420909152825290205481565b6101c3610326366004610ff7565b610524565b6002546101e6906001600160a01b031681565b6101a3610565565b6101a361035436600461102c565b600f60209081526000938452604080852082529284528284209052825290205481565b6101a3610385366004610ff7565b600d60209081526000938452604080852082529284528284209052825290205481565b6103bb6103b636600461106e565b610575565b005b6101a37f000000000000000000000000000000000000000000000000000000000000000081565b6101a36103f2366004611118565b600e60209081526000948552604080862082529385528385208152918452828420909152825290205481565b6101a361042c366004610f6a565b600c60209081526000928352604080842090915290825290205481565b6001546101e6906001600160a01b031681565b6003546101e6906001600160a01b031681565b6103bb61047d366004611162565b610630565b60007f00000000000000000000000000000000000000000000000000000000000000008210156104c5576040516323a71b8760e21b815260040160405180910390fd5b60006104f17f000000000000000000000000000000000000000000000000000000000000000084611211565b905061051d7f000000000000000000000000000000000000000000000000000000000000000082611224565b9392505050565b60006105308484610ad6565b6001600160a01b03949094166000908152600d6020908152604080832095835294815284822093825292909252502054101590565b600061057043610482565b905090565b60005460ff16156105985760405162dc149f60e41b815260040160405180910390fd5b60008054600180546001600160a01b039c8d166001600160a01b03199182161782559a8c16610100026001600160a81b03199092169190911717905560028054978a169789169790971790965560038054958916958816959095179094556004805493881693871693909317909255600580549187169186169190911790556006805491909516931692909217909255600755600855565b600061063a610565565b6006546040516369808e1b60e01b81526001600160a01b0389811660048301529293509116906369808e1b90602401600060405180830381600087803b15801561068357600080fd5b505af1158015610697573d6000803e3d6000fd5b5050600554604051639ae295bd60e01b81526001600160a01b038a81166004830152602482018a90529091169250829150639ae295bd90604401600060405180830381600087803b1580156106eb57600080fd5b505af11580156106ff573d6000803e3d6000fd5b505060405163409d2dc160e01b81526001600160a01b038a8116600483015260248201869052604482018a9052600093508416915063409d2dc190606401600060405180830381865afa15801561075a573d6000803e3d6000fd5b505050506040513d6000823e601f3d908101601f19168201604052610782919081019061126c565b805190915084146107a657604051636b30b00160e11b815260040160405180910390fd5b6001600160a01b0388166000908152600f602090815260408083208684528252808320338452909152812054900361088c576002546040516322fc7fb360e21b81526001600160a01b038a811660048301526024820186905233604483015290911690638bf1fecc90606401602060405180830381865afa15801561082f573d6000803e3d6000fd5b505050506040513d601f19601f820116820180604052508101906108539190611331565b6001600160a01b03891660009081526009602090815260408083208784529091528120805490919061088690849061134a565b90915550505b6001600160a01b0388166000908152600d6020908152604080832086845282528083208a8452909152812054905b8581101561091f5760008787838181106108d6576108d661135d565b90506020020135905060008483815181106108f3576108f361135d565b6020026020010151905061090a8c888d8486610b71565b5050808061091790611373565b9150506108ba565b5086156109345761093489858a60008b610b71565b6001600160a01b0389166000908152600d6020908152604080832087845282528083208b845290915290205481811161098057604051630c9b369b60e31b815260040160405180910390fd5b60048054604051630e35dbd360e21b81526001600160a01b038d81169382019390935260248101889052336044820152606481018c90529116906338d76f4c90608401602060405180830381865afa1580156109e0573d6000803e3d6000fd5b505050506040513d601f19601f82011682018060405250810190610a049190611331565b6001600160a01b038b166000908152601060209081526040808320898452825280832033845282528083208d84529091529020541115610a5757604051634cdca98560e11b815260040160405180910390fd5b610a658a868b8b8686610cc4565b610a788a610a738484611211565b610e28565b336001600160a01b0316858b6001600160a01b03167fd7dc37ae32c2d2ca3224a6e9e869016b03c8bd5641b74c29d39536e4769af9558c8c8c8c604051610ac2949392919061138c565b60405180910390a450505050505050505050565b600480546040516257edd760e11b81526001600160a01b0385811693820193909352602481018490526000926103e892169062afdbae90604401602060405180830381865afa158015610b2d573d6000803e3d6000fd5b505050506040513d601f19601f82011682018060405250810190610b519190611331565b600854610b5e91906113d5565b610b689190611224565b90505b92915050565b6001600160a01b0385166000908152600d60209081526040808320878452825280832086845290915281208054839290610bac90849061134a565b90915550506001600160a01b038086166000908152600e602090815260408083208884528252808320878452825280832093861683529290529081208054839290610bf890849061134a565b90915550506001600160a01b0385166000908152600f60209081526040808320878452825280832033845290915281208054839290610c3890849061134a565b90915550506001600160a01b03851660009081526010602090815260408083208784528252808320338452825280832086845290915281208054839290610c8090849061134a565b90915550506001600160a01b0385166000908152600a6020908152604080832087845290915281208054839290610cb890849061134a565b90915550505050505050565b6000610cd08787610ad6565b90508083108015610ce15750818111155b15610d97576001600160a01b0387166000908152600b6020908152604080832089845290915281208054849290610d1990849061134a565b90915550506001600160a01b0387166000908152600e60209081526040808320898452825280832088845282528083208380529091529020548015610d91576001600160a01b0388166000908152600c602090815260408083208a845290915281208054839290610d8b90849061134a565b90915550505b50610e1f565b828111610e1f57610da88383611211565b6001600160a01b0388166000908152600b602090815260408083208a845290915281208054909190610ddb90849061134a565b90915550508315610e1f576001600160a01b0387166000908152600c6020908152604080832089845290915281208054869290610e1990849061134a565b90915550505b50505050505050565b6000546001600160a01b038381166101009092041614610e46575050565b6002546007546040516315664f8d60e01b81526001600160a01b03858116600483015290921691612710919083906315664f8d90602401602060405180830381865afa158015610e9a573d6000803e3d6000fd5b505050506040513d601f19601f82011682018060405250810190610ebe9190611331565b610ec891906113d5565b610ed29190611224565b821015610ede57505050565b600154604051635939ccd760e01b81523360048201526001600160a01b0390911690635939ccd7906024016020604051808303816000875af1158015610f28573d6000803e3d6000fd5b505050506040513d601f19601f82011682018060405250810190610f4c9190611331565b50505050565b6001600160a01b0381168114610f6757600080fd5b50565b60008060408385031215610f7d57600080fd5b8235610f8881610f52565b946020939093013593505050565b600060208284031215610fa857600080fd5b5035919050565b60008060008060808587031215610fc557600080fd5b8435610fd081610f52565b9350602085013592506040850135610fe781610f52565b9396929550929360600135925050565b60008060006060848603121561100c57600080fd5b833561101781610f52565b95602085013595506040909401359392505050565b60008060006060848603121561104157600080fd5b833561104c81610f52565b925060208401359150604084013561106381610f52565b809150509250925092565b60008060008060008060008060006101208a8c03121561108d57600080fd5b893561109881610f52565b985060208a01356110a881610f52565b975060408a01356110b881610f52565b965060608a01356110c881610f52565b955060808a01356110d881610f52565b945060a08a01356110e881610f52565b935060c08a01356110f881610f52565b8093505060e08a013591506101008a013590509295985092959850929598565b6000806000806080858703121561112e57600080fd5b843561113981610f52565b93506020850135925060408501359150606085013561115781610f52565b939692955090935050565b60008060008060006080868803121561117a57600080fd5b853561118581610f52565b94506020860135935060408601359250606086013567ffffffffffffffff808211156111b057600080fd5b818801915088601f8301126111c457600080fd5b8135818111156111d357600080fd5b8960208260051b85010111156111e857600080fd5b9699959850939650602001949392505050565b634e487b7160e01b600052601160045260246000fd5b81810381811115610b6b57610b6b6111fb565b60008261124157634e487b7160e01b600052601260045260246000fd5b500490565b634e487b7160e01b600052604160045260246000fd5b805161126781610f52565b919050565b6000602080838503121561127f57600080fd5b825167ffffffffffffffff8082111561129757600080fd5b818501915085601f8301126112ab57600080fd5b8151818111156112bd576112bd611246565b8060051b604051601f19603f830116810181811085821117156112e2576112e2611246565b60405291825284820192508381018501918883111561130057600080fd5b938501935b82851015611325576113168561125c565b84529385019392850192611305565b98975050505050505050565b60006020828403121561134357600080fd5b5051919050565b80820180821115610b6b57610b6b6111fb565b634e487b7160e01b600052603260045260246000fd5b600060018201611385576113856111fb565b5060010190565b84815260208101849052606060408201819052810182905260006001600160fb1b038311156113ba57600080fd5b8260051b808560808501379190910160800195945050505050565b8082028115828204841417610b6b57610b6b6111fb56fea26469706673582212204e3fbcd9c6bd46bca4136b9748e58dbb9d788eea5eaddd6cd7150cfb1d22cd2b64736f6c63430008130033","linkReferences":{}},"methodIdentifiers":{"ACTION_REWARD_MIN_VOTE_PER_THOUSAND()":"74474ebe","RANDOM_SEED_UPDATE_MIN_PER_TEN_THOUSAND()":"27e92918","abstentionScoreWithReward(address,uint256)":"c8829af9","currentRound()":"8a19c8bc","firstTokenAddress()":"742583c8","initialize(address,address,address,address,address,address,address,uint256,uint256)":"9bb725be","initialized()":"158ef93e","isActionIdWithReward(address,uint256,uint256)":"84e2f068","joinAddress()":"258cd1e4","mintAddress()":"425d4980","originBlocks()":"b2ad3730","phaseBlocks()":"60a918b7","randomAddress()":"d5bee9f5","roundByBlockNumber(uint256)":"3bdf9f13","score(address,uint256)":"7401edba","scoreByActionId(address,uint256,uint256)":"986fd1d8","scoreByActionIdByAccount(address,uint256,uint256,address)":"c0df7d59","scoreByVerifier(address,uint256,address)":"965aa9d0","scoreByVerifierByActionId(address,uint256,address,uint256)":"8388a65a","scoreWithReward(address,uint256)":"64a85573","stakeAddress()":"85107367","stakedAmountOfVerifiers(address,uint256)":"13232bb6","submitAddress()":"e388878f","verify(address,uint256,uint256,uint256[])":"fe43a47e","voteAddress()":"3d6dc928"},"id":47}