{"abi":[{"type":"constructor","inputs":[{"name":"originBlocks","type":"uint256","internalType":"uint256"},{"name":"phaseBlocks","type":"uint256","internalType":"uint256"}],"stateMutability":"nonpayable"},{"type":"function","name":"SUBMIT_MIN_PER_THOUSAND","inputs":[],"outputs":[{"name":"","type":"uint256","internalType":"uint256"}],"stateMutability":"view"},{"type":"function","name":"actionIdsByAuthor","inputs":[{"name":"tokenAddress","type":"address","internalType":"address"},{"name":"author","type":"address","internalType":"address"}],"outputs":[{"name":"","type":"uint256[]","internalType":"uint256[]"}],"stateMutability":"view"},{"type":"function","name":"actionInfo","inputs":[{"name":"tokenAddress","type":"address","internalType":"address"},{"name":"actionId","type":"uint256","internalType":"uint256"}],"outputs":[{"name":"","type":"tuple","internalType":"struct ActionInfo","components":[{"name":"head","type":"tuple","internalType":"struct ActionHead","components":[{"name":"id","type":"uint256","internalType":"uint256"},{"name":"author","type":"address","internalType":"address"},{"name":"createAtBlock","type":"uint256","internalType":"uint256"}]},{"name":"body","type":"tuple","internalType":"struct ActionBody","components":[{"name":"minStake","type":"uint256","internalType":"uint256"},{"name":"maxRandomAccounts","type":"uint256","internalType":"uint256"},{"name":"whiteList","type":"address[]","internalType":"address[]"},{"name":"action","type":"string","internalType":"string"},{"name":"consensus","type":"string","internalType":"string"},{"name":"verificationRule","type":"string","internalType":"string"},{"name":"verificationKeys","type":"string[]","internalType":"string[]"},{"name":"verificationInfoGuides","type":"string[]","internalType":"string[]"}]}]}],"stateMutability":"view"},{"type":"function","name":"actionInfosByIds","inputs":[{"name":"tokenAddress","type":"address","internalType":"address"},{"name":"actionIds","type":"uint256[]","internalType":"uint256[]"}],"outputs":[{"name":"","type":"tuple[]","internalType":"struct ActionInfo[]","components":[{"name":"head","type":"tuple","internalType":"struct ActionHead","components":[{"name":"id","type":"uint256","internalType":"uint256"},{"name":"author","type":"address","internalType":"address"},{"name":"createAtBlock","type":"uint256","internalType":"uint256"}]},{"name":"body","type":"tuple","internalType":"struct ActionBody","components":[{"name":"minStake","type":"uint256","internalType":"uint256"},{"name":"maxRandomAccounts","type":"uint256","internalType":"uint256"},{"name":"whiteList","type":"address[]","internalType":"address[]"},{"name":"action","type":"string","internalType":"string"},{"name":"consensus","type":"string","internalType":"string"},{"name":"verificationRule","type":"string","internalType":"string"},{"name":"verificationKeys","type":"string[]","internalType":"string[]"},{"name":"verificationInfoGuides","type":"string[]","internalType":"string[]"}]}]}],"stateMutability":"view"},{"type":"function","name":"actionInfosByPage","inputs":[{"name":"tokenAddress","type":"address","internalType":"address"},{"name":"start","type":"uint256","internalType":"uint256"},{"name":"end","type":"uint256","internalType":"uint256"},{"name":"reverse","type":"bool","internalType":"bool"}],"outputs":[{"name":"","type":"tuple[]","internalType":"struct ActionInfo[]","components":[{"name":"head","type":"tuple","internalType":"struct ActionHead","components":[{"name":"id","type":"uint256","internalType":"uint256"},{"name":"author","type":"address","internalType":"address"},{"name":"createAtBlock","type":"uint256","internalType":"uint256"}]},{"name":"body","type":"tuple","internalType":"struct ActionBody","components":[{"name":"minStake","type":"uint256","internalType":"uint256"},{"name":"maxRandomAccounts","type":"uint256","internalType":"uint256"},{"name":"whiteList","type":"address[]","internalType":"address[]"},{"name":"action","type":"string","internalType":"string"},{"name":"consensus","type":"string","internalType":"string"},{"name":"verificationRule","type":"string","internalType":"string"},{"name":"verificationKeys","type":"string[]","internalType":"string[]"},{"name":"verificationInfoGuides","type":"string[]","internalType":"string[]"}]}]}],"stateMutability":"view"},{"type":"function","name":"actionNum","inputs":[{"name":"tokenAddress","type":"address","internalType":"address"}],"outputs":[{"name":"","type":"uint256","internalType":"uint256"}],"stateMutability":"view"},{"type":"function","name":"actionSubmits","inputs":[{"name":"tokenAddress","type":"address","internalType":"address"},{"name":"round","type":"uint256","internalType":"uint256"}],"outputs":[{"name":"","type":"tuple[]","internalType":"struct ActionSubmitInfo[]","components":[{"name":"submitter","type":"address","internalType":"address"},{"name":"actionId","type":"uint256","internalType":"uint256"}]}],"stateMutability":"view"},{"type":"function","name":"canSubmit","inputs":[{"name":"tokenAddress","type":"address","internalType":"address"},{"name":"accountAddress","type":"address","internalType":"address"}],"outputs":[{"name":"","type":"bool","internalType":"bool"}],"stateMutability":"view"},{"type":"function","name":"currentRound","inputs":[],"outputs":[{"name":"","type":"uint256","internalType":"uint256"}],"stateMutability":"view"},{"type":"function","name":"initialize","inputs":[{"name":"stakeAddress_","type":"address","internalType":"address"},{"name":"submitMinPerThousand","type":"uint256","internalType":"uint256"}],"outputs":[],"stateMutability":"nonpayable"},{"type":"function","name":"initialized","inputs":[],"outputs":[{"name":"","type":"bool","internalType":"bool"}],"stateMutability":"view"},{"type":"function","name":"isInWhiteList","inputs":[{"name":"tokenAddress","type":"address","internalType":"address"},{"name":"actionId","type":"uint256","internalType":"uint256"},{"name":"account","type":"address","internalType":"address"}],"outputs":[{"name":"","type":"bool","internalType":"bool"}],"stateMutability":"view"},{"type":"function","name":"isSubmitted","inputs":[{"name":"tokenAddress","type":"address","internalType":"address"},{"name":"round","type":"uint256","internalType":"uint256"},{"name":"actionId","type":"uint256","internalType":"uint256"}],"outputs":[{"name":"","type":"bool","internalType":"bool"}],"stateMutability":"view"},{"type":"function","name":"originBlocks","inputs":[],"outputs":[{"name":"","type":"uint256","internalType":"uint256"}],"stateMutability":"view"},{"type":"function","name":"phaseBlocks","inputs":[],"outputs":[{"name":"","type":"uint256","internalType":"uint256"}],"stateMutability":"view"},{"type":"function","name":"roundByBlockNumber","inputs":[{"name":"blockNumber","type":"uint256","internalType":"uint256"}],"outputs":[{"name":"","type":"uint256","internalType":"uint256"}],"stateMutability":"view"},{"type":"function","name":"stakeAddress","inputs":[],"outputs":[{"name":"","type":"address","internalType":"address"}],"stateMutability":"view"},{"type":"function","name":"submit","inputs":[{"name":"tokenAddress","type":"address","internalType":"address"},{"name":"actionId","type":"uint256","internalType":"uint256"}],"outputs":[],"stateMutability":"nonpayable"},{"type":"function","name":"submitNewAction","inputs":[{"name":"tokenAddress","type":"address","internalType":"address"},{"name":"actionBody","type":"tuple","internalType":"struct ActionBody","components":[{"name":"minStake","type":"uint256","internalType":"uint256"},{"name":"maxRandomAccounts","type":"uint256","internalType":"uint256"},{"name":"whiteList","type":"address[]","internalType":"address[]"},{"name":"action","type":"string","internalType":"string"},{"name":"consensus","type":"string","internalType":"string"},{"name":"verificationRule","type":"string","internalType":"string"},{"name":"verificationKeys","type":"string[]","internalType":"string[]"},{"name":"verificationInfoGuides","type":"string[]","internalType":"string[]"}]}],"outputs":[{"name":"actionId","type":"uint256","internalType":"uint256"}],"stateMutability":"nonpayable"},{"type":"event","name":"ActionCreate","inputs":[{"name":"tokenAddress","type":"address","indexed":true,"internalType":"address"},{"name":"round","type":"uint256","indexed":true,"internalType":"uint256"},{"name":"author","type":"address","indexed":true,"internalType":"address"},{"name":"actionId","type":"uint256","indexed":false,"internalType":"uint256"},{"name":"actionBody","type":"tuple","indexed":false,"internalType":"struct ActionBody","components":[{"name":"minStake","type":"uint256","internalType":"uint256"},{"name":"maxRandomAccounts","type":"uint256","internalType":"uint256"},{"name":"whiteList","type":"address[]","internalType":"address[]"},{"name":"action","type":"string","internalType":"string"},{"name":"consensus","type":"string","internalType":"string"},{"name":"verificationRule","type":"string","internalType":"string"},{"name":"verificationKeys","type":"string[]","internalType":"string[]"},{"name":"verificationInfoGuides","type":"string[]","internalType":"string[]"}]}],"anonymous":false},{"type":"event","name":"ActionSubmit","inputs":[{"name":"tokenAddress","type":"address","indexed":true,"internalType":"address"},{"name":"round","type":"uint256","indexed":true,"internalType":"uint256"},{"name":"submitter","type":"address","indexed":false,"internalType":"address"},{"name":"actionId","type":"uint256","indexed":true,"internalType":"uint256"}],"anonymous":false},{"type":"error","name":"ActionIdNotExist","inputs":[]},{"type":"error","name":"AlreadyInitialized","inputs":[]},{"type":"error","name":"AlreadySubmitted","inputs":[]},{"type":"error","name":"CannotSubmitAction","inputs":[]},{"type":"error","name":"MaxRandomAccountsZero","inputs":[]},{"type":"error","name":"MinStakeZero","inputs":[]},{"type":"error","name":"OnlyOneSubmitPerRound","inputs":[]},{"type":"error","name":"RoundNotStarted","inputs":[]},{"type":"error","name":"StartGreaterThanEnd","inputs":[]}],"bytecode":{"object":"0x60c06040523480156200001157600080fd5b5060405162002cff38038062002cff833981016040819052620000349162000043565b60809190915260a05262000068565b600080604083850312156200005757600080fd5b505080516020909101519092909150565b60805160a051612c5c620000a36000396000818161021301526115d90152600081816102db0152818161156701526115ad0152612c5c6000f3fe608060405234801561001057600080fd5b50600436106101215760003560e01c806360a918b7116100ad578063a94e966711610071578063a94e9667146102ad578063b2ad3730146102d6578063b63931b2146102fd578063cd6dc68714610310578063d6d157271461032357600080fd5b806360a918b71461020e5780638510736714610235578063879e49c9146102655780638a19c8bc14610285578063a3770fcb1461028d57600080fd5b806327347970116100f457806327347970146101a15780632bed3c29146101b4578063303f8611146101c75780633bdf9f13146101da5780633bf16980146101fb57600080fd5b80631212df6f14610126578063158ef93e1461014f578063195bf0271461016c578063203dd6661461018c575b600080fd5b6101396101343660046121f1565b61032c565b604051610146919061240d565b60405180910390f35b60005461015c9060ff1681565b6040519015158152602001610146565b61017f61017a36600461246f565b610d9e565b60405161014691906124a2565b61019f61019a3660046124e6565b610e18565b005b61015c6101af36600461246f565b610e4d565b61015c6101c2366004612510565b610f7a565b6101396101d5366004612543565b611004565b6101ed6101e83660046125c9565b611563565b604051908152602001610146565b61015c6102093660046125e2565b6115fe565b6101ed7f000000000000000000000000000000000000000000000000000000000000000081565b60005461024d9061010090046001600160a01b031681565b6040516001600160a01b039091168152602001610146565b6102786102733660046124e6565b611683565b604051610146919061261e565b6101ed611717565b6102a061029b3660046124e6565b611727565b6040516101469190612676565b6101ed6102bb366004612689565b6001600160a01b031660009081526002602052604090205490565b6101ed7f000000000000000000000000000000000000000000000000000000000000000081565b6101ed61030b3660046126a4565b611bc9565b61019f61031e3660046124e6565b611c10565b6101ed60015481565b6001600160a01b0384166000908152600260205260409020546060908015806103555750808510155b1561039457604080516000808252602082019092529061038b565b610378612039565b8152602001906001900390816103705790505b50915050610d96565b838511156103b557604051633dd8bead60e11b815260040160405180910390fd5b60008185106103ce576103c9600183612726565b6103d0565b845b905060006103de8783612726565b6103e9906001612739565b905060008167ffffffffffffffff811115610406576104066126fa565b60405190808252806020026020018201604052801561043f57816020015b61042c612039565b8152602001906001900390816104245790505b50905085156108ee5760005b828110156108e8576001600160a01b038a1660009081526002602052604090206104758286612726565b815481106104855761048561274c565b60009182526020918290206040805160a081018252600b909302909101805483830190815260018201546001600160a01b03166060850152600282015460808501528352815161010081018352600382018054825260048301548287015260058301805485518189028101890187528181529697949688860196949593948601939092919083018282801561054357602002820191906000526020600020905b81546001600160a01b03168152600190910190602001808311610525575b5050505050815260200160038201805461055c90612762565b80601f016020809104026020016040519081016040528092919081815260200182805461058890612762565b80156105d55780601f106105aa576101008083540402835291602001916105d5565b820191906000526020600020905b8154815290600101906020018083116105b857829003601f168201915b505050505081526020016004820180546105ee90612762565b80601f016020809104026020016040519081016040528092919081815260200182805461061a90612762565b80156106675780601f1061063c57610100808354040283529160200191610667565b820191906000526020600020905b81548152906001019060200180831161064a57829003601f168201915b5050505050815260200160058201805461068090612762565b80601f01602080910402602001604051908101604052809291908181526020018280546106ac90612762565b80156106f95780601f106106ce576101008083540402835291602001916106f9565b820191906000526020600020905b8154815290600101906020018083116106dc57829003601f168201915b5050505050815260200160068201805480602002602001604051908101604052809291908181526020016000905b828210156107d357838290600052602060002001805461074690612762565b80601f016020809104026020016040519081016040528092919081815260200182805461077290612762565b80156107bf5780601f10610794576101008083540402835291602001916107bf565b820191906000526020600020905b8154815290600101906020018083116107a257829003601f168201915b505050505081526020019060010190610727565b50505050815260200160078201805480602002602001604051908101604052809291908181526020016000905b828210156108ac57838290600052602060002001805461081f90612762565b80601f016020809104026020016040519081016040528092919081815260200182805461084b90612762565b80156108985780601f1061086d57610100808354040283529160200191610898565b820191906000526020600020905b81548152906001019060200180831161087b57829003601f168201915b505050505081526020019060010190610800565b5050505081525050815250508282815181106108ca576108ca61274c565b602002602001018190525080806108e09061279c565b91505061044b565b50610d90565b60005b82811015610d8e576001600160a01b038a16600090815260026020526040902061091b828b612739565b8154811061092b5761092b61274c565b60009182526020918290206040805160a081018252600b909302909101805483830190815260018201546001600160a01b0316606085015260028201546080850152835281516101008101835260038201805482526004830154828701526005830180548551818902810189018752818152969794968886019694959394860193909291908301828280156109e957602002820191906000526020600020905b81546001600160a01b031681526001909101906020018083116109cb575b50505050508152602001600382018054610a0290612762565b80601f0160208091040260200160405190810160405280929190818152602001828054610a2e90612762565b8015610a7b5780601f10610a5057610100808354040283529160200191610a7b565b820191906000526020600020905b815481529060010190602001808311610a5e57829003601f168201915b50505050508152602001600482018054610a9490612762565b80601f0160208091040260200160405190810160405280929190818152602001828054610ac090612762565b8015610b0d5780601f10610ae257610100808354040283529160200191610b0d565b820191906000526020600020905b815481529060010190602001808311610af057829003601f168201915b50505050508152602001600582018054610b2690612762565b80601f0160208091040260200160405190810160405280929190818152602001828054610b5290612762565b8015610b9f5780601f10610b7457610100808354040283529160200191610b9f565b820191906000526020600020905b815481529060010190602001808311610b8257829003601f168201915b5050505050815260200160068201805480602002602001604051908101604052809291908181526020016000905b82821015610c79578382906000526020600020018054610bec90612762565b80601f0160208091040260200160405190810160405280929190818152602001828054610c1890612762565b8015610c655780601f10610c3a57610100808354040283529160200191610c65565b820191906000526020600020905b815481529060010190602001808311610c4857829003601f168201915b505050505081526020019060010190610bcd565b50505050815260200160078201805480602002602001604051908101604052809291908181526020016000905b82821015610d52578382906000526020600020018054610cc590612762565b80601f0160208091040260200160405190810160405280929190818152602001828054610cf190612762565b8015610d3e5780601f10610d1357610100808354040283529160200191610d3e565b820191906000526020600020905b815481529060010190602001808311610d2157829003601f168201915b505050505081526020019060010190610ca6565b505050508152505081525050828281518110610d7057610d7061274c565b60200260200101819052508080610d869061279c565b9150506108f1565b505b93505050505b949350505050565b6001600160a01b038083166000908152600360209081526040808320938516835292815290829020805483518184028101840190945280845260609392830182828015610e0a57602002820191906000526020600020905b815481526020019060010190808311610df6575b505050505090505b92915050565b610e228233610e4d565b610e3f5760405163576034cf60e11b815260040160405180910390fd5b610e498282611c62565b5050565b60008054604051632872798160e21b81526001600160a01b0385811660048301528481166024830152610100909204909116908290829063a1c9e60490604401602060405180830381865afa158015610eaa573d6000803e3d6000fd5b505050506040513d601f19601f82011682018060405250810190610ece91906127b5565b6040516315664f8d60e01b81526001600160a01b0387811660048301529192506000918416906315664f8d90602401602060405180830381865afa158015610f1a573d6000803e3d6000fd5b505050506040513d601f19601f82011682018060405250810190610f3e91906127b5565b905081600003610f545760009350505050610e12565b60015481610f64846103e86127ce565b610f6e91906127e5565b10159695505050505050565b6001600160a01b03831660009081526004602090815260408083208584529091528120815b8154811015610ff6576000828281548110610fbc57610fbc61274c565b9060005260206000209060020201600101549050848103610fe35760019350505050610ffd565b5080610fee8161279c565b915050610f9f565b5060009150505b9392505050565b606060008267ffffffffffffffff811115611021576110216126fa565b60405190808252806020026020018201604052801561105a57816020015b611047612039565b81526020019060019003908161103f5790505b50905082600061107f876001600160a01b031660009081526002602052604090205490565b905060005b828110156115575760008787838181106110a0576110a061274c565b9050602002013590508281106110c9576040516305e175b560e11b815260040160405180910390fd5b6001600160a01b03891660009081526002602052604090208054829081106110f3576110f361274c565b60009182526020918290206040805160a081018252600b909302909101805483830190815260018201546001600160a01b0316606085015260028201546080850152835281516101008101835260038201805482526004830154828701526005830180548551818902810189018752818152969794968886019694959394860193909291908301828280156111b157602002820191906000526020600020905b81546001600160a01b03168152600190910190602001808311611193575b505050505081526020016003820180546111ca90612762565b80601f01602080910402602001604051908101604052809291908181526020018280546111f690612762565b80156112435780601f1061121857610100808354040283529160200191611243565b820191906000526020600020905b81548152906001019060200180831161122657829003601f168201915b5050505050815260200160048201805461125c90612762565b80601f016020809104026020016040519081016040528092919081815260200182805461128890612762565b80156112d55780601f106112aa576101008083540402835291602001916112d5565b820191906000526020600020905b8154815290600101906020018083116112b857829003601f168201915b505050505081526020016005820180546112ee90612762565b80601f016020809104026020016040519081016040528092919081815260200182805461131a90612762565b80156113675780601f1061133c57610100808354040283529160200191611367565b820191906000526020600020905b81548152906001019060200180831161134a57829003601f168201915b5050505050815260200160068201805480602002602001604051908101604052809291908181526020016000905b828210156114415783829060005260206000200180546113b490612762565b80601f01602080910402602001604051908101604052809291908181526020018280546113e090612762565b801561142d5780601f106114025761010080835404028352916020019161142d565b820191906000526020600020905b81548152906001019060200180831161141057829003601f168201915b505050505081526020019060010190611395565b50505050815260200160078201805480602002602001604051908101604052809291908181526020016000905b8282101561151a57838290600052602060002001805461148d90612762565b80601f01602080910402602001604051908101604052809291908181526020018280546114b990612762565b80156115065780601f106114db57610100808354040283529160200191611506565b820191906000526020600020905b8154815290600101906020018083116114e957829003601f168201915b50505050508152602001906001019061146e565b5050505081525050815250508583815181106115385761153861274c565b602002602001018190525050808061154f9061279c565b915050611084565b50919695505050505050565b60007f00000000000000000000000000000000000000000000000000000000000000008210156115a6576040516323a71b8760e21b815260040160405180910390fd5b60006115d27f000000000000000000000000000000000000000000000000000000000000000084612726565b9050610ffd7f0000000000000000000000000000000000000000000000000000000000000000826127e5565b60008061160b8585611727565b602001516040015190508051600003611628576001915050610ffd565b60005b8151811015610ff657836001600160a01b03168282815181106116505761165061274c565b60200260200101516001600160a01b03160361167157600192505050610ffd565b8061167b8161279c565b91505061162b565b6001600160a01b03821660009081526004602090815260408083208484528252808320805482518185028101850190935280835260609492939192909184015b8282101561170b576000848152602090819020604080518082019091526002850290910180546001600160a01b031682526001908101548284015290835290920191016116c3565b50505050905092915050565b600061172243611563565b905090565b61172f612039565b6001600160a01b0383166000908152600260205260409020548210611767576040516305e175b560e11b815260040160405180910390fd5b6001600160a01b03831660009081526002602052604090208054839081106117915761179161274c565b60009182526020918290206040805160a081018252600b909302909101805483830190815260018201546001600160a01b03166060850152600282015460808501528352815161010081018352600382018054825260048301548287015260058301805485518189028101890187528181529697949688860196949593948601939092919083018282801561184f57602002820191906000526020600020905b81546001600160a01b03168152600190910190602001808311611831575b5050505050815260200160038201805461186890612762565b80601f016020809104026020016040519081016040528092919081815260200182805461189490612762565b80156118e15780601f106118b6576101008083540402835291602001916118e1565b820191906000526020600020905b8154815290600101906020018083116118c457829003601f168201915b505050505081526020016004820180546118fa90612762565b80601f016020809104026020016040519081016040528092919081815260200182805461192690612762565b80156119735780601f1061194857610100808354040283529160200191611973565b820191906000526020600020905b81548152906001019060200180831161195657829003601f168201915b5050505050815260200160058201805461198c90612762565b80601f01602080910402602001604051908101604052809291908181526020018280546119b890612762565b8015611a055780601f106119da57610100808354040283529160200191611a05565b820191906000526020600020905b8154815290600101906020018083116119e857829003601f168201915b5050505050815260200160068201805480602002602001604051908101604052809291908181526020016000905b82821015611adf578382906000526020600020018054611a5290612762565b80601f0160208091040260200160405190810160405280929190818152602001828054611a7e90612762565b8015611acb5780601f10611aa057610100808354040283529160200191611acb565b820191906000526020600020905b815481529060010190602001808311611aae57829003601f168201915b505050505081526020019060010190611a33565b50505050815260200160078201805480602002602001604051908101604052809291908181526020016000905b82821015611bb8578382906000526020600020018054611b2b90612762565b80601f0160208091040260200160405190810160405280929190818152602001828054611b5790612762565b8015611ba45780601f10611b7957610100808354040283529160200191611ba4565b820191906000526020600020905b815481529060010190602001808311611b8757829003601f168201915b505050505081526020019060010190611b0c565b505050915250509052509392505050565b6000611bd58333610e4d565b611bf25760405163576034cf60e11b815260040160405180910390fd5b611c0483611bff846129e8565b611e29565b9050610e128382611c62565b60005460ff1615611c335760405162dc149f60e41b815260040160405180910390fd5b600080546001600160a01b03909316610100026001600160a81b03199093169290921760019081179092559055565b6001600160a01b0382166000908152600260205260409020548110611c9a576040516305e175b560e11b815260040160405180910390fd5b6000611ca4611717565b6001600160a01b038416600090815260046020908152604080832084845290915281209192505b8154811015611d81576000828281548110611ce857611ce861274c565b9060005260206000209060020201600101549050848103611d1c57604051639fbfc58960e01b815260040160405180910390fd5b6000838381548110611d3057611d3061274c565b60009182526020909120600290910201546001600160a01b03169050338103611d6c57604051639fb13b8760e01b815260040160405180910390fd5b50508080611d799061279c565b915050611ccb565b506001600160a01b038481166000818152600460209081526040808320878452825280832081518083018352338082528185018b8152835460018082018655948852968690209251600290970290920180546001600160a01b0319169690981695909517875551950194909455925190815285928592917f2ff46b28cd16740b4bb431c556195ba7ee859036ed04f912596d87a5b183ef01910160405180910390a450505050565b80516000908103611e4d5760405163077294b960e01b815260040160405180910390fd5b8160200151600003611e72576040516311dabe8960e31b815260040160405180910390fd5b506001600160a01b0382811660009081526002602081815260408084208054825160608101845281815233818601524381850152858552835180850185528181528086018a8152600180850186559489529786902081518051600b86029092019182558088015195820180546001600160a01b03191696909b16959095179099559284015195880195909555945180516003880190815581850151600489015592810151805196979596929594919392611f3292600587019201906120af565b5060608201516003820190611f479082612b4d565b5060808201516004820190611f5c9082612b4d565b5060a08201516005820190611f719082612b4d565b5060c08201518051611f8d916006840191602090910190612114565b5060e08201518051611fa9916007840191602090910190612114565b505050506001600160a01b038516600090815260036020908152604080832033808552908352908320805460018101825590845291909220018490559050611fef611717565b856001600160a01b03167fff3030c3155c5e7c4575cf62c142951fe239d450b7a280581d976ac4a82b1e3a858760405161202a929190612c0d565b60405180910390a45092915050565b6040805160a081018252600091810182815260608201839052608082019290925290819081526020016120aa60405180610100016040528060008152602001600081526020016060815260200160608152602001606081526020016060815260200160608152602001606081525090565b905290565b828054828255906000526020600020908101928215612104579160200282015b8281111561210457825182546001600160a01b0319166001600160a01b039091161782556020909201916001909101906120cf565b50612110929150612166565b5090565b82805482825590600052602060002090810192821561215a579160200282015b8281111561215a578251829061214a9082612b4d565b5091602001919060010190612134565b5061211092915061217b565b5b808211156121105760008155600101612167565b8082111561211057600061218f8282612198565b5060010161217b565b5080546121a490612762565b6000825580601f106121b4575050565b601f0160209004906000526020600020908101906121d29190612166565b50565b80356001600160a01b03811681146121ec57600080fd5b919050565b6000806000806080858703121561220757600080fd5b612210856121d5565b935060208501359250604085013591506060850135801515811461223357600080fd5b939692955090935050565b600081518084526020808501945080840160005b838110156122775781516001600160a01b031687529582019590820190600101612252565b509495945050505050565b6000815180845260005b818110156122a85760208185018101518683018201520161228c565b506000602082860101526020601f19601f83011685010191505092915050565b6000815180845260208085019450848260051b860182860160005b8581101561230d5783830389526122fb838351612282565b988501989250908401906001016122e3565b5090979650505050505050565b6000610100825184526020830151602085015260408301518160408601526123448286018261223e565b9150506060830151848203606086015261235e8282612282565b915050608083015184820360808601526123788282612282565b91505060a083015184820360a08601526123928282612282565b91505060c083015184820360c08601526123ac82826122c8565b91505060e083015184820360e08601526123c682826122c8565b95945050505050565b600081518051845260018060a01b0360208201511660208501526040810151604085015250602082015160806060850152610d96608085018261231a565b6000602080830181845280855180835260408601915060408160051b870101925083870160005b8281101561246257603f198886030184526124508583516123cf565b94509285019290850190600101612434565b5092979650505050505050565b6000806040838503121561248257600080fd5b61248b836121d5565b9150612499602084016121d5565b90509250929050565b6020808252825182820181905260009190848201906040850190845b818110156124da578351835292840192918401916001016124be565b50909695505050505050565b600080604083850312156124f957600080fd5b612502836121d5565b946020939093013593505050565b60008060006060848603121561252557600080fd5b61252e846121d5565b95602085013595506040909401359392505050565b60008060006040848603121561255857600080fd5b612561846121d5565b9250602084013567ffffffffffffffff8082111561257e57600080fd5b818601915086601f83011261259257600080fd5b8135818111156125a157600080fd5b8760208260051b85010111156125b657600080fd5b6020830194508093505050509250925092565b6000602082840312156125db57600080fd5b5035919050565b6000806000606084860312156125f757600080fd5b612600846121d5565b925060208401359150612615604085016121d5565b90509250925092565b602080825282518282018190526000919060409081850190868401855b8281101561266957815180516001600160a01b0316855286015186850152928401929085019060010161263b565b5091979650505050505050565b602081526000610ffd60208301846123cf565b60006020828403121561269b57600080fd5b610ffd826121d5565b600080604083850312156126b757600080fd5b6126c0836121d5565b9150602083013567ffffffffffffffff8111156126dc57600080fd5b830161010081860312156126ef57600080fd5b809150509250929050565b634e487b7160e01b600052604160045260246000fd5b634e487b7160e01b600052601160045260246000fd5b81810381811115610e1257610e12612710565b80820180821115610e1257610e12612710565b634e487b7160e01b600052603260045260246000fd5b600181811c9082168061277657607f821691505b60208210810361279657634e487b7160e01b600052602260045260246000fd5b50919050565b6000600182016127ae576127ae612710565b5060010190565b6000602082840312156127c757600080fd5b5051919050565b8082028115828204841417610e1257610e12612710565b60008261280257634e487b7160e01b600052601260045260246000fd5b500490565b604051610100810167ffffffffffffffff8111828210171561282b5761282b6126fa565b60405290565b604051601f8201601f1916810167ffffffffffffffff8111828210171561285a5761285a6126fa565b604052919050565b600067ffffffffffffffff82111561287c5761287c6126fa565b5060051b60200190565b600082601f83011261289757600080fd5b813560206128ac6128a783612862565b612831565b82815260059290921b840181019181810190868411156128cb57600080fd5b8286015b848110156128ed576128e0816121d5565b83529183019183016128cf565b509695505050505050565b600082601f83011261290957600080fd5b813567ffffffffffffffff811115612923576129236126fa565b612936601f8201601f1916602001612831565b81815284602083860101111561294b57600080fd5b816020850160208301376000918101602001919091529392505050565b600082601f83011261297957600080fd5b813560206129896128a783612862565b82815260059290921b840181019181810190868411156129a857600080fd5b8286015b848110156128ed57803567ffffffffffffffff8111156129cc5760008081fd5b6129da8986838b01016128f8565b8452509183019183016129ac565b600061010082360312156129fb57600080fd5b612a03612807565b8235815260208301356020820152604083013567ffffffffffffffff80821115612a2c57600080fd5b612a3836838701612886565b60408401526060850135915080821115612a5157600080fd5b612a5d368387016128f8565b60608401526080850135915080821115612a7657600080fd5b612a82368387016128f8565b608084015260a0850135915080821115612a9b57600080fd5b612aa7368387016128f8565b60a084015260c0850135915080821115612ac057600080fd5b612acc36838701612968565b60c084015260e0850135915080821115612ae557600080fd5b50612af236828601612968565b60e08301525092915050565b601f821115612b4857600081815260208120601f850160051c81016020861015612b255750805b601f850160051c820191505b81811015612b4457828155600101612b31565b5050505b505050565b815167ffffffffffffffff811115612b6757612b676126fa565b612b7b81612b758454612762565b84612afe565b602080601f831160018114612bb05760008415612b985750858301515b600019600386901b1c1916600185901b178555612b44565b600085815260208120601f198616915b82811015612bdf57888601518255948401946001909101908401612bc0565b5085821015612bfd5787850151600019600388901b60f8161c191681555b5050505050600190811b01905550565b828152604060208201526000610d96604083018461231a56fea26469706673582212206decbd4289c68e63afde81586c864244da3d5d0e733e6b71f42f6fc02c61f5db64736f6c63430008130033","linkReferences":{}},"methodIdentifiers":{"SUBMIT_MIN_PER_THOUSAND()":"d6d15727","actionIdsByAuthor(address,address)":"195bf027","actionInfo(address,uint256)":"a3770fcb","actionInfosByIds(address,uint256[])":"303f8611","actionInfosByPage(address,uint256,uint256,bool)":"1212df6f","actionNum(address)":"a94e9667","actionSubmits(address,uint256)":"879e49c9","canSubmit(address,address)":"27347970","currentRound()":"8a19c8bc","initialize(address,uint256)":"cd6dc687","initialized()":"158ef93e","isInWhiteList(address,uint256,address)":"3bf16980","isSubmitted(address,uint256,uint256)":"2bed3c29","originBlocks()":"b2ad3730","phaseBlocks()":"60a918b7","roundByBlockNumber(uint256)":"3bdf9f13","stakeAddress()":"85107367","submit(address,uint256)":"203dd666","submitNewAction(address,(uint256,uint256,address[],string,string,string,string[],string[]))":"b63931b2"},"id":44}