{"abi":[{"type":"constructor","inputs":[{"name":"originBlocks","type":"uint256","internalType":"uint256"},{"name":"phaseBlocks","type":"uint256","internalType":"uint256"}],"stateMutability":"nonpayable"},{"type":"function","name":"SUBMIT_MIN_PER_THOUSAND","inputs":[],"outputs":[{"name":"","type":"uint256","internalType":"uint256"}],"stateMutability":"view"},{"type":"function","name":"actionIdsByAuthor","inputs":[{"name":"tokenAddress","type":"address","internalType":"address"},{"name":"author","type":"address","internalType":"address"}],"outputs":[{"name":"","type":"uint256[]","internalType":"uint256[]"}],"stateMutability":"view"},{"type":"function","name":"actionInfo","inputs":[{"name":"tokenAddress","type":"address","internalType":"address"},{"name":"actionId","type":"uint256","internalType":"uint256"}],"outputs":[{"name":"","type":"tuple","internalType":"struct ActionInfo","components":[{"name":"head","type":"tuple","internalType":"struct ActionHead","components":[{"name":"id","type":"uint256","internalType":"uint256"},{"name":"author","type":"address","internalType":"address"},{"name":"createAtBlock","type":"uint256","internalType":"uint256"}]},{"name":"body","type":"tuple","internalType":"struct ActionBody","components":[{"name":"minStake","type":"uint256","internalType":"uint256"},{"name":"maxRandomAccounts","type":"uint256","internalType":"uint256"},{"name":"whiteList","type":"address[]","internalType":"address[]"},{"name":"action","type":"string","internalType":"string"},{"name":"consensus","type":"string","internalType":"string"},{"name":"verificationRule","type":"string","internalType":"string"},{"name":"verificationKeys","type":"string[]","internalType":"string[]"},{"name":"verificationInfoGuides","type":"string[]","internalType":"string[]"}]}]}],"stateMutability":"view"},{"type":"function","name":"actionInfosByIds","inputs":[{"name":"tokenAddress","type":"address","internalType":"address"},{"name":"actionIds","type":"uint256[]","internalType":"uint256[]"}],"outputs":[{"name":"","type":"tuple[]","internalType":"struct ActionInfo[]","components":[{"name":"head","type":"tuple","internalType":"struct ActionHead","components":[{"name":"id","type":"uint256","internalType":"uint256"},{"name":"author","type":"address","internalType":"address"},{"name":"createAtBlock","type":"uint256","internalType":"uint256"}]},{"name":"body","type":"tuple","internalType":"struct ActionBody","components":[{"name":"minStake","type":"uint256","internalType":"uint256"},{"name":"maxRandomAccounts","type":"uint256","internalType":"uint256"},{"name":"whiteList","type":"address[]","internalType":"address[]"},{"name":"action","type":"string","internalType":"string"},{"name":"consensus","type":"string","internalType":"string"},{"name":"verificationRule","type":"string","internalType":"string"},{"name":"verificationKeys","type":"string[]","internalType":"string[]"},{"name":"verificationInfoGuides","type":"string[]","internalType":"string[]"}]}]}],"stateMutability":"view"},{"type":"function","name":"actionInfosByPage","inputs":[{"name":"tokenAddress","type":"address","internalType":"address"},{"name":"start","type":"uint256","internalType":"uint256"},{"name":"end","type":"uint256","internalType":"uint256"},{"name":"reverse","type":"bool","internalType":"bool"}],"outputs":[{"name":"","type":"tuple[]","internalType":"struct ActionInfo[]","components":[{"name":"head","type":"tuple","internalType":"struct ActionHead","components":[{"name":"id","type":"uint256","internalType":"uint256"},{"name":"author","type":"address","internalType":"address"},{"name":"createAtBlock","type":"uint256","internalType":"uint256"}]},{"name":"body","type":"tuple","internalType":"struct ActionBody","components":[{"name":"minStake","type":"uint256","internalType":"uint256"},{"name":"maxRandomAccounts","type":"uint256","internalType":"uint256"},{"name":"whiteList","type":"address[]","internalType":"address[]"},{"name":"action","type":"string","internalType":"string"},{"name":"consensus","type":"string","internalType":"string"},{"name":"verificationRule","type":"string","internalType":"string"},{"name":"verificationKeys","type":"string[]","internalType":"string[]"},{"name":"verificationInfoGuides","type":"string[]","internalType":"string[]"}]}]}],"stateMutability":"view"},{"type":"function","name":"actionNum","inputs":[{"name":"tokenAddress","type":"address","internalType":"address"}],"outputs":[{"name":"","type":"uint256","internalType":"uint256"}],"stateMutability":"view"},{"type":"function","name":"actionSubmits","inputs":[{"name":"tokenAddress","type":"address","internalType":"address"},{"name":"round","type":"uint256","internalType":"uint256"}],"outputs":[{"name":"","type":"tuple[]","internalType":"struct ActionSubmitInfo[]","components":[{"name":"submitter","type":"address","internalType":"address"},{"name":"actionId","type":"uint256","internalType":"uint256"}]}],"stateMutability":"view"},{"type":"function","name":"canSubmit","inputs":[{"name":"tokenAddress","type":"address","internalType":"address"},{"name":"accountAddress","type":"address","internalType":"address"}],"outputs":[{"name":"","type":"bool","internalType":"bool"}],"stateMutability":"view"},{"type":"function","name":"currentRound","inputs":[],"outputs":[{"name":"","type":"uint256","internalType":"uint256"}],"stateMutability":"view"},{"type":"function","name":"initialize","inputs":[{"name":"stakeAddress_","type":"address","internalType":"address"},{"name":"submitMinPerThousand","type":"uint256","internalType":"uint256"}],"outputs":[],"stateMutability":"nonpayable"},{"type":"function","name":"initialized","inputs":[],"outputs":[{"name":"","type":"bool","internalType":"bool"}],"stateMutability":"view"},{"type":"function","name":"isInWhiteList","inputs":[{"name":"tokenAddress","type":"address","internalType":"address"},{"name":"actionId","type":"uint256","internalType":"uint256"},{"name":"account","type":"address","internalType":"address"}],"outputs":[{"name":"","type":"bool","internalType":"bool"}],"stateMutability":"view"},{"type":"function","name":"isSubmitted","inputs":[{"name":"tokenAddress","type":"address","internalType":"address"},{"name":"round","type":"uint256","internalType":"uint256"},{"name":"actionId","type":"uint256","internalType":"uint256"}],"outputs":[{"name":"","type":"bool","internalType":"bool"}],"stateMutability":"view"},{"type":"function","name":"originBlocks","inputs":[],"outputs":[{"name":"","type":"uint256","internalType":"uint256"}],"stateMutability":"view"},{"type":"function","name":"phaseBlocks","inputs":[],"outputs":[{"name":"","type":"uint256","internalType":"uint256"}],"stateMutability":"view"},{"type":"function","name":"roundByBlockNumber","inputs":[{"name":"blockNumber","type":"uint256","internalType":"uint256"}],"outputs":[{"name":"","type":"uint256","internalType":"uint256"}],"stateMutability":"view"},{"type":"function","name":"stakeAddress","inputs":[],"outputs":[{"name":"","type":"address","internalType":"address"}],"stateMutability":"view"},{"type":"function","name":"submit","inputs":[{"name":"tokenAddress","type":"address","internalType":"address"},{"name":"actionId","type":"uint256","internalType":"uint256"}],"outputs":[],"stateMutability":"nonpayable"},{"type":"function","name":"submitNewAction","inputs":[{"name":"tokenAddress","type":"address","internalType":"address"},{"name":"actionBody","type":"tuple","internalType":"struct ActionBody","components":[{"name":"minStake","type":"uint256","internalType":"uint256"},{"name":"maxRandomAccounts","type":"uint256","internalType":"uint256"},{"name":"whiteList","type":"address[]","internalType":"address[]"},{"name":"action","type":"string","internalType":"string"},{"name":"consensus","type":"string","internalType":"string"},{"name":"verificationRule","type":"string","internalType":"string"},{"name":"verificationKeys","type":"string[]","internalType":"string[]"},{"name":"verificationInfoGuides","type":"string[]","internalType":"string[]"}]}],"outputs":[{"name":"actionId","type":"uint256","internalType":"uint256"}],"stateMutability":"nonpayable"},{"type":"event","name":"ActionCreate","inputs":[{"name":"tokenAddress","type":"address","indexed":true,"internalType":"address"},{"name":"round","type":"uint256","indexed":true,"internalType":"uint256"},{"name":"author","type":"address","indexed":true,"internalType":"address"},{"name":"actionId","type":"uint256","indexed":false,"internalType":"uint256"},{"name":"actionBody","type":"tuple","indexed":false,"internalType":"struct ActionBody","components":[{"name":"minStake","type":"uint256","internalType":"uint256"},{"name":"maxRandomAccounts","type":"uint256","internalType":"uint256"},{"name":"whiteList","type":"address[]","internalType":"address[]"},{"name":"action","type":"string","internalType":"string"},{"name":"consensus","type":"string","internalType":"string"},{"name":"verificationRule","type":"string","internalType":"string"},{"name":"verificationKeys","type":"string[]","internalType":"string[]"},{"name":"verificationInfoGuides","type":"string[]","internalType":"string[]"}]}],"anonymous":false},{"type":"event","name":"ActionSubmit","inputs":[{"name":"tokenAddress","type":"address","indexed":true,"internalType":"address"},{"name":"round","type":"uint256","indexed":true,"internalType":"uint256"},{"name":"submitter","type":"address","indexed":false,"internalType":"address"},{"name":"actionId","type":"uint256","indexed":true,"internalType":"uint256"}],"anonymous":false},{"type":"error","name":"ActionIdNotExist","inputs":[]},{"type":"error","name":"AlreadyInitialized","inputs":[]},{"type":"error","name":"AlreadySubmitted","inputs":[]},{"type":"error","name":"CannotSubmitAction","inputs":[]},{"type":"error","name":"MaxRandomAccountsZero","inputs":[]},{"type":"error","name":"MinStakeZero","inputs":[]},{"type":"error","name":"OnlyOneSubmitPerRound","inputs":[]},{"type":"error","name":"RoundNotStarted","inputs":[]},{"type":"error","name":"StartGreaterThanEnd","inputs":[]}],"bytecode":{"object":"0x60c06040523480156200001157600080fd5b5060405162002ce038038062002ce0833981016040819052620000349162000043565b60809190915260a05262000068565b600080604083850312156200005757600080fd5b505080516020909101519092909150565b60805160a051612c3d620000a36000396000818161021301526115860152600081816102db01528181611514015261155a0152612c3d6000f3fe608060405234801561001057600080fd5b50600436106101215760003560e01c806360a918b7116100ad578063a94e966711610071578063a94e9667146102ad578063b2ad3730146102d6578063b63931b2146102fd578063cd6dc68714610310578063d6d157271461032357600080fd5b806360a918b71461020e5780638510736714610235578063879e49c9146102655780638a19c8bc14610285578063a3770fcb1461028d57600080fd5b806327347970116100f457806327347970146101a15780632bed3c29146101b4578063303f8611146101c75780633bdf9f13146101da5780633bf16980146101fb57600080fd5b80631212df6f14610126578063158ef93e1461014f578063195bf0271461016c578063203dd6661461018c575b600080fd5b6101396101343660046121d2565b61032c565b60405161014691906123ee565b60405180910390f35b60005461015c9060ff1681565b6040519015158152602001610146565b61017f61017a366004612450565b610d9e565b6040516101469190612483565b61019f61019a3660046124c7565b610e18565b005b61015c6101af366004612450565b610e4d565b61015c6101c23660046124f1565b610f7a565b6101396101d5366004612524565b610fb1565b6101ed6101e83660046125aa565b611510565b604051908152602001610146565b61015c6102093660046125c3565b6115ab565b6101ed7f000000000000000000000000000000000000000000000000000000000000000081565b60005461024d9061010090046001600160a01b031681565b6040516001600160a01b039091168152602001610146565b6102786102733660046124c7565b61163c565b60405161014691906125ff565b6101ed6116d0565b6102a061029b3660046124c7565b6116e0565b6040516101469190612657565b6101ed6102bb36600461266a565b6001600160a01b031660009081526002602052604090205490565b6101ed7f000000000000000000000000000000000000000000000000000000000000000081565b6101ed61030b366004612685565b611b82565b61019f61031e3660046124c7565b611bc9565b6101ed60015481565b6001600160a01b0384166000908152600260205260409020546060908015806103555750808510155b1561039457604080516000808252602082019092529061038b565b61037861201a565b8152602001906001900390816103705790505b50915050610d96565b838511156103b557604051633dd8bead60e11b815260040160405180910390fd5b60008185106103ce576103c9600183612707565b6103d0565b845b905060006103de8783612707565b6103e990600161271a565b905060008167ffffffffffffffff811115610406576104066126db565b60405190808252806020026020018201604052801561043f57816020015b61042c61201a565b8152602001906001900390816104245790505b50905085156108ee5760005b828110156108e8576001600160a01b038a1660009081526002602052604090206104758286612707565b815481106104855761048561272d565b60009182526020918290206040805160a081018252600b909302909101805483830190815260018201546001600160a01b03166060850152600282015460808501528352815161010081018352600382018054825260048301548287015260058301805485518189028101890187528181529697949688860196949593948601939092919083018282801561054357602002820191906000526020600020905b81546001600160a01b03168152600190910190602001808311610525575b5050505050815260200160038201805461055c90612743565b80601f016020809104026020016040519081016040528092919081815260200182805461058890612743565b80156105d55780601f106105aa576101008083540402835291602001916105d5565b820191906000526020600020905b8154815290600101906020018083116105b857829003601f168201915b505050505081526020016004820180546105ee90612743565b80601f016020809104026020016040519081016040528092919081815260200182805461061a90612743565b80156106675780601f1061063c57610100808354040283529160200191610667565b820191906000526020600020905b81548152906001019060200180831161064a57829003601f168201915b5050505050815260200160058201805461068090612743565b80601f01602080910402602001604051908101604052809291908181526020018280546106ac90612743565b80156106f95780601f106106ce576101008083540402835291602001916106f9565b820191906000526020600020905b8154815290600101906020018083116106dc57829003601f168201915b5050505050815260200160068201805480602002602001604051908101604052809291908181526020016000905b828210156107d357838290600052602060002001805461074690612743565b80601f016020809104026020016040519081016040528092919081815260200182805461077290612743565b80156107bf5780601f10610794576101008083540402835291602001916107bf565b820191906000526020600020905b8154815290600101906020018083116107a257829003601f168201915b505050505081526020019060010190610727565b50505050815260200160078201805480602002602001604051908101604052809291908181526020016000905b828210156108ac57838290600052602060002001805461081f90612743565b80601f016020809104026020016040519081016040528092919081815260200182805461084b90612743565b80156108985780601f1061086d57610100808354040283529160200191610898565b820191906000526020600020905b81548152906001019060200180831161087b57829003601f168201915b505050505081526020019060010190610800565b5050505081525050815250508282815181106108ca576108ca61272d565b602002602001018190525080806108e09061277d565b91505061044b565b50610d90565b60005b82811015610d8e576001600160a01b038a16600090815260026020526040902061091b828b61271a565b8154811061092b5761092b61272d565b60009182526020918290206040805160a081018252600b909302909101805483830190815260018201546001600160a01b0316606085015260028201546080850152835281516101008101835260038201805482526004830154828701526005830180548551818902810189018752818152969794968886019694959394860193909291908301828280156109e957602002820191906000526020600020905b81546001600160a01b031681526001909101906020018083116109cb575b50505050508152602001600382018054610a0290612743565b80601f0160208091040260200160405190810160405280929190818152602001828054610a2e90612743565b8015610a7b5780601f10610a5057610100808354040283529160200191610a7b565b820191906000526020600020905b815481529060010190602001808311610a5e57829003601f168201915b50505050508152602001600482018054610a9490612743565b80601f0160208091040260200160405190810160405280929190818152602001828054610ac090612743565b8015610b0d5780601f10610ae257610100808354040283529160200191610b0d565b820191906000526020600020905b815481529060010190602001808311610af057829003601f168201915b50505050508152602001600582018054610b2690612743565b80601f0160208091040260200160405190810160405280929190818152602001828054610b5290612743565b8015610b9f5780601f10610b7457610100808354040283529160200191610b9f565b820191906000526020600020905b815481529060010190602001808311610b8257829003601f168201915b5050505050815260200160068201805480602002602001604051908101604052809291908181526020016000905b82821015610c79578382906000526020600020018054610bec90612743565b80601f0160208091040260200160405190810160405280929190818152602001828054610c1890612743565b8015610c655780601f10610c3a57610100808354040283529160200191610c65565b820191906000526020600020905b815481529060010190602001808311610c4857829003601f168201915b505050505081526020019060010190610bcd565b50505050815260200160078201805480602002602001604051908101604052809291908181526020016000905b82821015610d52578382906000526020600020018054610cc590612743565b80601f0160208091040260200160405190810160405280929190818152602001828054610cf190612743565b8015610d3e5780601f10610d1357610100808354040283529160200191610d3e565b820191906000526020600020905b815481529060010190602001808311610d2157829003601f168201915b505050505081526020019060010190610ca6565b505050508152505081525050828281518110610d7057610d7061272d565b60200260200101819052508080610d869061277d565b9150506108f1565b505b93505050505b949350505050565b6001600160a01b038083166000908152600360209081526040808320938516835292815290829020805483518184028101840190945280845260609392830182828015610e0a57602002820191906000526020600020905b815481526020019060010190808311610df6575b505050505090505b92915050565b610e228233610e4d565b610e3f5760405163576034cf60e11b815260040160405180910390fd5b610e498282611c1b565b5050565b60008054604051632872798160e21b81526001600160a01b0385811660048301528481166024830152610100909204909116908290829063a1c9e60490604401602060405180830381865afa158015610eaa573d6000803e3d6000fd5b505050506040513d601f19601f82011682018060405250810190610ece9190612796565b6040516315664f8d60e01b81526001600160a01b0387811660048301529192506000918416906315664f8d90602401602060405180830381865afa158015610f1a573d6000803e3d6000fd5b505050506040513d601f19601f82011682018060405250810190610f3e9190612796565b905081600003610f545760009350505050610e12565b60015481610f64846103e86127af565b610f6e91906127c6565b10159695505050505050565b6001600160a01b0383166000908152600560209081526040808320858452825280832084845290915290205460ff165b9392505050565b606060008267ffffffffffffffff811115610fce57610fce6126db565b60405190808252806020026020018201604052801561100757816020015b610ff461201a565b815260200190600190039081610fec5790505b50905082600061102c876001600160a01b031660009081526002602052604090205490565b905060005b8281101561150457600087878381811061104d5761104d61272d565b905060200201359050828110611076576040516305e175b560e11b815260040160405180910390fd5b6001600160a01b03891660009081526002602052604090208054829081106110a0576110a061272d565b60009182526020918290206040805160a081018252600b909302909101805483830190815260018201546001600160a01b03166060850152600282015460808501528352815161010081018352600382018054825260048301548287015260058301805485518189028101890187528181529697949688860196949593948601939092919083018282801561115e57602002820191906000526020600020905b81546001600160a01b03168152600190910190602001808311611140575b5050505050815260200160038201805461117790612743565b80601f01602080910402602001604051908101604052809291908181526020018280546111a390612743565b80156111f05780601f106111c5576101008083540402835291602001916111f0565b820191906000526020600020905b8154815290600101906020018083116111d357829003601f168201915b5050505050815260200160048201805461120990612743565b80601f016020809104026020016040519081016040528092919081815260200182805461123590612743565b80156112825780601f1061125757610100808354040283529160200191611282565b820191906000526020600020905b81548152906001019060200180831161126557829003601f168201915b5050505050815260200160058201805461129b90612743565b80601f01602080910402602001604051908101604052809291908181526020018280546112c790612743565b80156113145780601f106112e957610100808354040283529160200191611314565b820191906000526020600020905b8154815290600101906020018083116112f757829003601f168201915b5050505050815260200160068201805480602002602001604051908101604052809291908181526020016000905b828210156113ee57838290600052602060002001805461136190612743565b80601f016020809104026020016040519081016040528092919081815260200182805461138d90612743565b80156113da5780601f106113af576101008083540402835291602001916113da565b820191906000526020600020905b8154815290600101906020018083116113bd57829003601f168201915b505050505081526020019060010190611342565b50505050815260200160078201805480602002602001604051908101604052809291908181526020016000905b828210156114c757838290600052602060002001805461143a90612743565b80601f016020809104026020016040519081016040528092919081815260200182805461146690612743565b80156114b35780601f10611488576101008083540402835291602001916114b3565b820191906000526020600020905b81548152906001019060200180831161149657829003601f168201915b50505050508152602001906001019061141b565b5050505081525050815250508583815181106114e5576114e561272d565b60200260200101819052505080806114fc9061277d565b915050611031565b50919695505050505050565b60007f0000000000000000000000000000000000000000000000000000000000000000821015611553576040516323a71b8760e21b815260040160405180910390fd5b600061157f7f000000000000000000000000000000000000000000000000000000000000000084612707565b9050610faa7f0000000000000000000000000000000000000000000000000000000000000000826127c6565b6000806115b885856116e0565b6020015160400151905080516000036115d5576001915050610faa565b60005b815181101561163057836001600160a01b03168282815181106115fd576115fd61272d565b60200260200101516001600160a01b03160361161e57600192505050610faa565b806116288161277d565b9150506115d8565b50600095945050505050565b6001600160a01b03821660009081526004602090815260408083208484528252808320805482518185028101850190935280835260609492939192909184015b828210156116c4576000848152602090819020604080518082019091526002850290910180546001600160a01b0316825260019081015482840152908352909201910161167c565b50505050905092915050565b60006116db43611510565b905090565b6116e861201a565b6001600160a01b0383166000908152600260205260409020548210611720576040516305e175b560e11b815260040160405180910390fd5b6001600160a01b038316600090815260026020526040902080548390811061174a5761174a61272d565b60009182526020918290206040805160a081018252600b909302909101805483830190815260018201546001600160a01b03166060850152600282015460808501528352815161010081018352600382018054825260048301548287015260058301805485518189028101890187528181529697949688860196949593948601939092919083018282801561180857602002820191906000526020600020905b81546001600160a01b031681526001909101906020018083116117ea575b5050505050815260200160038201805461182190612743565b80601f016020809104026020016040519081016040528092919081815260200182805461184d90612743565b801561189a5780601f1061186f5761010080835404028352916020019161189a565b820191906000526020600020905b81548152906001019060200180831161187d57829003601f168201915b505050505081526020016004820180546118b390612743565b80601f01602080910402602001604051908101604052809291908181526020018280546118df90612743565b801561192c5780601f106119015761010080835404028352916020019161192c565b820191906000526020600020905b81548152906001019060200180831161190f57829003601f168201915b5050505050815260200160058201805461194590612743565b80601f016020809104026020016040519081016040528092919081815260200182805461197190612743565b80156119be5780601f10611993576101008083540402835291602001916119be565b820191906000526020600020905b8154815290600101906020018083116119a157829003601f168201915b5050505050815260200160068201805480602002602001604051908101604052809291908181526020016000905b82821015611a98578382906000526020600020018054611a0b90612743565b80601f0160208091040260200160405190810160405280929190818152602001828054611a3790612743565b8015611a845780601f10611a5957610100808354040283529160200191611a84565b820191906000526020600020905b815481529060010190602001808311611a6757829003601f168201915b5050505050815260200190600101906119ec565b50505050815260200160078201805480602002602001604051908101604052809291908181526020016000905b82821015611b71578382906000526020600020018054611ae490612743565b80601f0160208091040260200160405190810160405280929190818152602001828054611b1090612743565b8015611b5d5780601f10611b3257610100808354040283529160200191611b5d565b820191906000526020600020905b815481529060010190602001808311611b4057829003601f168201915b505050505081526020019060010190611ac5565b505050915250509052509392505050565b6000611b8e8333610e4d565b611bab5760405163576034cf60e11b815260040160405180910390fd5b611bbd83611bb8846129c9565b611e0a565b9050610e128382611c1b565b60005460ff1615611bec5760405162dc149f60e41b815260040160405180910390fd5b600080546001600160a01b03909316610100026001600160a81b03199093169290921760019081179092559055565b6001600160a01b0382166000908152600260205260409020548110611c53576040516305e175b560e11b815260040160405180910390fd5b6000611c5d6116d0565b6001600160a01b038416600090815260046020908152604080832084845290915281209192505b8154811015611d3a576000828281548110611ca157611ca161272d565b9060005260206000209060020201600101549050848103611cd557604051639fbfc58960e01b815260040160405180910390fd5b6000838381548110611ce957611ce961272d565b60009182526020909120600290910201546001600160a01b03169050338103611d2557604051639fb13b8760e01b815260040160405180910390fd5b50508080611d329061277d565b915050611c84565b506001600160a01b038481166000818152600460209081526040808320878452825280832081518083018352338082528185018b81528354600180820186559488528688209351600290910290930180546001600160a01b03191693909916929092178855905196820196909655848452600583528184208885528352818420898552835292819020805460ff1916909317909255905192835285928592917f2ff46b28cd16740b4bb431c556195ba7ee859036ed04f912596d87a5b183ef01910160405180910390a450505050565b80516000908103611e2e5760405163077294b960e01b815260040160405180910390fd5b8160200151600003611e53576040516311dabe8960e31b815260040160405180910390fd5b506001600160a01b0382811660009081526002602081815260408084208054825160608101845281815233818601524381850152858552835180850185528181528086018a8152600180850186559489529786902081518051600b86029092019182558088015195820180546001600160a01b03191696909b16959095179099559284015195880195909555945180516003880190815581850151600489015592810151805196979596929594919392611f139260058701920190612090565b5060608201516003820190611f289082612b2e565b5060808201516004820190611f3d9082612b2e565b5060a08201516005820190611f529082612b2e565b5060c08201518051611f6e9160068401916020909101906120f5565b5060e08201518051611f8a9160078401916020909101906120f5565b505050506001600160a01b038516600090815260036020908152604080832033808552908352908320805460018101825590845291909220018490559050611fd06116d0565b856001600160a01b03167fff3030c3155c5e7c4575cf62c142951fe239d450b7a280581d976ac4a82b1e3a858760405161200b929190612bee565b60405180910390a45092915050565b6040805160a0810182526000918101828152606082018390526080820192909252908190815260200161208b60405180610100016040528060008152602001600081526020016060815260200160608152602001606081526020016060815260200160608152602001606081525090565b905290565b8280548282559060005260206000209081019282156120e5579160200282015b828111156120e557825182546001600160a01b0319166001600160a01b039091161782556020909201916001909101906120b0565b506120f1929150612147565b5090565b82805482825590600052602060002090810192821561213b579160200282015b8281111561213b578251829061212b9082612b2e565b5091602001919060010190612115565b506120f192915061215c565b5b808211156120f15760008155600101612148565b808211156120f15760006121708282612179565b5060010161215c565b50805461218590612743565b6000825580601f10612195575050565b601f0160209004906000526020600020908101906121b39190612147565b50565b80356001600160a01b03811681146121cd57600080fd5b919050565b600080600080608085870312156121e857600080fd5b6121f1856121b6565b935060208501359250604085013591506060850135801515811461221457600080fd5b939692955090935050565b600081518084526020808501945080840160005b838110156122585781516001600160a01b031687529582019590820190600101612233565b509495945050505050565b6000815180845260005b818110156122895760208185018101518683018201520161226d565b506000602082860101526020601f19601f83011685010191505092915050565b6000815180845260208085019450848260051b860182860160005b858110156122ee5783830389526122dc838351612263565b988501989250908401906001016122c4565b5090979650505050505050565b6000610100825184526020830151602085015260408301518160408601526123258286018261221f565b9150506060830151848203606086015261233f8282612263565b915050608083015184820360808601526123598282612263565b91505060a083015184820360a08601526123738282612263565b91505060c083015184820360c086015261238d82826122a9565b91505060e083015184820360e08601526123a782826122a9565b95945050505050565b600081518051845260018060a01b0360208201511660208501526040810151604085015250602082015160806060850152610d9660808501826122fb565b6000602080830181845280855180835260408601915060408160051b870101925083870160005b8281101561244357603f198886030184526124318583516123b0565b94509285019290850190600101612415565b5092979650505050505050565b6000806040838503121561246357600080fd5b61246c836121b6565b915061247a602084016121b6565b90509250929050565b6020808252825182820181905260009190848201906040850190845b818110156124bb5783518352928401929184019160010161249f565b50909695505050505050565b600080604083850312156124da57600080fd5b6124e3836121b6565b946020939093013593505050565b60008060006060848603121561250657600080fd5b61250f846121b6565b95602085013595506040909401359392505050565b60008060006040848603121561253957600080fd5b612542846121b6565b9250602084013567ffffffffffffffff8082111561255f57600080fd5b818601915086601f83011261257357600080fd5b81358181111561258257600080fd5b8760208260051b850101111561259757600080fd5b6020830194508093505050509250925092565b6000602082840312156125bc57600080fd5b5035919050565b6000806000606084860312156125d857600080fd5b6125e1846121b6565b9250602084013591506125f6604085016121b6565b90509250925092565b602080825282518282018190526000919060409081850190868401855b8281101561264a57815180516001600160a01b0316855286015186850152928401929085019060010161261c565b5091979650505050505050565b602081526000610faa60208301846123b0565b60006020828403121561267c57600080fd5b610faa826121b6565b6000806040838503121561269857600080fd5b6126a1836121b6565b9150602083013567ffffffffffffffff8111156126bd57600080fd5b830161010081860312156126d057600080fd5b809150509250929050565b634e487b7160e01b600052604160045260246000fd5b634e487b7160e01b600052601160045260246000fd5b81810381811115610e1257610e126126f1565b80820180821115610e1257610e126126f1565b634e487b7160e01b600052603260045260246000fd5b600181811c9082168061275757607f821691505b60208210810361277757634e487b7160e01b600052602260045260246000fd5b50919050565b60006001820161278f5761278f6126f1565b5060010190565b6000602082840312156127a857600080fd5b5051919050565b8082028115828204841417610e1257610e126126f1565b6000826127e357634e487b7160e01b600052601260045260246000fd5b500490565b604051610100810167ffffffffffffffff8111828210171561280c5761280c6126db565b60405290565b604051601f8201601f1916810167ffffffffffffffff8111828210171561283b5761283b6126db565b604052919050565b600067ffffffffffffffff82111561285d5761285d6126db565b5060051b60200190565b600082601f83011261287857600080fd5b8135602061288d61288883612843565b612812565b82815260059290921b840181019181810190868411156128ac57600080fd5b8286015b848110156128ce576128c1816121b6565b83529183019183016128b0565b509695505050505050565b600082601f8301126128ea57600080fd5b813567ffffffffffffffff811115612904576129046126db565b612917601f8201601f1916602001612812565b81815284602083860101111561292c57600080fd5b816020850160208301376000918101602001919091529392505050565b600082601f83011261295a57600080fd5b8135602061296a61288883612843565b82815260059290921b8401810191818101908684111561298957600080fd5b8286015b848110156128ce57803567ffffffffffffffff8111156129ad5760008081fd5b6129bb8986838b01016128d9565b84525091830191830161298d565b600061010082360312156129dc57600080fd5b6129e46127e8565b8235815260208301356020820152604083013567ffffffffffffffff80821115612a0d57600080fd5b612a1936838701612867565b60408401526060850135915080821115612a3257600080fd5b612a3e368387016128d9565b60608401526080850135915080821115612a5757600080fd5b612a63368387016128d9565b608084015260a0850135915080821115612a7c57600080fd5b612a88368387016128d9565b60a084015260c0850135915080821115612aa157600080fd5b612aad36838701612949565b60c084015260e0850135915080821115612ac657600080fd5b50612ad336828601612949565b60e08301525092915050565b601f821115612b2957600081815260208120601f850160051c81016020861015612b065750805b601f850160051c820191505b81811015612b2557828155600101612b12565b5050505b505050565b815167ffffffffffffffff811115612b4857612b486126db565b612b5c81612b568454612743565b84612adf565b602080601f831160018114612b915760008415612b795750858301515b600019600386901b1c1916600185901b178555612b25565b600085815260208120601f198616915b82811015612bc057888601518255948401946001909101908401612ba1565b5085821015612bde5787850151600019600388901b60f8161c191681555b5050505050600190811b01905550565b828152604060208201526000610d9660408301846122fb56fea26469706673582212205c7fcdd018cc10e0acbdfeb22365b4572fb2e47969e165fdd0baac0f3bec597a64736f6c63430008130033","linkReferences":{}},"methodIdentifiers":{"SUBMIT_MIN_PER_THOUSAND()":"d6d15727","actionIdsByAuthor(address,address)":"195bf027","actionInfo(address,uint256)":"a3770fcb","actionInfosByIds(address,uint256[])":"303f8611","actionInfosByPage(address,uint256,uint256,bool)":"1212df6f","actionNum(address)":"a94e9667","actionSubmits(address,uint256)":"879e49c9","canSubmit(address,address)":"27347970","currentRound()":"8a19c8bc","initialize(address,uint256)":"cd6dc687","initialized()":"158ef93e","isInWhiteList(address,uint256,address)":"3bf16980","isSubmitted(address,uint256,uint256)":"2bed3c29","originBlocks()":"b2ad3730","phaseBlocks()":"60a918b7","roundByBlockNumber(uint256)":"3bdf9f13","stakeAddress()":"85107367","submit(address,uint256)":"203dd666","submitNewAction(address,(uint256,uint256,address[],string,string,string,string[],string[]))":"b63931b2"},"id":44}