{"abi":[{"type":"constructor","inputs":[{"name":"originBlocks","type":"uint256","internalType":"uint256"},{"name":"phaseBlocks","type":"uint256","internalType":"uint256"}],"stateMutability":"nonpayable"},{"type":"function","name":"MAX_GOV_BOOST_REWARD_MULTIPLIER","inputs":[],"outputs":[{"name":"","type":"uint256","internalType":"uint256"}],"stateMutability":"view"},{"type":"function","name":"ROUND_REWARD_ACTION_PER_THOUSAND","inputs":[],"outputs":[{"name":"","type":"uint256","internalType":"uint256"}],"stateMutability":"view"},{"type":"function","name":"ROUND_REWARD_GOV_PER_THOUSAND","inputs":[],"outputs":[{"name":"","type":"uint256","internalType":"uint256"}],"stateMutability":"view"},{"type":"function","name":"actionReward","inputs":[{"name":"tokenAddress","type":"address","internalType":"address"},{"name":"round","type":"uint256","internalType":"uint256"}],"outputs":[{"name":"","type":"uint256","internalType":"uint256"}],"stateMutability":"view"},{"type":"function","name":"actionRewardByActionIdByAccount","inputs":[{"name":"tokenAddress","type":"address","internalType":"address"},{"name":"round","type":"uint256","internalType":"uint256"},{"name":"actionId","type":"uint256","internalType":"uint256"},{"name":"accountAddress","type":"address","internalType":"address"}],"outputs":[{"name":"","type":"uint256","internalType":"uint256"}],"stateMutability":"view"},{"type":"function","name":"actionRewardMintedByAccount","inputs":[{"name":"","type":"address","internalType":"address"},{"name":"","type":"uint256","internalType":"uint256"},{"name":"","type":"uint256","internalType":"uint256"},{"name":"","type":"address","internalType":"address"}],"outputs":[{"name":"","type":"uint256","internalType":"uint256"}],"stateMutability":"view"},{"type":"function","name":"calculateRoundActionReward","inputs":[{"name":"tokenAddress","type":"address","internalType":"address"}],"outputs":[{"name":"","type":"uint256","internalType":"uint256"}],"stateMutability":"view"},{"type":"function","name":"calculateRoundGovReward","inputs":[{"name":"tokenAddress","type":"address","internalType":"address"}],"outputs":[{"name":"","type":"uint256","internalType":"uint256"}],"stateMutability":"view"},{"type":"function","name":"currentRound","inputs":[],"outputs":[{"name":"","type":"uint256","internalType":"uint256"}],"stateMutability":"view"},{"type":"function","name":"govBoostReward","inputs":[{"name":"tokenAddress","type":"address","internalType":"address"},{"name":"round","type":"uint256","internalType":"uint256"}],"outputs":[{"name":"","type":"uint256","internalType":"uint256"}],"stateMutability":"view"},{"type":"function","name":"govReward","inputs":[{"name":"tokenAddress","type":"address","internalType":"address"},{"name":"round","type":"uint256","internalType":"uint256"}],"outputs":[{"name":"","type":"uint256","internalType":"uint256"}],"stateMutability":"view"},{"type":"function","name":"govRewardByAccount","inputs":[{"name":"tokenAddress","type":"address","internalType":"address"},{"name":"round","type":"uint256","internalType":"uint256"},{"name":"accountAddress","type":"address","internalType":"address"}],"outputs":[{"name":"verifyReward","type":"uint256","internalType":"uint256"},{"name":"boostReward","type":"uint256","internalType":"uint256"},{"name":"burnReward","type":"uint256","internalType":"uint256"}],"stateMutability":"view"},{"type":"function","name":"govRewardMintedByAccount","inputs":[{"name":"","type":"address","internalType":"address"},{"name":"","type":"uint256","internalType":"uint256"},{"name":"","type":"address","internalType":"address"}],"outputs":[{"name":"","type":"uint256","internalType":"uint256"}],"stateMutability":"view"},{"type":"function","name":"govVerifyReward","inputs":[{"name":"tokenAddress","type":"address","internalType":"address"},{"name":"round","type":"uint256","internalType":"uint256"}],"outputs":[{"name":"","type":"uint256","internalType":"uint256"}],"stateMutability":"view"},{"type":"function","name":"initialize","inputs":[{"name":"verifyAddress_","type":"address","internalType":"address"},{"name":"stakeAddress_","type":"address","internalType":"address"},{"name":"roundRewardGovPerThousand","type":"uint256","internalType":"uint256"},{"name":"roundRewardActionPerThousand","type":"uint256","internalType":"uint256"},{"name":"maxGovBoostRewardMultiplier","type":"uint256","internalType":"uint256"}],"outputs":[],"stateMutability":"nonpayable"},{"type":"function","name":"initialized","inputs":[],"outputs":[{"name":"","type":"bool","internalType":"bool"}],"stateMutability":"view"},{"type":"function","name":"isRewardPrepared","inputs":[{"name":"tokenAddress","type":"address","internalType":"address"},{"name":"round","type":"uint256","internalType":"uint256"}],"outputs":[{"name":"","type":"bool","internalType":"bool"}],"stateMutability":"view"},{"type":"function","name":"mintActionReward","inputs":[{"name":"tokenAddress","type":"address","internalType":"address"},{"name":"round","type":"uint256","internalType":"uint256"},{"name":"actionId","type":"uint256","internalType":"uint256"}],"outputs":[{"name":"","type":"uint256","internalType":"uint256"}],"stateMutability":"nonpayable"},{"type":"function","name":"mintGovReward","inputs":[{"name":"tokenAddress","type":"address","internalType":"address"},{"name":"round","type":"uint256","internalType":"uint256"}],"outputs":[{"name":"verifyReward","type":"uint256","internalType":"uint256"},{"name":"boostReward","type":"uint256","internalType":"uint256"},{"name":"burnReward","type":"uint256","internalType":"uint256"}],"stateMutability":"nonpayable"},{"type":"function","name":"originBlocks","inputs":[],"outputs":[{"name":"","type":"uint256","internalType":"uint256"}],"stateMutability":"view"},{"type":"function","name":"phaseBlocks","inputs":[],"outputs":[{"name":"","type":"uint256","internalType":"uint256"}],"stateMutability":"view"},{"type":"function","name":"prepareRewardIfNeeded","inputs":[{"name":"tokenAddress","type":"address","internalType":"address"}],"outputs":[],"stateMutability":"nonpayable"},{"type":"function","name":"reservedAvailable","inputs":[{"name":"tokenAddress","type":"address","internalType":"address"}],"outputs":[{"name":"","type":"uint256","internalType":"uint256"}],"stateMutability":"view"},{"type":"function","name":"rewardAvailable","inputs":[{"name":"tokenAddress","type":"address","internalType":"address"}],"outputs":[{"name":"","type":"uint256","internalType":"uint256"}],"stateMutability":"view"},{"type":"function","name":"rewardBurned","inputs":[{"name":"","type":"address","internalType":"address"}],"outputs":[{"name":"","type":"uint256","internalType":"uint256"}],"stateMutability":"view"},{"type":"function","name":"rewardMinted","inputs":[{"name":"","type":"address","internalType":"address"}],"outputs":[{"name":"","type":"uint256","internalType":"uint256"}],"stateMutability":"view"},{"type":"function","name":"rewardReserved","inputs":[{"name":"","type":"address","internalType":"address"}],"outputs":[{"name":"","type":"uint256","internalType":"uint256"}],"stateMutability":"view"},{"type":"function","name":"roundByBlockNumber","inputs":[{"name":"blockNumber","type":"uint256","internalType":"uint256"}],"outputs":[{"name":"","type":"uint256","internalType":"uint256"}],"stateMutability":"view"},{"type":"function","name":"stakeAddress","inputs":[],"outputs":[{"name":"","type":"address","internalType":"address"}],"stateMutability":"view"},{"type":"function","name":"verifyAddress","inputs":[],"outputs":[{"name":"","type":"address","internalType":"address"}],"stateMutability":"view"},{"type":"event","name":"BurnAbstentionActionReward","inputs":[{"name":"tokenAddress","type":"address","indexed":true,"internalType":"address"},{"name":"round","type":"uint256","indexed":true,"internalType":"uint256"},{"name":"burnReward","type":"uint256","indexed":false,"internalType":"uint256"}],"anonymous":false},{"type":"event","name":"BurnBoostReward","inputs":[{"name":"tokenAddress","type":"address","indexed":true,"internalType":"address"},{"name":"round","type":"uint256","indexed":true,"internalType":"uint256"},{"name":"burnReward","type":"uint256","indexed":false,"internalType":"uint256"}],"anonymous":false},{"type":"event","name":"MintActionReward","inputs":[{"name":"tokenAddress","type":"address","indexed":true,"internalType":"address"},{"name":"round","type":"uint256","indexed":true,"internalType":"uint256"},{"name":"actionId","type":"uint256","indexed":true,"internalType":"uint256"},{"name":"account","type":"address","indexed":false,"internalType":"address"},{"name":"reward","type":"uint256","indexed":false,"internalType":"uint256"}],"anonymous":false},{"type":"event","name":"MintGovReward","inputs":[{"name":"tokenAddress","type":"address","indexed":true,"internalType":"address"},{"name":"round","type":"uint256","indexed":true,"internalType":"uint256"},{"name":"account","type":"address","indexed":true,"internalType":"address"},{"name":"verifyReward","type":"uint256","indexed":false,"internalType":"uint256"},{"name":"boostReward","type":"uint256","indexed":false,"internalType":"uint256"},{"name":"burnReward","type":"uint256","indexed":false,"internalType":"uint256"}],"anonymous":false},{"type":"event","name":"PrepareReward","inputs":[{"name":"tokenAddress","type":"address","indexed":true,"internalType":"address"},{"name":"round","type":"uint256","indexed":true,"internalType":"uint256"},{"name":"govRewardAmount","type":"uint256","indexed":false,"internalType":"uint256"},{"name":"actionRewardAmount","type":"uint256","indexed":false,"internalType":"uint256"}],"anonymous":false},{"type":"error","name":"AlreadyInitialized","inputs":[]},{"type":"error","name":"NoRewardAvailable","inputs":[]},{"type":"error","name":"NotEnoughReward","inputs":[]},{"type":"error","name":"NotEnoughRewardToBurn","inputs":[]},{"type":"error","name":"RoundNotStarted","inputs":[]},{"type":"error","name":"RoundStartMustBeLessOrEqualToRoundEnd","inputs":[]}],"bytecode":{"object":"0x60c060405234801561001057600080fd5b506040516118f33803806118f383398101604081905261002f9161003d565b60809190915260a052610061565b6000806040838503121561005057600080fd5b505080516020909101519092909150565b60805160a05161185861009b600039600081816102cd01526105b10152600081816104560152818161053f015261058501526118586000f3fe608060405234801561001057600080fd5b50600436106101da5760003560e01c8063823ed39d11610104578063af8e6cbb116100a2578063c7ef656011610071578063c7ef6560146104a6578063ce5a66bb146104b9578063d13f90b4146104cc578063e26f8c17146104df57600080fd5b8063af8e6cbb1461043f578063b239872014610448578063b2ad373014610451578063b717e0401461047857600080fd5b80638ad778af116100de5780638ad778af146103cd5780638ce4c79214610403578063a3eb87e81461040c578063aaea85331461042c57600080fd5b8063823ed39d1461039f57806385107367146103b25780638a19c8bc146103c557600080fd5b80635943f2ca1161017c57806369808e1b1161014b57806369808e1b1461031f5780636d597ba31461033457806373c3041c1461035457806381a2596f1461036757600080fd5b80635943f2ca146102b55780635ae37b8e146102a257806360a918b7146102c857806365925b90146102ef57600080fd5b80633b2b378d116101b85780633b2b378d1461025c5780633bdf9f131461027c5780634779b1351461028f5780634c51ea59146102a257600080fd5b80630beaac04146101df578063158ef93e1461022c5780632efa037514610249575b600080fd5b6102196101ed366004611612565b600860209081526000948552604080862082529385528385208152918452828420909152825290205481565b6040519081526020015b60405180910390f35b6009546102399060ff1681565b6040519015158152602001610223565b610219610257366004611658565b610510565b61021961026a366004611658565b60026020526000908152604090205481565b61021961028a366004611673565b61053b565b61021961029d366004611658565b6105dd565b6102196102b036600461168c565b6105ee565b6102196102c3366004611658565b61061e565b6102197f000000000000000000000000000000000000000000000000000000000000000081565b6009546103079061010090046001600160a01b031681565b6040516001600160a01b039091168152602001610223565b61033261032d366004611658565b61065f565b005b610219610342366004611658565b60016020526000908152604090205481565b61021961036236600461168c565b6107f1565b61023961037536600461168c565b6001600160a01b039190911660009081526003602090815260408083209383529290522054151590565b6102196103ad3660046116b6565b610819565b600a54610307906001600160a01b031681565b6102196108e6565b6102196103db36600461168c565b6001600160a01b03919091166000908152600360209081526040808320938352929052205490565b610219600c5481565b61021961041a366004611658565b60006020819052908152604090205481565b61021961043a366004611658565b6108f6565b610219600b5481565b610219600d5481565b6102197f000000000000000000000000000000000000000000000000000000000000000081565b61048b6104863660046116e9565b6109da565b60408051938452602084019290925290820152606001610223565b6102196104b4366004611612565b610cfb565b61048b6104c736600461168c565b610f2a565b6103326104da366004611725565b611028565b6102196104ed3660046116e9565b600560209081526000938452604080852082529284528284209052825290205481565b60006103e8600c54610521846108f6565b61052b9190611788565b610535919061179f565b92915050565b60007f000000000000000000000000000000000000000000000000000000000000000082101561057e576040516323a71b8760e21b815260040160405180910390fd5b60006105aa7f0000000000000000000000000000000000000000000000000000000000000000846117c1565b90506105d67f00000000000000000000000000000000000000000000000000000000000000008261179f565b9392505050565b60006103e8600b54610521846108f6565b6001600160a01b03821660009081526003602090815260408083208484529091528120546105d69060029061179f565b6001600160a01b038116600090815260026020908152604080832054600183528184205492849052908320549091610655916117c1565b61053591906117c1565b6000600960019054906101000a90046001600160a01b03166001600160a01b0316638a19c8bc6040518163ffffffff1660e01b8152600401602060405180830381865afa1580156106b4573d6000803e3d6000fd5b505050506040513d601f19601f820116820180604052508101906106d891906117d4565b6001600160a01b038316600090815260036020908152604080832084845290915290205490915015610708575050565b6000610713836105dd565b6001600160a01b0384166000908152600360209081526040808320868452909152812082905590915061074584610510565b6001600160a01b03851660009081526006602090815260408083208784529091529020819055905061077781836117ed565b6001600160a01b0385166000908152602081905260408120805490919061079f9084906117ed565b9091555050604080518381526020810183905284916001600160a01b038716917f927c129ccca74ea3ce1fe2e23c516905cefd743b3720a39cece9b85d7af2c79291015b60405180910390a350505050565b6001600160a01b03919091166000908152600660209081526040808320938352929052205490565b60006108258484611097565b600061083385858533610cfb565b90508060000361085657604051636d363c4560e01b815260040160405180910390fd5b6001600160a01b038516600090815260086020908152604080832087845282528083208684528252808320338452909152902081905561089685826112f1565b6040805133815260208101839052849186916001600160a01b038916917f120fa5956f98e84e02afa17d313655f548292531d6bb26b5efcd9ca5997003bf910160405180910390a4949350505050565b60006108f14361053b565b905090565b6000816109028161061e565b816001600160a01b03166318160ddd6040518163ffffffff1660e01b8152600401602060405180830381865afa158015610940573d6000803e3d6000fd5b505050506040513d601f19601f8201168201806040525081019061096491906117d4565b826001600160a01b031663d5abeb016040518163ffffffff1660e01b8152600401602060405180830381865afa1580156109a2573d6000803e3d6000fd5b505050506040513d601f19601f820116820180604052508101906109c691906117d4565b6109d091906117c1565b6105d691906117c1565b6000806000806109ea87876105ee565b905060006109f888886105ee565b905081158015610a06575080155b15610a1d5760008060009450945094505050610cf2565b6001600160a01b0380891660009081526005602090815260408083208b84528252808320938a16835292905220548015610a64576000806000955095509550505050610cf2565b600954604051630965aa9d60e41b81526001600160a01b038b81166004830152602482018b905289811660448301526000926101009004169063965aa9d090606401602060405180830381865afa158015610ac3573d6000803e3d6000fd5b505050506040513d601f19601f82011682018060405250810190610ae791906117d4565b905080600003610b0557600080600096509650965050505050610cf2565b600954604051633a00f6dd60e11b81526001600160a01b038c81166004830152602482018c905260009261010090041690637401edba90604401602060405180830381865afa158015610b5c573d6000803e3d6000fd5b505050506040513d601f19601f82011682018060405250810190610b8091906117d4565b905080610b8d8387611788565b610b97919061179f565b600a54604051634df2458360e11b81526001600160a01b038e81166004830152602482018e9052929a5060009290911690639be48b0690604401602060405180830381865afa158015610bee573d6000803e3d6000fd5b505050506040513d601f19601f82011682018060405250810190610c1291906117d4565b90508015610ceb57600a546040516322fc7fb360e21b81526001600160a01b038e81166004830152602482018e90528c811660448301526000921690638bf1fecc90606401602060405180830381865afa158015610c74573d6000803e3d6000fd5b505050506040513d601f19601f82011682018060405250810190610c9891906117d4565b9050600082610ca78389611788565b610cb1919061179f565b9050600d548b610cc19190611788565b8111610ccd5780610cda565b600d54610cda908c611788565b9950610ce68a826117c1565b985050505b5050505050505b93509350939050565b600080610d0886866107f1565b905080600003610d1c576000915050610f22565b60095460405163109c5e0d60e31b81526001600160a01b03888116600483015260248201889052604482018790526101009092049091169081906384e2f06890606401602060405180830381865afa158015610d7c573d6000803e3d6000fd5b505050506040513d601f19601f82011682018060405250810190610da09190611800565b610daf57600092505050610f22565b6001600160a01b0380881660009081526008602090815260408083208a8452825280832089845282528083209388168352929052205415610df557600092505050610f22565b60405163c0df7d5960e01b81526001600160a01b038881166004830152602482018890526044820187905285811660648301526000919083169063c0df7d5990608401602060405180830381865afa158015610e55573d6000803e3d6000fd5b505050506040513d601f19601f82011682018060405250810190610e7991906117d4565b905080600003610e8f5760009350505050610f22565b6040516364a8557360e01b81526001600160a01b03898116600483015260248201899052600091908416906364a8557390604401602060405180830381865afa158015610ee0573d6000803e3d6000fd5b505050506040513d601f19601f82011682018060405250810190610f0491906117d4565b905080610f118386611788565b610f1b919061179f565b9450505050505b949350505050565b6000806000610f3985856113ae565b610f448585336109da565b9194509250905080610f5683856117ed565b610f6091906117ed565b600003610f8057604051636d363c4560e01b815260040160405180910390fd5b6000610f8c83856117ed565b6001600160a01b0387166000908152600560209081526040808320898452825280832033845290915290208190559050610fc686826112f1565b610fd0868361159c565b6040805185815260208101859052908101839052339086906001600160a01b038916907fe1f6d49001858e00e07a7b319093ad95741f7db8b714ffdc8be5ceed8d02d07e9060600160405180910390a4509250925092565b60095460ff161561104b5760405162dc149f60e41b815260040160405180910390fd5b6009805460016001600160a81b03199091166101006001600160a01b039889160217179055600a80546001600160a01b0319169490951693909317909355600b55600c91909155600d55565b806110a06108e6565b10156110aa575050565b6001600160a01b038216600090815260076020908152604080832084845290915290205460ff16156110da575050565b60006110e683836107f1565b9050806000036110f557505050565b60095460405163c8829af960e01b81526001600160a01b038581166004830152602482018590526000926101009004169063c8829af990604401602060405180830381865afa15801561114c573d6000803e3d6000fd5b505050506040513d601f19601f8201168201806040525081019061117091906117d4565b9050806000036111ac5750506001600160a01b03909116600090815260076020908152604080832093835292905220805460ff19166001179055565b6009546040516364a8557360e01b81526001600160a01b03868116600483015260248201869052600092610100900416906364a8557390604401602060405180830381865afa158015611203573d6000803e3d6000fd5b505050506040513d601f19601f8201168201806040525081019061122791906117d4565b905080600003611264575050506001600160a01b03909116600090815260076020908152604080832093835292905220805460ff19166001179055565b6000816112718486611788565b61127b919061179f565b9050611287868261159c565b6001600160a01b0386166000818152600760209081526040808320898452825291829020805460ff1916600117905590518381528792917f5993216729e305dd35a2dd31196890fe1d1083fd265180e848a71191ffe0781e910160405180910390a3505050505050565b806112fb8361061e565b101561131a5760405163193a582f60e31b815260040160405180910390fd5b6001600160a01b038216600090815260016020526040812080548392906113429084906117ed565b90915550506040516340c10f1960e01b81523360048201526024810182905282906001600160a01b038216906340c10f1990604401600060405180830381600087803b15801561139157600080fd5b505af11580156113a5573d6000803e3d6000fd5b50505050505050565b6001600160a01b038216600090815260046020908152604080832084845290915290205460ff16156113de575050565b6001600160a01b038281166000818152600460208181526040808420878552909152808320805460ff19166001179055600a549051634df2458360e11b81529182019390935260248101859052909283921690639be48b0690604401602060405180830381865afa158015611457573d6000803e3d6000fd5b505050506040513d601f19601f8201168201806040525081019061147b91906117d4565b9050806000036114965761148f84846105ee565b915061154a565b60095460405163099195db60e11b81526001600160a01b03868116600483015260248201869052600092610100900416906313232bb690604401602060405180830381865afa1580156114ed573d6000803e3d6000fd5b505050506040513d601f19601f8201168201806040525081019061151191906117d4565b9050600061151f82846117c1565b9050600061152d87876105ee565b90508361153a8383611788565b611544919061179f565b94505050505b81156115965761155a848361159c565b82846001600160a01b03167fa515936692cbf03079e834f2d21c7f754d9fb58493fd39721bcdcb945851b5f7846040516107e391815260200190565b50505050565b806115a68361061e565b10156115c55760405163ce0a57ff60e01b815260040160405180910390fd5b6001600160a01b038216600090815260026020526040812080548392906115ed9084906117ed565b90915550505050565b80356001600160a01b038116811461160d57600080fd5b919050565b6000806000806080858703121561162857600080fd5b611631856115f6565b9350602085013592506040850135915061164d606086016115f6565b905092959194509250565b60006020828403121561166a57600080fd5b6105d6826115f6565b60006020828403121561168557600080fd5b5035919050565b6000806040838503121561169f57600080fd5b6116a8836115f6565b946020939093013593505050565b6000806000606084860312156116cb57600080fd5b6116d4846115f6565b95602085013595506040909401359392505050565b6000806000606084860312156116fe57600080fd5b611707846115f6565b92506020840135915061171c604085016115f6565b90509250925092565b600080600080600060a0868803121561173d57600080fd5b611746866115f6565b9450611754602087016115f6565b94979496505050506040830135926060810135926080909101359150565b634e487b7160e01b600052601160045260246000fd5b808202811582820484141761053557610535611772565b6000826117bc57634e487b7160e01b600052601260045260246000fd5b500490565b8181038181111561053557610535611772565b6000602082840312156117e657600080fd5b5051919050565b8082018082111561053557610535611772565b60006020828403121561181257600080fd5b815180151581146105d657600080fdfea264697066735822122065688d554a96695300ad0486e9aedc69bc0c191673021121e5ab8f8abfb2892264736f6c63430008130033","linkReferences":{}},"methodIdentifiers":{"MAX_GOV_BOOST_REWARD_MULTIPLIER()":"b2398720","ROUND_REWARD_ACTION_PER_THOUSAND()":"8ce4c792","ROUND_REWARD_GOV_PER_THOUSAND()":"af8e6cbb","actionReward(address,uint256)":"73c3041c","actionRewardByActionIdByAccount(address,uint256,uint256,address)":"c7ef6560","actionRewardMintedByAccount(address,uint256,uint256,address)":"0beaac04","calculateRoundActionReward(address)":"2efa0375","calculateRoundGovReward(address)":"4779b135","currentRound()":"8a19c8bc","govBoostReward(address,uint256)":"5ae37b8e","govReward(address,uint256)":"8ad778af","govRewardByAccount(address,uint256,address)":"b717e040","govRewardMintedByAccount(address,uint256,address)":"e26f8c17","govVerifyReward(address,uint256)":"4c51ea59","initialize(address,address,uint256,uint256,uint256)":"d13f90b4","initialized()":"158ef93e","isRewardPrepared(address,uint256)":"81a2596f","mintActionReward(address,uint256,uint256)":"823ed39d","mintGovReward(address,uint256)":"ce5a66bb","originBlocks()":"b2ad3730","phaseBlocks()":"60a918b7","prepareRewardIfNeeded(address)":"69808e1b","reservedAvailable(address)":"5943f2ca","rewardAvailable(address)":"aaea8533","rewardBurned(address)":"3b2b378d","rewardMinted(address)":"6d597ba3","rewardReserved(address)":"a3eb87e8","roundByBlockNumber(uint256)":"3bdf9f13","stakeAddress()":"85107367","verifyAddress()":"65925b90"},"id":39}