{"abi":[{"type":"constructor","inputs":[{"name":"originBlocks","type":"uint256","internalType":"uint256"},{"name":"phaseBlocks","type":"uint256","internalType":"uint256"}],"stateMutability":"nonpayable"},{"type":"function","name":"MAX_VERIFICATION_KEY_LENGTH","inputs":[],"outputs":[{"name":"","type":"uint256","internalType":"uint256"}],"stateMutability":"view"},{"type":"function","name":"SUBMIT_MIN_PER_THOUSAND","inputs":[],"outputs":[{"name":"","type":"uint256","internalType":"uint256"}],"stateMutability":"view"},{"type":"function","name":"actionInfo","inputs":[{"name":"tokenAddress","type":"address","internalType":"address"},{"name":"actionId","type":"uint256","internalType":"uint256"}],"outputs":[{"name":"","type":"tuple","internalType":"struct ActionInfo","components":[{"name":"head","type":"tuple","internalType":"struct ActionHead","components":[{"name":"id","type":"uint256","internalType":"uint256"},{"name":"author","type":"address","internalType":"address"},{"name":"createAtBlock","type":"uint256","internalType":"uint256"}]},{"name":"body","type":"tuple","internalType":"struct ActionBody","components":[{"name":"minStake","type":"uint256","internalType":"uint256"},{"name":"maxRandomAccounts","type":"uint256","internalType":"uint256"},{"name":"whiteListAddress","type":"address","internalType":"address"},{"name":"title","type":"string","internalType":"string"},{"name":"verificationRule","type":"string","internalType":"string"},{"name":"verificationKeys","type":"string[]","internalType":"string[]"},{"name":"verificationInfoGuides","type":"string[]","internalType":"string[]"}]}]}],"stateMutability":"view"},{"type":"function","name":"actionSubmitsAtIndex","inputs":[{"name":"tokenAddress","type":"address","internalType":"address"},{"name":"round","type":"uint256","internalType":"uint256"},{"name":"index","type":"uint256","internalType":"uint256"}],"outputs":[{"name":"","type":"tuple","internalType":"struct ActionSubmitInfo","components":[{"name":"submitter","type":"address","internalType":"address"},{"name":"actionId","type":"uint256","internalType":"uint256"}]}],"stateMutability":"view"},{"type":"function","name":"actionSubmitsCount","inputs":[{"name":"tokenAddress","type":"address","internalType":"address"},{"name":"round","type":"uint256","internalType":"uint256"}],"outputs":[{"name":"","type":"uint256","internalType":"uint256"}],"stateMutability":"view"},{"type":"function","name":"actionsAtIndex","inputs":[{"name":"tokenAddress","type":"address","internalType":"address"},{"name":"index","type":"uint256","internalType":"uint256"}],"outputs":[{"name":"","type":"tuple","internalType":"struct ActionInfo","components":[{"name":"head","type":"tuple","internalType":"struct ActionHead","components":[{"name":"id","type":"uint256","internalType":"uint256"},{"name":"author","type":"address","internalType":"address"},{"name":"createAtBlock","type":"uint256","internalType":"uint256"}]},{"name":"body","type":"tuple","internalType":"struct ActionBody","components":[{"name":"minStake","type":"uint256","internalType":"uint256"},{"name":"maxRandomAccounts","type":"uint256","internalType":"uint256"},{"name":"whiteListAddress","type":"address","internalType":"address"},{"name":"title","type":"string","internalType":"string"},{"name":"verificationRule","type":"string","internalType":"string"},{"name":"verificationKeys","type":"string[]","internalType":"string[]"},{"name":"verificationInfoGuides","type":"string[]","internalType":"string[]"}]}]}],"stateMutability":"view"},{"type":"function","name":"actionsCount","inputs":[{"name":"tokenAddress","type":"address","internalType":"address"}],"outputs":[{"name":"","type":"uint256","internalType":"uint256"}],"stateMutability":"view"},{"type":"function","name":"authorActionIdsAtIndex","inputs":[{"name":"tokenAddress","type":"address","internalType":"address"},{"name":"author","type":"address","internalType":"address"},{"name":"index","type":"uint256","internalType":"uint256"}],"outputs":[{"name":"","type":"uint256","internalType":"uint256"}],"stateMutability":"view"},{"type":"function","name":"authorActionIdsCount","inputs":[{"name":"tokenAddress","type":"address","internalType":"address"},{"name":"author","type":"address","internalType":"address"}],"outputs":[{"name":"","type":"uint256","internalType":"uint256"}],"stateMutability":"view"},{"type":"function","name":"canJoin","inputs":[{"name":"tokenAddress","type":"address","internalType":"address"},{"name":"actionId","type":"uint256","internalType":"uint256"},{"name":"account","type":"address","internalType":"address"}],"outputs":[{"name":"","type":"bool","internalType":"bool"}],"stateMutability":"view"},{"type":"function","name":"canSubmit","inputs":[{"name":"tokenAddress","type":"address","internalType":"address"},{"name":"account","type":"address","internalType":"address"}],"outputs":[{"name":"","type":"bool","internalType":"bool"}],"stateMutability":"view"},{"type":"function","name":"currentRound","inputs":[],"outputs":[{"name":"","type":"uint256","internalType":"uint256"}],"stateMutability":"view"},{"type":"function","name":"initialize","inputs":[{"name":"stakeAddress_","type":"address","internalType":"address"},{"name":"submitMinPerThousand","type":"uint256","internalType":"uint256"},{"name":"maxVerificationKeyLength","type":"uint256","internalType":"uint256"}],"outputs":[],"stateMutability":"nonpayable"},{"type":"function","name":"initialized","inputs":[],"outputs":[{"name":"","type":"bool","internalType":"bool"}],"stateMutability":"view"},{"type":"function","name":"isSubmitted","inputs":[{"name":"tokenAddress","type":"address","internalType":"address"},{"name":"round","type":"uint256","internalType":"uint256"},{"name":"actionId","type":"uint256","internalType":"uint256"}],"outputs":[{"name":"","type":"bool","internalType":"bool"}],"stateMutability":"view"},{"type":"function","name":"originBlocks","inputs":[],"outputs":[{"name":"","type":"uint256","internalType":"uint256"}],"stateMutability":"view"},{"type":"function","name":"phaseBlocks","inputs":[],"outputs":[{"name":"","type":"uint256","internalType":"uint256"}],"stateMutability":"view"},{"type":"function","name":"roundByBlockNumber","inputs":[{"name":"blockNumber","type":"uint256","internalType":"uint256"}],"outputs":[{"name":"","type":"uint256","internalType":"uint256"}],"stateMutability":"view"},{"type":"function","name":"stakeAddress","inputs":[],"outputs":[{"name":"","type":"address","internalType":"address"}],"stateMutability":"view"},{"type":"function","name":"submit","inputs":[{"name":"tokenAddress","type":"address","internalType":"address"},{"name":"actionId","type":"uint256","internalType":"uint256"}],"outputs":[],"stateMutability":"nonpayable"},{"type":"function","name":"submitInfo","inputs":[{"name":"tokenAddress","type":"address","internalType":"address"},{"name":"round","type":"uint256","internalType":"uint256"},{"name":"actionId","type":"uint256","internalType":"uint256"}],"outputs":[{"name":"","type":"tuple","internalType":"struct ActionSubmitInfo","components":[{"name":"submitter","type":"address","internalType":"address"},{"name":"actionId","type":"uint256","internalType":"uint256"}]}],"stateMutability":"view"},{"type":"function","name":"submitInfoBySubmitter","inputs":[{"name":"tokenAddress","type":"address","internalType":"address"},{"name":"round","type":"uint256","internalType":"uint256"},{"name":"submitter","type":"address","internalType":"address"}],"outputs":[{"name":"","type":"tuple","internalType":"struct ActionSubmitInfo","components":[{"name":"submitter","type":"address","internalType":"address"},{"name":"actionId","type":"uint256","internalType":"uint256"}]}],"stateMutability":"view"},{"type":"function","name":"submitNewAction","inputs":[{"name":"tokenAddress","type":"address","internalType":"address"},{"name":"actionBody","type":"tuple","internalType":"struct ActionBody","components":[{"name":"minStake","type":"uint256","internalType":"uint256"},{"name":"maxRandomAccounts","type":"uint256","internalType":"uint256"},{"name":"whiteListAddress","type":"address","internalType":"address"},{"name":"title","type":"string","internalType":"string"},{"name":"verificationRule","type":"string","internalType":"string"},{"name":"verificationKeys","type":"string[]","internalType":"string[]"},{"name":"verificationInfoGuides","type":"string[]","internalType":"string[]"}]}],"outputs":[{"name":"actionId","type":"uint256","internalType":"uint256"}],"stateMutability":"nonpayable"},{"type":"event","name":"ActionCreate","inputs":[{"name":"tokenAddress","type":"address","indexed":true,"internalType":"address"},{"name":"round","type":"uint256","indexed":false,"internalType":"uint256"},{"name":"author","type":"address","indexed":true,"internalType":"address"},{"name":"actionId","type":"uint256","indexed":true,"internalType":"uint256"},{"name":"actionBody","type":"tuple","indexed":false,"internalType":"struct ActionBody","components":[{"name":"minStake","type":"uint256","internalType":"uint256"},{"name":"maxRandomAccounts","type":"uint256","internalType":"uint256"},{"name":"whiteListAddress","type":"address","internalType":"address"},{"name":"title","type":"string","internalType":"string"},{"name":"verificationRule","type":"string","internalType":"string"},{"name":"verificationKeys","type":"string[]","internalType":"string[]"},{"name":"verificationInfoGuides","type":"string[]","internalType":"string[]"}]}],"anonymous":false},{"type":"event","name":"ActionSubmit","inputs":[{"name":"tokenAddress","type":"address","indexed":true,"internalType":"address"},{"name":"round","type":"uint256","indexed":false,"internalType":"uint256"},{"name":"submitter","type":"address","indexed":true,"internalType":"address"},{"name":"actionId","type":"uint256","indexed":true,"internalType":"uint256"}],"anonymous":false},{"type":"error","name":"ActionIdNotExist","inputs":[]},{"type":"error","name":"AlreadyInitialized","inputs":[]},{"type":"error","name":"AlreadySubmitted","inputs":[]},{"type":"error","name":"CannotSubmitAction","inputs":[]},{"type":"error","name":"MaxRandomAccountsZero","inputs":[]},{"type":"error","name":"MinStakeZero","inputs":[]},{"type":"error","name":"OnlyOneSubmitPerRound","inputs":[]},{"type":"error","name":"RoundNotStarted","inputs":[]},{"type":"error","name":"TitleEmpty","inputs":[]},{"type":"error","name":"VerificationKeyLengthExceeded","inputs":[]},{"type":"error","name":"VerificationRuleEmpty","inputs":[]}],"bytecode":{"object":"0x60c060405234801561001057600080fd5b50604051611db0380380611db083398101604081905261002f9161003d565b60809190915260a052610061565b6000806040838503121561005057600080fd5b505080516020909101519092909150565b60805160a051611d1561009b600039600081816102ea015261076201526000818161046a015281816106f001526107360152611d156000f3fe608060405234801561001057600080fd5b506004361061014d5760003560e01c8063678eb4ed116100c357806396061e161161007c57806396061e1614610432578063a3770fcb14610445578063b2ad373014610465578063ca52204e1461048c578063d6d157271461049f578063ea215d30146104a857600080fd5b8063678eb4ed1461030c57806374f6114a146103455780637a1ac61e1461037b578063812af51f1461038e57806385107367146103fa5780638a19c8bc1461042a57600080fd5b8063273479701161011557806327347970146102415780632bed3c29146102545780633a6cf3d6146102965780633bdf9f13146102a95780634f2de952146102bc57806360a918b7146102e557600080fd5b806301759ece14610152578063158ef93e146101e5578063203dd666146102025780632078afff1461021757806325704b8d14610238575b600080fd5b6101bc6101603660046115a2565b604080518082018252600080825260209182018190526001600160a01b03958616815260068252828120948152938152818420928452918252918290208251808401909352805490931682526001909201549181019190915290565b6040805182516001600160a01b0316815260209283015192810192909252015b60405180910390f35b6000546101f29060ff1681565b60405190151581526020016101dc565b6102156102103660046115d5565b6104bb565b005b61022a6102253660046115ff565b6104f0565b6040519081526020016101dc565b61022a60025481565b6101f261024f36600461163b565b61053d565b6101f26102623660046115a2565b6001600160a01b03928316600090815260066020908152604080832094835293815283822092825291909152205416151590565b6101bc6102a43660046115a2565b61066c565b61022a6102b736600461166e565b6106ec565b61022a6102ca366004611687565b6001600160a01b031660009081526003602052604090205490565b61022a7f000000000000000000000000000000000000000000000000000000000000000081565b61022a61031a36600461163b565b6001600160a01b03918216600090815260046020908152604080832093909416825291909152205490565b61022a6103533660046115d5565b6001600160a01b03919091166000908152600560209081526040808320938352929052205490565b6102156103893660046115a2565b61078e565b6101bc61039c3660046116a2565b604080518082018252600080825260209182018190526001600160a01b039586168152600782528281209481529381528184209285168452918252918290208251808401909352805490931682526001909201549181019190915290565b6000546104129061010090046001600160a01b031681565b6040516001600160a01b0390911681526020016101dc565b61022a6107e3565b6101f26104403660046116a2565b6107f3565b6104586104533660046115d5565b61083a565b6040516101dc9190611801565b61022a7f000000000000000000000000000000000000000000000000000000000000000081565b61022a61049a36600461184c565b610c03565b61022a60015481565b6104586104b63660046115d5565b610c4a565b6104c5823361053d565b6104e25760405163576034cf60e11b815260040160405180910390fd5b6104ec8282610fca565b5050565b6001600160a01b0380841660009081526004602090815260408083209386168352929052908120805483908110610529576105296118a1565b906000526020600020015490509392505050565b60008054604051632872798160e21b81526001600160a01b0385811660048301528481166024830152610100909204909116908290829063a1c9e60490604401602060405180830381865afa15801561059a573d6000803e3d6000fd5b505050506040513d601f19601f820116820180604052508101906105be91906118b7565b6040516315664f8d60e01b81526001600160a01b0387811660048301529192506000918416906315664f8d90602401602060405180830381865afa15801561060a573d6000803e3d6000fd5b505050506040513d601f19601f8201168201806040525081019061062e91906118b7565b9050816000036106445760009350505050610666565b60015481610654846103e86118e6565b61065e91906118fd565b101593505050505b92915050565b604080518082018252600080825260208083018290526001600160a01b0387168252600581528382208683529052919091208054839081106106b0576106b06118a1565b60009182526020918290206040805180820190915260029092020180546001600160a01b03168252600101549181019190915290509392505050565b60007f000000000000000000000000000000000000000000000000000000000000000082101561072f576040516323a71b8760e21b815260040160405180910390fd5b600061075b7f00000000000000000000000000000000000000000000000000000000000000008461191f565b90506107877f0000000000000000000000000000000000000000000000000000000000000000826118fd565b9392505050565b60005460ff16156107b15760405162dc149f60e41b815260040160405180910390fd5b600080546001600160a01b03909416610100026001600160a81b03199094169390931760019081179093559155600255565b60006107ee436106ec565b905090565b600080610800858561083a565b602001516040015190506001600160a01b03811615806108315750826001600160a01b0316816001600160a01b0316145b95945050505050565b61084261144a565b6001600160a01b038316600090815260036020526040902054821061087a576040516305e175b560e11b815260040160405180910390fd5b6001600160a01b03831660009081526003602052604090208054839081106108a4576108a46118a1565b60009182526020918290206040805160a081018252600a909302909101805483830190815260018201546001600160a01b0390811660608087019190915260028401546080870152918552835160e0810185526003840180548252600485015482890152600585015490921694810194909452600683018054959693959387019493919284019161093490611932565b80601f016020809104026020016040519081016040528092919081815260200182805461096090611932565b80156109ad5780601f10610982576101008083540402835291602001916109ad565b820191906000526020600020905b81548152906001019060200180831161099057829003601f168201915b505050505081526020016004820180546109c690611932565b80601f01602080910402602001604051908101604052809291908181526020018280546109f290611932565b8015610a3f5780601f10610a1457610100808354040283529160200191610a3f565b820191906000526020600020905b815481529060010190602001808311610a2257829003601f168201915b5050505050815260200160058201805480602002602001604051908101604052809291908181526020016000905b82821015610b19578382906000526020600020018054610a8c90611932565b80601f0160208091040260200160405190810160405280929190818152602001828054610ab890611932565b8015610b055780601f10610ada57610100808354040283529160200191610b05565b820191906000526020600020905b815481529060010190602001808311610ae857829003601f168201915b505050505081526020019060010190610a6d565b50505050815260200160068201805480602002602001604051908101604052809291908181526020016000905b82821015610bf2578382906000526020600020018054610b6590611932565b80601f0160208091040260200160405190810160405280929190818152602001828054610b9190611932565b8015610bde5780601f10610bb357610100808354040283529160200191610bde565b820191906000526020600020905b815481529060010190602001808311610bc157829003601f168201915b505050505081526020019060010190610b46565b505050915250509052509392505050565b6000610c0f833361053d565b610c2c5760405163576034cf60e11b815260040160405180910390fd5b610c3e83610c3984611aeb565b6111b0565b90506106668382610fca565b610c5261144a565b6001600160a01b0383166000908152600360205260409020805483908110610c7c57610c7c6118a1565b60009182526020918290206040805160a081018252600a909302909101805483830190815260018201546001600160a01b0390811660608087019190915260028401546080870152918552835160e08101855260038401805482526004850154828901526005850154909216948101949094526006830180549596939593870194939192840191610d0c90611932565b80601f0160208091040260200160405190810160405280929190818152602001828054610d3890611932565b8015610d855780601f10610d5a57610100808354040283529160200191610d85565b820191906000526020600020905b815481529060010190602001808311610d6857829003601f168201915b50505050508152602001600482018054610d9e90611932565b80601f0160208091040260200160405190810160405280929190818152602001828054610dca90611932565b8015610e175780601f10610dec57610100808354040283529160200191610e17565b820191906000526020600020905b815481529060010190602001808311610dfa57829003601f168201915b5050505050815260200160058201805480602002602001604051908101604052809291908181526020016000905b82821015610ef1578382906000526020600020018054610e6490611932565b80601f0160208091040260200160405190810160405280929190818152602001828054610e9090611932565b8015610edd5780601f10610eb257610100808354040283529160200191610edd565b820191906000526020600020905b815481529060010190602001808311610ec057829003601f168201915b505050505081526020019060010190610e45565b50505050815260200160068201805480602002602001604051908101604052809291908181526020016000905b82821015610bf2578382906000526020600020018054610f3d90611932565b80601f0160208091040260200160405190810160405280929190818152602001828054610f6990611932565b8015610fb65780601f10610f8b57610100808354040283529160200191610fb6565b820191906000526020600020905b815481529060010190602001808311610f9957829003601f168201915b505050505081526020019060010190610f1e565b6001600160a01b0382166000908152600360205260409020548110611002576040516305e175b560e11b815260040160405180910390fd5b600061100c6107e3565b6001600160a01b0380851660009081526006602090815260408083208584528252808320878452909152902054919250161561105b57604051639fbfc58960e01b815260040160405180910390fd5b6001600160a01b038381166000908152600760209081526040808320858452825280832033845290915290205416156110a757604051639fb13b8760e01b815260040160405180910390fd5b6040805180820182523380825260208083018681526001600160a01b038881166000818152600585528781208982528552878120805460018181018355918352868320895160029092020180549186166001600160a01b0319928316178155865190830155838352600687528983208b845287528983208c8452875289832089518154908716908316178155865190830155838352600787528983208b84528752898320888452909652908890208751815494169390951692909217845591519201919091559251919285927f2ff46b28cd16740b4bb431c556195ba7ee859036ed04f912596d87a5b183ef01906111a29087815260200190565b60405180910390a450505050565b805160009081036111d45760405163077294b960e01b815260040160405180910390fd5b81602001516000036111f9576040516311dabe8960e31b815260040160405180910390fd5b81606001515160000361121f57604051635d0ff12d60e01b815260040160405180910390fd5b8160800151516000036112455760405163079a14e360e01b815260040160405180910390fd5b60005b8260a00151518110156112a8576002548360a00151828151811061126e5761126e6118a1565b6020026020010151511115611296576040516304f706af60e41b815260040160405180910390fd5b806112a081611bc7565b915050611248565b50506001600160a01b038083166000908152600360208181526040808420805482516060808201855282825233828701524382860152868652845180860186528281528087018b815260018086018755958a529887902081518051600a8702909201918255808901519682018054978d166001600160a01b0319988916179055870151600282015598518051988a019889559687015160048a01559486015160058901805491909a169416939093179097559083015190959491939192919060068401906113769082611c2f565b506080820151600482019061138b9082611c2f565b5060a082015180516113a79160058401916020909101906114c1565b5060c082015180516113c39160068401916020909101906114c1565b5050506001600160a01b0386166000818152600460209081526040808320338085529083529083208054600181018255908452919092200186905585935091507fe58af79771f318ffdc75ec4a5da2cafadf4630c03cc625a0df080e53dd1e457761142c6107e3565b8760405161143b929190611cef565b60405180910390a45092915050565b6040805160a081018252600091810182815260608201839052608082019290925290819081526020016114bc6040518060e00160405280600081526020016000815260200160006001600160a01b03168152602001606081526020016060815260200160608152602001606081525090565b905290565b828054828255906000526020600020908101928215611507579160200282015b8281111561150757825182906114f79082611c2f565b50916020019190600101906114e1565b50611513929150611517565b5090565b8082111561151357600061152b8282611534565b50600101611517565b50805461154090611932565b6000825580601f10611550575050565b601f01602090049060005260206000209081019061156e9190611571565b50565b5b808211156115135760008155600101611572565b80356001600160a01b038116811461159d57600080fd5b919050565b6000806000606084860312156115b757600080fd5b6115c084611586565b95602085013595506040909401359392505050565b600080604083850312156115e857600080fd5b6115f183611586565b946020939093013593505050565b60008060006060848603121561161457600080fd5b61161d84611586565b925061162b60208501611586565b9150604084013590509250925092565b6000806040838503121561164e57600080fd5b61165783611586565b915061166560208401611586565b90509250929050565b60006020828403121561168057600080fd5b5035919050565b60006020828403121561169957600080fd5b61078782611586565b6000806000606084860312156116b757600080fd5b6116c084611586565b9250602084013591506116d560408501611586565b90509250925092565b6000815180845260005b81811015611704576020818501810151868301820152016116e8565b506000602082860101526020601f19601f83011685010191505092915050565b600081518084526020808501808196508360051b8101915082860160005b8581101561176c57828403895261175a8483516116de565b98850198935090840190600101611742565b5091979650505050505050565b805182526020810151602083015260018060a01b0360408201511660408301526000606082015160e060608501526117b460e08501826116de565b9050608083015184820360808601526117cd82826116de565b91505060a083015184820360a08601526117e78282611724565b91505060c083015184820360c08601526108318282611724565b60208082528251805183830152808201516001600160a01b03166040808501919091520151606083015282015160808083015260009061184460a0840182611779565b949350505050565b6000806040838503121561185f57600080fd5b61186883611586565b9150602083013567ffffffffffffffff81111561188457600080fd5b830160e0818603121561189657600080fd5b809150509250929050565b634e487b7160e01b600052603260045260246000fd5b6000602082840312156118c957600080fd5b5051919050565b634e487b7160e01b600052601160045260246000fd5b8082028115828204841417610666576106666118d0565b60008261191a57634e487b7160e01b600052601260045260246000fd5b500490565b81810381811115610666576106666118d0565b600181811c9082168061194657607f821691505b60208210810361196657634e487b7160e01b600052602260045260246000fd5b50919050565b634e487b7160e01b600052604160045260246000fd5b60405160e0810167ffffffffffffffff811182821017156119a5576119a561196c565b60405290565b604051601f8201601f1916810167ffffffffffffffff811182821017156119d4576119d461196c565b604052919050565b600082601f8301126119ed57600080fd5b813567ffffffffffffffff811115611a0757611a0761196c565b611a1a601f8201601f19166020016119ab565b818152846020838601011115611a2f57600080fd5b816020850160208301376000918101602001919091529392505050565b600082601f830112611a5d57600080fd5b8135602067ffffffffffffffff80831115611a7a57611a7a61196c565b8260051b611a898382016119ab565b9384528581018301938381019088861115611aa357600080fd5b84880192505b85831015611adf57823584811115611ac15760008081fd5b611acf8a87838c01016119dc565b8352509184019190840190611aa9565b98975050505050505050565b600060e08236031215611afd57600080fd5b611b05611982565b8235815260208301356020820152611b1f60408401611586565b6040820152606083013567ffffffffffffffff80821115611b3f57600080fd5b611b4b368387016119dc565b60608401526080850135915080821115611b6457600080fd5b611b70368387016119dc565b608084015260a0850135915080821115611b8957600080fd5b611b9536838701611a4c565b60a084015260c0850135915080821115611bae57600080fd5b50611bbb36828601611a4c565b60c08301525092915050565b600060018201611bd957611bd96118d0565b5060010190565b601f821115611c2a57600081815260208120601f850160051c81016020861015611c075750805b601f850160051c820191505b81811015611c2657828155600101611c13565b5050505b505050565b815167ffffffffffffffff811115611c4957611c4961196c565b611c5d81611c578454611932565b84611be0565b602080601f831160018114611c925760008415611c7a5750858301515b600019600386901b1c1916600185901b178555611c26565b600085815260208120601f198616915b82811015611cc157888601518255948401946001909101908401611ca2565b5085821015611cdf5787850151600019600388901b60f8161c191681555b5050505050600190811b01905550565b828152604060208201526000611844604083018461177956fea164736f6c6343000811000a","linkReferences":{}},"methodIdentifiers":{"MAX_VERIFICATION_KEY_LENGTH()":"25704b8d","SUBMIT_MIN_PER_THOUSAND()":"d6d15727","actionInfo(address,uint256)":"a3770fcb","actionSubmitsAtIndex(address,uint256,uint256)":"3a6cf3d6","actionSubmitsCount(address,uint256)":"74f6114a","actionsAtIndex(address,uint256)":"ea215d30","actionsCount(address)":"4f2de952","authorActionIdsAtIndex(address,address,uint256)":"2078afff","authorActionIdsCount(address,address)":"678eb4ed","canJoin(address,uint256,address)":"96061e16","canSubmit(address,address)":"27347970","currentRound()":"8a19c8bc","initialize(address,uint256,uint256)":"7a1ac61e","initialized()":"158ef93e","isSubmitted(address,uint256,uint256)":"2bed3c29","originBlocks()":"b2ad3730","phaseBlocks()":"60a918b7","roundByBlockNumber(uint256)":"3bdf9f13","stakeAddress()":"85107367","submit(address,uint256)":"203dd666","submitInfo(address,uint256,uint256)":"01759ece","submitInfoBySubmitter(address,uint256,address)":"812af51f","submitNewAction(address,(uint256,uint256,address,string,string,string[],string[]))":"ca52204e"},"id":77}