{"abi":[{"type":"constructor","inputs":[{"name":"originBlocks","type":"uint256","internalType":"uint256"},{"name":"phaseBlocks","type":"uint256","internalType":"uint256"}],"stateMutability":"nonpayable"},{"type":"function","name":"PROMISED_WAITING_PHASES_MAX","inputs":[],"outputs":[{"name":"","type":"uint256","internalType":"uint256"}],"stateMutability":"view"},{"type":"function","name":"PROMISED_WAITING_PHASES_MIN","inputs":[],"outputs":[{"name":"","type":"uint256","internalType":"uint256"}],"stateMutability":"view"},{"type":"function","name":"accountStakeStatus","inputs":[{"name":"tokenAddress","type":"address","internalType":"address"},{"name":"accountAddress","type":"address","internalType":"address"}],"outputs":[{"name":"","type":"tuple","internalType":"struct AccountStakeStatus","components":[{"name":"slAmount","type":"uint256","internalType":"uint256"},{"name":"stAmount","type":"uint256","internalType":"uint256"},{"name":"promisedWaitingPhases","type":"uint256","internalType":"uint256"},{"name":"requestedUnstakeRound","type":"uint256","internalType":"uint256"},{"name":"govVotes","type":"uint256","internalType":"uint256"}]}],"stateMutability":"view"},{"type":"function","name":"caculateGovVotes","inputs":[{"name":"slAmount","type":"uint256","internalType":"uint256"},{"name":"promisedWaitingPhases","type":"uint256","internalType":"uint256"}],"outputs":[{"name":"","type":"uint256","internalType":"uint256"}],"stateMutability":"pure"},{"type":"function","name":"cumulatedTokenAmount","inputs":[{"name":"tokenAddress","type":"address","internalType":"address"},{"name":"round","type":"uint256","internalType":"uint256"}],"outputs":[{"name":"tokenAmount","type":"uint256","internalType":"uint256"}],"stateMutability":"view"},{"type":"function","name":"cumulatedTokenAmountByAccount","inputs":[{"name":"tokenAddress","type":"address","internalType":"address"},{"name":"round","type":"uint256","internalType":"uint256"},{"name":"accountAddress","type":"address","internalType":"address"}],"outputs":[{"name":"tokenAmount","type":"uint256","internalType":"uint256"}],"stateMutability":"view"},{"type":"function","name":"currentRound","inputs":[],"outputs":[{"name":"","type":"uint256","internalType":"uint256"}],"stateMutability":"view"},{"type":"function","name":"govVotesNum","inputs":[{"name":"","type":"address","internalType":"address"}],"outputs":[{"name":"","type":"uint256","internalType":"uint256"}],"stateMutability":"view"},{"type":"function","name":"initialStakeRound","inputs":[{"name":"","type":"address","internalType":"address"}],"outputs":[{"name":"","type":"uint256","internalType":"uint256"}],"stateMutability":"view"},{"type":"function","name":"initialize","inputs":[{"name":"promisedWaitingPhasesMin","type":"uint256","internalType":"uint256"},{"name":"promisedWaitingPhasesMax","type":"uint256","internalType":"uint256"}],"outputs":[],"stateMutability":"nonpayable"},{"type":"function","name":"initialized","inputs":[],"outputs":[{"name":"","type":"bool","internalType":"bool"}],"stateMutability":"view"},{"type":"function","name":"numOfStakeUpdateRounds","inputs":[{"name":"tokenAddress","type":"address","internalType":"address"}],"outputs":[{"name":"","type":"uint256","internalType":"uint256"}],"stateMutability":"view"},{"type":"function","name":"originBlocks","inputs":[],"outputs":[{"name":"","type":"uint256","internalType":"uint256"}],"stateMutability":"view"},{"type":"function","name":"phaseBlocks","inputs":[],"outputs":[{"name":"","type":"uint256","internalType":"uint256"}],"stateMutability":"view"},{"type":"function","name":"roundByBlockNumber","inputs":[{"name":"blockNumber","type":"uint256","internalType":"uint256"}],"outputs":[{"name":"","type":"uint256","internalType":"uint256"}],"stateMutability":"view"},{"type":"function","name":"stakeLiquidity","inputs":[{"name":"tokenAddress","type":"address","internalType":"address"},{"name":"tokenAmountForLP","type":"uint256","internalType":"uint256"},{"name":"parentTokenAmountForLP","type":"uint256","internalType":"uint256"},{"name":"promisedWaitingPhases","type":"uint256","internalType":"uint256"},{"name":"to","type":"address","internalType":"address"}],"outputs":[{"name":"govVotesAdded","type":"uint256","internalType":"uint256"},{"name":"slAmountAdded","type":"uint256","internalType":"uint256"}],"stateMutability":"nonpayable"},{"type":"function","name":"stakeToken","inputs":[{"name":"tokenAddress","type":"address","internalType":"address"},{"name":"tokenAmount","type":"uint256","internalType":"uint256"},{"name":"promisedWaitingPhases","type":"uint256","internalType":"uint256"},{"name":"to","type":"address","internalType":"address"}],"outputs":[{"name":"govVotesAdded","type":"uint256","internalType":"uint256"}],"stateMutability":"nonpayable"},{"type":"function","name":"stakeUpdateRoundsByPage","inputs":[{"name":"tokenAddress","type":"address","internalType":"address"},{"name":"start","type":"uint256","internalType":"uint256"},{"name":"end","type":"uint256","internalType":"uint256"},{"name":"reverse","type":"bool","internalType":"bool"}],"outputs":[{"name":"","type":"uint256[]","internalType":"uint256[]"}],"stateMutability":"view"},{"type":"function","name":"unstake","inputs":[{"name":"tokenAddress","type":"address","internalType":"address"}],"outputs":[],"stateMutability":"nonpayable"},{"type":"function","name":"validGovVotes","inputs":[{"name":"tokenAddress","type":"address","internalType":"address"},{"name":"accountAddress","type":"address","internalType":"address"}],"outputs":[{"name":"","type":"uint256","internalType":"uint256"}],"stateMutability":"view"},{"type":"function","name":"withdraw","inputs":[{"name":"tokenAddress","type":"address","internalType":"address"}],"outputs":[],"stateMutability":"nonpayable"},{"type":"event","name":"StakeLiquidity","inputs":[{"name":"tokenAddress","type":"address","indexed":true,"internalType":"address"},{"name":"account","type":"address","indexed":true,"internalType":"address"},{"name":"tokenAmountForLP","type":"uint256","indexed":false,"internalType":"uint256"},{"name":"parentTokenAmountForLP","type":"uint256","indexed":false,"internalType":"uint256"},{"name":"promisedWaitingPhases","type":"uint256","indexed":false,"internalType":"uint256"},{"name":"govVotesAdded","type":"uint256","indexed":false,"internalType":"uint256"},{"name":"govVotesNew","type":"uint256","indexed":false,"internalType":"uint256"},{"name":"slAmountAdded","type":"uint256","indexed":false,"internalType":"uint256"},{"name":"slAmountNew","type":"uint256","indexed":false,"internalType":"uint256"}],"anonymous":false},{"type":"event","name":"StakeToken","inputs":[{"name":"tokenAddress","type":"address","indexed":true,"internalType":"address"},{"name":"account","type":"address","indexed":true,"internalType":"address"},{"name":"tokenAmount","type":"uint256","indexed":false,"internalType":"uint256"},{"name":"promisedWaitingPhases","type":"uint256","indexed":false,"internalType":"uint256"},{"name":"govVotesAdded","type":"uint256","indexed":false,"internalType":"uint256"},{"name":"govVotesNew","type":"uint256","indexed":false,"internalType":"uint256"},{"name":"stAmountNew","type":"uint256","indexed":false,"internalType":"uint256"}],"anonymous":false},{"type":"event","name":"Unstake","inputs":[{"name":"tokenAddress","type":"address","indexed":true,"internalType":"address"},{"name":"account","type":"address","indexed":true,"internalType":"address"},{"name":"slAmount","type":"uint256","indexed":false,"internalType":"uint256"},{"name":"stAmount","type":"uint256","indexed":false,"internalType":"uint256"}],"anonymous":false},{"type":"event","name":"Withdraw","inputs":[{"name":"tokenAddress","type":"address","indexed":true,"internalType":"address"},{"name":"account","type":"address","indexed":true,"internalType":"address"},{"name":"slAmount","type":"uint256","indexed":false,"internalType":"uint256"},{"name":"stAmount","type":"uint256","indexed":false,"internalType":"uint256"}],"anonymous":false},{"type":"error","name":"AlreadyInitialized","inputs":[]},{"type":"error","name":"AlreadyUnstaked","inputs":[]},{"type":"error","name":"InvalidToAddress","inputs":[]},{"type":"error","name":"NoStakedLiquidity","inputs":[]},{"type":"error","name":"NoStakedLiquidityOrToken","inputs":[]},{"type":"error","name":"NotAllowedToStakeAtRoundZero","inputs":[]},{"type":"error","name":"NotEnoughWaitingBlocks","inputs":[]},{"type":"error","name":"PromisedWaitingRoundsMustBeGreaterOrEqualThanBefore","inputs":[]},{"type":"error","name":"PromisedWaitingRoundsOutOfRange","inputs":[]},{"type":"error","name":"ReleaseAlreadyRequested","inputs":[]},{"type":"error","name":"ReleaseNotRequested","inputs":[]},{"type":"error","name":"RoundHasNotStartedYet","inputs":[]},{"type":"error","name":"RoundNotStarted","inputs":[]},{"type":"error","name":"StakeAmountMustBeSet","inputs":[]}],"bytecode":{"object":"0x60c060405234801561001057600080fd5b5060405162002627380380620026278339810160408190526100319161003f565b60809190915260a052610063565b6000806040838503121561005257600080fd5b505080516020909101519092909150565b60805160a0516125896200009e6000396000818161020501526109140152600081816102e7015281816108a201526108e801526125896000f3fe608060405234801561001057600080fd5b50600436106101375760003560e01c80638bf1fecc116100b8578063b2ad37301161007c578063b2ad3730146102e2578063b461441014610309578063e1f1c38714610332578063e4a3011614610345578063f26fc94a14610358578063f2888dbb1461037857600080fd5b80638bf1fecc1461028d57806390510c34146102a05780639be48b06146102a9578063a1c9e604146102bc578063a1d43e1d146102cf57600080fd5b806351cff8d9116100ff57806351cff8d9146101eb57806360a918b714610200578063838ac58214610227578063863ed5b6146102305780638a19c8bc1461028557600080fd5b8063071d2eec1461013c57806315664f8d14610165578063158ef93e14610193578063231cc991146101b05780633bdf9f13146101d8575b600080fd5b61014f61014a3660046121e9565b61038b565b60405161015c9190612233565b60405180910390f35b610185610173366004612277565b60036020526000908152604090205481565b60405190815260200161015c565b6000546101a09060ff1681565b604051901515815260200161015c565b6101c36101be366004612294565b6103bd565b6040805192835260208301919091520161015c565b6101856101e63660046122ea565b61089e565b6101fe6101f9366004612277565b610940565b005b6101857f000000000000000000000000000000000000000000000000000000000000000081565b61018560015481565b61024361023e366004612303565b610aa7565b60405161015c9190600060a082019050825182526020830151602083015260408301516040830152606083015160608301526080830151608083015292915050565b610185610b42565b61018561029b36600461233c565b610b52565b61018560025481565b6101856102b736600461237e565b610c6e565b6101856102ca366004612303565b610d4f565b6101856102dd3660046123aa565b610f8b565b6101857f000000000000000000000000000000000000000000000000000000000000000081565b610185610317366004612277565b6001600160a01b031660009081526008602052604090205490565b6101856103403660046123e9565b6112e2565b6101fe6103533660046123e9565b6112ee565b610185610366366004612277565b60046020526000908152604090205481565b6101fe610386366004612277565b61132a565b6001600160a01b03841660009081526008602052604090206060906103b290858585611620565b90505b949350505050565b6000806103c8610b42565b6000036103e857604051632fa7341960e21b815260040160405180910390fd5b6001600160a01b03871660009081526004602052604081205490036104295761040f610b42565b6001600160a01b0388166000908152600460205260409020555b6001600160a01b03831661045057604051638aa3a72f60e01b815260040160405180910390fd5b85158061045b575084155b15610479576040516353a46d0360e11b815260040160405180910390fd5b6001600160a01b03808816600090815260056020908152604080832093871683529290522060030154156104c057604051636b70d03160e11b815260040160405180910390fd5b6001548410806104d1575060025484115b156104ef57604051632866bbc760e11b815260040160405180910390fd5b6001600160a01b038088166000908152600560209081526040808320938716835292905220600201548410156105385760405163134745af60e11b815260040160405180910390fd5b6000876001600160a01b031663ad2254916040518163ffffffff1660e01b8152600401602060405180830381865afa158015610578573d6000803e3d6000fd5b505050506040513d601f19601f8201168201806040525081019061059c919061240b565b6040516323b872dd60e01b81529091506001600160a01b038916906323b872dd906105cf90339085908c90600401612428565b6020604051808303816000875af11580156105ee573d6000803e3d6000fd5b505050506040513d601f19601f82011682018060405250810190610612919061244c565b506000886001600160a01b03166347502b536040518163ffffffff1660e01b8152600401602060405180830381865afa158015610653573d6000803e3d6000fd5b505050506040513d601f19601f82011682018060405250810190610677919061240b565b6040516323b872dd60e01b81529091506001600160a01b038216906323b872dd906106aa90339086908c90600401612428565b6020604051808303816000875af11580156106c9573d6000803e3d6000fd5b505050506040513d601f19601f820116820180604052508101906106ed919061244c565b506040516335313c2160e11b81526001600160a01b038681166004830152831690636a627842906024016020604051808303816000875af1158015610736573d6000803e3d6000fd5b505050506040513d601f19601f8201168201806040525081019061075a9190612469565b6001600160a01b03808b166000908152600560209081526040808320938a1683529290522080546002820154929550909161079591906112e2565b81546107ac906107a6908790612498565b896112e2565b6107b691906124ab565b9450848160040160008282546107cc9190612498565b90915550506001600160a01b038a16600090815260036020526040812080548792906107f9908490612498565b909155505060028101879055805484908290600090610819908490612498565b909155505060048101548154604080518c8152602081018c90529081018a905260608101889052608081019290925260a0820186905260c08201526001600160a01b0380881691908c16907f7405272bc73f2f9083c28a6b1601879d928817e559fc7cc478e5e22482d3f13e9060e00160405180910390a35050509550959350505050565b60007f00000000000000000000000000000000000000000000000000000000000000008210156108e1576040516323a71b8760e21b815260040160405180910390fd5b600061090d7f0000000000000000000000000000000000000000000000000000000000000000846124ab565b90506109397f0000000000000000000000000000000000000000000000000000000000000000826124be565b9392505050565b6001600160a01b038116600090815260056020908152604080832033845290915290206001810154815460038301548115801561097b575082155b1561099957604051638b52031560e01b815260040160405180910390fd5b806000036109ba5760405163f3acff1d60e01b815260040160405180910390fd5b8360020154816109c8610b42565b6109d291906124ab565b116109f057604051637aad2fc160e11b815260040160405180910390fd5b6109fb858385611836565b6040805160a0810182526000808252602080830182815283850183815260608501848152608086018581526001600160a01b038d1680875260058652888720338089529087529689902097518855935160018801559151600287015551600386015551600490940193909355835186815290810187905290927ff341246adaac6f497bc2a656f546ab9e182111d630394f0c57c710a59a2cb56791015b60405180910390a35050505050565b610ad96040518060a0016040528060008152602001600081526020016000815260200160008152602001600081525090565b506001600160a01b038083166000908152600560209081526040808320938516835292815290829020825160a081018452815481526001820154928101929092526002810154928201929092526003820154606082015260049091015460808201525b92915050565b6000610b4d4361089e565b905090565b600082610b5d610b42565b1015610b7c57604051633707aa2560e11b815260040160405180910390fd5b6001600160a01b0380851660009081526009602090815260408083209386168352929052908120549003610bb257506000610939565b6001600160a01b03808516600090815260096020908152604080832093861683529290529081208054859290610bea57610bea6124e0565b90600052602060002001541115610c0357506000610939565b6001600160a01b0380851660009081526009602090815260408083209386168352929052908120610c349085611ab8565b6001600160a01b03808716600090815260076020908152604080832094835293815283822092871682529190915220549150509392505050565b600081610c79610b42565b1015610c9857604051633707aa2560e11b815260040160405180910390fd5b6001600160a01b0383166000908152600860205260408120549003610cbf57506000610b3c565b6001600160a01b03831660009081526008602052604081208054849290610ce857610ce86124e0565b90600052602060002001541115610d0157506000610b3c565b6001600160a01b0383166000908152600860205260408120610d239084611ab8565b6001600160a01b0385166000908152600660209081526040808320938352929052205491505092915050565b6001600160a01b0380831660008181526005602090815260408083209486168352938152838220845160a08101865281548152600182015481840152600282015481870152600382015460608201526004918201546080820152855163ad22549160e01b81529551939590948694909363ad22549193838101939192918290030181865afa158015610de5573d6000803e3d6000fd5b505050506040513d601f19601f82011682018060405250810190610e09919061240b565b6040516370a0823160e01b81526001600160a01b0386811660048301529192506000918316906370a0823190602401602060405180830381865afa158015610e55573d6000803e3d6000fd5b505050506040513d601f19601f82011682018060405250810190610e799190612469565b90506000866001600160a01b031663cbd4bac56040518163ffffffff1660e01b8152600401602060405180830381865afa158015610ebb573d6000803e3d6000fd5b505050506040513d601f19601f82011682018060405250810190610edf919061240b565b6040516370a0823160e01b81526001600160a01b0388811660048301529192506000918316906370a0823190602401602060405180830381865afa158015610f2b573d6000803e3d6000fd5b505050506040513d601f19601f82011682018060405250810190610f4f9190612469565b85519091508310801590610f67575084602001518110155b15610f7d57846080015195505050505050610b3c565b600095505050505050610b3c565b60006001600160a01b038216610fb457604051638aa3a72f60e01b815260040160405180910390fd5b6001600160a01b03808616600090815260056020908152604080832093861683529290529081208054909103610ffd5760405163745dc62760e01b815260040160405180910390fd5b8460000361101e576040516353a46d0360e11b815260040160405180910390fd5b60038101541561104157604051636b70d03160e11b815260040160405180910390fd5b600154841080611052575060025484115b1561107057604051632866bbc760e11b815260040160405180910390fd5b80600201548410156110955760405163134745af60e11b815260040160405180910390fd5b6000866001600160a01b031663cbd4bac56040518163ffffffff1660e01b8152600401602060405180830381865afa1580156110d5573d6000803e3d6000fd5b505050506040513d601f19601f820116820180604052508101906110f9919061240b565b6040516323b872dd60e01b81529091506001600160a01b038816906323b872dd9061112c90339085908b90600401612428565b6020604051808303816000875af115801561114b573d6000803e3d6000fd5b505050506040513d601f19601f8201168201806040525081019061116f919061244c565b506040516335313c2160e11b81526001600160a01b038581166004830152821690636a62784290602401600060405180830381600087803b1580156111b357600080fd5b505af11580156111c7573d6000803e3d6000fd5b505050508582600101546111db9190612498565b6001830155600282015485111561125757600482015482546111fd90876112e2565b61120791906124ab565b92508282600401600082825461121d9190612498565b90915550506001600160a01b0387166000908152600360205260408120805485929061124a908490612498565b9091555050600282018590555b61126387876001611ba1565b6112708785886001611cf4565b600482015460018301546040805189815260208101899052908101869052606081019290925260808201526001600160a01b0380861691908916907f82b1de6fe19d6125de1a2ec9a6e12daa27952213a460bf35f5e60ad108bb0abe9060a00160405180910390a35050949350505050565b600061093982846124f6565b60005460ff16156113115760405162dc149f60e41b815260040160405180910390fd5b6000805460ff1916600190811790915591909155600255565b6001600160a01b038116600090815260056020908152604080832033845290915290208054600182015460038301541561137757604051636c18a98960e11b815260040160405180910390fd5b81158015611383575080155b156113a157604051638b52031560e01b815260040160405180910390fd5b8115611484576000846001600160a01b031663ad2254916040518163ffffffff1660e01b8152600401602060405180830381865afa1580156113e7573d6000803e3d6000fd5b505050506040513d601f19601f8201168201806040525081019061140b919061240b565b6040516323b872dd60e01b81529091506001600160a01b038216906323b872dd9061143e90339030908890600401612428565b6020604051808303816000875af115801561145d573d6000803e3d6000fd5b505050506040513d601f19601f82011682018060405250810190611481919061244c565b50505b8015611567576000846001600160a01b031663cbd4bac56040518163ffffffff1660e01b8152600401602060405180830381865afa1580156114ca573d6000803e3d6000fd5b505050506040513d601f19601f820116820180604052508101906114ee919061240b565b6040516323b872dd60e01b81529091506001600160a01b038216906323b872dd9061152190339030908790600401612428565b6020604051808303816000875af1158015611540573d6000803e3d6000fd5b505050506040513d601f19601f82011682018060405250810190611564919061244c565b50505b6000611571610b42565b9050808460030181905550836004015460036000876001600160a01b03166001600160a01b0316815260200190815260200160002060008282546115b591906124ab565b90915550506000600485018190556115d09086908490611ba1565b6115dd8533846000611cf4565b604080518481526020810184905233916001600160a01b038816917f18edd09e80386cd99df397e2e0d87d2bb259423eae08645e776321a36fe680ef9101610a98565b83546060908015806116325750808510155b1561164d5750506040805160008152602081019091526103b5565b848410156116c05760405162461bcd60e51b815260206004820152603660248201527f456e6420696e646578206d7573742062652067726561746572207468616e206f6044820152750e440cae2eac2d840e8de40e6e8c2e4e840d2dcc8caf60531b606482015260840160405180910390fd5b60008185106116d9576116d46001836124ab565b6116db565b845b905060006116e987836124ab565b6116f4906001612498565b905060008167ffffffffffffffff8111156117115761171161250d565b60405190808252806020026020018201604052801561173a578160200160208202803683370190505b50905085156117c8578854600090611754906001906124ab565b905060005b838110156117c1578a8161176d8c856124ab565b61177791906124ab565b81548110611787576117876124e0565b90600052602060002001548382815181106117a4576117a46124e0565b6020908102919091010152806117b981612523565b915050611759565b505061182a565b60005b8281101561182857896117de828b612498565b815481106117ee576117ee6124e0565b906000526020600020015482828151811061180b5761180b6124e0565b60209081029190910101528061182081612523565b9150506117cb565b505b98975050505050505050565b81156119795761184583611e6b565b6000836001600160a01b031663ad2254916040518163ffffffff1660e01b8152600401602060405180830381865afa158015611885573d6000803e3d6000fd5b505050506040513d601f19601f820116820180604052508101906118a9919061240b565b60405163a9059cbb60e01b81526001600160a01b038216600482018190526024820186905291925063a9059cbb906044016020604051808303816000875af11580156118f9573d6000803e3d6000fd5b505050506040513d601f19601f8201168201806040525081019061191d919061244c565b5060405163226bf2d160e21b81523360048201526001600160a01b038216906389afcb4490602401600060405180830381600087803b15801561195f57600080fd5b505af1158015611973573d6000803e3d6000fd5b50505050505b8015611ab3576000836001600160a01b031663cbd4bac56040518163ffffffff1660e01b8152600401602060405180830381865afa1580156119bf573d6000803e3d6000fd5b505050506040513d601f19601f820116820180604052508101906119e3919061240b565b60405163a9059cbb60e01b81526001600160a01b038216600482018190526024820185905291925063a9059cbb906044016020604051808303816000875af1158015611a33573d6000803e3d6000fd5b505050506040513d601f19601f82011682018060405250810190611a57919061244c565b5060405163226bf2d160e21b81523360048201526001600160a01b038216906389afcb4490602401600060405180830381600087803b158015611a9957600080fd5b505af1158015611aad573d6000803e3d6000fd5b50505050505b505050565b81546000908103611acb57506000610b3c565b825482908490611add906001906124ab565b81548110611aed57611aed6124e0565b906000526020600020015411611b2f5782548390611b0d906001906124ab565b81548110611b1d57611b1d6124e0565b90600052602060002001549050610b3c565b6000611b3b8484612147565b905082848281548110611b5057611b506124e0565b9060005260206000200154118015611b685750600081115b15611b7b5780611b778161253c565b9150505b838181548110611b8d57611b8d6124e0565b906000526020600020015491505092915050565b6001600160a01b03831660009081526008602052604081205490611bc3610b42565b90506000808311611bd5576000611c14565b6001600160a01b0386166000908152600860205260409020611bf86001856124ab565b81548110611c0857611c086124e0565b90600052602060002001545b9050821580611c2257508082115b15611c6f576001600160a01b038616600081815260066020908152604080832085845282528083205486845281842055928252600881529181208054600181018255908252919020018290555b8315611cb3576001600160a01b038616600090815260066020908152604080832085845290915281208054879290611ca8908490612498565b90915550611cec9050565b6001600160a01b038616600090815260066020908152604080832085845290915281208054879290611ce69084906124ab565b90915550505b505050505050565b6000611cfe610b42565b6001600160a01b03808716600090815260096020908152604080832093891683529290529081208054929350919081611d38576000611d60565b82611d446001846124ab565b81548110611d5457611d546124e0565b90600052602060002001545b9050811580611d6e57508084115b15611dcd576001600160a01b038089166000908152600760209081526040808320858452808352818420948c16808552948352818420548985529083528184209484529382528220929092558454600181018655858252919020018490555b8415611e1d576001600160a01b0380891660009081526007602090815260408083208884528252808320938b1683529290529081208054889290611e12908490612498565b90915550611aad9050565b6001600160a01b0380891660009081526007602090815260408083208884528252808320938b1683529290529081208054889290611e5c9084906124ab565b90915550505050505050505050565b6000816001600160a01b031663ad2254916040518163ffffffff1660e01b8152600401602060405180830381865afa158015611eab573d6000803e3d6000fd5b505050506040513d601f19601f82011682018060405250810190611ecf919061240b565b604051631ac3ddeb60e01b81523060048201529091506001600160a01b03821690631ac3ddeb90602401600060405180830381600087803b158015611f1357600080fd5b505af1158015611f27573d6000803e3d6000fd5b505050506000826001600160a01b03166347502b536040518163ffffffff1660e01b8152600401602060405180830381865afa158015611f6b573d6000803e3d6000fd5b505050506040513d601f19601f82011682018060405250810190611f8f919061240b565b6040516370a0823160e01b81523060048201529091506000906001600160a01b038316906370a0823190602401602060405180830381865afa158015611fd9573d6000803e3d6000fd5b505050506040513d601f19601f82011682018060405250810190611ffd9190612469565b60405163a9059cbb60e01b81526001600160a01b038681166004830152602482018390529192509083169063a9059cbb906044016020604051808303816000875af1158015612050573d6000803e3d6000fd5b505050506040513d601f19601f82011682018060405250810190612074919061244c565b506040516370a0823160e01b81523060048201526000906001600160a01b038616906370a0823190602401602060405180830381865afa1580156120bc573d6000803e3d6000fd5b505050506040513d601f19601f820116820180604052508101906120e09190612469565b604051630852cd8d60e31b81526004810182905290915085906001600160a01b038216906342966c6890602401600060405180830381600087803b15801561212757600080fd5b505af115801561213b573d6000803e3d6000fd5b50505050505050505050565b815460009081905b808210156121bb576000600261216584846124ab565b61216f91906124be565b6121799084612498565b90508486828154811061218e5761218e6124e0565b906000526020600020015410156121b1576121aa816001612498565b92506121b5565b8091505b5061214f565b509392505050565b6001600160a01b03811681146121d857600080fd5b50565b80151581146121d857600080fd5b600080600080608085870312156121ff57600080fd5b843561220a816121c3565b935060208501359250604085013591506060850135612228816121db565b939692955090935050565b6020808252825182820181905260009190848201906040850190845b8181101561226b5783518352928401929184019160010161224f565b50909695505050505050565b60006020828403121561228957600080fd5b8135610939816121c3565b600080600080600060a086880312156122ac57600080fd5b85356122b7816121c3565b945060208601359350604086013592506060860135915060808601356122dc816121c3565b809150509295509295909350565b6000602082840312156122fc57600080fd5b5035919050565b6000806040838503121561231657600080fd5b8235612321816121c3565b91506020830135612331816121c3565b809150509250929050565b60008060006060848603121561235157600080fd5b833561235c816121c3565b9250602084013591506040840135612373816121c3565b809150509250925092565b6000806040838503121561239157600080fd5b823561239c816121c3565b946020939093013593505050565b600080600080608085870312156123c057600080fd5b84356123cb816121c3565b935060208501359250604085013591506060850135612228816121c3565b600080604083850312156123fc57600080fd5b50508035926020909101359150565b60006020828403121561241d57600080fd5b8151610939816121c3565b6001600160a01b039384168152919092166020820152604081019190915260600190565b60006020828403121561245e57600080fd5b8151610939816121db565b60006020828403121561247b57600080fd5b5051919050565b634e487b7160e01b600052601160045260246000fd5b80820180821115610b3c57610b3c612482565b81810381811115610b3c57610b3c612482565b6000826124db57634e487b7160e01b600052601260045260246000fd5b500490565b634e487b7160e01b600052603260045260246000fd5b8082028115828204841417610b3c57610b3c612482565b634e487b7160e01b600052604160045260246000fd5b60006001820161253557612535612482565b5060010190565b60008161254b5761254b612482565b50600019019056fea264697066735822122068dd6f5a7408df6dfeee7ccf4f0a4f6008b4e8dff32a21918731a4f3302e30df64736f6c63430008130033","linkReferences":{}},"methodIdentifiers":{"PROMISED_WAITING_PHASES_MAX()":"90510c34","PROMISED_WAITING_PHASES_MIN()":"838ac582","accountStakeStatus(address,address)":"863ed5b6","caculateGovVotes(uint256,uint256)":"e1f1c387","cumulatedTokenAmount(address,uint256)":"9be48b06","cumulatedTokenAmountByAccount(address,uint256,address)":"8bf1fecc","currentRound()":"8a19c8bc","govVotesNum(address)":"15664f8d","initialStakeRound(address)":"f26fc94a","initialize(uint256,uint256)":"e4a30116","initialized()":"158ef93e","numOfStakeUpdateRounds(address)":"b4614410","originBlocks()":"b2ad3730","phaseBlocks()":"60a918b7","roundByBlockNumber(uint256)":"3bdf9f13","stakeLiquidity(address,uint256,uint256,uint256,address)":"231cc991","stakeToken(address,uint256,uint256,address)":"a1d43e1d","stakeUpdateRoundsByPage(address,uint256,uint256,bool)":"071d2eec","unstake(address)":"f2888dbb","validGovVotes(address,address)":"a1c9e604","withdraw(address)":"51cff8d9"},"id":43}