{"abi":[{"type":"constructor","inputs":[{"name":"groupAddress_","type":"address","internalType":"address"},{"name":"minSupportToOpposeRatio_","type":"uint256","internalType":"uint256"},{"name":"banThresholdRatio_","type":"uint256","internalType":"uint256"}],"stateMutability":"nonpayable"},{"type":"function","name":"BAN_THRESHOLD_RATIO","inputs":[],"outputs":[{"name":"","type":"uint256","internalType":"uint256"}],"stateMutability":"view"},{"type":"function","name":"GROUP_ADDRESS","inputs":[],"outputs":[{"name":"","type":"address","internalType":"address"}],"stateMutability":"view"},{"type":"function","name":"MIN_SUPPORT_TO_OPPOSE_RATIO","inputs":[],"outputs":[{"name":"","type":"uint256","internalType":"uint256"}],"stateMutability":"view"},{"type":"function","name":"PRECISION","inputs":[],"outputs":[{"name":"","type":"uint256","internalType":"uint256"}],"stateMutability":"view"},{"type":"function","name":"clearVoteBySender","inputs":[{"name":"groupId","type":"uint256","internalType":"uint256"},{"name":"senderId","type":"uint256","internalType":"uint256"},{"name":"senderAddress","type":"address","internalType":"address"}],"outputs":[],"stateMutability":"nonpayable"},{"type":"function","name":"clearVoteBySenderAddress","inputs":[{"name":"groupId","type":"uint256","internalType":"uint256"},{"name":"senderAddress","type":"address","internalType":"address"}],"outputs":[],"stateMutability":"nonpayable"},{"type":"function","name":"clearVoteBySenderId","inputs":[{"name":"groupId","type":"uint256","internalType":"uint256"},{"name":"senderId","type":"uint256","internalType":"uint256"}],"outputs":[],"stateMutability":"nonpayable"},{"type":"function","name":"isAddressBanned","inputs":[{"name":"groupId","type":"uint256","internalType":"uint256"},{"name":"senderAddress","type":"address","internalType":"address"}],"outputs":[{"name":"","type":"bool","internalType":"bool"}],"stateMutability":"view"},{"type":"function","name":"isAddressBannedBatch","inputs":[{"name":"groupId","type":"uint256","internalType":"uint256"},{"name":"senderAddresses","type":"address[]","internalType":"address[]"}],"outputs":[{"name":"banned","type":"bool[]","internalType":"bool[]"}],"stateMutability":"view"},{"type":"function","name":"isBanned","inputs":[{"name":"groupId","type":"uint256","internalType":"uint256"},{"name":"senderId","type":"uint256","internalType":"uint256"},{"name":"senderAddress","type":"address","internalType":"address"}],"outputs":[{"name":"","type":"bool","internalType":"bool"}],"stateMutability":"view"},{"type":"function","name":"isSenderIdBanned","inputs":[{"name":"groupId","type":"uint256","internalType":"uint256"},{"name":"senderId","type":"uint256","internalType":"uint256"}],"outputs":[{"name":"","type":"bool","internalType":"bool"}],"stateMutability":"view"},{"type":"function","name":"isSenderIdBannedBatch","inputs":[{"name":"groupId","type":"uint256","internalType":"uint256"},{"name":"senderIds","type":"uint256[]","internalType":"uint256[]"}],"outputs":[{"name":"banned","type":"bool[]","internalType":"bool[]"}],"stateMutability":"view"},{"type":"function","name":"refreshVoteBySender","inputs":[{"name":"groupId","type":"uint256","internalType":"uint256"},{"name":"senderId","type":"uint256","internalType":"uint256"},{"name":"senderAddress","type":"address","internalType":"address"},{"name":"voter","type":"address","internalType":"address"}],"outputs":[],"stateMutability":"nonpayable"},{"type":"function","name":"refreshVoteBySenderAddress","inputs":[{"name":"groupId","type":"uint256","internalType":"uint256"},{"name":"senderAddress","type":"address","internalType":"address"},{"name":"voter","type":"address","internalType":"address"}],"outputs":[],"stateMutability":"nonpayable"},{"type":"function","name":"refreshVoteBySenderId","inputs":[{"name":"groupId","type":"uint256","internalType":"uint256"},{"name":"senderId","type":"uint256","internalType":"uint256"},{"name":"voter","type":"address","internalType":"address"}],"outputs":[],"stateMutability":"nonpayable"},{"type":"function","name":"stateVersion","inputs":[{"name":"groupId","type":"uint256","internalType":"uint256"}],"outputs":[{"name":"","type":"uint256","internalType":"uint256"}],"stateMutability":"view"},{"type":"function","name":"voteBySender","inputs":[{"name":"groupId","type":"uint256","internalType":"uint256"},{"name":"senderId","type":"uint256","internalType":"uint256"},{"name":"senderAddress","type":"address","internalType":"address"},{"name":"supportBan","type":"bool","internalType":"bool"}],"outputs":[],"stateMutability":"nonpayable"},{"type":"function","name":"voteBySenderAddress","inputs":[{"name":"groupId","type":"uint256","internalType":"uint256"},{"name":"senderAddress","type":"address","internalType":"address"},{"name":"supportBan","type":"bool","internalType":"bool"}],"outputs":[],"stateMutability":"nonpayable"},{"type":"function","name":"voteBySenderId","inputs":[{"name":"groupId","type":"uint256","internalType":"uint256"},{"name":"senderId","type":"uint256","internalType":"uint256"},{"name":"supportBan","type":"bool","internalType":"bool"}],"outputs":[],"stateMutability":"nonpayable"},{"type":"function","name":"voteStatusBySenderAddress","inputs":[{"name":"groupId","type":"uint256","internalType":"uint256"},{"name":"senderAddress","type":"address","internalType":"address"}],"outputs":[{"name":"banned","type":"bool","internalType":"bool"},{"name":"supportWeight","type":"uint256","internalType":"uint256"},{"name":"opposeWeight","type":"uint256","internalType":"uint256"}],"stateMutability":"view"},{"type":"function","name":"voteStatusBySenderAddresses","inputs":[{"name":"groupId","type":"uint256","internalType":"uint256"},{"name":"senderAddresses","type":"address[]","internalType":"address[]"}],"outputs":[{"name":"banned","type":"bool[]","internalType":"bool[]"},{"name":"supportWeights","type":"uint256[]","internalType":"uint256[]"},{"name":"opposeWeights","type":"uint256[]","internalType":"uint256[]"}],"stateMutability":"view"},{"type":"function","name":"voteStatusBySenderId","inputs":[{"name":"groupId","type":"uint256","internalType":"uint256"},{"name":"senderId","type":"uint256","internalType":"uint256"}],"outputs":[{"name":"banned","type":"bool","internalType":"bool"},{"name":"supportWeight","type":"uint256","internalType":"uint256"},{"name":"opposeWeight","type":"uint256","internalType":"uint256"}],"stateMutability":"view"},{"type":"function","name":"voteStatusBySenderIds","inputs":[{"name":"groupId","type":"uint256","internalType":"uint256"},{"name":"senderIds","type":"uint256[]","internalType":"uint256[]"}],"outputs":[{"name":"banned","type":"bool[]","internalType":"bool[]"},{"name":"supportWeights","type":"uint256[]","internalType":"uint256[]"},{"name":"opposeWeights","type":"uint256[]","internalType":"uint256[]"}],"stateMutability":"view"},{"type":"function","name":"voteWeightsBySenderAddressesByVoter","inputs":[{"name":"groupId","type":"uint256","internalType":"uint256"},{"name":"senderAddresses","type":"address[]","internalType":"address[]"},{"name":"voter","type":"address","internalType":"address"}],"outputs":[{"name":"supportWeights","type":"uint256[]","internalType":"uint256[]"},{"name":"opposeWeights","type":"uint256[]","internalType":"uint256[]"}],"stateMutability":"view"},{"type":"function","name":"voteWeightsBySenderIdsByVoter","inputs":[{"name":"groupId","type":"uint256","internalType":"uint256"},{"name":"senderIds","type":"uint256[]","internalType":"uint256[]"},{"name":"voter","type":"address","internalType":"address"}],"outputs":[{"name":"supportWeights","type":"uint256[]","internalType":"uint256[]"},{"name":"opposeWeights","type":"uint256[]","internalType":"uint256[]"}],"stateMutability":"view"},{"type":"function","name":"votedSenderAddresses","inputs":[{"name":"groupId","type":"uint256","internalType":"uint256"},{"name":"offset","type":"uint256","internalType":"uint256"},{"name":"limit","type":"uint256","internalType":"uint256"}],"outputs":[{"name":"senderAddresses","type":"address[]","internalType":"address[]"},{"name":"supportWeights","type":"uint256[]","internalType":"uint256[]"},{"name":"opposeWeights","type":"uint256[]","internalType":"uint256[]"},{"name":"voterCounts","type":"uint256[]","internalType":"uint256[]"}],"stateMutability":"view"},{"type":"function","name":"votedSenderAddressesCount","inputs":[{"name":"groupId","type":"uint256","internalType":"uint256"}],"outputs":[{"name":"","type":"uint256","internalType":"uint256"}],"stateMutability":"view"},{"type":"function","name":"votedSenderIds","inputs":[{"name":"groupId","type":"uint256","internalType":"uint256"},{"name":"offset","type":"uint256","internalType":"uint256"},{"name":"limit","type":"uint256","internalType":"uint256"}],"outputs":[{"name":"senderIds","type":"uint256[]","internalType":"uint256[]"},{"name":"supportWeights","type":"uint256[]","internalType":"uint256[]"},{"name":"opposeWeights","type":"uint256[]","internalType":"uint256[]"},{"name":"voterCounts","type":"uint256[]","internalType":"uint256[]"}],"stateMutability":"view"},{"type":"function","name":"votedSenderIdsCount","inputs":[{"name":"groupId","type":"uint256","internalType":"uint256"}],"outputs":[{"name":"","type":"uint256","internalType":"uint256"}],"stateMutability":"view"},{"type":"function","name":"votersBySenderAddress","inputs":[{"name":"groupId","type":"uint256","internalType":"uint256"},{"name":"senderAddress","type":"address","internalType":"address"},{"name":"offset","type":"uint256","internalType":"uint256"},{"name":"limit","type":"uint256","internalType":"uint256"}],"outputs":[{"name":"voters","type":"address[]","internalType":"address[]"},{"name":"supportWeights","type":"uint256[]","internalType":"uint256[]"},{"name":"opposeWeights","type":"uint256[]","internalType":"uint256[]"}],"stateMutability":"view"},{"type":"function","name":"votersBySenderAddressCount","inputs":[{"name":"groupId","type":"uint256","internalType":"uint256"},{"name":"senderAddress","type":"address","internalType":"address"}],"outputs":[{"name":"","type":"uint256","internalType":"uint256"}],"stateMutability":"view"},{"type":"function","name":"votersBySenderId","inputs":[{"name":"groupId","type":"uint256","internalType":"uint256"},{"name":"senderId","type":"uint256","internalType":"uint256"},{"name":"offset","type":"uint256","internalType":"uint256"},{"name":"limit","type":"uint256","internalType":"uint256"}],"outputs":[{"name":"voters","type":"address[]","internalType":"address[]"},{"name":"supportWeights","type":"uint256[]","internalType":"uint256[]"},{"name":"opposeWeights","type":"uint256[]","internalType":"uint256[]"}],"stateMutability":"view"},{"type":"function","name":"votersBySenderIdCount","inputs":[{"name":"groupId","type":"uint256","internalType":"uint256"},{"name":"senderId","type":"uint256","internalType":"uint256"}],"outputs":[{"name":"","type":"uint256","internalType":"uint256"}],"stateMutability":"view"},{"type":"event","name":"ChangeStateVersion","inputs":[{"name":"groupId","type":"uint256","indexed":true,"internalType":"uint256"},{"name":"stateVersion","type":"uint256","indexed":false,"internalType":"uint256"}],"anonymous":false},{"type":"event","name":"SetAddressBan","inputs":[{"name":"groupId","type":"uint256","indexed":true,"internalType":"uint256"},{"name":"targetAddress","type":"address","indexed":true,"internalType":"address"},{"name":"listed","type":"bool","indexed":false,"internalType":"bool"},{"name":"stateVersion","type":"uint256","indexed":false,"internalType":"uint256"}],"anonymous":false},{"type":"event","name":"SetAddressBanVote","inputs":[{"name":"groupId","type":"uint256","indexed":true,"internalType":"uint256"},{"name":"targetAddress","type":"address","indexed":true,"internalType":"address"},{"name":"voter","type":"address","indexed":true,"internalType":"address"},{"name":"supportBan","type":"bool","indexed":false,"internalType":"bool"},{"name":"settledWeight","type":"uint256","indexed":false,"internalType":"uint256"},{"name":"supportWeight","type":"uint256","indexed":false,"internalType":"uint256"},{"name":"opposeWeight","type":"uint256","indexed":false,"internalType":"uint256"},{"name":"stateVersion","type":"uint256","indexed":false,"internalType":"uint256"}],"anonymous":false},{"type":"event","name":"SetSenderIdBan","inputs":[{"name":"groupId","type":"uint256","indexed":true,"internalType":"uint256"},{"name":"targetSenderId","type":"uint256","indexed":true,"internalType":"uint256"},{"name":"listed","type":"bool","indexed":false,"internalType":"bool"},{"name":"stateVersion","type":"uint256","indexed":false,"internalType":"uint256"}],"anonymous":false},{"type":"event","name":"SetSenderIdBanVote","inputs":[{"name":"groupId","type":"uint256","indexed":true,"internalType":"uint256"},{"name":"targetSenderId","type":"uint256","indexed":true,"internalType":"uint256"},{"name":"voter","type":"address","indexed":true,"internalType":"address"},{"name":"supportBan","type":"bool","indexed":false,"internalType":"bool"},{"name":"settledWeight","type":"uint256","indexed":false,"internalType":"uint256"},{"name":"supportWeight","type":"uint256","indexed":false,"internalType":"uint256"},{"name":"opposeWeight","type":"uint256","indexed":false,"internalType":"uint256"},{"name":"stateVersion","type":"uint256","indexed":false,"internalType":"uint256"}],"anonymous":false},{"type":"error","name":"BanThresholdTooHigh","inputs":[]},{"type":"error","name":"BanVoteWeightSourceUnavailable","inputs":[]},{"type":"error","name":"GovVotedBanSourceAddressHasNoCode","inputs":[]},{"type":"error","name":"MinSupportToOpposeRatioZero","inputs":[]},{"type":"error","name":"TargetAddressZero","inputs":[]},{"type":"error","name":"TargetSenderIdZero","inputs":[]},{"type":"error","name":"VoteNotFound","inputs":[]},{"type":"error","name":"VoteUnchanged","inputs":[]},{"type":"error","name":"VoteWeightZero","inputs":[]}],"bytecode":{"object":"0x60e06040523480156200001157600080fd5b50604051620038b1380380620038b18339810160408190526200003491620000c6565b826001600160a01b03163b6000036200006057604051632abab84d60e21b815260040160405180910390fd5b816000036200008257604051638b20344560e01b815260040160405180910390fd5b670de0b6b3a7640000811115620000ac57604051635bc3a4b960e01b815260040160405180910390fd5b6001600160a01b0390921660805260a05260c0526200010b565b600080600060608486031215620000dc57600080fd5b83516001600160a01b0381168114620000f457600080fd5b602085015160409095015190969495509392505050565b60805160a05160c0516137536200015e60003960008181610289015261272701526000818161026201528181612b380152612b69015260008181610486015281816115cb01526121a601526137536000f3fe608060405234801561001057600080fd5b50600436106101fb5760003560e01c8063932ede721161011a578063c2b0fc8d116100ad578063d7bbf2b61161007c578063d7bbf2b61461050c578063df501dab1461051f578063eab977fe14610532578063f4d77fca14610545578063fb12bb2b1461055857600080fd5b8063c2b0fc8d146104c0578063c3fe7091146104d3578063c7ddb6b2146104e6578063d78db5b6146104f957600080fd5b8063a7dccea6116100e9578063a7dccea61461043c578063aaf5eb681461044f578063af061aba1461045e578063af5934621461048157600080fd5b8063932ede72146103d35780639a1a8839146103e65780639b52ffea146103f9578063a0f7055e1461041957600080fd5b8063383b1c3511610192578063750607dd11610161578063750607dd146103875780637931b81a1461039a5780637b5332ef146103ad5780639131c34c146103c057600080fd5b8063383b1c35146103015780634e7e6b0a146103145780635cc6158f14610344578063645fd7181461036557600080fd5b806329320a4e116101ce57806329320a4e146102845780632ebf7762146102ab5780633470fcc9146102be5780633669fd54146102e157600080fd5b806304c8d5de146102005780631447af1a14610226578063217ee95014610248578063289945b71461025d575b600080fd5b61021361020e3660046130a9565b61056b565b6040519081526020015b60405180910390f35b6102396102343660046130d7565b610598565b60405161021d93929190613188565b61025b6102563660046131db565b610639565b005b6102137f000000000000000000000000000000000000000000000000000000000000000081565b6102137f000000000000000000000000000000000000000000000000000000000000000081565b61025b6102b9366004613223565b61064c565b6102d16102cc366004613258565b61065d565b604051901515815260200161021d565b6102f46102ef3660046132dc565b61069d565b60405161021d9190613359565b61021361030f3660046130a9565b61076e565b61032761032236600461336c565b61079b565b60408051931515845260208401929092529082015260600161021d565b61035761035236600461339c565b610807565b60405161021d9291906133fa565b6103786103733660046132dc565b610971565b60405161021d9392919061341f565b6102d161039536600461336c565b610b37565b6102f46103a83660046132dc565b610b5b565b6102396103bb366004613432565b610c1d565b6103276103ce366004613464565b610c5b565b61025b6103e136600461336c565b610ca7565b61025b6103f4366004613486565b610cb6565b6102136104073660046130a9565b60009081526020819052604090205490565b61042c6104273660046134bb565b610cc2565b60405161021d94939291906134e7565b61025b61044a36600461353f565b610f5c565b610213670de0b6b3a764000081565b61047161046c3660046134bb565b610f68565b60405161021d949392919061357e565b6104a87f000000000000000000000000000000000000000000000000000000000000000081565b6040516001600160a01b03909116815260200161021d565b61025b6104ce366004613258565b6111bf565b61025b6104e1366004613258565b6111ca565b6102d16104f4366004613464565b6111d6565b61021361050736600461336c565b6111f8565b61025b61051a366004613591565b61123d565b61035761052d36600461339c565b611248565b610213610540366004613464565b6113c6565b6103786105533660046132dc565b611400565b61025b610566366004613464565b6115a7565b6000610576826115b2565b61058257506000919050565b5060009081526020819052604090206004015490565b60608060606105a6876115b2565b6105fa5760005b6040519080825280602002602001820160405280156105d6578160200160208202803683370190505b5060408051600080825260208201908152818301909252919450909250905061062f565b6000878152602081815260408083206001600160a01b038a1684526003019091529020610628908686611659565b9250925092505b9450945094915050565b6106468484843385611823565b50505050565b610658838333846118e2565b505050565b6000838152602081905260408120610678600782018461195b565b8061069257506000848152600a8201602052604090205415155b9150505b9392505050565b6000838152602081905260409020606090826001600160401b038111156106c6576106c66135c8565b6040519080825280602002602001820160405280156106ef578160200160208202803683370190505b50915060005b8381101561076557610731858583818110610712576107126135de565b905060200201602081019061072791906135f4565b600784019061195b565b838281518110610743576107436135de565b911515602092830291909101909101528061075d81613627565b9150506106f5565b50509392505050565b6000610779826115b2565b61078557506000919050565b5060009081526020819052604090206001015490565b60008060006107a9856115b2565b6107bb57506000915081905080610800565b6000858152602081815260408083206001600160a01b0388168452600381019092529091206107ed600783018761195b565b8160000154826001015494509450945050505b9250925092565b606080836001600160401b03811115610822576108226135c8565b60405190808252806020026020018201604052801561084b578160200160208202803683370190505b509150836001600160401b03811115610866576108666135c8565b60405190808252806020026020018201604052801561088f578160200160208202803683370190505b50905061089b866115b2565b15610968576000868152602081905260408120905b858110156109655760008260060160008989858181106108d2576108d26135de565b9050602002013581526020019081526020016000206004016000876001600160a01b03166001600160a01b03168152602001908152602001600020905061091881611994565b86848151811061092a5761092a6135de565b60200260200101868581518110610943576109436135de565b602090810291909101019190915252508061095d81613627565b9150506108b0565b50505b94509492505050565b600083815260208190526040902060609081908190846001600160401b0381111561099e5761099e6135c8565b6040519080825280602002602001820160405280156109c7578160200160208202803683370190505b509350846001600160401b038111156109e2576109e26135c8565b604051908082528060200260200182016040528015610a0b578160200160208202803683370190505b509250846001600160401b03811115610a2657610a266135c8565b604051908082528060200260200182016040528015610a4f578160200160208202803683370190505b50915060005b85811015610b2c576000878783818110610a7157610a716135de565b9050602002016020810190610a8691906135f4565b6001600160a01b03811660009081526003850160205260409020909150610ab0600785018361195b565b878481518110610ac257610ac26135de565b9115156020928302919091019091015280548651879085908110610ae857610ae86135de565b6020026020010181815250508060010154858481518110610b0b57610b0b6135de565b60200260200101818152505050508080610b2490613627565b915050610a55565b505093509350939050565b6000828152602081905260408120610b52906007018361195b565b90505b92915050565b6000838152602081905260409020606090826001600160401b03811115610b8457610b846135c8565b604051908082528060200260200182016040528015610bad578160200160208202803683370190505b50915060005b8381101561076557610be9858583818110610bd057610bd06135de565b905060200201358360090161197c90919063ffffffff16565b838281518110610bfb57610bfb6135de565b9115156020928302919091019091015280610c1581613627565b915050610bb3565b6060806060610c2b876115b2565b610c365760006105ad565b6000878152602081815260408083208984526006019091529020610628908686611659565b6000806000610c69856115b2565b610c7b57506000915081905080610800565b600085815260208181526040808320878452600681018352818420600a820190935292205415156107ed565b610cb28282336119cf565b5050565b61065883833384611a41565b606080606080610cd1876115b2565b610d2d5760005b604051908082528060200260200182016040528015610d01578160200160208202803683370190505b506040805160008082526020820181815282840191825260608301909352929650945092509050610f53565b60008781526020819052604081206004810154909190610d4e908989611a65565b9050806001600160401b03811115610d6857610d686135c8565b604051908082528060200260200182016040528015610d91578160200160208202803683370190505b509550806001600160401b03811115610dac57610dac6135c8565b604051908082528060200260200182016040528015610dd5578160200160208202803683370190505b509450806001600160401b03811115610df057610df06135c8565b604051908082528060200260200182016040528015610e19578160200160208202803683370190505b509350806001600160401b03811115610e3457610e346135c8565b604051908082528060200260200182016040528015610e5d578160200160208202803683370190505b50925060005b81811015610f4f57600060048401610e7b838c613640565b81548110610e8b57610e8b6135de565b906000526020600020015490506000846006016000838152602001908152602001600020905081898481518110610ec457610ec46135de565b6020026020010181815250508060000154888481518110610ee757610ee76135de565b6020026020010181815250508060010154878481518110610f0a57610f0a6135de565b602090810291909101015260028101548651879085908110610f2e57610f2e6135de565b60200260200101818152505050508080610f4790613627565b915050610e63565b5050505b93509350935093565b61064684848484611aa4565b606080606080610f77876115b2565b610f82576000610cd8565b60008781526020819052604081206001810154909190610fa3908989611a65565b9050806001600160401b03811115610fbd57610fbd6135c8565b604051908082528060200260200182016040528015610fe6578160200160208202803683370190505b509550806001600160401b03811115611001576110016135c8565b60405190808252806020026020018201604052801561102a578160200160208202803683370190505b509450806001600160401b03811115611045576110456135c8565b60405190808252806020026020018201604052801561106e578160200160208202803683370190505b509350806001600160401b03811115611089576110896135c8565b6040519080825280602002602001820160405280156110b2578160200160208202803683370190505b50925060005b81811015610f4f576000600184016110d0838c613640565b815481106110e0576110e06135de565b60009182526020808320909101546001600160a01b031680835260038701909152604090912089519192509082908a9085908110611120576111206135de565b60200260200101906001600160a01b031690816001600160a01b0316815250508060000154888481518110611157576111576135de565b602002602001018181525050806001015487848151811061117a5761117a6135de565b60209081029190910101526002810154865187908590811061119e5761119e6135de565b602002602001018181525050505080806111b790613627565b9150506110b8565b610658838383611b74565b61065883838333611be5565b600082815260208181526040808320848452600a019091528120541515610b52565b6000611203836115b2565b61120f57506000610b55565b506000828152602081815260408083206001600160a01b038516845260030190915290206002015492915050565b610658838383611c6f565b606080836001600160401b03811115611263576112636135c8565b60405190808252806020026020018201604052801561128c578160200160208202803683370190505b509150836001600160401b038111156112a7576112a76135c8565b6040519080825280602002602001820160405280156112d0578160200160208202803683370190505b5090506112dc866115b2565b15610968576000868152602081905260408120905b85811015610965576000826003016000898985818110611313576113136135de565b905060200201602081019061132891906135f4565b6001600160a01b03166001600160a01b031681526020019081526020016000206004016000876001600160a01b03166001600160a01b03168152602001908152602001600020905061137981611994565b86848151811061138b5761138b6135de565b602002602001018685815181106113a4576113a46135de565b60209081029190910101919091525250806113be81613627565b9150506112f1565b60006113d1836115b2565b6113dd57506000610b55565b506000918252602082815260408084209284526006909201905290206002015490565b600083815260208190526040902060609081908190846001600160401b0381111561142d5761142d6135c8565b604051908082528060200260200182016040528015611456578160200160208202803683370190505b509350846001600160401b03811115611471576114716135c8565b60405190808252806020026020018201604052801561149a578160200160208202803683370190505b509250846001600160401b038111156114b5576114b56135c8565b6040519080825280602002602001820160405280156114de578160200160208202803683370190505b50915060005b85811015610b2c576000878783818110611500576115006135de565b6020908102929092013560008181526006870184526040808220600a89019095529020549093501515905087848151811061153d5761153d6135de565b9115156020928302919091019091015280548651879085908110611563576115636135de565b6020026020010181815250508060010154858481518110611586576115866135de565b6020026020010181815250505050808061159f90613627565b9150506114e4565b610cb2828233611c94565b6040516331a9108f60e11b8152600481018290526000907f00000000000000000000000000000000000000000000000000000000000000006001600160a01b031690636352211e90602401602060405180830381865afa925050508015611636575060408051601f3d908101601f1916820190925261163391810190613653565b60015b61164257506000919050565b6001600160a01b03163b151592915050565b919050565b6060806060600061167287600201805490508787611a65565b9050806001600160401b0381111561168c5761168c6135c8565b6040519080825280602002602001820160405280156116b5578160200160208202803683370190505b509350806001600160401b038111156116d0576116d06135c8565b6040519080825280602002602001820160405280156116f9578160200160208202803683370190505b509250806001600160401b03811115611714576117146135c8565b60405190808252806020026020018201604052801561173d578160200160208202803683370190505b50915060005b81811015610b2c5760006002890161175b838a613640565b8154811061176b5761176b6135de565b60009182526020808320909101546001600160a01b031680835260048c01909152604090912087519192509082908890859081106117ab576117ab6135de565b60200260200101906001600160a01b031690816001600160a01b0316815250506117d481611994565b8785815181106117e6576117e66135de565b602002602001018786815181106117ff576117ff6135de565b6020908102919091010191909152525081905061181b81613627565b915050611743565b61182d8484611cd8565b60006118738660405180606001604052806000600181111561185157611851613670565b8152602001876001600160a01b03168152602001600081525085856000611d20565b90506118ad86604051806060016040528060018081111561189657611896613670565b815260006020820152604001889052858585611d20565b9050806000036118d05760405163ae1e3f9160e01b815260040160405180910390fd5b6118da8682611e8a565b505050505050565b600061192785604051806060016040528060018081111561190557611905613670565b815260200160006001600160a01b031681526020018781525085856000611d20565b90508060000361194a5760405163ae1e3f9160e01b815260040160405180910390fd5b6119548582611e8a565b5050505050565b6001600160a01b031660009081526001919091016020526040902054151590565b60009081526001919091016020526040902054151590565b60008082600101546000036119ae57506000928392509050565b825460ff16156119c45750506001015490600090565b505060010154600091565b6000611a14846040518060600160405280600060018111156119f3576119f3613670565b8152602001866001600160a01b031681526020016000815250846000611ec8565b905080600003611a3757604051632959795760e21b815260040160405180910390fd5b6106468482611e8a565b60006119278560405180606001604052806000600181111561185157611851613670565b6000811580611a745750838310155b15611a8157506000610696565b6000611a8d8486613686565b9050828110611a9c5782610692565b949350505050565b611aae8383611cd8565b600080611af486604051806060016040528060006001811115611ad357611ad3613670565b8152602001876001600160a01b031681526020016000815250856000611f80565b91509150600080611b32886040518060600160405280600180811115611b1c57611b1c613670565b8152600060208201526040018a90528786611f80565b9150915083158015611b42575081155b15611b6057604051632959795760e21b815260040160405180910390fd5b611b6a88826120e8565b5050505050505050565b600080611bb9856040518060600160405280600180811115611b9857611b98613670565b815260200160006001600160a01b0316815260200187815250856000611f80565b9150915081611bdb57604051632959795760e21b815260040160405180910390fd5b61195485826120e8565b611bef8383611cd8565b6000611c13856040518060600160405280600060018111156119f3576119f3613670565b9050611c4c856040518060600160405280600180811115611c3657611c36613670565b8152600060208201526040018790528484611ec8565b90508060000361194a57604051632959795760e21b815260040160405180910390fd5b600080611bb985604051806060016040528060006001811115611ad357611ad3613670565b6000611a14846040518060600160405280600180811115611cb757611cb7613670565b815260200160006001600160a01b0316815260200186815250846000611ec8565b81600003611cf95760405163241414c160e01b815260040160405180910390fd5b6001600160a01b038116610cb257604051630f8f1db760e31b815260040160405180910390fd5b6000611d2b85612120565b6000611d368761218d565b90506000611d4582898861225b565b905080600003611d6857604051632112c77f60e01b815260040160405180910390fd5b6000611d74838a6122ec565b60008a8152602081905260408120919250611d8f828b612374565b6001600160a01b038a1660009081526004820160205260409020600181015491925090158015908190611dc95750815460ff1615158a1515145b8015611dd85750858260010154145b15611df857611dea848e8e888d6123ce565b975050505050505050611e81565b80611e1657611e07848d612431565b611e11838c612467565b611e2e565b81546001830154611e2e91859160ff909116906124d6565b611e39838b88612519565b815460ff19168a151517825560018201869055611e56848a612547565b9850611e67848e8e8e8e8b8f612570565b611e74848e8e888d6123ce565b9850889750505050505050505b95945050505050565b817f0a5b85691228ea76b08c4464e659ff23585cb755ccbe6638de429c63e22cfbd682604051611ebc91815260200190565b60405180910390a25050565b6000611ed384612120565b6000611ede8661218d565b90506000611eec82886122ec565b6000888152602081905260408120919250611f078289612374565b6001600160a01b038816600090815260048201602052604081206001810154929350919003611f3d578695505050505050611a9c565b611f4983838b8b61267b565b611f538388612547565b9650611f65838b8b8b6000808d612570565b611f72838b8b878b6123ce565b9a9950505050505050505050565b600080611f8c85612120565b6000611f978761218d565b90506000611fa582896122ec565b6000898152602081905260408120919250611fc0828a612374565b6001600160a01b038916600090815260048201602052604081206001810154929350919003611ffa57600088965096505050505050610968565b6000612007868d8c61225b565b90508160010154810361203557612021848d8d888d6123ce565b985060018997509750505050505050610968565b8154600183015461204d91859160ff909116906124d6565b8060000361208a5761206184848d8d6126b5565b61206b848a612547565b985061207d848d8d8d6000808f612570565b612021848d8d888d6123ce565b815461209b90849060ff1683612519565b600182018190556120ac848a612547565b82549099506120c79085908e908e908e9060ff16868f612570565b6120d4848d8d888d6123ce565b60019d909c509a5050505050505050505050565b8015610cb257817f0a5b85691228ea76b08c4464e659ff23585cb755ccbe6638de429c63e22cfbd682604051611ebc91815260200190565b60008151600181111561213557612135613670565b036121685760208101516001600160a01b031661216557604051630f8f1db760e31b815260040160405180910390fd5b50565b80604001516000036121655760405163241414c160e01b815260040160405180910390fd5b6040516331a9108f60e11b8152600481018290526000907f00000000000000000000000000000000000000000000000000000000000000006001600160a01b031690636352211e90602401602060405180830381865afa925050508015612211575060408051601f3d908101601f1916820190925261220e91810190613653565b60015b61222e5760405163545cc5db60e11b815260040160405180910390fd5b9050806001600160a01b03163b6000036116545760405163545cc5db60e11b815260040160405180910390fd5b6040516321ba52fd60e01b8152600481018390526001600160a01b038281166024830152600091908516906321ba52fd90604401602060405180830381865afa9250505080156122c8575060408051601f3d908101601f191682019092526122c591810190613699565b60015b6122e55760405163545cc5db60e11b815260040160405180910390fd5b9050610696565b60405163c9b84e8960e01b8152600481018290526000906001600160a01b0384169063c9b84e8990602401602060405180830381865afa925050508015612350575060408051601f3d908101601f1916820190925261234d91810190613699565b60015b61236d5760405163545cc5db60e11b815260040160405180910390fd5b9050610b55565b6000808251600181111561238a5761238a613670565b036123b457506020808201516001600160a01b031660009081526003840190915260409020610b55565b506040808201516000908152600684016020522092915050565b6000806123e46123de8887612374565b856126fb565b90508015156123f3888761276a565b1515036124035782915050611e81565b61240d8784612547565b925061241a8786836127b3565b61242686868386612825565b509095945050505050565b60008151600181111561244657612446613670565b0361245957610cb28282602001516128e7565b610cb2828260400151612955565b6001600160a01b03811660009081526003830160205260409020541561248b575050565b6002820180546001810182556000828152602080822090920180546001600160a01b039095166001600160a01b03199095168517905591549282526003909301909252604090912055565b81156124fb57808360000160008282546124f09190613686565b909155506106589050565b8083600101600082825461250f9190613686565b9091555050505050565b811561253357808360000160008282546124f09190613640565b8083600101600082825461250f9190613640565b60008160000361256a57826000016000815461256290613627565b918290555091505b50919050565b600061257c8887612374565b905060008651600181111561259357612593613670565b0361260957602080870151825460018401546040805189151581529485018890528401919091526060830152608082018490526001600160a01b038088169291169089907f75ac9a6bd88eafaedd997ee29c295c61da331d5b54d385b0b02a15e2120fd8c49060a00160405180910390a4611b6a565b604080870151825460018401548351881515815260208101889052938401919091526060830152608082018490526001600160a01b0387169189907f3d0b4e01865832c1bb26f2f9f6325845c0d7441513121d4b92776f24595ffa559060a00160405180910390a45050505050505050565b6001600160a01b03811660009081526004840160205260409020805460018201546126ad91869160ff909116906124d6565b611954858585855b6001600160a01b03811660009081526004840160205260408120805460ff19168155600101556126e583826129a0565b6002830154600003610646576106468483612ad6565b60008160000361270d57506000610b55565b61271683612b0c565b61272257506000610b55565b61274c7f0000000000000000000000000000000000000000000000000000000000000000836136b2565b835461276190670de0b6b3a7640000906136b2565b10159392505050565b6000808251600181111561278057612780613670565b0361279857602082015161236d90600785019061195b565b6040828101516000908152600a850160205220541515610b52565b6000825160018111156127c8576127c8613670565b036127f95780156127e6576020820151610646906007850190612bab565b6020820151610646906007850190612c0c565b8015612812576040820151610646906009850190612d43565b6040820151610646906009850190612d8f565b60008351600181111561283a5761283a613670565b036128975782602001516001600160a01b0316847fb9b569d1c7c4e291578d93612a895923231e50cd4c373d8203fe56ad18495cd8848460405161288a9291909115158252602082015260400190565b60405180910390a3610646565b8260400151847f66c93b23fc96d9b2dd88b4c3d0212c2b9ba23a4a01b60e05fcc0b25ef900052684846040516128d99291909115158252602082015260400190565b60405180910390a350505050565b6001600160a01b03811660009081526002830160205260409020541561290b575050565b6001808301805491820181556000818152602080822090930180546001600160a01b039095166001600160a01b031990951685179055905492815260029093019052604090912055565b60008181526005830160205260409020541561296f575050565b6004820180546001810182556000828152602080822090920184905591549282526005909301909252604090912055565b6001600160a01b0381166000908152600383016020526040812054908190036129c857505050565b60006129d5600183613686565b60028501549091506000906129ec90600190613686565b9050808214612a7a576000856002018281548110612a0c57612a0c6135de565b6000918252602090912001546002870180546001600160a01b039092169250829185908110612a3d57612a3d6135de565b600091825260208083209190910180546001600160a01b0319166001600160a01b0394851617905592909116815260038701909152604090208390555b84600201805480612a8d57612a8d6136c9565b60008281526020808220830160001990810180546001600160a01b03191690559092019092556001600160a01b0395909516815260039095019093525050604082209190915550565b600081516001811115612aeb57612aeb613670565b03612afe57610cb2828260200151612e84565b610cb2828260400151612fb9565b60008160010154600003612b21575054151590565b60018201548254600091612b34916136f5565b90507f0000000000000000000000000000000000000000000000000000000000000000811115612b675750600192915050565b7f000000000000000000000000000000000000000000000000000000000000000081148015610696575060018301548354612ba29190613709565b15159392505050565b6000612bb7838361195b565b15612bc457506000610b55565b508154600180820184556000848152602080822090930180546001600160a01b0319166001600160a01b03959095169485179055845493815293810190915260409092205590565b6001600160a01b0381166000908152600183016020526040812054808203612c38576000915050610b55565b6000612c45600183613686565b8554909150600090612c5990600190613686565b9050808214612ce5576000866000018281548110612c7957612c796135de565b60009182526020909120015487546001600160a01b0390911691508190889085908110612ca857612ca86135de565b600091825260208083209190910180546001600160a01b0319166001600160a01b0394851617905592909116815260018801909152604090208390555b8554869080612cf657612cf66136c9565b60008281526020808220830160001990810180546001600160a01b03191690559092019092556001600160a01b038716825260018881019091526040822091909155935050505092915050565b600081815260018301602052604081205415612d6157506000610b55565b5081546001808201845560008481526020808220909301849055845493815293810190915260409092205590565b6000818152600183016020526040812054808203612db1576000915050610b55565b6000612dbe600183613686565b8554909150600090612dd290600190613686565b9050808214612e37576000866000018281548110612df257612df26135de565b9060005260206000200154905080876000018481548110612e1557612e156135de565b6000918252602080832090910192909255918252600188019052604090208390555b8554869080612e4857612e486136c9565b60019003818190600052602060002001600090559055856001016000868152602001908152602001600020600090556001935050505092915050565b6001600160a01b038116600090815260028301602052604081205490819003612eac57505050565b6000612eb9600183613686565b600185810154919250600091612ecf9190613686565b9050808214612f5d576000856001018281548110612eef57612eef6135de565b6000918252602090912001546001870180546001600160a01b039092169250829185908110612f2057612f206135de565b600091825260208083209190910180546001600160a01b0319166001600160a01b0394851617905592909116815260028701909152604090208390555b84600101805480612f7057612f706136c9565b60008281526020808220830160001990810180546001600160a01b03191690559092019092556001600160a01b0395909516815260029095019093525050604082209190915550565b600081815260058301602052604081205490819003612fd757505050565b6000612fe4600183613686565b6004850154909150600090612ffb90600190613686565b905080821461306057600085600401828154811061301b5761301b6135de565b906000526020600020015490508086600401848154811061303e5761303e6135de565b6000918252602080832090910192909255918252600587019052604090208390555b84600401805480613073576130736136c9565b60019003818190600052602060002001600090559055846005016000858152602001908152602001600020600090555050505050565b6000602082840312156130bb57600080fd5b5035919050565b6001600160a01b038116811461216557600080fd5b600080600080608085870312156130ed57600080fd5b8435935060208501356130ff816130c2565b93969395505050506040820135916060013590565b600081518084526020808501945080840160005b8381101561314d5781516001600160a01b031687529582019590820190600101613128565b509495945050505050565b600081518084526020808501945080840160005b8381101561314d5781518752958201959082019060010161316c565b60608152600061319b6060830186613114565b82810360208401526131ad8186613158565b905082810360408401526131c18185613158565b9695505050505050565b8035801515811461165457600080fd5b600080600080608085870312156131f157600080fd5b8435935060208501359250604085013561320a816130c2565b9150613218606086016131cb565b905092959194509250565b60008060006060848603121561323857600080fd5b833592506020840135915061324f604085016131cb565b90509250925092565b60008060006060848603121561326d57600080fd5b83359250602084013591506040840135613286816130c2565b809150509250925092565b60008083601f8401126132a357600080fd5b5081356001600160401b038111156132ba57600080fd5b6020830191508360208260051b85010111156132d557600080fd5b9250929050565b6000806000604084860312156132f157600080fd5b8335925060208401356001600160401b0381111561330e57600080fd5b61331a86828701613291565b9497909650939450505050565b600081518084526020808501945080840160005b8381101561314d57815115158752958201959082019060010161333b565b602081526000610b526020830184613327565b6000806040838503121561337f57600080fd5b823591506020830135613391816130c2565b809150509250929050565b600080600080606085870312156133b257600080fd5b8435935060208501356001600160401b038111156133cf57600080fd5b6133db87828801613291565b90945092505060408501356133ef816130c2565b939692955090935050565b60408152600061340d6040830185613158565b82810360208401526106928185613158565b60608152600061319b6060830186613327565b6000806000806080858703121561344857600080fd5b5050823594602084013594506040840135936060013592509050565b6000806040838503121561347757600080fd5b50508035926020909101359150565b60008060006060848603121561349b57600080fd5b8335925060208401356134ad816130c2565b915061324f604085016131cb565b6000806000606084860312156134d057600080fd5b505081359360208301359350604090920135919050565b6080815260006134fa6080830187613158565b828103602084015261350c8187613158565b905082810360408401526135208186613158565b905082810360608401526135348185613158565b979650505050505050565b6000806000806080858703121561355557600080fd5b8435935060208501359250604085013561356e816130c2565b915060608501356133ef816130c2565b6080815260006134fa6080830187613114565b6000806000606084860312156135a657600080fd5b8335925060208401356135b8816130c2565b91506040840135613286816130c2565b634e487b7160e01b600052604160045260246000fd5b634e487b7160e01b600052603260045260246000fd5b60006020828403121561360657600080fd5b8135610696816130c2565b634e487b7160e01b600052601160045260246000fd5b60006001820161363957613639613611565b5060010190565b80820180821115610b5557610b55613611565b60006020828403121561366557600080fd5b8151610696816130c2565b634e487b7160e01b600052602160045260246000fd5b81810381811115610b5557610b55613611565b6000602082840312156136ab57600080fd5b5051919050565b8082028115828204841417610b5557610b55613611565b634e487b7160e01b600052603160045260246000fd5b634e487b7160e01b600052601260045260246000fd5b600082613704576137046136df565b500490565b600082613718576137186136df565b50069056fea26469706673582212203bf54c0f50ac28411965d02bb5f9a040bc324a9e91c95bdd6c6ef91d29f2745364736f6c63430008110033","linkReferences":{}},"methodIdentifiers":{"BAN_THRESHOLD_RATIO()":"29320a4e","GROUP_ADDRESS()":"af593462","MIN_SUPPORT_TO_OPPOSE_RATIO()":"289945b7","PRECISION()":"aaf5eb68","clearVoteBySender(uint256,uint256,address)":"c3fe7091","clearVoteBySenderAddress(uint256,address)":"932ede72","clearVoteBySenderId(uint256,uint256)":"fb12bb2b","isAddressBanned(uint256,address)":"750607dd","isAddressBannedBatch(uint256,address[])":"3669fd54","isBanned(uint256,uint256,address)":"3470fcc9","isSenderIdBanned(uint256,uint256)":"c7ddb6b2","isSenderIdBannedBatch(uint256,uint256[])":"7931b81a","refreshVoteBySender(uint256,uint256,address,address)":"a7dccea6","refreshVoteBySenderAddress(uint256,address,address)":"d7bbf2b6","refreshVoteBySenderId(uint256,uint256,address)":"c2b0fc8d","stateVersion(uint256)":"9b52ffea","voteBySender(uint256,uint256,address,bool)":"217ee950","voteBySenderAddress(uint256,address,bool)":"9a1a8839","voteBySenderId(uint256,uint256,bool)":"2ebf7762","voteStatusBySenderAddress(uint256,address)":"4e7e6b0a","voteStatusBySenderAddresses(uint256,address[])":"645fd718","voteStatusBySenderId(uint256,uint256)":"9131c34c","voteStatusBySenderIds(uint256,uint256[])":"f4d77fca","voteWeightsBySenderAddressesByVoter(uint256,address[],address)":"df501dab","voteWeightsBySenderIdsByVoter(uint256,uint256[],address)":"5cc6158f","votedSenderAddresses(uint256,uint256,uint256)":"af061aba","votedSenderAddressesCount(uint256)":"383b1c35","votedSenderIds(uint256,uint256,uint256)":"a0f7055e","votedSenderIdsCount(uint256)":"04c8d5de","votersBySenderAddress(uint256,address,uint256,uint256)":"1447af1a","votersBySenderAddressCount(uint256,address)":"d78db5b6","votersBySenderId(uint256,uint256,uint256,uint256)":"7b5332ef","votersBySenderIdCount(uint256,uint256)":"eab977fe"},"id":46}