{"abi":[{"type":"constructor","inputs":[],"stateMutability":"nonpayable"},{"type":"function","name":"addStake","inputs":[{"name":"amount","type":"uint256","internalType":"uint256"},{"name":"account","type":"address","internalType":"address"}],"outputs":[{"name":"","type":"uint256","internalType":"uint256"}],"stateMutability":"nonpayable"},{"type":"function","name":"getRandomAccounts","inputs":[{"name":"seed","type":"uint256","internalType":"uint256"},{"name":"numAccounts","type":"uint256","internalType":"uint256"}],"outputs":[{"name":"","type":"address[]","internalType":"address[]"}],"stateMutability":"view"},{"type":"function","name":"getStakeAmount","inputs":[{"name":"account","type":"address","internalType":"address"}],"outputs":[{"name":"","type":"uint256","internalType":"uint256"}],"stateMutability":"view"},{"type":"function","name":"getTotalStake","inputs":[],"outputs":[{"name":"","type":"uint256","internalType":"uint256"}],"stateMutability":"view"},{"type":"function","name":"getUserCount","inputs":[],"outputs":[{"name":"","type":"uint256","internalType":"uint256"}],"stateMutability":"view"},{"type":"function","name":"removeStake","inputs":[{"name":"account","type":"address","internalType":"address"}],"outputs":[{"name":"","type":"uint256","internalType":"uint256"}],"stateMutability":"nonpayable"},{"type":"function","name":"setAccounts","inputs":[{"name":"seed","type":"uint256","internalType":"uint256"},{"name":"numAccounts","type":"uint256","internalType":"uint256"}],"outputs":[{"name":"","type":"address[]","internalType":"address[]"}],"stateMutability":"nonpayable"},{"type":"event","name":"StakeAdded","inputs":[{"name":"account","type":"address","indexed":true,"internalType":"address"},{"name":"amount","type":"uint256","indexed":false,"internalType":"uint256"},{"name":"index","type":"uint256","indexed":false,"internalType":"uint256"}],"anonymous":false},{"type":"event","name":"StakeRemoved","inputs":[{"name":"account","type":"address","indexed":true,"internalType":"address"},{"name":"amount","type":"uint256","indexed":false,"internalType":"uint256"}],"anonymous":false}],"bytecode":{"object":"0x608060405234801561001057600080fd5b50610e22806100206000396000f3fe608060405234801561001057600080fd5b506004361061007d5760003560e01c8063b5cb15f71161005b578063b5cb15f7146100c3578063d8bb894b146100cb578063ded93912146100eb578063fe2ba848146100fe57600080fd5b80630c2eb403146100825780632d49aa1c146100a85780637bc74225146100bb575b600080fd5b610095610090366004610c72565b610111565b6040519081526020015b60405180910390f35b6100956100b6366004610c8d565b610123565b61009561017f565b600354610095565b6100de6100d9366004610cb9565b610190565b60405161009f9190610cdb565b6100de6100f9366004610cb9565b6101a5565b61009561010c366004610c72565b61022b565b600061011d8183610283565b92915050565b6000806101318185856102c1565b60408051868152602081018390529192506001600160a01b038516917f270d6dd254edd1d985c81cf7861b8f28fb06b6d719df04d90464034d43412440910160405180910390a29392505050565b600061018b60006103b0565b905090565b606061019e600084846103df565b9392505050565b60606101b3600084846103df565b80516101c791600691602090910190610bdc565b50600680548060200260200160405190810160405280929190818152602001828054801561021e57602002820191906000526020600020905b81546001600160a01b03168152600190910190602001808311610200575b5050505050905092915050565b600080610238818461045d565b9050826001600160a01b03167fa018dcbc822f59fb0d0c3e7a86c8e4259b9676cdea9e5fc26279b9c4c5d86eef8260405161027591815260200190565b60405180910390a292915050565b6001600160a01b03811660009081526002830160205260408120548082036102af57600091505061011d565b6102b984826105b7565b949350505050565b6001600160a01b03811660009081526002840160205260408120548082036103a557600585015460ff166103085760016004860181905560058601805460ff191690911790555b60038501805490600061031a83610d3e565b9091555050506003840180546000818152600187016020908152604080832080546001600160a01b0319166001600160a01b038916908117909155835260028901909152902081905560048601549154909190036103a5576003850154610382906002610d57565b600486018190556003860154600090815260208790526040808220549282529020555b6102b98582866105fe565b600081600301546000036103c657506000919050565b5060048101546000908152602091909152604090205490565b60608115806103f057506003840154155b156104295760005b604051908082528060200260200182016040528015610421578160200160208202803683370190505b50905061019e565b600061043e8484610439886103b0565b61064c565b90506000610453868360008960030154610750565b9695505050505050565b6001600160a01b038116600090815260028301602052604081205480820361048957600091505061011d565b600061049585836105b7565b60038601549091508281036104ee576104af86848461096c565b6001600160a01b0385166000908152600287016020908152604080832083905585835260018901909152902080546001600160a01b0319169055610596565b60006104fa87836105b7565b90508281111561051d5761051887856105138685610d84565b6105fe565b610531565b610531878561052c8487610d84565b61096c565b61053c87838361096c565b5060008181526001870160209081526040808320805487855282852080546001600160a01b039283166001600160a01b0319918216811790925590865260028c019094528285208890558154909316905590871682528120555b6003860180549060006105a883610d97565b90915550919695505050505050565b60008115806105c95750826003015482115b156105d65750600061011d565b6105ea836105e5600185610d84565b6109b4565b6105f484846109b4565b61019e9190610d84565b815b836004015481116106465760008181526020859052604081208054849290610629908490610dae565b90915550508019600101811661063f9082610dae565b9050610600565b50505050565b6060811580610659575082155b156106655760006103f8565b60008367ffffffffffffffff81111561068057610680610d6e565b6040519080825280602002602001820160405280156106a9578160200160208202803683370190505b50905060006106b88585610dd7565b9050600081876040516020016106d091815260200190565b6040516020818303038152906040528051906020012060001c6106f39190610deb565b905060005b86811015610744578161070b8483610d57565b6107159190610dae565b84828151811061072757610727610dff565b60209081029190910101528061073c81610d3e565b9150506106f8565b50919695505050505050565b6060835160000361077057506040805160008152602081019091526102b9565b6000845167ffffffffffffffff81111561078c5761078c610d6e565b6040519080825280602002602001820160405280156107b5578160200160208202803683370190505b509050826107c4856001610dae565b03610834576040805160018082528183019092529060208083019080368337505050600084815260018801602052604081205482519293506001600160a01b03169183919061081557610815610dff565b6001600160a01b039092166020928302919091019091015290506102b9565b60006108408585610a2c565b9050600080610858886108538b866109b4565b610a69565b91509150600061086a8a848a87610750565b9050600061087a8b84878b610750565b90506000805b83518110156108eb5783818151811061089b5761089b610dff565b60200260200101518883806108af90610d3e565b9450815181106108c1576108c1610dff565b6001600160a01b0390921660209283029190910190910152806108e381610d3e565b915050610880565b5060005b825181101561095a5782818151811061090a5761090a610dff565b602002602001015188838061091e90610d3e565b94508151811061093057610930610dff565b6001600160a01b03909216602092830291909101909101528061095281610d3e565b9150506108ef565b50865250939998505050505050505050565b815b836004015481116106465760008181526020859052604081208054849290610997908490610d84565b9091555050801960010181166109ad9082610dae565b905061096e565b60008115806109c557506003830154155b156109d25750600061011d565b600383015482908111156109e7575060038301545b6000815b8015610a2357600081815260208790526040902054610a0a9083610dae565b9150610a1c6001821901821682610d84565b90506109eb565b50949350505050565b600060015b610a3b8484610d84565b811015610a5457610a4d600282610d57565b9050610a31565b610a5f600282610dd7565b6102b99085610dae565b6060806000845167ffffffffffffffff811115610a8857610a88610d6e565b604051908082528060200260200182016040528015610ab1578160200160208202803683370190505b5090506000855167ffffffffffffffff811115610ad057610ad0610d6e565b604051908082528060200260200182016040528015610af9578160200160208202803683370190505b50905060008060005b8851811015610bcb5787898281518110610b1e57610b1e610dff565b602002602001015111610b7457888181518110610b3d57610b3d610dff565b6020026020010151858480610b5190610d3e565b955081518110610b6357610b63610dff565b602002602001018181525050610bb9565b888181518110610b8657610b86610dff565b6020026020010151848380610b9a90610d3e565b945081518110610bac57610bac610dff565b6020026020010181815250505b80610bc381610d3e565b915050610b02565b509083528152909590945092505050565b828054828255906000526020600020908101928215610c31579160200282015b82811115610c3157825182546001600160a01b0319166001600160a01b03909116178255602090920191600190910190610bfc565b50610c3d929150610c41565b5090565b5b80821115610c3d5760008155600101610c42565b80356001600160a01b0381168114610c6d57600080fd5b919050565b600060208284031215610c8457600080fd5b61019e82610c56565b60008060408385031215610ca057600080fd5b82359150610cb060208401610c56565b90509250929050565b60008060408385031215610ccc57600080fd5b50508035926020909101359150565b6020808252825182820181905260009190848201906040850190845b81811015610d1c5783516001600160a01b031683529284019291840191600101610cf7565b50909695505050505050565b634e487b7160e01b600052601160045260246000fd5b600060018201610d5057610d50610d28565b5060010190565b808202811582820484141761011d5761011d610d28565b634e487b7160e01b600052604160045260246000fd5b8181038181111561011d5761011d610d28565b600081610da657610da6610d28565b506000190190565b8082018082111561011d5761011d610d28565b634e487b7160e01b600052601260045260246000fd5b600082610de657610de6610dc1565b500490565b600082610dfa57610dfa610dc1565b500690565b634e487b7160e01b600052603260045260246000fdfea164736f6c6343000811000a","linkReferences":{}},"methodIdentifiers":{"addStake(uint256,address)":"2d49aa1c","getRandomAccounts(uint256,uint256)":"d8bb894b","getStakeAmount(address)":"0c2eb403","getTotalStake()":"7bc74225","getUserCount()":"b5cb15f7","removeStake(address)":"fe2ba848","setAccounts(uint256,uint256)":"ded93912"},"id":127}