{"abi":[{"type":"constructor","inputs":[{"name":"_fenwickTreeContract","type":"address","internalType":"address"}],"stateMutability":"nonpayable"},{"type":"function","name":"batchAdd","inputs":[{"name":"accounts","type":"address[]","internalType":"address[]"},{"name":"amounts","type":"uint256[]","internalType":"uint256[]"}],"outputs":[],"stateMutability":"nonpayable"},{"type":"function","name":"batchAddSequential","inputs":[{"name":"startNonce","type":"uint256","internalType":"uint256"},{"name":"count","type":"uint256","internalType":"uint256"},{"name":"amount","type":"uint256","internalType":"uint256"}],"outputs":[],"stateMutability":"nonpayable"},{"type":"function","name":"fenwickTree","inputs":[],"outputs":[{"name":"","type":"address","internalType":"contract FenwickTreeTestContract"}],"stateMutability":"view"}],"bytecode":{"object":"0x608060405234801561001057600080fd5b506040516104a43803806104a483398101604081905261002f91610054565b600080546001600160a01b0319166001600160a01b0392909216919091179055610084565b60006020828403121561006657600080fd5b81516001600160a01b038116811461007d57600080fd5b9392505050565b610411806100936000396000f3fe608060405234801561001057600080fd5b50600436106100415760003560e01c8063523ee6541461004657806360d1d1f31461005b578063647dce0f1461008a575b600080fd5b610059610054366004610279565b61009d565b005b60005461006e906001600160a01b031681565b6040516001600160a01b03909116815260200160405180910390f35b6100596100983660046102f1565b610148565b60005b828110156101425760006100b48286610373565b600054604051630b526a8760e21b8152600481018690526001600160a01b038084166024830152929350911690632d49aa1c906044016020604051808303816000875af1158015610109573d6000803e3d6000fd5b505050506040513d601f19601f8201168201806040525081019061012d919061038c565b5050808061013a906103a5565b9150506100a0565b50505050565b8281146101935760405162461bcd60e51b8152602060048201526015602482015274082e4e4c2f240d8cadccee8d040dad2e6dac2e8c6d605b1b604482015260640160405180910390fd5b60005b83811015610272576000546001600160a01b0316632d49aa1c8484848181106101c1576101c16103be565b905060200201358787858181106101da576101da6103be565b90506020020160208101906101ef91906103d4565b6040516001600160e01b031960e085901b16815260048101929092526001600160a01b031660248201526044016020604051808303816000875af115801561023b573d6000803e3d6000fd5b505050506040513d601f19601f8201168201806040525081019061025f919061038c565b508061026a816103a5565b915050610196565b5050505050565b60008060006060848603121561028e57600080fd5b505081359360208301359350604090920135919050565b60008083601f8401126102b757600080fd5b50813567ffffffffffffffff8111156102cf57600080fd5b6020830191508360208260051b85010111156102ea57600080fd5b9250929050565b6000806000806040858703121561030757600080fd5b843567ffffffffffffffff8082111561031f57600080fd5b61032b888389016102a5565b9096509450602087013591508082111561034457600080fd5b50610351878288016102a5565b95989497509550505050565b634e487b7160e01b600052601160045260246000fd5b808201808211156103865761038661035d565b92915050565b60006020828403121561039e57600080fd5b5051919050565b6000600182016103b7576103b761035d565b5060010190565b634e487b7160e01b600052603260045260246000fd5b6000602082840312156103e657600080fd5b81356001600160a01b03811681146103fd57600080fd5b939250505056fea164736f6c6343000811000a","linkReferences":{}},"methodIdentifiers":{"batchAdd(address[],uint256[])":"647dce0f","batchAddSequential(uint256,uint256,uint256)":"523ee654","fenwickTree()":"60d1d1f3"},"id":126}