{"abi":[{"type":"constructor","inputs":[{"name":"groupChat_","type":"address","internalType":"address"},{"name":"banSource_","type":"address","internalType":"address"},{"name":"beforePostPlugin_","type":"address","internalType":"address"},{"name":"afterPostPlugin_","type":"address","internalType":"address"},{"name":"extensionCenter_","type":"address","internalType":"address"}],"stateMutability":"nonpayable"},{"type":"function","name":"AFTER_POST_PLUGIN_ADDRESS","inputs":[],"outputs":[{"name":"","type":"address","internalType":"address"}],"stateMutability":"view"},{"type":"function","name":"BAN_SOURCE_ADDRESS","inputs":[],"outputs":[{"name":"","type":"address","internalType":"address"}],"stateMutability":"view"},{"type":"function","name":"BEFORE_POST_PLUGIN_ADDRESS","inputs":[],"outputs":[{"name":"","type":"address","internalType":"address"}],"stateMutability":"view"},{"type":"function","name":"EXTENSION_CENTER_ADDRESS","inputs":[],"outputs":[{"name":"","type":"address","internalType":"address"}],"stateMutability":"view"},{"type":"function","name":"GROUP_ADDRESS","inputs":[],"outputs":[{"name":"","type":"address","internalType":"address"}],"stateMutability":"view"},{"type":"function","name":"GROUP_CHAT_ADDRESS","inputs":[],"outputs":[{"name":"","type":"address","internalType":"address"}],"stateMutability":"view"},{"type":"function","name":"activate","inputs":[{"name":"token","type":"address","internalType":"address"}],"outputs":[{"name":"groupId","type":"uint256","internalType":"uint256"}],"stateMutability":"nonpayable"},{"type":"function","name":"canPost","inputs":[{"name":"groupId","type":"uint256","internalType":"uint256"},{"name":"","type":"uint256","internalType":"uint256"},{"name":"senderAddress","type":"address","internalType":"address"}],"outputs":[{"name":"","type":"bool","internalType":"bool"}],"stateMutability":"view"},{"type":"function","name":"groupIdOfToken","inputs":[{"name":"","type":"address","internalType":"address"}],"outputs":[{"name":"","type":"uint256","internalType":"uint256"}],"stateMutability":"view"},{"type":"function","name":"onERC721Received","inputs":[{"name":"","type":"address","internalType":"address"},{"name":"from","type":"address","internalType":"address"},{"name":"","type":"uint256","internalType":"uint256"},{"name":"","type":"bytes","internalType":"bytes"}],"outputs":[{"name":"","type":"bytes4","internalType":"bytes4"}],"stateMutability":"view"},{"type":"function","name":"tokenOfGroup","inputs":[{"name":"","type":"uint256","internalType":"uint256"}],"outputs":[{"name":"","type":"address","internalType":"address"}],"stateMutability":"view"},{"type":"function","name":"tokens","inputs":[{"name":"offset","type":"uint256","internalType":"uint256"},{"name":"limit","type":"uint256","internalType":"uint256"},{"name":"reverse","type":"bool","internalType":"bool"}],"outputs":[{"name":"tokenList","type":"address[]","internalType":"address[]"},{"name":"groupIds","type":"uint256[]","internalType":"uint256[]"}],"stateMutability":"view"},{"type":"function","name":"tokensCount","inputs":[],"outputs":[{"name":"","type":"uint256","internalType":"uint256"}],"stateMutability":"view"},{"type":"function","name":"totalVoteWeight","inputs":[{"name":"groupId","type":"uint256","internalType":"uint256"}],"outputs":[{"name":"","type":"uint256","internalType":"uint256"}],"stateMutability":"view"},{"type":"function","name":"voteWeightOf","inputs":[{"name":"groupId","type":"uint256","internalType":"uint256"},{"name":"voter","type":"address","internalType":"address"}],"outputs":[{"name":"","type":"uint256","internalType":"uint256"}],"stateMutability":"view"},{"type":"event","name":"Activate","inputs":[{"name":"token","type":"address","indexed":true,"internalType":"address"},{"name":"groupId","type":"uint256","indexed":true,"internalType":"uint256"},{"name":"operator","type":"address","indexed":true,"internalType":"address"}],"anonymous":false},{"type":"error","name":"ActionIdNotExist","inputs":[]},{"type":"error","name":"AlreadyManaged","inputs":[]},{"type":"error","name":"ManagerAddressHasNoCode","inputs":[]},{"type":"error","name":"ManagerApprovalFailed","inputs":[]},{"type":"error","name":"ManagerGroupNameUnavailable","inputs":[]},{"type":"error","name":"ManagerMintCostChanged","inputs":[]},{"type":"error","name":"ManagerPaymentFailed","inputs":[]},{"type":"error","name":"RecentRoundsZero","inputs":[]},{"type":"error","name":"TokenNotLOVE20","inputs":[]},{"type":"error","name":"UnexpectedManagerERC721Received","inputs":[]}],"bytecode":{"object":"0x6101a06040523480156200001257600080fd5b506040516200204538038062002045833981016040819052620000359162000307565b8484848484848484848484848484846200004f85620002a1565b6200005a84620002cf565b6200006583620002cf565b6200007082620002cf565b6200007b81620002a1565b6000856001600160a01b031663af5934626040518163ffffffff1660e01b8152600401602060405180830381865afa158015620000bc573d6000803e3d6000fd5b505050506040513d601f19601f82011682018060405250810190620000e2919062000377565b9050620000ef81620002a1565b6001600160a01b03808716608052811660a081905260408051632f26324560e11b81529051635e4c648a916004808201926020929091908290030181865afa15801562000140573d6000803e3d6000fd5b505050506040513d601f19601f820116820180604052508101906200016691906200039c565b60c052506001600160a01b0390811660e05292831661010052908216610120528116610140526040805163622b918560e11b81529051600093509184169163c457230a916004808201926020929091908290030181865afa158015620001d0573d6000803e3d6000fd5b505050506040513d601f19601f82011682018060405250810190620001f6919062000377565b90506000826001600160a01b031663851073676040518163ffffffff1660e01b8152600401602060405180830381865afa15801562000239573d6000803e3d6000fd5b505050506040513d601f19601f820116820180604052508101906200025f919062000377565b90506200026c82620002a1565b6200027781620002a1565b6001600160a01b0391821661016052166101805250620003b69d5050505050505050505050505050565b806001600160a01b03163b600003620002cc5760405162bff35360e41b815260040160405180910390fd5b50565b6001600160a01b03811615620002cc57620002cc81620002a1565b80516001600160a01b03811681146200030257600080fd5b919050565b600080600080600060a086880312156200032057600080fd5b6200032b86620002ea565b94506200033b60208701620002ea565b93506200034b60408701620002ea565b92506200035b60608701620002ea565b91506200036b60808701620002ea565b90509295509295909350565b6000602082840312156200038a57600080fd5b6200039582620002ea565b9392505050565b600060208284031215620003af57600080fd5b5051919050565b60805160a05160c05160e0516101005161012051610140516101605161018051611bd262000473600039600081816105b50152610789015260006108600152600081816101900152610ca70152600081816102c40152610c7f01526000818161029d0152610c570152600060ff0152600081816114530152611484015260008181610263015281816103160152818161095c01528181610af901528181610ee901526111ae0152600081816101ca0152610ccf0152611bd26000f3fe608060405234801561001057600080fd5b50600436106100f55760003560e01c80637942b88d11610097578063c9b84e8911610066578063c9b84e8914610285578063dc47813d14610298578063dcb2ff7e146102bf578063e20f18b3146102e657600080fd5b80637942b88d146102155780637963661e14610235578063a64ed8ba14610256578063af5934621461025e57600080fd5b80631dbc3e66116100d35780631dbc3e661461018b57806321ba52fd146101b25780634266d740146101c5578063590f2881146101ec57600080fd5b8063046ffe1c146100fa578063150b7a021461013e5780631c5a9d9c1461016a575b600080fd5b6101217f000000000000000000000000000000000000000000000000000000000000000081565b6040516001600160a01b0390911681526020015b60405180910390f35b61015161014c36600461169b565b610309565b6040516001600160e01b03199091168152602001610135565b61017d61017836600461173a565b61037b565b604051908152602001610135565b6101217f000000000000000000000000000000000000000000000000000000000000000081565b61017d6101c0366004611757565b6103b3565b6101217f000000000000000000000000000000000000000000000000000000000000000081565b6101216101fa366004611787565b6001602052600090815260409020546001600160a01b031681565b61017d61022336600461173a565b60026020526000908152604090205481565b6102486102433660046117ae565b6103ec565b6040516101359291906117e7565b60035461017d565b6101217f000000000000000000000000000000000000000000000000000000000000000081565b61017d610293366004611787565b610570565b6101217f000000000000000000000000000000000000000000000000000000000000000081565b6101217f000000000000000000000000000000000000000000000000000000000000000081565b6102f96102f436600461186b565b610627565b6040519015158152602001610135565b6000336001600160a01b037f00000000000000000000000000000000000000000000000000000000000000001614158061034b57506001600160a01b03851615155b1561036957604051639b1ace7d60e01b815260040160405180910390fd5b50630a85bd0160e11b95945050505050565b60006103ad826040518060400160405280600e81526020016d6d67725f746f6b656e5f676f765f60901b81525061065f565b92915050565b6000828152600160205260408120546001600160a01b0316806103da5760009150506103ad565b6103e4818461075f565b949350505050565b606080600061040160038054905087876107d2565b90508067ffffffffffffffff81111561041c5761041c611899565b604051908082528060200260200182016040528015610445578160200160208202803683370190505b5092508067ffffffffffffffff81111561046157610461611899565b60405190808252806020026020018201604052801561048a578160200160208202803683370190505b50915060005b8181101561056657600060036104ad6003805490508a858a6107fe565b815481106104bd576104bd6118af565b9060005260206000200160009054906101000a90046001600160a01b03169050808583815181106104f0576104f06118af565b60200260200101906001600160a01b031690816001600160a01b03168152505060026000826001600160a01b03166001600160a01b0316815260200190815260200160002054848381518110610548576105486118af565b6020908102919091010152508061055e816118db565b915050610490565b5050935093915050565b6000818152600160205260408120546001600160a01b0316806105965750600092915050565b6040516315664f8d60e01b81526001600160a01b0382811660048301527f000000000000000000000000000000000000000000000000000000000000000016906315664f8d90602401602060405180830381865afa1580156105fc573d6000803e3d6000fd5b505050506040513d601f19601f8201168201806040525081019061062091906118f4565b9392505050565b6000838152600160205260408120546001600160a01b031680158015906106565750610653818461075f565b15155b95945050505050565b600061066a83610838565b6001600160a01b03831660009081526002602052604090205461068e9015156108eb565b6106a061069b838561090a565b61093e565b600081815260016020818152604080842080546001600160a01b038a166001600160a01b0319918216811790925581865260029093529084208590556003805493840181559093527fc2575a0e9e593c00f959f8c92f12db2869c3395a3b0502d05e2516446f71f85b90910180549091169091179055905061072181610c33565b604051339082906001600160a01b038616907fb76a0e2bd9177723f72fa76c4d3b018685ee928351d86d0486765aad190c82d690600090a492915050565b604051632872798160e21b81526001600160a01b03838116600483015282811660248301526000917f00000000000000000000000000000000000000000000000000000000000000009091169063a1c9e60490604401602060405180830381865afa1580156105fc573d6000803e3d6000fd5b60008383106107e357506000610620565b60006107ef848661190d565b90508281106103e45782610656565b6000811561082e57828461081360018861190d565b61081d919061190d565b610827919061190d565b90506103e4565b6106568385611920565b61084181610d2e565b604051631701f11560e11b81526001600160a01b0382811660048301527f00000000000000000000000000000000000000000000000000000000000000001690632e03e22a90602401602060405180830381865afa1580156108a7573d6000803e3d6000fd5b505050506040513d601f19601f820116820180604052508101906108cb9190611933565b6108e857604051630160b73360e51b815260040160405180910390fd5b50565b80156108e85760405163c9c7750560e01b815260040160405180910390fd5b60608261091683610d58565b604051602001610927929190611974565b604051602081830303815290604052905092915050565b60008061094a83610e0d565b6040516308d4d20360e11b81529091507f0000000000000000000000000000000000000000000000000000000000000000906000906001600160a01b038316906311a9a4069061099e9086906004016119a3565b602060405180830381865afa1580156109bb573d6000803e3d6000fd5b505050506040513d601f19601f820116820180604052508101906109df91906118f4565b90508015610b94576000826001600160a01b03166380b232c06040518163ffffffff1660e01b8152600401602060405180830381865afa158015610a27573d6000803e3d6000fd5b505050506040513d601f19601f82011682018060405250810190610a4b91906119d6565b6040516323b872dd60e01b8152336004820152306024820152604481018490529091506001600160a01b038216906323b872dd906064016020604051808303816000875af1158015610aa1573d6000803e3d6000fd5b505050506040513d601f19601f82011682018060405250810190610ac59190611933565b610ae2576040516301d56ccf60e61b815260040160405180910390fd5b60405163095ea7b360e01b81526001600160a01b037f0000000000000000000000000000000000000000000000000000000000000000811660048301526024820184905282169063095ea7b3906044016020604051808303816000875af1158015610b51573d6000803e3d6000fd5b505050506040513d601f19601f82011682018060405250810190610b759190611933565b610b925760405163af2411a360e01b815260040160405180910390fd5b505b60405163d85d3d2760e01b81526000906001600160a01b0384169063d85d3d2790610bc39087906004016119a3565b60408051808303816000875af1158015610be1573d6000803e3d6000fd5b505050506040513d601f19601f82011682018060405250810190610c0591906119f3565b9095509050818114610c2a5760405163ed24d0e760e01b815260040160405180910390fd5b50505050919050565b60405163ce572a1d60e01b8152600481018290523060248201526001600160a01b037f0000000000000000000000000000000000000000000000000000000000000000811660448301527f0000000000000000000000000000000000000000000000000000000000000000811660648301527f0000000000000000000000000000000000000000000000000000000000000000811660848301527f0000000000000000000000000000000000000000000000000000000000000000169063ce572a1d9060a401600060405180830381600087803b158015610d1357600080fd5b505af1158015610d27573d6000803e3d6000fd5b5050505050565b806001600160a01b03163b6000036108e85760405162bff35360e41b815260040160405180910390fd5b6040805180820190915260058152642a27a5a2a760d91b60208201526060906001600160a01b0383163b156103ad57826001600160a01b03166395d89b416040518163ffffffff1660e01b8152600401600060405180830381865afa925050508015610de657506040513d6000823e601f3d908101601f19168201604052610de39190810190611a17565b60015b156103ad576000610df682610f9b565b90508051600014610e05578092505b505092915050565b60606000610e196111a9565b905060005b6008811015610f815760008054604080514660208201526bffffffffffffffffffffffff1930606090811b8216938301939093523390921b90911660548201524360688201526088810191909152610e8e9060a801604051602081830303815290604052805190602001206112dc565b90506000610ec6610e9f8786611416565b83604051602001610eb1929190611ac4565b604051602081830303815290604052856114b4565b600080546001019055604051633c5c3cd560e11b81529091506001600160a01b037f000000000000000000000000000000000000000000000000000000000000000016906378b879aa90610f1e9084906004016119a3565b602060405180830381865afa158015610f3b573d6000803e3d6000fd5b505050506040513d601f19601f82011682018060405250810190610f5f9190611933565b610f6c5795945050505050565b50508080610f79906118db565b915050610e1e565b50604051634a6464df60e01b815260040160405180910390fd5b606060008290506000815167ffffffffffffffff811115610fbe57610fbe611899565b6040519080825280601f01601f191660200182016040528015610fe8576020820181803683370190505b5090506000805b83518110156110f357600084828151811061100c5761100c6118af565b01602001516001600160f81b0319169050600360fc1b811080159061103f5750603960f81b6001600160f81b0319821611155b806110715750604160f81b6001600160f81b03198216108015906110715750602d60f91b6001600160f81b0319821611155b806110a35750606160f81b6001600160f81b03198216108015906110a35750603d60f91b6001600160f81b0319821611155b156110e057808484815181106110bb576110bb6118af565b60200101906001600160f81b031916908160001a905350826110dc816118db565b9350505b50806110eb816118db565b915050610fef565b5060008167ffffffffffffffff81111561110f5761110f611899565b6040519080825280601f01601f191660200182016040528015611139576020820181803683370190505b50905060005b8281101561119f57838181518110611159576111596118af565b602001015160f81c60f81b828281518110611176576111766118af565b60200101906001600160f81b031916908160001a90535080611197816118db565b91505061113f565b5095945050505050565b6000807f00000000000000000000000000000000000000000000000000000000000000006001600160a01b03166380b232c06040518163ffffffff1660e01b8152600401602060405180830381865afa15801561120a573d6000803e3d6000fd5b505050506040513d601f19601f8201168201806040525081019061122e91906119d6565b9050806001600160a01b03163b60000361124a57600091505090565b6315195cdd60e21b6001600160e01b031916816001600160a01b03166395d89b416040518163ffffffff1660e01b8152600401600060405180830381865afa15801561129a573d6000803e3d6000fd5b505050506040513d6000823e601f3d908101601f191682016040526112c29190810190611a17565b6112cb90611b00565b6001600160e01b0319161492915050565b60408051600c8082528183019092526060916000919060208201818036833701905050905060005b6113106002600c611b37565b81101561140f57600084826020811061132b5761132b6118af565b1a90506f181899199a1a9b1b9c1cb0b131b232b360811b600482901c60ff166010811061135a5761135a6118af565b1a60f81b8361136a846002611b59565b8151811061137a5761137a6118af565b60200101906001600160f81b031916908160001a9053506f181899199a1a9b1b9c1cb0b131b232b360811b600f8216601081106113b9576113b96118af565b1a60f81b836113c9846002611b59565b6113d4906001611920565b815181106113e4576113e46118af565b60200101906001600160f81b031916908160001a905350508080611407906118db565b915050611304565b5092915050565b60606000611426600c6001611920565b905082801561143b5750611439846114e4565b155b1561144e5761144b600482611920565b90505b6000817f00000000000000000000000000000000000000000000000000000000000000001161147e5760006114a8565b6114a8827f000000000000000000000000000000000000000000000000000000000000000061190d565b905061065685826115ba565b60608115806114c757506114c7836114e4565b156114d35750816103ad565b826040516020016109279190611b70565b600080829050600481511015801561152157508060008151811061150a5761150a6118af565b6020910101516001600160f81b031916601560fa1b145b801561155257508060018151811061153b5761153b6118af565b6020910101516001600160f81b031916606560f81b145b801561158357508060028151811061156c5761156c6118af565b6020910101516001600160f81b031916607360f81b145b801561062057508060038151811061159d5761159d6118af565b6020910101516001600160f81b031916601d60fa1b149392505050565b60606000839050828151116115d257839150506103ad565b60008367ffffffffffffffff8111156115ed576115ed611899565b6040519080825280601f01601f191660200182016040528015611617576020820181803683370190505b50905060005b8481101561167d57828181518110611637576116376118af565b602001015160f81c60f81b828281518110611654576116546118af565b60200101906001600160f81b031916908160001a90535080611675816118db565b91505061161d565b50949350505050565b6001600160a01b03811681146108e857600080fd5b6000806000806000608086880312156116b357600080fd5b85356116be81611686565b945060208601356116ce81611686565b935060408601359250606086013567ffffffffffffffff808211156116f257600080fd5b818801915088601f83011261170657600080fd5b81358181111561171557600080fd5b89602082850101111561172757600080fd5b9699959850939650602001949392505050565b60006020828403121561174c57600080fd5b813561062081611686565b6000806040838503121561176a57600080fd5b82359150602083013561177c81611686565b809150509250929050565b60006020828403121561179957600080fd5b5035919050565b80151581146108e857600080fd5b6000806000606084860312156117c357600080fd5b833592506020840135915060408401356117dc816117a0565b809150509250925092565b604080825283519082018190526000906020906060840190828701845b828110156118295781516001600160a01b031684529284019290840190600101611804565b5050508381038285015284518082528583019183019060005b8181101561185e57835183529284019291840191600101611842565b5090979650505050505050565b60008060006060848603121561188057600080fd5b833592506020840135915060408401356117dc81611686565b634e487b7160e01b600052604160045260246000fd5b634e487b7160e01b600052603260045260246000fd5b634e487b7160e01b600052601160045260246000fd5b6000600182016118ed576118ed6118c5565b5060010190565b60006020828403121561190657600080fd5b5051919050565b818103818111156103ad576103ad6118c5565b808201808211156103ad576103ad6118c5565b60006020828403121561194557600080fd5b8151610620816117a0565b60005b8381101561196b578181015183820152602001611953565b50506000910152565b60008351611986818460208801611950565b83519083019061199a818360208801611950565b01949350505050565b60208152600082518060208401526119c2816040850160208701611950565b601f01601f19169190910160400192915050565b6000602082840312156119e857600080fd5b815161062081611686565b60008060408385031215611a0657600080fd5b505080516020909101519092909150565b600060208284031215611a2957600080fd5b815167ffffffffffffffff80821115611a4157600080fd5b818401915084601f830112611a5557600080fd5b815181811115611a6757611a67611899565b604051601f8201601f19908116603f01168101908382118183101715611a8f57611a8f611899565b81604052828152876020848701011115611aa857600080fd5b611ab9836020830160208801611950565b979650505050505050565b60008351611ad6818460208801611950565b605f60f81b9083019081528351611af4816001840160208801611950565b01600101949350505050565b805160208201516001600160e01b03198082169291906004831015611b2f5780818460040360031b1b83161693505b505050919050565b600082611b5457634e487b7160e01b600052601260045260246000fd5b500490565b80820281158282048414176103ad576103ad6118c5565b6315195cdd60e21b815260008251611b8f816004850160208701611950565b919091016004019291505056fea26469706673582212201ea792380ea93fd96c46bc060c610b78534ff057b1df2094ada81e3361ed988d64736f6c63430008110033","linkReferences":{}},"methodIdentifiers":{"AFTER_POST_PLUGIN_ADDRESS()":"1dbc3e66","BAN_SOURCE_ADDRESS()":"dc47813d","BEFORE_POST_PLUGIN_ADDRESS()":"dcb2ff7e","EXTENSION_CENTER_ADDRESS()":"046ffe1c","GROUP_ADDRESS()":"af593462","GROUP_CHAT_ADDRESS()":"4266d740","activate(address)":"1c5a9d9c","canPost(uint256,uint256,address)":"e20f18b3","groupIdOfToken(address)":"7942b88d","onERC721Received(address,address,uint256,bytes)":"150b7a02","tokenOfGroup(uint256)":"590f2881","tokens(uint256,uint256,bool)":"7963661e","tokensCount()":"a64ed8ba","totalVoteWeight(uint256)":"c9b84e89","voteWeightOf(uint256,address)":"21ba52fd"},"id":43}