{"abi":[{"type":"constructor","inputs":[{"name":"originBlocks","type":"uint256","internalType":"uint256"},{"name":"phaseBlocks","type":"uint256","internalType":"uint256"}],"stateMutability":"nonpayable"},{"type":"function","name":"PROMISED_WAITING_PHASES_MAX","inputs":[],"outputs":[{"name":"","type":"uint256","internalType":"uint256"}],"stateMutability":"view"},{"type":"function","name":"PROMISED_WAITING_PHASES_MIN","inputs":[],"outputs":[{"name":"","type":"uint256","internalType":"uint256"}],"stateMutability":"view"},{"type":"function","name":"accountStakeStatus","inputs":[{"name":"tokenAddress","type":"address","internalType":"address"},{"name":"account","type":"address","internalType":"address"}],"outputs":[{"name":"","type":"tuple","internalType":"struct AccountStakeStatus","components":[{"name":"slAmount","type":"uint256","internalType":"uint256"},{"name":"stAmount","type":"uint256","internalType":"uint256"},{"name":"promisedWaitingPhases","type":"uint256","internalType":"uint256"},{"name":"requestedUnstakeRound","type":"uint256","internalType":"uint256"},{"name":"govVotes","type":"uint256","internalType":"uint256"}]}],"stateMutability":"view"},{"type":"function","name":"caculateGovVotes","inputs":[{"name":"slAmount","type":"uint256","internalType":"uint256"},{"name":"promisedWaitingPhases","type":"uint256","internalType":"uint256"}],"outputs":[{"name":"","type":"uint256","internalType":"uint256"}],"stateMutability":"pure"},{"type":"function","name":"cumulatedTokenAmount","inputs":[{"name":"tokenAddress","type":"address","internalType":"address"},{"name":"round","type":"uint256","internalType":"uint256"}],"outputs":[{"name":"tokenAmount","type":"uint256","internalType":"uint256"}],"stateMutability":"view"},{"type":"function","name":"cumulatedTokenAmountByAccount","inputs":[{"name":"tokenAddress","type":"address","internalType":"address"},{"name":"round","type":"uint256","internalType":"uint256"},{"name":"account","type":"address","internalType":"address"}],"outputs":[{"name":"tokenAmount","type":"uint256","internalType":"uint256"}],"stateMutability":"view"},{"type":"function","name":"currentRound","inputs":[],"outputs":[{"name":"","type":"uint256","internalType":"uint256"}],"stateMutability":"view"},{"type":"function","name":"govVotesNum","inputs":[{"name":"","type":"address","internalType":"address"}],"outputs":[{"name":"","type":"uint256","internalType":"uint256"}],"stateMutability":"view"},{"type":"function","name":"initialStakeRound","inputs":[{"name":"","type":"address","internalType":"address"}],"outputs":[{"name":"","type":"uint256","internalType":"uint256"}],"stateMutability":"view"},{"type":"function","name":"initialize","inputs":[{"name":"promisedWaitingPhasesMin","type":"uint256","internalType":"uint256"},{"name":"promisedWaitingPhasesMax","type":"uint256","internalType":"uint256"}],"outputs":[],"stateMutability":"nonpayable"},{"type":"function","name":"initialized","inputs":[],"outputs":[{"name":"","type":"bool","internalType":"bool"}],"stateMutability":"view"},{"type":"function","name":"originBlocks","inputs":[],"outputs":[{"name":"","type":"uint256","internalType":"uint256"}],"stateMutability":"view"},{"type":"function","name":"phaseBlocks","inputs":[],"outputs":[{"name":"","type":"uint256","internalType":"uint256"}],"stateMutability":"view"},{"type":"function","name":"roundByBlockNumber","inputs":[{"name":"blockNumber","type":"uint256","internalType":"uint256"}],"outputs":[{"name":"","type":"uint256","internalType":"uint256"}],"stateMutability":"view"},{"type":"function","name":"stakeLiquidity","inputs":[{"name":"tokenAddress","type":"address","internalType":"address"},{"name":"tokenAmountForLP","type":"uint256","internalType":"uint256"},{"name":"parentTokenAmountForLP","type":"uint256","internalType":"uint256"},{"name":"promisedWaitingPhases","type":"uint256","internalType":"uint256"},{"name":"to","type":"address","internalType":"address"}],"outputs":[{"name":"govVotesAdded","type":"uint256","internalType":"uint256"},{"name":"slAmountAdded","type":"uint256","internalType":"uint256"}],"stateMutability":"nonpayable"},{"type":"function","name":"stakeToken","inputs":[{"name":"tokenAddress","type":"address","internalType":"address"},{"name":"tokenAmount","type":"uint256","internalType":"uint256"},{"name":"promisedWaitingPhases","type":"uint256","internalType":"uint256"},{"name":"to","type":"address","internalType":"address"}],"outputs":[{"name":"govVotesAdded","type":"uint256","internalType":"uint256"}],"stateMutability":"nonpayable"},{"type":"function","name":"stakeTokenUpdatedRoundsAtIndex","inputs":[{"name":"tokenAddress","type":"address","internalType":"address"},{"name":"index","type":"uint256","internalType":"uint256"}],"outputs":[{"name":"","type":"uint256","internalType":"uint256"}],"stateMutability":"view"},{"type":"function","name":"stakeTokenUpdatedRoundsByAccountAtIndex","inputs":[{"name":"tokenAddress","type":"address","internalType":"address"},{"name":"account","type":"address","internalType":"address"},{"name":"index","type":"uint256","internalType":"uint256"}],"outputs":[{"name":"","type":"uint256","internalType":"uint256"}],"stateMutability":"view"},{"type":"function","name":"stakeTokenUpdatedRoundsByAccountCount","inputs":[{"name":"tokenAddress","type":"address","internalType":"address"},{"name":"account","type":"address","internalType":"address"}],"outputs":[{"name":"","type":"uint256","internalType":"uint256"}],"stateMutability":"view"},{"type":"function","name":"stakeTokenUpdatedRoundsCount","inputs":[{"name":"tokenAddress","type":"address","internalType":"address"}],"outputs":[{"name":"","type":"uint256","internalType":"uint256"}],"stateMutability":"view"},{"type":"function","name":"unstake","inputs":[{"name":"tokenAddress","type":"address","internalType":"address"}],"outputs":[],"stateMutability":"nonpayable"},{"type":"function","name":"validGovVotes","inputs":[{"name":"tokenAddress","type":"address","internalType":"address"},{"name":"account","type":"address","internalType":"address"}],"outputs":[{"name":"","type":"uint256","internalType":"uint256"}],"stateMutability":"view"},{"type":"function","name":"withdraw","inputs":[{"name":"tokenAddress","type":"address","internalType":"address"}],"outputs":[],"stateMutability":"nonpayable"},{"type":"event","name":"StakeLiquidity","inputs":[{"name":"tokenAddress","type":"address","indexed":true,"internalType":"address"},{"name":"round","type":"uint256","indexed":true,"internalType":"uint256"},{"name":"account","type":"address","indexed":true,"internalType":"address"},{"name":"tokenAmountForLP","type":"uint256","indexed":false,"internalType":"uint256"},{"name":"parentTokenAmountForLP","type":"uint256","indexed":false,"internalType":"uint256"},{"name":"promisedWaitingPhases","type":"uint256","indexed":false,"internalType":"uint256"},{"name":"govVotesAdded","type":"uint256","indexed":false,"internalType":"uint256"},{"name":"govVotes","type":"uint256","indexed":false,"internalType":"uint256"},{"name":"slAmountAdded","type":"uint256","indexed":false,"internalType":"uint256"},{"name":"slAmount","type":"uint256","indexed":false,"internalType":"uint256"}],"anonymous":false},{"type":"event","name":"StakeToken","inputs":[{"name":"tokenAddress","type":"address","indexed":true,"internalType":"address"},{"name":"round","type":"uint256","indexed":true,"internalType":"uint256"},{"name":"account","type":"address","indexed":true,"internalType":"address"},{"name":"tokenAmount","type":"uint256","indexed":false,"internalType":"uint256"},{"name":"promisedWaitingPhases","type":"uint256","indexed":false,"internalType":"uint256"},{"name":"govVotesAdded","type":"uint256","indexed":false,"internalType":"uint256"},{"name":"govVotes","type":"uint256","indexed":false,"internalType":"uint256"},{"name":"stAmount","type":"uint256","indexed":false,"internalType":"uint256"}],"anonymous":false},{"type":"event","name":"Unstake","inputs":[{"name":"tokenAddress","type":"address","indexed":true,"internalType":"address"},{"name":"round","type":"uint256","indexed":true,"internalType":"uint256"},{"name":"account","type":"address","indexed":true,"internalType":"address"},{"name":"promisedWaitingPhases","type":"uint256","indexed":false,"internalType":"uint256"},{"name":"govVotes","type":"uint256","indexed":false,"internalType":"uint256"},{"name":"slAmount","type":"uint256","indexed":false,"internalType":"uint256"},{"name":"stAmount","type":"uint256","indexed":false,"internalType":"uint256"}],"anonymous":false},{"type":"event","name":"Withdraw","inputs":[{"name":"tokenAddress","type":"address","indexed":true,"internalType":"address"},{"name":"round","type":"uint256","indexed":true,"internalType":"uint256"},{"name":"account","type":"address","indexed":true,"internalType":"address"},{"name":"promisedWaitingPhases","type":"uint256","indexed":false,"internalType":"uint256"},{"name":"slAmount","type":"uint256","indexed":false,"internalType":"uint256"},{"name":"tokenAmountForLp","type":"uint256","indexed":false,"internalType":"uint256"},{"name":"parentTokenAmountForLp","type":"uint256","indexed":false,"internalType":"uint256"},{"name":"stAmount","type":"uint256","indexed":false,"internalType":"uint256"}],"anonymous":false},{"type":"error","name":"AlreadyInitialized","inputs":[]},{"type":"error","name":"AlreadyUnstaked","inputs":[]},{"type":"error","name":"InvalidToAddress","inputs":[]},{"type":"error","name":"NoStakedLiquidity","inputs":[]},{"type":"error","name":"NotAllowedToStakeAtRoundZero","inputs":[]},{"type":"error","name":"NotEnoughWaitingBlocks","inputs":[]},{"type":"error","name":"PromisedWaitingPhasesMustBeGreaterOrEqualThanBefore","inputs":[]},{"type":"error","name":"PromisedWaitingPhasesOutOfRange","inputs":[]},{"type":"error","name":"RoundHasNotStartedYet","inputs":[]},{"type":"error","name":"RoundNotStarted","inputs":[]},{"type":"error","name":"StakeAmountMustBeSet","inputs":[]},{"type":"error","name":"UnstakeAlreadyRequested","inputs":[]},{"type":"error","name":"UnstakeNotRequested","inputs":[]}],"bytecode":{"object":"0x60c060405234801561001057600080fd5b5060405161244c38038061244c83398101604081905261002f9161003d565b60809190915260a052610061565b6000806040838503121561005057600080fd5b505080516020909101519092909150565b60805160a0516123b161009b6000396000818161020a015261097e0152600081816103380152818161090c015261095201526123b16000f3fe608060405234801561001057600080fd5b506004361061014d5760003560e01c80638bf1fecc116100c3578063b2ad37301161007c578063b2ad373014610333578063bcf78a9f1461035a578063e1f1c38714610383578063e4a3011614610396578063f26fc94a146103a9578063f2888dbb146103c957600080fd5b80638bf1fecc146102a557806390510c34146102b85780639be48b06146102c1578063a1c9e604146102d4578063a1d43e1d146102e7578063a9a248db146102fa57600080fd5b806351cff8d91161011557806351cff8d9146101f057806360a918b714610205578063838ac5821461022c578063863ed5b614610235578063896467d41461028a5780638a19c8bc1461029d57600080fd5b806315664f8d14610152578063158ef93e14610185578063231cc991146101a2578063291f5a78146101ca5780633bdf9f13146101dd575b600080fd5b610172610160366004612099565b60036020526000908152604090205481565b6040519081526020015b60405180910390f35b6000546101929060ff1681565b604051901515815260200161017c565b6101b56101b03660046120b6565b6103dc565b6040805192835260208301919091520161017c565b6101726101d836600461210c565b6108ca565b6101726101eb366004612138565b610908565b6102036101fe366004612099565b6109aa565b005b6101727f000000000000000000000000000000000000000000000000000000000000000081565b61017260015481565b610248610243366004612151565b610b19565b60405161017c9190600060a082019050825182526020830151602083015260408301516040830152606083015160608301526080830151608083015292915050565b61017261029836600461218a565b610bb0565b610172610bfd565b6101726102b33660046121cb565b610c0d565b61017260025481565b6101726102cf36600461210c565b610ced565b6101726102e2366004612151565b610da6565b6101726102f536600461220d565b610fe2565b610172610308366004612151565b6001600160a01b03918216600090815260096020908152604080832093909416825291909152205490565b6101727f000000000000000000000000000000000000000000000000000000000000000081565b610172610368366004612099565b6001600160a01b031660009081526008602052604090205490565b610172610391366004612257565b611346565b6102036103a4366004612257565b611352565b6101726103b7366004612099565b60046020526000908152604090205481565b6102036103d7366004612099565b61138e565b6000806103e7610bfd565b60000361040757604051632fa7341960e21b815260040160405180910390fd5b6001600160a01b03871660009081526004602052604081205490036104485761042e610bfd565b6001600160a01b0388166000908152600460205260409020555b6001600160a01b03831661046f57604051638aa3a72f60e01b815260040160405180910390fd5b85158061047a575084155b15610498576040516353a46d0360e11b815260040160405180910390fd5b6001600160a01b03808816600090815260056020908152604080832093871683529290522060030154156104df57604051634b8cc7d360e11b815260040160405180910390fd5b6001548410806104f0575060025484115b1561050e576040516375e89e0f60e11b815260040160405180910390fd5b6001600160a01b0380881660009081526005602090815260408083209387168352929052206002015484101561055757604051634b86cb8160e11b815260040160405180910390fd5b6000876001600160a01b031663ad2254916040518163ffffffff1660e01b8152600401602060405180830381865afa158015610597573d6000803e3d6000fd5b505050506040513d601f19601f820116820180604052508101906105bb9190612279565b6040516323b872dd60e01b81529091506001600160a01b038916906323b872dd906105ee90339085908c90600401612296565b6020604051808303816000875af115801561060d573d6000803e3d6000fd5b505050506040513d601f19601f8201168201806040525081019061063191906122ba565b506000886001600160a01b03166347502b536040518163ffffffff1660e01b8152600401602060405180830381865afa158015610672573d6000803e3d6000fd5b505050506040513d601f19601f820116820180604052508101906106969190612279565b6040516323b872dd60e01b81529091506001600160a01b038216906323b872dd906106c990339086908c90600401612296565b6020604051808303816000875af11580156106e8573d6000803e3d6000fd5b505050506040513d601f19601f8201168201806040525081019061070c91906122ba565b506040516335313c2160e11b81526001600160a01b038681166004830152831690636a627842906024016020604051808303816000875af1158015610755573d6000803e3d6000fd5b505050506040513d601f19601f8201168201806040525081019061077991906122dc565b6001600160a01b03808b166000908152600560209081526040808320938a168352929052208054600282015492955090916107b49190611346565b81546107cb906107c590879061230b565b89611346565b6107d5919061231e565b9450848160040160008282546107eb919061230b565b90915550506001600160a01b038a166000908152600360205260408120805487929061081890849061230b565b90915550506002810187905580548490829060009061083890849061230b565b90915550506001600160a01b03861661084f610bfd565b60048301548354604080518e8152602081018e90529081018c9052606081018a9052608081019290925260a0820188905260c08201526001600160a01b038d16907f056566edf8d057d3cc5e020474c0afb6ae4883dc8361722db1dd79e510c335189060e00160405180910390a45050509550959350505050565b6001600160a01b03821660009081526008602052604081208054839081106108f4576108f4612331565b906000526020600020015490505b92915050565b60007f000000000000000000000000000000000000000000000000000000000000000082101561094b576040516323a71b8760e21b815260040160405180910390fd5b60006109777f00000000000000000000000000000000000000000000000000000000000000008461231e565b90506109a37f000000000000000000000000000000000000000000000000000000000000000082612347565b9392505050565b6001600160a01b038116600090815260056020908152604080832033845290915281206001810154815460038301546002840154939492939192909190839003610a075760405163745dc62760e01b815260040160405180910390fd5b81600003610a285760405163777c843f60e11b815260040160405180910390fd5b8082610a32610bfd565b610a3c919061231e565b11610a5a57604051637aad2fc160e11b815260040160405180910390fd5b6001600160a01b0386166000908152600560209081526040808320338452909152812081815560018101829055600281018290556003810182905560040181905580610aa78886886116a5565b909250905033610ab5610bfd565b604080518681526020810189905290810185905260608101849052608081018990526001600160a01b038b16907f33c228f6d123fce4988a7f7e8bc6bd78b5cde4b31de6f171599eb73df1129d2c9060a00160405180910390a45050505050505050565b610b4b6040518060a0016040528060008152602001600081526020016000815260200160008152602001600081525090565b506001600160a01b039182166000908152600560209081526040808320939094168252918252829020825160a0810184528154815260018201549281019290925260028101549282019290925260038201546060820152600490910154608082015290565b6001600160a01b0380841660009081526009602090815260408083209386168352929052908120805483908110610be957610be9612331565b906000526020600020015490509392505050565b6000610c0843610908565b905090565b600082610c18610bfd565b1015610c3757604051633707aa2560e11b815260040160405180910390fd5b506001600160a01b038084166000908152600760209081526040808320868452825280832093851683529290522054806109a3576001600160a01b03808516600090815260096020908152604080832093861683529290529081208190610c9e9086611942565b915091508115610ce1576001600160a01b038087166000908152600760209081526040808320948352938152838220928716825291909152205491506109a39050565b50600095945050505050565b600081610cf8610bfd565b1015610d1757604051633707aa2560e11b815260040160405180910390fd5b506001600160a01b038216600090815260066020908152604080832084845290915290205480610902576001600160a01b03831660009081526008602052604081208190610d659085611942565b915091508115610d9b576001600160a01b0385166000908152600660209081526040808320938352929052205491506109029050565b506000949350505050565b6001600160a01b0380831660008181526005602090815260408083209486168352938152838220845160a08101865281548152600182015481840152600282015481870152600382015460608201526004918201546080820152855163ad22549160e01b81529551939590948694909363ad22549193838101939192918290030181865afa158015610e3c573d6000803e3d6000fd5b505050506040513d601f19601f82011682018060405250810190610e609190612279565b6040516370a0823160e01b81526001600160a01b0386811660048301529192506000918316906370a0823190602401602060405180830381865afa158015610eac573d6000803e3d6000fd5b505050506040513d601f19601f82011682018060405250810190610ed091906122dc565b90506000866001600160a01b031663cbd4bac56040518163ffffffff1660e01b8152600401602060405180830381865afa158015610f12573d6000803e3d6000fd5b505050506040513d601f19601f82011682018060405250810190610f369190612279565b6040516370a0823160e01b81526001600160a01b0388811660048301529192506000918316906370a0823190602401602060405180830381865afa158015610f82573d6000803e3d6000fd5b505050506040513d601f19601f82011682018060405250810190610fa691906122dc565b85519091508310801590610fbe575084602001518110155b15610fd457846080015195505050505050610902565b600095505050505050610902565b60006001600160a01b03821661100b57604051638aa3a72f60e01b815260040160405180910390fd5b6001600160a01b038086166000908152600560209081526040808320938616835292905290812080549091036110545760405163745dc62760e01b815260040160405180910390fd5b84600003611075576040516353a46d0360e11b815260040160405180910390fd5b60038101541561109857604051634b8cc7d360e11b815260040160405180910390fd5b6001548410806110a9575060025484115b156110c7576040516375e89e0f60e11b815260040160405180910390fd5b80600201548410156110ec57604051634b86cb8160e11b815260040160405180910390fd5b6000866001600160a01b031663cbd4bac56040518163ffffffff1660e01b8152600401602060405180830381865afa15801561112c573d6000803e3d6000fd5b505050506040513d601f19601f820116820180604052508101906111509190612279565b6040516323b872dd60e01b81529091506001600160a01b038816906323b872dd9061118390339085908b90600401612296565b6020604051808303816000875af11580156111a2573d6000803e3d6000fd5b505050506040513d601f19601f820116820180604052508101906111c691906122ba565b506040516335313c2160e11b81526001600160a01b038581166004830152821690636a62784290602401600060405180830381600087803b15801561120a57600080fd5b505af115801561121e573d6000803e3d6000fd5b50505050858260010154611232919061230b565b600183015560028201548511156112ae57600482015482546112549087611346565b61125e919061231e565b925082826004016000828254611274919061230b565b90915550506001600160a01b038716600090815260036020526040812080548592906112a190849061230b565b9091555050600282018590555b6112ba87876001611acf565b6112c78785886001611c22565b836001600160a01b03166112d9610bfd565b60048401546001850154604080518b8152602081018b9052908101889052606081019290925260808201526001600160a01b038a16907f1934107c15c038151a1e59cc446e6cf10b60967de3f796c8bac9ee673c866aa29060a00160405180910390a45050949350505050565b60006109a38284612369565b60005460ff16156113755760405162dc149f60e41b815260040160405180910390fd5b6000805460ff1916600190811790915591909155600255565b6001600160a01b038116600090815260056020908152604080832033845290915290208054600182015460048301546003840154156113e057604051636c18a98960e11b815260040160405180910390fd5b826000036114015760405163745dc62760e01b815260040160405180910390fd5b82156114e4576000856001600160a01b031663ad2254916040518163ffffffff1660e01b8152600401602060405180830381865afa158015611447573d6000803e3d6000fd5b505050506040513d601f19601f8201168201806040525081019061146b9190612279565b6040516323b872dd60e01b81529091506001600160a01b038216906323b872dd9061149e90339030908990600401612296565b6020604051808303816000875af11580156114bd573d6000803e3d6000fd5b505050506040513d601f19601f820116820180604052508101906114e191906122ba565b50505b81156115c7576000856001600160a01b031663cbd4bac56040518163ffffffff1660e01b8152600401602060405180830381865afa15801561152a573d6000803e3d6000fd5b505050506040513d601f19601f8201168201806040525081019061154e9190612279565b6040516323b872dd60e01b81529091506001600160a01b038216906323b872dd9061158190339030908890600401612296565b6020604051808303816000875af11580156115a0573d6000803e3d6000fd5b505050506040513d601f19601f820116820180604052508101906115c491906122ba565b50505b60006115d1610bfd565b9050808560030181905550846004015460036000886001600160a01b03166001600160a01b031681526020019081526020016000206000828254611615919061231e565b90915550506000600486018190556116309087908590611acf565b61163d8633856000611c22565b33611646610bfd565b600287015460408051918252602082018690528101879052606081018690526001600160a01b038916907f108b92088a71bee20d3a80081f73cc78d067bc26dd14d7a04593a5d6a2c851359060800160405180910390a4505050505050565b6000808315611800576116b785611d9a565b6000856001600160a01b031663ad2254916040518163ffffffff1660e01b8152600401602060405180830381865afa1580156116f7573d6000803e3d6000fd5b505050506040513d601f19601f8201168201806040525081019061171b9190612279565b60405163a9059cbb60e01b81526001600160a01b038216600482018190526024820188905291925063a9059cbb906044016020604051808303816000875af115801561176b573d6000803e3d6000fd5b505050506040513d601f19601f8201168201806040525081019061178f91906122ba565b5060405163226bf2d160e21b81523360048201526001600160a01b038216906389afcb449060240160408051808303816000875af11580156117d5573d6000803e3d6000fd5b505050506040513d601f19601f820116820180604052508101906117f99190612380565b9093509150505b821561193a576000856001600160a01b031663cbd4bac56040518163ffffffff1660e01b8152600401602060405180830381865afa158015611846573d6000803e3d6000fd5b505050506040513d601f19601f8201168201806040525081019061186a9190612279565b60405163a9059cbb60e01b81526001600160a01b038216600482018190526024820187905291925063a9059cbb906044016020604051808303816000875af11580156118ba573d6000803e3d6000fd5b505050506040513d601f19601f820116820180604052508101906118de91906122ba565b5060405163226bf2d160e21b81523360048201526001600160a01b038216906389afcb4490602401600060405180830381600087803b15801561192057600080fd5b505af1158015611934573d6000803e3d6000fd5b50505050505b935093915050565b81546000908190810361195a57506000905080611ac8565b828460008154811061196e5761196e612331565b9060005260206000200154111561198a57506000905080611ac8565b83548390859061199c9060019061231e565b815481106119ac576119ac612331565b9060005260206000200154116119f257835460019085906119ce90839061231e565b815481106119de576119de612331565b906000526020600020015491509150611ac8565b83546000908190611a059060019061231e565b9050600086600081548110611a1c57611a1c612331565b906000526020600020015490505b818311611abf5760006002611a3f858561231e565b611a499190612347565b611a53908561230b565b905086888281548110611a6857611a68612331565b906000526020600020015411611aab57878181548110611a8a57611a8a612331565b90600052602060002001549150806001611aa4919061230b565b9350611ab9565b611ab660018261231e565b92505b50611a2a565b60019450925050505b9250929050565b6001600160a01b03831660009081526008602052604081205490611af1610bfd565b90506000808311611b03576000611b42565b6001600160a01b0386166000908152600860205260409020611b2660018561231e565b81548110611b3657611b36612331565b90600052602060002001545b9050821580611b5057508082115b15611b9d576001600160a01b038616600081815260066020908152604080832085845282528083205486845281842055928252600881529181208054600181018255908252919020018290555b8315611be1576001600160a01b038616600090815260066020908152604080832085845290915281208054879290611bd690849061230b565b90915550611c1a9050565b6001600160a01b038616600090815260066020908152604080832085845290915281208054879290611c1490849061231e565b90915550505b505050505050565b6000611c2c610bfd565b6001600160a01b03808716600090815260096020908152604080832093891683529290529081208054929350919081611c66576000611c8e565b82611c7260018461231e565b81548110611c8257611c82612331565b90600052602060002001545b9050811580611c9c57508084115b15611cfb576001600160a01b038089166000908152600760209081526040808320858452808352818420948c16808552948352818420548985529083528184209484529382528220929092558454600181018655858252919020018490555b8415611d4b576001600160a01b0380891660009081526007602090815260408083208884528252808320938b1683529290529081208054889290611d4090849061230b565b90915550611d909050565b6001600160a01b0380891660009081526007602090815260408083208884528252808320938b1683529290529081208054889290611d8a90849061231e565b90915550505b5050505050505050565b6000816001600160a01b031663ad2254916040518163ffffffff1660e01b8152600401602060405180830381865afa158015611dda573d6000803e3d6000fd5b505050506040513d601f19601f82011682018060405250810190611dfe9190612279565b604051631ac3ddeb60e01b81523060048201529091506001600160a01b03821690631ac3ddeb90602401600060405180830381600087803b158015611e4257600080fd5b505af1158015611e56573d6000803e3d6000fd5b505050506000826001600160a01b03166347502b536040518163ffffffff1660e01b8152600401602060405180830381865afa158015611e9a573d6000803e3d6000fd5b505050506040513d601f19601f82011682018060405250810190611ebe9190612279565b6040516370a0823160e01b81523060048201529091506000906001600160a01b038316906370a0823190602401602060405180830381865afa158015611f08573d6000803e3d6000fd5b505050506040513d601f19601f82011682018060405250810190611f2c91906122dc565b90508015611fa95760405163a9059cbb60e01b81526001600160a01b0385811660048301526024820183905283169063a9059cbb906044016020604051808303816000875af1158015611f83573d6000803e3d6000fd5b505050506040513d601f19601f82011682018060405250810190611fa791906122ba565b505b6040516370a0823160e01b81523060048201526000906001600160a01b038616906370a0823190602401602060405180830381865afa158015611ff0573d6000803e3d6000fd5b505050506040513d601f19601f8201168201806040525081019061201491906122dc565b9050801561207a57604051630852cd8d60e31b81526004810182905285906001600160a01b038216906342966c6890602401600060405180830381600087803b15801561206057600080fd5b505af1158015612074573d6000803e3d6000fd5b50505050505b5050505050565b6001600160a01b038116811461209657600080fd5b50565b6000602082840312156120ab57600080fd5b81356109a381612081565b600080600080600060a086880312156120ce57600080fd5b85356120d981612081565b945060208601359350604086013592506060860135915060808601356120fe81612081565b809150509295509295909350565b6000806040838503121561211f57600080fd5b823561212a81612081565b946020939093013593505050565b60006020828403121561214a57600080fd5b5035919050565b6000806040838503121561216457600080fd5b823561216f81612081565b9150602083013561217f81612081565b809150509250929050565b60008060006060848603121561219f57600080fd5b83356121aa81612081565b925060208401356121ba81612081565b929592945050506040919091013590565b6000806000606084860312156121e057600080fd5b83356121eb81612081565b925060208401359150604084013561220281612081565b809150509250925092565b6000806000806080858703121561222357600080fd5b843561222e81612081565b93506020850135925060408501359150606085013561224c81612081565b939692955090935050565b6000806040838503121561226a57600080fd5b50508035926020909101359150565b60006020828403121561228b57600080fd5b81516109a381612081565b6001600160a01b039384168152919092166020820152604081019190915260600190565b6000602082840312156122cc57600080fd5b815180151581146109a357600080fd5b6000602082840312156122ee57600080fd5b5051919050565b634e487b7160e01b600052601160045260246000fd5b80820180821115610902576109026122f5565b81810381811115610902576109026122f5565b634e487b7160e01b600052603260045260246000fd5b60008261236457634e487b7160e01b600052601260045260246000fd5b500490565b8082028115828204841417610902576109026122f5565b6000806040838503121561239357600080fd5b50508051602090910151909290915056fea164736f6c6343000811000a","linkReferences":{}},"methodIdentifiers":{"PROMISED_WAITING_PHASES_MAX()":"90510c34","PROMISED_WAITING_PHASES_MIN()":"838ac582","accountStakeStatus(address,address)":"863ed5b6","caculateGovVotes(uint256,uint256)":"e1f1c387","cumulatedTokenAmount(address,uint256)":"9be48b06","cumulatedTokenAmountByAccount(address,uint256,address)":"8bf1fecc","currentRound()":"8a19c8bc","govVotesNum(address)":"15664f8d","initialStakeRound(address)":"f26fc94a","initialize(uint256,uint256)":"e4a30116","initialized()":"158ef93e","originBlocks()":"b2ad3730","phaseBlocks()":"60a918b7","roundByBlockNumber(uint256)":"3bdf9f13","stakeLiquidity(address,uint256,uint256,uint256,address)":"231cc991","stakeToken(address,uint256,uint256,address)":"a1d43e1d","stakeTokenUpdatedRoundsAtIndex(address,uint256)":"291f5a78","stakeTokenUpdatedRoundsByAccountAtIndex(address,address,uint256)":"896467d4","stakeTokenUpdatedRoundsByAccountCount(address,address)":"a9a248db","stakeTokenUpdatedRoundsCount(address)":"bcf78a9f","unstake(address)":"f2888dbb","validGovVotes(address,address)":"a1c9e604","withdraw(address)":"51cff8d9"},"id":76}