{"abi":[{"type":"function","name":"FIRST_PARENT_TOKEN_FUNDRAISING_GOAL","inputs":[],"outputs":[{"name":"","type":"uint256","internalType":"uint256"}],"stateMutability":"view"},{"type":"function","name":"MIN_GOV_REWARD_MINTS_TO_LAUNCH","inputs":[],"outputs":[{"name":"","type":"uint256","internalType":"uint256"}],"stateMutability":"view"},{"type":"function","name":"PARENT_TOKEN_FUNDRAISING_GOAL","inputs":[],"outputs":[{"name":"","type":"uint256","internalType":"uint256"}],"stateMutability":"view"},{"type":"function","name":"SECOND_HALF_MIN_BLOCKS","inputs":[],"outputs":[{"name":"","type":"uint256","internalType":"uint256"}],"stateMutability":"view"},{"type":"function","name":"TOKEN_SYMBOL_LENGTH","inputs":[],"outputs":[{"name":"","type":"uint256","internalType":"uint256"}],"stateMutability":"view"},{"type":"function","name":"WITHDRAW_WAITING_BLOCKS","inputs":[],"outputs":[{"name":"","type":"uint256","internalType":"uint256"}],"stateMutability":"view"},{"type":"function","name":"childTokensAtIndex","inputs":[{"name":"parentTokenAddress","type":"address","internalType":"address"},{"name":"index","type":"uint256","internalType":"uint256"}],"outputs":[{"name":"","type":"address","internalType":"address"}],"stateMutability":"view"},{"type":"function","name":"childTokensByLauncherAtIndex","inputs":[{"name":"parentTokenAddress","type":"address","internalType":"address"},{"name":"launcher","type":"address","internalType":"address"},{"name":"index","type":"uint256","internalType":"uint256"}],"outputs":[{"name":"","type":"address","internalType":"address"}],"stateMutability":"view"},{"type":"function","name":"childTokensByLauncherCount","inputs":[{"name":"parentTokenAddress","type":"address","internalType":"address"},{"name":"launcher","type":"address","internalType":"address"}],"outputs":[{"name":"","type":"uint256","internalType":"uint256"}],"stateMutability":"view"},{"type":"function","name":"childTokensCount","inputs":[{"name":"parentTokenAddress","type":"address","internalType":"address"}],"outputs":[{"name":"","type":"uint256","internalType":"uint256"}],"stateMutability":"view"},{"type":"function","name":"claim","inputs":[{"name":"tokenAddress","type":"address","internalType":"address"}],"outputs":[{"name":"receiveTokenAmount","type":"uint256","internalType":"uint256"},{"name":"extraRefund","type":"uint256","internalType":"uint256"}],"stateMutability":"nonpayable"},{"type":"function","name":"claimInfo","inputs":[{"name":"tokenAddress","type":"address","internalType":"address"},{"name":"account","type":"address","internalType":"address"}],"outputs":[{"name":"receivedTokenAmount","type":"uint256","internalType":"uint256"},{"name":"extraRefund","type":"uint256","internalType":"uint256"},{"name":"isClaimed","type":"bool","internalType":"bool"}],"stateMutability":"view"},{"type":"function","name":"contribute","inputs":[{"name":"tokenAddress","type":"address","internalType":"address"},{"name":"parentTokenAmount","type":"uint256","internalType":"uint256"},{"name":"to","type":"address","internalType":"address"}],"outputs":[],"stateMutability":"nonpayable"},{"type":"function","name":"contributed","inputs":[{"name":"","type":"address","internalType":"address"},{"name":"","type":"address","internalType":"address"}],"outputs":[{"name":"","type":"uint256","internalType":"uint256"}],"stateMutability":"view"},{"type":"function","name":"initialize","inputs":[{"name":"tokenFactoryAddress_","type":"address","internalType":"address"},{"name":"submitAddress_","type":"address","internalType":"address"},{"name":"mintAddress_","type":"address","internalType":"address"},{"name":"tokenSymbolLength","type":"uint256","internalType":"uint256"},{"name":"firstParentTokenFundraisingGoal","type":"uint256","internalType":"uint256"},{"name":"parentTokenFundraisingGoal","type":"uint256","internalType":"uint256"},{"name":"secondHalfMinBlocks","type":"uint256","internalType":"uint256"},{"name":"withdrawWaitingBlocks","type":"uint256","internalType":"uint256"},{"name":"numOfMintGovRewardPerLaunchToken","type":"uint256","internalType":"uint256"}],"outputs":[],"stateMutability":"nonpayable"},{"type":"function","name":"initialized","inputs":[],"outputs":[{"name":"","type":"bool","internalType":"bool"}],"stateMutability":"view"},{"type":"function","name":"isLOVE20Token","inputs":[{"name":"tokenAddress","type":"address","internalType":"address"}],"outputs":[{"name":"","type":"bool","internalType":"bool"}],"stateMutability":"view"},{"type":"function","name":"lastContributedBlock","inputs":[{"name":"","type":"address","internalType":"address"},{"name":"","type":"address","internalType":"address"}],"outputs":[{"name":"","type":"uint256","internalType":"uint256"}],"stateMutability":"view"},{"type":"function","name":"launchInfo","inputs":[{"name":"tokenAddress","type":"address","internalType":"address"}],"outputs":[{"name":"info","type":"tuple","internalType":"struct LaunchInfo","components":[{"name":"parentTokenAddress","type":"address","internalType":"address"},{"name":"parentTokenFundraisingGoal","type":"uint256","internalType":"uint256"},{"name":"secondHalfMinBlocks","type":"uint256","internalType":"uint256"},{"name":"launchAmount","type":"uint256","internalType":"uint256"},{"name":"startBlock","type":"uint256","internalType":"uint256"},{"name":"secondHalfStartBlock","type":"uint256","internalType":"uint256"},{"name":"endBlock","type":"uint256","internalType":"uint256"},{"name":"hasEnded","type":"bool","internalType":"bool"},{"name":"participantCount","type":"uint256","internalType":"uint256"},{"name":"totalContributed","type":"uint256","internalType":"uint256"},{"name":"totalExtraRefunded","type":"uint256","internalType":"uint256"}]}],"stateMutability":"view"},{"type":"function","name":"launchToken","inputs":[{"name":"tokenSymbol","type":"string","internalType":"string"},{"name":"parentTokenAddress","type":"address","internalType":"address"}],"outputs":[{"name":"","type":"address","internalType":"address"}],"stateMutability":"nonpayable"},{"type":"function","name":"launchedChildTokensAtIndex","inputs":[{"name":"parentTokenAddress","type":"address","internalType":"address"},{"name":"index","type":"uint256","internalType":"uint256"}],"outputs":[{"name":"","type":"address","internalType":"address"}],"stateMutability":"view"},{"type":"function","name":"launchedChildTokensCount","inputs":[{"name":"parentTokenAddress","type":"address","internalType":"address"}],"outputs":[{"name":"","type":"uint256","internalType":"uint256"}],"stateMutability":"view"},{"type":"function","name":"launchedTokensAtIndex","inputs":[{"name":"index","type":"uint256","internalType":"uint256"}],"outputs":[{"name":"","type":"address","internalType":"address"}],"stateMutability":"view"},{"type":"function","name":"launchedTokensCount","inputs":[],"outputs":[{"name":"","type":"uint256","internalType":"uint256"}],"stateMutability":"view"},{"type":"function","name":"launchingChildTokensAtIndex","inputs":[{"name":"parentTokenAddress","type":"address","internalType":"address"},{"name":"index","type":"uint256","internalType":"uint256"}],"outputs":[{"name":"","type":"address","internalType":"address"}],"stateMutability":"view"},{"type":"function","name":"launchingChildTokensCount","inputs":[{"name":"parentTokenAddress","type":"address","internalType":"address"}],"outputs":[{"name":"","type":"uint256","internalType":"uint256"}],"stateMutability":"view"},{"type":"function","name":"launchingTokensAtIndex","inputs":[{"name":"index","type":"uint256","internalType":"uint256"}],"outputs":[{"name":"","type":"address","internalType":"address"}],"stateMutability":"view"},{"type":"function","name":"launchingTokensCount","inputs":[],"outputs":[{"name":"","type":"uint256","internalType":"uint256"}],"stateMutability":"view"},{"type":"function","name":"mintAddress","inputs":[],"outputs":[{"name":"","type":"address","internalType":"address"}],"stateMutability":"view"},{"type":"function","name":"participatedTokensAtIndex","inputs":[{"name":"account","type":"address","internalType":"address"},{"name":"index","type":"uint256","internalType":"uint256"}],"outputs":[{"name":"","type":"address","internalType":"address"}],"stateMutability":"view"},{"type":"function","name":"participatedTokensCount","inputs":[{"name":"account","type":"address","internalType":"address"}],"outputs":[{"name":"","type":"uint256","internalType":"uint256"}],"stateMutability":"view"},{"type":"function","name":"remainingLaunchCount","inputs":[{"name":"parentTokenAddress","type":"address","internalType":"address"},{"name":"account","type":"address","internalType":"address"}],"outputs":[{"name":"count","type":"uint256","internalType":"uint256"}],"stateMutability":"view"},{"type":"function","name":"submitAddress","inputs":[],"outputs":[{"name":"","type":"address","internalType":"address"}],"stateMutability":"view"},{"type":"function","name":"tokenAddressBySymbol","inputs":[{"name":"","type":"string","internalType":"string"}],"outputs":[{"name":"","type":"address","internalType":"address"}],"stateMutability":"view"},{"type":"function","name":"tokenFactoryAddress","inputs":[],"outputs":[{"name":"","type":"address","internalType":"address"}],"stateMutability":"view"},{"type":"function","name":"tokensAtIndex","inputs":[{"name":"index","type":"uint256","internalType":"uint256"}],"outputs":[{"name":"","type":"address","internalType":"address"}],"stateMutability":"view"},{"type":"function","name":"tokensCount","inputs":[],"outputs":[{"name":"","type":"uint256","internalType":"uint256"}],"stateMutability":"view"},{"type":"function","name":"withdraw","inputs":[{"name":"tokenAddress","type":"address","internalType":"address"}],"outputs":[],"stateMutability":"nonpayable"},{"type":"event","name":"Claim","inputs":[{"name":"tokenAddress","type":"address","indexed":true,"internalType":"address"},{"name":"account","type":"address","indexed":true,"internalType":"address"},{"name":"receivedTokenAmount","type":"uint256","indexed":false,"internalType":"uint256"},{"name":"extraRefund","type":"uint256","indexed":false,"internalType":"uint256"}],"anonymous":false},{"type":"event","name":"Contribute","inputs":[{"name":"tokenAddress","type":"address","indexed":true,"internalType":"address"},{"name":"account","type":"address","indexed":true,"internalType":"address"},{"name":"amount","type":"uint256","indexed":false,"internalType":"uint256"},{"name":"totalContributed","type":"uint256","indexed":false,"internalType":"uint256"},{"name":"participantCount","type":"uint256","indexed":false,"internalType":"uint256"}],"anonymous":false},{"type":"event","name":"LaunchEnd","inputs":[{"name":"tokenAddress","type":"address","indexed":true,"internalType":"address"},{"name":"totalContributed","type":"uint256","indexed":false,"internalType":"uint256"},{"name":"participantCount","type":"uint256","indexed":false,"internalType":"uint256"},{"name":"endBlock","type":"uint256","indexed":false,"internalType":"uint256"}],"anonymous":false},{"type":"event","name":"LaunchToken","inputs":[{"name":"tokenAddress","type":"address","indexed":true,"internalType":"address"},{"name":"tokenSymbol","type":"string","indexed":false,"internalType":"string"},{"name":"parentTokenAddress","type":"address","indexed":true,"internalType":"address"},{"name":"account","type":"address","indexed":true,"internalType":"address"}],"anonymous":false},{"type":"event","name":"SecondHalfStart","inputs":[{"name":"tokenAddress","type":"address","indexed":true,"internalType":"address"},{"name":"secondHalfStartBlock","type":"uint256","indexed":false,"internalType":"uint256"},{"name":"totalContributed","type":"uint256","indexed":false,"internalType":"uint256"}],"anonymous":false},{"type":"event","name":"Withdraw","inputs":[{"name":"tokenAddress","type":"address","indexed":true,"internalType":"address"},{"name":"account","type":"address","indexed":true,"internalType":"address"},{"name":"amount","type":"uint256","indexed":false,"internalType":"uint256"}],"anonymous":false},{"type":"error","name":"AlreadyInitialized","inputs":[]},{"type":"error","name":"ClaimDelayNotPassed","inputs":[]},{"type":"error","name":"InvalidParentToken","inputs":[]},{"type":"error","name":"InvalidToAddress","inputs":[]},{"type":"error","name":"InvalidTokenAddress","inputs":[]},{"type":"error","name":"InvalidTokenSymbol","inputs":[]},{"type":"error","name":"LaunchAlreadyEnded","inputs":[]},{"type":"error","name":"LaunchAlreadyExists","inputs":[]},{"type":"error","name":"LaunchNotEnded","inputs":[]},{"type":"error","name":"NoContribution","inputs":[]},{"type":"error","name":"NotEligibleToLaunchToken","inputs":[]},{"type":"error","name":"NotEnoughWaitingBlocks","inputs":[]},{"type":"error","name":"ParentTokenNotSet","inputs":[]},{"type":"error","name":"TokenSymbolExists","inputs":[]},{"type":"error","name":"TokensAlreadyClaimed","inputs":[]},{"type":"error","name":"ZeroContribution","inputs":[]}],"bytecode":{"object":"0x608060405234801561001057600080fd5b506125c9806100206000396000f3fe608060405234801561001057600080fd5b50600436106102325760003560e01c80636667076c11610130578063be19f0a7116100b8578063e32fa43a1161007c578063e32fa43a14610585578063e388878f14610598578063fa20b63b146105ab578063fa9e0e92146105be578063ffd53ab6146105c657600080fd5b8063be19f0a71461050a578063cc86d17c14610522578063d80989ed14610535578063dd38ea9314610569578063e02f08c71461057257600080fd5b806391c394b9116100ff57806391c394b9146104c05780639cd5edb0146104c9578063a64ed8ba146104dc578063af3fefe5146104e4578063bb4a2509146104f757600080fd5b80636667076c146104675780638025bf9a1461047a57806380456e3c1461049a5780638e283c93146104ad57600080fd5b806341377d10116101be57806351cff8d91161018257806351cff8d9146103f65780635337eaab14610409578063546147e4146104125780635979190b146104255780635a173c191461042e57600080fd5b806341377d101461034a57806341f650011461037a578063424218bc146103a3578063425d4980146103ce5780634cbc1553146103e157600080fd5b80631ec06d47116102055780631ec06d47146102c257806320fe512e146102ed578063269d1f56146103005780632e03e22a1461031357806330364e011461034157600080fd5b80630dfa134514610237578063108ec44e14610252578063158ef93e1461027d5780631e83409a1461029a575b600080fd5b61023f6105cf565b6040519081526020015b60405180910390f35b61023f610260366004611f6c565b600d60209081526000928352604080842090915290825290205481565b60005461028a9060ff1681565b6040519015158152602001610249565b6102ad6102a8366004611fa5565b6105e0565b60408051928352602083019190915201610249565b6102d56102d0366004611fc2565b610841565b6040516001600160a01b039091168152602001610249565b6102d56102fb3660046120a0565b610854565b6102d561030e3660046120e7565b610997565b61028a610321366004611fa5565b6001600160a01b039081166000908152600c602052604090205416151590565b61023f60045481565b61035d610358366004611f6c565b6109dd565b604080519384526020840192909252151590820152606001610249565b61023f610388366004611fa5565b6001600160a01b03166000908152600b602052604090205490565b61023f6103b1366004611f6c565b600e60209081526000928352604080842090915290825290205481565b6002546102d5906001600160a01b031681565b6103f46103ef366004612113565b610adf565b005b6103f4610404366004611fa5565b610e1e565b61023f60035481565b6102d5610420366004611fc2565b611031565b61023f60085481565b61023f61043c366004611f6c565b6001600160a01b03918216600090815260116020908152604080832093909416825291909152205490565b61023f610475366004611f6c565b61103e565b61048d610488366004611fa5565b6111c2565b6040516102499190612155565b6102d56104a83660046120e7565b6112ca565b61023f6104bb366004611fa5565b6112ec565b61023f60075481565b6102d56104d73660046120e7565b61130d565b60095461023f565b61023f6104f2366004611fa5565b61132f565b6103f46105053660046121df565b611350565b6000546102d59061010090046001600160a01b031681565b6102d5610530366004611fc2565b6113dd565b6102d5610543366004612260565b8051602081830181018051600a825292820191909301209152546001600160a01b031681565b61023f60065481565b61023f610580366004611fa5565b61140d565b6102d561059336600461229d565b61142e565b6001546102d5906001600160a01b031681565b6102d56105b93660046120e7565b611484565b61023f6114a6565b61023f60055481565b60006105db60126114ae565b905090565b6001600160a01b0381166000908152600c60205260408120600781015482919060ff1661062057604051630d2b497360e21b815260040160405180910390fd5b6001816006015461063191906122f4565b431015610651576040516358ae518b60e11b815260040160405180910390fd5b6001600160a01b0384166000908152600f6020908152604080832033845290915290205460ff16156106965760405163a4f8192960e01b815260040160405180910390fd5b6106a084336114b8565b909350915060008390036106c757604051631971fbf360e21b815260040160405180910390fd5b6001600160a01b0384166000908152600f602090815260408083203384529091528120805460ff19166001179055600a820180548492906107099084906122f4565b9091555050805460405163a9059cbb60e01b8152336004820152602481018490526001600160a01b039091169063a9059cbb906044016020604051808303816000875af115801561075e573d6000803e3d6000fd5b505050506040513d601f19601f820116820180604052508101906107829190612307565b5060405163a9059cbb60e01b8152336004820152602481018490526001600160a01b0385169063a9059cbb906044016020604051808303816000875af11580156107d0573d6000803e3d6000fd5b505050506040513d601f19601f820116820180604052508101906107f49190612307565b50604080518481526020810184905233916001600160a01b038716917f865ca08d59f5cb456e85cd2f7ef63664ea4f73327414e9d8152c4158b0e94645910160405180910390a350915091565b600061084e6012836115c1565b92915050565b60008061086060095490565b11156109865761086f836115cd565b6001600160a01b038083166000908152600c6020526040902054166108a7576040516319c3fe5160e21b815260040160405180910390fd5b6108b1823361103e565b6000036108d157604051630e169fb760e41b815260040160405180910390fd5b6000826001600160a01b03166395d89b416040518163ffffffff1660e01b8152600401600060405180830381865afa158015610911573d6000803e3d6000fd5b505050506040513d6000823e601f3d908101601f19168201604052610939919081019061234d565b90506000610946826123bb565b9050632ae6a32360e21b6001600160e01b0319821601610983578460405160200161097191906123f2565b60405160208183030381529060405294505b50505b61099083836117a1565b9392505050565b6001600160a01b0382166000908152600b602052604081208054839081106109c1576109c161241e565b6000918252602090912001546001600160a01b03169392505050565b6001600160a01b038083166000908152600c60209081526040808320815161016081018352815490951685526001810154928501929092526002820154908401526003810154606084015260048101546080840152600581015460a0840152600681015460c0840152600781015460ff16151560e0840181905260088201546101008501526009820154610120850152600a9091015461014084015290918291829190610a9d57604051630d2b497360e21b815260040160405180910390fd5b6001600160a01b038087166000908152600f602090815260408083209389168352929052205460ff169150610ad286866114b8565b9094509250509250925092565b6001600160a01b038084166000908152600c602052604090205416610b1757604051630f58058360e11b815260040160405180910390fd5b81600003610b3857604051631570544960e31b815260040160405180910390fd5b6001600160a01b038116610b5f57604051638aa3a72f60e01b815260040160405180910390fd5b6001600160a01b0383166000908152600c60205260409020600781015460ff1615610b9d57604051636a25ec6f60e01b815260040160405180910390fd5b80546040516323b872dd60e01b8152336004820152306024820152604481018590526001600160a01b03909116906323b872dd906064016020604051808303816000875af1158015610bf3573d6000803e3d6000fd5b505050506040513d601f19601f82011682018060405250810190610c179190612307565b506001600160a01b038085166000908152600d602090815260408083209386168352929052908120549003610c84576001816008016000828254610c5b91906122f4565b90915550506001600160a01b0382166000908152601060205260409020610c829085611a58565b505b82816009016000828254610c9891906122f4565b90915550506001600160a01b038085166000908152600d6020908152604080832093861683529290529081208054859290610cd49084906122f4565b90915550506001600160a01b038481166000818152600e6020908152604080832094871680845294825291829020439055600985015460088601548351898152928301919091528183015290517e3a002894ca2620295e71671a091bbc1a3c6a3c14c80812024a552f26aca8099181900360600190a36005810154158015610d70575060028160010154610d689190612434565b816009015410155b15610dd157436005820181905560098201546040516001600160a01b038716927f87c631bf98ca55bf60b33a8463f37bd1b9039f3ccbdf980910057eac2ff07fb992610dc492918252602082015260400190565b60405180910390a2610e18565b600581015415801590610df6575060028101546005820154610df39043612456565b10155b8015610e0a57508060010154816009015410155b15610e1857610e1884611a6d565b50505050565b6001600160a01b0381166000908152600c60205260409020600781015460ff1615610e5c57604051636a25ec6f60e01b815260040160405180910390fd5b6001600160a01b0382166000908152600d6020908152604080832033845290915281205490819003610ea157604051631971fbf360e21b815260040160405180910390fd5b6007546001600160a01b0384166000908152600e60209081526040808320338452909152902054610ed29043612456565b1015610ef157604051637aad2fc160e11b815260040160405180910390fd5b6001826008016000828254610f069190612456565b9091555050336000908152601060205260409020610f249084611bd0565b5080826009016000828254610f399190612456565b90915550506001600160a01b038381166000818152600d6020908152604080832033808552908352818420849055938352600e8252808320848452909152808220919091558454905163a9059cbb60e01b81526004810192909252602482018490529091169063a9059cbb906044016020604051808303816000875af1158015610fc7573d6000803e3d6000fd5b505050506040513d601f19601f82011682018060405250810190610feb9190612307565b5060405181815233906001600160a01b038516907f9b1bfa7fa9ee420a16e124f794c35ac9f90472acc99140eb2f6447c714cad8eb9060200160405180910390a3505050565b600061084e6015836115c1565b6001600160a01b038083166000908152600c6020526040812054909116611078576040516319c3fe5160e21b815260040160405180910390fd5b600154604051630273479760e41b81526001600160a01b038581166004830152848116602483015290911690632734797090604401602060405180830381865afa1580156110ca573d6000803e3d6000fd5b505050506040513d601f19601f820116820180604052508101906110ee9190612307565b6110fa5750600061084e565b6001600160a01b0380841660009081526011602090815260408083209386168352929052908120546002546040516320e5ca6560e11b81526001600160a01b0387811660048301528681166024830152929350600092909116906341cb94ca90604401602060405180830381865afa15801561117a573d6000803e3d6000fd5b505050506040513d601f19601f8201168201806040525081019061119e9190612469565b905081600854826111af9190612434565b6111b99190612456565b95945050505050565b61122a60405180610160016040528060006001600160a01b031681526020016000815260200160008152602001600081526020016000815260200160008152602001600081526020016000151581526020016000815260200160008152602001600081525090565b506001600160a01b039081166000908152600c6020908152604091829020825161016081018452815490941684526001810154918401919091526002810154918301919091526003810154606083015260048101546080830152600581015460a0830152600681015460c0830152600781015460ff16151560e083015260088101546101008301526009810154610120830152600a015461014082015290565b6001600160a01b038216600090815260146020526040812061099090836115c1565b6001600160a01b038116600090815260106020526040812061084e906114ae565b6001600160a01b038216600090815260176020526040812061099090836115c1565b6001600160a01b038116600090815260176020526040812061084e906114ae565b60005460ff16156113735760405162dc149f60e41b815260040160405180910390fd5b6000805460016001600160a81b03199091166101006001600160a01b039c8d160217811790915580546001600160a01b0319908116998b16999099179055600280549098169690981695909517909555600392909255600455600555600691909155600755600855565b6000600982815481106113f2576113f261241e565b6000918252602090912001546001600160a01b031692915050565b6001600160a01b038116600090815260146020526040812061084e906114ae565b6001600160a01b03808416600090815260116020908152604080832093861683529290529081208054839081106114675761146761241e565b6000918252602090912001546001600160a01b0316949350505050565b6001600160a01b038216600090815260106020526040812061099090836115c1565b60006105db60155b600061084e825490565b6001600160a01b038083166000818152600c6020908152604080832081516101608101835281548716815260018201548185015260028201548184015260038201546060820190815260048301546080830152600583015460a0830152600683015460c0830152600783015460ff16151560e0830152600883015461010083015260098301546101208301908152600a90930154610140830152958552600d84528285209688168552959092528220549051925191938493909261157d908390612482565b6115879190612434565b61012083015160208401519195509082906115a29083612456565b6115ac9190612482565b6115b69190612434565b925050509250929050565b60006109908383611be5565b6003548151604160f81b91602d60f91b91600360fc1b91603960f81b91146116085760405163220839c960e01b815260040160405180910390fd5b836001600160f81b031916856000815181106116265761162661241e565b01602001516001600160f81b0319161080159061166e5750826001600160f81b0319168560008151811061165c5761165c61241e565b01602001516001600160f81b03191611155b61168b5760405163220839c960e01b815260040160405180910390fd5b60015b855181101561179957846001600160f81b0319168682815181106116b4576116b461241e565b01602001516001600160f81b031916108015906116fb5750836001600160f81b0319168682815181106116e9576116e961241e565b01602001516001600160f81b03191611155b1580156117695750826001600160f81b0319168682815181106117205761172061241e565b01602001516001600160f81b031916108015906117675750816001600160f81b0319168682815181106117555761175561241e565b01602001516001600160f81b03191611155b155b156117875760405163220839c960e01b815260040160405180910390fd5b8061179181612499565b91505061168e565b505050505050565b6000806001600160a01b0316600a846040516117bd91906124b2565b908152604051908190036020019020546001600160a01b0316146117f45760405163d567cb6d60e01b815260040160405180910390fd5b6000826001600160a01b03166395d89b416040518163ffffffff1660e01b8152600401600060405180830381865afa158015611834573d6000803e3d6000fd5b505050506040513d6000823e601f3d908101601f1916820160405261185c919081019061234d565b9050600084826040516020016118739291906124ce565b60408051808303601f19018152908290526000805463d4c6a3c160e01b8452919350916101009091046001600160a01b03169063d4c6a3c1906118be90889086908b90600401612536565b6020604051808303816000875af11580156118dd573d6000803e3d6000fd5b505050506040513d601f19601f820116820180604052508101906119019190612576565b6009805460018181019092557f6e1540171b6c0c960b71a7020d9f60077f6af931a8bbf590da0223dacf75c7af0180546001600160a01b038085166001600160a01b03199283168117909355891660009081526011602090815260408083203384528252808320805496870181558352912090930180549091169091179055519091508190600a906119949089906124b2565b908152604080516020928190038301902080546001600160a01b03199081166001600160a01b03958616179091558884166000908152600b845291822080546001810182559083529290912090910180549091169183169190911790556119fa81611c0f565b336001600160a01b0316856001600160a01b0316826001600160a01b03167f4923528950c404c138bdd8625228bbd379f3963a9a6f54f41fea23680470b6b889604051611a479190612593565b60405180910390a495945050505050565b6000610990836001600160a01b038416611e12565b6001600160a01b0381166000908152600c6020526040902060078101805460ff19166001179055436006820155611aa5601283611bd0565b5080546001600160a01b03166000908152601460205260409020611ac99083611bd0565b50611ad5601583611a58565b5080546001600160a01b03166000908152601760205260409020611af99083611a58565b508054600182015460405163a9059cbb60e01b81526001600160a01b038581166004830152602482019290925291169063a9059cbb906044016020604051808303816000875af1158015611b51573d6000803e3d6000fd5b505050506040513d601f19601f82011682018060405250810190611b759190612307565b506009810154600882015460408051928352602083019190915243908201526001600160a01b038316907f7d51a6b28c644edd635f534b373ac3e437432b8fb158e0581ef829b9d164eb4e9060600160405180910390a25050565b6000610990836001600160a01b038416611e61565b6000826000018281548110611bfc57611bfc61241e565b9060005260206000200154905092915050565b6001600160a01b038181166000908152600c60205260409020541615611c485760405163784bb15b60e11b815260040160405180910390fd5b6000816001600160a01b03166347502b536040518163ffffffff1660e01b8152600401602060405180830381865afa158015611c88573d6000803e3d6000fd5b505050506040513d601f19601f82011682018060405250810190611cac9190612576565b90506001600160a01b038116611cd557604051632fba9b5b60e21b815260040160405180910390fd5b6001600160a01b038281166000908152600c6020526040812080546001600160a01b03191692841692909217825560098054909190611d1657611d1661241e565b6000918252602090912001546001600160a01b0390811690841603611d42576004546001820155611d4b565b60055460018201555b6006548160020181905550600060019054906101000a90046001600160a01b03166001600160a01b031663e29d26fb6040518163ffffffff1660e01b8152600401602060405180830381865afa158015611da9573d6000803e3d6000fd5b505050506040513d601f19601f82011682018060405250810190611dcd9190612469565b600382015543600482015560078101805460ff19169055611def601284611a58565b506001600160a01b0382166000908152601460205260409020610e189084611a58565b6000818152600183016020526040812054611e595750815460018181018455600084815260208082209093018490558454848252828601909352604090209190915561084e565b50600061084e565b60008181526001830160205260408120548015611f4a576000611e85600183612456565b8554909150600090611e9990600190612456565b9050818114611efe576000866000018281548110611eb957611eb961241e565b9060005260206000200154905080876000018481548110611edc57611edc61241e565b6000918252602080832090910192909255918252600188019052604090208390555b8554869080611f0f57611f0f6125a6565b60019003818190600052602060002001600090559055856001016000868152602001908152602001600020600090556001935050505061084e565b600091505061084e565b6001600160a01b0381168114611f6957600080fd5b50565b60008060408385031215611f7f57600080fd5b8235611f8a81611f54565b91506020830135611f9a81611f54565b809150509250929050565b600060208284031215611fb757600080fd5b813561099081611f54565b600060208284031215611fd457600080fd5b5035919050565b634e487b7160e01b600052604160045260246000fd5b604051601f8201601f1916810167ffffffffffffffff8111828210171561201a5761201a611fdb565b604052919050565b600067ffffffffffffffff82111561203c5761203c611fdb565b50601f01601f191660200190565b600082601f83011261205b57600080fd5b813561206e61206982612022565b611ff1565b81815284602083860101111561208357600080fd5b816020850160208301376000918101602001919091529392505050565b600080604083850312156120b357600080fd5b823567ffffffffffffffff8111156120ca57600080fd5b6120d68582860161204a565b9250506020830135611f9a81611f54565b600080604083850312156120fa57600080fd5b823561210581611f54565b946020939093013593505050565b60008060006060848603121561212857600080fd5b833561213381611f54565b925060208401359150604084013561214a81611f54565b809150509250925092565b81516001600160a01b0316815261016081016020830151602083015260408301516040830152606083015160608301526080830151608083015260a083015160a083015260c083015160c083015260e08301516121b660e084018215159052565b506101008381015190830152610120808401519083015261014092830151929091019190915290565b60008060008060008060008060006101208a8c0312156121fe57600080fd5b893561220981611f54565b985060208a013561221981611f54565b975060408a013561222981611f54565b989b979a5097986060810135985060808101359760a0820135975060c0820135965060e08201359550610100909101359350915050565b60006020828403121561227257600080fd5b813567ffffffffffffffff81111561228957600080fd5b6122958482850161204a565b949350505050565b6000806000606084860312156122b257600080fd5b83356122bd81611f54565b925060208401356122cd81611f54565b929592945050506040919091013590565b634e487b7160e01b600052601160045260246000fd5b8082018082111561084e5761084e6122de565b60006020828403121561231957600080fd5b8151801515811461099057600080fd5b60005b8381101561234457818101518382015260200161232c565b50506000910152565b60006020828403121561235f57600080fd5b815167ffffffffffffffff81111561237657600080fd5b8201601f8101841361238757600080fd5b805161239561206982612022565b8181528560208385010111156123aa57600080fd5b6111b9826020830160208601612329565b805160208201516001600160e01b031980821692919060048310156123ea5780818460040360031b1b83161693505b505050919050565b6315195cdd60e21b815260008251612411816004850160208701612329565b9190910160040192915050565b634e487b7160e01b600052603260045260246000fd5b60008261245157634e487b7160e01b600052601260045260246000fd5b500490565b8181038181111561084e5761084e6122de565b60006020828403121561247b57600080fd5b5051919050565b808202811582820484141761084e5761084e6122de565b6000600182016124ab576124ab6122de565b5060010190565b600082516124c4818460208701612329565b9190910192915050565b600083516124e0818460208801612329565b600160fe1b90830190815283516124fe816001840160208801612329565b01600101949350505050565b60008151808452612522816020860160208601612329565b601f01601f19169290920160200192915050565b6001600160a01b038416815260606020820181905260009061255a9083018561250a565b828103604084015261256c818561250a565b9695505050505050565b60006020828403121561258857600080fd5b815161099081611f54565b602081526000610990602083018461250a565b634e487b7160e01b600052603160045260246000fdfea164736f6c6343000811000a","linkReferences":{}},"methodIdentifiers":{"FIRST_PARENT_TOKEN_FUNDRAISING_GOAL()":"30364e01","MIN_GOV_REWARD_MINTS_TO_LAUNCH()":"5979190b","PARENT_TOKEN_FUNDRAISING_GOAL()":"ffd53ab6","SECOND_HALF_MIN_BLOCKS()":"dd38ea93","TOKEN_SYMBOL_LENGTH()":"5337eaab","WITHDRAW_WAITING_BLOCKS()":"91c394b9","childTokensAtIndex(address,uint256)":"269d1f56","childTokensByLauncherAtIndex(address,address,uint256)":"e32fa43a","childTokensByLauncherCount(address,address)":"5a173c19","childTokensCount(address)":"41f65001","claim(address)":"1e83409a","claimInfo(address,address)":"41377d10","contribute(address,uint256,address)":"4cbc1553","contributed(address,address)":"108ec44e","initialize(address,address,address,uint256,uint256,uint256,uint256,uint256,uint256)":"bb4a2509","initialized()":"158ef93e","isLOVE20Token(address)":"2e03e22a","lastContributedBlock(address,address)":"424218bc","launchInfo(address)":"8025bf9a","launchToken(string,address)":"20fe512e","launchedChildTokensAtIndex(address,uint256)":"9cd5edb0","launchedChildTokensCount(address)":"af3fefe5","launchedTokensAtIndex(uint256)":"546147e4","launchedTokensCount()":"fa9e0e92","launchingChildTokensAtIndex(address,uint256)":"80456e3c","launchingChildTokensCount(address)":"e02f08c7","launchingTokensAtIndex(uint256)":"1ec06d47","launchingTokensCount()":"0dfa1345","mintAddress()":"425d4980","participatedTokensAtIndex(address,uint256)":"fa20b63b","participatedTokensCount(address)":"8e283c93","remainingLaunchCount(address,address)":"6667076c","submitAddress()":"e388878f","tokenAddressBySymbol(string)":"d80989ed","tokenFactoryAddress()":"be19f0a7","tokensAtIndex(uint256)":"cc86d17c","tokensCount()":"a64ed8ba","withdraw(address)":"51cff8d9"},"id":71}