{"abi":[{"type":"constructor","inputs":[{"name":"groupMember_","type":"address","internalType":"address"},{"name":"groupJoin_","type":"address","internalType":"address"}],"stateMutability":"nonpayable"},{"type":"function","name":"GROUP_JOIN_ADDRESS","inputs":[],"outputs":[{"name":"","type":"address","internalType":"address"}],"stateMutability":"view"},{"type":"function","name":"GROUP_MEMBER_ADDRESS","inputs":[],"outputs":[{"name":"","type":"address","internalType":"address"}],"stateMutability":"view"},{"type":"function","name":"canPost","inputs":[{"name":"groupId","type":"uint256","internalType":"uint256"},{"name":"senderId","type":"uint256","internalType":"uint256"},{"name":"senderAddress","type":"address","internalType":"address"}],"outputs":[{"name":"","type":"bool","internalType":"bool"}],"stateMutability":"view"},{"type":"error","name":"GroupJoinScopeSourceAddressHasNoCode","inputs":[]}],"bytecode":{"object":"0x60c060405234801561001057600080fd5b506040516103c93803806103c983398101604081905261002f9161009f565b6001600160a01b0382163b158061004e57506001600160a01b0381163b155b1561006c5760405163104dcefd60e31b815260040160405180910390fd5b6001600160a01b039182166080521660a0526100d2565b80516001600160a01b038116811461009a57600080fd5b919050565b600080604083850312156100b257600080fd5b6100bb83610083565b91506100c960208401610083565b90509250929050565b60805160a0516102c761010260003960008181604b015261019a01526000818160b2015260f401526102c76000f3fe608060405234801561001057600080fd5b50600436106100415760003560e01c80639f541f5214610046578063e20f18b31461008a578063ef7635dd146100ad575b600080fd5b61006d7f000000000000000000000000000000000000000000000000000000000000000081565b6040516001600160a01b0390911681526020015b60405180910390f35b61009d610098366004610211565b6100d4565b6040519015158152602001610081565b61006d7f000000000000000000000000000000000000000000000000000000000000000081565b604051636644a3c360e11b815260048101849052602481018390526000907f00000000000000000000000000000000000000000000000000000000000000006001600160a01b03169063cc89478690604401602060405180830381865afa158015610143573d6000803e3d6000fd5b505050506040513d601f19601f820116820180604052508101906101679190610256565b156101745750600161020a565b6040516315a2fe1f60e11b8152600481018590526001600160a01b0383811660248301527f00000000000000000000000000000000000000000000000000000000000000001690632b45fc3e90604401602060405180830381865afa1580156101e1573d6000803e3d6000fd5b505050506040513d601f19601f820116820180604052508101906102059190610278565b151590505b9392505050565b60008060006060848603121561022657600080fd5b833592506020840135915060408401356001600160a01b038116811461024b57600080fd5b809150509250925092565b60006020828403121561026857600080fd5b8151801515811461020a57600080fd5b60006020828403121561028a57600080fd5b505191905056fea2646970667358221220c00376bce862c25ba1bea5ff32d73549022ef78b6ad33b120fffe6e9cf10cf8564736f6c63430008110033","linkReferences":{}},"methodIdentifiers":{"GROUP_JOIN_ADDRESS()":"9f541f52","GROUP_MEMBER_ADDRESS()":"ef7635dd","canPost(uint256,uint256,address)":"e20f18b3"},"id":47}